{
  "_format": "hh-sol-artifact-1",
  "contractName": "GracePeriodAutomation",
  "sourceName": "contracts/automations/GracePeriodAutomation.sol",
  "abi": [
    {
      "inputs": [
        {
          "internalType": "address",
          "name": "_registry",
          "type": "address"
        }
      ],
      "stateMutability": "nonpayable",
      "type": "constructor"
    },
    {
      "anonymous": false,
      "inputs": [
        {
          "indexed": true,
          "internalType": "address",
          "name": "ownerAddress",
          "type": "address"
        },
        {
          "indexed": false,
          "internalType": "bool",
          "name": "isDead",
          "type": "bool"
        },
        {
          "indexed": false,
          "internalType": "uint256",
          "name": "processTime",
          "type": "uint256"
        }
      ],
      "name": "GracePeriodProcessed",
      "type": "event"
    },
    {
      "anonymous": false,
      "inputs": [
        {
          "indexed": true,
          "internalType": "address",
          "name": "ownerAddress",
          "type": "address"
        },
        {
          "indexed": false,
          "internalType": "uint256",
          "name": "startTime",
          "type": "uint256"
        }
      ],
      "name": "GracePeriodStarted",
      "type": "event"
    },
    {
      "anonymous": false,
      "inputs": [
        {
          "indexed": true,
          "internalType": "address",
          "name": "ownerAddress",
          "type": "address"
        },
        {
          "indexed": false,
          "internalType": "uint256",
          "name": "pingTime",
          "type": "uint256"
        }
      ],
      "name": "OwnerPinged",
      "type": "event"
    },
    {
      "inputs": [
        {
          "internalType": "address",
          "name": "ownerAddress",
          "type": "address"
        }
      ],
      "name": "checkGracePeriodEnd",
      "outputs": [
        {
          "internalType": "bool",
          "name": "hasEnded",
          "type": "bool"
        },
        {
          "internalType": "uint256",
          "name": "endTime",
          "type": "uint256"
        }
      ],
      "stateMutability": "view",
      "type": "function"
    },
    {
      "inputs": [
        {
          "internalType": "bytes",
          "name": "checkData",
          "type": "bytes"
        }
      ],
      "name": "checkUpkeep",
      "outputs": [
        {
          "internalType": "bool",
          "name": "upkeepNeeded",
          "type": "bool"
        },
        {
          "internalType": "bytes",
          "name": "performData",
          "type": "bytes"
        }
      ],
      "stateMutability": "view",
      "type": "function"
    },
    {
      "inputs": [
        {
          "internalType": "address",
          "name": "",
          "type": "address"
        }
      ],
      "name": "gracePeriodStart",
      "outputs": [
        {
          "internalType": "uint256",
          "name": "",
          "type": "uint256"
        }
      ],
      "stateMutability": "view",
      "type": "function"
    },
    {
      "inputs": [
        {
          "internalType": "address",
          "name": "",
          "type": "address"
        }
      ],
      "name": "hasPinged",
      "outputs": [
        {
          "internalType": "bool",
          "name": "",
          "type": "bool"
        }
      ],
      "stateMutability": "view",
      "type": "function"
    },
    {
      "inputs": [
        {
          "internalType": "address",
          "name": "ownerAddress",
          "type": "address"
        }
      ],
      "name": "markOwnerAsDeceased",
      "outputs": [],
      "stateMutability": "nonpayable",
      "type": "function"
    },
    {
      "inputs": [
        {
          "internalType": "bytes",
          "name": "performData",
          "type": "bytes"
        }
      ],
      "name": "performUpkeep",
      "outputs": [],
      "stateMutability": "nonpayable",
      "type": "function"
    },
    {
      "inputs": [
        {
          "internalType": "address",
          "name": "ownerAddress",
          "type": "address"
        }
      ],
      "name": "ping",
      "outputs": [],
      "stateMutability": "nonpayable",
      "type": "function"
    },
    {
      "inputs": [
        {
          "internalType": "address",
          "name": "",
          "type": "address"
        }
      ],
      "name": "processedGracePeriod",
      "outputs": [
        {
          "internalType": "bool",
          "name": "",
          "type": "bool"
        }
      ],
      "stateMutability": "view",
      "type": "function"
    },
    {
      "inputs": [],
      "name": "registry",
      "outputs": [
        {
          "internalType": "contract LifeSignalRegistry",
          "name": "",
          "type": "address"
        }
      ],
      "stateMutability": "view",
      "type": "function"
    },
    {
      "inputs": [
        {
          "internalType": "address",
          "name": "ownerAddress",
          "type": "address"
        }
      ],
      "name": "startGracePeriod",
      "outputs": [],
      "stateMutability": "nonpayable",
      "type": "function"
    }
  ],
  "bytecode": "0x608060405234801561001057600080fd5b506040516112c13803806112c183398101604081905261002f91610054565b600080546001600160a01b0319166001600160a01b0392909216919091179055610084565b60006020828403121561006657600080fd5b81516001600160a01b038116811461007d57600080fd5b9392505050565b61122e806100936000396000f3fe608060405234801561001057600080fd5b506004361061009e5760003560e01c80637b103999116100665780637b103999146101525780639e733e621461017d578063a3fc970c146101a7578063a5e0a4b6146101ba578063d7c83774146101cd57600080fd5b80630557605c146100a357806314df9e43146100db57806336a76238146100f05780634585e33b1461011e5780636e04ff0d14610131575b600080fd5b6100c66100b1366004610ed9565b60036020526000908152604090205460ff1681565b60405190151581526020015b60405180910390f35b6100ee6100e9366004610ed9565b6101f0565b005b6101106100fe366004610ed9565b60016020526000908152604090205481565b6040519081526020016100d2565b6100ee61012c366004610efd565b61047f565b61014461013f366004610efd565b6107d4565b6040516100d2929190610f93565b600054610165906001600160a01b031681565b6040516001600160a01b0390911681526020016100d2565b61019061018b366004610ed9565b610a48565b6040805192151583526020830191909152016100d2565b6100ee6101b5366004610ed9565b610b23565b6100ee6101c8366004610ed9565b610d97565b6100c66101db366004610ed9565b60026020526000908152604090205460ff1681565b336001600160a01b038216146102435760405162461bcd60e51b81526020600482015260136024820152724f6e6c79206f776e65722063616e2070696e6760681b60448201526064015b60405180910390fd5b600080546040516369c2ef4160e11b81526001600160a01b0384811660048301528392169063d385de8290602401600060405180830381865afa15801561028e573d6000803e3d6000fd5b505050506040513d6000823e601f3d908101601f191682016040526102b69190810190611082565b9550955050505050806102db5760405162461bcd60e51b815260040161023a90611119565b81156102f95760405162461bcd60e51b815260040161023a9061114e565b6001600160a01b0383166000908152600160205260409020546103595760405162461bcd60e51b815260206004820152601860248201527711dc9858d9481c195c9a5bd9081b9bdd081cdd185c9d195960421b604482015260640161023a565b6001600160a01b03831660009081526003602052604090205460ff16156103c25760405162461bcd60e51b815260206004820152601e60248201527f477261636520706572696f6420616c72656164792070726f6365737365640000604482015260640161023a565b60008054604080516334f167a960e01b815290516001600160a01b03909216926334f167a99260048084019382900301818387803b15801561040357600080fd5b505af1158015610417573d6000803e3d6000fd5b5050506001600160a01b03841660008181526002602052604090819020805460ff19166001179055519091507f1c33176e53a5ea7e802680f4a7a824697927a65c4c046e6939d569f07c8446ee906104729042815260200190565b60405180910390a2505050565b600061048d82840184610ed9565b600080546040516369c2ef4160e11b81526001600160a01b0380851660048301529394509192839291169063d385de8290602401600060405180830381865afa1580156104de573d6000803e3d6000fd5b505050506040513d6000823e601f3d908101601f191682016040526105069190810190611082565b95509550505050508061052b5760405162461bcd60e51b815260040161023a90611119565b81156105495760405162461bcd60e51b815260040161023a9061114e565b6001600160a01b0383166000908152600160205260409020546105a95760405162461bcd60e51b815260206004820152601860248201527711dc9858d9481c195c9a5bd9081b9bdd081cdd185c9d195960421b604482015260640161023a565b6001600160a01b03831660009081526003602052604090205460ff16156106125760405162461bcd60e51b815260206004820152601e60248201527f477261636520706572696f6420616c72656164792070726f6365737365640000604482015260640161023a565b600080546040516369c2ef4160e11b81526001600160a01b0386811660048301529091169063d385de8290602401600060405180830381865afa15801561065d573d6000803e3d6000fd5b505050506040513d6000823e601f3d908101601f191682016040526106859190810190611082565b50506001600160a01b03881660009081526001602052604081205491955093506106b29250849150611185565b9050804210156107045760405162461bcd60e51b815260206004820152601960248201527f477261636520706572696f64206e6f7420796574206f76657200000000000000604482015260640161023a565b6001600160a01b0385166000908152600360209081526040808320805460ff19166001179055600290915290205460ff161580156107855760408051600181524260208201526001600160a01b038816917f073b02415c6b09933e21630f00df65beeec8f81533ef3533c4f1c76befbd2d1c910160405180910390a26107ca565b60408051600081524260208201526001600160a01b038816917f073b02415c6b09933e21630f00df65beeec8f81533ef3533c4f1c76befbd2d1c910160405180910390a25b5050505050505050565b600060608282036107f75750506040805160208101909152600080825290610a41565b600061080584860186610ed9565b600080546040516369c2ef4160e11b81526001600160a01b0380851660048301529394509192839291169063d385de8290602401600060405180830381865afa158015610856573d6000803e3d6000fd5b505050506040513d6000823e601f3d908101601f1916820160405261087e9190810190611082565b95509550505050508015806108905750815b156108b35760006040518060200160405280600081525094509450505050610a41565b6001600160a01b03831660009081526001602052604081205490036108f05760006040518060200160405280600081525094509450505050610a41565b6001600160a01b03831660009081526003602052604090205460ff161561092f5760006040518060200160405280600081525094509450505050610a41565b600080546040516369c2ef4160e11b81526001600160a01b0386811660048301529091169063d385de8290602401600060405180830381865afa15801561097a573d6000803e3d6000fd5b505050506040513d6000823e601f3d908101601f191682016040526109a29190810190611082565b50506001600160a01b03881660009081526001602052604081205491955093506109cf9250849150611185565b9050804210610a25576001898981818080601f016020809104026020016040519081016040528093929190818152602001838380828437600092019190915250959c50919a50610a419950505050505050505050565b6000604051806020016040528060008152509650965050505050505b9250929050565b6001600160a01b03811660009081526001602052604081205481908103610a7457506000928392509050565b600080546040516369c2ef4160e11b81526001600160a01b0386811660048301529091169063d385de8290602401600060405180830381865afa158015610abf573d6000803e3d6000fd5b505050506040513d6000823e601f3d908101601f19168201604052610ae79190810190611082565b50506001600160a01b0388166000908152600160205260408120549195509350610b149250849150611185565b42811115969095509350505050565b600080546040516369c2ef4160e11b81526001600160a01b0384811660048301528392169063d385de8290602401600060405180830381865afa158015610b6e573d6000803e3d6000fd5b505050506040513d6000823e601f3d908101601f19168201604052610b969190810190611082565b955095505050505080610bbb5760405162461bcd60e51b815260040161023a90611119565b8115610bd95760405162461bcd60e51b815260040161023a9061114e565b6000805460405163996e6ca160e01b81526001600160a01b0386811660048301528392169063996e6ca19060240160c060405180830381865afa158015610c24573d6000803e3d6000fd5b505050506040513d601f19601f82011682018060405250810190610c4891906111ac565b9550505050509150818015610c5a5750805b610cb95760405162461bcd60e51b815260206004820152602a60248201527f4e6f20616374697665206465617468206465636c61726174696f6e207769746860448201526920636f6e73656e73757360b01b606482015260840161023a565b6001600160a01b03851660009081526001602052604090205415610d1f5760405162461bcd60e51b815260206004820152601c60248201527f477261636520706572696f6420616c7265616479207374617274656400000000604482015260640161023a565b6001600160a01b0385166000818152600160209081526040808320429081905560028352818420805460ff1990811690915560038452938290208054909416909355519182527f2bb92f1150248e7f78a267b3904ebd95f62a5225d70dcc813fb6906c3a646e98910160405180910390a25050505050565b6001600160a01b03811660009081526003602052604090205460ff16610dff5760405162461bcd60e51b815260206004820152601a60248201527f477261636520706572696f64206e6f742070726f636573736564000000000000604482015260640161023a565b6001600160a01b03811660009081526002602052604090205460ff1615610e7a5760405162461bcd60e51b815260206004820152602960248201527f4f776e6572206861732070696e6765642c2063616e6e6f74206d61726b20617360448201526808191958d9585cd95960ba1b606482015260840161023a565b60408051600181524260208201526001600160a01b038316917f073b02415c6b09933e21630f00df65beeec8f81533ef3533c4f1c76befbd2d1c910160405180910390a250565b6001600160a01b0381168114610ed657600080fd5b50565b600060208284031215610eeb57600080fd5b8135610ef681610ec1565b9392505050565b60008060208385031215610f1057600080fd5b823567ffffffffffffffff80821115610f2857600080fd5b818501915085601f830112610f3c57600080fd5b813581811115610f4b57600080fd5b866020828501011115610f5d57600080fd5b60209290920196919550909350505050565b60005b83811015610f8a578181015183820152602001610f72565b50506000910152565b82151581526040602082015260008251806040840152610fba816060850160208701610f6f565b601f01601f1916919091016060019392505050565b634e487b7160e01b600052604160045260246000fd5b600082601f830112610ff657600080fd5b815167ffffffffffffffff8082111561101157611011610fcf565b604051601f8301601f19908116603f0116810190828211818310171561103957611039610fcf565b8160405283815286602085880101111561105257600080fd5b611063846020830160208901610f6f565b9695505050505050565b8051801515811461107d57600080fd5b919050565b60008060008060008060c0878903121561109b57600080fd5b865167ffffffffffffffff808211156110b357600080fd5b6110bf8a838b01610fe5565b975060208901519150808211156110d557600080fd5b506110e289828a01610fe5565b95505060408701519350606087015192506110ff6080880161106d565b915061110d60a0880161106d565b90509295509295509295565b6020808252818101527f4f776e657220646f6573206e6f7420657869737420696e207265676973747279604082015260600190565b60208082526019908201527f4f776e657220697320616c726561647920646563656173656400000000000000604082015260600190565b808201808211156111a657634e487b7160e01b600052601160045260246000fd5b92915050565b60008060008060008060c087890312156111c557600080fd5b6111ce8761106d565b95506020870151945060408701519350606087015192506080870151915061110d60a0880161106d56fea2646970667358221220754e60d2ada52afcbf1a459fd7b793bc8a65c31efa0aa78a1ebe03df29d8394864736f6c63430008130033",
  "linkReferences": {},
  "deployedLinkReferences": {}
}