{
  "_format": "hh-sol-artifact-1",
  "contractName": "LifeSignalRegistry",
  "sourceName": "contracts/LifeSignalRegistry.sol",
  "abi": [
    {
      "anonymous": false,
      "inputs": [
        {
          "indexed": true,
          "internalType": "address",
          "name": "owner",
          "type": "address"
        },
        {
          "indexed": false,
          "internalType": "bool",
          "name": "isDeceased",
          "type": "bool"
        },
        {
          "indexed": false,
          "internalType": "uint256",
          "name": "timestamp",
          "type": "uint256"
        }
      ],
      "name": "ConsensusReached",
      "type": "event"
    },
    {
      "anonymous": false,
      "inputs": [
        {
          "indexed": true,
          "internalType": "address",
          "name": "owner",
          "type": "address"
        },
        {
          "indexed": true,
          "internalType": "address",
          "name": "contact",
          "type": "address"
        },
        {
          "indexed": false,
          "internalType": "string",
          "name": "firstName",
          "type": "string"
        },
        {
          "indexed": false,
          "internalType": "string",
          "name": "lastName",
          "type": "string"
        },
        {
          "indexed": false,
          "internalType": "bool",
          "name": "hasVotingRight",
          "type": "bool"
        }
      ],
      "name": "ContactAdded",
      "type": "event"
    },
    {
      "anonymous": false,
      "inputs": [
        {
          "indexed": true,
          "internalType": "address",
          "name": "owner",
          "type": "address"
        },
        {
          "indexed": true,
          "internalType": "address",
          "name": "contact",
          "type": "address"
        }
      ],
      "name": "ContactVerified",
      "type": "event"
    },
    {
      "anonymous": false,
      "inputs": [
        {
          "indexed": true,
          "internalType": "address",
          "name": "owner",
          "type": "address"
        },
        {
          "indexed": true,
          "internalType": "address",
          "name": "declaredBy",
          "type": "address"
        },
        {
          "indexed": false,
          "internalType": "uint256",
          "name": "timestamp",
          "type": "uint256"
        }
      ],
      "name": "DeathDeclared",
      "type": "event"
    },
    {
      "anonymous": false,
      "inputs": [
        {
          "indexed": true,
          "internalType": "address",
          "name": "owner",
          "type": "address"
        },
        {
          "indexed": false,
          "internalType": "uint256",
          "name": "timestamp",
          "type": "uint256"
        }
      ],
      "name": "HeartbeatSent",
      "type": "event"
    },
    {
      "anonymous": false,
      "inputs": [
        {
          "indexed": true,
          "internalType": "address",
          "name": "owner",
          "type": "address"
        },
        {
          "indexed": false,
          "internalType": "string",
          "name": "firstName",
          "type": "string"
        },
        {
          "indexed": false,
          "internalType": "string",
          "name": "lastName",
          "type": "string"
        }
      ],
      "name": "OwnerRegistered",
      "type": "event"
    },
    {
      "anonymous": false,
      "inputs": [
        {
          "indexed": true,
          "internalType": "uint256",
          "name": "vaultId",
          "type": "uint256"
        },
        {
          "indexed": true,
          "internalType": "address",
          "name": "contact",
          "type": "address"
        }
      ],
      "name": "VaultContactAuthorized",
      "type": "event"
    },
    {
      "anonymous": false,
      "inputs": [
        {
          "indexed": true,
          "internalType": "uint256",
          "name": "vaultId",
          "type": "uint256"
        },
        {
          "indexed": true,
          "internalType": "address",
          "name": "owner",
          "type": "address"
        },
        {
          "indexed": false,
          "internalType": "string",
          "name": "name",
          "type": "string"
        }
      ],
      "name": "VaultCreated",
      "type": "event"
    },
    {
      "anonymous": false,
      "inputs": [
        {
          "indexed": true,
          "internalType": "uint256",
          "name": "vaultId",
          "type": "uint256"
        },
        {
          "indexed": false,
          "internalType": "uint256",
          "name": "fileId",
          "type": "uint256"
        },
        {
          "indexed": false,
          "internalType": "string",
          "name": "originalName",
          "type": "string"
        }
      ],
      "name": "VaultFileAdded",
      "type": "event"
    },
    {
      "anonymous": false,
      "inputs": [
        {
          "indexed": true,
          "internalType": "uint256",
          "name": "vaultId",
          "type": "uint256"
        },
        {
          "indexed": true,
          "internalType": "address",
          "name": "owner",
          "type": "address"
        }
      ],
      "name": "VaultReleased",
      "type": "event"
    },
    {
      "anonymous": false,
      "inputs": [
        {
          "indexed": true,
          "internalType": "address",
          "name": "owner",
          "type": "address"
        },
        {
          "indexed": true,
          "internalType": "address",
          "name": "voter",
          "type": "address"
        },
        {
          "indexed": false,
          "internalType": "bool",
          "name": "vote",
          "type": "bool"
        }
      ],
      "name": "VoteCast",
      "type": "event"
    },
    {
      "inputs": [
        {
          "internalType": "address",
          "name": "_contact",
          "type": "address"
        },
        {
          "internalType": "string",
          "name": "_firstName",
          "type": "string"
        },
        {
          "internalType": "string",
          "name": "_lastName",
          "type": "string"
        },
        {
          "internalType": "string",
          "name": "_email",
          "type": "string"
        },
        {
          "internalType": "string",
          "name": "_phone",
          "type": "string"
        },
        {
          "internalType": "bool",
          "name": "_hasVotingRight",
          "type": "bool"
        },
        {
          "internalType": "uint256[]",
          "name": "_authorizedVaults",
          "type": "uint256[]"
        }
      ],
      "name": "addContact",
      "outputs": [],
      "stateMutability": "nonpayable",
      "type": "function"
    },
    {
      "inputs": [
        {
          "internalType": "uint256",
          "name": "_vaultId",
          "type": "uint256"
        },
        {
          "internalType": "string",
          "name": "_originalName",
          "type": "string"
        },
        {
          "internalType": "string",
          "name": "_mimeType",
          "type": "string"
        },
        {
          "internalType": "string",
          "name": "_cid",
          "type": "string"
        },
        {
          "internalType": "string",
          "name": "_uploadDate",
          "type": "string"
        }
      ],
      "name": "addVaultFile",
      "outputs": [
        {
          "internalType": "uint256",
          "name": "",
          "type": "uint256"
        }
      ],
      "stateMutability": "nonpayable",
      "type": "function"
    },
    {
      "inputs": [
        {
          "internalType": "uint256",
          "name": "_vaultId",
          "type": "uint256"
        },
        {
          "internalType": "address",
          "name": "_contact",
          "type": "address"
        }
      ],
      "name": "authorizeVaultContact",
      "outputs": [],
      "stateMutability": "nonpayable",
      "type": "function"
    },
    {
      "inputs": [
        {
          "internalType": "string",
          "name": "_name",
          "type": "string"
        },
        {
          "internalType": "string",
          "name": "_cypherIv",
          "type": "string"
        },
        {
          "internalType": "string",
          "name": "_encryptionKey",
          "type": "string"
        }
      ],
      "name": "createVault",
      "outputs": [
        {
          "internalType": "uint256",
          "name": "",
          "type": "uint256"
        }
      ],
      "stateMutability": "nonpayable",
      "type": "function"
    },
    {
      "inputs": [
        {
          "internalType": "address",
          "name": "_owner",
          "type": "address"
        }
      ],
      "name": "declareDeceased",
      "outputs": [],
      "stateMutability": "nonpayable",
      "type": "function"
    },
    {
      "inputs": [
        {
          "internalType": "address",
          "name": "_owner",
          "type": "address"
        },
        {
          "internalType": "address",
          "name": "_contact",
          "type": "address"
        }
      ],
      "name": "getContactAuthorizedVaults",
      "outputs": [
        {
          "internalType": "uint256[]",
          "name": "",
          "type": "uint256[]"
        }
      ],
      "stateMutability": "view",
      "type": "function"
    },
    {
      "inputs": [
        {
          "internalType": "address",
          "name": "_owner",
          "type": "address"
        },
        {
          "internalType": "address",
          "name": "_contact",
          "type": "address"
        }
      ],
      "name": "getContactInfo",
      "outputs": [
        {
          "internalType": "address",
          "name": "addr",
          "type": "address"
        },
        {
          "internalType": "string",
          "name": "firstName",
          "type": "string"
        },
        {
          "internalType": "string",
          "name": "lastName",
          "type": "string"
        },
        {
          "internalType": "string",
          "name": "email",
          "type": "string"
        },
        {
          "internalType": "string",
          "name": "phone",
          "type": "string"
        },
        {
          "internalType": "bool",
          "name": "hasVotingRight",
          "type": "bool"
        },
        {
          "internalType": "bool",
          "name": "isVerified",
          "type": "bool"
        },
        {
          "internalType": "bool",
          "name": "exists",
          "type": "bool"
        }
      ],
      "stateMutability": "view",
      "type": "function"
    },
    {
      "inputs": [
        {
          "internalType": "address",
          "name": "_owner",
          "type": "address"
        }
      ],
      "name": "getContactList",
      "outputs": [
        {
          "internalType": "address[]",
          "name": "",
          "type": "address[]"
        }
      ],
      "stateMutability": "view",
      "type": "function"
    },
    {
      "inputs": [
        {
          "internalType": "address",
          "name": "_owner",
          "type": "address"
        }
      ],
      "name": "getDeathDeclarationStatus",
      "outputs": [
        {
          "internalType": "bool",
          "name": "isActive",
          "type": "bool"
        },
        {
          "internalType": "uint256",
          "name": "startTime",
          "type": "uint256"
        },
        {
          "internalType": "uint256",
          "name": "votesFor",
          "type": "uint256"
        },
        {
          "internalType": "uint256",
          "name": "votesAgainst",
          "type": "uint256"
        },
        {
          "internalType": "uint256",
          "name": "totalVotingContacts",
          "type": "uint256"
        },
        {
          "internalType": "bool",
          "name": "consensusReached",
          "type": "bool"
        }
      ],
      "stateMutability": "view",
      "type": "function"
    },
    {
      "inputs": [
        {
          "internalType": "address",
          "name": "_owner",
          "type": "address"
        }
      ],
      "name": "getOwnerInfo",
      "outputs": [
        {
          "internalType": "string",
          "name": "firstName",
          "type": "string"
        },
        {
          "internalType": "string",
          "name": "lastName",
          "type": "string"
        },
        {
          "internalType": "uint256",
          "name": "lastHeartbeat",
          "type": "uint256"
        },
        {
          "internalType": "uint256",
          "name": "graceInterval",
          "type": "uint256"
        },
        {
          "internalType": "bool",
          "name": "isDeceased",
          "type": "bool"
        },
        {
          "internalType": "bool",
          "name": "exists",
          "type": "bool"
        }
      ],
      "stateMutability": "view",
      "type": "function"
    },
    {
      "inputs": [
        {
          "internalType": "address",
          "name": "_owner",
          "type": "address"
        }
      ],
      "name": "getOwnerVaultList",
      "outputs": [
        {
          "internalType": "uint256[]",
          "name": "",
          "type": "uint256[]"
        }
      ],
      "stateMutability": "view",
      "type": "function"
    },
    {
      "inputs": [
        {
          "internalType": "uint256",
          "name": "_vaultId",
          "type": "uint256"
        }
      ],
      "name": "getVaultAuthorizedContacts",
      "outputs": [
        {
          "internalType": "address[]",
          "name": "",
          "type": "address[]"
        }
      ],
      "stateMutability": "view",
      "type": "function"
    },
    {
      "inputs": [
        {
          "internalType": "uint256",
          "name": "_vaultId",
          "type": "uint256"
        },
        {
          "internalType": "uint256",
          "name": "_fileId",
          "type": "uint256"
        }
      ],
      "name": "getVaultFileInfo",
      "outputs": [
        {
          "internalType": "string",
          "name": "originalName",
          "type": "string"
        },
        {
          "internalType": "string",
          "name": "mimeType",
          "type": "string"
        },
        {
          "internalType": "string",
          "name": "cid",
          "type": "string"
        },
        {
          "internalType": "string",
          "name": "uploadDate",
          "type": "string"
        },
        {
          "internalType": "bool",
          "name": "exists",
          "type": "bool"
        }
      ],
      "stateMutability": "view",
      "type": "function"
    },
    {
      "inputs": [
        {
          "internalType": "uint256",
          "name": "_vaultId",
          "type": "uint256"
        }
      ],
      "name": "getVaultFileList",
      "outputs": [
        {
          "internalType": "uint256[]",
          "name": "",
          "type": "uint256[]"
        }
      ],
      "stateMutability": "view",
      "type": "function"
    },
    {
      "inputs": [
        {
          "internalType": "uint256",
          "name": "_vaultId",
          "type": "uint256"
        }
      ],
      "name": "getVaultInfo",
      "outputs": [
        {
          "internalType": "uint256",
          "name": "id",
          "type": "uint256"
        },
        {
          "internalType": "string",
          "name": "name",
          "type": "string"
        },
        {
          "internalType": "address",
          "name": "owner",
          "type": "address"
        },
        {
          "internalType": "bool",
          "name": "isReleased",
          "type": "bool"
        },
        {
          "internalType": "string",
          "name": "cypherIv",
          "type": "string"
        },
        {
          "internalType": "string",
          "name": "encryptionKey",
          "type": "string"
        },
        {
          "internalType": "uint256[]",
          "name": "fileIds",
          "type": "uint256[]"
        },
        {
          "internalType": "address[]",
          "name": "authorizedContacts",
          "type": "address[]"
        },
        {
          "internalType": "bool",
          "name": "exists",
          "type": "bool"
        }
      ],
      "stateMutability": "view",
      "type": "function"
    },
    {
      "inputs": [
        {
          "internalType": "address",
          "name": "_owner",
          "type": "address"
        },
        {
          "internalType": "address",
          "name": "_voter",
          "type": "address"
        }
      ],
      "name": "getVote",
      "outputs": [
        {
          "internalType": "bool",
          "name": "",
          "type": "bool"
        }
      ],
      "stateMutability": "view",
      "type": "function"
    },
    {
      "inputs": [
        {
          "internalType": "address",
          "name": "_owner",
          "type": "address"
        },
        {
          "internalType": "address",
          "name": "_voter",
          "type": "address"
        }
      ],
      "name": "hasVoted",
      "outputs": [
        {
          "internalType": "bool",
          "name": "",
          "type": "bool"
        }
      ],
      "stateMutability": "view",
      "type": "function"
    },
    {
      "inputs": [
        {
          "internalType": "uint256",
          "name": "_vaultId",
          "type": "uint256"
        },
        {
          "internalType": "address",
          "name": "_address",
          "type": "address"
        }
      ],
      "name": "isVaultAuthorized",
      "outputs": [
        {
          "internalType": "bool",
          "name": "",
          "type": "bool"
        }
      ],
      "stateMutability": "view",
      "type": "function"
    },
    {
      "inputs": [
        {
          "internalType": "string",
          "name": "_firstName",
          "type": "string"
        },
        {
          "internalType": "string",
          "name": "_lastName",
          "type": "string"
        },
        {
          "internalType": "string",
          "name": "_email",
          "type": "string"
        },
        {
          "internalType": "string",
          "name": "_phone",
          "type": "string"
        },
        {
          "internalType": "uint256",
          "name": "_graceInterval",
          "type": "uint256"
        }
      ],
      "name": "registerOwner",
      "outputs": [],
      "stateMutability": "nonpayable",
      "type": "function"
    },
    {
      "inputs": [
        {
          "internalType": "uint256",
          "name": "_vaultId",
          "type": "uint256"
        }
      ],
      "name": "releaseVault",
      "outputs": [],
      "stateMutability": "nonpayable",
      "type": "function"
    },
    {
      "inputs": [],
      "name": "sendHeartbeat",
      "outputs": [],
      "stateMutability": "nonpayable",
      "type": "function"
    },
    {
      "inputs": [
        {
          "internalType": "address",
          "name": "_owner",
          "type": "address"
        },
        {
          "internalType": "string",
          "name": "_firstName",
          "type": "string"
        },
        {
          "internalType": "string",
          "name": "_lastName",
          "type": "string"
        },
        {
          "internalType": "string",
          "name": "_email",
          "type": "string"
        },
        {
          "internalType": "string",
          "name": "_phone",
          "type": "string"
        }
      ],
      "name": "updateContactInfo",
      "outputs": [],
      "stateMutability": "nonpayable",
      "type": "function"
    },
    {
      "inputs": [
        {
          "internalType": "address",
          "name": "_owner",
          "type": "address"
        }
      ],
      "name": "verifyContact",
      "outputs": [],
      "stateMutability": "nonpayable",
      "type": "function"
    },
    {
      "inputs": [
        {
          "internalType": "address",
          "name": "_owner",
          "type": "address"
        },
        {
          "internalType": "bool",
          "name": "_vote",
          "type": "bool"
        }
      ],
      "name": "voteOnDeathDeclaration",
      "outputs": [],
      "stateMutability": "nonpayable",
      "type": "function"
    }
  ],
  "bytecode": "0x60806040526000600555600060065534801561001a57600080fd5b50613deb8061002a6000396000f3fe608060405234801561001057600080fd5b50600436106101585760003560e01c806352e20c4f116100c3578063996e6ca11161007c578063996e6ca11461033d578063abc22bbe146103c5578063b1ba9620146103d8578063b2b2baed14610400578063b385faa814610413578063d385de821461042657600080fd5b806352e20c4f146102b75780635ab4f162146102ca57806360f490f7146102dd5780636880f137146103045780637366252c14610317578063758436181461032a57600080fd5b806333587dc41161011557806333587dc4146101f557806334f167a9146102085780633bfb14f514610210578063490f0eba146102345780634d4d2b1c146102545780634e8e32b5146102a457600080fd5b80630accc75d1461015d5780631d2f4368146101725780631fe7fe7e1461019b5780632c8bc50b146101ae5780632fda53e7146101c1578063329a5ac0146101d4575b600080fd5b61017061016b3660046131dc565b61044b565b005b6101856101803660046132c3565b610829565b6040516101929190613331565b60405180910390f35b6101706101a9366004613398565b6108a9565b6101706101bc3660046134c7565b610f22565b6101856101cf36600461359d565b610fe0565b6101e76101e23660046135b8565b61104d565b604051908152602001610192565b6101e76102033660046135f4565b611354565b610170611643565b61022361021e36600461368d565b61179a565b6040516101929594939291906136f5565b610247610242366004613757565b611a22565b60405161019291906137a9565b6102946102623660046132c3565b6001600160a01b0391821660009081526004602090815260408083209390941682526006909201909152205460ff1690565b6040519015158152602001610192565b6101706102b23660046137bc565b611a90565b6102946102c53660046137e6565b611d60565b6102946102d83660046132c3565b611d73565b6102f06102eb3660046132c3565b611e17565b604051610192989796959493929190613809565b61017061031236600461359d565b6120d6565b6101706103253660046137e6565b6121f2565b610185610338366004613757565b6123c1565b61039461034b36600461359d565b6001600160a01b031660009081526004602081905260409091206005810154600182015460028301546003840154939094015460ff808416969295949391926101009092041690565b60408051961515875260208701959095529385019290925260608401526080830152151560a082015260c001610192565b6101706103d336600461359d565b612424565b6103eb6103e6366004613757565b612894565b6040516101929998979695949392919061388d565b61017061040e366004613757565b612b68565b61024761042136600461359d565b612d35565b61043961043436600461359d565b612daa565b60405161019296959493929190613928565b33600090815260208190526040902060070154610100900460ff16156104b85760405162461bcd60e51b815260206004820152601860248201527f4f776e657220616c72656164792072656769737465726564000000000000000060448201526064015b60405180910390fd5b6201518081101561050b5760405162461bcd60e51b815260206004820152601860248201527f477261636520696e74657276616c20746f6f2073686f7274000000000000000060448201526064016104af565b6301e1338081111561055f5760405162461bcd60e51b815260206004820152601760248201527f477261636520696e74657276616c20746f6f206c6f6e6700000000000000000060448201526064016104af565b604051806101600160405280336001600160a01b031681526020018a8a8080601f016020809104026020016040519081016040528093929190818152602001838380828437600092019190915250505090825250604080516020601f8b0181900481028201810190925289815291810191908a908a9081908401838280828437600092019190915250505090825250604080516020601f890181900481028201810190925287815291810191908890889081908401838280828437600092019190915250505090825250604080516020601f870181900481028201810190925285815291810191908690869081908401838280828437600092018290525093855250504260208401525060408201849052606082018190526001608083015260a0909101906040519080825280602002602001820160405280156106ad578160200160208202803683370190505b50815260200160006040519080825280602002602001820160405280156106de578160200160208202803683370190505b50905233600090815260208181526040909120825181546001600160a01b0319166001600160a01b039091161781559082015160018201906107209082613a13565b50604082015160028201906107359082613a13565b506060820151600382019061074a9082613a13565b506080820151600482019061075f9082613a13565b5060a0820151600582015560c0820151600682015560e08201516007820180546101008086015115150261ff00199315159390931661ffff199091161791909117905561012082015180516107be9160088401916020909101906130df565b5061014082015180516107db916009840191602090910190613144565b50506040513391507f90fdcd9183750bdfb11be5d6379c04e744e8f650aac530ea853c19226ea7eb2b90610816908c908c908c908c90613afb565b60405180910390a2505050505050505050565b6001600160a01b038083166000908152600160209081526040808320938516835292815290829020600681018054845181850281018501909552808552606094929383018282801561089a57602002820191906000526020600020905b815481526020019060010190808311610886575b50505050509150505b92915050565b33600090815260208190526040902060070154610100900460ff166108e05760405162461bcd60e51b81526004016104af90613b2d565b336001600160a01b038d16036109385760405162461bcd60e51b815260206004820152601e60248201527f43616e6e6f742061646420796f757273656c6620617320636f6e74616374000060448201526064016104af565b60016000336001600160a01b03166001600160a01b0316815260200190815260200160002060008d6001600160a01b03166001600160a01b0316815260200190815260200160002060050160029054906101000a900460ff16156109d75760405162461bcd60e51b8152602060048201526016602482015275436f6e7461637420616c72656164792065786973747360501b60448201526064016104af565b6040518061012001604052808d6001600160a01b031681526020018c8c8080601f016020809104026020016040519081016040528093929190818152602001838380828437600092019190915250505090825250604080516020601f8d018190048102820181019092528b815291810191908c908c9081908401838280828437600092019190915250505090825250604080516020601f8b0181900481028201810190925289815291810191908a908a9081908401838280828437600092019190915250505090825250604080516020601f890181900481028201810190925287815291810191908890889081908401838280828437600092018290525093855250505085151560208084019190915260408084018390526001606085015280518381529182019052608090920191905081525060016000336001600160a01b03166001600160a01b0316815260200190815260200160002060008e6001600160a01b03166001600160a01b0316815260200190815260200160002060008201518160000160006101000a8154816001600160a01b0302191690836001600160a01b031602179055506020820151816001019081610b959190613a13565b5060408201516002820190610baa9082613a13565b5060608201516003820190610bbf9082613a13565b5060808201516004820190610bd49082613a13565b5060a082015160058201805460c085015160e086015161ffff1990921693151561ff0019169390931761010093151584021762ff0000191662010000911515919091021790558201518051610c33916006840191602090910190613144565b50905050600080336001600160a01b03166001600160a01b031681526020019081526020016000206008018c9080600181540180825580915050600190039060005260206000200160009091909190916101000a8154816001600160a01b0302191690836001600160a01b0316021790555060005b81811015610ec0576000838383818110610cc457610cc4613b5b565b60209081029290920135600081815260029093526040909220600501549192505060ff16610d045760405162461bcd60e51b81526004016104af90613b71565b600081815260026020819052604090912001546001600160a01b03163314610d3e5760405162461bcd60e51b81526004016104af90613b9f565b610d48818f612f28565b15610da75760405162461bcd60e51b815260206004820152602960248201527f436f6e7461637420616c726561647920617574686f72697a656420666f7220746044820152681a1a5cc81d985d5b1d60ba1b60648201526084016104af565b600260008281526020019081526020016000206006018e9080600181540180825580915050600190039060005260206000200160009091909190916101000a8154816001600160a01b0302191690836001600160a01b0316021790555060016000336001600160a01b03166001600160a01b0316815260200190815260200160002060008f6001600160a01b03166001600160a01b031681526020019081526020016000206006018190806001815401808255809150506001900390600052602060002001600090919091909150558d6001600160a01b0316817f072024bc1a3beff7df2fe575c8097c660ee4a4e15f263e037ed38560728681f160405160405180910390a35080610eb881613bde565b915050610ca8565b508b6001600160a01b0316336001600160a01b03167fd39b94c4e0a6dc7134a60e93b1e6d3076988e71a9558afb69b3ecb6488db04dd8d8d8d8d89604051610f0c959493929190613bf7565b60405180910390a3505050505050505050505050565b6001600160a01b0389166000908152600160209081526040808320338452909152902060050154899062010000900460ff16610f705760405162461bcd60e51b81526004016104af90613c33565b6001600160a01b038a166000908152600160208181526040808420338552909152909120908101610fa28a8c83613c6a565b5060028101610fb2888a83613c6a565b5060038101610fc2868883613c6a565b5060048101610fd2848683613c6a565b505050505050505050505050565b6001600160a01b0381166000908152602081815260409182902060090180548351818402810184019094528084526060939283018282801561104157602002820191906000526020600020905b81548152602001906001019080831161102d575b50505050509050919050565b6000898152600260205260408120600501548a9060ff166110805760405162461bcd60e51b81526004016104af90613b71565b600081815260026020819052604090912001546001600160a01b031633146110ba5760405162461bcd60e51b81526004016104af90613b9f565b60065460008c815260036020908152604080832084845290915290206005015460ff16156111205760405162461bcd60e51b815260206004820152601360248201527246696c6520616c72656164792065786973747360681b60448201526064016104af565b6040518060c001604052808281526020018c8c8080601f016020809104026020016040519081016040528093929190818152602001838380828437600092019190915250505090825250604080516020601f8d018190048102820181019092528b815291810191908c908c9081908401838280828437600092019190915250505090825250604080516020601f8b0181900481028201810190925289815291810191908a908a9081908401838280828437600092019190915250505090825250604080516020601f890181900481028201810190925287815291810191908890889081908401838280828437600081840152601f19601f82011690508083019250505050505050815260200160011515815250600360008e815260200190815260200160002060008381526020019081526020016000206000820151816000015560208201518160010190816112769190613a13565b506040820151600282019061128b9082613a13565b50606082015160038201906112a09082613a13565b50608082015160048201906112b59082613a13565b5060a091909101516005909101805460ff191691151591909117905560008c81526002602090815260408220600701805460018101825590835290822001829055600680549161130483613bde565b91905055508b7f1d3c6a3c34addeca1898ed9e2152304ea92cf5b2dfabe5461461392a62f6d8de828d8d60405161133d93929190613d2a565b60405180910390a29b9a5050505050505050505050565b33600090815260208190526040812060070154610100900460ff1661138b5760405162461bcd60e51b81526004016104af90613b2d565b6005805460008181526002602052604090209091015460ff16156113e85760405162461bcd60e51b81526020600482015260146024820152735661756c7420616c72656164792065786973747360601b60448201526064016104af565b60405180610120016040528082815260200189898080601f01602080910402602001604051908101604052809392919081815260200183838082843760009201829052509385525050336020808501919091526040808501939093528251601f8b018290048202810182019093528983526060909301928a9150899081908401838280828437600092019190915250505090825250604080516020601f880181900481028201810190925286815291810191908790879081908401838280828437600092018290525093855250506001602080850182905260408051858152808301825281870152805185815280830182526060909601959095528684526002815293909220845181559284015191830191611505915082613a13565b50604082015160028201805460608501511515600160a01b026001600160a81b03199091166001600160a01b0390931692909217919091179055608082015160038201906115539082613a13565b5060a082015160048201906115689082613a13565b5060c082015160058201805460ff191691151591909117905560e0820151805161159c9160068401916020909101906130df565b5061010082015180516115b9916007840191602090910190613144565b5050336000908152602081815260408220600901805460018101825590835290822001839055600580549250906115ef83613bde565b9190505550336001600160a01b0316817f6cda1fe49e022cf08f0f3e367bd8c6abb3c3a01a260273f23c8e432a4166a0488a8a604051611630929190613d4d565b60405180910390a3979650505050505050565b33600090815260208190526040902060070154610100900460ff1661167a5760405162461bcd60e51b81526004016104af90613b2d565b3360009081526020819052604090206007015460ff16156116dd5760405162461bcd60e51b815260206004820152601960248201527f4f776e657220697320616c72656164792064656365617365640000000000000060448201526064016104af565b33600090815260208181526040808320426005918201556004909252909120015460ff16156117635733600081815260046020526040808220600501805460ff19169055517fac892f9ea2bac4d143f762134b209de57efb94b00c56302aaed590951368eaac9161175a9142909115158252602082015260400190565b60405180910390a25b60405142815233907f878229cab17522b0aa9fe67ef166ba37857b7fdb46cd8748179a9d9a7373727f9060200160405180910390a2565b6000828152600360208181526040808420858552909152822060058101546001820180546060958695869586959294909390926002850192850191600486019160ff169085906117e99061398b565b80601f01602080910402602001604051908101604052809291908181526020018280546118159061398b565b80156118625780601f1061183757610100808354040283529160200191611862565b820191906000526020600020905b81548152906001019060200180831161184557829003601f168201915b505050505094508380546118759061398b565b80601f01602080910402602001604051908101604052809291908181526020018280546118a19061398b565b80156118ee5780601f106118c3576101008083540402835291602001916118ee565b820191906000526020600020905b8154815290600101906020018083116118d157829003601f168201915b505050505093508280546119019061398b565b80601f016020809104026020016040519081016040528092919081815260200182805461192d9061398b565b801561197a5780601f1061194f5761010080835404028352916020019161197a565b820191906000526020600020905b81548152906001019060200180831161195d57829003601f168201915b5050505050925081805461198d9061398b565b80601f01602080910402602001604051908101604052809291908181526020018280546119b99061398b565b8015611a065780601f106119db57610100808354040283529160200191611a06565b820191906000526020600020905b8154815290600101906020018083116119e957829003601f168201915b5050505050915095509550955095509550509295509295909350565b60008181526002602090815260409182902060060180548351818402810184019094528084526060939283018282801561104157602002820191906000526020600020905b81546001600160a01b03168152600190910190602001808311611a675750505050509050919050565b6001600160a01b0382166000908152600160209081526040808320338452909152902060050154829062010000900460ff16611ade5760405162461bcd60e51b81526004016104af90613c33565b6001600160a01b0381166000908152600160209081526040808320338452909152902060050154610100900460ff16611b505760405162461bcd60e51b815260206004820152601460248201527310dbdb9d1858dd081b9bdd081d995c9a599a595960621b60448201526064016104af565b6001600160a01b038116600090815260016020908152604080832033845290915290206005015460ff16611bb95760405162461bcd60e51b815260206004820152601060248201526f4e6f20766f74696e672072696768747360801b60448201526064016104af565b6001600160a01b03831660009081526004602052604090206005015460ff16611c245760405162461bcd60e51b815260206004820152601b60248201527f4e6f20616374697665206465617468206465636c61726174696f6e000000000060448201526064016104af565b6001600160a01b038316600090815260046020908152604080832033845260060190915290205460ff1615611c8b5760405162461bcd60e51b815260206004820152600d60248201526c105b1c9958591e481d9bdd1959609a1b60448201526064016104af565b6001600160a01b0383166000908152600460209081526040808320338452600681018352818420805460ff1990811660011790915560078201909352922080548515801591909316179055611cf657600281018054906000611cec83613bde565b9190505550611d0e565b600381018054906000611d0883613bde565b91905055505b604051831515815233906001600160a01b038616907fcc194f214df029fe546c9959ee15d79d8633742aab6c02a862e337f8ace3d550906020015b60405180910390a3611d5a84612fa5565b50505050565b6000611d6c8383612f28565b9392505050565b6001600160a01b0380831660009081526004602090815260408083209385168352600690930190529081205460ff16611de45760405162461bcd60e51b8152602060048201526013602482015272159bdd195c881a185cc81b9bdd081d9bdd1959606a1b60448201526064016104af565b506001600160a01b0391821660009081526004602090815260408083209390941682526007909201909152205460ff1690565b6001600160a01b0380831660009081526001602081815260408084208686168552909152822080546005820154928201805494956060958695869586958a95869586959394921692909160028501916003860191600487019160ff80831692610100810482169262010000909104909116908790611e949061398b565b80601f0160208091040260200160405190810160405280929190818152602001828054611ec09061398b565b8015611f0d5780601f10611ee257610100808354040283529160200191611f0d565b820191906000526020600020905b815481529060010190602001808311611ef057829003601f168201915b50505050509650858054611f209061398b565b80601f0160208091040260200160405190810160405280929190818152602001828054611f4c9061398b565b8015611f995780601f10611f6e57610100808354040283529160200191611f99565b820191906000526020600020905b815481529060010190602001808311611f7c57829003601f168201915b50505050509550848054611fac9061398b565b80601f0160208091040260200160405190810160405280929190818152602001828054611fd89061398b565b80156120255780601f10611ffa57610100808354040283529160200191612025565b820191906000526020600020905b81548152906001019060200180831161200857829003601f168201915b505050505094508380546120389061398b565b80601f01602080910402602001604051908101604052809291908181526020018280546120649061398b565b80156120b15780601f10612086576101008083540402835291602001916120b1565b820191906000526020600020905b81548152906001019060200180831161209457829003601f168201915b5050505050935098509850985098509850985098509850509295985092959890939650565b6001600160a01b0381166000908152600160209081526040808320338452909152902060050154819062010000900460ff166121245760405162461bcd60e51b81526004016104af90613c33565b6001600160a01b0382166000908152600160209081526040808320338452909152902060050154610100900460ff16156121935760405162461bcd60e51b815260206004820152601060248201526f105b1c9958591e481d995c9a599a595960821b60448201526064016104af565b6001600160a01b0382166000818152600160209081526040808320338085529252808320600501805461ff001916610100179055519092917f33c6b9962c16a3768d4f15c8f694b088fd57a39499a9b9f7e59243c371a2207a91a35050565b600082815260026020526040902060050154829060ff166122255760405162461bcd60e51b81526004016104af90613b71565b600081815260026020819052604090912001546001600160a01b0316331461225f5760405162461bcd60e51b81526004016104af90613b9f565b3360009081526001602090815260408083206001600160a01b038616845290915290206005015462010000900460ff166122d45760405162461bcd60e51b815260206004820152601660248201527510dbdb9d1858dd08191bd95cc81b9bdd08195e1a5cdd60521b60448201526064016104af565b6122de8383612f28565b1561232b5760405162461bcd60e51b815260206004820152601a60248201527f436f6e7461637420616c726561647920617574686f72697a656400000000000060448201526064016104af565b600083815260026020908152604080832060069081018054600180820183559186528486200180546001600160a01b0319166001600160a01b038916908117909155338652818552838620818752855283862090920180549182018155855292842090920186905551909185917f072024bc1a3beff7df2fe575c8097c660ee4a4e15f263e037ed38560728681f19190a3505050565b600081815260026020908152604091829020600701805483518184028101840190945280845260609392830182828015611041576020028201919060005260206000209081548152602001906001019080831161102d5750505050509050919050565b6001600160a01b0381166000908152600160209081526040808320338452909152902060050154819062010000900460ff166124725760405162461bcd60e51b81526004016104af90613c33565b6001600160a01b0381166000908152600160209081526040808320338452909152902060050154610100900460ff166124e45760405162461bcd60e51b815260206004820152601460248201527310dbdb9d1858dd081b9bdd081d995c9a599a595960621b60448201526064016104af565b6001600160a01b038116600090815260016020908152604080832033845290915290206005015460ff1661254d5760405162461bcd60e51b815260206004820152601060248201526f4e6f20766f74696e672072696768747360801b60448201526064016104af565b6001600160a01b038216600090815260208190526040902060070154610100900460ff1661258d5760405162461bcd60e51b81526004016104af90613b2d565b6001600160a01b03821660009081526020819052604090206007015460ff16156125f25760405162461bcd60e51b815260206004820152601660248201527513dddb995c88185b1c9958591e48191958d9585cd95960521b60448201526064016104af565b6001600160a01b03821660009081526004602052604090206005015460ff161561265e5760405162461bcd60e51b815260206004820181905260248201527f4465617468206465636c61726174696f6e20616c72656164792061637469766560448201526064016104af565b6000805b6001600160a01b03841660009081526020819052604090206008015481101561274c576001600160a01b03841660009081526020819052604081206008018054839081106126b2576126b2613b5b565b60009182526020808320909101546001600160a01b0388811684526001835260408085209190921680855292529091206005015490915060ff61010090910416801561272657506001600160a01b0380861660009081526001602090815260408083209385168352929052206005015460ff165b15612739578261273581613bde565b9350505b508061274481613bde565b915050612662565b506000811161279d5760405162461bcd60e51b815260206004820152601c60248201527f4e6f20766f74696e6720636f6e746163747320617661696c61626c650000000060448201526064016104af565b6001600160a01b038316600081815260046020818152604080842080546001600160a01b031916339081178255426001808401829055600284018190556003840188905595830189905560058301805461ffff191687179055818752600683018552838720805460ff199081168817909155600784018652968490208054909716909517909555905192835293917fd1ffe6c6eec884ae3341f8304738b02340905dfd25b73df1802e7f95c9b9fbec910160405180910390a36040516001815233906001600160a01b038616907fcc194f214df029fe546c9959ee15d79d8633742aab6c02a862e337f8ace3d55090602001611d49565b6000818152600260208190526040822080549181015460058201546001830180546060958795869588958695869586958a959490936001600160a01b0382169260ff600160a01b9093048316926003880192600489019260078a019260068b0192169088906129029061398b565b80601f016020809104026020016040519081016040528092919081815260200182805461292e9061398b565b801561297b5780601f106129505761010080835404028352916020019161297b565b820191906000526020600020905b81548152906001019060200180831161295e57829003601f168201915b5050505050975084805461298e9061398b565b80601f01602080910402602001604051908101604052809291908181526020018280546129ba9061398b565b8015612a075780601f106129dc57610100808354040283529160200191612a07565b820191906000526020600020905b8154815290600101906020018083116129ea57829003601f168201915b50505050509450838054612a1a9061398b565b80601f0160208091040260200160405190810160405280929190818152602001828054612a469061398b565b8015612a935780601f10612a6857610100808354040283529160200191612a93565b820191906000526020600020905b815481529060010190602001808311612a7657829003601f168201915b5050505050935082805480602002602001604051908101604052809291908181526020018280548015612ae557602002820191906000526020600020905b815481526020019060010190808311612ad1575b5050505050925081805480602002602001604051908101604052809291908181526020018280548015612b4157602002820191906000526020600020905b81546001600160a01b03168152600190910190602001808311612b23575b50505050509150995099509950995099509950995099509950509193959799909294969850565b600081815260026020526040902060050154819060ff16612b9b5760405162461bcd60e51b81526004016104af90613b71565b600081815260026020819052604090912001546001600160a01b0316331480612bc95750612bc98133612f28565b612c065760405162461bcd60e51b815260206004820152600e60248201526d139bdd08185d5d1a1bdc9a5e995960921b60448201526064016104af565b60008281526002602081905260409091200154600160a01b900460ff1615612c695760405162461bcd60e51b815260206004820152601660248201527515985d5b1d08185b1c9958591e481c995b19585cd95960521b60448201526064016104af565b6000828152600260208181526040808420909201546001600160a01b0316835282905290206007015460ff16612cd65760405162461bcd60e51b815260206004820152601260248201527113dddb995c881b9bdd08191958d9585cd95960721b60448201526064016104af565b6000828152600260208190526040808320909101805460ff60a01b198116600160a01b1790915590516001600160a01b039091169184917fa18f1ac3d4c6b800447518126c2fc0d98210a7078080b093679e972d1f8500b99190a35050565b6001600160a01b03811660009081526020818152604091829020600801805483518184028101840190945280845260609392830182828015611041576020028201919060005260206000209081546001600160a01b03168152600190910190602001808311611a675750505050509050919050565b6001600160a01b03811660009081526020819052604081206005810154600682015460078301546001840180546060968796909586958695869593946002860193929160ff8082169261010090920416908690612e069061398b565b80601f0160208091040260200160405190810160405280929190818152602001828054612e329061398b565b8015612e7f5780601f10612e5457610100808354040283529160200191612e7f565b820191906000526020600020905b815481529060010190602001808311612e6257829003601f168201915b50505050509550848054612e929061398b565b80601f0160208091040260200160405190810160405280929190818152602001828054612ebe9061398b565b8015612f0b5780601f10612ee057610100808354040283529160200191612f0b565b820191906000526020600020905b815481529060010190602001808311612eee57829003601f168201915b505050505094509650965096509650965096505091939550919395565b6000828152600260205260408120815b6006820154811015612f9a57836001600160a01b0316826006018281548110612f6357612f63613b5b565b6000918252602090912001546001600160a01b031603612f88576001925050506108a3565b80612f9281613bde565b915050612f38565b506000949350505050565b6001600160a01b0381166000908152600460208190526040822090810154909190606490612fd4906032613d69565b612fde9190613d80565b612fe9906001613da2565b905080826002015410613079576001600160a01b03831660008181526020819052604090819020600701805460ff1916600190811790915560058501805461ffff191661010017905590517fac892f9ea2bac4d143f762134b209de57efb94b00c56302aaed590951368eaac9161306c9142909115158252602082015260400190565b60405180910390a2505050565b808260030154106130da5760058201805461ffff191661010017905560408051600081524260208201526001600160a01b038516917fac892f9ea2bac4d143f762134b209de57efb94b00c56302aaed590951368eaac910160405180910390a25b505050565b828054828255906000526020600020908101928215613134579160200282015b8281111561313457825182546001600160a01b0319166001600160a01b039091161782556020909201916001909101906130ff565b5061314092915061317f565b5090565b828054828255906000526020600020908101928215613134579160200282015b82811115613134578251825591602001919060010190613164565b5b808211156131405760008155600101613180565b60008083601f8401126131a657600080fd5b5081356001600160401b038111156131bd57600080fd5b6020830191508360208285010111156131d557600080fd5b9250929050565b600080600080600080600080600060a08a8c0312156131fa57600080fd5b89356001600160401b038082111561321157600080fd5b61321d8d838e01613194565b909b50995060208c013591508082111561323657600080fd5b6132428d838e01613194565b909950975060408c013591508082111561325b57600080fd5b6132678d838e01613194565b909750955060608c013591508082111561328057600080fd5b5061328d8c828d01613194565b9a9d999c50979a9699959894979660800135949350505050565b80356001600160a01b03811681146132be57600080fd5b919050565b600080604083850312156132d657600080fd5b6132df836132a7565b91506132ed602084016132a7565b90509250929050565b600081518084526020808501945080840160005b838110156133265781518752958201959082019060010161330a565b509495945050505050565b602081526000611d6c60208301846132f6565b803580151581146132be57600080fd5b60008083601f84011261336657600080fd5b5081356001600160401b0381111561337d57600080fd5b6020830191508360208260051b85010111156131d557600080fd5b60008060008060008060008060008060008060e08d8f0312156133ba57600080fd5b6133c38d6132a7565b9b506001600160401b0360208e013511156133dd57600080fd5b6133ed8e60208f01358f01613194565b909b5099506001600160401b0360408e0135111561340a57600080fd5b61341a8e60408f01358f01613194565b90995097506001600160401b0360608e0135111561343757600080fd5b6134478e60608f01358f01613194565b90975095506001600160401b0360808e0135111561346457600080fd5b6134748e60808f01358f01613194565b909550935061348560a08e01613344565b92506001600160401b0360c08e0135111561349f57600080fd5b6134af8e60c08f01358f01613354565b81935080925050509295989b509295989b509295989b565b600080600080600080600080600060a08a8c0312156134e557600080fd5b6134ee8a6132a7565b985060208a01356001600160401b038082111561350a57600080fd5b6135168d838e01613194565b909a50985060408c013591508082111561352f57600080fd5b61353b8d838e01613194565b909850965060608c013591508082111561355457600080fd5b6135608d838e01613194565b909650945060808c013591508082111561357957600080fd5b506135868c828d01613194565b915080935050809150509295985092959850929598565b6000602082840312156135af57600080fd5b611d6c826132a7565b600080600080600080600080600060a08a8c0312156135d657600080fd5b8935985060208a01356001600160401b038082111561350a57600080fd5b6000806000806000806060878903121561360d57600080fd5b86356001600160401b038082111561362457600080fd5b6136308a838b01613194565b9098509650602089013591508082111561364957600080fd5b6136558a838b01613194565b9096509450604089013591508082111561366e57600080fd5b5061367b89828a01613194565b979a9699509497509295939492505050565b600080604083850312156136a057600080fd5b50508035926020909101359150565b6000815180845260005b818110156136d5576020818501810151868301820152016136b9565b506000602082860101526020601f19601f83011685010191505092915050565b60a08152600061370860a08301886136af565b828103602084015261371a81886136af565b9050828103604084015261372e81876136af565b9050828103606084015261374281866136af565b91505082151560808301529695505050505050565b60006020828403121561376957600080fd5b5035919050565b600081518084526020808501945080840160005b838110156133265781516001600160a01b031687529582019590820190600101613784565b602081526000611d6c6020830184613770565b600080604083850312156137cf57600080fd5b6137d8836132a7565b91506132ed60208401613344565b600080604083850312156137f957600080fd5b823591506132ed602084016132a7565b6001600160a01b03891681526101006020820181905260009061382e8382018b6136af565b90508281036040840152613842818a6136af565b9050828103606084015261385681896136af565b9050828103608084015261386a81886136af565b95151560a0840152505091151560c0830152151560e09091015295945050505050565b60006101208b83528060208401526138a78184018c6136af565b6001600160a01b038b1660408501528915156060850152838103608085015290506138d281896136af565b905082810360a08401526138e681886136af565b905082810360c08401526138fa81876132f6565b905082810360e084015261390e8186613770565b9150508215156101008301529a9950505050505050505050565b60c08152600061393b60c08301896136af565b828103602084015261394d81896136af565b6040840197909752505060608101939093529015156080830152151560a09091015292915050565b634e487b7160e01b600052604160045260246000fd5b600181811c9082168061399f57607f821691505b6020821081036139bf57634e487b7160e01b600052602260045260246000fd5b50919050565b601f8211156130da57600081815260208120601f850160051c810160208610156139ec5750805b601f850160051c820191505b81811015613a0b578281556001016139f8565b505050505050565b81516001600160401b03811115613a2c57613a2c613975565b613a4081613a3a845461398b565b846139c5565b602080601f831160018114613a755760008415613a5d5750858301515b600019600386901b1c1916600185901b178555613a0b565b600085815260208120601f198616915b82811015613aa457888601518255948401946001909101908401613a85565b5085821015613ac25787850151600019600388901b60f8161c191681555b5050505050600190811b01905550565b81835281816020850137506000828201602090810191909152601f909101601f19169091010190565b604081526000613b0f604083018688613ad2565b8281036020840152613b22818587613ad2565b979650505050505050565b60208082526014908201527313dddb995c881b9bdd081c9959da5cdd195c995960621b604082015260600190565b634e487b7160e01b600052603260045260246000fd5b60208082526014908201527315985d5b1d08191bd95cc81b9bdd08195e1a5cdd60621b604082015260600190565b6020808252600f908201526e2737ba103b30bab63a1037bbb732b960891b604082015260600190565b634e487b7160e01b600052601160045260246000fd5b600060018201613bf057613bf0613bc8565b5060010190565b606081526000613c0b606083018789613ad2565b8281036020840152613c1e818688613ad2565b91505082151560408301529695505050505050565b6020808252601b908201527f4e6f74206120636f6e74616374206f662074686973206f776e65720000000000604082015260600190565b6001600160401b03831115613c8157613c81613975565b613c9583613c8f835461398b565b836139c5565b6000601f841160018114613cc95760008515613cb15750838201355b600019600387901b1c1916600186901b178355613d23565b600083815260209020601f19861690835b82811015613cfa5786850135825560209485019460019092019101613cda565b5086821015613d175760001960f88860031b161c19848701351681555b505060018560011b0183555b5050505050565b838152604060208201526000613d44604083018486613ad2565b95945050505050565b602081526000613d61602083018486613ad2565b949350505050565b80820281158282048414176108a3576108a3613bc8565b600082613d9d57634e487b7160e01b600052601260045260246000fd5b500490565b808201808211156108a3576108a3613bc856fea264697066735822122076578b168c52ea7c4cbe35b3cf1f77402cffd856075798c83a6ce30ee63dc41f64736f6c63430008130033",
  "linkReferences": {},
  "deployedLinkReferences": {}
}