{"contracts/LifeSignalRegistry.sol":{"LifeSignalRegistry":{"abi":[{"anonymous":false,"inputs":[{"indexed":true,"internalType":"address","name":"owner","type":"address"},{"indexed":false,"internalType":"bool","name":"isDeceased","type":"bool"},{"indexed":false,"internalType":"uint256","name":"timestamp","type":"uint256"}],"name":"ConsensusReached","type":"event"},{"anonymous":false,"inputs":[{"indexed":true,"internalType":"address","name":"owner","type":"address"},{"indexed":true,"internalType":"address","name":"contact","type":"address"},{"indexed":false,"internalType":"string","name":"firstName","type":"string"},{"indexed":false,"internalType":"string","name":"lastName","type":"string"},{"indexed":false,"internalType":"bool","name":"hasVotingRight","type":"bool"}],"name":"ContactAdded","type":"event"},{"anonymous":false,"inputs":[{"indexed":true,"internalType":"address","name":"owner","type":"address"},{"indexed":true,"internalType":"address","name":"contact","type":"address"}],"name":"ContactVerified","type":"event"},{"anonymous":false,"inputs":[{"indexed":true,"internalType":"address","name":"owner","type":"address"},{"indexed":true,"internalType":"address","name":"declaredBy","type":"address"},{"indexed":false,"internalType":"uint256","name":"timestamp","type":"uint256"}],"name":"DeathDeclared","type":"event"},{"anonymous":false,"inputs":[{"indexed":true,"internalType":"address","name":"owner","type":"address"},{"indexed":false,"internalType":"uint256","name":"gracePeriodEnd","type":"uint256"}],"name":"GracePeriodStarted","type":"event"},{"anonymous":false,"inputs":[{"indexed":true,"internalType":"address","name":"owner","type":"address"},{"indexed":false,"internalType":"uint256","name":"timestamp","type":"uint256"}],"name":"HeartbeatSent","type":"event"},{"anonymous":false,"inputs":[{"indexed":true,"internalType":"address","name":"owner","type":"address"},{"indexed":false,"internalType":"string","name":"firstName","type":"string"},{"indexed":false,"internalType":"string","name":"lastName","type":"string"}],"name":"OwnerRegistered","type":"event"},{"anonymous":false,"inputs":[{"indexed":true,"internalType":"uint256","name":"vaultId","type":"uint256"},{"indexed":true,"internalType":"address","name":"contact","type":"address"}],"name":"VaultContactAuthorized","type":"event"},{"anonymous":false,"inputs":[{"indexed":true,"internalType":"uint256","name":"vaultId","type":"uint256"},{"indexed":true,"internalType":"address","name":"owner","type":"address"},{"indexed":false,"internalType":"string","name":"name","type":"string"}],"name":"VaultCreated","type":"event"},{"anonymous":false,"inputs":[{"indexed":true,"internalType":"uint256","name":"vaultId","type":"uint256"},{"indexed":false,"internalType":"uint256","name":"fileId","type":"uint256"},{"indexed":false,"internalType":"string","name":"originalName","type":"string"}],"name":"VaultFileAdded","type":"event"},{"anonymous":false,"inputs":[{"indexed":true,"internalType":"uint256","name":"vaultId","type":"uint256"},{"indexed":true,"internalType":"address","name":"owner","type":"address"}],"name":"VaultReleased","type":"event"},{"anonymous":false,"inputs":[{"indexed":true,"internalType":"address","name":"owner","type":"address"},{"indexed":true,"internalType":"address","name":"voter","type":"address"},{"indexed":false,"internalType":"bool","name":"vote","type":"bool"}],"name":"VoteCast","type":"event"},{"inputs":[{"internalType":"address","name":"_contact","type":"address"},{"internalType":"string","name":"_firstName","type":"string"},{"internalType":"string","name":"_lastName","type":"string"},{"internalType":"string","name":"_email","type":"string"},{"internalType":"string","name":"_phone","type":"string"},{"internalType":"bool","name":"_hasVotingRight","type":"bool"},{"internalType":"uint256[]","name":"_authorizedVaults","type":"uint256[]"}],"name":"addContact","outputs":[],"stateMutability":"nonpayable","type":"function"},{"inputs":[{"internalType":"uint256","name":"_vaultId","type":"uint256"},{"internalType":"string","name":"_originalName","type":"string"},{"internalType":"string","name":"_mimeType","type":"string"},{"internalType":"string","name":"_cid","type":"string"},{"internalType":"string","name":"_uploadDate","type":"string"}],"name":"addVaultFile","outputs":[{"internalType":"uint256","name":"","type":"uint256"}],"stateMutability":"nonpayable","type":"function"},{"inputs":[{"internalType":"uint256","name":"_vaultId","type":"uint256"},{"internalType":"address","name":"_contact","type":"address"}],"name":"authorizeVaultContact","outputs":[],"stateMutability":"nonpayable","type":"function"},{"inputs":[{"internalType":"address","name":"_owner","type":"address"}],"name":"checkGracePeriodExpiry","outputs":[{"internalType":"bool","name":"expired","type":"bool"},{"internalType":"bool","name":"canFinalize","type":"bool"}],"stateMutability":"view","type":"function"},{"inputs":[{"internalType":"string","name":"_name","type":"string"},{"internalType":"string","name":"_cypherIv","type":"string"},{"internalType":"string","name":"_encryptionKey","type":"string"}],"name":"createVault","outputs":[{"internalType":"uint256","name":"","type":"uint256"}],"stateMutability":"nonpayable","type":"function"},{"inputs":[{"internalType":"address","name":"_owner","type":"address"}],"name":"declareDeceased","outputs":[],"stateMutability":"nonpayable","type":"function"},{"inputs":[{"internalType":"address","name":"_owner","type":"address"}],"name":"finalizeDeathDeclaration","outputs":[],"stateMutability":"nonpayable","type":"function"},{"inputs":[{"internalType":"address","name":"_owner","type":"address"},{"internalType":"address","name":"_contact","type":"address"}],"name":"getContactAuthorizedVaults","outputs":[{"internalType":"uint256[]","name":"","type":"uint256[]"}],"stateMutability":"view","type":"function"},{"inputs":[{"internalType":"address","name":"_owner","type":"address"},{"internalType":"address","name":"_contact","type":"address"}],"name":"getContactInfo","outputs":[{"internalType":"address","name":"addr","type":"address"},{"internalType":"string","name":"firstName","type":"string"},{"internalType":"string","name":"lastName","type":"string"},{"internalType":"string","name":"email","type":"string"},{"internalType":"string","name":"phone","type":"string"},{"internalType":"bool","name":"hasVotingRight","type":"bool"},{"internalType":"bool","name":"isVerified","type":"bool"},{"internalType":"bool","name":"exists","type":"bool"}],"stateMutability":"view","type":"function"},{"inputs":[{"internalType":"address","name":"_owner","type":"address"}],"name":"getContactList","outputs":[{"internalType":"address[]","name":"","type":"address[]"}],"stateMutability":"view","type":"function"},{"inputs":[{"internalType":"address","name":"_owner","type":"address"}],"name":"getContactListDetails","outputs":[{"internalType":"address[]","name":"contactAddresses","type":"address[]"},{"internalType":"string[]","name":"firstNames","type":"string[]"},{"internalType":"string[]","name":"lastNames","type":"string[]"},{"internalType":"string[]","name":"emails","type":"string[]"},{"internalType":"string[]","name":"phones","type":"string[]"},{"internalType":"bool[]","name":"hasVotingRights","type":"bool[]"},{"internalType":"bool[]","name":"isVerified","type":"bool[]"}],"stateMutability":"view","type":"function"},{"inputs":[{"internalType":"address","name":"_contact","type":"address"}],"name":"getContactVaultDetails","outputs":[{"internalType":"uint256[]","name":"vaultIds","type":"uint256[]"},{"internalType":"string[]","name":"vaultNames","type":"string[]"},{"internalType":"address[]","name":"vaultOwners","type":"address[]"},{"internalType":"bool[]","name":"isReleased","type":"bool[]"},{"internalType":"string[]","name":"cypherIvs","type":"string[]"},{"internalType":"string[]","name":"encryptionKeys","type":"string[]"},{"internalType":"uint256[][]","name":"fileIds","type":"uint256[][]"}],"stateMutability":"view","type":"function"},{"inputs":[{"internalType":"address","name":"_owner","type":"address"}],"name":"getDeathDeclarationStatus","outputs":[{"internalType":"bool","name":"isActive","type":"bool"},{"internalType":"bool","name":"isDeceased","type":"bool"},{"internalType":"uint256","name":"votesFor","type":"uint256"},{"internalType":"uint256","name":"votesAgainst","type":"uint256"},{"internalType":"uint256","name":"totalVotingContacts","type":"uint256"},{"internalType":"bool","name":"consensusReached","type":"bool"},{"internalType":"bool","name":"isInGracePeriod","type":"bool"},{"internalType":"uint256","name":"gracePeriodEnd","type":"uint256"}],"stateMutability":"view","type":"function"},{"inputs":[{"internalType":"address","name":"_owner","type":"address"}],"name":"getOwnerInfo","outputs":[{"internalType":"string","name":"firstName","type":"string"},{"internalType":"string","name":"lastName","type":"string"},{"internalType":"uint256","name":"lastHeartbeat","type":"uint256"},{"internalType":"uint256","name":"graceInterval","type":"uint256"},{"internalType":"bool","name":"isDeceased","type":"bool"},{"internalType":"bool","name":"exists","type":"bool"}],"stateMutability":"view","type":"function"},{"inputs":[{"internalType":"address","name":"_owner","type":"address"}],"name":"getOwnerVaultList","outputs":[{"internalType":"uint256[]","name":"","type":"uint256[]"}],"stateMutability":"view","type":"function"},{"inputs":[{"internalType":"address","name":"_owner","type":"address"}],"name":"getOwnerVaultListDetails","outputs":[{"internalType":"uint256[]","name":"vaultIds","type":"uint256[]"},{"internalType":"string[]","name":"names","type":"string[]"},{"internalType":"address[]","name":"vaultOwners","type":"address[]"},{"internalType":"bool[]","name":"isReleased","type":"bool[]"},{"internalType":"string[]","name":"cypherIvs","type":"string[]"},{"internalType":"string[]","name":"encryptionKeys","type":"string[]"},{"internalType":"uint256[][]","name":"fileIds","type":"uint256[][]"},{"internalType":"address[][]","name":"authorizedContacts","type":"address[][]"}],"stateMutability":"view","type":"function"},{"inputs":[{"internalType":"uint256","name":"_vaultId","type":"uint256"}],"name":"getVaultAuthorizedContacts","outputs":[{"internalType":"address[]","name":"","type":"address[]"}],"stateMutability":"view","type":"function"},{"inputs":[{"internalType":"uint256","name":"_vaultId","type":"uint256"},{"internalType":"uint256","name":"_fileId","type":"uint256"}],"name":"getVaultFileInfo","outputs":[{"internalType":"string","name":"originalName","type":"string"},{"internalType":"string","name":"mimeType","type":"string"},{"internalType":"string","name":"cid","type":"string"},{"internalType":"string","name":"uploadDate","type":"string"},{"internalType":"bool","name":"exists","type":"bool"}],"stateMutability":"view","type":"function"},{"inputs":[{"internalType":"uint256","name":"_vaultId","type":"uint256"}],"name":"getVaultFileList","outputs":[{"internalType":"uint256[]","name":"","type":"uint256[]"}],"stateMutability":"view","type":"function"},{"inputs":[{"internalType":"uint256","name":"_vaultId","type":"uint256"}],"name":"getVaultInfo","outputs":[{"internalType":"uint256","name":"id","type":"uint256"},{"internalType":"string","name":"name","type":"string"},{"internalType":"address","name":"owner","type":"address"},{"internalType":"bool","name":"isReleased","type":"bool"},{"internalType":"string","name":"cypherIv","type":"string"},{"internalType":"string","name":"encryptionKey","type":"string"},{"internalType":"uint256[]","name":"fileIds","type":"uint256[]"},{"internalType":"address[]","name":"authorizedContacts","type":"address[]"},{"internalType":"bool","name":"exists","type":"bool"}],"stateMutability":"view","type":"function"},{"inputs":[{"internalType":"address","name":"_owner","type":"address"},{"internalType":"address","name":"_voter","type":"address"}],"name":"getVote","outputs":[{"internalType":"bool","name":"","type":"bool"}],"stateMutability":"view","type":"function"},{"inputs":[{"internalType":"address","name":"_owner","type":"address"},{"internalType":"address","name":"_voter","type":"address"}],"name":"hasVoted","outputs":[{"internalType":"bool","name":"","type":"bool"}],"stateMutability":"view","type":"function"},{"inputs":[{"internalType":"uint256","name":"_vaultId","type":"uint256"},{"internalType":"address","name":"_address","type":"address"}],"name":"isVaultAuthorized","outputs":[{"internalType":"bool","name":"","type":"bool"}],"stateMutability":"view","type":"function"},{"inputs":[{"internalType":"string","name":"_firstName","type":"string"},{"internalType":"string","name":"_lastName","type":"string"},{"internalType":"string","name":"_email","type":"string"},{"internalType":"string","name":"_phone","type":"string"},{"internalType":"uint256","name":"_graceInterval","type":"uint256"}],"name":"registerOwner","outputs":[],"stateMutability":"nonpayable","type":"function"},{"inputs":[{"internalType":"uint256","name":"_vaultId","type":"uint256"}],"name":"releaseVault","outputs":[],"stateMutability":"nonpayable","type":"function"},{"inputs":[],"name":"sendHeartbeat","outputs":[],"stateMutability":"nonpayable","type":"function"},{"inputs":[{"internalType":"address","name":"_owner","type":"address"},{"internalType":"string","name":"_firstName","type":"string"},{"internalType":"string","name":"_lastName","type":"string"},{"internalType":"string","name":"_email","type":"string"},{"internalType":"string","name":"_phone","type":"string"}],"name":"updateContactInfo","outputs":[],"stateMutability":"nonpayable","type":"function"},{"inputs":[{"internalType":"address","name":"_owner","type":"address"}],"name":"verifyContact","outputs":[],"stateMutability":"nonpayable","type":"function"},{"inputs":[{"internalType":"address","name":"_owner","type":"address"},{"internalType":"bool","name":"_vote","type":"bool"}],"name":"voteOnDeathDeclaration","outputs":[],"stateMutability":"nonpayable","type":"function"}],"evm":{"bytecode":{"linkReferences":{},"object":"60808060405234610020576000600655600060075561480b90816100268239f35b600080fdfe608080604052600436101561001357600080fd5b60003560e01c9081630accc75d14613389575080631d2f4368146133355780631fe7fe7e146129bd57806320261995146126fa5780632438f6541461267d5780632c8bc50b1461229a5780632fda53e71461225d578063329a5ac014611ca457806333587dc4146116e257806334f167a9146115a25780633bfb14f5146114e9578063490f0eba146114ba5780634d4d2b1c146114615780634e8e32b51461128257806352e20c4f146112525780635ab4f1621461119a57806360f490f7146110a05780636880f13714610fa45780637366252c14610d985780637584361814610d555780638b771cc714610c20578063996e6ca114610b7d578063abc22bbe146108b4578063b1ba9620146107b7578063b2b2baed14610615578063b385faa8146105c4578063ceb15920146103fe578063d385de82146103595763d72d3e161461015e57600080fd5b34610354576020366003190112610354576001600160a01b0361017f613af7565b1680600052600060205261019960086040600020016146f7565b8051916101a583613d7c565b926101af8161476c565b6101b88261476c565b6101c18361476c565b916101cb8461476c565b936101d581613d7c565b956101df82613d7c565b9760005b8a8482106102735760e061026f8c6102618d6102538e6102458f8f8f906102296102379261021b6040519e8f9e8f8181520190613bf3565b8d810360208f015290613b97565b908b820360408d0152613b97565b9089820360608b0152613b97565b908782036080890152613b97565b9085820360a0870152613c30565b9083820360c0850152613c30565b0390f35b90898b610341836103318160058f988f8f8f9b61031b8f8f9461034f9f8980966103018261030e946102f182986103289d6102b58560018060a01b03926147a1565b5116906000526001908160205260406000209060005260205260406000209e8f906102ea8660018060a01b03845416926147a1565b5201614057565b6102fb83836147a1565b526147a1565b506102f160028b01614057565b506102f160038801614057565b506102f160048501614057565b500154956147a1565b9260ff93848616151590526147a1565b9160081c1615159052613f7c565b6101e3565b600080fd5b34610354576020366003190112610354576001600160a01b0361037a613af7565b1660005260006020526103cc6040600020600581015460ff60068301546007840154906103da6103b860026103b160018901614057565b9701614057565b60405197889760c0895260c0890190613b57565b908782036020890152613b57565b93604086015260608501528181161515608085015260081c16151560a08301520390f35b34610354576020366003190112610354576001600160a01b0361041f613af7565b166000526005602052604060002080549061043982613d7c565b916104438161476c565b61044c82613d7c565b61045583613d7c565b9061045f8461476c565b926104698561476c565b946104738161476c565b9660005b8281106104e657508860e061026f8a6104d88b6104ca8c6102458d6104bc8e6104ae8f61021b6040519e8f9e8f8181520190613b23565b908b820360408d0152613bf3565b9089820360608b0152613c30565b9085820360a0870152613b97565b9083820360c0850152613c66565b806105a460056104f96105bf948661414a565b508d610507858354926147a1565b5261051460018201614057565b61051e858a6147a1565b5261052984896147a1565b5060028101546001600160a01b038116610543868c6147a1565b5260ff610550868d6147a1565b9160a01c161515905261056560038201614057565b61056f858d6147a1565b5261057a848c6147a1565b508b6105928561058c60048501614057565b926147a1565b5261059d848d6147a1565b50016140fb565b6105ae828c6147a1565b526105b9818b6147a1565b50613f7c565b610477565b34610354576020366003190112610354576001600160a01b036105e5613af7565b16600052600060205261026f61060160086040600020016146f7565b604051918291602083526020830190613bf3565b3461035457602080600319360112610354576004359081600052600280825261064860ff60056040600020015416613fa1565b6000838152818352604090208101546001600160a01b0392908316331480156107a7575b15610772578360005281815260ff826040600020015460a01c166107355783600052818152828260406000200154166000526000815260ff60076040600020015416156106fc5781908460005252604060002001805490600160a01b60ff60a01b19831617905516907fa18f1ac3d4c6b800447518126c2fc0d98210a7078080b093679e972d1f8500b9600080a3005b6064906040519062461bcd60e51b82526004820152601260248201527113dddb995c881b9bdd08191958d9585cd95960721b6044820152fd5b6064906040519062461bcd60e51b82526004820152601660248201527515985d5b1d08185b1c9958591e481c995b19585cd95960521b6044820152fd5b6064906040519062461bcd60e51b82526004820152600e60248201526d139bdd08185d5d1a1bdc9a5e995960921b6044820152fd5b506107b2338561447f565b61066c565b346103545760203660031901126103545760043560005260026020526040600020805460028201546108a760ff600585015416916108996107fa60018701614057565b9561088b61080a60038301614057565b9361087d61081a60048501614057565b91610833600661082c600788016140fb565b96016146f7565b9660ff6108536040519d8e9d8e528d610120908160208201520190613b57565b6001600160a01b03841660408e015260a09390931c16151560608c01528a820360808c0152613b57565b9088820360a08a0152613b57565b9086820360c0880152613b23565b9084820360e0860152613bf3565b9015156101008301520390f35b3461035457602080600319360112610354576108ce613af7565b60018060a01b0380821680600052600191828552604060002033600052855260ff90600561090783826040600020015460101c166144e4565b83600052848752604060002033600052875261092b83826040600020015416614530565b83600052600087526007604060002001549261094c81600895861c16613ed0565b846000526000885261096881600760406000200154161561456f565b846000526004885280826040600020015416610b3a578590600093826000905b610ac1575b505050508115610a7c57916009610a7a97927fcc194f214df029fe546c9959ee15d79d8633742aab6c02a862e337f8ace3d550948660005260048552604060002091336001600160601b0360a01b845416178355428984015588600284015560006003840155600483015581018761ffff19825416179055600781019260ff19938481541690556000600683015533600052810184526040600020878482541617905501825284604060002091825416179055604051428152837fd1ffe6c6eec884ae3341f8304738b02340905dfd25b73df1802e7f95c9b9fbec833393a36040519384523393a36145b4565b005b60405162461bcd60e51b815260048101889052601c60248201527f4e6f20766f74696e6720636f6e746163747320617661696c61626c65000000006044820152606490fd5b8760005260008b528a876040600020018054831015610b33578591610ae7848693613f13565b939054918c6000525260406000209260031b1c166000528b5282856040600020015416610b1e575b610b1890613f7c565b83610988565b94610b2b610b1891613f7c565b959050610b0f565b505061098d565b6064886040519062461bcd60e51b825280600483015260248201527f4465617468206465636c61726174696f6e20616c7265616479206163746976656044820152fd5b34610354576020366003190112610354576001600160a01b03610b9e613af7565b16600052600460205261010060406000206005810154600060205260ff600760406000200154169160ff60028201549260038301546004840154906006846007870154169501549560405197858516151589521515602089015260408801526060870152608086015260081c16151560a0840152151560c083015260e0820152f35b3461035457602080600319360112610354576001600160a01b03610c42613af7565b169081600052600481526040600020600781019060ff82541615610d1a5760068101544210610cd557916040916000805160206147b6833981519152938560005260008352610c9b60ff6007866000200154161561456f565b85600052600083526005600785600020019160ff1992600184825416179055018181541690558154169055815190600182524290820152a2005b60405162461bcd60e51b815260048101849052601c60248201527f477261636520706572696f64206e6f74207965742065787069726564000000006044820152606490fd5b60405162461bcd60e51b8152600481018490526013602482015272139bdd081a5b8819dc9858d9481c195c9a5bd9606a1b6044820152606490fd5b3461035457602036600319011261035457600435600052600260205261026f610d8460076040600020016140fb565b604051918291602083526020830190613b23565b3461035457604036600319011261035457600435610db4613b0d565b908060005260026020818152610dd460ff60056040600020015416613fa1565b8260005281815260018060a01b0391610df7838260406000200154163314613fe4565b33600052600182526040600020948381169586600052835260ff60056040600020015460101c1615610f6657610e2d818661447f565b610f215791610ee66007600593610e56610efa9796896000528286526006604060002001613f41565b33600052600184526040600020896000528452610e7a886006604060002001614022565b8760005280845260ff60406000209182015460405197610e9989613d0e565b8a8952610ea860018501614057565b878a01528116604089015260a01c1615156060870152610eca60038201614057565b6080870152610edb60048201614057565b60a0870152016140fb565b60c084015285600052526040600020614166565b7f072024bc1a3beff7df2fe575c8097c660ee4a4e15f263e037ed38560728681f1600080a3005b60405162461bcd60e51b815260048101849052601a60248201527f436f6e7461637420616c726561647920617574686f72697a65640000000000006044820152606490fd5b60405162461bcd60e51b815260048101849052601660248201527510dbdb9d1858dd08191bd95cc81b9bdd08195e1a5cdd60521b6044820152606490fd5b3461035457602080600319360112610354576001600160a01b03610fc6613af7565b169081600052600181526040600020336000528152610ff260ff60056040600020015460101c166144e4565b8160005260018152604060002033600052815260ff60056040600020015460081c166110695781600052600181526040600020903360005252600560406000200161010061ff001982541617905533907f33c6b9962c16a3768d4f15c8f694b088fd57a39499a9b9f7e59243c371a2207a600080a3005b6064906040519062461bcd60e51b82526004820152601060248201526f105b1c9958591e481d995c9a599a595960821b6044820152fd5b34610354576040366003190112610354576110b9613af7565b6110c1613b0d565b60018060a01b0380921660005260016020528160406000209116600052602052604060002090815416600582015460ff61117361110060018601614057565b9461116561111060028301614057565b9161115761112c600461112560038501614057565b9301614057565b936111496040519a8b9a8b526101008060208d01528b0190613b57565b9089820360408b0152613b57565b908782036060890152613b57565b908582036080870152613b57565b91818116151560a0850152818160081c16151560c085015260101c16151560e08301520390f35b34610354576040366003190112610354576111b3613af7565b6111bb613b0d565b60018060a01b038092168060005260209260048452600860406000200192169182600052835260ff60406000205416156112175760005260048252600960406000200190600052815260ff604060002054166040519015158152f35b60405162461bcd60e51b8152600481018490526013602482015272159bdd195c881a185cc81b9bdd081d9bdd1959606a1b6044820152606490fd5b34610354576040366003190112610354576020611278611270613b0d565b60043561447f565b6040519015158152f35b346103545760403660031901126103545761129b613af7565b602435908115158083036103545760018060a01b038216806000526020936001855260406000203360005285526112df60ff60056040600020015460101c166144e4565b8160005260018552604060002033600052855261130660ff60056040600020015416614530565b816000526004855260ff600560406000200154161561141c578160005260048552600860406000200133600052855260ff604060002054166113e757610a7a947fcc194f214df029fe546c9959ee15d79d8633742aab6c02a862e337f8ace3d550918360005260048252604060002090336000526008820183526040600020600160ff198254161790556009820183526113b08160406000209060ff801983541691151516179055565b156113d3576002016113c28154613f7c565b90555b6040519384523393a36145b4565b6003016113e08154613f7c565b90556113c5565b60405162461bcd60e51b815260048101869052600d60248201526c105b1c9958591e481d9bdd1959609a1b6044820152606490fd5b60405162461bcd60e51b815260048101869052601b60248201527f4e6f20616374697665206465617468206465636c61726174696f6e00000000006044820152606490fd5b346103545760403660031901126103545761147a613af7565b611482613b0d565b9060018060a01b03809116600052600460205260086040600020019116600052602052602060ff604060002054166040519015158152f35b3461035457602036600319011261035457600435600052600260205261026f61060160066040600020016146f7565b34610354576040366003190112610354576004356000526003602052604060002060243560005260205261156c604060002060ff60058201541661159661153260018401614057565b9261158861154260028301614057565b9161157a611557600461112560038501614057565b9360405198899860a08a5260a08a0190613b57565b9088820360208a0152613b57565b908682036040880152613b57565b908482036060860152613b57565b90151560808301520390f35b3461035457600036600319011261035457336000526020600081526115d460ff60076040600020015460081c16613ed0565b336000526000815260ff6007604060002001541661169e57336000526000815242600560406000200155600481526040600020600581019081549060ff82168015611690575b61164d575b837f878229cab17522b0aa9fe67ef166ba37857b7fdb46cd8748179a9d9a7373727f604051914283523392a2005b6000926006926007830160ff19815416905561ffff1916905501556040516000815242828201526000805160206147b683398151915260403392a281808061161f565b5060ff60078201541661161a565b6064906040519062461bcd60e51b82526004820152601960248201527f4f776e657220697320616c7265616479206465636561736564000000000000006044820152fd5b34610354576060366003190112610354576004356001600160401b03811161035457611712903690600401613aca565b6024356001600160401b03811161035457611731903690600401613aca565b6044929192356001600160401b03811161035457611753903690600401613aca565b93909333600052600060205261177660ff60076040600020015460081c16613ed0565b6006549485600052600260205260ff60056040600020015416611c68576117fc90604051926117a484613d29565b600084526117f0604051956117b887613d29565b60008752604051976117c989613cf2565b8a89526117d7368b8e613dae565b60208a01523360408a0152600060608a01523691613dae565b60808701523691613dae565b60a0840152600160c084015260e083015261010082015282600052600260205260406000208151815560208201518051906001600160401b038211611abe5781906118578261184e6001870154613df4565b60018701613e45565b602090601f8311600114611bf657600092611beb575b50508160011b916000199060031b1c19161760018201555b6040820151600282018054606085015160ff60a01b90151560a01b166001600160a01b039093166001600160a81b03199091161791909117905560808201518051906001600160401b038211611abe5781906118f1826118e86003870154613df4565b60038701613e45565b602090601f8311600114611b7957600092611b6e575b50508160011b916000199060031b1c19161760038201555b60a08201518051906001600160401b038211611abe578190611951826119486004870154613df4565b60048701613e45565b602090601f8311600114611afc57600092611af1575b50508160011b916000199060031b1c19161760048201555b61199e60c08301511515600583019060ff801983541691151516179055565b60e08201518051906001600160401b038211611abe57600160401b8211611abe57602060068401916119d584845481865585613e8c565b0190600052602060002060005b838110611ad4575050505060076101009101910151908151916001600160401b038311611abe57600160401b8311611abe57602090611a2684845481865585613e8c565b0190600052602060002060005b838110611aaa5760208686817f6cda1fe49e022cf08f0f3e367bd8c6abb3c3a01a260273f23c8e432a4166a048611a9f8c3360005260008752611a7d846009604060002001614022565b611a88600654613f7c565b600655604051918291888352339689840191613eaf565b0390a3604051908152f35b600190602084519401938184015501611a33565b634e487b7160e01b600052604160045260246000fd5b82516001600160a01b0316818301556020909201916001016119e2565b015190508780611967565b9250600484016000526020600020906000935b601f1984168510611b53576001945083601f19811610611b3a575b505050811b01600482015561197f565b015160001960f88460031b161c19169055878080611b2a565b81810151835560209485019460019093019290910190611b0f565b015190508780611907565b9250600384016000526020600020906000935b601f1984168510611bd0576001945083601f19811610611bb7575b505050811b01600382015561191f565b015160001960f88460031b161c19169055878080611ba7565b81810151835560209485019460019093019290910190611b8c565b01519050878061186d565b9250600184016000526020600020906000935b601f1984168510611c4d576001945083601f19811610611c34575b505050811b016001820155611885565b015160001960f88460031b161c19169055878080611c24565b81810151835560209485019460019093019290910190611c09565b60405162461bcd60e51b81526020600482015260146024820152735661756c7420616c72656164792065786973747360601b6044820152606490fd5b346103545760a0366003190112610354576024356001600160401b03811161035457611cd4903690600401613aca565b906044356001600160401b03811161035457611cf4903690600401613aca565b9290916064356001600160401b03811161035457611d16903690600401613aca565b90946084356001600160401b03811161035457611d37903690600401613aca565b6004356000526002602052611d5660ff60056040600020015416613fa1565b6004356000526002602052611d7c60018060a01b03600260406000200154163314613fe4565b60075496600435600052600360205260406000208860005260205260ff6005604060002001541661222257604051988960c08101106001600160401b0360c08c011117611abe5760c08a01604052888a528995611e0c95611e0093611df4916020611de8368e8e613dae565b9a01998a523691613dae565b60408c01523691613dae565b60608901523691613dae565b6080860152600160a08601526004356000526003602052604060002084600052602052604060002090855182555180516001600160401b038111611abe57806001840192611e6482611e5e8654613df4565b86613e45565b602090601f83116001146121bc576000926121b1575b50508160011b916000199060031b1c19161790555b604085015180516001600160401b038111611abe57806002840192611eb882611e5e8654613df4565b602090601f831160011461214b57600092612140575b50508160011b916000199060031b1c19161790555b606085015180516001600160401b038111611abe57806003840192611f0c82611e5e8654613df4565b602090601f83116001146120da576000926120cf575b50508160011b916000199060031b1c19161790555b60808501519485516001600160401b038111611abe57602096611f61826119486004870154613df4565b8790601f83116001146120335760a07f1d3c6a3c34addeca1898ed9e2152304ea92cf5b2dfabe5461461392a62f6d8de969484611fd79561201d9895600595600092612028575b50508160011b916000199060031b1c19161760048501555b0151151591019060ff801983541691151516179055565b60043560005260028652611ff2856007604060002001614022565b611ffd600754613f7c565b600755604051918291868352604088840152600435956040840191613eaf565b0390a2604051908152f35b015190508d80611fa8565b9060048501600052886000209160005b601f19851681106120b857507f1d3c6a3c34addeca1898ed9e2152304ea92cf5b2dfabe5461461392a62f6d8de969460018561201d989560059560a095611fd799601f1981161061209f575b505050811b016004850155611fc0565b015160001960f88460031b161c191690558d808061208f565b91928a600181928685015181550194019201612043565b015190508880611f22565b6000858152602081209350601f198516905b818110612128575090846001959493921061210f575b505050811b019055611f37565b015160001960f88460031b161c19169055888080612102565b929360206001819287860151815501950193016120ec565b015190508880611ece565b6000858152602081209350601f198516905b8181106121995750908460019594939210612180575b505050811b019055611ee3565b015160001960f88460031b161c19169055888080612173565b9293602060018192878601518155019501930161215d565b015190508880611e7a565b6000858152602081209350601f198516905b81811061220a57509084600195949392106121f1575b505050811b019055611e8f565b015160001960f88460031b161c191690558880806121e4565b929360206001819287860151815501950193016121ce565b60405162461bcd60e51b815260206004820152601360248201527246696c6520616c72656164792065786973747360681b6044820152606490fd5b34610354576020366003190112610354576001600160a01b0361227e613af7565b16600052600060205261026f610d8460096040600020016140fb565b346103545760a0366003190112610354576122b3613af7565b6001600160401b03602435818111610354576122d3903690600401613aca565b90604435838111610354576122ec903690600401613aca565b9060643585811161035457612305903690600401613aca565b91909260843587811161035457612320903690600401613aca565b96909860018060a01b031680600052600160205260406000203360005260205261235760ff60056040600020015460101c166144e4565b6000526001602052604060002033600052602052604060002095888211611abe5781906123948261238b60018b0154613df4565b60018b01613e45565b600090601f831160011461260c57600092612601575b50508160011b916000199060031b1c19161760018601555b6002850191878211611abe5781906123de82611e5e8654613df4565b600090601f83116001146125965760009261258b575b50508160011b916000199060031b1c19161790555b6003830191858211611abe57612429826124238554613df4565b85613e45565b600090601f831160011461251f5760049493929160009183612514575b50508160011b916000199060031b1c19161790555b01918111611abe57612477816124718454613df4565b84613e45565b6000601f82116001146124b2578192936000926124a7575b5050600019600383901b1c191660019190911b179055005b01359050838061248f565b601f198216938360005260206000209160005b8681106124fc57508360019596106124e2575b505050811b019055005b0135600019600384901b60f8161c191690558380806124d8565b909260206001819286860135815501940191016124c5565b013590508880612446565b601f198316918460005260206000209260005b818110612573575091600193918560049897969410612559575b505050811b01905561245b565b0135600019600384901b60f8161c1916905588808061254c565b91936020600181928787013581550195019201612532565b0135905089806123f4565b909150601f198316918460005260206000209260005b8181106125e957509084600195949392106125cf575b505050811b019055612409565b0135600019600384901b60f8161c191690558980806125c2565b919360206001819287870135815501950192016125ac565b013590508a806123aa565b909150601f198316916001890160005260206000209260005b818110612665575090846001959493921061264b575b505050811b0160018601556123c2565b0135600019600384901b60f8161c191690558a808061263b565b91936020600181928787013581550195019201612625565b34610354576020366003190112610354576001600160a01b0361269e613af7565b16600052600460205260408060002060ff60078201541690816126eb575b5080806126d4575b8251911515825215156020820152f35b50600060205260ff600783600020015416156126c4565b600691500154421015826126bc565b34610354576020366003190112610354576001600160a01b0361271b613af7565b16600052600060205261273460096040600020016140fb565b80519061274082613d7c565b9161274a8161476c565b9261275482613d7c565b61275d83613d7c565b6127668461476c565b916127708561476c565b9361277a8661476c565b9561278481613d65565b97612792604051998a613d44565b8189526127ae601f196127a484613d65565b0160208b0161474f565b60005b8281106128a2575050506127ed9695936128176128339461280961284198956127fb612825966040519e8f9e8f92610100808552840190613b23565b916020818403910152613b97565b8c810360408e015290613bf3565b908a820360608c0152613c30565b9088820360808a0152613b97565b9086820360a0880152613b97565b9084820360c0860152613c66565b82810360e0840152815180825260208201916020808360051b8301019401926000915b8383106128715786860387f35b919395509193602080612890600193601f198682030187528951613bf3565b97019301930190928695949293612864565b6128b281839c959697989c6147a1565b5160005260028060205260406000209081546128ce84896147a1565b526128db60018301614057565b6128e584886147a1565b526128f083876147a1565b508101546001600160a01b038116612908848a6147a1565b52612913838a6147a1565b9060a01c60ff1615159052818c6003830161292d90614057565b91612937916147a1565b52612942828d6147a1565b5061294f60048201614057565b612959838b6147a1565b52612964828a6147a1565b50612971600782016140fb565b61297b838c6147a1565b52612986828b6147a1565b50600601612993906146f7565b61299d828c6147a1565b526129a8818b6147a1565b506129b290613f7c565b9995949392996127b1565b346103545760e0366003190112610354576129d6613af7565b6024356001600160401b038111610354576129f5903690600401613aca565b916044356001600160401b03811161035457612a15903690600401613aca565b60649384356001600160401b03811161035457612a36903690600401613aca565b95906084356001600160401b03811161035457612a57903690600401613aca565b909160a435988915158a03610354576001600160401b0360c435116103545736602360c435011215610354576001600160401b0360c43560040135116103545736602460c4356004013560051b60c43501011161035457336000526000602052612ace60ff60076040600020015460081c16613ed0565b6001600160a01b03891633146132f157336000526001602052604060002060018060a01b038a1660005260205260ff60056040600020015460101c166132b457928a92612b6a612b76938b96612b4e60405197612b2a89613d29565b6000895260405199612b3b8b613cf2565b6001600160a01b03168a5236908c613dae565b6020890152612b5e368c8e613dae565b60408901523691613dae565b60608601523691613dae565b608083015287151560a0830152600160c0830152600160e0830152610100820152336000526001602052604060002060018060a01b03871660005260205260406000209060018060a01b038151166001600160601b0360a01b83541617825560208101518051906001600160401b038211611abe578190612c0782612bfe6001880154613df4565b60018801613e45565b602090601f831160011461324257600092613237575b50508160011b916000199060031b1c19161760018301555b60408101518051906001600160401b038211611abe578190612c6782612c5e6002880154613df4565b60028801613e45565b602090601f83116001146131c5576000926131ba575b50508160011b916000199060031b1c19161760028301555b60608101518051906001600160401b038211611abe578190612cc782612cbe6003880154613df4565b60038801613e45565b602090601f83116001146131485760009261313d575b50508160011b916000199060031b1c19161760038301555b60808101518051906001600160401b038211611abe57612d1c826119486004870154613df4565b602090601f83116001146130c957610100939291600091836130be575b50508160011b916000199060031b1c19161760048401555b60058301612d7160a08301511515829060ff801983541691151516179055565b60c0820151815461ff00191690151560081b61ff001617815560e0820151815462ff0000191690151560101b62ff00001617905501518051916001600160401b038311611abe57600160401b8311611abe5760066020910191612dd984845481865585613e8c565b0190600052602060002060005b8381106130aa5750505050336000526000602052612e0b856008604060002001613f41565b60005b60c435600401358110612e8357505091612e6891612e5a7fd39b94c4e0a6dc7134a60e93b1e6d3076988e71a9558afb69b3ecb6488db04dd95946040519860608a5260608a0191613eaf565b918783036020890152613eaf565b92151560408501526001600160a01b031692339281900390a3005b60248160051b60c4350101356000526002602052612eab60ff60056040600020015416613fa1565b60248160051b60c4350101356000526002602052612eda3360018060a01b036002604060002001541614613fe4565b612eef8660248360051b60c43501013561447f565b6130545780602461304f9260051b60c4350101356000526002602052612f1c876006604060002001613f41565b336000526001602052604060002060018060a01b038816600052602052612f5560248260051b60c4350101356006604060002001614022565b60248160051b60c435010135600052600260205261300e6040600020612fec600760028301549260ff60405194612f8b86613d0e565b60248860051b60c4350101358652612fa560018401614057565b60208701526001600160a01b038116604087015260a01c1615156060850152612fd060038201614057565b6080850152612fe160048201614057565b60a0850152016140fb565b60c08201526001600160a01b0389166000908152600560205260409020614166565b6001600160a01b03871660c435600583901b01602401357f072024bc1a3beff7df2fe575c8097c660ee4a4e15f263e037ed38560728681f1600080a3613f7c565b612e0e565b60405162461bcd60e51b815260206004820152602960248201527f436f6e7461637420616c726561647920617574686f72697a656420666f7220746044820152681a1a5cc81d985d5b1d60ba1b81840152608490fd5b600190602084519401938184015501612de6565b015190508c80612d39565b906004850160005260206000209160005b601f198516811061312557509183916001936101009695601f1981161061310c575b505050811b016004840155612d51565b015160001960f88460031b161c191690558c80806130fc565b919260206001819286850151815501940192016130da565b015190508b80612cdd565b9250600385016000526020600020906000935b601f198416851061319f576001945083601f19811610613186575b505050811b016003830155612cf5565b015160001960f88460031b161c191690558b8080613176565b8181015183556020948501946001909301929091019061315b565b015190508b80612c7d565b9250600285016000526020600020906000935b601f198416851061321c576001945083601f19811610613203575b505050811b016002830155612c95565b015160001960f88460031b161c191690558b80806131f3565b818101518355602094850194600190930192909101906131d8565b015190508b80612c1d565b9250600185016000526020600020906000935b601f1984168510613299576001945083601f19811610613280575b505050811b016001830155612c35565b015160001960f88460031b161c191690558b8080613270565b81810151835560209485019460019093019290910190613255565b60405162461bcd60e51b8152602060048201526016602482015275436f6e7461637420616c72656164792065786973747360501b60448201528590fd5b60405162461bcd60e51b815260206004820152601e60248201527f43616e6e6f742061646420796f757273656c6620617320636f6e74616374000060448201528590fd5b346103545760403660031901126103545761334e613af7565b613356613b0d565b9060018060a01b0380911660005260016020526040600020911660005260205261026f610d8460066040600020016140fb565b346103545760a0366003190112610354576004356001600160401b038111610354576133b9903690600401613aca565b906024356001600160401b038111610354576133d9903690600401613aca565b6044939193356001600160401b038111610354576133fb903690600401613aca565b956064356001600160401b0381116103545761341b903690600401613aca565b92909133600052600060205260ff60076040600020015460081c16613a8857506201518060843510613a43576301e13380608435116139fe576040519161346183613d29565b600083526040519361347285613d29565b60008552604051998a6101608101106001600160401b036101608d011117611abe576134dc936134d0918c60406134c68e6134b98f8f610160870186523387523691613dae565b60208501528c3691613dae565b9101523691613dae565b60608b01523691613dae565b60808801524260a088015260843560c0880152600060e08801526001610100880152610120870152610140860152336000526000602052604060002060018060a01b038651166001600160601b0360a01b82541617815560208601518051906001600160401b038211611abe57819061355c8261184e6001870154613df4565b602090601f831160011461398c57600092613981575b50508160011b916000199060031b1c19161760018201555b60408601518051906001600160401b038211611abe5781906135bc826135b36002870154613df4565b60028701613e45565b602090601f831160011461390f57600092613904575b50508160011b916000199060031b1c19161760028201555b60608601518051906001600160401b038211611abe578190613613826118e86003870154613df4565b602090601f831160011461389257600092613887575b50508160011b916000199060031b1c19161760038201555b60808601518051906001600160401b038211611abe57819061366a826119486004870154613df4565b602090601f83116001146138155760009261380a575b50508160011b916000199060031b1c19161760048201555b60a0860151600582015560c086015160068201556136eb600782016136cf60e08901511515829060ff801983541691151516179055565b610100880151815461ff00191690151560081b61ff0016179055565b6101208601519081516001600160401b038111611abe57600160401b92838211611abe576020600884019161372584845481865585613e8c565b0190600052602060002060005b8381106137ed5750505050600961014091019601518051916001600160401b038311611abe578211611abe57602090613770838954818b558a613e8c565b019560005260206000209560005b8281106137d957867f90fdcd9183750bdfb11be5d6379c04e744e8f650aac530ea853c19226ea7eb2b87876137d4886137c4604051948594604086526040860191613eaf565b9083820360208501523396613eaf565b0390a2005b60019060208351930192818a01550161377e565b82516001600160a01b031681830155602090920191600101613732565b015190508880613680565b9250600484016000526020600020906000935b601f198416851061386c576001945083601f19811610613853575b505050811b016004820155613698565b015160001960f88460031b161c19169055888080613843565b81810151835560209485019460019093019290910190613828565b015190508880613629565b9250600384016000526020600020906000935b601f19841685106138e9576001945083601f198116106138d0575b505050811b016003820155613641565b015160001960f88460031b161c191690558880806138c0565b818101518355602094850194600190930192909101906138a5565b0151905088806135d2565b9250600284016000526020600020906000935b601f1984168510613966576001945083601f1981161061394d575b505050811b0160028201556135ea565b015160001960f88460031b161c1916905588808061393d565b81810151835560209485019460019093019290910190613922565b015190508880613572565b9250600184016000526020600020906000935b601f19841685106139e3576001945083601f198116106139ca575b505050811b01600182015561358a565b015160001960f88460031b161c191690558880806139ba565b8181015183556020948501946001909301929091019061399f565b60405162461bcd60e51b815260206004820152601760248201527f477261636520696e74657276616c20746f6f206c6f6e670000000000000000006044820152606490fd5b60405162461bcd60e51b815260206004820152601860248201527f477261636520696e74657276616c20746f6f2073686f727400000000000000006044820152606490fd5b62461bcd60e51b815260206004820152601860248201527f4f776e657220616c7265616479207265676973746572656400000000000000006044820152606490fd5b9181601f84011215610354578235916001600160401b038311610354576020838186019501011161035457565b600435906001600160a01b038216820361035457565b602435906001600160a01b038216820361035457565b90815180825260208080930193019160005b828110613b43575050505090565b835185529381019392810192600101613b35565b919082519283825260005b848110613b83575050826000602080949584010152601f8019910116010190565b602081830181015184830182015201613b62565b908082519081815260208091019281808460051b8301019501936000915b848310613bc55750505050505090565b9091929394958480613be3600193601f198682030187528a51613b57565b9801930193019194939290613bb5565b90815180825260208080930193019160005b828110613c13575050505090565b83516001600160a01b031685529381019392810192600101613c05565b90815180825260208080930193019160005b828110613c50575050505090565b8351151585529381019392810192600101613c42565b908082519081815260208091019281808460051b830101950193600080925b858410613c96575050505050505090565b9091929380959697601f1983820301855288519082808351928381520192019085905b808210613cd9575050509080600192990194019401929594939190613c85565b9193806001929486518152019401920188939291613cb9565b61012081019081106001600160401b03821117611abe57604052565b60e081019081106001600160401b03821117611abe57604052565b602081019081106001600160401b03821117611abe57604052565b90601f801991011681019081106001600160401b03821117611abe57604052565b6001600160401b038111611abe5760051b60200190565b90613d8682613d65565b613d936040519182613d44565b8281528092613da4601f1991613d65565b0190602036910137565b9291926001600160401b038211611abe5760405191613dd7601f8201601f191660200184613d44565b829481845281830111610354578281602093846000960137010152565b90600182811c92168015613e24575b6020831014613e0e57565b634e487b7160e01b600052602260045260246000fd5b91607f1691613e03565b818110613e39575050565b60008155600101613e2e565b9190601f8111613e5457505050565b613e80926000526020600020906020601f840160051c83019310613e82575b601f0160051c0190613e2e565b565b9091508190613e73565b91818110613e9957505050565b613e809260005260206000209182019101613e2e565b908060209392818452848401376000828201840152601f01601f1916010190565b15613ed757565b60405162461bcd60e51b815260206004820152601460248201527313dddb995c881b9bdd081c9959da5cdd195c995960621b6044820152606490fd5b8054821015613f2b5760005260206000200190600090565b634e487b7160e01b600052603260045260246000fd5b8054600160401b811015611abe57613f5e91600182018155613f13565b819291549060031b9160018060a01b03809116831b921b1916179055565b6000198114613f8b5760010190565b634e487b7160e01b600052601160045260246000fd5b15613fa857565b60405162461bcd60e51b815260206004820152601460248201527315985d5b1d08191bd95cc81b9bdd08195e1a5cdd60621b6044820152606490fd5b15613feb57565b60405162461bcd60e51b815260206004820152600f60248201526e2737ba103b30bab63a1037bbb732b960891b6044820152606490fd5b8054600160401b811015611abe5761403f91600182018155613f13565b819291549060031b91821b91600019901b1916179055565b906040519182600082549261406b84613df4565b9081845260019485811690816000146140d85750600114614095575b5050613e8092500383613d44565b9093915060005260209081600020936000915b8183106140c0575050613e8093508201013880614087565b855488840185015294850194879450918301916140a8565b915050613e8094506020925060ff191682840152151560051b8201013880614087565b9060405191828154918282526020928383019160005283600020936000905b82821061413057505050613e8092500383613d44565b85548452600195860195889550938101939091019061411a565b8054821015613f2b576000526006602060002091020190600090565b90815490600160401b9182811015611abe5761418990600194858201815561414a565b614469578151815583810192602091828401519485516001600160401b0396878211611abe5781906141bf82611e5e8654613df4565b8690601f8311600114614406576000926143fb575b5050600019600383901b1c191690881b1790555b6040840151600282018054606087015160ff60a01b90151560a01b166001600160a01b039093166001600160a81b031990911617919091179055600381016080850151805190878211611abe57819061424582611e5e8654613df4565b8690601f83116001146143985760009261438d575b5050600019600383901b1c191690881b1790555b6004810160a0850151805190878211611abe5761428f826124238554613df4565b8590601f831160011461431f5791806005949260c09694600092614314575b5050600019600383901b1c1916908a1b1790555b01930151908151948511611abe578411611abe5781906142e785855481875586613e8c565b0191600052806000209060005b84811061430357505050505050565b8351838201559281019285016142f4565b0151905038806142ae565b899291601f1983169185600052886000209260005b8a8282106143775750509160c0979593918560059896941061435e575b505050811b0190556142c2565b015160001960f88460031b161c19169055388080614351565b8385015186558e97909501949384019301614334565b01519050388061425a565b908a9350601f1983169185600052886000209260005b8a8282106143e557505084116143cc575b505050811b01905561426e565b015160001960f88460031b161c191690553880806143bf565b8385015186558e979095019493840193016143ae565b0151905038806141d4565b908a9350601f1983169185600052886000209260005b8a828210614453575050841161443a575b505050811b0190556141e8565b015160001960f88460031b161c1916905538808061442d565b8385015186558e9790950194938401930161441c565b634e487b7160e01b600052600060045260246000fd5b60005260026020526040600020906006600092018054925b8381106144a75750505050600090565b6144b18183613f13565b905460039190911b1c6001600160a01b03908116908416146144db576144d690613f7c565b614497565b50505050600190565b156144eb57565b60405162461bcd60e51b815260206004820152601b60248201527f4e6f74206120636f6e74616374206f662074686973206f776e657200000000006044820152606490fd5b1561453757565b60405162461bcd60e51b815260206004820152601060248201526f4e6f20766f74696e672072696768747360801b6044820152606490fd5b1561457657565b60405162461bcd60e51b815260206004820152601660248201527513dddb995c88185b1c9958591e48191958d9585cd95960521b6044820152606490fd5b60018060a01b031660008181526004602052604080822060048101546032810290808204603214901517156146e35760649004600181018091116146e3576002820154811161468e57506005810161010061ff001982541617905560078101600160ff19825416179055601e42019283421161467a5750916020918160067f2bb92f1150248e7f78a267b3904ebd95f62a5225d70dcc813fb6906c3a646e98950155846000805160206147b6833981519152828051600181524287820152a251908152a2565b634e487b7160e01b81526011600452602490fd5b6003829492015410156146a2575b50505050565b60078360056000805160206147b6833981519152950161010061ffff198254161790550160ff1981541690558151908152426020820152a23880808061469c565b634e487b7160e01b84526011600452602484fd5b9060405191828154918282526020928383019160005283600020936000905b82821061472c57505050613e8092500383613d44565b85546001600160a01b031684526001958601958895509381019390910190614716565b60005b82811061475e57505050565b606082820152602001614752565b90613e8061477983613d65565b6147866040519182613d44565b83815260208194614799601f1991613d65565b01910161474f565b8051821015613f2b5760209160051b01019056feac892f9ea2bac4d143f762134b209de57efb94b00c56302aaed590951368eaaca2646970667358221220fd5da6277b233e23e857cdf2ab688248afa6824eec756e11149fba6176d33e3d64736f6c63430008130033","opcodes":"PUSH1 0x80 DUP1 PUSH1 0x40 MSTORE CALLVALUE PUSH2 0x20 JUMPI PUSH1 0x0 PUSH1 0x6 SSTORE PUSH1 0x0 PUSH1 0x7 SSTORE PUSH2 0x480B SWAP1 DUP2 PUSH2 0x26 DUP3 CODECOPY RETURN JUMPDEST PUSH1 0x0 DUP1 REVERT INVALID PUSH1 0x80 DUP1 PUSH1 0x40 MSTORE PUSH1 0x4 CALLDATASIZE LT ISZERO PUSH2 0x13 JUMPI PUSH1 0x0 DUP1 REVERT JUMPDEST PUSH1 0x0 CALLDATALOAD PUSH1 0xE0 SHR SWAP1 DUP2 PUSH4 0xACCC75D EQ PUSH2 0x3389 JUMPI POP DUP1 PUSH4 0x1D2F4368 EQ PUSH2 0x3335 JUMPI DUP1 PUSH4 0x1FE7FE7E EQ PUSH2 0x29BD JUMPI DUP1 PUSH4 0x20261995 EQ PUSH2 0x26FA JUMPI DUP1 PUSH4 0x2438F654 EQ PUSH2 0x267D JUMPI DUP1 PUSH4 0x2C8BC50B EQ PUSH2 0x229A JUMPI DUP1 PUSH4 0x2FDA53E7 EQ PUSH2 0x225D JUMPI DUP1 PUSH4 0x329A5AC0 EQ PUSH2 0x1CA4 JUMPI DUP1 PUSH4 0x33587DC4 EQ PUSH2 0x16E2 JUMPI DUP1 PUSH4 0x34F167A9 EQ PUSH2 0x15A2 JUMPI DUP1 PUSH4 0x3BFB14F5 EQ PUSH2 0x14E9 JUMPI DUP1 PUSH4 0x490F0EBA EQ PUSH2 0x14BA JUMPI DUP1 PUSH4 0x4D4D2B1C EQ PUSH2 0x1461 JUMPI DUP1 PUSH4 0x4E8E32B5 EQ PUSH2 0x1282 JUMPI DUP1 PUSH4 0x52E20C4F EQ PUSH2 0x1252 JUMPI DUP1 PUSH4 0x5AB4F162 EQ PUSH2 0x119A JUMPI DUP1 PUSH4 0x60F490F7 EQ PUSH2 0x10A0 JUMPI DUP1 PUSH4 0x6880F137 EQ PUSH2 0xFA4 JUMPI DUP1 PUSH4 0x7366252C EQ PUSH2 0xD98 JUMPI DUP1 PUSH4 0x75843618 EQ PUSH2 0xD55 JUMPI DUP1 PUSH4 0x8B771CC7 EQ PUSH2 0xC20 JUMPI DUP1 PUSH4 0x996E6CA1 EQ PUSH2 0xB7D JUMPI DUP1 PUSH4 0xABC22BBE EQ PUSH2 0x8B4 JUMPI DUP1 PUSH4 0xB1BA9620 EQ PUSH2 0x7B7 JUMPI DUP1 PUSH4 0xB2B2BAED EQ PUSH2 0x615 JUMPI DUP1 PUSH4 0xB385FAA8 EQ PUSH2 0x5C4 JUMPI DUP1 PUSH4 0xCEB15920 EQ PUSH2 0x3FE JUMPI DUP1 PUSH4 0xD385DE82 EQ PUSH2 0x359 JUMPI PUSH4 0xD72D3E16 EQ PUSH2 0x15E JUMPI PUSH1 0x0 DUP1 REVERT JUMPDEST CALLVALUE PUSH2 0x354 JUMPI PUSH1 0x20 CALLDATASIZE PUSH1 0x3 NOT ADD SLT PUSH2 0x354 JUMPI PUSH1 0x1 PUSH1 0x1 PUSH1 0xA0 SHL SUB PUSH2 0x17F PUSH2 0x3AF7 JUMP JUMPDEST AND DUP1 PUSH1 0x0 MSTORE PUSH1 0x0 PUSH1 0x20 MSTORE PUSH2 0x199 PUSH1 0x8 PUSH1 0x40 PUSH1 0x0 KECCAK256 ADD PUSH2 0x46F7 JUMP JUMPDEST DUP1 MLOAD SWAP2 PUSH2 0x1A5 DUP4 PUSH2 0x3D7C JUMP JUMPDEST SWAP3 PUSH2 0x1AF DUP2 PUSH2 0x476C JUMP JUMPDEST PUSH2 0x1B8 DUP3 PUSH2 0x476C JUMP JUMPDEST PUSH2 0x1C1 DUP4 PUSH2 0x476C JUMP JUMPDEST SWAP2 PUSH2 0x1CB DUP5 PUSH2 0x476C JUMP JUMPDEST SWAP4 PUSH2 0x1D5 DUP2 PUSH2 0x3D7C JUMP JUMPDEST SWAP6 PUSH2 0x1DF DUP3 PUSH2 0x3D7C JUMP JUMPDEST SWAP8 PUSH1 0x0 JUMPDEST DUP11 DUP5 DUP3 LT PUSH2 0x273 JUMPI PUSH1 0xE0 PUSH2 0x26F DUP13 PUSH2 0x261 DUP14 PUSH2 0x253 DUP15 PUSH2 0x245 DUP16 DUP16 DUP16 SWAP1 PUSH2 0x229 PUSH2 0x237 SWAP3 PUSH2 0x21B PUSH1 0x40 MLOAD SWAP15 DUP16 SWAP15 DUP16 DUP2 DUP2 MSTORE ADD SWAP1 PUSH2 0x3BF3 JUMP JUMPDEST DUP14 DUP2 SUB PUSH1 0x20 DUP16 ADD MSTORE SWAP1 PUSH2 0x3B97 JUMP JUMPDEST SWAP1 DUP12 DUP3 SUB PUSH1 0x40 DUP14 ADD MSTORE PUSH2 0x3B97 JUMP JUMPDEST SWAP1 DUP10 DUP3 SUB PUSH1 0x60 DUP12 ADD MSTORE PUSH2 0x3B97 JUMP JUMPDEST SWAP1 DUP8 DUP3 SUB PUSH1 0x80 DUP10 ADD MSTORE PUSH2 0x3B97 JUMP JUMPDEST SWAP1 DUP6 DUP3 SUB PUSH1 0xA0 DUP8 ADD MSTORE PUSH2 0x3C30 JUMP JUMPDEST SWAP1 DUP4 DUP3 SUB PUSH1 0xC0 DUP6 ADD MSTORE PUSH2 0x3C30 JUMP JUMPDEST SUB SWAP1 RETURN JUMPDEST SWAP1 DUP10 DUP12 PUSH2 0x341 DUP4 PUSH2 0x331 DUP2 PUSH1 0x5 DUP16 SWAP9 DUP16 DUP16 DUP16 SWAP12 PUSH2 0x31B DUP16 DUP16 SWAP5 PUSH2 0x34F SWAP16 DUP10 DUP1 SWAP7 PUSH2 0x301 DUP3 PUSH2 0x30E SWAP5 PUSH2 0x2F1 DUP3 SWAP9 PUSH2 0x328 SWAP14 PUSH2 0x2B5 DUP6 PUSH1 0x1 DUP1 PUSH1 0xA0 SHL SUB SWAP3 PUSH2 0x47A1 JUMP JUMPDEST MLOAD AND SWAP1 PUSH1 0x0 MSTORE PUSH1 0x1 SWAP1 DUP2 PUSH1 0x20 MSTORE PUSH1 0x40 PUSH1 0x0 KECCAK256 SWAP1 PUSH1 0x0 MSTORE PUSH1 0x20 MSTORE PUSH1 0x40 PUSH1 0x0 KECCAK256 SWAP15 DUP16 SWAP1 PUSH2 0x2EA DUP7 PUSH1 0x1 DUP1 PUSH1 0xA0 SHL SUB DUP5 SLOAD AND SWAP3 PUSH2 0x47A1 JUMP JUMPDEST MSTORE ADD PUSH2 0x4057 JUMP JUMPDEST PUSH2 0x2FB DUP4 DUP4 PUSH2 0x47A1 JUMP JUMPDEST MSTORE PUSH2 0x47A1 JUMP JUMPDEST POP PUSH2 0x2F1 PUSH1 0x2 DUP12 ADD PUSH2 0x4057 JUMP JUMPDEST POP PUSH2 0x2F1 PUSH1 0x3 DUP9 ADD PUSH2 0x4057 JUMP JUMPDEST POP PUSH2 0x2F1 PUSH1 0x4 DUP6 ADD PUSH2 0x4057 JUMP JUMPDEST POP ADD SLOAD SWAP6 PUSH2 0x47A1 JUMP JUMPDEST SWAP3 PUSH1 0xFF SWAP4 DUP5 DUP7 AND ISZERO ISZERO SWAP1 MSTORE PUSH2 0x47A1 JUMP JUMPDEST SWAP2 PUSH1 0x8 SHR AND ISZERO ISZERO SWAP1 MSTORE PUSH2 0x3F7C JUMP JUMPDEST PUSH2 0x1E3 JUMP JUMPDEST PUSH1 0x0 DUP1 REVERT JUMPDEST CALLVALUE PUSH2 0x354 JUMPI PUSH1 0x20 CALLDATASIZE PUSH1 0x3 NOT ADD SLT PUSH2 0x354 JUMPI PUSH1 0x1 PUSH1 0x1 PUSH1 0xA0 SHL SUB PUSH2 0x37A PUSH2 0x3AF7 JUMP JUMPDEST AND PUSH1 0x0 MSTORE PUSH1 0x0 PUSH1 0x20 MSTORE PUSH2 0x3CC PUSH1 0x40 PUSH1 0x0 KECCAK256 PUSH1 0x5 DUP2 ADD SLOAD PUSH1 0xFF PUSH1 0x6 DUP4 ADD SLOAD PUSH1 0x7 DUP5 ADD SLOAD SWAP1 PUSH2 0x3DA PUSH2 0x3B8 PUSH1 0x2 PUSH2 0x3B1 PUSH1 0x1 DUP10 ADD PUSH2 0x4057 JUMP JUMPDEST SWAP8 ADD PUSH2 0x4057 JUMP JUMPDEST PUSH1 0x40 MLOAD SWAP8 DUP9 SWAP8 PUSH1 0xC0 DUP10 MSTORE PUSH1 0xC0 DUP10 ADD SWAP1 PUSH2 0x3B57 JUMP JUMPDEST SWAP1 DUP8 DUP3 SUB PUSH1 0x20 DUP10 ADD MSTORE PUSH2 0x3B57 JUMP JUMPDEST SWAP4 PUSH1 0x40 DUP7 ADD MSTORE PUSH1 0x60 DUP6 ADD MSTORE DUP2 DUP2 AND ISZERO ISZERO PUSH1 0x80 DUP6 ADD MSTORE PUSH1 0x8 SHR AND ISZERO ISZERO PUSH1 0xA0 DUP4 ADD MSTORE SUB SWAP1 RETURN JUMPDEST CALLVALUE PUSH2 0x354 JUMPI PUSH1 0x20 CALLDATASIZE PUSH1 0x3 NOT ADD SLT PUSH2 0x354 JUMPI PUSH1 0x1 PUSH1 0x1 PUSH1 0xA0 SHL SUB PUSH2 0x41F PUSH2 0x3AF7 JUMP JUMPDEST AND PUSH1 0x0 MSTORE PUSH1 0x5 PUSH1 0x20 MSTORE PUSH1 0x40 PUSH1 0x0 KECCAK256 DUP1 SLOAD SWAP1 PUSH2 0x439 DUP3 PUSH2 0x3D7C JUMP JUMPDEST SWAP2 PUSH2 0x443 DUP2 PUSH2 0x476C JUMP JUMPDEST PUSH2 0x44C DUP3 PUSH2 0x3D7C JUMP JUMPDEST PUSH2 0x455 DUP4 PUSH2 0x3D7C JUMP JUMPDEST SWAP1 PUSH2 0x45F DUP5 PUSH2 0x476C JUMP JUMPDEST SWAP3 PUSH2 0x469 DUP6 PUSH2 0x476C JUMP JUMPDEST SWAP5 PUSH2 0x473 DUP2 PUSH2 0x476C JUMP JUMPDEST SWAP7 PUSH1 0x0 JUMPDEST DUP3 DUP2 LT PUSH2 0x4E6 JUMPI POP DUP9 PUSH1 0xE0 PUSH2 0x26F DUP11 PUSH2 0x4D8 DUP12 PUSH2 0x4CA DUP13 PUSH2 0x245 DUP14 PUSH2 0x4BC DUP15 PUSH2 0x4AE DUP16 PUSH2 0x21B PUSH1 0x40 MLOAD SWAP15 DUP16 SWAP15 DUP16 DUP2 DUP2 MSTORE ADD SWAP1 PUSH2 0x3B23 JUMP JUMPDEST SWAP1 DUP12 DUP3 SUB PUSH1 0x40 DUP14 ADD MSTORE PUSH2 0x3BF3 JUMP JUMPDEST SWAP1 DUP10 DUP3 SUB PUSH1 0x60 DUP12 ADD MSTORE PUSH2 0x3C30 JUMP JUMPDEST SWAP1 DUP6 DUP3 SUB PUSH1 0xA0 DUP8 ADD MSTORE PUSH2 0x3B97 JUMP JUMPDEST SWAP1 DUP4 DUP3 SUB PUSH1 0xC0 DUP6 ADD MSTORE PUSH2 0x3C66 JUMP JUMPDEST DUP1 PUSH2 0x5A4 PUSH1 0x5 PUSH2 0x4F9 PUSH2 0x5BF SWAP5 DUP7 PUSH2 0x414A JUMP JUMPDEST POP DUP14 PUSH2 0x507 DUP6 DUP4 SLOAD SWAP3 PUSH2 0x47A1 JUMP JUMPDEST MSTORE PUSH2 0x514 PUSH1 0x1 DUP3 ADD PUSH2 0x4057 JUMP JUMPDEST PUSH2 0x51E DUP6 DUP11 PUSH2 0x47A1 JUMP JUMPDEST MSTORE PUSH2 0x529 DUP5 DUP10 PUSH2 0x47A1 JUMP JUMPDEST POP PUSH1 0x2 DUP2 ADD SLOAD PUSH1 0x1 PUSH1 0x1 PUSH1 0xA0 SHL SUB DUP2 AND PUSH2 0x543 DUP7 DUP13 PUSH2 0x47A1 JUMP JUMPDEST MSTORE PUSH1 0xFF PUSH2 0x550 DUP7 DUP14 PUSH2 0x47A1 JUMP JUMPDEST SWAP2 PUSH1 0xA0 SHR AND ISZERO ISZERO SWAP1 MSTORE PUSH2 0x565 PUSH1 0x3 DUP3 ADD PUSH2 0x4057 JUMP JUMPDEST PUSH2 0x56F DUP6 DUP14 PUSH2 0x47A1 JUMP JUMPDEST MSTORE PUSH2 0x57A DUP5 DUP13 PUSH2 0x47A1 JUMP JUMPDEST POP DUP12 PUSH2 0x592 DUP6 PUSH2 0x58C PUSH1 0x4 DUP6 ADD PUSH2 0x4057 JUMP JUMPDEST SWAP3 PUSH2 0x47A1 JUMP JUMPDEST MSTORE PUSH2 0x59D DUP5 DUP14 PUSH2 0x47A1 JUMP JUMPDEST POP ADD PUSH2 0x40FB JUMP JUMPDEST PUSH2 0x5AE DUP3 DUP13 PUSH2 0x47A1 JUMP JUMPDEST MSTORE PUSH2 0x5B9 DUP2 DUP12 PUSH2 0x47A1 JUMP JUMPDEST POP PUSH2 0x3F7C JUMP JUMPDEST PUSH2 0x477 JUMP JUMPDEST CALLVALUE PUSH2 0x354 JUMPI PUSH1 0x20 CALLDATASIZE PUSH1 0x3 NOT ADD SLT PUSH2 0x354 JUMPI PUSH1 0x1 PUSH1 0x1 PUSH1 0xA0 SHL SUB PUSH2 0x5E5 PUSH2 0x3AF7 JUMP JUMPDEST AND PUSH1 0x0 MSTORE PUSH1 0x0 PUSH1 0x20 MSTORE PUSH2 0x26F PUSH2 0x601 PUSH1 0x8 PUSH1 0x40 PUSH1 0x0 KECCAK256 ADD PUSH2 0x46F7 JUMP JUMPDEST PUSH1 0x40 MLOAD SWAP2 DUP3 SWAP2 PUSH1 0x20 DUP4 MSTORE PUSH1 0x20 DUP4 ADD SWAP1 PUSH2 0x3BF3 JUMP JUMPDEST CALLVALUE PUSH2 0x354 JUMPI PUSH1 0x20 DUP1 PUSH1 0x3 NOT CALLDATASIZE ADD SLT PUSH2 0x354 JUMPI PUSH1 0x4 CALLDATALOAD SWAP1 DUP2 PUSH1 0x0 MSTORE PUSH1 0x2 DUP1 DUP3 MSTORE PUSH2 0x648 PUSH1 0xFF PUSH1 0x5 PUSH1 0x40 PUSH1 0x0 KECCAK256 ADD SLOAD AND PUSH2 0x3FA1 JUMP JUMPDEST PUSH1 0x0 DUP4 DUP2 MSTORE DUP2 DUP4 MSTORE PUSH1 0x40 SWAP1 KECCAK256 DUP2 ADD SLOAD PUSH1 0x1 PUSH1 0x1 PUSH1 0xA0 SHL SUB SWAP3 SWAP1 DUP4 AND CALLER EQ DUP1 ISZERO PUSH2 0x7A7 JUMPI JUMPDEST ISZERO PUSH2 0x772 JUMPI DUP4 PUSH1 0x0 MSTORE DUP2 DUP2 MSTORE PUSH1 0xFF DUP3 PUSH1 0x40 PUSH1 0x0 KECCAK256 ADD SLOAD PUSH1 0xA0 SHR AND PUSH2 0x735 JUMPI DUP4 PUSH1 0x0 MSTORE DUP2 DUP2 MSTORE DUP3 DUP3 PUSH1 0x40 PUSH1 0x0 KECCAK256 ADD SLOAD AND PUSH1 0x0 MSTORE PUSH1 0x0 DUP2 MSTORE PUSH1 0xFF PUSH1 0x7 PUSH1 0x40 PUSH1 0x0 KECCAK256 ADD SLOAD AND ISZERO PUSH2 0x6FC JUMPI DUP2 SWAP1 DUP5 PUSH1 0x0 MSTORE MSTORE PUSH1 0x40 PUSH1 0x0 KECCAK256 ADD DUP1 SLOAD SWAP1 PUSH1 0x1 PUSH1 0xA0 SHL PUSH1 0xFF PUSH1 0xA0 SHL NOT DUP4 AND OR SWAP1 SSTORE AND SWAP1 PUSH32 0xA18F1AC3D4C6B800447518126C2FC0D98210A7078080B093679E972D1F8500B9 PUSH1 0x0 DUP1 LOG3 STOP JUMPDEST PUSH1 0x64 SWAP1 PUSH1 0x40 MLOAD SWAP1 PUSH3 0x461BCD PUSH1 0xE5 SHL DUP3 MSTORE PUSH1 0x4 DUP3 ADD MSTORE PUSH1 0x12 PUSH1 0x24 DUP3 ADD MSTORE PUSH18 0x13DDDB995C881B9BDD08191958D9585CD959 PUSH1 0x72 SHL PUSH1 0x44 DUP3 ADD MSTORE REVERT JUMPDEST PUSH1 0x64 SWAP1 PUSH1 0x40 MLOAD SWAP1 PUSH3 0x461BCD PUSH1 0xE5 SHL DUP3 MSTORE PUSH1 0x4 DUP3 ADD MSTORE PUSH1 0x16 PUSH1 0x24 DUP3 ADD MSTORE PUSH22 0x15985D5B1D08185B1C9958591E481C995B19585CD959 PUSH1 0x52 SHL PUSH1 0x44 DUP3 ADD MSTORE REVERT JUMPDEST PUSH1 0x64 SWAP1 PUSH1 0x40 MLOAD SWAP1 PUSH3 0x461BCD PUSH1 0xE5 SHL DUP3 MSTORE PUSH1 0x4 DUP3 ADD MSTORE PUSH1 0xE PUSH1 0x24 DUP3 ADD MSTORE PUSH14 0x139BDD08185D5D1A1BDC9A5E9959 PUSH1 0x92 SHL PUSH1 0x44 DUP3 ADD MSTORE REVERT JUMPDEST POP PUSH2 0x7B2 CALLER DUP6 PUSH2 0x447F JUMP JUMPDEST PUSH2 0x66C JUMP JUMPDEST CALLVALUE PUSH2 0x354 JUMPI PUSH1 0x20 CALLDATASIZE PUSH1 0x3 NOT ADD SLT PUSH2 0x354 JUMPI PUSH1 0x4 CALLDATALOAD PUSH1 0x0 MSTORE PUSH1 0x2 PUSH1 0x20 MSTORE PUSH1 0x40 PUSH1 0x0 KECCAK256 DUP1 SLOAD PUSH1 0x2 DUP3 ADD SLOAD PUSH2 0x8A7 PUSH1 0xFF PUSH1 0x5 DUP6 ADD SLOAD AND SWAP2 PUSH2 0x899 PUSH2 0x7FA PUSH1 0x1 DUP8 ADD PUSH2 0x4057 JUMP JUMPDEST SWAP6 PUSH2 0x88B PUSH2 0x80A PUSH1 0x3 DUP4 ADD PUSH2 0x4057 JUMP JUMPDEST SWAP4 PUSH2 0x87D PUSH2 0x81A PUSH1 0x4 DUP6 ADD PUSH2 0x4057 JUMP JUMPDEST SWAP2 PUSH2 0x833 PUSH1 0x6 PUSH2 0x82C PUSH1 0x7 DUP9 ADD PUSH2 0x40FB JUMP JUMPDEST SWAP7 ADD PUSH2 0x46F7 JUMP JUMPDEST SWAP7 PUSH1 0xFF PUSH2 0x853 PUSH1 0x40 MLOAD SWAP14 DUP15 SWAP14 DUP15 MSTORE DUP14 PUSH2 0x120 SWAP1 DUP2 PUSH1 0x20 DUP3 ADD MSTORE ADD SWAP1 PUSH2 0x3B57 JUMP JUMPDEST PUSH1 0x1 PUSH1 0x1 PUSH1 0xA0 SHL SUB DUP5 AND PUSH1 0x40 DUP15 ADD MSTORE PUSH1 0xA0 SWAP4 SWAP1 SWAP4 SHR AND ISZERO ISZERO PUSH1 0x60 DUP13 ADD MSTORE DUP11 DUP3 SUB PUSH1 0x80 DUP13 ADD MSTORE PUSH2 0x3B57 JUMP JUMPDEST SWAP1 DUP9 DUP3 SUB PUSH1 0xA0 DUP11 ADD MSTORE PUSH2 0x3B57 JUMP JUMPDEST SWAP1 DUP7 DUP3 SUB PUSH1 0xC0 DUP9 ADD MSTORE PUSH2 0x3B23 JUMP JUMPDEST SWAP1 DUP5 DUP3 SUB PUSH1 0xE0 DUP7 ADD MSTORE PUSH2 0x3BF3 JUMP JUMPDEST SWAP1 ISZERO ISZERO PUSH2 0x100 DUP4 ADD MSTORE SUB SWAP1 RETURN JUMPDEST CALLVALUE PUSH2 0x354 JUMPI PUSH1 0x20 DUP1 PUSH1 0x3 NOT CALLDATASIZE ADD SLT PUSH2 0x354 JUMPI PUSH2 0x8CE PUSH2 0x3AF7 JUMP JUMPDEST PUSH1 0x1 DUP1 PUSH1 0xA0 SHL SUB DUP1 DUP3 AND DUP1 PUSH1 0x0 MSTORE PUSH1 0x1 SWAP2 DUP3 DUP6 MSTORE PUSH1 0x40 PUSH1 0x0 KECCAK256 CALLER PUSH1 0x0 MSTORE DUP6 MSTORE PUSH1 0xFF SWAP1 PUSH1 0x5 PUSH2 0x907 DUP4 DUP3 PUSH1 0x40 PUSH1 0x0 KECCAK256 ADD SLOAD PUSH1 0x10 SHR AND PUSH2 0x44E4 JUMP JUMPDEST DUP4 PUSH1 0x0 MSTORE DUP5 DUP8 MSTORE PUSH1 0x40 PUSH1 0x0 KECCAK256 CALLER PUSH1 0x0 MSTORE DUP8 MSTORE PUSH2 0x92B DUP4 DUP3 PUSH1 0x40 PUSH1 0x0 KECCAK256 ADD SLOAD AND PUSH2 0x4530 JUMP JUMPDEST DUP4 PUSH1 0x0 MSTORE PUSH1 0x0 DUP8 MSTORE PUSH1 0x7 PUSH1 0x40 PUSH1 0x0 KECCAK256 ADD SLOAD SWAP3 PUSH2 0x94C DUP2 PUSH1 0x8 SWAP6 DUP7 SHR AND PUSH2 0x3ED0 JUMP JUMPDEST DUP5 PUSH1 0x0 MSTORE PUSH1 0x0 DUP9 MSTORE PUSH2 0x968 DUP2 PUSH1 0x7 PUSH1 0x40 PUSH1 0x0 KECCAK256 ADD SLOAD AND ISZERO PUSH2 0x456F JUMP JUMPDEST DUP5 PUSH1 0x0 MSTORE PUSH1 0x4 DUP9 MSTORE DUP1 DUP3 PUSH1 0x40 PUSH1 0x0 KECCAK256 ADD SLOAD AND PUSH2 0xB3A JUMPI DUP6 SWAP1 PUSH1 0x0 SWAP4 DUP3 PUSH1 0x0 SWAP1 JUMPDEST PUSH2 0xAC1 JUMPI JUMPDEST POP POP POP POP DUP2 ISZERO PUSH2 0xA7C JUMPI SWAP2 PUSH1 0x9 PUSH2 0xA7A SWAP8 SWAP3 PUSH32 0xCC194F214DF029FE546C9959EE15D79D8633742AAB6C02A862E337F8ACE3D550 SWAP5 DUP7 PUSH1 0x0 MSTORE PUSH1 0x4 DUP6 MSTORE PUSH1 0x40 PUSH1 0x0 KECCAK256 SWAP2 CALLER PUSH1 0x1 PUSH1 0x1 PUSH1 0x60 SHL SUB PUSH1 0xA0 SHL DUP5 SLOAD AND OR DUP4 SSTORE TIMESTAMP DUP10 DUP5 ADD SSTORE DUP9 PUSH1 0x2 DUP5 ADD SSTORE PUSH1 0x0 PUSH1 0x3 DUP5 ADD SSTORE PUSH1 0x4 DUP4 ADD SSTORE DUP2 ADD DUP8 PUSH2 0xFFFF NOT DUP3 SLOAD AND OR SWAP1 SSTORE PUSH1 0x7 DUP2 ADD SWAP3 PUSH1 0xFF NOT SWAP4 DUP5 DUP2 SLOAD AND SWAP1 SSTORE PUSH1 0x0 PUSH1 0x6 DUP4 ADD SSTORE CALLER PUSH1 0x0 MSTORE DUP2 ADD DUP5 MSTORE PUSH1 0x40 PUSH1 0x0 KECCAK256 DUP8 DUP5 DUP3 SLOAD AND OR SWAP1 SSTORE ADD DUP3 MSTORE DUP5 PUSH1 0x40 PUSH1 0x0 KECCAK256 SWAP2 DUP3 SLOAD AND OR SWAP1 SSTORE PUSH1 0x40 MLOAD TIMESTAMP DUP2 MSTORE DUP4 PUSH32 0xD1FFE6C6EEC884AE3341F8304738B02340905DFD25B73DF1802E7F95C9B9FBEC DUP4 CALLER SWAP4 LOG3 PUSH1 0x40 MLOAD SWAP4 DUP5 MSTORE CALLER SWAP4 LOG3 PUSH2 0x45B4 JUMP JUMPDEST STOP JUMPDEST PUSH1 0x40 MLOAD PUSH3 0x461BCD PUSH1 0xE5 SHL DUP2 MSTORE PUSH1 0x4 DUP2 ADD DUP9 SWAP1 MSTORE PUSH1 0x1C PUSH1 0x24 DUP3 ADD MSTORE PUSH32 0x4E6F20766F74696E6720636F6E746163747320617661696C61626C6500000000 PUSH1 0x44 DUP3 ADD MSTORE PUSH1 0x64 SWAP1 REVERT JUMPDEST DUP8 PUSH1 0x0 MSTORE PUSH1 0x0 DUP12 MSTORE DUP11 DUP8 PUSH1 0x40 PUSH1 0x0 KECCAK256 ADD DUP1 SLOAD DUP4 LT ISZERO PUSH2 0xB33 JUMPI DUP6 SWAP2 PUSH2 0xAE7 DUP5 DUP7 SWAP4 PUSH2 0x3F13 JUMP JUMPDEST SWAP4 SWAP1 SLOAD SWAP2 DUP13 PUSH1 0x0 MSTORE MSTORE PUSH1 0x40 PUSH1 0x0 KECCAK256 SWAP3 PUSH1 0x3 SHL SHR AND PUSH1 0x0 MSTORE DUP12 MSTORE DUP3 DUP6 PUSH1 0x40 PUSH1 0x0 KECCAK256 ADD SLOAD AND PUSH2 0xB1E JUMPI JUMPDEST PUSH2 0xB18 SWAP1 PUSH2 0x3F7C JUMP JUMPDEST DUP4 PUSH2 0x988 JUMP JUMPDEST SWAP5 PUSH2 0xB2B PUSH2 0xB18 SWAP2 PUSH2 0x3F7C JUMP JUMPDEST SWAP6 SWAP1 POP PUSH2 0xB0F JUMP JUMPDEST POP POP PUSH2 0x98D JUMP JUMPDEST PUSH1 0x64 DUP9 PUSH1 0x40 MLOAD SWAP1 PUSH3 0x461BCD PUSH1 0xE5 SHL DUP3 MSTORE DUP1 PUSH1 0x4 DUP4 ADD MSTORE PUSH1 0x24 DUP3 ADD MSTORE PUSH32 0x4465617468206465636C61726174696F6E20616C726561647920616374697665 PUSH1 0x44 DUP3 ADD MSTORE REVERT JUMPDEST CALLVALUE PUSH2 0x354 JUMPI PUSH1 0x20 CALLDATASIZE PUSH1 0x3 NOT ADD SLT PUSH2 0x354 JUMPI PUSH1 0x1 PUSH1 0x1 PUSH1 0xA0 SHL SUB PUSH2 0xB9E PUSH2 0x3AF7 JUMP JUMPDEST AND PUSH1 0x0 MSTORE PUSH1 0x4 PUSH1 0x20 MSTORE PUSH2 0x100 PUSH1 0x40 PUSH1 0x0 KECCAK256 PUSH1 0x5 DUP2 ADD SLOAD PUSH1 0x0 PUSH1 0x20 MSTORE PUSH1 0xFF PUSH1 0x7 PUSH1 0x40 PUSH1 0x0 KECCAK256 ADD SLOAD AND SWAP2 PUSH1 0xFF PUSH1 0x2 DUP3 ADD SLOAD SWAP3 PUSH1 0x3 DUP4 ADD SLOAD PUSH1 0x4 DUP5 ADD SLOAD SWAP1 PUSH1 0x6 DUP5 PUSH1 0x7 DUP8 ADD SLOAD AND SWAP6 ADD SLOAD SWAP6 PUSH1 0x40 MLOAD SWAP8 DUP6 DUP6 AND ISZERO ISZERO DUP10 MSTORE ISZERO ISZERO PUSH1 0x20 DUP10 ADD MSTORE PUSH1 0x40 DUP9 ADD MSTORE PUSH1 0x60 DUP8 ADD MSTORE PUSH1 0x80 DUP7 ADD MSTORE PUSH1 0x8 SHR AND ISZERO ISZERO PUSH1 0xA0 DUP5 ADD MSTORE ISZERO ISZERO PUSH1 0xC0 DUP4 ADD MSTORE PUSH1 0xE0 DUP3 ADD MSTORE RETURN JUMPDEST CALLVALUE PUSH2 0x354 JUMPI PUSH1 0x20 DUP1 PUSH1 0x3 NOT CALLDATASIZE ADD SLT PUSH2 0x354 JUMPI PUSH1 0x1 PUSH1 0x1 PUSH1 0xA0 SHL SUB PUSH2 0xC42 PUSH2 0x3AF7 JUMP JUMPDEST AND SWAP1 DUP2 PUSH1 0x0 MSTORE PUSH1 0x4 DUP2 MSTORE PUSH1 0x40 PUSH1 0x0 KECCAK256 PUSH1 0x7 DUP2 ADD SWAP1 PUSH1 0xFF DUP3 SLOAD AND ISZERO PUSH2 0xD1A JUMPI PUSH1 0x6 DUP2 ADD SLOAD TIMESTAMP LT PUSH2 0xCD5 JUMPI SWAP2 PUSH1 0x40 SWAP2 PUSH1 0x0 DUP1 MLOAD PUSH1 0x20 PUSH2 0x47B6 DUP4 CODECOPY DUP2 MLOAD SWAP2 MSTORE SWAP4 DUP6 PUSH1 0x0 MSTORE PUSH1 0x0 DUP4 MSTORE PUSH2 0xC9B PUSH1 0xFF PUSH1 0x7 DUP7 PUSH1 0x0 KECCAK256 ADD SLOAD AND ISZERO PUSH2 0x456F JUMP JUMPDEST DUP6 PUSH1 0x0 MSTORE PUSH1 0x0 DUP4 MSTORE PUSH1 0x5 PUSH1 0x7 DUP6 PUSH1 0x0 KECCAK256 ADD SWAP2 PUSH1 0xFF NOT SWAP3 PUSH1 0x1 DUP5 DUP3 SLOAD AND OR SWAP1 SSTORE ADD DUP2 DUP2 SLOAD AND SWAP1 SSTORE DUP2 SLOAD AND SWAP1 SSTORE DUP2 MLOAD SWAP1 PUSH1 0x1 DUP3 MSTORE TIMESTAMP SWAP1 DUP3 ADD MSTORE LOG2 STOP JUMPDEST PUSH1 0x40 MLOAD PUSH3 0x461BCD PUSH1 0xE5 SHL DUP2 MSTORE PUSH1 0x4 DUP2 ADD DUP5 SWAP1 MSTORE PUSH1 0x1C PUSH1 0x24 DUP3 ADD MSTORE PUSH32 0x477261636520706572696F64206E6F7420796574206578706972656400000000 PUSH1 0x44 DUP3 ADD MSTORE PUSH1 0x64 SWAP1 REVERT JUMPDEST PUSH1 0x40 MLOAD PUSH3 0x461BCD PUSH1 0xE5 SHL DUP2 MSTORE PUSH1 0x4 DUP2 ADD DUP5 SWAP1 MSTORE PUSH1 0x13 PUSH1 0x24 DUP3 ADD MSTORE PUSH19 0x139BDD081A5B8819DC9858D9481C195C9A5BD9 PUSH1 0x6A SHL PUSH1 0x44 DUP3 ADD MSTORE PUSH1 0x64 SWAP1 REVERT JUMPDEST CALLVALUE PUSH2 0x354 JUMPI PUSH1 0x20 CALLDATASIZE PUSH1 0x3 NOT ADD SLT PUSH2 0x354 JUMPI PUSH1 0x4 CALLDATALOAD PUSH1 0x0 MSTORE PUSH1 0x2 PUSH1 0x20 MSTORE PUSH2 0x26F PUSH2 0xD84 PUSH1 0x7 PUSH1 0x40 PUSH1 0x0 KECCAK256 ADD PUSH2 0x40FB JUMP JUMPDEST PUSH1 0x40 MLOAD SWAP2 DUP3 SWAP2 PUSH1 0x20 DUP4 MSTORE PUSH1 0x20 DUP4 ADD SWAP1 PUSH2 0x3B23 JUMP JUMPDEST CALLVALUE PUSH2 0x354 JUMPI PUSH1 0x40 CALLDATASIZE PUSH1 0x3 NOT ADD SLT PUSH2 0x354 JUMPI PUSH1 0x4 CALLDATALOAD PUSH2 0xDB4 PUSH2 0x3B0D JUMP JUMPDEST SWAP1 DUP1 PUSH1 0x0 MSTORE PUSH1 0x2 PUSH1 0x20 DUP2 DUP2 MSTORE PUSH2 0xDD4 PUSH1 0xFF PUSH1 0x5 PUSH1 0x40 PUSH1 0x0 KECCAK256 ADD SLOAD AND PUSH2 0x3FA1 JUMP JUMPDEST DUP3 PUSH1 0x0 MSTORE DUP2 DUP2 MSTORE PUSH1 0x1 DUP1 PUSH1 0xA0 SHL SUB SWAP2 PUSH2 0xDF7 DUP4 DUP3 PUSH1 0x40 PUSH1 0x0 KECCAK256 ADD SLOAD AND CALLER EQ PUSH2 0x3FE4 JUMP JUMPDEST CALLER PUSH1 0x0 MSTORE PUSH1 0x1 DUP3 MSTORE PUSH1 0x40 PUSH1 0x0 KECCAK256 SWAP5 DUP4 DUP2 AND SWAP6 DUP7 PUSH1 0x0 MSTORE DUP4 MSTORE PUSH1 0xFF PUSH1 0x5 PUSH1 0x40 PUSH1 0x0 KECCAK256 ADD SLOAD PUSH1 0x10 SHR AND ISZERO PUSH2 0xF66 JUMPI PUSH2 0xE2D DUP2 DUP7 PUSH2 0x447F JUMP JUMPDEST PUSH2 0xF21 JUMPI SWAP2 PUSH2 0xEE6 PUSH1 0x7 PUSH1 0x5 SWAP4 PUSH2 0xE56 PUSH2 0xEFA SWAP8 SWAP7 DUP10 PUSH1 0x0 MSTORE DUP3 DUP7 MSTORE PUSH1 0x6 PUSH1 0x40 PUSH1 0x0 KECCAK256 ADD PUSH2 0x3F41 JUMP JUMPDEST CALLER PUSH1 0x0 MSTORE PUSH1 0x1 DUP5 MSTORE PUSH1 0x40 PUSH1 0x0 KECCAK256 DUP10 PUSH1 0x0 MSTORE DUP5 MSTORE PUSH2 0xE7A DUP9 PUSH1 0x6 PUSH1 0x40 PUSH1 0x0 KECCAK256 ADD PUSH2 0x4022 JUMP JUMPDEST DUP8 PUSH1 0x0 MSTORE DUP1 DUP5 MSTORE PUSH1 0xFF PUSH1 0x40 PUSH1 0x0 KECCAK256 SWAP2 DUP3 ADD SLOAD PUSH1 0x40 MLOAD SWAP8 PUSH2 0xE99 DUP10 PUSH2 0x3D0E JUMP JUMPDEST DUP11 DUP10 MSTORE PUSH2 0xEA8 PUSH1 0x1 DUP6 ADD PUSH2 0x4057 JUMP JUMPDEST DUP8 DUP11 ADD MSTORE DUP2 AND PUSH1 0x40 DUP10 ADD MSTORE PUSH1 0xA0 SHR AND ISZERO ISZERO PUSH1 0x60 DUP8 ADD MSTORE PUSH2 0xECA PUSH1 0x3 DUP3 ADD PUSH2 0x4057 JUMP JUMPDEST PUSH1 0x80 DUP8 ADD MSTORE PUSH2 0xEDB PUSH1 0x4 DUP3 ADD PUSH2 0x4057 JUMP JUMPDEST PUSH1 0xA0 DUP8 ADD MSTORE ADD PUSH2 0x40FB JUMP JUMPDEST PUSH1 0xC0 DUP5 ADD MSTORE DUP6 PUSH1 0x0 MSTORE MSTORE PUSH1 0x40 PUSH1 0x0 KECCAK256 PUSH2 0x4166 JUMP JUMPDEST PUSH32 0x72024BC1A3BEFF7DF2FE575C8097C660EE4A4E15F263E037ED38560728681F1 PUSH1 0x0 DUP1 LOG3 STOP JUMPDEST PUSH1 0x40 MLOAD PUSH3 0x461BCD PUSH1 0xE5 SHL DUP2 MSTORE PUSH1 0x4 DUP2 ADD DUP5 SWAP1 MSTORE PUSH1 0x1A PUSH1 0x24 DUP3 ADD MSTORE PUSH32 0x436F6E7461637420616C726561647920617574686F72697A6564000000000000 PUSH1 0x44 DUP3 ADD MSTORE PUSH1 0x64 SWAP1 REVERT JUMPDEST PUSH1 0x40 MLOAD PUSH3 0x461BCD PUSH1 0xE5 SHL DUP2 MSTORE PUSH1 0x4 DUP2 ADD DUP5 SWAP1 MSTORE PUSH1 0x16 PUSH1 0x24 DUP3 ADD MSTORE PUSH22 0x10DBDB9D1858DD08191BD95CC81B9BDD08195E1A5CDD PUSH1 0x52 SHL PUSH1 0x44 DUP3 ADD MSTORE PUSH1 0x64 SWAP1 REVERT JUMPDEST CALLVALUE PUSH2 0x354 JUMPI PUSH1 0x20 DUP1 PUSH1 0x3 NOT CALLDATASIZE ADD SLT PUSH2 0x354 JUMPI PUSH1 0x1 PUSH1 0x1 PUSH1 0xA0 SHL SUB PUSH2 0xFC6 PUSH2 0x3AF7 JUMP JUMPDEST AND SWAP1 DUP2 PUSH1 0x0 MSTORE PUSH1 0x1 DUP2 MSTORE PUSH1 0x40 PUSH1 0x0 KECCAK256 CALLER PUSH1 0x0 MSTORE DUP2 MSTORE PUSH2 0xFF2 PUSH1 0xFF PUSH1 0x5 PUSH1 0x40 PUSH1 0x0 KECCAK256 ADD SLOAD PUSH1 0x10 SHR AND PUSH2 0x44E4 JUMP JUMPDEST DUP2 PUSH1 0x0 MSTORE PUSH1 0x1 DUP2 MSTORE PUSH1 0x40 PUSH1 0x0 KECCAK256 CALLER PUSH1 0x0 MSTORE DUP2 MSTORE PUSH1 0xFF PUSH1 0x5 PUSH1 0x40 PUSH1 0x0 KECCAK256 ADD SLOAD PUSH1 0x8 SHR AND PUSH2 0x1069 JUMPI DUP2 PUSH1 0x0 MSTORE PUSH1 0x1 DUP2 MSTORE PUSH1 0x40 PUSH1 0x0 KECCAK256 SWAP1 CALLER PUSH1 0x0 MSTORE MSTORE PUSH1 0x5 PUSH1 0x40 PUSH1 0x0 KECCAK256 ADD PUSH2 0x100 PUSH2 0xFF00 NOT DUP3 SLOAD AND OR SWAP1 SSTORE CALLER SWAP1 PUSH32 0x33C6B9962C16A3768D4F15C8F694B088FD57A39499A9B9F7E59243C371A2207A PUSH1 0x0 DUP1 LOG3 STOP JUMPDEST PUSH1 0x64 SWAP1 PUSH1 0x40 MLOAD SWAP1 PUSH3 0x461BCD PUSH1 0xE5 SHL DUP3 MSTORE PUSH1 0x4 DUP3 ADD MSTORE PUSH1 0x10 PUSH1 0x24 DUP3 ADD MSTORE PUSH16 0x105B1C9958591E481D995C9A599A5959 PUSH1 0x82 SHL PUSH1 0x44 DUP3 ADD MSTORE REVERT JUMPDEST CALLVALUE PUSH2 0x354 JUMPI PUSH1 0x40 CALLDATASIZE PUSH1 0x3 NOT ADD SLT PUSH2 0x354 JUMPI PUSH2 0x10B9 PUSH2 0x3AF7 JUMP JUMPDEST PUSH2 0x10C1 PUSH2 0x3B0D JUMP JUMPDEST PUSH1 0x1 DUP1 PUSH1 0xA0 SHL SUB DUP1 SWAP3 AND PUSH1 0x0 MSTORE PUSH1 0x1 PUSH1 0x20 MSTORE DUP2 PUSH1 0x40 PUSH1 0x0 KECCAK256 SWAP2 AND PUSH1 0x0 MSTORE PUSH1 0x20 MSTORE PUSH1 0x40 PUSH1 0x0 KECCAK256 SWAP1 DUP2 SLOAD AND PUSH1 0x5 DUP3 ADD SLOAD PUSH1 0xFF PUSH2 0x1173 PUSH2 0x1100 PUSH1 0x1 DUP7 ADD PUSH2 0x4057 JUMP JUMPDEST SWAP5 PUSH2 0x1165 PUSH2 0x1110 PUSH1 0x2 DUP4 ADD PUSH2 0x4057 JUMP JUMPDEST SWAP2 PUSH2 0x1157 PUSH2 0x112C PUSH1 0x4 PUSH2 0x1125 PUSH1 0x3 DUP6 ADD PUSH2 0x4057 JUMP JUMPDEST SWAP4 ADD PUSH2 0x4057 JUMP JUMPDEST SWAP4 PUSH2 0x1149 PUSH1 0x40 MLOAD SWAP11 DUP12 SWAP11 DUP12 MSTORE PUSH2 0x100 DUP1 PUSH1 0x20 DUP14 ADD MSTORE DUP12 ADD SWAP1 PUSH2 0x3B57 JUMP JUMPDEST SWAP1 DUP10 DUP3 SUB PUSH1 0x40 DUP12 ADD MSTORE PUSH2 0x3B57 JUMP JUMPDEST SWAP1 DUP8 DUP3 SUB PUSH1 0x60 DUP10 ADD MSTORE PUSH2 0x3B57 JUMP JUMPDEST SWAP1 DUP6 DUP3 SUB PUSH1 0x80 DUP8 ADD MSTORE PUSH2 0x3B57 JUMP JUMPDEST SWAP2 DUP2 DUP2 AND ISZERO ISZERO PUSH1 0xA0 DUP6 ADD MSTORE DUP2 DUP2 PUSH1 0x8 SHR AND ISZERO ISZERO PUSH1 0xC0 DUP6 ADD MSTORE PUSH1 0x10 SHR AND ISZERO ISZERO PUSH1 0xE0 DUP4 ADD MSTORE SUB SWAP1 RETURN JUMPDEST CALLVALUE PUSH2 0x354 JUMPI PUSH1 0x40 CALLDATASIZE PUSH1 0x3 NOT ADD SLT PUSH2 0x354 JUMPI PUSH2 0x11B3 PUSH2 0x3AF7 JUMP JUMPDEST PUSH2 0x11BB PUSH2 0x3B0D JUMP JUMPDEST PUSH1 0x1 DUP1 PUSH1 0xA0 SHL SUB DUP1 SWAP3 AND DUP1 PUSH1 0x0 MSTORE PUSH1 0x20 SWAP3 PUSH1 0x4 DUP5 MSTORE PUSH1 0x8 PUSH1 0x40 PUSH1 0x0 KECCAK256 ADD SWAP3 AND SWAP2 DUP3 PUSH1 0x0 MSTORE DUP4 MSTORE PUSH1 0xFF PUSH1 0x40 PUSH1 0x0 KECCAK256 SLOAD AND ISZERO PUSH2 0x1217 JUMPI PUSH1 0x0 MSTORE PUSH1 0x4 DUP3 MSTORE PUSH1 0x9 PUSH1 0x40 PUSH1 0x0 KECCAK256 ADD SWAP1 PUSH1 0x0 MSTORE DUP2 MSTORE PUSH1 0xFF PUSH1 0x40 PUSH1 0x0 KECCAK256 SLOAD AND PUSH1 0x40 MLOAD SWAP1 ISZERO ISZERO DUP2 MSTORE RETURN JUMPDEST PUSH1 0x40 MLOAD PUSH3 0x461BCD PUSH1 0xE5 SHL DUP2 MSTORE PUSH1 0x4 DUP2 ADD DUP5 SWAP1 MSTORE PUSH1 0x13 PUSH1 0x24 DUP3 ADD MSTORE PUSH19 0x159BDD195C881A185CC81B9BDD081D9BDD1959 PUSH1 0x6A SHL PUSH1 0x44 DUP3 ADD MSTORE PUSH1 0x64 SWAP1 REVERT JUMPDEST CALLVALUE PUSH2 0x354 JUMPI PUSH1 0x40 CALLDATASIZE PUSH1 0x3 NOT ADD SLT PUSH2 0x354 JUMPI PUSH1 0x20 PUSH2 0x1278 PUSH2 0x1270 PUSH2 0x3B0D JUMP JUMPDEST PUSH1 0x4 CALLDATALOAD PUSH2 0x447F JUMP JUMPDEST PUSH1 0x40 MLOAD SWAP1 ISZERO ISZERO DUP2 MSTORE RETURN JUMPDEST CALLVALUE PUSH2 0x354 JUMPI PUSH1 0x40 CALLDATASIZE PUSH1 0x3 NOT ADD SLT PUSH2 0x354 JUMPI PUSH2 0x129B PUSH2 0x3AF7 JUMP JUMPDEST PUSH1 0x24 CALLDATALOAD SWAP1 DUP2 ISZERO ISZERO DUP1 DUP4 SUB PUSH2 0x354 JUMPI PUSH1 0x1 DUP1 PUSH1 0xA0 SHL SUB DUP3 AND DUP1 PUSH1 0x0 MSTORE PUSH1 0x20 SWAP4 PUSH1 0x1 DUP6 MSTORE PUSH1 0x40 PUSH1 0x0 KECCAK256 CALLER PUSH1 0x0 MSTORE DUP6 MSTORE PUSH2 0x12DF PUSH1 0xFF PUSH1 0x5 PUSH1 0x40 PUSH1 0x0 KECCAK256 ADD SLOAD PUSH1 0x10 SHR AND PUSH2 0x44E4 JUMP JUMPDEST DUP2 PUSH1 0x0 MSTORE PUSH1 0x1 DUP6 MSTORE PUSH1 0x40 PUSH1 0x0 KECCAK256 CALLER PUSH1 0x0 MSTORE DUP6 MSTORE PUSH2 0x1306 PUSH1 0xFF PUSH1 0x5 PUSH1 0x40 PUSH1 0x0 KECCAK256 ADD SLOAD AND PUSH2 0x4530 JUMP JUMPDEST DUP2 PUSH1 0x0 MSTORE PUSH1 0x4 DUP6 MSTORE PUSH1 0xFF PUSH1 0x5 PUSH1 0x40 PUSH1 0x0 KECCAK256 ADD SLOAD AND ISZERO PUSH2 0x141C JUMPI DUP2 PUSH1 0x0 MSTORE PUSH1 0x4 DUP6 MSTORE PUSH1 0x8 PUSH1 0x40 PUSH1 0x0 KECCAK256 ADD CALLER PUSH1 0x0 MSTORE DUP6 MSTORE PUSH1 0xFF PUSH1 0x40 PUSH1 0x0 KECCAK256 SLOAD AND PUSH2 0x13E7 JUMPI PUSH2 0xA7A SWAP5 PUSH32 0xCC194F214DF029FE546C9959EE15D79D8633742AAB6C02A862E337F8ACE3D550 SWAP2 DUP4 PUSH1 0x0 MSTORE PUSH1 0x4 DUP3 MSTORE PUSH1 0x40 PUSH1 0x0 KECCAK256 SWAP1 CALLER PUSH1 0x0 MSTORE PUSH1 0x8 DUP3 ADD DUP4 MSTORE PUSH1 0x40 PUSH1 0x0 KECCAK256 PUSH1 0x1 PUSH1 0xFF NOT DUP3 SLOAD AND OR SWAP1 SSTORE PUSH1 0x9 DUP3 ADD DUP4 MSTORE PUSH2 0x13B0 DUP2 PUSH1 0x40 PUSH1 0x0 KECCAK256 SWAP1 PUSH1 0xFF DUP1 NOT DUP4 SLOAD AND SWAP2 ISZERO ISZERO AND OR SWAP1 SSTORE JUMP JUMPDEST ISZERO PUSH2 0x13D3 JUMPI PUSH1 0x2 ADD PUSH2 0x13C2 DUP2 SLOAD PUSH2 0x3F7C JUMP JUMPDEST SWAP1 SSTORE JUMPDEST PUSH1 0x40 MLOAD SWAP4 DUP5 MSTORE CALLER SWAP4 LOG3 PUSH2 0x45B4 JUMP JUMPDEST PUSH1 0x3 ADD PUSH2 0x13E0 DUP2 SLOAD PUSH2 0x3F7C JUMP JUMPDEST SWAP1 SSTORE PUSH2 0x13C5 JUMP JUMPDEST PUSH1 0x40 MLOAD PUSH3 0x461BCD PUSH1 0xE5 SHL DUP2 MSTORE PUSH1 0x4 DUP2 ADD DUP7 SWAP1 MSTORE PUSH1 0xD PUSH1 0x24 DUP3 ADD MSTORE PUSH13 0x105B1C9958591E481D9BDD1959 PUSH1 0x9A SHL PUSH1 0x44 DUP3 ADD MSTORE PUSH1 0x64 SWAP1 REVERT JUMPDEST PUSH1 0x40 MLOAD PUSH3 0x461BCD PUSH1 0xE5 SHL DUP2 MSTORE PUSH1 0x4 DUP2 ADD DUP7 SWAP1 MSTORE PUSH1 0x1B PUSH1 0x24 DUP3 ADD MSTORE PUSH32 0x4E6F20616374697665206465617468206465636C61726174696F6E0000000000 PUSH1 0x44 DUP3 ADD MSTORE PUSH1 0x64 SWAP1 REVERT JUMPDEST CALLVALUE PUSH2 0x354 JUMPI PUSH1 0x40 CALLDATASIZE PUSH1 0x3 NOT ADD SLT PUSH2 0x354 JUMPI PUSH2 0x147A PUSH2 0x3AF7 JUMP JUMPDEST PUSH2 0x1482 PUSH2 0x3B0D JUMP JUMPDEST SWAP1 PUSH1 0x1 DUP1 PUSH1 0xA0 SHL SUB DUP1 SWAP2 AND PUSH1 0x0 MSTORE PUSH1 0x4 PUSH1 0x20 MSTORE PUSH1 0x8 PUSH1 0x40 PUSH1 0x0 KECCAK256 ADD SWAP2 AND PUSH1 0x0 MSTORE PUSH1 0x20 MSTORE PUSH1 0x20 PUSH1 0xFF PUSH1 0x40 PUSH1 0x0 KECCAK256 SLOAD AND PUSH1 0x40 MLOAD SWAP1 ISZERO ISZERO DUP2 MSTORE RETURN JUMPDEST CALLVALUE PUSH2 0x354 JUMPI PUSH1 0x20 CALLDATASIZE PUSH1 0x3 NOT ADD SLT PUSH2 0x354 JUMPI PUSH1 0x4 CALLDATALOAD PUSH1 0x0 MSTORE PUSH1 0x2 PUSH1 0x20 MSTORE PUSH2 0x26F PUSH2 0x601 PUSH1 0x6 PUSH1 0x40 PUSH1 0x0 KECCAK256 ADD PUSH2 0x46F7 JUMP JUMPDEST CALLVALUE PUSH2 0x354 JUMPI PUSH1 0x40 CALLDATASIZE PUSH1 0x3 NOT ADD SLT PUSH2 0x354 JUMPI PUSH1 0x4 CALLDATALOAD PUSH1 0x0 MSTORE PUSH1 0x3 PUSH1 0x20 MSTORE PUSH1 0x40 PUSH1 0x0 KECCAK256 PUSH1 0x24 CALLDATALOAD PUSH1 0x0 MSTORE PUSH1 0x20 MSTORE PUSH2 0x156C PUSH1 0x40 PUSH1 0x0 KECCAK256 PUSH1 0xFF PUSH1 0x5 DUP3 ADD SLOAD AND PUSH2 0x1596 PUSH2 0x1532 PUSH1 0x1 DUP5 ADD PUSH2 0x4057 JUMP JUMPDEST SWAP3 PUSH2 0x1588 PUSH2 0x1542 PUSH1 0x2 DUP4 ADD PUSH2 0x4057 JUMP JUMPDEST SWAP2 PUSH2 0x157A PUSH2 0x1557 PUSH1 0x4 PUSH2 0x1125 PUSH1 0x3 DUP6 ADD PUSH2 0x4057 JUMP JUMPDEST SWAP4 PUSH1 0x40 MLOAD SWAP9 DUP10 SWAP9 PUSH1 0xA0 DUP11 MSTORE PUSH1 0xA0 DUP11 ADD SWAP1 PUSH2 0x3B57 JUMP JUMPDEST SWAP1 DUP9 DUP3 SUB PUSH1 0x20 DUP11 ADD MSTORE PUSH2 0x3B57 JUMP JUMPDEST SWAP1 DUP7 DUP3 SUB PUSH1 0x40 DUP9 ADD MSTORE PUSH2 0x3B57 JUMP JUMPDEST SWAP1 DUP5 DUP3 SUB PUSH1 0x60 DUP7 ADD MSTORE PUSH2 0x3B57 JUMP JUMPDEST SWAP1 ISZERO ISZERO PUSH1 0x80 DUP4 ADD MSTORE SUB SWAP1 RETURN JUMPDEST CALLVALUE PUSH2 0x354 JUMPI PUSH1 0x0 CALLDATASIZE PUSH1 0x3 NOT ADD SLT PUSH2 0x354 JUMPI CALLER PUSH1 0x0 MSTORE PUSH1 0x20 PUSH1 0x0 DUP2 MSTORE PUSH2 0x15D4 PUSH1 0xFF PUSH1 0x7 PUSH1 0x40 PUSH1 0x0 KECCAK256 ADD SLOAD PUSH1 0x8 SHR AND PUSH2 0x3ED0 JUMP JUMPDEST CALLER PUSH1 0x0 MSTORE PUSH1 0x0 DUP2 MSTORE PUSH1 0xFF PUSH1 0x7 PUSH1 0x40 PUSH1 0x0 KECCAK256 ADD SLOAD AND PUSH2 0x169E JUMPI CALLER PUSH1 0x0 MSTORE PUSH1 0x0 DUP2 MSTORE TIMESTAMP PUSH1 0x5 PUSH1 0x40 PUSH1 0x0 KECCAK256 ADD SSTORE PUSH1 0x4 DUP2 MSTORE PUSH1 0x40 PUSH1 0x0 KECCAK256 PUSH1 0x5 DUP2 ADD SWAP1 DUP2 SLOAD SWAP1 PUSH1 0xFF DUP3 AND DUP1 ISZERO PUSH2 0x1690 JUMPI JUMPDEST PUSH2 0x164D JUMPI JUMPDEST DUP4 PUSH32 0x878229CAB17522B0AA9FE67EF166BA37857B7FDB46CD8748179A9D9A7373727F PUSH1 0x40 MLOAD SWAP2 TIMESTAMP DUP4 MSTORE CALLER SWAP3 LOG2 STOP JUMPDEST PUSH1 0x0 SWAP3 PUSH1 0x6 SWAP3 PUSH1 0x7 DUP4 ADD PUSH1 0xFF NOT DUP2 SLOAD AND SWAP1 SSTORE PUSH2 0xFFFF NOT AND SWAP1 SSTORE ADD SSTORE PUSH1 0x40 MLOAD PUSH1 0x0 DUP2 MSTORE TIMESTAMP DUP3 DUP3 ADD MSTORE PUSH1 0x0 DUP1 MLOAD PUSH1 0x20 PUSH2 0x47B6 DUP4 CODECOPY DUP2 MLOAD SWAP2 MSTORE PUSH1 0x40 CALLER SWAP3 LOG2 DUP2 DUP1 DUP1 PUSH2 0x161F JUMP JUMPDEST POP PUSH1 0xFF PUSH1 0x7 DUP3 ADD SLOAD AND PUSH2 0x161A JUMP JUMPDEST PUSH1 0x64 SWAP1 PUSH1 0x40 MLOAD SWAP1 PUSH3 0x461BCD PUSH1 0xE5 SHL DUP3 MSTORE PUSH1 0x4 DUP3 ADD MSTORE PUSH1 0x19 PUSH1 0x24 DUP3 ADD MSTORE PUSH32 0x4F776E657220697320616C726561647920646563656173656400000000000000 PUSH1 0x44 DUP3 ADD MSTORE REVERT JUMPDEST CALLVALUE PUSH2 0x354 JUMPI PUSH1 0x60 CALLDATASIZE PUSH1 0x3 NOT ADD SLT PUSH2 0x354 JUMPI PUSH1 0x4 CALLDATALOAD PUSH1 0x1 PUSH1 0x1 PUSH1 0x40 SHL SUB DUP2 GT PUSH2 0x354 JUMPI PUSH2 0x1712 SWAP1 CALLDATASIZE SWAP1 PUSH1 0x4 ADD PUSH2 0x3ACA JUMP JUMPDEST PUSH1 0x24 CALLDATALOAD PUSH1 0x1 PUSH1 0x1 PUSH1 0x40 SHL SUB DUP2 GT PUSH2 0x354 JUMPI PUSH2 0x1731 SWAP1 CALLDATASIZE SWAP1 PUSH1 0x4 ADD PUSH2 0x3ACA JUMP JUMPDEST PUSH1 0x44 SWAP3 SWAP2 SWAP3 CALLDATALOAD PUSH1 0x1 PUSH1 0x1 PUSH1 0x40 SHL SUB DUP2 GT PUSH2 0x354 JUMPI PUSH2 0x1753 SWAP1 CALLDATASIZE SWAP1 PUSH1 0x4 ADD PUSH2 0x3ACA JUMP JUMPDEST SWAP4 SWAP1 SWAP4 CALLER PUSH1 0x0 MSTORE PUSH1 0x0 PUSH1 0x20 MSTORE PUSH2 0x1776 PUSH1 0xFF PUSH1 0x7 PUSH1 0x40 PUSH1 0x0 KECCAK256 ADD SLOAD PUSH1 0x8 SHR AND PUSH2 0x3ED0 JUMP JUMPDEST PUSH1 0x6 SLOAD SWAP5 DUP6 PUSH1 0x0 MSTORE PUSH1 0x2 PUSH1 0x20 MSTORE PUSH1 0xFF PUSH1 0x5 PUSH1 0x40 PUSH1 0x0 KECCAK256 ADD SLOAD AND PUSH2 0x1C68 JUMPI PUSH2 0x17FC SWAP1 PUSH1 0x40 MLOAD SWAP3 PUSH2 0x17A4 DUP5 PUSH2 0x3D29 JUMP JUMPDEST PUSH1 0x0 DUP5 MSTORE PUSH2 0x17F0 PUSH1 0x40 MLOAD SWAP6 PUSH2 0x17B8 DUP8 PUSH2 0x3D29 JUMP JUMPDEST PUSH1 0x0 DUP8 MSTORE PUSH1 0x40 MLOAD SWAP8 PUSH2 0x17C9 DUP10 PUSH2 0x3CF2 JUMP JUMPDEST DUP11 DUP10 MSTORE PUSH2 0x17D7 CALLDATASIZE DUP12 DUP15 PUSH2 0x3DAE JUMP JUMPDEST PUSH1 0x20 DUP11 ADD MSTORE CALLER PUSH1 0x40 DUP11 ADD MSTORE PUSH1 0x0 PUSH1 0x60 DUP11 ADD MSTORE CALLDATASIZE SWAP2 PUSH2 0x3DAE JUMP JUMPDEST PUSH1 0x80 DUP8 ADD MSTORE CALLDATASIZE SWAP2 PUSH2 0x3DAE JUMP JUMPDEST PUSH1 0xA0 DUP5 ADD MSTORE PUSH1 0x1 PUSH1 0xC0 DUP5 ADD MSTORE PUSH1 0xE0 DUP4 ADD MSTORE PUSH2 0x100 DUP3 ADD MSTORE DUP3 PUSH1 0x0 MSTORE PUSH1 0x2 PUSH1 0x20 MSTORE PUSH1 0x40 PUSH1 0x0 KECCAK256 DUP2 MLOAD DUP2 SSTORE PUSH1 0x20 DUP3 ADD MLOAD DUP1 MLOAD SWAP1 PUSH1 0x1 PUSH1 0x1 PUSH1 0x40 SHL SUB DUP3 GT PUSH2 0x1ABE JUMPI DUP2 SWAP1 PUSH2 0x1857 DUP3 PUSH2 0x184E PUSH1 0x1 DUP8 ADD SLOAD PUSH2 0x3DF4 JUMP JUMPDEST PUSH1 0x1 DUP8 ADD PUSH2 0x3E45 JUMP JUMPDEST PUSH1 0x20 SWAP1 PUSH1 0x1F DUP4 GT PUSH1 0x1 EQ PUSH2 0x1BF6 JUMPI PUSH1 0x0 SWAP3 PUSH2 0x1BEB JUMPI JUMPDEST POP POP DUP2 PUSH1 0x1 SHL SWAP2 PUSH1 0x0 NOT SWAP1 PUSH1 0x3 SHL SHR NOT AND OR PUSH1 0x1 DUP3 ADD SSTORE JUMPDEST PUSH1 0x40 DUP3 ADD MLOAD PUSH1 0x2 DUP3 ADD DUP1 SLOAD PUSH1 0x60 DUP6 ADD MLOAD PUSH1 0xFF PUSH1 0xA0 SHL SWAP1 ISZERO ISZERO PUSH1 0xA0 SHL AND PUSH1 0x1 PUSH1 0x1 PUSH1 0xA0 SHL SUB SWAP1 SWAP4 AND PUSH1 0x1 PUSH1 0x1 PUSH1 0xA8 SHL SUB NOT SWAP1 SWAP2 AND OR SWAP2 SWAP1 SWAP2 OR SWAP1 SSTORE PUSH1 0x80 DUP3 ADD MLOAD DUP1 MLOAD SWAP1 PUSH1 0x1 PUSH1 0x1 PUSH1 0x40 SHL SUB DUP3 GT PUSH2 0x1ABE JUMPI DUP2 SWAP1 PUSH2 0x18F1 DUP3 PUSH2 0x18E8 PUSH1 0x3 DUP8 ADD SLOAD PUSH2 0x3DF4 JUMP JUMPDEST PUSH1 0x3 DUP8 ADD PUSH2 0x3E45 JUMP JUMPDEST PUSH1 0x20 SWAP1 PUSH1 0x1F DUP4 GT PUSH1 0x1 EQ PUSH2 0x1B79 JUMPI PUSH1 0x0 SWAP3 PUSH2 0x1B6E JUMPI JUMPDEST POP POP DUP2 PUSH1 0x1 SHL SWAP2 PUSH1 0x0 NOT SWAP1 PUSH1 0x3 SHL SHR NOT AND OR PUSH1 0x3 DUP3 ADD SSTORE JUMPDEST PUSH1 0xA0 DUP3 ADD MLOAD DUP1 MLOAD SWAP1 PUSH1 0x1 PUSH1 0x1 PUSH1 0x40 SHL SUB DUP3 GT PUSH2 0x1ABE JUMPI DUP2 SWAP1 PUSH2 0x1951 DUP3 PUSH2 0x1948 PUSH1 0x4 DUP8 ADD SLOAD PUSH2 0x3DF4 JUMP JUMPDEST PUSH1 0x4 DUP8 ADD PUSH2 0x3E45 JUMP JUMPDEST PUSH1 0x20 SWAP1 PUSH1 0x1F DUP4 GT PUSH1 0x1 EQ PUSH2 0x1AFC JUMPI PUSH1 0x0 SWAP3 PUSH2 0x1AF1 JUMPI JUMPDEST POP POP DUP2 PUSH1 0x1 SHL SWAP2 PUSH1 0x0 NOT SWAP1 PUSH1 0x3 SHL SHR NOT AND OR PUSH1 0x4 DUP3 ADD SSTORE JUMPDEST PUSH2 0x199E PUSH1 0xC0 DUP4 ADD MLOAD ISZERO ISZERO PUSH1 0x5 DUP4 ADD SWAP1 PUSH1 0xFF DUP1 NOT DUP4 SLOAD AND SWAP2 ISZERO ISZERO AND OR SWAP1 SSTORE JUMP JUMPDEST PUSH1 0xE0 DUP3 ADD MLOAD DUP1 MLOAD SWAP1 PUSH1 0x1 PUSH1 0x1 PUSH1 0x40 SHL SUB DUP3 GT PUSH2 0x1ABE JUMPI PUSH1 0x1 PUSH1 0x40 SHL DUP3 GT PUSH2 0x1ABE JUMPI PUSH1 0x20 PUSH1 0x6 DUP5 ADD SWAP2 PUSH2 0x19D5 DUP5 DUP5 SLOAD DUP2 DUP7 SSTORE DUP6 PUSH2 0x3E8C JUMP JUMPDEST ADD SWAP1 PUSH1 0x0 MSTORE PUSH1 0x20 PUSH1 0x0 KECCAK256 PUSH1 0x0 JUMPDEST DUP4 DUP2 LT PUSH2 0x1AD4 JUMPI POP POP POP POP PUSH1 0x7 PUSH2 0x100 SWAP2 ADD SWAP2 ADD MLOAD SWAP1 DUP2 MLOAD SWAP2 PUSH1 0x1 PUSH1 0x1 PUSH1 0x40 SHL SUB DUP4 GT PUSH2 0x1ABE JUMPI PUSH1 0x1 PUSH1 0x40 SHL DUP4 GT PUSH2 0x1ABE JUMPI PUSH1 0x20 SWAP1 PUSH2 0x1A26 DUP5 DUP5 SLOAD DUP2 DUP7 SSTORE DUP6 PUSH2 0x3E8C JUMP JUMPDEST ADD SWAP1 PUSH1 0x0 MSTORE PUSH1 0x20 PUSH1 0x0 KECCAK256 PUSH1 0x0 JUMPDEST DUP4 DUP2 LT PUSH2 0x1AAA JUMPI PUSH1 0x20 DUP7 DUP7 DUP2 PUSH32 0x6CDA1FE49E022CF08F0F3E367BD8C6ABB3C3A01A260273F23C8E432A4166A048 PUSH2 0x1A9F DUP13 CALLER PUSH1 0x0 MSTORE PUSH1 0x0 DUP8 MSTORE PUSH2 0x1A7D DUP5 PUSH1 0x9 PUSH1 0x40 PUSH1 0x0 KECCAK256 ADD PUSH2 0x4022 JUMP JUMPDEST PUSH2 0x1A88 PUSH1 0x6 SLOAD PUSH2 0x3F7C JUMP JUMPDEST PUSH1 0x6 SSTORE PUSH1 0x40 MLOAD SWAP2 DUP3 SWAP2 DUP9 DUP4 MSTORE CALLER SWAP7 DUP10 DUP5 ADD SWAP2 PUSH2 0x3EAF JUMP JUMPDEST SUB SWAP1 LOG3 PUSH1 0x40 MLOAD SWAP1 DUP2 MSTORE RETURN JUMPDEST PUSH1 0x1 SWAP1 PUSH1 0x20 DUP5 MLOAD SWAP5 ADD SWAP4 DUP2 DUP5 ADD SSTORE ADD PUSH2 0x1A33 JUMP JUMPDEST PUSH4 0x4E487B71 PUSH1 0xE0 SHL PUSH1 0x0 MSTORE PUSH1 0x41 PUSH1 0x4 MSTORE PUSH1 0x24 PUSH1 0x0 REVERT JUMPDEST DUP3 MLOAD PUSH1 0x1 PUSH1 0x1 PUSH1 0xA0 SHL SUB AND DUP2 DUP4 ADD SSTORE PUSH1 0x20 SWAP1 SWAP3 ADD SWAP2 PUSH1 0x1 ADD PUSH2 0x19E2 JUMP JUMPDEST ADD MLOAD SWAP1 POP DUP8 DUP1 PUSH2 0x1967 JUMP JUMPDEST SWAP3 POP PUSH1 0x4 DUP5 ADD PUSH1 0x0 MSTORE PUSH1 0x20 PUSH1 0x0 KECCAK256 SWAP1 PUSH1 0x0 SWAP4 JUMPDEST PUSH1 0x1F NOT DUP5 AND DUP6 LT PUSH2 0x1B53 JUMPI PUSH1 0x1 SWAP5 POP DUP4 PUSH1 0x1F NOT DUP2 AND LT PUSH2 0x1B3A JUMPI JUMPDEST POP POP POP DUP2 SHL ADD PUSH1 0x4 DUP3 ADD SSTORE PUSH2 0x197F JUMP JUMPDEST ADD MLOAD PUSH1 0x0 NOT PUSH1 0xF8 DUP5 PUSH1 0x3 SHL AND SHR NOT AND SWAP1 SSTORE DUP8 DUP1 DUP1 PUSH2 0x1B2A JUMP JUMPDEST DUP2 DUP2 ADD MLOAD DUP4 SSTORE PUSH1 0x20 SWAP5 DUP6 ADD SWAP5 PUSH1 0x1 SWAP1 SWAP4 ADD SWAP3 SWAP1 SWAP2 ADD SWAP1 PUSH2 0x1B0F JUMP JUMPDEST ADD MLOAD SWAP1 POP DUP8 DUP1 PUSH2 0x1907 JUMP JUMPDEST SWAP3 POP PUSH1 0x3 DUP5 ADD PUSH1 0x0 MSTORE PUSH1 0x20 PUSH1 0x0 KECCAK256 SWAP1 PUSH1 0x0 SWAP4 JUMPDEST PUSH1 0x1F NOT DUP5 AND DUP6 LT PUSH2 0x1BD0 JUMPI PUSH1 0x1 SWAP5 POP DUP4 PUSH1 0x1F NOT DUP2 AND LT PUSH2 0x1BB7 JUMPI JUMPDEST POP POP POP DUP2 SHL ADD PUSH1 0x3 DUP3 ADD SSTORE PUSH2 0x191F JUMP JUMPDEST ADD MLOAD PUSH1 0x0 NOT PUSH1 0xF8 DUP5 PUSH1 0x3 SHL AND SHR NOT AND SWAP1 SSTORE DUP8 DUP1 DUP1 PUSH2 0x1BA7 JUMP JUMPDEST DUP2 DUP2 ADD MLOAD DUP4 SSTORE PUSH1 0x20 SWAP5 DUP6 ADD SWAP5 PUSH1 0x1 SWAP1 SWAP4 ADD SWAP3 SWAP1 SWAP2 ADD SWAP1 PUSH2 0x1B8C JUMP JUMPDEST ADD MLOAD SWAP1 POP DUP8 DUP1 PUSH2 0x186D JUMP JUMPDEST SWAP3 POP PUSH1 0x1 DUP5 ADD PUSH1 0x0 MSTORE PUSH1 0x20 PUSH1 0x0 KECCAK256 SWAP1 PUSH1 0x0 SWAP4 JUMPDEST PUSH1 0x1F NOT DUP5 AND DUP6 LT PUSH2 0x1C4D JUMPI PUSH1 0x1 SWAP5 POP DUP4 PUSH1 0x1F NOT DUP2 AND LT PUSH2 0x1C34 JUMPI JUMPDEST POP POP POP DUP2 SHL ADD PUSH1 0x1 DUP3 ADD SSTORE PUSH2 0x1885 JUMP JUMPDEST ADD MLOAD PUSH1 0x0 NOT PUSH1 0xF8 DUP5 PUSH1 0x3 SHL AND SHR NOT AND SWAP1 SSTORE DUP8 DUP1 DUP1 PUSH2 0x1C24 JUMP JUMPDEST DUP2 DUP2 ADD MLOAD DUP4 SSTORE PUSH1 0x20 SWAP5 DUP6 ADD SWAP5 PUSH1 0x1 SWAP1 SWAP4 ADD SWAP3 SWAP1 SWAP2 ADD SWAP1 PUSH2 0x1C09 JUMP JUMPDEST PUSH1 0x40 MLOAD PUSH3 0x461BCD PUSH1 0xE5 SHL DUP2 MSTORE PUSH1 0x20 PUSH1 0x4 DUP3 ADD MSTORE PUSH1 0x14 PUSH1 0x24 DUP3 ADD MSTORE PUSH20 0x5661756C7420616C726561647920657869737473 PUSH1 0x60 SHL PUSH1 0x44 DUP3 ADD MSTORE PUSH1 0x64 SWAP1 REVERT JUMPDEST CALLVALUE PUSH2 0x354 JUMPI PUSH1 0xA0 CALLDATASIZE PUSH1 0x3 NOT ADD SLT PUSH2 0x354 JUMPI PUSH1 0x24 CALLDATALOAD PUSH1 0x1 PUSH1 0x1 PUSH1 0x40 SHL SUB DUP2 GT PUSH2 0x354 JUMPI PUSH2 0x1CD4 SWAP1 CALLDATASIZE SWAP1 PUSH1 0x4 ADD PUSH2 0x3ACA JUMP JUMPDEST SWAP1 PUSH1 0x44 CALLDATALOAD PUSH1 0x1 PUSH1 0x1 PUSH1 0x40 SHL SUB DUP2 GT PUSH2 0x354 JUMPI PUSH2 0x1CF4 SWAP1 CALLDATASIZE SWAP1 PUSH1 0x4 ADD PUSH2 0x3ACA JUMP JUMPDEST SWAP3 SWAP1 SWAP2 PUSH1 0x64 CALLDATALOAD PUSH1 0x1 PUSH1 0x1 PUSH1 0x40 SHL SUB DUP2 GT PUSH2 0x354 JUMPI PUSH2 0x1D16 SWAP1 CALLDATASIZE SWAP1 PUSH1 0x4 ADD PUSH2 0x3ACA JUMP JUMPDEST SWAP1 SWAP5 PUSH1 0x84 CALLDATALOAD PUSH1 0x1 PUSH1 0x1 PUSH1 0x40 SHL SUB DUP2 GT PUSH2 0x354 JUMPI PUSH2 0x1D37 SWAP1 CALLDATASIZE SWAP1 PUSH1 0x4 ADD PUSH2 0x3ACA JUMP JUMPDEST PUSH1 0x4 CALLDATALOAD PUSH1 0x0 MSTORE PUSH1 0x2 PUSH1 0x20 MSTORE PUSH2 0x1D56 PUSH1 0xFF PUSH1 0x5 PUSH1 0x40 PUSH1 0x0 KECCAK256 ADD SLOAD AND PUSH2 0x3FA1 JUMP JUMPDEST PUSH1 0x4 CALLDATALOAD PUSH1 0x0 MSTORE PUSH1 0x2 PUSH1 0x20 MSTORE PUSH2 0x1D7C PUSH1 0x1 DUP1 PUSH1 0xA0 SHL SUB PUSH1 0x2 PUSH1 0x40 PUSH1 0x0 KECCAK256 ADD SLOAD AND CALLER EQ PUSH2 0x3FE4 JUMP JUMPDEST PUSH1 0x7 SLOAD SWAP7 PUSH1 0x4 CALLDATALOAD PUSH1 0x0 MSTORE PUSH1 0x3 PUSH1 0x20 MSTORE PUSH1 0x40 PUSH1 0x0 KECCAK256 DUP9 PUSH1 0x0 MSTORE PUSH1 0x20 MSTORE PUSH1 0xFF PUSH1 0x5 PUSH1 0x40 PUSH1 0x0 KECCAK256 ADD SLOAD AND PUSH2 0x2222 JUMPI PUSH1 0x40 MLOAD SWAP9 DUP10 PUSH1 0xC0 DUP2 ADD LT PUSH1 0x1 PUSH1 0x1 PUSH1 0x40 SHL SUB PUSH1 0xC0 DUP13 ADD GT OR PUSH2 0x1ABE JUMPI PUSH1 0xC0 DUP11 ADD PUSH1 0x40 MSTORE DUP9 DUP11 MSTORE DUP10 SWAP6 PUSH2 0x1E0C SWAP6 PUSH2 0x1E00 SWAP4 PUSH2 0x1DF4 SWAP2 PUSH1 0x20 PUSH2 0x1DE8 CALLDATASIZE DUP15 DUP15 PUSH2 0x3DAE JUMP JUMPDEST SWAP11 ADD SWAP10 DUP11 MSTORE CALLDATASIZE SWAP2 PUSH2 0x3DAE JUMP JUMPDEST PUSH1 0x40 DUP13 ADD MSTORE CALLDATASIZE SWAP2 PUSH2 0x3DAE JUMP JUMPDEST PUSH1 0x60 DUP10 ADD MSTORE CALLDATASIZE SWAP2 PUSH2 0x3DAE JUMP JUMPDEST PUSH1 0x80 DUP7 ADD MSTORE PUSH1 0x1 PUSH1 0xA0 DUP7 ADD MSTORE PUSH1 0x4 CALLDATALOAD PUSH1 0x0 MSTORE PUSH1 0x3 PUSH1 0x20 MSTORE PUSH1 0x40 PUSH1 0x0 KECCAK256 DUP5 PUSH1 0x0 MSTORE PUSH1 0x20 MSTORE PUSH1 0x40 PUSH1 0x0 KECCAK256 SWAP1 DUP6 MLOAD DUP3 SSTORE MLOAD DUP1 MLOAD PUSH1 0x1 PUSH1 0x1 PUSH1 0x40 SHL SUB DUP2 GT PUSH2 0x1ABE JUMPI DUP1 PUSH1 0x1 DUP5 ADD SWAP3 PUSH2 0x1E64 DUP3 PUSH2 0x1E5E DUP7 SLOAD PUSH2 0x3DF4 JUMP JUMPDEST DUP7 PUSH2 0x3E45 JUMP JUMPDEST PUSH1 0x20 SWAP1 PUSH1 0x1F DUP4 GT PUSH1 0x1 EQ PUSH2 0x21BC JUMPI PUSH1 0x0 SWAP3 PUSH2 0x21B1 JUMPI JUMPDEST POP POP DUP2 PUSH1 0x1 SHL SWAP2 PUSH1 0x0 NOT SWAP1 PUSH1 0x3 SHL SHR NOT AND OR SWAP1 SSTORE JUMPDEST PUSH1 0x40 DUP6 ADD MLOAD DUP1 MLOAD PUSH1 0x1 PUSH1 0x1 PUSH1 0x40 SHL SUB DUP2 GT PUSH2 0x1ABE JUMPI DUP1 PUSH1 0x2 DUP5 ADD SWAP3 PUSH2 0x1EB8 DUP3 PUSH2 0x1E5E DUP7 SLOAD PUSH2 0x3DF4 JUMP JUMPDEST PUSH1 0x20 SWAP1 PUSH1 0x1F DUP4 GT PUSH1 0x1 EQ PUSH2 0x214B JUMPI PUSH1 0x0 SWAP3 PUSH2 0x2140 JUMPI JUMPDEST POP POP DUP2 PUSH1 0x1 SHL SWAP2 PUSH1 0x0 NOT SWAP1 PUSH1 0x3 SHL SHR NOT AND OR SWAP1 SSTORE JUMPDEST PUSH1 0x60 DUP6 ADD MLOAD DUP1 MLOAD PUSH1 0x1 PUSH1 0x1 PUSH1 0x40 SHL SUB DUP2 GT PUSH2 0x1ABE JUMPI DUP1 PUSH1 0x3 DUP5 ADD SWAP3 PUSH2 0x1F0C DUP3 PUSH2 0x1E5E DUP7 SLOAD PUSH2 0x3DF4 JUMP JUMPDEST PUSH1 0x20 SWAP1 PUSH1 0x1F DUP4 GT PUSH1 0x1 EQ PUSH2 0x20DA JUMPI PUSH1 0x0 SWAP3 PUSH2 0x20CF JUMPI JUMPDEST POP POP DUP2 PUSH1 0x1 SHL SWAP2 PUSH1 0x0 NOT SWAP1 PUSH1 0x3 SHL SHR NOT AND OR SWAP1 SSTORE JUMPDEST PUSH1 0x80 DUP6 ADD MLOAD SWAP5 DUP6 MLOAD PUSH1 0x1 PUSH1 0x1 PUSH1 0x40 SHL SUB DUP2 GT PUSH2 0x1ABE JUMPI PUSH1 0x20 SWAP7 PUSH2 0x1F61 DUP3 PUSH2 0x1948 PUSH1 0x4 DUP8 ADD SLOAD PUSH2 0x3DF4 JUMP JUMPDEST DUP8 SWAP1 PUSH1 0x1F DUP4 GT PUSH1 0x1 EQ PUSH2 0x2033 JUMPI PUSH1 0xA0 PUSH32 0x1D3C6A3C34ADDECA1898ED9E2152304EA92CF5B2DFABE5461461392A62F6D8DE SWAP7 SWAP5 DUP5 PUSH2 0x1FD7 SWAP6 PUSH2 0x201D SWAP9 SWAP6 PUSH1 0x5 SWAP6 PUSH1 0x0 SWAP3 PUSH2 0x2028 JUMPI JUMPDEST POP POP DUP2 PUSH1 0x1 SHL SWAP2 PUSH1 0x0 NOT SWAP1 PUSH1 0x3 SHL SHR NOT AND OR PUSH1 0x4 DUP6 ADD SSTORE JUMPDEST ADD MLOAD ISZERO ISZERO SWAP2 ADD SWAP1 PUSH1 0xFF DUP1 NOT DUP4 SLOAD AND SWAP2 ISZERO ISZERO AND OR SWAP1 SSTORE JUMP JUMPDEST PUSH1 0x4 CALLDATALOAD PUSH1 0x0 MSTORE PUSH1 0x2 DUP7 MSTORE PUSH2 0x1FF2 DUP6 PUSH1 0x7 PUSH1 0x40 PUSH1 0x0 KECCAK256 ADD PUSH2 0x4022 JUMP JUMPDEST PUSH2 0x1FFD PUSH1 0x7 SLOAD PUSH2 0x3F7C JUMP JUMPDEST PUSH1 0x7 SSTORE PUSH1 0x40 MLOAD SWAP2 DUP3 SWAP2 DUP7 DUP4 MSTORE PUSH1 0x40 DUP9 DUP5 ADD MSTORE PUSH1 0x4 CALLDATALOAD SWAP6 PUSH1 0x40 DUP5 ADD SWAP2 PUSH2 0x3EAF JUMP JUMPDEST SUB SWAP1 LOG2 PUSH1 0x40 MLOAD SWAP1 DUP2 MSTORE RETURN JUMPDEST ADD MLOAD SWAP1 POP DUP14 DUP1 PUSH2 0x1FA8 JUMP JUMPDEST SWAP1 PUSH1 0x4 DUP6 ADD PUSH1 0x0 MSTORE DUP9 PUSH1 0x0 KECCAK256 SWAP2 PUSH1 0x0 JUMPDEST PUSH1 0x1F NOT DUP6 AND DUP2 LT PUSH2 0x20B8 JUMPI POP PUSH32 0x1D3C6A3C34ADDECA1898ED9E2152304EA92CF5B2DFABE5461461392A62F6D8DE SWAP7 SWAP5 PUSH1 0x1 DUP6 PUSH2 0x201D SWAP9 SWAP6 PUSH1 0x5 SWAP6 PUSH1 0xA0 SWAP6 PUSH2 0x1FD7 SWAP10 PUSH1 0x1F NOT DUP2 AND LT PUSH2 0x209F JUMPI JUMPDEST POP POP POP DUP2 SHL ADD PUSH1 0x4 DUP6 ADD SSTORE PUSH2 0x1FC0 JUMP JUMPDEST ADD MLOAD PUSH1 0x0 NOT PUSH1 0xF8 DUP5 PUSH1 0x3 SHL AND SHR NOT AND SWAP1 SSTORE DUP14 DUP1 DUP1 PUSH2 0x208F JUMP JUMPDEST SWAP2 SWAP3 DUP11 PUSH1 0x1 DUP2 SWAP3 DUP7 DUP6 ADD MLOAD DUP2 SSTORE ADD SWAP5 ADD SWAP3 ADD PUSH2 0x2043 JUMP JUMPDEST ADD MLOAD SWAP1 POP DUP9 DUP1 PUSH2 0x1F22 JUMP JUMPDEST PUSH1 0x0 DUP6 DUP2 MSTORE PUSH1 0x20 DUP2 KECCAK256 SWAP4 POP PUSH1 0x1F NOT DUP6 AND SWAP1 JUMPDEST DUP2 DUP2 LT PUSH2 0x2128 JUMPI POP SWAP1 DUP5 PUSH1 0x1 SWAP6 SWAP5 SWAP4 SWAP3 LT PUSH2 0x210F JUMPI JUMPDEST POP POP POP DUP2 SHL ADD SWAP1 SSTORE PUSH2 0x1F37 JUMP JUMPDEST ADD MLOAD PUSH1 0x0 NOT PUSH1 0xF8 DUP5 PUSH1 0x3 SHL AND SHR NOT AND SWAP1 SSTORE DUP9 DUP1 DUP1 PUSH2 0x2102 JUMP JUMPDEST SWAP3 SWAP4 PUSH1 0x20 PUSH1 0x1 DUP2 SWAP3 DUP8 DUP7 ADD MLOAD DUP2 SSTORE ADD SWAP6 ADD SWAP4 ADD PUSH2 0x20EC JUMP JUMPDEST ADD MLOAD SWAP1 POP DUP9 DUP1 PUSH2 0x1ECE JUMP JUMPDEST PUSH1 0x0 DUP6 DUP2 MSTORE PUSH1 0x20 DUP2 KECCAK256 SWAP4 POP PUSH1 0x1F NOT DUP6 AND SWAP1 JUMPDEST DUP2 DUP2 LT PUSH2 0x2199 JUMPI POP SWAP1 DUP5 PUSH1 0x1 SWAP6 SWAP5 SWAP4 SWAP3 LT PUSH2 0x2180 JUMPI JUMPDEST POP POP POP DUP2 SHL ADD SWAP1 SSTORE PUSH2 0x1EE3 JUMP JUMPDEST ADD MLOAD PUSH1 0x0 NOT PUSH1 0xF8 DUP5 PUSH1 0x3 SHL AND SHR NOT AND SWAP1 SSTORE DUP9 DUP1 DUP1 PUSH2 0x2173 JUMP JUMPDEST SWAP3 SWAP4 PUSH1 0x20 PUSH1 0x1 DUP2 SWAP3 DUP8 DUP7 ADD MLOAD DUP2 SSTORE ADD SWAP6 ADD SWAP4 ADD PUSH2 0x215D JUMP JUMPDEST ADD MLOAD SWAP1 POP DUP9 DUP1 PUSH2 0x1E7A JUMP JUMPDEST PUSH1 0x0 DUP6 DUP2 MSTORE PUSH1 0x20 DUP2 KECCAK256 SWAP4 POP PUSH1 0x1F NOT DUP6 AND SWAP1 JUMPDEST DUP2 DUP2 LT PUSH2 0x220A JUMPI POP SWAP1 DUP5 PUSH1 0x1 SWAP6 SWAP5 SWAP4 SWAP3 LT PUSH2 0x21F1 JUMPI JUMPDEST POP POP POP DUP2 SHL ADD SWAP1 SSTORE PUSH2 0x1E8F JUMP JUMPDEST ADD MLOAD PUSH1 0x0 NOT PUSH1 0xF8 DUP5 PUSH1 0x3 SHL AND SHR NOT AND SWAP1 SSTORE DUP9 DUP1 DUP1 PUSH2 0x21E4 JUMP JUMPDEST SWAP3 SWAP4 PUSH1 0x20 PUSH1 0x1 DUP2 SWAP3 DUP8 DUP7 ADD MLOAD DUP2 SSTORE ADD SWAP6 ADD SWAP4 ADD PUSH2 0x21CE JUMP JUMPDEST PUSH1 0x40 MLOAD PUSH3 0x461BCD PUSH1 0xE5 SHL DUP2 MSTORE PUSH1 0x20 PUSH1 0x4 DUP3 ADD MSTORE PUSH1 0x13 PUSH1 0x24 DUP3 ADD MSTORE PUSH19 0x46696C6520616C726561647920657869737473 PUSH1 0x68 SHL PUSH1 0x44 DUP3 ADD MSTORE PUSH1 0x64 SWAP1 REVERT JUMPDEST CALLVALUE PUSH2 0x354 JUMPI PUSH1 0x20 CALLDATASIZE PUSH1 0x3 NOT ADD SLT PUSH2 0x354 JUMPI PUSH1 0x1 PUSH1 0x1 PUSH1 0xA0 SHL SUB PUSH2 0x227E PUSH2 0x3AF7 JUMP JUMPDEST AND PUSH1 0x0 MSTORE PUSH1 0x0 PUSH1 0x20 MSTORE PUSH2 0x26F PUSH2 0xD84 PUSH1 0x9 PUSH1 0x40 PUSH1 0x0 KECCAK256 ADD PUSH2 0x40FB JUMP JUMPDEST CALLVALUE PUSH2 0x354 JUMPI PUSH1 0xA0 CALLDATASIZE PUSH1 0x3 NOT ADD SLT PUSH2 0x354 JUMPI PUSH2 0x22B3 PUSH2 0x3AF7 JUMP JUMPDEST PUSH1 0x1 PUSH1 0x1 PUSH1 0x40 SHL SUB PUSH1 0x24 CALLDATALOAD DUP2 DUP2 GT PUSH2 0x354 JUMPI PUSH2 0x22D3 SWAP1 CALLDATASIZE SWAP1 PUSH1 0x4 ADD PUSH2 0x3ACA JUMP JUMPDEST SWAP1 PUSH1 0x44 CALLDATALOAD DUP4 DUP2 GT PUSH2 0x354 JUMPI PUSH2 0x22EC SWAP1 CALLDATASIZE SWAP1 PUSH1 0x4 ADD PUSH2 0x3ACA JUMP JUMPDEST SWAP1 PUSH1 0x64 CALLDATALOAD DUP6 DUP2 GT PUSH2 0x354 JUMPI PUSH2 0x2305 SWAP1 CALLDATASIZE SWAP1 PUSH1 0x4 ADD PUSH2 0x3ACA JUMP JUMPDEST SWAP2 SWAP1 SWAP3 PUSH1 0x84 CALLDATALOAD DUP8 DUP2 GT PUSH2 0x354 JUMPI PUSH2 0x2320 SWAP1 CALLDATASIZE SWAP1 PUSH1 0x4 ADD PUSH2 0x3ACA JUMP JUMPDEST SWAP7 SWAP1 SWAP9 PUSH1 0x1 DUP1 PUSH1 0xA0 SHL SUB AND DUP1 PUSH1 0x0 MSTORE PUSH1 0x1 PUSH1 0x20 MSTORE PUSH1 0x40 PUSH1 0x0 KECCAK256 CALLER PUSH1 0x0 MSTORE PUSH1 0x20 MSTORE PUSH2 0x2357 PUSH1 0xFF PUSH1 0x5 PUSH1 0x40 PUSH1 0x0 KECCAK256 ADD SLOAD PUSH1 0x10 SHR AND PUSH2 0x44E4 JUMP JUMPDEST PUSH1 0x0 MSTORE PUSH1 0x1 PUSH1 0x20 MSTORE PUSH1 0x40 PUSH1 0x0 KECCAK256 CALLER PUSH1 0x0 MSTORE PUSH1 0x20 MSTORE PUSH1 0x40 PUSH1 0x0 KECCAK256 SWAP6 DUP9 DUP3 GT PUSH2 0x1ABE JUMPI DUP2 SWAP1 PUSH2 0x2394 DUP3 PUSH2 0x238B PUSH1 0x1 DUP12 ADD SLOAD PUSH2 0x3DF4 JUMP JUMPDEST PUSH1 0x1 DUP12 ADD PUSH2 0x3E45 JUMP JUMPDEST PUSH1 0x0 SWAP1 PUSH1 0x1F DUP4 GT PUSH1 0x1 EQ PUSH2 0x260C JUMPI PUSH1 0x0 SWAP3 PUSH2 0x2601 JUMPI JUMPDEST POP POP DUP2 PUSH1 0x1 SHL SWAP2 PUSH1 0x0 NOT SWAP1 PUSH1 0x3 SHL SHR NOT AND OR PUSH1 0x1 DUP7 ADD SSTORE JUMPDEST PUSH1 0x2 DUP6 ADD SWAP2 DUP8 DUP3 GT PUSH2 0x1ABE JUMPI DUP2 SWAP1 PUSH2 0x23DE DUP3 PUSH2 0x1E5E DUP7 SLOAD PUSH2 0x3DF4 JUMP JUMPDEST PUSH1 0x0 SWAP1 PUSH1 0x1F DUP4 GT PUSH1 0x1 EQ PUSH2 0x2596 JUMPI PUSH1 0x0 SWAP3 PUSH2 0x258B JUMPI JUMPDEST POP POP DUP2 PUSH1 0x1 SHL SWAP2 PUSH1 0x0 NOT SWAP1 PUSH1 0x3 SHL SHR NOT AND OR SWAP1 SSTORE JUMPDEST PUSH1 0x3 DUP4 ADD SWAP2 DUP6 DUP3 GT PUSH2 0x1ABE JUMPI PUSH2 0x2429 DUP3 PUSH2 0x2423 DUP6 SLOAD PUSH2 0x3DF4 JUMP JUMPDEST DUP6 PUSH2 0x3E45 JUMP JUMPDEST PUSH1 0x0 SWAP1 PUSH1 0x1F DUP4 GT PUSH1 0x1 EQ PUSH2 0x251F JUMPI PUSH1 0x4 SWAP5 SWAP4 SWAP3 SWAP2 PUSH1 0x0 SWAP2 DUP4 PUSH2 0x2514 JUMPI JUMPDEST POP POP DUP2 PUSH1 0x1 SHL SWAP2 PUSH1 0x0 NOT SWAP1 PUSH1 0x3 SHL SHR NOT AND OR SWAP1 SSTORE JUMPDEST ADD SWAP2 DUP2 GT PUSH2 0x1ABE JUMPI PUSH2 0x2477 DUP2 PUSH2 0x2471 DUP5 SLOAD PUSH2 0x3DF4 JUMP JUMPDEST DUP5 PUSH2 0x3E45 JUMP JUMPDEST PUSH1 0x0 PUSH1 0x1F DUP3 GT PUSH1 0x1 EQ PUSH2 0x24B2 JUMPI DUP2 SWAP3 SWAP4 PUSH1 0x0 SWAP3 PUSH2 0x24A7 JUMPI JUMPDEST POP POP PUSH1 0x0 NOT PUSH1 0x3 DUP4 SWAP1 SHL SHR NOT AND PUSH1 0x1 SWAP2 SWAP1 SWAP2 SHL OR SWAP1 SSTORE STOP JUMPDEST ADD CALLDATALOAD SWAP1 POP DUP4 DUP1 PUSH2 0x248F JUMP JUMPDEST PUSH1 0x1F NOT DUP3 AND SWAP4 DUP4 PUSH1 0x0 MSTORE PUSH1 0x20 PUSH1 0x0 KECCAK256 SWAP2 PUSH1 0x0 JUMPDEST DUP7 DUP2 LT PUSH2 0x24FC JUMPI POP DUP4 PUSH1 0x1 SWAP6 SWAP7 LT PUSH2 0x24E2 JUMPI JUMPDEST POP POP POP DUP2 SHL ADD SWAP1 SSTORE STOP JUMPDEST ADD CALLDATALOAD PUSH1 0x0 NOT PUSH1 0x3 DUP5 SWAP1 SHL PUSH1 0xF8 AND SHR NOT AND SWAP1 SSTORE DUP4 DUP1 DUP1 PUSH2 0x24D8 JUMP JUMPDEST SWAP1 SWAP3 PUSH1 0x20 PUSH1 0x1 DUP2 SWAP3 DUP7 DUP7 ADD CALLDATALOAD DUP2 SSTORE ADD SWAP5 ADD SWAP2 ADD PUSH2 0x24C5 JUMP JUMPDEST ADD CALLDATALOAD SWAP1 POP DUP9 DUP1 PUSH2 0x2446 JUMP JUMPDEST PUSH1 0x1F NOT DUP4 AND SWAP2 DUP5 PUSH1 0x0 MSTORE PUSH1 0x20 PUSH1 0x0 KECCAK256 SWAP3 PUSH1 0x0 JUMPDEST DUP2 DUP2 LT PUSH2 0x2573 JUMPI POP SWAP2 PUSH1 0x1 SWAP4 SWAP2 DUP6 PUSH1 0x4 SWAP9 SWAP8 SWAP7 SWAP5 LT PUSH2 0x2559 JUMPI JUMPDEST POP POP POP DUP2 SHL ADD SWAP1 SSTORE PUSH2 0x245B JUMP JUMPDEST ADD CALLDATALOAD PUSH1 0x0 NOT PUSH1 0x3 DUP5 SWAP1 SHL PUSH1 0xF8 AND SHR NOT AND SWAP1 SSTORE DUP9 DUP1 DUP1 PUSH2 0x254C JUMP JUMPDEST SWAP2 SWAP4 PUSH1 0x20 PUSH1 0x1 DUP2 SWAP3 DUP8 DUP8 ADD CALLDATALOAD DUP2 SSTORE ADD SWAP6 ADD SWAP3 ADD PUSH2 0x2532 JUMP JUMPDEST ADD CALLDATALOAD SWAP1 POP DUP10 DUP1 PUSH2 0x23F4 JUMP JUMPDEST SWAP1 SWAP2 POP PUSH1 0x1F NOT DUP4 AND SWAP2 DUP5 PUSH1 0x0 MSTORE PUSH1 0x20 PUSH1 0x0 KECCAK256 SWAP3 PUSH1 0x0 JUMPDEST DUP2 DUP2 LT PUSH2 0x25E9 JUMPI POP SWAP1 DUP5 PUSH1 0x1 SWAP6 SWAP5 SWAP4 SWAP3 LT PUSH2 0x25CF JUMPI JUMPDEST POP POP POP DUP2 SHL ADD SWAP1 SSTORE PUSH2 0x2409 JUMP JUMPDEST ADD CALLDATALOAD PUSH1 0x0 NOT PUSH1 0x3 DUP5 SWAP1 SHL PUSH1 0xF8 AND SHR NOT AND SWAP1 SSTORE DUP10 DUP1 DUP1 PUSH2 0x25C2 JUMP JUMPDEST SWAP2 SWAP4 PUSH1 0x20 PUSH1 0x1 DUP2 SWAP3 DUP8 DUP8 ADD CALLDATALOAD DUP2 SSTORE ADD SWAP6 ADD SWAP3 ADD PUSH2 0x25AC JUMP JUMPDEST ADD CALLDATALOAD SWAP1 POP DUP11 DUP1 PUSH2 0x23AA JUMP JUMPDEST SWAP1 SWAP2 POP PUSH1 0x1F NOT DUP4 AND SWAP2 PUSH1 0x1 DUP10 ADD PUSH1 0x0 MSTORE PUSH1 0x20 PUSH1 0x0 KECCAK256 SWAP3 PUSH1 0x0 JUMPDEST DUP2 DUP2 LT PUSH2 0x2665 JUMPI POP SWAP1 DUP5 PUSH1 0x1 SWAP6 SWAP5 SWAP4 SWAP3 LT PUSH2 0x264B JUMPI JUMPDEST POP POP POP DUP2 SHL ADD PUSH1 0x1 DUP7 ADD SSTORE PUSH2 0x23C2 JUMP JUMPDEST ADD CALLDATALOAD PUSH1 0x0 NOT PUSH1 0x3 DUP5 SWAP1 SHL PUSH1 0xF8 AND SHR NOT AND SWAP1 SSTORE DUP11 DUP1 DUP1 PUSH2 0x263B JUMP JUMPDEST SWAP2 SWAP4 PUSH1 0x20 PUSH1 0x1 DUP2 SWAP3 DUP8 DUP8 ADD CALLDATALOAD DUP2 SSTORE ADD SWAP6 ADD SWAP3 ADD PUSH2 0x2625 JUMP JUMPDEST CALLVALUE PUSH2 0x354 JUMPI PUSH1 0x20 CALLDATASIZE PUSH1 0x3 NOT ADD SLT PUSH2 0x354 JUMPI PUSH1 0x1 PUSH1 0x1 PUSH1 0xA0 SHL SUB PUSH2 0x269E PUSH2 0x3AF7 JUMP JUMPDEST AND PUSH1 0x0 MSTORE PUSH1 0x4 PUSH1 0x20 MSTORE PUSH1 0x40 DUP1 PUSH1 0x0 KECCAK256 PUSH1 0xFF PUSH1 0x7 DUP3 ADD SLOAD AND SWAP1 DUP2 PUSH2 0x26EB JUMPI JUMPDEST POP DUP1 DUP1 PUSH2 0x26D4 JUMPI JUMPDEST DUP3 MLOAD SWAP2 ISZERO ISZERO DUP3 MSTORE ISZERO ISZERO PUSH1 0x20 DUP3 ADD MSTORE RETURN JUMPDEST POP PUSH1 0x0 PUSH1 0x20 MSTORE PUSH1 0xFF PUSH1 0x7 DUP4 PUSH1 0x0 KECCAK256 ADD SLOAD AND ISZERO PUSH2 0x26C4 JUMP JUMPDEST PUSH1 0x6 SWAP2 POP ADD SLOAD TIMESTAMP LT ISZERO DUP3 PUSH2 0x26BC JUMP JUMPDEST CALLVALUE PUSH2 0x354 JUMPI PUSH1 0x20 CALLDATASIZE PUSH1 0x3 NOT ADD SLT PUSH2 0x354 JUMPI PUSH1 0x1 PUSH1 0x1 PUSH1 0xA0 SHL SUB PUSH2 0x271B PUSH2 0x3AF7 JUMP JUMPDEST AND PUSH1 0x0 MSTORE PUSH1 0x0 PUSH1 0x20 MSTORE PUSH2 0x2734 PUSH1 0x9 PUSH1 0x40 PUSH1 0x0 KECCAK256 ADD PUSH2 0x40FB JUMP JUMPDEST DUP1 MLOAD SWAP1 PUSH2 0x2740 DUP3 PUSH2 0x3D7C JUMP JUMPDEST SWAP2 PUSH2 0x274A DUP2 PUSH2 0x476C JUMP JUMPDEST SWAP3 PUSH2 0x2754 DUP3 PUSH2 0x3D7C JUMP JUMPDEST PUSH2 0x275D DUP4 PUSH2 0x3D7C JUMP JUMPDEST PUSH2 0x2766 DUP5 PUSH2 0x476C JUMP JUMPDEST SWAP2 PUSH2 0x2770 DUP6 PUSH2 0x476C JUMP JUMPDEST SWAP4 PUSH2 0x277A DUP7 PUSH2 0x476C JUMP JUMPDEST SWAP6 PUSH2 0x2784 DUP2 PUSH2 0x3D65 JUMP JUMPDEST SWAP8 PUSH2 0x2792 PUSH1 0x40 MLOAD SWAP10 DUP11 PUSH2 0x3D44 JUMP JUMPDEST DUP2 DUP10 MSTORE PUSH2 0x27AE PUSH1 0x1F NOT PUSH2 0x27A4 DUP5 PUSH2 0x3D65 JUMP JUMPDEST ADD PUSH1 0x20 DUP12 ADD PUSH2 0x474F JUMP JUMPDEST PUSH1 0x0 JUMPDEST DUP3 DUP2 LT PUSH2 0x28A2 JUMPI POP POP POP PUSH2 0x27ED SWAP7 SWAP6 SWAP4 PUSH2 0x2817 PUSH2 0x2833 SWAP5 PUSH2 0x2809 PUSH2 0x2841 SWAP9 SWAP6 PUSH2 0x27FB PUSH2 0x2825 SWAP7 PUSH1 0x40 MLOAD SWAP15 DUP16 SWAP15 DUP16 SWAP3 PUSH2 0x100 DUP1 DUP6 MSTORE DUP5 ADD SWAP1 PUSH2 0x3B23 JUMP JUMPDEST SWAP2 PUSH1 0x20 DUP2 DUP5 SUB SWAP2 ADD MSTORE PUSH2 0x3B97 JUMP JUMPDEST DUP13 DUP2 SUB PUSH1 0x40 DUP15 ADD MSTORE SWAP1 PUSH2 0x3BF3 JUMP JUMPDEST SWAP1 DUP11 DUP3 SUB PUSH1 0x60 DUP13 ADD MSTORE PUSH2 0x3C30 JUMP JUMPDEST SWAP1 DUP9 DUP3 SUB PUSH1 0x80 DUP11 ADD MSTORE PUSH2 0x3B97 JUMP JUMPDEST SWAP1 DUP7 DUP3 SUB PUSH1 0xA0 DUP9 ADD MSTORE PUSH2 0x3B97 JUMP JUMPDEST SWAP1 DUP5 DUP3 SUB PUSH1 0xC0 DUP7 ADD MSTORE PUSH2 0x3C66 JUMP JUMPDEST DUP3 DUP2 SUB PUSH1 0xE0 DUP5 ADD MSTORE DUP2 MLOAD DUP1 DUP3 MSTORE PUSH1 0x20 DUP3 ADD SWAP2 PUSH1 0x20 DUP1 DUP4 PUSH1 0x5 SHL DUP4 ADD ADD SWAP5 ADD SWAP3 PUSH1 0x0 SWAP2 JUMPDEST DUP4 DUP4 LT PUSH2 0x2871 JUMPI DUP7 DUP7 SUB DUP8 RETURN JUMPDEST SWAP2 SWAP4 SWAP6 POP SWAP2 SWAP4 PUSH1 0x20 DUP1 PUSH2 0x2890 PUSH1 0x1 SWAP4 PUSH1 0x1F NOT DUP7 DUP3 SUB ADD DUP8 MSTORE DUP10 MLOAD PUSH2 0x3BF3 JUMP JUMPDEST SWAP8 ADD SWAP4 ADD SWAP4 ADD SWAP1 SWAP3 DUP7 SWAP6 SWAP5 SWAP3 SWAP4 PUSH2 0x2864 JUMP JUMPDEST PUSH2 0x28B2 DUP2 DUP4 SWAP13 SWAP6 SWAP7 SWAP8 SWAP9 SWAP13 PUSH2 0x47A1 JUMP JUMPDEST MLOAD PUSH1 0x0 MSTORE PUSH1 0x2 DUP1 PUSH1 0x20 MSTORE PUSH1 0x40 PUSH1 0x0 KECCAK256 SWAP1 DUP2 SLOAD PUSH2 0x28CE DUP5 DUP10 PUSH2 0x47A1 JUMP JUMPDEST MSTORE PUSH2 0x28DB PUSH1 0x1 DUP4 ADD PUSH2 0x4057 JUMP JUMPDEST PUSH2 0x28E5 DUP5 DUP9 PUSH2 0x47A1 JUMP JUMPDEST MSTORE PUSH2 0x28F0 DUP4 DUP8 PUSH2 0x47A1 JUMP JUMPDEST POP DUP2 ADD SLOAD PUSH1 0x1 PUSH1 0x1 PUSH1 0xA0 SHL SUB DUP2 AND PUSH2 0x2908 DUP5 DUP11 PUSH2 0x47A1 JUMP JUMPDEST MSTORE PUSH2 0x2913 DUP4 DUP11 PUSH2 0x47A1 JUMP JUMPDEST SWAP1 PUSH1 0xA0 SHR PUSH1 0xFF AND ISZERO ISZERO SWAP1 MSTORE DUP2 DUP13 PUSH1 0x3 DUP4 ADD PUSH2 0x292D SWAP1 PUSH2 0x4057 JUMP JUMPDEST SWAP2 PUSH2 0x2937 SWAP2 PUSH2 0x47A1 JUMP JUMPDEST MSTORE PUSH2 0x2942 DUP3 DUP14 PUSH2 0x47A1 JUMP JUMPDEST POP PUSH2 0x294F PUSH1 0x4 DUP3 ADD PUSH2 0x4057 JUMP JUMPDEST PUSH2 0x2959 DUP4 DUP12 PUSH2 0x47A1 JUMP JUMPDEST MSTORE PUSH2 0x2964 DUP3 DUP11 PUSH2 0x47A1 JUMP JUMPDEST POP PUSH2 0x2971 PUSH1 0x7 DUP3 ADD PUSH2 0x40FB JUMP JUMPDEST PUSH2 0x297B DUP4 DUP13 PUSH2 0x47A1 JUMP JUMPDEST MSTORE PUSH2 0x2986 DUP3 DUP12 PUSH2 0x47A1 JUMP JUMPDEST POP PUSH1 0x6 ADD PUSH2 0x2993 SWAP1 PUSH2 0x46F7 JUMP JUMPDEST PUSH2 0x299D DUP3 DUP13 PUSH2 0x47A1 JUMP JUMPDEST MSTORE PUSH2 0x29A8 DUP2 DUP12 PUSH2 0x47A1 JUMP JUMPDEST POP PUSH2 0x29B2 SWAP1 PUSH2 0x3F7C JUMP JUMPDEST SWAP10 SWAP6 SWAP5 SWAP4 SWAP3 SWAP10 PUSH2 0x27B1 JUMP JUMPDEST CALLVALUE PUSH2 0x354 JUMPI PUSH1 0xE0 CALLDATASIZE PUSH1 0x3 NOT ADD SLT PUSH2 0x354 JUMPI PUSH2 0x29D6 PUSH2 0x3AF7 JUMP JUMPDEST PUSH1 0x24 CALLDATALOAD PUSH1 0x1 PUSH1 0x1 PUSH1 0x40 SHL SUB DUP2 GT PUSH2 0x354 JUMPI PUSH2 0x29F5 SWAP1 CALLDATASIZE SWAP1 PUSH1 0x4 ADD PUSH2 0x3ACA JUMP JUMPDEST SWAP2 PUSH1 0x44 CALLDATALOAD PUSH1 0x1 PUSH1 0x1 PUSH1 0x40 SHL SUB DUP2 GT PUSH2 0x354 JUMPI PUSH2 0x2A15 SWAP1 CALLDATASIZE SWAP1 PUSH1 0x4 ADD PUSH2 0x3ACA JUMP JUMPDEST PUSH1 0x64 SWAP4 DUP5 CALLDATALOAD PUSH1 0x1 PUSH1 0x1 PUSH1 0x40 SHL SUB DUP2 GT PUSH2 0x354 JUMPI PUSH2 0x2A36 SWAP1 CALLDATASIZE SWAP1 PUSH1 0x4 ADD PUSH2 0x3ACA JUMP JUMPDEST SWAP6 SWAP1 PUSH1 0x84 CALLDATALOAD PUSH1 0x1 PUSH1 0x1 PUSH1 0x40 SHL SUB DUP2 GT PUSH2 0x354 JUMPI PUSH2 0x2A57 SWAP1 CALLDATASIZE SWAP1 PUSH1 0x4 ADD PUSH2 0x3ACA JUMP JUMPDEST SWAP1 SWAP2 PUSH1 0xA4 CALLDATALOAD SWAP9 DUP10 ISZERO ISZERO DUP11 SUB PUSH2 0x354 JUMPI PUSH1 0x1 PUSH1 0x1 PUSH1 0x40 SHL SUB PUSH1 0xC4 CALLDATALOAD GT PUSH2 0x354 JUMPI CALLDATASIZE PUSH1 0x23 PUSH1 0xC4 CALLDATALOAD ADD SLT ISZERO PUSH2 0x354 JUMPI PUSH1 0x1 PUSH1 0x1 PUSH1 0x40 SHL SUB PUSH1 0xC4 CALLDATALOAD PUSH1 0x4 ADD CALLDATALOAD GT PUSH2 0x354 JUMPI CALLDATASIZE PUSH1 0x24 PUSH1 0xC4 CALLDATALOAD PUSH1 0x4 ADD CALLDATALOAD PUSH1 0x5 SHL PUSH1 0xC4 CALLDATALOAD ADD ADD GT PUSH2 0x354 JUMPI CALLER PUSH1 0x0 MSTORE PUSH1 0x0 PUSH1 0x20 MSTORE PUSH2 0x2ACE PUSH1 0xFF PUSH1 0x7 PUSH1 0x40 PUSH1 0x0 KECCAK256 ADD SLOAD PUSH1 0x8 SHR AND PUSH2 0x3ED0 JUMP JUMPDEST PUSH1 0x1 PUSH1 0x1 PUSH1 0xA0 SHL SUB DUP10 AND CALLER EQ PUSH2 0x32F1 JUMPI CALLER PUSH1 0x0 MSTORE PUSH1 0x1 PUSH1 0x20 MSTORE PUSH1 0x40 PUSH1 0x0 KECCAK256 PUSH1 0x1 DUP1 PUSH1 0xA0 SHL SUB DUP11 AND PUSH1 0x0 MSTORE PUSH1 0x20 MSTORE PUSH1 0xFF PUSH1 0x5 PUSH1 0x40 PUSH1 0x0 KECCAK256 ADD SLOAD PUSH1 0x10 SHR AND PUSH2 0x32B4 JUMPI SWAP3 DUP11 SWAP3 PUSH2 0x2B6A PUSH2 0x2B76 SWAP4 DUP12 SWAP7 PUSH2 0x2B4E PUSH1 0x40 MLOAD SWAP8 PUSH2 0x2B2A DUP10 PUSH2 0x3D29 JUMP JUMPDEST PUSH1 0x0 DUP10 MSTORE PUSH1 0x40 MLOAD SWAP10 PUSH2 0x2B3B DUP12 PUSH2 0x3CF2 JUMP JUMPDEST PUSH1 0x1 PUSH1 0x1 PUSH1 0xA0 SHL SUB AND DUP11 MSTORE CALLDATASIZE SWAP1 DUP13 PUSH2 0x3DAE JUMP JUMPDEST PUSH1 0x20 DUP10 ADD MSTORE PUSH2 0x2B5E CALLDATASIZE DUP13 DUP15 PUSH2 0x3DAE JUMP JUMPDEST PUSH1 0x40 DUP10 ADD MSTORE CALLDATASIZE SWAP2 PUSH2 0x3DAE JUMP JUMPDEST PUSH1 0x60 DUP7 ADD MSTORE CALLDATASIZE SWAP2 PUSH2 0x3DAE JUMP JUMPDEST PUSH1 0x80 DUP4 ADD MSTORE DUP8 ISZERO ISZERO PUSH1 0xA0 DUP4 ADD MSTORE PUSH1 0x1 PUSH1 0xC0 DUP4 ADD MSTORE PUSH1 0x1 PUSH1 0xE0 DUP4 ADD MSTORE PUSH2 0x100 DUP3 ADD MSTORE CALLER PUSH1 0x0 MSTORE PUSH1 0x1 PUSH1 0x20 MSTORE PUSH1 0x40 PUSH1 0x0 KECCAK256 PUSH1 0x1 DUP1 PUSH1 0xA0 SHL SUB DUP8 AND PUSH1 0x0 MSTORE PUSH1 0x20 MSTORE PUSH1 0x40 PUSH1 0x0 KECCAK256 SWAP1 PUSH1 0x1 DUP1 PUSH1 0xA0 SHL SUB DUP2 MLOAD AND PUSH1 0x1 PUSH1 0x1 PUSH1 0x60 SHL SUB PUSH1 0xA0 SHL DUP4 SLOAD AND OR DUP3 SSTORE PUSH1 0x20 DUP2 ADD MLOAD DUP1 MLOAD SWAP1 PUSH1 0x1 PUSH1 0x1 PUSH1 0x40 SHL SUB DUP3 GT PUSH2 0x1ABE JUMPI DUP2 SWAP1 PUSH2 0x2C07 DUP3 PUSH2 0x2BFE PUSH1 0x1 DUP9 ADD SLOAD PUSH2 0x3DF4 JUMP JUMPDEST PUSH1 0x1 DUP9 ADD PUSH2 0x3E45 JUMP JUMPDEST PUSH1 0x20 SWAP1 PUSH1 0x1F DUP4 GT PUSH1 0x1 EQ PUSH2 0x3242 JUMPI PUSH1 0x0 SWAP3 PUSH2 0x3237 JUMPI JUMPDEST POP POP DUP2 PUSH1 0x1 SHL SWAP2 PUSH1 0x0 NOT SWAP1 PUSH1 0x3 SHL SHR NOT AND OR PUSH1 0x1 DUP4 ADD SSTORE JUMPDEST PUSH1 0x40 DUP2 ADD MLOAD DUP1 MLOAD SWAP1 PUSH1 0x1 PUSH1 0x1 PUSH1 0x40 SHL SUB DUP3 GT PUSH2 0x1ABE JUMPI DUP2 SWAP1 PUSH2 0x2C67 DUP3 PUSH2 0x2C5E PUSH1 0x2 DUP9 ADD SLOAD PUSH2 0x3DF4 JUMP JUMPDEST PUSH1 0x2 DUP9 ADD PUSH2 0x3E45 JUMP JUMPDEST PUSH1 0x20 SWAP1 PUSH1 0x1F DUP4 GT PUSH1 0x1 EQ PUSH2 0x31C5 JUMPI PUSH1 0x0 SWAP3 PUSH2 0x31BA JUMPI JUMPDEST POP POP DUP2 PUSH1 0x1 SHL SWAP2 PUSH1 0x0 NOT SWAP1 PUSH1 0x3 SHL SHR NOT AND OR PUSH1 0x2 DUP4 ADD SSTORE JUMPDEST PUSH1 0x60 DUP2 ADD MLOAD DUP1 MLOAD SWAP1 PUSH1 0x1 PUSH1 0x1 PUSH1 0x40 SHL SUB DUP3 GT PUSH2 0x1ABE JUMPI DUP2 SWAP1 PUSH2 0x2CC7 DUP3 PUSH2 0x2CBE PUSH1 0x3 DUP9 ADD SLOAD PUSH2 0x3DF4 JUMP JUMPDEST PUSH1 0x3 DUP9 ADD PUSH2 0x3E45 JUMP JUMPDEST PUSH1 0x20 SWAP1 PUSH1 0x1F DUP4 GT PUSH1 0x1 EQ PUSH2 0x3148 JUMPI PUSH1 0x0 SWAP3 PUSH2 0x313D JUMPI JUMPDEST POP POP DUP2 PUSH1 0x1 SHL SWAP2 PUSH1 0x0 NOT SWAP1 PUSH1 0x3 SHL SHR NOT AND OR PUSH1 0x3 DUP4 ADD SSTORE JUMPDEST PUSH1 0x80 DUP2 ADD MLOAD DUP1 MLOAD SWAP1 PUSH1 0x1 PUSH1 0x1 PUSH1 0x40 SHL SUB DUP3 GT PUSH2 0x1ABE JUMPI PUSH2 0x2D1C DUP3 PUSH2 0x1948 PUSH1 0x4 DUP8 ADD SLOAD PUSH2 0x3DF4 JUMP JUMPDEST PUSH1 0x20 SWAP1 PUSH1 0x1F DUP4 GT PUSH1 0x1 EQ PUSH2 0x30C9 JUMPI PUSH2 0x100 SWAP4 SWAP3 SWAP2 PUSH1 0x0 SWAP2 DUP4 PUSH2 0x30BE JUMPI JUMPDEST POP POP DUP2 PUSH1 0x1 SHL SWAP2 PUSH1 0x0 NOT SWAP1 PUSH1 0x3 SHL SHR NOT AND OR PUSH1 0x4 DUP5 ADD SSTORE JUMPDEST PUSH1 0x5 DUP4 ADD PUSH2 0x2D71 PUSH1 0xA0 DUP4 ADD MLOAD ISZERO ISZERO DUP3 SWAP1 PUSH1 0xFF DUP1 NOT DUP4 SLOAD AND SWAP2 ISZERO ISZERO AND OR SWAP1 SSTORE JUMP JUMPDEST PUSH1 0xC0 DUP3 ADD MLOAD DUP2 SLOAD PUSH2 0xFF00 NOT AND SWAP1 ISZERO ISZERO PUSH1 0x8 SHL PUSH2 0xFF00 AND OR DUP2 SSTORE PUSH1 0xE0 DUP3 ADD MLOAD DUP2 SLOAD PUSH3 0xFF0000 NOT AND SWAP1 ISZERO ISZERO PUSH1 0x10 SHL PUSH3 0xFF0000 AND OR SWAP1 SSTORE ADD MLOAD DUP1 MLOAD SWAP2 PUSH1 0x1 PUSH1 0x1 PUSH1 0x40 SHL SUB DUP4 GT PUSH2 0x1ABE JUMPI PUSH1 0x1 PUSH1 0x40 SHL DUP4 GT PUSH2 0x1ABE JUMPI PUSH1 0x6 PUSH1 0x20 SWAP2 ADD SWAP2 PUSH2 0x2DD9 DUP5 DUP5 SLOAD DUP2 DUP7 SSTORE DUP6 PUSH2 0x3E8C JUMP JUMPDEST ADD SWAP1 PUSH1 0x0 MSTORE PUSH1 0x20 PUSH1 0x0 KECCAK256 PUSH1 0x0 JUMPDEST DUP4 DUP2 LT PUSH2 0x30AA JUMPI POP POP POP POP CALLER PUSH1 0x0 MSTORE PUSH1 0x0 PUSH1 0x20 MSTORE PUSH2 0x2E0B DUP6 PUSH1 0x8 PUSH1 0x40 PUSH1 0x0 KECCAK256 ADD PUSH2 0x3F41 JUMP JUMPDEST PUSH1 0x0 JUMPDEST PUSH1 0xC4 CALLDATALOAD PUSH1 0x4 ADD CALLDATALOAD DUP2 LT PUSH2 0x2E83 JUMPI POP POP SWAP2 PUSH2 0x2E68 SWAP2 PUSH2 0x2E5A PUSH32 0xD39B94C4E0A6DC7134A60E93B1E6D3076988E71A9558AFB69B3ECB6488DB04DD SWAP6 SWAP5 PUSH1 0x40 MLOAD SWAP9 PUSH1 0x60 DUP11 MSTORE PUSH1 0x60 DUP11 ADD SWAP2 PUSH2 0x3EAF JUMP JUMPDEST SWAP2 DUP8 DUP4 SUB PUSH1 0x20 DUP10 ADD MSTORE PUSH2 0x3EAF JUMP JUMPDEST SWAP3 ISZERO ISZERO PUSH1 0x40 DUP6 ADD MSTORE PUSH1 0x1 PUSH1 0x1 PUSH1 0xA0 SHL SUB AND SWAP3 CALLER SWAP3 DUP2 SWAP1 SUB SWAP1 LOG3 STOP JUMPDEST PUSH1 0x24 DUP2 PUSH1 0x5 SHL PUSH1 0xC4 CALLDATALOAD ADD ADD CALLDATALOAD PUSH1 0x0 MSTORE PUSH1 0x2 PUSH1 0x20 MSTORE PUSH2 0x2EAB PUSH1 0xFF PUSH1 0x5 PUSH1 0x40 PUSH1 0x0 KECCAK256 ADD SLOAD AND PUSH2 0x3FA1 JUMP JUMPDEST PUSH1 0x24 DUP2 PUSH1 0x5 SHL PUSH1 0xC4 CALLDATALOAD ADD ADD CALLDATALOAD PUSH1 0x0 MSTORE PUSH1 0x2 PUSH1 0x20 MSTORE PUSH2 0x2EDA CALLER PUSH1 0x1 DUP1 PUSH1 0xA0 SHL SUB PUSH1 0x2 PUSH1 0x40 PUSH1 0x0 KECCAK256 ADD SLOAD AND EQ PUSH2 0x3FE4 JUMP JUMPDEST PUSH2 0x2EEF DUP7 PUSH1 0x24 DUP4 PUSH1 0x5 SHL PUSH1 0xC4 CALLDATALOAD ADD ADD CALLDATALOAD PUSH2 0x447F JUMP JUMPDEST PUSH2 0x3054 JUMPI DUP1 PUSH1 0x24 PUSH2 0x304F SWAP3 PUSH1 0x5 SHL PUSH1 0xC4 CALLDATALOAD ADD ADD CALLDATALOAD PUSH1 0x0 MSTORE PUSH1 0x2 PUSH1 0x20 MSTORE PUSH2 0x2F1C DUP8 PUSH1 0x6 PUSH1 0x40 PUSH1 0x0 KECCAK256 ADD PUSH2 0x3F41 JUMP JUMPDEST CALLER PUSH1 0x0 MSTORE PUSH1 0x1 PUSH1 0x20 MSTORE PUSH1 0x40 PUSH1 0x0 KECCAK256 PUSH1 0x1 DUP1 PUSH1 0xA0 SHL SUB DUP9 AND PUSH1 0x0 MSTORE PUSH1 0x20 MSTORE PUSH2 0x2F55 PUSH1 0x24 DUP3 PUSH1 0x5 SHL PUSH1 0xC4 CALLDATALOAD ADD ADD CALLDATALOAD PUSH1 0x6 PUSH1 0x40 PUSH1 0x0 KECCAK256 ADD PUSH2 0x4022 JUMP JUMPDEST PUSH1 0x24 DUP2 PUSH1 0x5 SHL PUSH1 0xC4 CALLDATALOAD ADD ADD CALLDATALOAD PUSH1 0x0 MSTORE PUSH1 0x2 PUSH1 0x20 MSTORE PUSH2 0x300E PUSH1 0x40 PUSH1 0x0 KECCAK256 PUSH2 0x2FEC PUSH1 0x7 PUSH1 0x2 DUP4 ADD SLOAD SWAP3 PUSH1 0xFF PUSH1 0x40 MLOAD SWAP5 PUSH2 0x2F8B DUP7 PUSH2 0x3D0E JUMP JUMPDEST PUSH1 0x24 DUP9 PUSH1 0x5 SHL PUSH1 0xC4 CALLDATALOAD ADD ADD CALLDATALOAD DUP7 MSTORE PUSH2 0x2FA5 PUSH1 0x1 DUP5 ADD PUSH2 0x4057 JUMP JUMPDEST PUSH1 0x20 DUP8 ADD MSTORE PUSH1 0x1 PUSH1 0x1 PUSH1 0xA0 SHL SUB DUP2 AND PUSH1 0x40 DUP8 ADD MSTORE PUSH1 0xA0 SHR AND ISZERO ISZERO PUSH1 0x60 DUP6 ADD MSTORE PUSH2 0x2FD0 PUSH1 0x3 DUP3 ADD PUSH2 0x4057 JUMP JUMPDEST PUSH1 0x80 DUP6 ADD MSTORE PUSH2 0x2FE1 PUSH1 0x4 DUP3 ADD PUSH2 0x4057 JUMP JUMPDEST PUSH1 0xA0 DUP6 ADD MSTORE ADD PUSH2 0x40FB JUMP JUMPDEST PUSH1 0xC0 DUP3 ADD MSTORE PUSH1 0x1 PUSH1 0x1 PUSH1 0xA0 SHL SUB DUP10 AND PUSH1 0x0 SWAP1 DUP2 MSTORE PUSH1 0x5 PUSH1 0x20 MSTORE PUSH1 0x40 SWAP1 KECCAK256 PUSH2 0x4166 JUMP JUMPDEST PUSH1 0x1 PUSH1 0x1 PUSH1 0xA0 SHL SUB DUP8 AND PUSH1 0xC4 CALLDATALOAD PUSH1 0x5 DUP4 SWAP1 SHL ADD PUSH1 0x24 ADD CALLDATALOAD PUSH32 0x72024BC1A3BEFF7DF2FE575C8097C660EE4A4E15F263E037ED38560728681F1 PUSH1 0x0 DUP1 LOG3 PUSH2 0x3F7C JUMP JUMPDEST PUSH2 0x2E0E JUMP JUMPDEST PUSH1 0x40 MLOAD PUSH3 0x461BCD PUSH1 0xE5 SHL DUP2 MSTORE PUSH1 0x20 PUSH1 0x4 DUP3 ADD MSTORE PUSH1 0x29 PUSH1 0x24 DUP3 ADD MSTORE PUSH32 0x436F6E7461637420616C726561647920617574686F72697A656420666F722074 PUSH1 0x44 DUP3 ADD MSTORE PUSH9 0x1A1A5CC81D985D5B1D PUSH1 0xBA SHL DUP2 DUP5 ADD MSTORE PUSH1 0x84 SWAP1 REVERT JUMPDEST PUSH1 0x1 SWAP1 PUSH1 0x20 DUP5 MLOAD SWAP5 ADD SWAP4 DUP2 DUP5 ADD SSTORE ADD PUSH2 0x2DE6 JUMP JUMPDEST ADD MLOAD SWAP1 POP DUP13 DUP1 PUSH2 0x2D39 JUMP JUMPDEST SWAP1 PUSH1 0x4 DUP6 ADD PUSH1 0x0 MSTORE PUSH1 0x20 PUSH1 0x0 KECCAK256 SWAP2 PUSH1 0x0 JUMPDEST PUSH1 0x1F NOT DUP6 AND DUP2 LT PUSH2 0x3125 JUMPI POP SWAP2 DUP4 SWAP2 PUSH1 0x1 SWAP4 PUSH2 0x100 SWAP7 SWAP6 PUSH1 0x1F NOT DUP2 AND LT PUSH2 0x310C JUMPI JUMPDEST POP POP POP DUP2 SHL ADD PUSH1 0x4 DUP5 ADD SSTORE PUSH2 0x2D51 JUMP JUMPDEST ADD MLOAD PUSH1 0x0 NOT PUSH1 0xF8 DUP5 PUSH1 0x3 SHL AND SHR NOT AND SWAP1 SSTORE DUP13 DUP1 DUP1 PUSH2 0x30FC JUMP JUMPDEST SWAP2 SWAP3 PUSH1 0x20 PUSH1 0x1 DUP2 SWAP3 DUP7 DUP6 ADD MLOAD DUP2 SSTORE ADD SWAP5 ADD SWAP3 ADD PUSH2 0x30DA JUMP JUMPDEST ADD MLOAD SWAP1 POP DUP12 DUP1 PUSH2 0x2CDD JUMP JUMPDEST SWAP3 POP PUSH1 0x3 DUP6 ADD PUSH1 0x0 MSTORE PUSH1 0x20 PUSH1 0x0 KECCAK256 SWAP1 PUSH1 0x0 SWAP4 JUMPDEST PUSH1 0x1F NOT DUP5 AND DUP6 LT PUSH2 0x319F JUMPI PUSH1 0x1 SWAP5 POP DUP4 PUSH1 0x1F NOT DUP2 AND LT PUSH2 0x3186 JUMPI JUMPDEST POP POP POP DUP2 SHL ADD PUSH1 0x3 DUP4 ADD SSTORE PUSH2 0x2CF5 JUMP JUMPDEST ADD MLOAD PUSH1 0x0 NOT PUSH1 0xF8 DUP5 PUSH1 0x3 SHL AND SHR NOT AND SWAP1 SSTORE DUP12 DUP1 DUP1 PUSH2 0x3176 JUMP JUMPDEST DUP2 DUP2 ADD MLOAD DUP4 SSTORE PUSH1 0x20 SWAP5 DUP6 ADD SWAP5 PUSH1 0x1 SWAP1 SWAP4 ADD SWAP3 SWAP1 SWAP2 ADD SWAP1 PUSH2 0x315B JUMP JUMPDEST ADD MLOAD SWAP1 POP DUP12 DUP1 PUSH2 0x2C7D JUMP JUMPDEST SWAP3 POP PUSH1 0x2 DUP6 ADD PUSH1 0x0 MSTORE PUSH1 0x20 PUSH1 0x0 KECCAK256 SWAP1 PUSH1 0x0 SWAP4 JUMPDEST PUSH1 0x1F NOT DUP5 AND DUP6 LT PUSH2 0x321C JUMPI PUSH1 0x1 SWAP5 POP DUP4 PUSH1 0x1F NOT DUP2 AND LT PUSH2 0x3203 JUMPI JUMPDEST POP POP POP DUP2 SHL ADD PUSH1 0x2 DUP4 ADD SSTORE PUSH2 0x2C95 JUMP JUMPDEST ADD MLOAD PUSH1 0x0 NOT PUSH1 0xF8 DUP5 PUSH1 0x3 SHL AND SHR NOT AND SWAP1 SSTORE DUP12 DUP1 DUP1 PUSH2 0x31F3 JUMP JUMPDEST DUP2 DUP2 ADD MLOAD DUP4 SSTORE PUSH1 0x20 SWAP5 DUP6 ADD SWAP5 PUSH1 0x1 SWAP1 SWAP4 ADD SWAP3 SWAP1 SWAP2 ADD SWAP1 PUSH2 0x31D8 JUMP JUMPDEST ADD MLOAD SWAP1 POP DUP12 DUP1 PUSH2 0x2C1D JUMP JUMPDEST SWAP3 POP PUSH1 0x1 DUP6 ADD PUSH1 0x0 MSTORE PUSH1 0x20 PUSH1 0x0 KECCAK256 SWAP1 PUSH1 0x0 SWAP4 JUMPDEST PUSH1 0x1F NOT DUP5 AND DUP6 LT PUSH2 0x3299 JUMPI PUSH1 0x1 SWAP5 POP DUP4 PUSH1 0x1F NOT DUP2 AND LT PUSH2 0x3280 JUMPI JUMPDEST POP POP POP DUP2 SHL ADD PUSH1 0x1 DUP4 ADD SSTORE PUSH2 0x2C35 JUMP JUMPDEST ADD MLOAD PUSH1 0x0 NOT PUSH1 0xF8 DUP5 PUSH1 0x3 SHL AND SHR NOT AND SWAP1 SSTORE DUP12 DUP1 DUP1 PUSH2 0x3270 JUMP JUMPDEST DUP2 DUP2 ADD MLOAD DUP4 SSTORE PUSH1 0x20 SWAP5 DUP6 ADD SWAP5 PUSH1 0x1 SWAP1 SWAP4 ADD SWAP3 SWAP1 SWAP2 ADD SWAP1 PUSH2 0x3255 JUMP JUMPDEST PUSH1 0x40 MLOAD PUSH3 0x461BCD PUSH1 0xE5 SHL DUP2 MSTORE PUSH1 0x20 PUSH1 0x4 DUP3 ADD MSTORE PUSH1 0x16 PUSH1 0x24 DUP3 ADD MSTORE PUSH22 0x436F6E7461637420616C726561647920657869737473 PUSH1 0x50 SHL PUSH1 0x44 DUP3 ADD MSTORE DUP6 SWAP1 REVERT JUMPDEST PUSH1 0x40 MLOAD PUSH3 0x461BCD PUSH1 0xE5 SHL DUP2 MSTORE PUSH1 0x20 PUSH1 0x4 DUP3 ADD MSTORE PUSH1 0x1E PUSH1 0x24 DUP3 ADD MSTORE PUSH32 0x43616E6E6F742061646420796F757273656C6620617320636F6E746163740000 PUSH1 0x44 DUP3 ADD MSTORE DUP6 SWAP1 REVERT JUMPDEST CALLVALUE PUSH2 0x354 JUMPI PUSH1 0x40 CALLDATASIZE PUSH1 0x3 NOT ADD SLT PUSH2 0x354 JUMPI PUSH2 0x334E PUSH2 0x3AF7 JUMP JUMPDEST PUSH2 0x3356 PUSH2 0x3B0D JUMP JUMPDEST SWAP1 PUSH1 0x1 DUP1 PUSH1 0xA0 SHL SUB DUP1 SWAP2 AND PUSH1 0x0 MSTORE PUSH1 0x1 PUSH1 0x20 MSTORE PUSH1 0x40 PUSH1 0x0 KECCAK256 SWAP2 AND PUSH1 0x0 MSTORE PUSH1 0x20 MSTORE PUSH2 0x26F PUSH2 0xD84 PUSH1 0x6 PUSH1 0x40 PUSH1 0x0 KECCAK256 ADD PUSH2 0x40FB JUMP JUMPDEST CALLVALUE PUSH2 0x354 JUMPI PUSH1 0xA0 CALLDATASIZE PUSH1 0x3 NOT ADD SLT PUSH2 0x354 JUMPI PUSH1 0x4 CALLDATALOAD PUSH1 0x1 PUSH1 0x1 PUSH1 0x40 SHL SUB DUP2 GT PUSH2 0x354 JUMPI PUSH2 0x33B9 SWAP1 CALLDATASIZE SWAP1 PUSH1 0x4 ADD PUSH2 0x3ACA JUMP JUMPDEST SWAP1 PUSH1 0x24 CALLDATALOAD PUSH1 0x1 PUSH1 0x1 PUSH1 0x40 SHL SUB DUP2 GT PUSH2 0x354 JUMPI PUSH2 0x33D9 SWAP1 CALLDATASIZE SWAP1 PUSH1 0x4 ADD PUSH2 0x3ACA JUMP JUMPDEST PUSH1 0x44 SWAP4 SWAP2 SWAP4 CALLDATALOAD PUSH1 0x1 PUSH1 0x1 PUSH1 0x40 SHL SUB DUP2 GT PUSH2 0x354 JUMPI PUSH2 0x33FB SWAP1 CALLDATASIZE SWAP1 PUSH1 0x4 ADD PUSH2 0x3ACA JUMP JUMPDEST SWAP6 PUSH1 0x64 CALLDATALOAD PUSH1 0x1 PUSH1 0x1 PUSH1 0x40 SHL SUB DUP2 GT PUSH2 0x354 JUMPI PUSH2 0x341B SWAP1 CALLDATASIZE SWAP1 PUSH1 0x4 ADD PUSH2 0x3ACA JUMP JUMPDEST SWAP3 SWAP1 SWAP2 CALLER PUSH1 0x0 MSTORE PUSH1 0x0 PUSH1 0x20 MSTORE PUSH1 0xFF PUSH1 0x7 PUSH1 0x40 PUSH1 0x0 KECCAK256 ADD SLOAD PUSH1 0x8 SHR AND PUSH2 0x3A88 JUMPI POP PUSH3 0x15180 PUSH1 0x84 CALLDATALOAD LT PUSH2 0x3A43 JUMPI PUSH4 0x1E13380 PUSH1 0x84 CALLDATALOAD GT PUSH2 0x39FE JUMPI PUSH1 0x40 MLOAD SWAP2 PUSH2 0x3461 DUP4 PUSH2 0x3D29 JUMP JUMPDEST PUSH1 0x0 DUP4 MSTORE PUSH1 0x40 MLOAD SWAP4 PUSH2 0x3472 DUP6 PUSH2 0x3D29 JUMP JUMPDEST PUSH1 0x0 DUP6 MSTORE PUSH1 0x40 MLOAD SWAP10 DUP11 PUSH2 0x160 DUP2 ADD LT PUSH1 0x1 PUSH1 0x1 PUSH1 0x40 SHL SUB PUSH2 0x160 DUP14 ADD GT OR PUSH2 0x1ABE JUMPI PUSH2 0x34DC SWAP4 PUSH2 0x34D0 SWAP2 DUP13 PUSH1 0x40 PUSH2 0x34C6 DUP15 PUSH2 0x34B9 DUP16 DUP16 PUSH2 0x160 DUP8 ADD DUP7 MSTORE CALLER DUP8 MSTORE CALLDATASIZE SWAP2 PUSH2 0x3DAE JUMP JUMPDEST PUSH1 0x20 DUP6 ADD MSTORE DUP13 CALLDATASIZE SWAP2 PUSH2 0x3DAE JUMP JUMPDEST SWAP2 ADD MSTORE CALLDATASIZE SWAP2 PUSH2 0x3DAE JUMP JUMPDEST PUSH1 0x60 DUP12 ADD MSTORE CALLDATASIZE SWAP2 PUSH2 0x3DAE JUMP JUMPDEST PUSH1 0x80 DUP9 ADD MSTORE TIMESTAMP PUSH1 0xA0 DUP9 ADD MSTORE PUSH1 0x84 CALLDATALOAD PUSH1 0xC0 DUP9 ADD MSTORE PUSH1 0x0 PUSH1 0xE0 DUP9 ADD MSTORE PUSH1 0x1 PUSH2 0x100 DUP9 ADD MSTORE PUSH2 0x120 DUP8 ADD MSTORE PUSH2 0x140 DUP7 ADD MSTORE CALLER PUSH1 0x0 MSTORE PUSH1 0x0 PUSH1 0x20 MSTORE PUSH1 0x40 PUSH1 0x0 KECCAK256 PUSH1 0x1 DUP1 PUSH1 0xA0 SHL SUB DUP7 MLOAD AND PUSH1 0x1 PUSH1 0x1 PUSH1 0x60 SHL SUB PUSH1 0xA0 SHL DUP3 SLOAD AND OR DUP2 SSTORE PUSH1 0x20 DUP7 ADD MLOAD DUP1 MLOAD SWAP1 PUSH1 0x1 PUSH1 0x1 PUSH1 0x40 SHL SUB DUP3 GT PUSH2 0x1ABE JUMPI DUP2 SWAP1 PUSH2 0x355C DUP3 PUSH2 0x184E PUSH1 0x1 DUP8 ADD SLOAD PUSH2 0x3DF4 JUMP JUMPDEST PUSH1 0x20 SWAP1 PUSH1 0x1F DUP4 GT PUSH1 0x1 EQ PUSH2 0x398C JUMPI PUSH1 0x0 SWAP3 PUSH2 0x3981 JUMPI JUMPDEST POP POP DUP2 PUSH1 0x1 SHL SWAP2 PUSH1 0x0 NOT SWAP1 PUSH1 0x3 SHL SHR NOT AND OR PUSH1 0x1 DUP3 ADD SSTORE JUMPDEST PUSH1 0x40 DUP7 ADD MLOAD DUP1 MLOAD SWAP1 PUSH1 0x1 PUSH1 0x1 PUSH1 0x40 SHL SUB DUP3 GT PUSH2 0x1ABE JUMPI DUP2 SWAP1 PUSH2 0x35BC DUP3 PUSH2 0x35B3 PUSH1 0x2 DUP8 ADD SLOAD PUSH2 0x3DF4 JUMP JUMPDEST PUSH1 0x2 DUP8 ADD PUSH2 0x3E45 JUMP JUMPDEST PUSH1 0x20 SWAP1 PUSH1 0x1F DUP4 GT PUSH1 0x1 EQ PUSH2 0x390F JUMPI PUSH1 0x0 SWAP3 PUSH2 0x3904 JUMPI JUMPDEST POP POP DUP2 PUSH1 0x1 SHL SWAP2 PUSH1 0x0 NOT SWAP1 PUSH1 0x3 SHL SHR NOT AND OR PUSH1 0x2 DUP3 ADD SSTORE JUMPDEST PUSH1 0x60 DUP7 ADD MLOAD DUP1 MLOAD SWAP1 PUSH1 0x1 PUSH1 0x1 PUSH1 0x40 SHL SUB DUP3 GT PUSH2 0x1ABE JUMPI DUP2 SWAP1 PUSH2 0x3613 DUP3 PUSH2 0x18E8 PUSH1 0x3 DUP8 ADD SLOAD PUSH2 0x3DF4 JUMP JUMPDEST PUSH1 0x20 SWAP1 PUSH1 0x1F DUP4 GT PUSH1 0x1 EQ PUSH2 0x3892 JUMPI PUSH1 0x0 SWAP3 PUSH2 0x3887 JUMPI JUMPDEST POP POP DUP2 PUSH1 0x1 SHL SWAP2 PUSH1 0x0 NOT SWAP1 PUSH1 0x3 SHL SHR NOT AND OR PUSH1 0x3 DUP3 ADD SSTORE JUMPDEST PUSH1 0x80 DUP7 ADD MLOAD DUP1 MLOAD SWAP1 PUSH1 0x1 PUSH1 0x1 PUSH1 0x40 SHL SUB DUP3 GT PUSH2 0x1ABE JUMPI DUP2 SWAP1 PUSH2 0x366A DUP3 PUSH2 0x1948 PUSH1 0x4 DUP8 ADD SLOAD PUSH2 0x3DF4 JUMP JUMPDEST PUSH1 0x20 SWAP1 PUSH1 0x1F DUP4 GT PUSH1 0x1 EQ PUSH2 0x3815 JUMPI PUSH1 0x0 SWAP3 PUSH2 0x380A JUMPI JUMPDEST POP POP DUP2 PUSH1 0x1 SHL SWAP2 PUSH1 0x0 NOT SWAP1 PUSH1 0x3 SHL SHR NOT AND OR PUSH1 0x4 DUP3 ADD SSTORE JUMPDEST PUSH1 0xA0 DUP7 ADD MLOAD PUSH1 0x5 DUP3 ADD SSTORE PUSH1 0xC0 DUP7 ADD MLOAD PUSH1 0x6 DUP3 ADD SSTORE PUSH2 0x36EB PUSH1 0x7 DUP3 ADD PUSH2 0x36CF PUSH1 0xE0 DUP10 ADD MLOAD ISZERO ISZERO DUP3 SWAP1 PUSH1 0xFF DUP1 NOT DUP4 SLOAD AND SWAP2 ISZERO ISZERO AND OR SWAP1 SSTORE JUMP JUMPDEST PUSH2 0x100 DUP9 ADD MLOAD DUP2 SLOAD PUSH2 0xFF00 NOT AND SWAP1 ISZERO ISZERO PUSH1 0x8 SHL PUSH2 0xFF00 AND OR SWAP1 SSTORE JUMP JUMPDEST PUSH2 0x120 DUP7 ADD MLOAD SWAP1 DUP2 MLOAD PUSH1 0x1 PUSH1 0x1 PUSH1 0x40 SHL SUB DUP2 GT PUSH2 0x1ABE JUMPI PUSH1 0x1 PUSH1 0x40 SHL SWAP3 DUP4 DUP3 GT PUSH2 0x1ABE JUMPI PUSH1 0x20 PUSH1 0x8 DUP5 ADD SWAP2 PUSH2 0x3725 DUP5 DUP5 SLOAD DUP2 DUP7 SSTORE DUP6 PUSH2 0x3E8C JUMP JUMPDEST ADD SWAP1 PUSH1 0x0 MSTORE PUSH1 0x20 PUSH1 0x0 KECCAK256 PUSH1 0x0 JUMPDEST DUP4 DUP2 LT PUSH2 0x37ED JUMPI POP POP POP POP PUSH1 0x9 PUSH2 0x140 SWAP2 ADD SWAP7 ADD MLOAD DUP1 MLOAD SWAP2 PUSH1 0x1 PUSH1 0x1 PUSH1 0x40 SHL SUB DUP4 GT PUSH2 0x1ABE JUMPI DUP3 GT PUSH2 0x1ABE JUMPI PUSH1 0x20 SWAP1 PUSH2 0x3770 DUP4 DUP10 SLOAD DUP2 DUP12 SSTORE DUP11 PUSH2 0x3E8C JUMP JUMPDEST ADD SWAP6 PUSH1 0x0 MSTORE PUSH1 0x20 PUSH1 0x0 KECCAK256 SWAP6 PUSH1 0x0 JUMPDEST DUP3 DUP2 LT PUSH2 0x37D9 JUMPI DUP7 PUSH32 0x90FDCD9183750BDFB11BE5D6379C04E744E8F650AAC530EA853C19226EA7EB2B DUP8 DUP8 PUSH2 0x37D4 DUP9 PUSH2 0x37C4 PUSH1 0x40 MLOAD SWAP5 DUP6 SWAP5 PUSH1 0x40 DUP7 MSTORE PUSH1 0x40 DUP7 ADD SWAP2 PUSH2 0x3EAF JUMP JUMPDEST SWAP1 DUP4 DUP3 SUB PUSH1 0x20 DUP6 ADD MSTORE CALLER SWAP7 PUSH2 0x3EAF JUMP JUMPDEST SUB SWAP1 LOG2 STOP JUMPDEST PUSH1 0x1 SWAP1 PUSH1 0x20 DUP4 MLOAD SWAP4 ADD SWAP3 DUP2 DUP11 ADD SSTORE ADD PUSH2 0x377E JUMP JUMPDEST DUP3 MLOAD PUSH1 0x1 PUSH1 0x1 PUSH1 0xA0 SHL SUB AND DUP2 DUP4 ADD SSTORE PUSH1 0x20 SWAP1 SWAP3 ADD SWAP2 PUSH1 0x1 ADD PUSH2 0x3732 JUMP JUMPDEST ADD MLOAD SWAP1 POP DUP9 DUP1 PUSH2 0x3680 JUMP JUMPDEST SWAP3 POP PUSH1 0x4 DUP5 ADD PUSH1 0x0 MSTORE PUSH1 0x20 PUSH1 0x0 KECCAK256 SWAP1 PUSH1 0x0 SWAP4 JUMPDEST PUSH1 0x1F NOT DUP5 AND DUP6 LT PUSH2 0x386C JUMPI PUSH1 0x1 SWAP5 POP DUP4 PUSH1 0x1F NOT DUP2 AND LT PUSH2 0x3853 JUMPI JUMPDEST POP POP POP DUP2 SHL ADD PUSH1 0x4 DUP3 ADD SSTORE PUSH2 0x3698 JUMP JUMPDEST ADD MLOAD PUSH1 0x0 NOT PUSH1 0xF8 DUP5 PUSH1 0x3 SHL AND SHR NOT AND SWAP1 SSTORE DUP9 DUP1 DUP1 PUSH2 0x3843 JUMP JUMPDEST DUP2 DUP2 ADD MLOAD DUP4 SSTORE PUSH1 0x20 SWAP5 DUP6 ADD SWAP5 PUSH1 0x1 SWAP1 SWAP4 ADD SWAP3 SWAP1 SWAP2 ADD SWAP1 PUSH2 0x3828 JUMP JUMPDEST ADD MLOAD SWAP1 POP DUP9 DUP1 PUSH2 0x3629 JUMP JUMPDEST SWAP3 POP PUSH1 0x3 DUP5 ADD PUSH1 0x0 MSTORE PUSH1 0x20 PUSH1 0x0 KECCAK256 SWAP1 PUSH1 0x0 SWAP4 JUMPDEST PUSH1 0x1F NOT DUP5 AND DUP6 LT PUSH2 0x38E9 JUMPI PUSH1 0x1 SWAP5 POP DUP4 PUSH1 0x1F NOT DUP2 AND LT PUSH2 0x38D0 JUMPI JUMPDEST POP POP POP DUP2 SHL ADD PUSH1 0x3 DUP3 ADD SSTORE PUSH2 0x3641 JUMP JUMPDEST ADD MLOAD PUSH1 0x0 NOT PUSH1 0xF8 DUP5 PUSH1 0x3 SHL AND SHR NOT AND SWAP1 SSTORE DUP9 DUP1 DUP1 PUSH2 0x38C0 JUMP JUMPDEST DUP2 DUP2 ADD MLOAD DUP4 SSTORE PUSH1 0x20 SWAP5 DUP6 ADD SWAP5 PUSH1 0x1 SWAP1 SWAP4 ADD SWAP3 SWAP1 SWAP2 ADD SWAP1 PUSH2 0x38A5 JUMP JUMPDEST ADD MLOAD SWAP1 POP DUP9 DUP1 PUSH2 0x35D2 JUMP JUMPDEST SWAP3 POP PUSH1 0x2 DUP5 ADD PUSH1 0x0 MSTORE PUSH1 0x20 PUSH1 0x0 KECCAK256 SWAP1 PUSH1 0x0 SWAP4 JUMPDEST PUSH1 0x1F NOT DUP5 AND DUP6 LT PUSH2 0x3966 JUMPI PUSH1 0x1 SWAP5 POP DUP4 PUSH1 0x1F NOT DUP2 AND LT PUSH2 0x394D JUMPI JUMPDEST POP POP POP DUP2 SHL ADD PUSH1 0x2 DUP3 ADD SSTORE PUSH2 0x35EA JUMP JUMPDEST ADD MLOAD PUSH1 0x0 NOT PUSH1 0xF8 DUP5 PUSH1 0x3 SHL AND SHR NOT AND SWAP1 SSTORE DUP9 DUP1 DUP1 PUSH2 0x393D JUMP JUMPDEST DUP2 DUP2 ADD MLOAD DUP4 SSTORE PUSH1 0x20 SWAP5 DUP6 ADD SWAP5 PUSH1 0x1 SWAP1 SWAP4 ADD SWAP3 SWAP1 SWAP2 ADD SWAP1 PUSH2 0x3922 JUMP JUMPDEST ADD MLOAD SWAP1 POP DUP9 DUP1 PUSH2 0x3572 JUMP JUMPDEST SWAP3 POP PUSH1 0x1 DUP5 ADD PUSH1 0x0 MSTORE PUSH1 0x20 PUSH1 0x0 KECCAK256 SWAP1 PUSH1 0x0 SWAP4 JUMPDEST PUSH1 0x1F NOT DUP5 AND DUP6 LT PUSH2 0x39E3 JUMPI PUSH1 0x1 SWAP5 POP DUP4 PUSH1 0x1F NOT DUP2 AND LT PUSH2 0x39CA JUMPI JUMPDEST POP POP POP DUP2 SHL ADD PUSH1 0x1 DUP3 ADD SSTORE PUSH2 0x358A JUMP JUMPDEST ADD MLOAD PUSH1 0x0 NOT PUSH1 0xF8 DUP5 PUSH1 0x3 SHL AND SHR NOT AND SWAP1 SSTORE DUP9 DUP1 DUP1 PUSH2 0x39BA JUMP JUMPDEST DUP2 DUP2 ADD MLOAD DUP4 SSTORE PUSH1 0x20 SWAP5 DUP6 ADD SWAP5 PUSH1 0x1 SWAP1 SWAP4 ADD SWAP3 SWAP1 SWAP2 ADD SWAP1 PUSH2 0x399F JUMP JUMPDEST PUSH1 0x40 MLOAD PUSH3 0x461BCD PUSH1 0xE5 SHL DUP2 MSTORE PUSH1 0x20 PUSH1 0x4 DUP3 ADD MSTORE PUSH1 0x17 PUSH1 0x24 DUP3 ADD MSTORE PUSH32 0x477261636520696E74657276616C20746F6F206C6F6E67000000000000000000 PUSH1 0x44 DUP3 ADD MSTORE PUSH1 0x64 SWAP1 REVERT JUMPDEST PUSH1 0x40 MLOAD PUSH3 0x461BCD PUSH1 0xE5 SHL DUP2 MSTORE PUSH1 0x20 PUSH1 0x4 DUP3 ADD MSTORE PUSH1 0x18 PUSH1 0x24 DUP3 ADD MSTORE PUSH32 0x477261636520696E74657276616C20746F6F2073686F72740000000000000000 PUSH1 0x44 DUP3 ADD MSTORE PUSH1 0x64 SWAP1 REVERT JUMPDEST PUSH3 0x461BCD PUSH1 0xE5 SHL DUP2 MSTORE PUSH1 0x20 PUSH1 0x4 DUP3 ADD MSTORE PUSH1 0x18 PUSH1 0x24 DUP3 ADD MSTORE PUSH32 0x4F776E657220616C726561647920726567697374657265640000000000000000 PUSH1 0x44 DUP3 ADD MSTORE PUSH1 0x64 SWAP1 REVERT JUMPDEST SWAP2 DUP2 PUSH1 0x1F DUP5 ADD SLT ISZERO PUSH2 0x354 JUMPI DUP3 CALLDATALOAD SWAP2 PUSH1 0x1 PUSH1 0x1 PUSH1 0x40 SHL SUB DUP4 GT PUSH2 0x354 JUMPI PUSH1 0x20 DUP4 DUP2 DUP7 ADD SWAP6 ADD ADD GT PUSH2 0x354 JUMPI JUMP JUMPDEST PUSH1 0x4 CALLDATALOAD SWAP1 PUSH1 0x1 PUSH1 0x1 PUSH1 0xA0 SHL SUB DUP3 AND DUP3 SUB PUSH2 0x354 JUMPI JUMP JUMPDEST PUSH1 0x24 CALLDATALOAD SWAP1 PUSH1 0x1 PUSH1 0x1 PUSH1 0xA0 SHL SUB DUP3 AND DUP3 SUB PUSH2 0x354 JUMPI JUMP JUMPDEST SWAP1 DUP2 MLOAD DUP1 DUP3 MSTORE PUSH1 0x20 DUP1 DUP1 SWAP4 ADD SWAP4 ADD SWAP2 PUSH1 0x0 JUMPDEST DUP3 DUP2 LT PUSH2 0x3B43 JUMPI POP POP POP POP SWAP1 JUMP JUMPDEST DUP4 MLOAD DUP6 MSTORE SWAP4 DUP2 ADD SWAP4 SWAP3 DUP2 ADD SWAP3 PUSH1 0x1 ADD PUSH2 0x3B35 JUMP JUMPDEST SWAP2 SWAP1 DUP3 MLOAD SWAP3 DUP4 DUP3 MSTORE PUSH1 0x0 JUMPDEST DUP5 DUP2 LT PUSH2 0x3B83 JUMPI POP POP DUP3 PUSH1 0x0 PUSH1 0x20 DUP1 SWAP5 SWAP6 DUP5 ADD ADD MSTORE PUSH1 0x1F DUP1 NOT SWAP2 ADD AND ADD ADD SWAP1 JUMP JUMPDEST PUSH1 0x20 DUP2 DUP4 ADD DUP2 ADD MLOAD DUP5 DUP4 ADD DUP3 ADD MSTORE ADD PUSH2 0x3B62 JUMP JUMPDEST SWAP1 DUP1 DUP3 MLOAD SWAP1 DUP2 DUP2 MSTORE PUSH1 0x20 DUP1 SWAP2 ADD SWAP3 DUP2 DUP1 DUP5 PUSH1 0x5 SHL DUP4 ADD ADD SWAP6 ADD SWAP4 PUSH1 0x0 SWAP2 JUMPDEST DUP5 DUP4 LT PUSH2 0x3BC5 JUMPI POP POP POP POP POP POP SWAP1 JUMP JUMPDEST SWAP1 SWAP2 SWAP3 SWAP4 SWAP5 SWAP6 DUP5 DUP1 PUSH2 0x3BE3 PUSH1 0x1 SWAP4 PUSH1 0x1F NOT DUP7 DUP3 SUB ADD DUP8 MSTORE DUP11 MLOAD PUSH2 0x3B57 JUMP JUMPDEST SWAP9 ADD SWAP4 ADD SWAP4 ADD SWAP2 SWAP5 SWAP4 SWAP3 SWAP1 PUSH2 0x3BB5 JUMP JUMPDEST SWAP1 DUP2 MLOAD DUP1 DUP3 MSTORE PUSH1 0x20 DUP1 DUP1 SWAP4 ADD SWAP4 ADD SWAP2 PUSH1 0x0 JUMPDEST DUP3 DUP2 LT PUSH2 0x3C13 JUMPI POP POP POP POP SWAP1 JUMP JUMPDEST DUP4 MLOAD PUSH1 0x1 PUSH1 0x1 PUSH1 0xA0 SHL SUB AND DUP6 MSTORE SWAP4 DUP2 ADD SWAP4 SWAP3 DUP2 ADD SWAP3 PUSH1 0x1 ADD PUSH2 0x3C05 JUMP JUMPDEST SWAP1 DUP2 MLOAD DUP1 DUP3 MSTORE PUSH1 0x20 DUP1 DUP1 SWAP4 ADD SWAP4 ADD SWAP2 PUSH1 0x0 JUMPDEST DUP3 DUP2 LT PUSH2 0x3C50 JUMPI POP POP POP POP SWAP1 JUMP JUMPDEST DUP4 MLOAD ISZERO ISZERO DUP6 MSTORE SWAP4 DUP2 ADD SWAP4 SWAP3 DUP2 ADD SWAP3 PUSH1 0x1 ADD PUSH2 0x3C42 JUMP JUMPDEST SWAP1 DUP1 DUP3 MLOAD SWAP1 DUP2 DUP2 MSTORE PUSH1 0x20 DUP1 SWAP2 ADD SWAP3 DUP2 DUP1 DUP5 PUSH1 0x5 SHL DUP4 ADD ADD SWAP6 ADD SWAP4 PUSH1 0x0 DUP1 SWAP3 JUMPDEST DUP6 DUP5 LT PUSH2 0x3C96 JUMPI POP POP POP POP POP POP POP SWAP1 JUMP JUMPDEST SWAP1 SWAP2 SWAP3 SWAP4 DUP1 SWAP6 SWAP7 SWAP8 PUSH1 0x1F NOT DUP4 DUP3 SUB ADD DUP6 MSTORE DUP9 MLOAD SWAP1 DUP3 DUP1 DUP4 MLOAD SWAP3 DUP4 DUP2 MSTORE ADD SWAP3 ADD SWAP1 DUP6 SWAP1 JUMPDEST DUP1 DUP3 LT PUSH2 0x3CD9 JUMPI POP POP POP SWAP1 DUP1 PUSH1 0x1 SWAP3 SWAP10 ADD SWAP5 ADD SWAP5 ADD SWAP3 SWAP6 SWAP5 SWAP4 SWAP2 SWAP1 PUSH2 0x3C85 JUMP JUMPDEST SWAP2 SWAP4 DUP1 PUSH1 0x1 SWAP3 SWAP5 DUP7 MLOAD DUP2 MSTORE ADD SWAP5 ADD SWAP3 ADD DUP9 SWAP4 SWAP3 SWAP2 PUSH2 0x3CB9 JUMP JUMPDEST PUSH2 0x120 DUP2 ADD SWAP1 DUP2 LT PUSH1 0x1 PUSH1 0x1 PUSH1 0x40 SHL SUB DUP3 GT OR PUSH2 0x1ABE JUMPI PUSH1 0x40 MSTORE JUMP JUMPDEST PUSH1 0xE0 DUP2 ADD SWAP1 DUP2 LT PUSH1 0x1 PUSH1 0x1 PUSH1 0x40 SHL SUB DUP3 GT OR PUSH2 0x1ABE JUMPI PUSH1 0x40 MSTORE JUMP JUMPDEST PUSH1 0x20 DUP2 ADD SWAP1 DUP2 LT PUSH1 0x1 PUSH1 0x1 PUSH1 0x40 SHL SUB DUP3 GT OR PUSH2 0x1ABE JUMPI PUSH1 0x40 MSTORE JUMP JUMPDEST SWAP1 PUSH1 0x1F DUP1 NOT SWAP2 ADD AND DUP2 ADD SWAP1 DUP2 LT PUSH1 0x1 PUSH1 0x1 PUSH1 0x40 SHL SUB DUP3 GT OR PUSH2 0x1ABE JUMPI PUSH1 0x40 MSTORE JUMP JUMPDEST PUSH1 0x1 PUSH1 0x1 PUSH1 0x40 SHL SUB DUP2 GT PUSH2 0x1ABE JUMPI PUSH1 0x5 SHL PUSH1 0x20 ADD SWAP1 JUMP JUMPDEST SWAP1 PUSH2 0x3D86 DUP3 PUSH2 0x3D65 JUMP JUMPDEST PUSH2 0x3D93 PUSH1 0x40 MLOAD SWAP2 DUP3 PUSH2 0x3D44 JUMP JUMPDEST DUP3 DUP2 MSTORE DUP1 SWAP3 PUSH2 0x3DA4 PUSH1 0x1F NOT SWAP2 PUSH2 0x3D65 JUMP JUMPDEST ADD SWAP1 PUSH1 0x20 CALLDATASIZE SWAP2 ADD CALLDATACOPY JUMP JUMPDEST SWAP3 SWAP2 SWAP3 PUSH1 0x1 PUSH1 0x1 PUSH1 0x40 SHL SUB DUP3 GT PUSH2 0x1ABE JUMPI PUSH1 0x40 MLOAD SWAP2 PUSH2 0x3DD7 PUSH1 0x1F DUP3 ADD PUSH1 0x1F NOT AND PUSH1 0x20 ADD DUP5 PUSH2 0x3D44 JUMP JUMPDEST DUP3 SWAP5 DUP2 DUP5 MSTORE DUP2 DUP4 ADD GT PUSH2 0x354 JUMPI DUP3 DUP2 PUSH1 0x20 SWAP4 DUP5 PUSH1 0x0 SWAP7 ADD CALLDATACOPY ADD ADD MSTORE JUMP JUMPDEST SWAP1 PUSH1 0x1 DUP3 DUP2 SHR SWAP3 AND DUP1 ISZERO PUSH2 0x3E24 JUMPI JUMPDEST PUSH1 0x20 DUP4 LT EQ PUSH2 0x3E0E JUMPI JUMP JUMPDEST PUSH4 0x4E487B71 PUSH1 0xE0 SHL PUSH1 0x0 MSTORE PUSH1 0x22 PUSH1 0x4 MSTORE PUSH1 0x24 PUSH1 0x0 REVERT JUMPDEST SWAP2 PUSH1 0x7F AND SWAP2 PUSH2 0x3E03 JUMP JUMPDEST DUP2 DUP2 LT PUSH2 0x3E39 JUMPI POP POP JUMP JUMPDEST PUSH1 0x0 DUP2 SSTORE PUSH1 0x1 ADD PUSH2 0x3E2E JUMP JUMPDEST SWAP2 SWAP1 PUSH1 0x1F DUP2 GT PUSH2 0x3E54 JUMPI POP POP POP JUMP JUMPDEST PUSH2 0x3E80 SWAP3 PUSH1 0x0 MSTORE PUSH1 0x20 PUSH1 0x0 KECCAK256 SWAP1 PUSH1 0x20 PUSH1 0x1F DUP5 ADD PUSH1 0x5 SHR DUP4 ADD SWAP4 LT PUSH2 0x3E82 JUMPI JUMPDEST PUSH1 0x1F ADD PUSH1 0x5 SHR ADD SWAP1 PUSH2 0x3E2E JUMP JUMPDEST JUMP JUMPDEST SWAP1 SWAP2 POP DUP2 SWAP1 PUSH2 0x3E73 JUMP JUMPDEST SWAP2 DUP2 DUP2 LT PUSH2 0x3E99 JUMPI POP POP POP JUMP JUMPDEST PUSH2 0x3E80 SWAP3 PUSH1 0x0 MSTORE PUSH1 0x20 PUSH1 0x0 KECCAK256 SWAP2 DUP3 ADD SWAP2 ADD PUSH2 0x3E2E JUMP JUMPDEST SWAP1 DUP1 PUSH1 0x20 SWAP4 SWAP3 DUP2 DUP5 MSTORE DUP5 DUP5 ADD CALLDATACOPY PUSH1 0x0 DUP3 DUP3 ADD DUP5 ADD MSTORE PUSH1 0x1F ADD PUSH1 0x1F NOT AND ADD ADD SWAP1 JUMP JUMPDEST ISZERO PUSH2 0x3ED7 JUMPI JUMP JUMPDEST PUSH1 0x40 MLOAD PUSH3 0x461BCD PUSH1 0xE5 SHL DUP2 MSTORE PUSH1 0x20 PUSH1 0x4 DUP3 ADD MSTORE PUSH1 0x14 PUSH1 0x24 DUP3 ADD MSTORE PUSH20 0x13DDDB995C881B9BDD081C9959DA5CDD195C9959 PUSH1 0x62 SHL PUSH1 0x44 DUP3 ADD MSTORE PUSH1 0x64 SWAP1 REVERT JUMPDEST DUP1 SLOAD DUP3 LT ISZERO PUSH2 0x3F2B JUMPI PUSH1 0x0 MSTORE PUSH1 0x20 PUSH1 0x0 KECCAK256 ADD SWAP1 PUSH1 0x0 SWAP1 JUMP JUMPDEST PUSH4 0x4E487B71 PUSH1 0xE0 SHL PUSH1 0x0 MSTORE PUSH1 0x32 PUSH1 0x4 MSTORE PUSH1 0x24 PUSH1 0x0 REVERT JUMPDEST DUP1 SLOAD PUSH1 0x1 PUSH1 0x40 SHL DUP2 LT ISZERO PUSH2 0x1ABE JUMPI PUSH2 0x3F5E SWAP2 PUSH1 0x1 DUP3 ADD DUP2 SSTORE PUSH2 0x3F13 JUMP JUMPDEST DUP2 SWAP3 SWAP2 SLOAD SWAP1 PUSH1 0x3 SHL SWAP2 PUSH1 0x1 DUP1 PUSH1 0xA0 SHL SUB DUP1 SWAP2 AND DUP4 SHL SWAP3 SHL NOT AND OR SWAP1 SSTORE JUMP JUMPDEST PUSH1 0x0 NOT DUP2 EQ PUSH2 0x3F8B JUMPI PUSH1 0x1 ADD SWAP1 JUMP JUMPDEST PUSH4 0x4E487B71 PUSH1 0xE0 SHL PUSH1 0x0 MSTORE PUSH1 0x11 PUSH1 0x4 MSTORE PUSH1 0x24 PUSH1 0x0 REVERT JUMPDEST ISZERO PUSH2 0x3FA8 JUMPI JUMP JUMPDEST PUSH1 0x40 MLOAD PUSH3 0x461BCD PUSH1 0xE5 SHL DUP2 MSTORE PUSH1 0x20 PUSH1 0x4 DUP3 ADD MSTORE PUSH1 0x14 PUSH1 0x24 DUP3 ADD MSTORE PUSH20 0x15985D5B1D08191BD95CC81B9BDD08195E1A5CDD PUSH1 0x62 SHL PUSH1 0x44 DUP3 ADD MSTORE PUSH1 0x64 SWAP1 REVERT JUMPDEST ISZERO PUSH2 0x3FEB JUMPI JUMP JUMPDEST PUSH1 0x40 MLOAD PUSH3 0x461BCD PUSH1 0xE5 SHL DUP2 MSTORE PUSH1 0x20 PUSH1 0x4 DUP3 ADD MSTORE PUSH1 0xF PUSH1 0x24 DUP3 ADD MSTORE PUSH15 0x2737BA103B30BAB63A1037BBB732B9 PUSH1 0x89 SHL PUSH1 0x44 DUP3 ADD MSTORE PUSH1 0x64 SWAP1 REVERT JUMPDEST DUP1 SLOAD PUSH1 0x1 PUSH1 0x40 SHL DUP2 LT ISZERO PUSH2 0x1ABE JUMPI PUSH2 0x403F SWAP2 PUSH1 0x1 DUP3 ADD DUP2 SSTORE PUSH2 0x3F13 JUMP JUMPDEST DUP2 SWAP3 SWAP2 SLOAD SWAP1 PUSH1 0x3 SHL SWAP2 DUP3 SHL SWAP2 PUSH1 0x0 NOT SWAP1 SHL NOT AND OR SWAP1 SSTORE JUMP JUMPDEST SWAP1 PUSH1 0x40 MLOAD SWAP2 DUP3 PUSH1 0x0 DUP3 SLOAD SWAP3 PUSH2 0x406B DUP5 PUSH2 0x3DF4 JUMP JUMPDEST SWAP1 DUP2 DUP5 MSTORE PUSH1 0x1 SWAP5 DUP6 DUP2 AND SWAP1 DUP2 PUSH1 0x0 EQ PUSH2 0x40D8 JUMPI POP PUSH1 0x1 EQ PUSH2 0x4095 JUMPI JUMPDEST POP POP PUSH2 0x3E80 SWAP3 POP SUB DUP4 PUSH2 0x3D44 JUMP JUMPDEST SWAP1 SWAP4 SWAP2 POP PUSH1 0x0 MSTORE PUSH1 0x20 SWAP1 DUP2 PUSH1 0x0 KECCAK256 SWAP4 PUSH1 0x0 SWAP2 JUMPDEST DUP2 DUP4 LT PUSH2 0x40C0 JUMPI POP POP PUSH2 0x3E80 SWAP4 POP DUP3 ADD ADD CODESIZE DUP1 PUSH2 0x4087 JUMP JUMPDEST DUP6 SLOAD DUP9 DUP5 ADD DUP6 ADD MSTORE SWAP5 DUP6 ADD SWAP5 DUP8 SWAP5 POP SWAP2 DUP4 ADD SWAP2 PUSH2 0x40A8 JUMP JUMPDEST SWAP2 POP POP PUSH2 0x3E80 SWAP5 POP PUSH1 0x20 SWAP3 POP PUSH1 0xFF NOT AND DUP3 DUP5 ADD MSTORE ISZERO ISZERO PUSH1 0x5 SHL DUP3 ADD ADD CODESIZE DUP1 PUSH2 0x4087 JUMP JUMPDEST SWAP1 PUSH1 0x40 MLOAD SWAP2 DUP3 DUP2 SLOAD SWAP2 DUP3 DUP3 MSTORE PUSH1 0x20 SWAP3 DUP4 DUP4 ADD SWAP2 PUSH1 0x0 MSTORE DUP4 PUSH1 0x0 KECCAK256 SWAP4 PUSH1 0x0 SWAP1 JUMPDEST DUP3 DUP3 LT PUSH2 0x4130 JUMPI POP POP POP PUSH2 0x3E80 SWAP3 POP SUB DUP4 PUSH2 0x3D44 JUMP JUMPDEST DUP6 SLOAD DUP5 MSTORE PUSH1 0x1 SWAP6 DUP7 ADD SWAP6 DUP9 SWAP6 POP SWAP4 DUP2 ADD SWAP4 SWAP1 SWAP2 ADD SWAP1 PUSH2 0x411A JUMP JUMPDEST DUP1 SLOAD DUP3 LT ISZERO PUSH2 0x3F2B JUMPI PUSH1 0x0 MSTORE PUSH1 0x6 PUSH1 0x20 PUSH1 0x0 KECCAK256 SWAP2 MUL ADD SWAP1 PUSH1 0x0 SWAP1 JUMP JUMPDEST SWAP1 DUP2 SLOAD SWAP1 PUSH1 0x1 PUSH1 0x40 SHL SWAP2 DUP3 DUP2 LT ISZERO PUSH2 0x1ABE JUMPI PUSH2 0x4189 SWAP1 PUSH1 0x1 SWAP5 DUP6 DUP3 ADD DUP2 SSTORE PUSH2 0x414A JUMP JUMPDEST PUSH2 0x4469 JUMPI DUP2 MLOAD DUP2 SSTORE DUP4 DUP2 ADD SWAP3 PUSH1 0x20 SWAP2 DUP3 DUP5 ADD MLOAD SWAP5 DUP6 MLOAD PUSH1 0x1 PUSH1 0x1 PUSH1 0x40 SHL SUB SWAP7 DUP8 DUP3 GT PUSH2 0x1ABE JUMPI DUP2 SWAP1 PUSH2 0x41BF DUP3 PUSH2 0x1E5E DUP7 SLOAD PUSH2 0x3DF4 JUMP JUMPDEST DUP7 SWAP1 PUSH1 0x1F DUP4 GT PUSH1 0x1 EQ PUSH2 0x4406 JUMPI PUSH1 0x0 SWAP3 PUSH2 0x43FB JUMPI JUMPDEST POP POP PUSH1 0x0 NOT PUSH1 0x3 DUP4 SWAP1 SHL SHR NOT AND SWAP1 DUP9 SHL OR SWAP1 SSTORE JUMPDEST PUSH1 0x40 DUP5 ADD MLOAD PUSH1 0x2 DUP3 ADD DUP1 SLOAD PUSH1 0x60 DUP8 ADD MLOAD PUSH1 0xFF PUSH1 0xA0 SHL SWAP1 ISZERO ISZERO PUSH1 0xA0 SHL AND PUSH1 0x1 PUSH1 0x1 PUSH1 0xA0 SHL SUB SWAP1 SWAP4 AND PUSH1 0x1 PUSH1 0x1 PUSH1 0xA8 SHL SUB NOT SWAP1 SWAP2 AND OR SWAP2 SWAP1 SWAP2 OR SWAP1 SSTORE PUSH1 0x3 DUP2 ADD PUSH1 0x80 DUP6 ADD MLOAD DUP1 MLOAD SWAP1 DUP8 DUP3 GT PUSH2 0x1ABE JUMPI DUP2 SWAP1 PUSH2 0x4245 DUP3 PUSH2 0x1E5E DUP7 SLOAD PUSH2 0x3DF4 JUMP JUMPDEST DUP7 SWAP1 PUSH1 0x1F DUP4 GT PUSH1 0x1 EQ PUSH2 0x4398 JUMPI PUSH1 0x0 SWAP3 PUSH2 0x438D JUMPI JUMPDEST POP POP PUSH1 0x0 NOT PUSH1 0x3 DUP4 SWAP1 SHL SHR NOT AND SWAP1 DUP9 SHL OR SWAP1 SSTORE JUMPDEST PUSH1 0x4 DUP2 ADD PUSH1 0xA0 DUP6 ADD MLOAD DUP1 MLOAD SWAP1 DUP8 DUP3 GT PUSH2 0x1ABE JUMPI PUSH2 0x428F DUP3 PUSH2 0x2423 DUP6 SLOAD PUSH2 0x3DF4 JUMP JUMPDEST DUP6 SWAP1 PUSH1 0x1F DUP4 GT PUSH1 0x1 EQ PUSH2 0x431F JUMPI SWAP2 DUP1 PUSH1 0x5 SWAP5 SWAP3 PUSH1 0xC0 SWAP7 SWAP5 PUSH1 0x0 SWAP3 PUSH2 0x4314 JUMPI JUMPDEST POP POP PUSH1 0x0 NOT PUSH1 0x3 DUP4 SWAP1 SHL SHR NOT AND SWAP1 DUP11 SHL OR SWAP1 SSTORE JUMPDEST ADD SWAP4 ADD MLOAD SWAP1 DUP2 MLOAD SWAP5 DUP6 GT PUSH2 0x1ABE JUMPI DUP5 GT PUSH2 0x1ABE JUMPI DUP2 SWAP1 PUSH2 0x42E7 DUP6 DUP6 SLOAD DUP2 DUP8 SSTORE DUP7 PUSH2 0x3E8C JUMP JUMPDEST ADD SWAP2 PUSH1 0x0 MSTORE DUP1 PUSH1 0x0 KECCAK256 SWAP1 PUSH1 0x0 JUMPDEST DUP5 DUP2 LT PUSH2 0x4303 JUMPI POP POP POP POP POP POP JUMP JUMPDEST DUP4 MLOAD DUP4 DUP3 ADD SSTORE SWAP3 DUP2 ADD SWAP3 DUP6 ADD PUSH2 0x42F4 JUMP JUMPDEST ADD MLOAD SWAP1 POP CODESIZE DUP1 PUSH2 0x42AE JUMP JUMPDEST DUP10 SWAP3 SWAP2 PUSH1 0x1F NOT DUP4 AND SWAP2 DUP6 PUSH1 0x0 MSTORE DUP9 PUSH1 0x0 KECCAK256 SWAP3 PUSH1 0x0 JUMPDEST DUP11 DUP3 DUP3 LT PUSH2 0x4377 JUMPI POP POP SWAP2 PUSH1 0xC0 SWAP8 SWAP6 SWAP4 SWAP2 DUP6 PUSH1 0x5 SWAP9 SWAP7 SWAP5 LT PUSH2 0x435E JUMPI JUMPDEST POP POP POP DUP2 SHL ADD SWAP1 SSTORE PUSH2 0x42C2 JUMP JUMPDEST ADD MLOAD PUSH1 0x0 NOT PUSH1 0xF8 DUP5 PUSH1 0x3 SHL AND SHR NOT AND SWAP1 SSTORE CODESIZE DUP1 DUP1 PUSH2 0x4351 JUMP JUMPDEST DUP4 DUP6 ADD MLOAD DUP7 SSTORE DUP15 SWAP8 SWAP1 SWAP6 ADD SWAP5 SWAP4 DUP5 ADD SWAP4 ADD PUSH2 0x4334 JUMP JUMPDEST ADD MLOAD SWAP1 POP CODESIZE DUP1 PUSH2 0x425A JUMP JUMPDEST SWAP1 DUP11 SWAP4 POP PUSH1 0x1F NOT DUP4 AND SWAP2 DUP6 PUSH1 0x0 MSTORE DUP9 PUSH1 0x0 KECCAK256 SWAP3 PUSH1 0x0 JUMPDEST DUP11 DUP3 DUP3 LT PUSH2 0x43E5 JUMPI POP POP DUP5 GT PUSH2 0x43CC JUMPI JUMPDEST POP POP POP DUP2 SHL ADD SWAP1 SSTORE PUSH2 0x426E JUMP JUMPDEST ADD MLOAD PUSH1 0x0 NOT PUSH1 0xF8 DUP5 PUSH1 0x3 SHL AND SHR NOT AND SWAP1 SSTORE CODESIZE DUP1 DUP1 PUSH2 0x43BF JUMP JUMPDEST DUP4 DUP6 ADD MLOAD DUP7 SSTORE DUP15 SWAP8 SWAP1 SWAP6 ADD SWAP5 SWAP4 DUP5 ADD SWAP4 ADD PUSH2 0x43AE JUMP JUMPDEST ADD MLOAD SWAP1 POP CODESIZE DUP1 PUSH2 0x41D4 JUMP JUMPDEST SWAP1 DUP11 SWAP4 POP PUSH1 0x1F NOT DUP4 AND SWAP2 DUP6 PUSH1 0x0 MSTORE DUP9 PUSH1 0x0 KECCAK256 SWAP3 PUSH1 0x0 JUMPDEST DUP11 DUP3 DUP3 LT PUSH2 0x4453 JUMPI POP POP DUP5 GT PUSH2 0x443A JUMPI JUMPDEST POP POP POP DUP2 SHL ADD SWAP1 SSTORE PUSH2 0x41E8 JUMP JUMPDEST ADD MLOAD PUSH1 0x0 NOT PUSH1 0xF8 DUP5 PUSH1 0x3 SHL AND SHR NOT AND SWAP1 SSTORE CODESIZE DUP1 DUP1 PUSH2 0x442D JUMP JUMPDEST DUP4 DUP6 ADD MLOAD DUP7 SSTORE DUP15 SWAP8 SWAP1 SWAP6 ADD SWAP5 SWAP4 DUP5 ADD SWAP4 ADD PUSH2 0x441C JUMP JUMPDEST PUSH4 0x4E487B71 PUSH1 0xE0 SHL PUSH1 0x0 MSTORE PUSH1 0x0 PUSH1 0x4 MSTORE PUSH1 0x24 PUSH1 0x0 REVERT JUMPDEST PUSH1 0x0 MSTORE PUSH1 0x2 PUSH1 0x20 MSTORE PUSH1 0x40 PUSH1 0x0 KECCAK256 SWAP1 PUSH1 0x6 PUSH1 0x0 SWAP3 ADD DUP1 SLOAD SWAP3 JUMPDEST DUP4 DUP2 LT PUSH2 0x44A7 JUMPI POP POP POP POP PUSH1 0x0 SWAP1 JUMP JUMPDEST PUSH2 0x44B1 DUP2 DUP4 PUSH2 0x3F13 JUMP JUMPDEST SWAP1 SLOAD PUSH1 0x3 SWAP2 SWAP1 SWAP2 SHL SHR PUSH1 0x1 PUSH1 0x1 PUSH1 0xA0 SHL SUB SWAP1 DUP2 AND SWAP1 DUP5 AND EQ PUSH2 0x44DB JUMPI PUSH2 0x44D6 SWAP1 PUSH2 0x3F7C JUMP JUMPDEST PUSH2 0x4497 JUMP JUMPDEST POP POP POP POP PUSH1 0x1 SWAP1 JUMP JUMPDEST ISZERO PUSH2 0x44EB JUMPI JUMP JUMPDEST PUSH1 0x40 MLOAD PUSH3 0x461BCD PUSH1 0xE5 SHL DUP2 MSTORE PUSH1 0x20 PUSH1 0x4 DUP3 ADD MSTORE PUSH1 0x1B PUSH1 0x24 DUP3 ADD MSTORE PUSH32 0x4E6F74206120636F6E74616374206F662074686973206F776E65720000000000 PUSH1 0x44 DUP3 ADD MSTORE PUSH1 0x64 SWAP1 REVERT JUMPDEST ISZERO PUSH2 0x4537 JUMPI JUMP JUMPDEST PUSH1 0x40 MLOAD PUSH3 0x461BCD PUSH1 0xE5 SHL DUP2 MSTORE PUSH1 0x20 PUSH1 0x4 DUP3 ADD MSTORE PUSH1 0x10 PUSH1 0x24 DUP3 ADD MSTORE PUSH16 0x4E6F20766F74696E6720726967687473 PUSH1 0x80 SHL PUSH1 0x44 DUP3 ADD MSTORE PUSH1 0x64 SWAP1 REVERT JUMPDEST ISZERO PUSH2 0x4576 JUMPI JUMP JUMPDEST PUSH1 0x40 MLOAD PUSH3 0x461BCD PUSH1 0xE5 SHL DUP2 MSTORE PUSH1 0x20 PUSH1 0x4 DUP3 ADD MSTORE PUSH1 0x16 PUSH1 0x24 DUP3 ADD MSTORE PUSH22 0x13DDDB995C88185B1C9958591E48191958D9585CD959 PUSH1 0x52 SHL PUSH1 0x44 DUP3 ADD MSTORE PUSH1 0x64 SWAP1 REVERT JUMPDEST PUSH1 0x1 DUP1 PUSH1 0xA0 SHL SUB AND PUSH1 0x0 DUP2 DUP2 MSTORE PUSH1 0x4 PUSH1 0x20 MSTORE PUSH1 0x40 DUP1 DUP3 KECCAK256 PUSH1 0x4 DUP2 ADD SLOAD PUSH1 0x32 DUP2 MUL SWAP1 DUP1 DUP3 DIV PUSH1 0x32 EQ SWAP1 ISZERO OR ISZERO PUSH2 0x46E3 JUMPI PUSH1 0x64 SWAP1 DIV PUSH1 0x1 DUP2 ADD DUP1 SWAP2 GT PUSH2 0x46E3 JUMPI PUSH1 0x2 DUP3 ADD SLOAD DUP2 GT PUSH2 0x468E JUMPI POP PUSH1 0x5 DUP2 ADD PUSH2 0x100 PUSH2 0xFF00 NOT DUP3 SLOAD AND OR SWAP1 SSTORE PUSH1 0x7 DUP2 ADD PUSH1 0x1 PUSH1 0xFF NOT DUP3 SLOAD AND OR SWAP1 SSTORE PUSH1 0x1E TIMESTAMP ADD SWAP3 DUP4 TIMESTAMP GT PUSH2 0x467A JUMPI POP SWAP2 PUSH1 0x20 SWAP2 DUP2 PUSH1 0x6 PUSH32 0x2BB92F1150248E7F78A267B3904EBD95F62A5225D70DCC813FB6906C3A646E98 SWAP6 ADD SSTORE DUP5 PUSH1 0x0 DUP1 MLOAD PUSH1 0x20 PUSH2 0x47B6 DUP4 CODECOPY DUP2 MLOAD SWAP2 MSTORE DUP3 DUP1 MLOAD PUSH1 0x1 DUP2 MSTORE TIMESTAMP DUP8 DUP3 ADD MSTORE LOG2 MLOAD SWAP1 DUP2 MSTORE LOG2 JUMP JUMPDEST PUSH4 0x4E487B71 PUSH1 0xE0 SHL DUP2 MSTORE PUSH1 0x11 PUSH1 0x4 MSTORE PUSH1 0x24 SWAP1 REVERT JUMPDEST PUSH1 0x3 DUP3 SWAP5 SWAP3 ADD SLOAD LT ISZERO PUSH2 0x46A2 JUMPI JUMPDEST POP POP POP POP JUMP JUMPDEST PUSH1 0x7 DUP4 PUSH1 0x5 PUSH1 0x0 DUP1 MLOAD PUSH1 0x20 PUSH2 0x47B6 DUP4 CODECOPY DUP2 MLOAD SWAP2 MSTORE SWAP6 ADD PUSH2 0x100 PUSH2 0xFFFF NOT DUP3 SLOAD AND OR SWAP1 SSTORE ADD PUSH1 0xFF NOT DUP2 SLOAD AND SWAP1 SSTORE DUP2 MLOAD SWAP1 DUP2 MSTORE TIMESTAMP PUSH1 0x20 DUP3 ADD MSTORE LOG2 CODESIZE DUP1 DUP1 DUP1 PUSH2 0x469C JUMP JUMPDEST PUSH4 0x4E487B71 PUSH1 0xE0 SHL DUP5 MSTORE PUSH1 0x11 PUSH1 0x4 MSTORE PUSH1 0x24 DUP5 REVERT JUMPDEST SWAP1 PUSH1 0x40 MLOAD SWAP2 DUP3 DUP2 SLOAD SWAP2 DUP3 DUP3 MSTORE PUSH1 0x20 SWAP3 DUP4 DUP4 ADD SWAP2 PUSH1 0x0 MSTORE DUP4 PUSH1 0x0 KECCAK256 SWAP4 PUSH1 0x0 SWAP1 JUMPDEST DUP3 DUP3 LT PUSH2 0x472C JUMPI POP POP POP PUSH2 0x3E80 SWAP3 POP SUB DUP4 PUSH2 0x3D44 JUMP JUMPDEST DUP6 SLOAD PUSH1 0x1 PUSH1 0x1 PUSH1 0xA0 SHL SUB AND DUP5 MSTORE PUSH1 0x1 SWAP6 DUP7 ADD SWAP6 DUP9 SWAP6 POP SWAP4 DUP2 ADD SWAP4 SWAP1 SWAP2 ADD SWAP1 PUSH2 0x4716 JUMP JUMPDEST PUSH1 0x0 JUMPDEST DUP3 DUP2 LT PUSH2 0x475E JUMPI POP POP POP JUMP JUMPDEST PUSH1 0x60 DUP3 DUP3 ADD MSTORE PUSH1 0x20 ADD PUSH2 0x4752 JUMP JUMPDEST SWAP1 PUSH2 0x3E80 PUSH2 0x4779 DUP4 PUSH2 0x3D65 JUMP JUMPDEST PUSH2 0x4786 PUSH1 0x40 MLOAD SWAP2 DUP3 PUSH2 0x3D44 JUMP JUMPDEST DUP4 DUP2 MSTORE PUSH1 0x20 DUP2 SWAP5 PUSH2 0x4799 PUSH1 0x1F NOT SWAP2 PUSH2 0x3D65 JUMP JUMPDEST ADD SWAP2 ADD PUSH2 0x474F JUMP JUMPDEST DUP1 MLOAD DUP3 LT ISZERO PUSH2 0x3F2B JUMPI PUSH1 0x20 SWAP2 PUSH1 0x5 SHL ADD ADD SWAP1 JUMP INVALID 0xAC DUP10 0x2F SWAP15 LOG2 0xBA 0xC4 0xD1 NUMBER 0xF7 PUSH3 0x134B20 SWAP14 0xE5 PUSH31 0xFB94B00C56302AAED590951368EAACA2646970667358221220FD5DA6277B23 RETURNDATACOPY 0x23 0xE8 JUMPI 0xCD CALLCODE 0xAB PUSH9 0x8248AFA6824EEC756E GT EQ SWAP16 0xBA PUSH2 0x76D3 RETURNDATACOPY RETURNDATASIZE PUSH5 0x736F6C6343 STOP ADDMOD SGT STOP CALLER "},"methodIdentifiers":{"addContact(address,string,string,string,string,bool,uint256[])":"1fe7fe7e","addVaultFile(uint256,string,string,string,string)":"329a5ac0","authorizeVaultContact(uint256,address)":"7366252c","checkGracePeriodExpiry(address)":"2438f654","createVault(string,string,string)":"33587dc4","declareDeceased(address)":"abc22bbe","finalizeDeathDeclaration(address)":"8b771cc7","getContactAuthorizedVaults(address,address)":"1d2f4368","getContactInfo(address,address)":"60f490f7","getContactList(address)":"b385faa8","getContactListDetails(address)":"d72d3e16","getContactVaultDetails(address)":"ceb15920","getDeathDeclarationStatus(address)":"996e6ca1","getOwnerInfo(address)":"d385de82","getOwnerVaultList(address)":"2fda53e7","getOwnerVaultListDetails(address)":"20261995","getVaultAuthorizedContacts(uint256)":"490f0eba","getVaultFileInfo(uint256,uint256)":"3bfb14f5","getVaultFileList(uint256)":"75843618","getVaultInfo(uint256)":"b1ba9620","getVote(address,address)":"5ab4f162","hasVoted(address,address)":"4d4d2b1c","isVaultAuthorized(uint256,address)":"52e20c4f","registerOwner(string,string,string,string,uint256)":"0accc75d","releaseVault(uint256)":"b2b2baed","sendHeartbeat()":"34f167a9","updateContactInfo(address,string,string,string,string)":"2c8bc50b","verifyContact(address)":"6880f137","voteOnDeathDeclaration(address,bool)":"4e8e32b5"}}}}}