{"contracts/Vault.sol":{"Vault":{"abi":[{"inputs":[{"internalType":"string","name":"_vaultName","type":"string"}],"stateMutability":"nonpayable","type":"constructor"},{"inputs":[],"name":"ContactAlreadyAuthorized","type":"error"},{"inputs":[],"name":"ContactNotAuthorized","type":"error"},{"inputs":[],"name":"EmptyVaultName","type":"error"},{"inputs":[],"name":"NotAuthorized","type":"error"},{"inputs":[],"name":"NotOwner","type":"error"},{"inputs":[],"name":"VaultDataAlreadySet","type":"error"},{"inputs":[],"name":"VaultDataNotSet","type":"error"},{"inputs":[],"name":"VaultNotReleased","type":"error"},{"anonymous":false,"inputs":[{"indexed":true,"internalType":"address","name":"contact","type":"address"},{"indexed":true,"internalType":"address","name":"by","type":"address"}],"name":"ContactAuthorized","type":"event"},{"anonymous":false,"inputs":[{"indexed":true,"internalType":"address","name":"contact","type":"address"},{"indexed":true,"internalType":"address","name":"by","type":"address"}],"name":"ContactRevoked","type":"event"},{"anonymous":false,"inputs":[{"indexed":true,"internalType":"address","name":"by","type":"address"}],"name":"VaultDataRetrieved","type":"event"},{"anonymous":false,"inputs":[{"indexed":true,"internalType":"address","name":"by","type":"address"}],"name":"VaultDataStored","type":"event"},{"anonymous":false,"inputs":[{"indexed":false,"internalType":"string","name":"newName","type":"string"},{"indexed":true,"internalType":"address","name":"by","type":"address"}],"name":"VaultNameUpdated","type":"event"},{"anonymous":false,"inputs":[{"indexed":true,"internalType":"address","name":"by","type":"address"}],"name":"VaultReleased","type":"event"},{"inputs":[{"internalType":"address","name":"_contact","type":"address"}],"name":"addAuthorizedContact","outputs":[],"stateMutability":"nonpayable","type":"function"},{"inputs":[],"name":"debugAuth","outputs":[{"internalType":"address","name":"sender","type":"address"},{"internalType":"address","name":"contractOwner","type":"address"},{"internalType":"bool","name":"isOwnerMatch","type":"bool"},{"internalType":"bool","name":"isInContacts","type":"bool"},{"internalType":"bool","name":"vaultReleased","type":"bool"},{"internalType":"bool","name":"shouldPass","type":"bool"}],"stateMutability":"view","type":"function"},{"inputs":[],"name":"getAllAuthorizedContacts","outputs":[{"internalType":"address[]","name":"","type":"address[]"}],"stateMutability":"view","type":"function"},{"inputs":[],"name":"getOwner","outputs":[{"internalType":"address","name":"","type":"address"}],"stateMutability":"view","type":"function"},{"inputs":[],"name":"getVaultData","outputs":[{"internalType":"bytes","name":"","type":"bytes"}],"stateMutability":"nonpayable","type":"function"},{"inputs":[],"name":"getVaultInfo","outputs":[{"internalType":"address","name":"_owner","type":"address"},{"internalType":"string","name":"_name","type":"string"},{"internalType":"bool","name":"_released","type":"bool"},{"internalType":"bool","name":"_dataSet","type":"bool"},{"internalType":"uint256","name":"_contactCount","type":"uint256"}],"stateMutability":"view","type":"function"},{"inputs":[{"internalType":"address","name":"_contact","type":"address"}],"name":"isContactAuthorized","outputs":[{"internalType":"bool","name":"","type":"bool"}],"stateMutability":"view","type":"function"},{"inputs":[],"name":"isReleased","outputs":[{"internalType":"bool","name":"","type":"bool"}],"stateMutability":"view","type":"function"},{"inputs":[],"name":"isVaultDataSet","outputs":[{"internalType":"bool","name":"","type":"bool"}],"stateMutability":"view","type":"function"},{"inputs":[],"name":"owner","outputs":[{"internalType":"address","name":"","type":"address"}],"stateMutability":"view","type":"function"},{"inputs":[],"name":"releaseVault","outputs":[],"stateMutability":"nonpayable","type":"function"},{"inputs":[{"internalType":"address","name":"_contact","type":"address"}],"name":"removeAuthorizedContact","outputs":[],"stateMutability":"nonpayable","type":"function"},{"inputs":[{"internalType":"bytes","name":"_encryptedData","type":"bytes"}],"name":"setDataEncrypt","outputs":[],"stateMutability":"nonpayable","type":"function"},{"inputs":[{"internalType":"string","name":"_newName","type":"string"}],"name":"updateVaultName","outputs":[],"stateMutability":"nonpayable","type":"function"},{"inputs":[],"name":"vaultName","outputs":[{"internalType":"string","name":"","type":"string"}],"stateMutability":"view","type":"function"}],"evm":{"bytecode":{"linkReferences":{},"object":"60a060405234610283576111308038038061001981610288565b928339810190602081830312610283578051906001600160401b038211610283570181601f82011215610283578051906001600160401b0382116102475761006a601f8301601f1916602001610288565b92828452602083830101116102835760005b82811061026e578360006020858301015280511561025d573360805280516001600160401b03811161024757600054600181811c9116801561023d575b602082101461022757601f81116101c3575b50602091601f821160011461016057918192600092610155575b50508160011b916000199060031b1c1916176000555b60ff1960015416600155604051610e8290816102ae823960805181818161016d0152818161043e015281816104df0152818161058c015281816107380152818161082f0152818161092e01528181610c6b0152610ce50152f35b0151905082806100e5565b601f1982169260008052806000209160005b8581106101ab57508360019510610192575b505050811b016000556100fb565b015160001960f88460031b161c19169055828080610184565b91926020600181928685015181550194019201610172565b600080527f290decd9548b62a8d60345a988386fc84ba6bc95484008f6362f93160ef3e563601f830160051c8101916020841061021d575b601f0160051c01905b81811061021157506100cb565b60008155600101610204565b90915081906101fb565b634e487b7160e01b600052602260045260246000fd5b90607f16906100b9565b634e487b7160e01b600052604160045260246000fd5b632b69ef4960e01b60005260046000fd5b8060208092840101518282870101520161007c565b600080fd5b6040519190601f01601f191682016001600160401b038111838210176102475760405256fe6080604052600436101561001257600080fd5b60003560e01c80630ace9ca014610ae55780631f1a71d7146108b157806328b622d2146108135780633838fe73146107105780634b0f5728146105645780634bb2baa31461054157806363b1152a146104cc5780637b17266c146104895780637f98aa7114610402578063875e407a14610336578063893d20e8146103315780638da5cb5b14610331578063da27d7911461011d578063fa2a8997146100fa5763fef840ff146100c157600080fd5b346100f55760003660031901126100f5576100f16100dd610ce2565b604051918291602083526020830190610c14565b0390f35b600080fd5b346100f55760003660031901126100f557602060ff600154166040519015158152f35b346100f55760203660031901126100f55760043567ffffffffffffffff81116100f557366023820112156100f557806004013567ffffffffffffffff81116100f55736602482840101116100f5577f00000000000000000000000000000000000000000000000000000000000000006001600160a01b031633036103205760ff6003541661030f576000906101b3600254610b01565b601f81116102b6575b5081601f821160011461023357819083946101ec9492610225575b50508160011b916000199060031b1c19161790565b6002555b600160ff196003541617600355337fe37d3d6d86b687443d0b6a0d614d27ff9023699bc507a42fe91053f6deba164a8280a280f35b6024925001013584806101d7565b601f198216937f405787fa12a823e0f2b7631cc41b3ba8828b3321ca811111fa75cd3aa3bb5ace91845b86811061029b575083600195961061027e575b505050811b016002556101f0565b0160240135600019600384901b60f8161c19169055838080610270565b9092602060018192602487870101358155019401910161025d565b600283526102ff907f405787fa12a823e0f2b7631cc41b3ba8828b3321ca811111fa75cd3aa3bb5ace601f840160051c81019160208510610305575b601f0160051c0190610c9a565b836101bc565b90915081906102f2565b63107a1fd560e21b60005260046000fd5b6330cd747160e01b60005260046000fd5b610c55565b346100f55760003660031901126100f5576040518060206005549283815201809260056000527f036b6384b5eca791c62761152d0c79bb0604c104a5fb6f4eb0703f3154bb3db09060005b8181106103e35750505081610397910382610b3b565b6040519182916020830190602084525180915260408301919060005b8181106103c1575050500390f35b82516001600160a01b03168452859450602093840193909201916001016103b3565b82546001600160a01b0316845260209093019260019283019201610381565b346100f55760003660031901126100f55761047160ff6001541660ff600354169060055461042e610b5d565b9260405194859460018060a01b037f000000000000000000000000000000000000000000000000000000000000000016865260a0602087015260a0860190610c14565b92151560408501521515606084015260808301520390f35b346100f55760203660031901126100f5576004356001600160a01b038116908190036100f5576000526004602052602060ff604060002054166040519015158152f35b346100f55760003660031901126100f5577f00000000000000000000000000000000000000000000000000000000000000006001600160a01b0316330361032057600160ff1981541617600155337fd5859af634a05c1676c4e206a4f0a1743f733ed64e6645174fee172150f32cc4600080a2005b346100f55760003660031901126100f557602060ff600354166040519015158152f35b346100f55760203660031901126100f5576004356001600160a01b038116908190036100f5577f00000000000000000000000000000000000000000000000000000000000000006001600160a01b031633036103205780600052600460205260ff60406000205416156106ff576000818152600460205260408120805460ff191690555b60055490818110156106f857826105fe82610cb1565b905460039190911b1c6001600160a01b03161461061f5760019150016105e8565b60001982019182116106e25761065261063a61067693610cb1565b905460039190911b1c6001600160a01b031691610cb1565b81546001600160a01b0393841660039290921b91821b9390911b1916919091179055565b60055480156106cc576000190161068c81610cb1565b81549060018060a01b039060031b1b191690556005555b33907fcb0155b58744b4ee6e54e764bdb89963b2128f4a49c6e5d5aed26b301bb5a8f2600080a3005b634e487b7160e01b600052603160045260246000fd5b634e487b7160e01b600052601160045260246000fd5b50506106a3565b634748223f60e11b60005260046000fd5b346100f55760203660031901126100f5576004356001600160a01b038116908181036100f5577f00000000000000000000000000000000000000000000000000000000000000006001600160a01b031633036103205781156106ff5781600052600460205260ff60406000205416610802578160005260046020526040600020600160ff1982541617905560055490680100000000000000008210156107ec576106528260016107c39401600555610cb1565b33907fc929ec71ea5d504b1c3ce248ffefdde4b70bad1ca8e3a10ec24d4c0a687957da600080a3005b634e487b7160e01b600052604160045260246000fd5b63d492165960e01b60005260046000fd5b346100f55760003660031901126100f55760c060018060a01b037f00000000000000000000000000000000000000000000000000000000000000001680331433600052600460205260ff6040600020541660ff600154169082801561089b575b60405194338652602086015260408501521515606084015215156080830152151560a0820152f35b925081806108aa575b92610873565b50806108a4565b346100f55760203660031901126100f55760043567ffffffffffffffff81116100f557366023820112156100f557806004013567ffffffffffffffff81116107ec576040519161090b601f8301601f191660200184610b3b565b81835236602483830101116100f5578160009260246020930183860137830101527f00000000000000000000000000000000000000000000000000000000000000006001600160a01b0316330361032057805115610ad457805167ffffffffffffffff81116107ec5761097f600054610b01565b601f8111610a86575b506020601f8211600114610a045790806109b8926000916109f9575b508160011b916000199060031b1c19161790565b6000555b7f286bb1921653e708ac5b6ad4599e5173e73b914940eb328cba7471c200832c7a60405160208152806109f433946020830190610c14565b0390a2005b9050830151846109a4565b601f19821690600080527f290decd9548b62a8d60345a988386fc84ba6bc95484008f6362f93160ef3e5639160005b818110610a6e57509083600194939210610a55575b5050811b016000556109bc565b84015160001960f88460031b161c191690558380610a48565b91926020600181928689015181550194019201610a33565b60008052610ace907f290decd9548b62a8d60345a988386fc84ba6bc95484008f6362f93160ef3e563601f840160051c8101916020851061030557601f0160051c0190610c9a565b82610988565b632b69ef4960e01b60005260046000fd5b346100f55760003660031901126100f5576100f16100dd610b5d565b90600182811c92168015610b31575b6020831014610b1b57565b634e487b7160e01b600052602260045260246000fd5b91607f1691610b10565b90601f8019910116810190811067ffffffffffffffff8211176107ec57604052565b6040519060008260005491610b7183610b01565b8083529260018116908115610bf55750600114610b97575b610b9592500383610b3b565b565b50600080805290917f290decd9548b62a8d60345a988386fc84ba6bc95484008f6362f93160ef3e5635b818310610bd9575050906020610b9592820101610b89565b6020919350806001915483858901015201910190918492610bc1565b60209250610b9594915060ff191682840152151560051b820101610b89565b919082519283825260005b848110610c40575050826000602080949584010152601f8019910116010190565b80602080928401015182828601015201610c1f565b346100f55760003660031901126100f5576040517f00000000000000000000000000000000000000000000000000000000000000006001600160a01b03168152602090f35b818110610ca5575050565b60008155600101610c9a565b600554811015610ccc57600560005260206000200190600090565b634e487b7160e01b600052603260045260246000fd5b337f00000000000000000000000000000000000000000000000000000000000000006001600160a01b031614610d505760ff6001541615610d3f5733600052600460205260ff6040600020541615610d3f57610d3c610d54565b90565b63ea8e4eb560e01b60005260046000fd5b610d3c5b60ff6003541615610e3b57604051337f84893e6b945418b50268d87630732a9055d1d763d580114c986d89329f17440f600080a2600254816000610d9783610b01565b8083529260018116908115610e1c5750600114610dbb575b610d3c92500382610b3b565b509060026000527f405787fa12a823e0f2b7631cc41b3ba8828b3321ca811111fa75cd3aa3bb5ace906000915b818310610e00575050906020610d3c92820101610daf565b6020919350806001915483858801015201910190918392610de8565b60209250610d3c94915060ff191682840152151560051b820101610daf565b631c32abd360e11b60005260046000fdfea26469706673582212200e0f9b6b808cbc6ab22f9c74c8bdad0d3cc651a9de8ae0f27d7f9bf3fec28eb564736f6c634300081c0033","opcodes":"PUSH1 0xA0 PUSH1 0x40 MSTORE CALLVALUE PUSH2 0x283 JUMPI PUSH2 0x1130 DUP1 CODESIZE SUB DUP1 PUSH2 0x19 DUP2 PUSH2 0x288 JUMP JUMPDEST SWAP3 DUP4 CODECOPY DUP2 ADD SWAP1 PUSH1 0x20 DUP2 DUP4 SUB SLT PUSH2 0x283 JUMPI DUP1 MLOAD SWAP1 PUSH1 0x1 PUSH1 0x1 PUSH1 0x40 SHL SUB DUP3 GT PUSH2 0x283 JUMPI ADD DUP2 PUSH1 0x1F DUP3 ADD SLT ISZERO PUSH2 0x283 JUMPI DUP1 MLOAD SWAP1 PUSH1 0x1 PUSH1 0x1 PUSH1 0x40 SHL SUB DUP3 GT PUSH2 0x247 JUMPI PUSH2 0x6A PUSH1 0x1F DUP4 ADD PUSH1 0x1F NOT AND PUSH1 0x20 ADD PUSH2 0x288 JUMP JUMPDEST SWAP3 DUP3 DUP5 MSTORE PUSH1 0x20 DUP4 DUP4 ADD ADD GT PUSH2 0x283 JUMPI PUSH1 0x0 JUMPDEST DUP3 DUP2 LT PUSH2 0x26E JUMPI DUP4 PUSH1 0x0 PUSH1 0x20 DUP6 DUP4 ADD ADD MSTORE DUP1 MLOAD ISZERO PUSH2 0x25D JUMPI CALLER PUSH1 0x80 MSTORE DUP1 MLOAD PUSH1 0x1 PUSH1 0x1 PUSH1 0x40 SHL SUB DUP2 GT PUSH2 0x247 JUMPI PUSH1 0x0 SLOAD PUSH1 0x1 DUP2 DUP2 SHR SWAP2 AND DUP1 ISZERO PUSH2 0x23D JUMPI JUMPDEST PUSH1 0x20 DUP3 LT EQ PUSH2 0x227 JUMPI PUSH1 0x1F DUP2 GT PUSH2 0x1C3 JUMPI JUMPDEST POP PUSH1 0x20 SWAP2 PUSH1 0x1F DUP3 GT PUSH1 0x1 EQ PUSH2 0x160 JUMPI SWAP2 DUP2 SWAP3 PUSH1 0x0 SWAP3 PUSH2 0x155 JUMPI JUMPDEST POP POP DUP2 PUSH1 0x1 SHL SWAP2 PUSH1 0x0 NOT SWAP1 PUSH1 0x3 SHL SHR NOT AND OR PUSH1 0x0 SSTORE JUMPDEST PUSH1 0xFF NOT PUSH1 0x1 SLOAD AND PUSH1 0x1 SSTORE PUSH1 0x40 MLOAD PUSH2 0xE82 SWAP1 DUP2 PUSH2 0x2AE DUP3 CODECOPY PUSH1 0x80 MLOAD DUP2 DUP2 DUP2 PUSH2 0x16D ADD MSTORE DUP2 DUP2 PUSH2 0x43E ADD MSTORE DUP2 DUP2 PUSH2 0x4DF ADD MSTORE DUP2 DUP2 PUSH2 0x58C ADD MSTORE DUP2 DUP2 PUSH2 0x738 ADD MSTORE DUP2 DUP2 PUSH2 0x82F ADD MSTORE DUP2 DUP2 PUSH2 0x92E ADD MSTORE DUP2 DUP2 PUSH2 0xC6B ADD MSTORE PUSH2 0xCE5 ADD MSTORE RETURN JUMPDEST ADD MLOAD SWAP1 POP DUP3 DUP1 PUSH2 0xE5 JUMP JUMPDEST PUSH1 0x1F NOT DUP3 AND SWAP3 PUSH1 0x0 DUP1 MSTORE DUP1 PUSH1 0x0 KECCAK256 SWAP2 PUSH1 0x0 JUMPDEST DUP6 DUP2 LT PUSH2 0x1AB JUMPI POP DUP4 PUSH1 0x1 SWAP6 LT PUSH2 0x192 JUMPI JUMPDEST POP POP POP DUP2 SHL ADD PUSH1 0x0 SSTORE PUSH2 0xFB JUMP JUMPDEST ADD MLOAD PUSH1 0x0 NOT PUSH1 0xF8 DUP5 PUSH1 0x3 SHL AND SHR NOT AND SWAP1 SSTORE DUP3 DUP1 DUP1 PUSH2 0x184 JUMP JUMPDEST SWAP2 SWAP3 PUSH1 0x20 PUSH1 0x1 DUP2 SWAP3 DUP7 DUP6 ADD MLOAD DUP2 SSTORE ADD SWAP5 ADD SWAP3 ADD PUSH2 0x172 JUMP JUMPDEST PUSH1 0x0 DUP1 MSTORE PUSH32 0x290DECD9548B62A8D60345A988386FC84BA6BC95484008F6362F93160EF3E563 PUSH1 0x1F DUP4 ADD PUSH1 0x5 SHR DUP2 ADD SWAP2 PUSH1 0x20 DUP5 LT PUSH2 0x21D JUMPI JUMPDEST PUSH1 0x1F ADD PUSH1 0x5 SHR ADD SWAP1 JUMPDEST DUP2 DUP2 LT PUSH2 0x211 JUMPI POP PUSH2 0xCB JUMP JUMPDEST PUSH1 0x0 DUP2 SSTORE PUSH1 0x1 ADD PUSH2 0x204 JUMP JUMPDEST SWAP1 SWAP2 POP DUP2 SWAP1 PUSH2 0x1FB JUMP JUMPDEST PUSH4 0x4E487B71 PUSH1 0xE0 SHL PUSH1 0x0 MSTORE PUSH1 0x22 PUSH1 0x4 MSTORE PUSH1 0x24 PUSH1 0x0 REVERT JUMPDEST SWAP1 PUSH1 0x7F AND SWAP1 PUSH2 0xB9 JUMP JUMPDEST PUSH4 0x4E487B71 PUSH1 0xE0 SHL PUSH1 0x0 MSTORE PUSH1 0x41 PUSH1 0x4 MSTORE PUSH1 0x24 PUSH1 0x0 REVERT JUMPDEST PUSH4 0x2B69EF49 PUSH1 0xE0 SHL PUSH1 0x0 MSTORE PUSH1 0x4 PUSH1 0x0 REVERT JUMPDEST DUP1 PUSH1 0x20 DUP1 SWAP3 DUP5 ADD ADD MLOAD DUP3 DUP3 DUP8 ADD ADD MSTORE ADD PUSH2 0x7C JUMP JUMPDEST PUSH1 0x0 DUP1 REVERT JUMPDEST PUSH1 0x40 MLOAD SWAP2 SWAP1 PUSH1 0x1F ADD PUSH1 0x1F NOT AND DUP3 ADD PUSH1 0x1 PUSH1 0x1 PUSH1 0x40 SHL SUB DUP2 GT DUP4 DUP3 LT OR PUSH2 0x247 JUMPI PUSH1 0x40 MSTORE JUMP INVALID PUSH1 0x80 PUSH1 0x40 MSTORE PUSH1 0x4 CALLDATASIZE LT ISZERO PUSH2 0x12 JUMPI PUSH1 0x0 DUP1 REVERT JUMPDEST PUSH1 0x0 CALLDATALOAD PUSH1 0xE0 SHR DUP1 PUSH4 0xACE9CA0 EQ PUSH2 0xAE5 JUMPI DUP1 PUSH4 0x1F1A71D7 EQ PUSH2 0x8B1 JUMPI DUP1 PUSH4 0x28B622D2 EQ PUSH2 0x813 JUMPI DUP1 PUSH4 0x3838FE73 EQ PUSH2 0x710 JUMPI DUP1 PUSH4 0x4B0F5728 EQ PUSH2 0x564 JUMPI DUP1 PUSH4 0x4BB2BAA3 EQ PUSH2 0x541 JUMPI DUP1 PUSH4 0x63B1152A EQ PUSH2 0x4CC JUMPI DUP1 PUSH4 0x7B17266C EQ PUSH2 0x489 JUMPI DUP1 PUSH4 0x7F98AA71 EQ PUSH2 0x402 JUMPI DUP1 PUSH4 0x875E407A EQ PUSH2 0x336 JUMPI DUP1 PUSH4 0x893D20E8 EQ PUSH2 0x331 JUMPI DUP1 PUSH4 0x8DA5CB5B EQ PUSH2 0x331 JUMPI DUP1 PUSH4 0xDA27D791 EQ PUSH2 0x11D JUMPI DUP1 PUSH4 0xFA2A8997 EQ PUSH2 0xFA JUMPI PUSH4 0xFEF840FF EQ PUSH2 0xC1 JUMPI PUSH1 0x0 DUP1 REVERT JUMPDEST CALLVALUE PUSH2 0xF5 JUMPI PUSH1 0x0 CALLDATASIZE PUSH1 0x3 NOT ADD SLT PUSH2 0xF5 JUMPI PUSH2 0xF1 PUSH2 0xDD PUSH2 0xCE2 JUMP JUMPDEST PUSH1 0x40 MLOAD SWAP2 DUP3 SWAP2 PUSH1 0x20 DUP4 MSTORE PUSH1 0x20 DUP4 ADD SWAP1 PUSH2 0xC14 JUMP JUMPDEST SUB SWAP1 RETURN JUMPDEST PUSH1 0x0 DUP1 REVERT JUMPDEST CALLVALUE PUSH2 0xF5 JUMPI PUSH1 0x0 CALLDATASIZE PUSH1 0x3 NOT ADD SLT PUSH2 0xF5 JUMPI PUSH1 0x20 PUSH1 0xFF PUSH1 0x1 SLOAD AND PUSH1 0x40 MLOAD SWAP1 ISZERO ISZERO DUP2 MSTORE RETURN JUMPDEST CALLVALUE PUSH2 0xF5 JUMPI PUSH1 0x20 CALLDATASIZE PUSH1 0x3 NOT ADD SLT PUSH2 0xF5 JUMPI PUSH1 0x4 CALLDATALOAD PUSH8 0xFFFFFFFFFFFFFFFF DUP2 GT PUSH2 0xF5 JUMPI CALLDATASIZE PUSH1 0x23 DUP3 ADD SLT ISZERO PUSH2 0xF5 JUMPI DUP1 PUSH1 0x4 ADD CALLDATALOAD PUSH8 0xFFFFFFFFFFFFFFFF DUP2 GT PUSH2 0xF5 JUMPI CALLDATASIZE PUSH1 0x24 DUP3 DUP5 ADD ADD GT PUSH2 0xF5 JUMPI PUSH32 0x0 PUSH1 0x1 PUSH1 0x1 PUSH1 0xA0 SHL SUB AND CALLER SUB PUSH2 0x320 JUMPI PUSH1 0xFF PUSH1 0x3 SLOAD AND PUSH2 0x30F JUMPI PUSH1 0x0 SWAP1 PUSH2 0x1B3 PUSH1 0x2 SLOAD PUSH2 0xB01 JUMP JUMPDEST PUSH1 0x1F DUP2 GT PUSH2 0x2B6 JUMPI JUMPDEST POP DUP2 PUSH1 0x1F DUP3 GT PUSH1 0x1 EQ PUSH2 0x233 JUMPI DUP2 SWAP1 DUP4 SWAP5 PUSH2 0x1EC SWAP5 SWAP3 PUSH2 0x225 JUMPI JUMPDEST POP POP DUP2 PUSH1 0x1 SHL SWAP2 PUSH1 0x0 NOT SWAP1 PUSH1 0x3 SHL SHR NOT AND OR SWAP1 JUMP JUMPDEST PUSH1 0x2 SSTORE JUMPDEST PUSH1 0x1 PUSH1 0xFF NOT PUSH1 0x3 SLOAD AND OR PUSH1 0x3 SSTORE CALLER PUSH32 0xE37D3D6D86B687443D0B6A0D614D27FF9023699BC507A42FE91053F6DEBA164A DUP3 DUP1 LOG2 DUP1 RETURN JUMPDEST PUSH1 0x24 SWAP3 POP ADD ADD CALLDATALOAD DUP5 DUP1 PUSH2 0x1D7 JUMP JUMPDEST PUSH1 0x1F NOT DUP3 AND SWAP4 PUSH32 0x405787FA12A823E0F2B7631CC41B3BA8828B3321CA811111FA75CD3AA3BB5ACE SWAP2 DUP5 JUMPDEST DUP7 DUP2 LT PUSH2 0x29B JUMPI POP DUP4 PUSH1 0x1 SWAP6 SWAP7 LT PUSH2 0x27E JUMPI JUMPDEST POP POP POP DUP2 SHL ADD PUSH1 0x2 SSTORE PUSH2 0x1F0 JUMP JUMPDEST ADD PUSH1 0x24 ADD CALLDATALOAD PUSH1 0x0 NOT PUSH1 0x3 DUP5 SWAP1 SHL PUSH1 0xF8 AND SHR NOT AND SWAP1 SSTORE DUP4 DUP1 DUP1 PUSH2 0x270 JUMP JUMPDEST SWAP1 SWAP3 PUSH1 0x20 PUSH1 0x1 DUP2 SWAP3 PUSH1 0x24 DUP8 DUP8 ADD ADD CALLDATALOAD DUP2 SSTORE ADD SWAP5 ADD SWAP2 ADD PUSH2 0x25D JUMP JUMPDEST PUSH1 0x2 DUP4 MSTORE PUSH2 0x2FF SWAP1 PUSH32 0x405787FA12A823E0F2B7631CC41B3BA8828B3321CA811111FA75CD3AA3BB5ACE PUSH1 0x1F DUP5 ADD PUSH1 0x5 SHR DUP2 ADD SWAP2 PUSH1 0x20 DUP6 LT PUSH2 0x305 JUMPI JUMPDEST PUSH1 0x1F ADD PUSH1 0x5 SHR ADD SWAP1 PUSH2 0xC9A JUMP JUMPDEST DUP4 PUSH2 0x1BC JUMP JUMPDEST SWAP1 SWAP2 POP DUP2 SWAP1 PUSH2 0x2F2 JUMP JUMPDEST PUSH4 0x107A1FD5 PUSH1 0xE2 SHL PUSH1 0x0 MSTORE PUSH1 0x4 PUSH1 0x0 REVERT JUMPDEST PUSH4 0x30CD7471 PUSH1 0xE0 SHL PUSH1 0x0 MSTORE PUSH1 0x4 PUSH1 0x0 REVERT JUMPDEST PUSH2 0xC55 JUMP JUMPDEST CALLVALUE PUSH2 0xF5 JUMPI PUSH1 0x0 CALLDATASIZE PUSH1 0x3 NOT ADD SLT PUSH2 0xF5 JUMPI PUSH1 0x40 MLOAD DUP1 PUSH1 0x20 PUSH1 0x5 SLOAD SWAP3 DUP4 DUP2 MSTORE ADD DUP1 SWAP3 PUSH1 0x5 PUSH1 0x0 MSTORE PUSH32 0x36B6384B5ECA791C62761152D0C79BB0604C104A5FB6F4EB0703F3154BB3DB0 SWAP1 PUSH1 0x0 JUMPDEST DUP2 DUP2 LT PUSH2 0x3E3 JUMPI POP POP POP DUP2 PUSH2 0x397 SWAP2 SUB DUP3 PUSH2 0xB3B JUMP JUMPDEST PUSH1 0x40 MLOAD SWAP2 DUP3 SWAP2 PUSH1 0x20 DUP4 ADD SWAP1 PUSH1 0x20 DUP5 MSTORE MLOAD DUP1 SWAP2 MSTORE PUSH1 0x40 DUP4 ADD SWAP2 SWAP1 PUSH1 0x0 JUMPDEST DUP2 DUP2 LT PUSH2 0x3C1 JUMPI POP POP POP SUB SWAP1 RETURN JUMPDEST DUP3 MLOAD PUSH1 0x1 PUSH1 0x1 PUSH1 0xA0 SHL SUB AND DUP5 MSTORE DUP6 SWAP5 POP PUSH1 0x20 SWAP4 DUP5 ADD SWAP4 SWAP1 SWAP3 ADD SWAP2 PUSH1 0x1 ADD PUSH2 0x3B3 JUMP JUMPDEST DUP3 SLOAD PUSH1 0x1 PUSH1 0x1 PUSH1 0xA0 SHL SUB AND DUP5 MSTORE PUSH1 0x20 SWAP1 SWAP4 ADD SWAP3 PUSH1 0x1 SWAP3 DUP4 ADD SWAP3 ADD PUSH2 0x381 JUMP JUMPDEST CALLVALUE PUSH2 0xF5 JUMPI PUSH1 0x0 CALLDATASIZE PUSH1 0x3 NOT ADD SLT PUSH2 0xF5 JUMPI PUSH2 0x471 PUSH1 0xFF PUSH1 0x1 SLOAD AND PUSH1 0xFF PUSH1 0x3 SLOAD AND SWAP1 PUSH1 0x5 SLOAD PUSH2 0x42E PUSH2 0xB5D JUMP JUMPDEST SWAP3 PUSH1 0x40 MLOAD SWAP5 DUP6 SWAP5 PUSH1 0x1 DUP1 PUSH1 0xA0 SHL SUB PUSH32 0x0 AND DUP7 MSTORE PUSH1 0xA0 PUSH1 0x20 DUP8 ADD MSTORE PUSH1 0xA0 DUP7 ADD SWAP1 PUSH2 0xC14 JUMP JUMPDEST SWAP3 ISZERO ISZERO PUSH1 0x40 DUP6 ADD MSTORE ISZERO ISZERO PUSH1 0x60 DUP5 ADD MSTORE PUSH1 0x80 DUP4 ADD MSTORE SUB SWAP1 RETURN JUMPDEST CALLVALUE PUSH2 0xF5 JUMPI PUSH1 0x20 CALLDATASIZE PUSH1 0x3 NOT ADD SLT PUSH2 0xF5 JUMPI PUSH1 0x4 CALLDATALOAD PUSH1 0x1 PUSH1 0x1 PUSH1 0xA0 SHL SUB DUP2 AND SWAP1 DUP2 SWAP1 SUB PUSH2 0xF5 JUMPI PUSH1 0x0 MSTORE PUSH1 0x4 PUSH1 0x20 MSTORE PUSH1 0x20 PUSH1 0xFF PUSH1 0x40 PUSH1 0x0 KECCAK256 SLOAD AND PUSH1 0x40 MLOAD SWAP1 ISZERO ISZERO DUP2 MSTORE RETURN JUMPDEST CALLVALUE PUSH2 0xF5 JUMPI PUSH1 0x0 CALLDATASIZE PUSH1 0x3 NOT ADD SLT PUSH2 0xF5 JUMPI PUSH32 0x0 PUSH1 0x1 PUSH1 0x1 PUSH1 0xA0 SHL SUB AND CALLER SUB PUSH2 0x320 JUMPI PUSH1 0x1 PUSH1 0xFF NOT DUP2 SLOAD AND OR PUSH1 0x1 SSTORE CALLER PUSH32 0xD5859AF634A05C1676C4E206A4F0A1743F733ED64E6645174FEE172150F32CC4 PUSH1 0x0 DUP1 LOG2 STOP JUMPDEST CALLVALUE PUSH2 0xF5 JUMPI PUSH1 0x0 CALLDATASIZE PUSH1 0x3 NOT ADD SLT PUSH2 0xF5 JUMPI PUSH1 0x20 PUSH1 0xFF PUSH1 0x3 SLOAD AND PUSH1 0x40 MLOAD SWAP1 ISZERO ISZERO DUP2 MSTORE RETURN JUMPDEST CALLVALUE PUSH2 0xF5 JUMPI PUSH1 0x20 CALLDATASIZE PUSH1 0x3 NOT ADD SLT PUSH2 0xF5 JUMPI PUSH1 0x4 CALLDATALOAD PUSH1 0x1 PUSH1 0x1 PUSH1 0xA0 SHL SUB DUP2 AND SWAP1 DUP2 SWAP1 SUB PUSH2 0xF5 JUMPI PUSH32 0x0 PUSH1 0x1 PUSH1 0x1 PUSH1 0xA0 SHL SUB AND CALLER SUB PUSH2 0x320 JUMPI DUP1 PUSH1 0x0 MSTORE PUSH1 0x4 PUSH1 0x20 MSTORE PUSH1 0xFF PUSH1 0x40 PUSH1 0x0 KECCAK256 SLOAD AND ISZERO PUSH2 0x6FF JUMPI PUSH1 0x0 DUP2 DUP2 MSTORE PUSH1 0x4 PUSH1 0x20 MSTORE PUSH1 0x40 DUP2 KECCAK256 DUP1 SLOAD PUSH1 0xFF NOT AND SWAP1 SSTORE JUMPDEST PUSH1 0x5 SLOAD SWAP1 DUP2 DUP2 LT ISZERO PUSH2 0x6F8 JUMPI DUP3 PUSH2 0x5FE DUP3 PUSH2 0xCB1 JUMP JUMPDEST SWAP1 SLOAD PUSH1 0x3 SWAP2 SWAP1 SWAP2 SHL SHR PUSH1 0x1 PUSH1 0x1 PUSH1 0xA0 SHL SUB AND EQ PUSH2 0x61F JUMPI PUSH1 0x1 SWAP2 POP ADD PUSH2 0x5E8 JUMP JUMPDEST PUSH1 0x0 NOT DUP3 ADD SWAP2 DUP3 GT PUSH2 0x6E2 JUMPI PUSH2 0x652 PUSH2 0x63A PUSH2 0x676 SWAP4 PUSH2 0xCB1 JUMP JUMPDEST SWAP1 SLOAD PUSH1 0x3 SWAP2 SWAP1 SWAP2 SHL SHR PUSH1 0x1 PUSH1 0x1 PUSH1 0xA0 SHL SUB AND SWAP2 PUSH2 0xCB1 JUMP JUMPDEST DUP2 SLOAD PUSH1 0x1 PUSH1 0x1 PUSH1 0xA0 SHL SUB SWAP4 DUP5 AND PUSH1 0x3 SWAP3 SWAP1 SWAP3 SHL SWAP2 DUP3 SHL SWAP4 SWAP1 SWAP2 SHL NOT AND SWAP2 SWAP1 SWAP2 OR SWAP1 SSTORE JUMP JUMPDEST PUSH1 0x5 SLOAD DUP1 ISZERO PUSH2 0x6CC JUMPI PUSH1 0x0 NOT ADD PUSH2 0x68C DUP2 PUSH2 0xCB1 JUMP JUMPDEST DUP2 SLOAD SWAP1 PUSH1 0x1 DUP1 PUSH1 0xA0 SHL SUB SWAP1 PUSH1 0x3 SHL SHL NOT AND SWAP1 SSTORE PUSH1 0x5 SSTORE JUMPDEST CALLER SWAP1 PUSH32 0xCB0155B58744B4EE6E54E764BDB89963B2128F4A49C6E5D5AED26B301BB5A8F2 PUSH1 0x0 DUP1 LOG3 STOP JUMPDEST PUSH4 0x4E487B71 PUSH1 0xE0 SHL PUSH1 0x0 MSTORE PUSH1 0x31 PUSH1 0x4 MSTORE PUSH1 0x24 PUSH1 0x0 REVERT JUMPDEST PUSH4 0x4E487B71 PUSH1 0xE0 SHL PUSH1 0x0 MSTORE PUSH1 0x11 PUSH1 0x4 MSTORE PUSH1 0x24 PUSH1 0x0 REVERT JUMPDEST POP POP PUSH2 0x6A3 JUMP JUMPDEST PUSH4 0x4748223F PUSH1 0xE1 SHL PUSH1 0x0 MSTORE PUSH1 0x4 PUSH1 0x0 REVERT JUMPDEST CALLVALUE PUSH2 0xF5 JUMPI PUSH1 0x20 CALLDATASIZE PUSH1 0x3 NOT ADD SLT PUSH2 0xF5 JUMPI PUSH1 0x4 CALLDATALOAD PUSH1 0x1 PUSH1 0x1 PUSH1 0xA0 SHL SUB DUP2 AND SWAP1 DUP2 DUP2 SUB PUSH2 0xF5 JUMPI PUSH32 0x0 PUSH1 0x1 PUSH1 0x1 PUSH1 0xA0 SHL SUB AND CALLER SUB PUSH2 0x320 JUMPI DUP2 ISZERO PUSH2 0x6FF JUMPI DUP2 PUSH1 0x0 MSTORE PUSH1 0x4 PUSH1 0x20 MSTORE PUSH1 0xFF PUSH1 0x40 PUSH1 0x0 KECCAK256 SLOAD AND PUSH2 0x802 JUMPI DUP2 PUSH1 0x0 MSTORE PUSH1 0x4 PUSH1 0x20 MSTORE PUSH1 0x40 PUSH1 0x0 KECCAK256 PUSH1 0x1 PUSH1 0xFF NOT DUP3 SLOAD AND OR SWAP1 SSTORE PUSH1 0x5 SLOAD SWAP1 PUSH9 0x10000000000000000 DUP3 LT ISZERO PUSH2 0x7EC JUMPI PUSH2 0x652 DUP3 PUSH1 0x1 PUSH2 0x7C3 SWAP5 ADD PUSH1 0x5 SSTORE PUSH2 0xCB1 JUMP JUMPDEST CALLER SWAP1 PUSH32 0xC929EC71EA5D504B1C3CE248FFEFDDE4B70BAD1CA8E3A10EC24D4C0A687957DA PUSH1 0x0 DUP1 LOG3 STOP JUMPDEST PUSH4 0x4E487B71 PUSH1 0xE0 SHL PUSH1 0x0 MSTORE PUSH1 0x41 PUSH1 0x4 MSTORE PUSH1 0x24 PUSH1 0x0 REVERT JUMPDEST PUSH4 0xD4921659 PUSH1 0xE0 SHL PUSH1 0x0 MSTORE PUSH1 0x4 PUSH1 0x0 REVERT JUMPDEST CALLVALUE PUSH2 0xF5 JUMPI PUSH1 0x0 CALLDATASIZE PUSH1 0x3 NOT ADD SLT PUSH2 0xF5 JUMPI PUSH1 0xC0 PUSH1 0x1 DUP1 PUSH1 0xA0 SHL SUB PUSH32 0x0 AND DUP1 CALLER EQ CALLER PUSH1 0x0 MSTORE PUSH1 0x4 PUSH1 0x20 MSTORE PUSH1 0xFF PUSH1 0x40 PUSH1 0x0 KECCAK256 SLOAD AND PUSH1 0xFF PUSH1 0x1 SLOAD AND SWAP1 DUP3 DUP1 ISZERO PUSH2 0x89B JUMPI JUMPDEST PUSH1 0x40 MLOAD SWAP5 CALLER DUP7 MSTORE PUSH1 0x20 DUP7 ADD MSTORE PUSH1 0x40 DUP6 ADD MSTORE ISZERO ISZERO PUSH1 0x60 DUP5 ADD MSTORE ISZERO ISZERO PUSH1 0x80 DUP4 ADD MSTORE ISZERO ISZERO PUSH1 0xA0 DUP3 ADD MSTORE RETURN JUMPDEST SWAP3 POP DUP2 DUP1 PUSH2 0x8AA JUMPI JUMPDEST SWAP3 PUSH2 0x873 JUMP JUMPDEST POP DUP1 PUSH2 0x8A4 JUMP JUMPDEST CALLVALUE PUSH2 0xF5 JUMPI PUSH1 0x20 CALLDATASIZE PUSH1 0x3 NOT ADD SLT PUSH2 0xF5 JUMPI PUSH1 0x4 CALLDATALOAD PUSH8 0xFFFFFFFFFFFFFFFF DUP2 GT PUSH2 0xF5 JUMPI CALLDATASIZE PUSH1 0x23 DUP3 ADD SLT ISZERO PUSH2 0xF5 JUMPI DUP1 PUSH1 0x4 ADD CALLDATALOAD PUSH8 0xFFFFFFFFFFFFFFFF DUP2 GT PUSH2 0x7EC JUMPI PUSH1 0x40 MLOAD SWAP2 PUSH2 0x90B PUSH1 0x1F DUP4 ADD PUSH1 0x1F NOT AND PUSH1 0x20 ADD DUP5 PUSH2 0xB3B JUMP JUMPDEST DUP2 DUP4 MSTORE CALLDATASIZE PUSH1 0x24 DUP4 DUP4 ADD ADD GT PUSH2 0xF5 JUMPI DUP2 PUSH1 0x0 SWAP3 PUSH1 0x24 PUSH1 0x20 SWAP4 ADD DUP4 DUP7 ADD CALLDATACOPY DUP4 ADD ADD MSTORE PUSH32 0x0 PUSH1 0x1 PUSH1 0x1 PUSH1 0xA0 SHL SUB AND CALLER SUB PUSH2 0x320 JUMPI DUP1 MLOAD ISZERO PUSH2 0xAD4 JUMPI DUP1 MLOAD PUSH8 0xFFFFFFFFFFFFFFFF DUP2 GT PUSH2 0x7EC JUMPI PUSH2 0x97F PUSH1 0x0 SLOAD PUSH2 0xB01 JUMP JUMPDEST PUSH1 0x1F DUP2 GT PUSH2 0xA86 JUMPI JUMPDEST POP PUSH1 0x20 PUSH1 0x1F DUP3 GT PUSH1 0x1 EQ PUSH2 0xA04 JUMPI SWAP1 DUP1 PUSH2 0x9B8 SWAP3 PUSH1 0x0 SWAP2 PUSH2 0x9F9 JUMPI JUMPDEST POP DUP2 PUSH1 0x1 SHL SWAP2 PUSH1 0x0 NOT SWAP1 PUSH1 0x3 SHL SHR NOT AND OR SWAP1 JUMP JUMPDEST PUSH1 0x0 SSTORE JUMPDEST PUSH32 0x286BB1921653E708AC5B6AD4599E5173E73B914940EB328CBA7471C200832C7A PUSH1 0x40 MLOAD PUSH1 0x20 DUP2 MSTORE DUP1 PUSH2 0x9F4 CALLER SWAP5 PUSH1 0x20 DUP4 ADD SWAP1 PUSH2 0xC14 JUMP JUMPDEST SUB SWAP1 LOG2 STOP JUMPDEST SWAP1 POP DUP4 ADD MLOAD DUP5 PUSH2 0x9A4 JUMP JUMPDEST PUSH1 0x1F NOT DUP3 AND SWAP1 PUSH1 0x0 DUP1 MSTORE PUSH32 0x290DECD9548B62A8D60345A988386FC84BA6BC95484008F6362F93160EF3E563 SWAP2 PUSH1 0x0 JUMPDEST DUP2 DUP2 LT PUSH2 0xA6E JUMPI POP SWAP1 DUP4 PUSH1 0x1 SWAP5 SWAP4 SWAP3 LT PUSH2 0xA55 JUMPI JUMPDEST POP POP DUP2 SHL ADD PUSH1 0x0 SSTORE PUSH2 0x9BC JUMP JUMPDEST DUP5 ADD MLOAD PUSH1 0x0 NOT PUSH1 0xF8 DUP5 PUSH1 0x3 SHL AND SHR NOT AND SWAP1 SSTORE DUP4 DUP1 PUSH2 0xA48 JUMP JUMPDEST SWAP2 SWAP3 PUSH1 0x20 PUSH1 0x1 DUP2 SWAP3 DUP7 DUP10 ADD MLOAD DUP2 SSTORE ADD SWAP5 ADD SWAP3 ADD PUSH2 0xA33 JUMP JUMPDEST PUSH1 0x0 DUP1 MSTORE PUSH2 0xACE SWAP1 PUSH32 0x290DECD9548B62A8D60345A988386FC84BA6BC95484008F6362F93160EF3E563 PUSH1 0x1F DUP5 ADD PUSH1 0x5 SHR DUP2 ADD SWAP2 PUSH1 0x20 DUP6 LT PUSH2 0x305 JUMPI PUSH1 0x1F ADD PUSH1 0x5 SHR ADD SWAP1 PUSH2 0xC9A JUMP JUMPDEST DUP3 PUSH2 0x988 JUMP JUMPDEST PUSH4 0x2B69EF49 PUSH1 0xE0 SHL PUSH1 0x0 MSTORE PUSH1 0x4 PUSH1 0x0 REVERT JUMPDEST CALLVALUE PUSH2 0xF5 JUMPI PUSH1 0x0 CALLDATASIZE PUSH1 0x3 NOT ADD SLT PUSH2 0xF5 JUMPI PUSH2 0xF1 PUSH2 0xDD PUSH2 0xB5D JUMP JUMPDEST SWAP1 PUSH1 0x1 DUP3 DUP2 SHR SWAP3 AND DUP1 ISZERO PUSH2 0xB31 JUMPI JUMPDEST PUSH1 0x20 DUP4 LT EQ PUSH2 0xB1B JUMPI JUMP JUMPDEST PUSH4 0x4E487B71 PUSH1 0xE0 SHL PUSH1 0x0 MSTORE PUSH1 0x22 PUSH1 0x4 MSTORE PUSH1 0x24 PUSH1 0x0 REVERT JUMPDEST SWAP2 PUSH1 0x7F AND SWAP2 PUSH2 0xB10 JUMP JUMPDEST SWAP1 PUSH1 0x1F DUP1 NOT SWAP2 ADD AND DUP2 ADD SWAP1 DUP2 LT PUSH8 0xFFFFFFFFFFFFFFFF DUP3 GT OR PUSH2 0x7EC JUMPI PUSH1 0x40 MSTORE JUMP JUMPDEST PUSH1 0x40 MLOAD SWAP1 PUSH1 0x0 DUP3 PUSH1 0x0 SLOAD SWAP2 PUSH2 0xB71 DUP4 PUSH2 0xB01 JUMP JUMPDEST DUP1 DUP4 MSTORE SWAP3 PUSH1 0x1 DUP2 AND SWAP1 DUP2 ISZERO PUSH2 0xBF5 JUMPI POP PUSH1 0x1 EQ PUSH2 0xB97 JUMPI JUMPDEST PUSH2 0xB95 SWAP3 POP SUB DUP4 PUSH2 0xB3B JUMP JUMPDEST JUMP JUMPDEST POP PUSH1 0x0 DUP1 DUP1 MSTORE SWAP1 SWAP2 PUSH32 0x290DECD9548B62A8D60345A988386FC84BA6BC95484008F6362F93160EF3E563 JUMPDEST DUP2 DUP4 LT PUSH2 0xBD9 JUMPI POP POP SWAP1 PUSH1 0x20 PUSH2 0xB95 SWAP3 DUP3 ADD ADD PUSH2 0xB89 JUMP JUMPDEST PUSH1 0x20 SWAP2 SWAP4 POP DUP1 PUSH1 0x1 SWAP2 SLOAD DUP4 DUP6 DUP10 ADD ADD MSTORE ADD SWAP2 ADD SWAP1 SWAP2 DUP5 SWAP3 PUSH2 0xBC1 JUMP JUMPDEST PUSH1 0x20 SWAP3 POP PUSH2 0xB95 SWAP5 SWAP2 POP PUSH1 0xFF NOT AND DUP3 DUP5 ADD MSTORE ISZERO ISZERO PUSH1 0x5 SHL DUP3 ADD ADD PUSH2 0xB89 JUMP JUMPDEST SWAP2 SWAP1 DUP3 MLOAD SWAP3 DUP4 DUP3 MSTORE PUSH1 0x0 JUMPDEST DUP5 DUP2 LT PUSH2 0xC40 JUMPI POP POP DUP3 PUSH1 0x0 PUSH1 0x20 DUP1 SWAP5 SWAP6 DUP5 ADD ADD MSTORE PUSH1 0x1F DUP1 NOT SWAP2 ADD AND ADD ADD SWAP1 JUMP JUMPDEST DUP1 PUSH1 0x20 DUP1 SWAP3 DUP5 ADD ADD MLOAD DUP3 DUP3 DUP7 ADD ADD MSTORE ADD PUSH2 0xC1F JUMP JUMPDEST CALLVALUE PUSH2 0xF5 JUMPI PUSH1 0x0 CALLDATASIZE PUSH1 0x3 NOT ADD SLT PUSH2 0xF5 JUMPI PUSH1 0x40 MLOAD PUSH32 0x0 PUSH1 0x1 PUSH1 0x1 PUSH1 0xA0 SHL SUB AND DUP2 MSTORE PUSH1 0x20 SWAP1 RETURN JUMPDEST DUP2 DUP2 LT PUSH2 0xCA5 JUMPI POP POP JUMP JUMPDEST PUSH1 0x0 DUP2 SSTORE PUSH1 0x1 ADD PUSH2 0xC9A JUMP JUMPDEST PUSH1 0x5 SLOAD DUP2 LT ISZERO PUSH2 0xCCC JUMPI PUSH1 0x5 PUSH1 0x0 MSTORE PUSH1 0x20 PUSH1 0x0 KECCAK256 ADD SWAP1 PUSH1 0x0 SWAP1 JUMP JUMPDEST PUSH4 0x4E487B71 PUSH1 0xE0 SHL PUSH1 0x0 MSTORE PUSH1 0x32 PUSH1 0x4 MSTORE PUSH1 0x24 PUSH1 0x0 REVERT JUMPDEST CALLER PUSH32 0x0 PUSH1 0x1 PUSH1 0x1 PUSH1 0xA0 SHL SUB AND EQ PUSH2 0xD50 JUMPI PUSH1 0xFF PUSH1 0x1 SLOAD AND ISZERO PUSH2 0xD3F JUMPI CALLER PUSH1 0x0 MSTORE PUSH1 0x4 PUSH1 0x20 MSTORE PUSH1 0xFF PUSH1 0x40 PUSH1 0x0 KECCAK256 SLOAD AND ISZERO PUSH2 0xD3F JUMPI PUSH2 0xD3C PUSH2 0xD54 JUMP JUMPDEST SWAP1 JUMP JUMPDEST PUSH4 0xEA8E4EB5 PUSH1 0xE0 SHL PUSH1 0x0 MSTORE PUSH1 0x4 PUSH1 0x0 REVERT JUMPDEST PUSH2 0xD3C JUMPDEST PUSH1 0xFF PUSH1 0x3 SLOAD AND ISZERO PUSH2 0xE3B JUMPI PUSH1 0x40 MLOAD CALLER PUSH32 0x84893E6B945418B50268D87630732A9055D1D763D580114C986D89329F17440F PUSH1 0x0 DUP1 LOG2 PUSH1 0x2 SLOAD DUP2 PUSH1 0x0 PUSH2 0xD97 DUP4 PUSH2 0xB01 JUMP JUMPDEST DUP1 DUP4 MSTORE SWAP3 PUSH1 0x1 DUP2 AND SWAP1 DUP2 ISZERO PUSH2 0xE1C JUMPI POP PUSH1 0x1 EQ PUSH2 0xDBB JUMPI JUMPDEST PUSH2 0xD3C SWAP3 POP SUB DUP3 PUSH2 0xB3B JUMP JUMPDEST POP SWAP1 PUSH1 0x2 PUSH1 0x0 MSTORE PUSH32 0x405787FA12A823E0F2B7631CC41B3BA8828B3321CA811111FA75CD3AA3BB5ACE SWAP1 PUSH1 0x0 SWAP2 JUMPDEST DUP2 DUP4 LT PUSH2 0xE00 JUMPI POP POP SWAP1 PUSH1 0x20 PUSH2 0xD3C SWAP3 DUP3 ADD ADD PUSH2 0xDAF JUMP JUMPDEST PUSH1 0x20 SWAP2 SWAP4 POP DUP1 PUSH1 0x1 SWAP2 SLOAD DUP4 DUP6 DUP9 ADD ADD MSTORE ADD SWAP2 ADD SWAP1 SWAP2 DUP4 SWAP3 PUSH2 0xDE8 JUMP JUMPDEST PUSH1 0x20 SWAP3 POP PUSH2 0xD3C SWAP5 SWAP2 POP PUSH1 0xFF NOT AND DUP3 DUP5 ADD MSTORE ISZERO ISZERO PUSH1 0x5 SHL DUP3 ADD ADD PUSH2 0xDAF JUMP JUMPDEST PUSH4 0x1C32ABD3 PUSH1 0xE1 SHL PUSH1 0x0 MSTORE PUSH1 0x4 PUSH1 0x0 REVERT INVALID LOG2 PUSH5 0x6970667358 0x22 SLT KECCAK256 0xE 0xF SWAP12 PUSH12 0x808CBC6AB22F9C74C8BDAD0D EXTCODECOPY 0xC6 MLOAD 0xA9 0xDE DUP11 0xE0 CALLCODE PUSH30 0x7F9BF3FEC28EB564736F6C634300081C0033000000000000000000000000 "},"methodIdentifiers":{"addAuthorizedContact(address)":"3838fe73","debugAuth()":"28b622d2","getAllAuthorizedContacts()":"875e407a","getOwner()":"893d20e8","getVaultData()":"fef840ff","getVaultInfo()":"7f98aa71","isContactAuthorized(address)":"7b17266c","isReleased()":"fa2a8997","isVaultDataSet()":"4bb2baa3","owner()":"8da5cb5b","releaseVault()":"63b1152a","removeAuthorizedContact(address)":"4b0f5728","setDataEncrypt(bytes)":"da27d791","updateVaultName(string)":"1f1a71d7","vaultName()":"0ace9ca0"}}}}}