{"contracts/LifeSignalRegistry.sol":{"LifeSignalRegistry":{"abi":[{"anonymous":false,"inputs":[{"indexed":true,"internalType":"address","name":"owner","type":"address"},{"indexed":false,"internalType":"bool","name":"isDeceased","type":"bool"},{"indexed":false,"internalType":"uint256","name":"timestamp","type":"uint256"}],"name":"ConsensusReached","type":"event"},{"anonymous":false,"inputs":[{"indexed":true,"internalType":"address","name":"owner","type":"address"},{"indexed":true,"internalType":"address","name":"contact","type":"address"},{"indexed":false,"internalType":"bool","name":"hasVotingRight","type":"bool"}],"name":"ContactAdded","type":"event"},{"anonymous":false,"inputs":[{"indexed":true,"internalType":"address","name":"owner","type":"address"},{"indexed":true,"internalType":"address","name":"contact","type":"address"}],"name":"ContactVerified","type":"event"},{"anonymous":false,"inputs":[{"indexed":true,"internalType":"address","name":"owner","type":"address"},{"indexed":true,"internalType":"address","name":"declaredBy","type":"address"},{"indexed":false,"internalType":"uint256","name":"timestamp","type":"uint256"}],"name":"DeathDeclared","type":"event"},{"anonymous":false,"inputs":[{"indexed":true,"internalType":"address","name":"owner","type":"address"},{"indexed":false,"internalType":"uint256","name":"timestamp","type":"uint256"}],"name":"HeartbeatSent","type":"event"},{"anonymous":false,"inputs":[{"indexed":true,"internalType":"address","name":"owner","type":"address"},{"indexed":false,"internalType":"string","name":"firstName","type":"string"},{"indexed":false,"internalType":"string","name":"lastName","type":"string"}],"name":"OwnerRegistered","type":"event"},{"anonymous":false,"inputs":[{"indexed":true,"internalType":"address","name":"owner","type":"address"},{"indexed":true,"internalType":"address","name":"voter","type":"address"},{"indexed":false,"internalType":"bool","name":"vote","type":"bool"}],"name":"VoteCast","type":"event"},{"inputs":[{"internalType":"address","name":"_contact","type":"address"},{"internalType":"bool","name":"_hasVotingRight","type":"bool"}],"name":"addContact","outputs":[],"stateMutability":"nonpayable","type":"function"},{"inputs":[{"internalType":"address","name":"_owner","type":"address"}],"name":"declareDeceased","outputs":[],"stateMutability":"nonpayable","type":"function"},{"inputs":[{"internalType":"address","name":"_owner","type":"address"},{"internalType":"address","name":"_contact","type":"address"}],"name":"getContactInfo","outputs":[{"internalType":"bool","name":"hasVotingRight","type":"bool"},{"internalType":"bool","name":"isVerified","type":"bool"},{"internalType":"bool","name":"exists","type":"bool"}],"stateMutability":"view","type":"function"},{"inputs":[{"internalType":"address","name":"_owner","type":"address"}],"name":"getContactList","outputs":[{"internalType":"address[]","name":"","type":"address[]"}],"stateMutability":"view","type":"function"},{"inputs":[{"internalType":"address","name":"_owner","type":"address"}],"name":"getDeathDeclarationStatus","outputs":[{"internalType":"bool","name":"isActive","type":"bool"},{"internalType":"uint256","name":"startTime","type":"uint256"},{"internalType":"uint256","name":"votesFor","type":"uint256"},{"internalType":"uint256","name":"votesAgainst","type":"uint256"},{"internalType":"uint256","name":"totalVotingContacts","type":"uint256"},{"internalType":"bool","name":"consensusReached","type":"bool"}],"stateMutability":"view","type":"function"},{"inputs":[{"internalType":"address","name":"_owner","type":"address"}],"name":"getOwnerInfo","outputs":[{"internalType":"string","name":"firstName","type":"string"},{"internalType":"string","name":"lastName","type":"string"},{"internalType":"uint256","name":"lastHeartbeat","type":"uint256"},{"internalType":"uint256","name":"graceInterval","type":"uint256"},{"internalType":"bool","name":"isDeceased","type":"bool"},{"internalType":"bool","name":"exists","type":"bool"}],"stateMutability":"view","type":"function"},{"inputs":[{"internalType":"address","name":"_owner","type":"address"},{"internalType":"address","name":"_voter","type":"address"}],"name":"getVote","outputs":[{"internalType":"bool","name":"","type":"bool"}],"stateMutability":"view","type":"function"},{"inputs":[{"internalType":"address","name":"_owner","type":"address"},{"internalType":"address","name":"_voter","type":"address"}],"name":"hasVoted","outputs":[{"internalType":"bool","name":"","type":"bool"}],"stateMutability":"view","type":"function"},{"inputs":[{"internalType":"string","name":"_firstName","type":"string"},{"internalType":"string","name":"_lastName","type":"string"},{"internalType":"string","name":"_email","type":"string"},{"internalType":"string","name":"_phone","type":"string"},{"internalType":"uint256","name":"_graceInterval","type":"uint256"}],"name":"registerOwner","outputs":[],"stateMutability":"nonpayable","type":"function"},{"inputs":[],"name":"sendHeartbeat","outputs":[],"stateMutability":"nonpayable","type":"function"},{"inputs":[{"internalType":"address","name":"_owner","type":"address"}],"name":"verifyContact","outputs":[],"stateMutability":"nonpayable","type":"function"},{"inputs":[{"internalType":"address","name":"_owner","type":"address"},{"internalType":"bool","name":"_vote","type":"bool"}],"name":"voteOnDeathDeclaration","outputs":[],"stateMutability":"nonpayable","type":"function"}],"evm":{"bytecode":{"linkReferences":{},"object":"608060405234801561001057600080fd5b50611ba1806100206000396000f3fe608060405234801561001057600080fd5b50600436106100b45760003560e01c806360f490f71161007157806360f490f7146101375780636880f137146101a6578063996e6ca1146101b9578063abc22bbe14610240578063b385faa814610253578063d385de821461027357600080fd5b80630accc75d146100b95780632815f211146100ce57806334f167a9146100e15780634d4d2b1c146100e95780634e8e32b5146101115780635ab4f16214610124575b600080fd5b6100cc6100c7366004611663565b610298565b005b6100cc6100dc36600461174b565b610628565b6100cc610808565b6100fc6100f7366004611787565b61095f565b60405190151581526020015b60405180910390f35b6100cc61011f36600461174b565b610993565b6100fc610132366004611787565b610c5a565b610187610145366004611787565b6001600160a01b03918216600090815260016020908152604080832093909416825291909152205460ff80821692610100830482169262010000900490911690565b6040805193151584529115156020840152151590820152606001610108565b6100cc6101b43660046117ba565b610cfe565b61020f6101c73660046117ba565b6001600160a01b031660009081526002602081905260409091206005810154600182015492820154600383015460049093015460ff8084169692949391926101009092041690565b60408051961515875260208701959095529385019290925260608401526080830152151560a082015260c001610108565b6100cc61024e3660046117ba565b610e11565b6102666102613660046117ba565b611272565b60405161010891906117dc565b6102866102813660046117ba565b6112e9565b6040516101089695949392919061186f565b33600090815260208190526040902060070154610100900460ff16156103055760405162461bcd60e51b815260206004820152601860248201527f4f776e657220616c72656164792072656769737465726564000000000000000060448201526064015b60405180910390fd5b620151808110156103585760405162461bcd60e51b815260206004820152601860248201527f477261636520696e74657276616c20746f6f2073686f7274000000000000000060448201526064016102fc565b6301e133808111156103ac5760405162461bcd60e51b815260206004820152601760248201527f477261636520696e74657276616c20746f6f206c6f6e6700000000000000000060448201526064016102fc565b604051806101400160405280336001600160a01b031681526020018a8a8080601f016020809104026020016040519081016040528093929190818152602001838380828437600092019190915250505090825250604080516020601f8b0181900481028201810190925289815291810191908a908a9081908401838280828437600092019190915250505090825250604080516020601f890181900481028201810190925287815291810191908890889081908401838280828437600092019190915250505090825250604080516020601f870181900481028201810190925285815291810191908690869081908401838280828437600092018290525093855250504260208401525060408201849052606082018190526001608083015260a0909101906040519080825280602002602001820160405280156104fa578160200160208202803683370190505b50905233600090815260208181526040909120825181546001600160a01b0319166001600160a01b0390911617815590820151600182019061053c908261195a565b5060408201516002820190610551908261195a565b5060608201516003820190610566908261195a565b506080820151600482019061057b908261195a565b5060a0820151600582015560c0820151600682015560e08201516007820180546101008086015115150261ff00199315159390931661ffff199091161791909117905561012082015180516105da9160088401916020909101906115a0565b50506040513391507f90fdcd9183750bdfb11be5d6379c04e744e8f650aac530ea853c19226ea7eb2b90610615908c908c908c908c90611a43565b60405180910390a2505050505050505050565b33600090815260208190526040902060070154610100900460ff1661065f5760405162461bcd60e51b81526004016102fc90611a75565b336001600160a01b038316036106b75760405162461bcd60e51b815260206004820152601e60248201527f43616e6e6f742061646420796f757273656c6620617320636f6e74616374000060448201526064016102fc565b3360009081526001602090815260408083206001600160a01b038616845290915290205462010000900460ff161561072a5760405162461bcd60e51b8152602060048201526016602482015275436f6e7461637420616c72656164792065786973747360501b60448201526064016102fc565b60408051606081018252821515808252600060208084018281526001858701818152338086528285528886206001600160a01b038c1680885290865289872098518954955193511515620100000262ff0000199415156101000261ff00199215159290921661ffff19909716969096171792909216939093179096558184528383528684206008018054918201815584529282902090920180546001600160a01b03191685179055935191825291927fc329a4824b9cddbf4efb396983db7496360fe08a32ebbd5f6021d4835e275cf4910160405180910390a35050565b33600090815260208190526040902060070154610100900460ff1661083f5760405162461bcd60e51b81526004016102fc90611a75565b3360009081526020819052604090206007015460ff16156108a25760405162461bcd60e51b815260206004820152601960248201527f4f776e657220697320616c72656164792064656365617365640000000000000060448201526064016102fc565b33600090815260208181526040808320426005918201556002909252909120015460ff16156109285733600081815260026020526040808220600501805460ff19169055517fac892f9ea2bac4d143f762134b209de57efb94b00c56302aaed590951368eaac9161091f9142909115158252602082015260400190565b60405180910390a25b60405142815233907f878229cab17522b0aa9fe67ef166ba37857b7fdb46cd8748179a9d9a7373727f9060200160405180910390a2565b6001600160a01b038083166000908152600260209081526040808320938516835260069093019052205460ff165b92915050565b6001600160a01b0382166000908152600160209081526040808320338452909152902054829062010000900460ff166109de5760405162461bcd60e51b81526004016102fc90611aa3565b6001600160a01b0381166000908152600160209081526040808320338452909152902054610100900460ff16610a4d5760405162461bcd60e51b815260206004820152601460248201527310dbdb9d1858dd081b9bdd081d995c9a599a595960621b60448201526064016102fc565b6001600160a01b038116600090815260016020908152604080832033845290915290205460ff16610ab35760405162461bcd60e51b815260206004820152601060248201526f4e6f20766f74696e672072696768747360801b60448201526064016102fc565b6001600160a01b03831660009081526002602052604090206005015460ff16610b1e5760405162461bcd60e51b815260206004820152601b60248201527f4e6f20616374697665206465617468206465636c61726174696f6e000000000060448201526064016102fc565b6001600160a01b038316600090815260026020908152604080832033845260060190915290205460ff1615610b855760405162461bcd60e51b815260206004820152600d60248201526c105b1c9958591e481d9bdd1959609a1b60448201526064016102fc565b6001600160a01b0383166000908152600260209081526040808320338452600681018352818420805460ff1990811660011790915560078201909352922080548515801591909316179055610bf057600281018054906000610be683611af0565b9190505550610c08565b600381018054906000610c0283611af0565b91905055505b604051831515815233906001600160a01b038616907fcc194f214df029fe546c9959ee15d79d8633742aab6c02a862e337f8ace3d550906020015b60405180910390a3610c5484611467565b50505050565b6001600160a01b0380831660009081526002602090815260408083209385168352600690930190529081205460ff16610ccb5760405162461bcd60e51b8152602060048201526013602482015272159bdd195c881a185cc81b9bdd081d9bdd1959606a1b60448201526064016102fc565b506001600160a01b0391821660009081526002602090815260408083209390941682526007909201909152205460ff1690565b6001600160a01b0381166000908152600160209081526040808320338452909152902054819062010000900460ff16610d495760405162461bcd60e51b81526004016102fc90611aa3565b6001600160a01b0382166000908152600160209081526040808320338452909152902054610100900460ff1615610db55760405162461bcd60e51b815260206004820152601060248201526f105b1c9958591e481d995c9a599a595960821b60448201526064016102fc565b6001600160a01b0382166000818152600160209081526040808320338085529252808320805461ff001916610100179055519092917f33c6b9962c16a3768d4f15c8f694b088fd57a39499a9b9f7e59243c371a2207a91a35050565b6001600160a01b0381166000908152600160209081526040808320338452909152902054819062010000900460ff16610e5c5760405162461bcd60e51b81526004016102fc90611aa3565b6001600160a01b0381166000908152600160209081526040808320338452909152902054610100900460ff16610ecb5760405162461bcd60e51b815260206004820152601460248201527310dbdb9d1858dd081b9bdd081d995c9a599a595960621b60448201526064016102fc565b6001600160a01b038116600090815260016020908152604080832033845290915290205460ff16610f315760405162461bcd60e51b815260206004820152601060248201526f4e6f20766f74696e672072696768747360801b60448201526064016102fc565b6001600160a01b038216600090815260208190526040902060070154610100900460ff16610f715760405162461bcd60e51b81526004016102fc90611a75565b6001600160a01b03821660009081526020819052604090206007015460ff1615610fd65760405162461bcd60e51b815260206004820152601660248201527513dddb995c88185b1c9958591e48191958d9585cd95960521b60448201526064016102fc565b6001600160a01b03821660009081526002602052604090206005015460ff16156110425760405162461bcd60e51b815260206004820181905260248201527f4465617468206465636c61726174696f6e20616c72656164792061637469766560448201526064016102fc565b6000805b6001600160a01b03841660009081526020819052604090206008015481101561112a576001600160a01b038416600090815260208190526040812060080180548390811061109657611096611b09565b60009182526020808320909101546001600160a01b0388811684526001835260408085209190921680855292529091205490915060ff61010090910416801561110457506001600160a01b0380861660009081526001602090815260408083209385168352929052205460ff165b15611117578261111381611af0565b9350505b508061112281611af0565b915050611046565b506000811161117b5760405162461bcd60e51b815260206004820152601c60248201527f4e6f20766f74696e6720636f6e746163747320617661696c61626c650000000060448201526064016102fc565b6001600160a01b038316600081815260026020818152604080842080546001600160a01b031916339081178255426001808401829055958301869055600383018790556004830189905560058301805461ffff191687179055818752600683018552838720805460ff199081168817909155600784018652968490208054909716909517909555905192835293917fd1ffe6c6eec884ae3341f8304738b02340905dfd25b73df1802e7f95c9b9fbec910160405180910390a36040516001815233906001600160a01b038616907fcc194f214df029fe546c9959ee15d79d8633742aab6c02a862e337f8ace3d55090602001610c43565b6001600160a01b038116600090815260208181526040918290206008018054835181840281018401909452808452606093928301828280156112dd57602002820191906000526020600020905b81546001600160a01b031681526001909101906020018083116112bf575b50505050509050919050565b6001600160a01b03811660009081526020819052604081206005810154600682015460078301546001840180546060968796909586958695869593946002860193929160ff8082169261010090920416908690611345906118d2565b80601f0160208091040260200160405190810160405280929190818152602001828054611371906118d2565b80156113be5780601f10611393576101008083540402835291602001916113be565b820191906000526020600020905b8154815290600101906020018083116113a157829003601f168201915b505050505095508480546113d1906118d2565b80601f01602080910402602001604051908101604052809291908181526020018280546113fd906118d2565b801561144a5780601f1061141f5761010080835404028352916020019161144a565b820191906000526020600020905b81548152906001019060200180831161142d57829003601f168201915b505050505094509650965096509650965096505091939550919395565b6001600160a01b03811660009081526002602052604081206004810154909190606490611495906032611b1f565b61149f9190611b36565b6114aa906001611b58565b90508082600201541061153a576001600160a01b03831660008181526020819052604090819020600701805460ff1916600190811790915560058501805461ffff191661010017905590517fac892f9ea2bac4d143f762134b209de57efb94b00c56302aaed590951368eaac9161152d9142909115158252602082015260400190565b60405180910390a2505050565b8082600301541061159b5760058201805461ffff191661010017905560408051600081524260208201526001600160a01b038516917fac892f9ea2bac4d143f762134b209de57efb94b00c56302aaed590951368eaac910160405180910390a25b505050565b8280548282559060005260206000209081019282156115f5579160200282015b828111156115f557825182546001600160a01b0319166001600160a01b039091161782556020909201916001909101906115c0565b50611601929150611605565b5090565b5b808211156116015760008155600101611606565b60008083601f84011261162c57600080fd5b50813567ffffffffffffffff81111561164457600080fd5b60208301915083602082850101111561165c57600080fd5b9250929050565b600080600080600080600080600060a08a8c03121561168157600080fd5b893567ffffffffffffffff8082111561169957600080fd5b6116a58d838e0161161a565b909b50995060208c01359150808211156116be57600080fd5b6116ca8d838e0161161a565b909950975060408c01359150808211156116e357600080fd5b6116ef8d838e0161161a565b909750955060608c013591508082111561170857600080fd5b506117158c828d0161161a565b9a9d999c50979a9699959894979660800135949350505050565b80356001600160a01b038116811461174657600080fd5b919050565b6000806040838503121561175e57600080fd5b6117678361172f565b91506020830135801515811461177c57600080fd5b809150509250929050565b6000806040838503121561179a57600080fd5b6117a38361172f565b91506117b16020840161172f565b90509250929050565b6000602082840312156117cc57600080fd5b6117d58261172f565b9392505050565b6020808252825182820181905260009190848201906040850190845b8181101561181d5783516001600160a01b0316835292840192918401916001016117f8565b50909695505050505050565b6000815180845260005b8181101561184f57602081850181015186830182015201611833565b506000602082860101526020601f19601f83011685010191505092915050565b60c08152600061188260c0830189611829565b82810360208401526118948189611829565b6040840197909752505060608101939093529015156080830152151560a09091015292915050565b634e487b7160e01b600052604160045260246000fd5b600181811c908216806118e657607f821691505b60208210810361190657634e487b7160e01b600052602260045260246000fd5b50919050565b601f82111561159b57600081815260208120601f850160051c810160208610156119335750805b601f850160051c820191505b818110156119525782815560010161193f565b505050505050565b815167ffffffffffffffff811115611974576119746118bc565b6119888161198284546118d2565b8461190c565b602080601f8311600181146119bd57600084156119a55750858301515b600019600386901b1c1916600185901b178555611952565b600085815260208120601f198616915b828110156119ec578886015182559484019460019091019084016119cd565b5085821015611a0a5787850151600019600388901b60f8161c191681555b5050505050600190811b01905550565b81835281816020850137506000828201602090810191909152601f909101601f19169091010190565b604081526000611a57604083018688611a1a565b8281036020840152611a6a818587611a1a565b979650505050505050565b60208082526014908201527313dddb995c881b9bdd081c9959da5cdd195c995960621b604082015260600190565b6020808252601b908201527f4e6f74206120636f6e74616374206f662074686973206f776e65720000000000604082015260600190565b634e487b7160e01b600052601160045260246000fd5b600060018201611b0257611b02611ada565b5060010190565b634e487b7160e01b600052603260045260246000fd5b808202811582820484141761098d5761098d611ada565b600082611b5357634e487b7160e01b600052601260045260246000fd5b500490565b8082018082111561098d5761098d611ada56fea2646970667358221220c1dac7a528d39c0386874d39769f68fe81735c5d0fc6974533729f51637291ca64736f6c63430008130033","opcodes":"PUSH1 0x80 PUSH1 0x40 MSTORE CALLVALUE DUP1 ISZERO PUSH2 0x10 JUMPI PUSH1 0x0 DUP1 REVERT JUMPDEST POP PUSH2 0x1BA1 DUP1 PUSH2 0x20 PUSH1 0x0 CODECOPY PUSH1 0x0 RETURN INVALID PUSH1 0x80 PUSH1 0x40 MSTORE CALLVALUE DUP1 ISZERO PUSH2 0x10 JUMPI PUSH1 0x0 DUP1 REVERT JUMPDEST POP PUSH1 0x4 CALLDATASIZE LT PUSH2 0xB4 JUMPI PUSH1 0x0 CALLDATALOAD PUSH1 0xE0 SHR DUP1 PUSH4 0x60F490F7 GT PUSH2 0x71 JUMPI DUP1 PUSH4 0x60F490F7 EQ PUSH2 0x137 JUMPI DUP1 PUSH4 0x6880F137 EQ PUSH2 0x1A6 JUMPI DUP1 PUSH4 0x996E6CA1 EQ PUSH2 0x1B9 JUMPI DUP1 PUSH4 0xABC22BBE EQ PUSH2 0x240 JUMPI DUP1 PUSH4 0xB385FAA8 EQ PUSH2 0x253 JUMPI DUP1 PUSH4 0xD385DE82 EQ PUSH2 0x273 JUMPI PUSH1 0x0 DUP1 REVERT JUMPDEST DUP1 PUSH4 0xACCC75D EQ PUSH2 0xB9 JUMPI DUP1 PUSH4 0x2815F211 EQ PUSH2 0xCE JUMPI DUP1 PUSH4 0x34F167A9 EQ PUSH2 0xE1 JUMPI DUP1 PUSH4 0x4D4D2B1C EQ PUSH2 0xE9 JUMPI DUP1 PUSH4 0x4E8E32B5 EQ PUSH2 0x111 JUMPI DUP1 PUSH4 0x5AB4F162 EQ PUSH2 0x124 JUMPI JUMPDEST PUSH1 0x0 DUP1 REVERT JUMPDEST PUSH2 0xCC PUSH2 0xC7 CALLDATASIZE PUSH1 0x4 PUSH2 0x1663 JUMP JUMPDEST PUSH2 0x298 JUMP JUMPDEST STOP JUMPDEST PUSH2 0xCC PUSH2 0xDC CALLDATASIZE PUSH1 0x4 PUSH2 0x174B JUMP JUMPDEST PUSH2 0x628 JUMP JUMPDEST PUSH2 0xCC PUSH2 0x808 JUMP JUMPDEST PUSH2 0xFC PUSH2 0xF7 CALLDATASIZE PUSH1 0x4 PUSH2 0x1787 JUMP JUMPDEST PUSH2 0x95F JUMP JUMPDEST PUSH1 0x40 MLOAD SWAP1 ISZERO ISZERO DUP2 MSTORE PUSH1 0x20 ADD JUMPDEST PUSH1 0x40 MLOAD DUP1 SWAP2 SUB SWAP1 RETURN JUMPDEST PUSH2 0xCC PUSH2 0x11F CALLDATASIZE PUSH1 0x4 PUSH2 0x174B JUMP JUMPDEST PUSH2 0x993 JUMP JUMPDEST PUSH2 0xFC PUSH2 0x132 CALLDATASIZE PUSH1 0x4 PUSH2 0x1787 JUMP JUMPDEST PUSH2 0xC5A JUMP JUMPDEST PUSH2 0x187 PUSH2 0x145 CALLDATASIZE PUSH1 0x4 PUSH2 0x1787 JUMP JUMPDEST PUSH1 0x1 PUSH1 0x1 PUSH1 0xA0 SHL SUB SWAP2 DUP3 AND PUSH1 0x0 SWAP1 DUP2 MSTORE PUSH1 0x1 PUSH1 0x20 SWAP1 DUP2 MSTORE PUSH1 0x40 DUP1 DUP4 KECCAK256 SWAP4 SWAP1 SWAP5 AND DUP3 MSTORE SWAP2 SWAP1 SWAP2 MSTORE KECCAK256 SLOAD PUSH1 0xFF DUP1 DUP3 AND SWAP3 PUSH2 0x100 DUP4 DIV DUP3 AND SWAP3 PUSH3 0x10000 SWAP1 DIV SWAP1 SWAP2 AND SWAP1 JUMP JUMPDEST PUSH1 0x40 DUP1 MLOAD SWAP4 ISZERO ISZERO DUP5 MSTORE SWAP2 ISZERO ISZERO PUSH1 0x20 DUP5 ADD MSTORE ISZERO ISZERO SWAP1 DUP3 ADD MSTORE PUSH1 0x60 ADD PUSH2 0x108 JUMP JUMPDEST PUSH2 0xCC PUSH2 0x1B4 CALLDATASIZE PUSH1 0x4 PUSH2 0x17BA JUMP JUMPDEST PUSH2 0xCFE JUMP JUMPDEST PUSH2 0x20F PUSH2 0x1C7 CALLDATASIZE PUSH1 0x4 PUSH2 0x17BA JUMP JUMPDEST PUSH1 0x1 PUSH1 0x1 PUSH1 0xA0 SHL SUB AND PUSH1 0x0 SWAP1 DUP2 MSTORE PUSH1 0x2 PUSH1 0x20 DUP2 SWAP1 MSTORE PUSH1 0x40 SWAP1 SWAP2 KECCAK256 PUSH1 0x5 DUP2 ADD SLOAD PUSH1 0x1 DUP3 ADD SLOAD SWAP3 DUP3 ADD SLOAD PUSH1 0x3 DUP4 ADD SLOAD PUSH1 0x4 SWAP1 SWAP4 ADD SLOAD PUSH1 0xFF DUP1 DUP5 AND SWAP7 SWAP3 SWAP5 SWAP4 SWAP2 SWAP3 PUSH2 0x100 SWAP1 SWAP3 DIV AND SWAP1 JUMP JUMPDEST PUSH1 0x40 DUP1 MLOAD SWAP7 ISZERO ISZERO DUP8 MSTORE PUSH1 0x20 DUP8 ADD SWAP6 SWAP1 SWAP6 MSTORE SWAP4 DUP6 ADD SWAP3 SWAP1 SWAP3 MSTORE PUSH1 0x60 DUP5 ADD MSTORE PUSH1 0x80 DUP4 ADD MSTORE ISZERO ISZERO PUSH1 0xA0 DUP3 ADD MSTORE PUSH1 0xC0 ADD PUSH2 0x108 JUMP JUMPDEST PUSH2 0xCC PUSH2 0x24E CALLDATASIZE PUSH1 0x4 PUSH2 0x17BA JUMP JUMPDEST PUSH2 0xE11 JUMP JUMPDEST PUSH2 0x266 PUSH2 0x261 CALLDATASIZE PUSH1 0x4 PUSH2 0x17BA JUMP JUMPDEST PUSH2 0x1272 JUMP JUMPDEST PUSH1 0x40 MLOAD PUSH2 0x108 SWAP2 SWAP1 PUSH2 0x17DC JUMP JUMPDEST PUSH2 0x286 PUSH2 0x281 CALLDATASIZE PUSH1 0x4 PUSH2 0x17BA JUMP JUMPDEST PUSH2 0x12E9 JUMP JUMPDEST PUSH1 0x40 MLOAD PUSH2 0x108 SWAP7 SWAP6 SWAP5 SWAP4 SWAP3 SWAP2 SWAP1 PUSH2 0x186F JUMP JUMPDEST CALLER PUSH1 0x0 SWAP1 DUP2 MSTORE PUSH1 0x20 DUP2 SWAP1 MSTORE PUSH1 0x40 SWAP1 KECCAK256 PUSH1 0x7 ADD SLOAD PUSH2 0x100 SWAP1 DIV PUSH1 0xFF AND ISZERO PUSH2 0x305 JUMPI PUSH1 0x40 MLOAD PUSH3 0x461BCD PUSH1 0xE5 SHL DUP2 MSTORE PUSH1 0x20 PUSH1 0x4 DUP3 ADD MSTORE PUSH1 0x18 PUSH1 0x24 DUP3 ADD MSTORE PUSH32 0x4F776E657220616C726561647920726567697374657265640000000000000000 PUSH1 0x44 DUP3 ADD MSTORE PUSH1 0x64 ADD JUMPDEST PUSH1 0x40 MLOAD DUP1 SWAP2 SUB SWAP1 REVERT JUMPDEST PUSH3 0x15180 DUP2 LT ISZERO PUSH2 0x358 JUMPI PUSH1 0x40 MLOAD PUSH3 0x461BCD PUSH1 0xE5 SHL DUP2 MSTORE PUSH1 0x20 PUSH1 0x4 DUP3 ADD MSTORE PUSH1 0x18 PUSH1 0x24 DUP3 ADD MSTORE PUSH32 0x477261636520696E74657276616C20746F6F2073686F72740000000000000000 PUSH1 0x44 DUP3 ADD MSTORE PUSH1 0x64 ADD PUSH2 0x2FC JUMP JUMPDEST PUSH4 0x1E13380 DUP2 GT ISZERO PUSH2 0x3AC JUMPI PUSH1 0x40 MLOAD PUSH3 0x461BCD PUSH1 0xE5 SHL DUP2 MSTORE PUSH1 0x20 PUSH1 0x4 DUP3 ADD MSTORE PUSH1 0x17 PUSH1 0x24 DUP3 ADD MSTORE PUSH32 0x477261636520696E74657276616C20746F6F206C6F6E67000000000000000000 PUSH1 0x44 DUP3 ADD MSTORE PUSH1 0x64 ADD PUSH2 0x2FC JUMP JUMPDEST PUSH1 0x40 MLOAD DUP1 PUSH2 0x140 ADD PUSH1 0x40 MSTORE DUP1 CALLER PUSH1 0x1 PUSH1 0x1 PUSH1 0xA0 SHL SUB AND DUP2 MSTORE PUSH1 0x20 ADD DUP11 DUP11 DUP1 DUP1 PUSH1 0x1F ADD PUSH1 0x20 DUP1 SWAP2 DIV MUL PUSH1 0x20 ADD PUSH1 0x40 MLOAD SWAP1 DUP2 ADD PUSH1 0x40 MSTORE DUP1 SWAP4 SWAP3 SWAP2 SWAP1 DUP2 DUP2 MSTORE PUSH1 0x20 ADD DUP4 DUP4 DUP1 DUP3 DUP5 CALLDATACOPY PUSH1 0x0 SWAP3 ADD SWAP2 SWAP1 SWAP2 MSTORE POP POP POP SWAP1 DUP3 MSTORE POP PUSH1 0x40 DUP1 MLOAD PUSH1 0x20 PUSH1 0x1F DUP12 ADD DUP2 SWAP1 DIV DUP2 MUL DUP3 ADD DUP2 ADD SWAP1 SWAP3 MSTORE DUP10 DUP2 MSTORE SWAP2 DUP2 ADD SWAP2 SWAP1 DUP11 SWAP1 DUP11 SWAP1 DUP2 SWAP1 DUP5 ADD DUP4 DUP3 DUP1 DUP3 DUP5 CALLDATACOPY PUSH1 0x0 SWAP3 ADD SWAP2 SWAP1 SWAP2 MSTORE POP POP POP SWAP1 DUP3 MSTORE POP PUSH1 0x40 DUP1 MLOAD PUSH1 0x20 PUSH1 0x1F DUP10 ADD DUP2 SWAP1 DIV DUP2 MUL DUP3 ADD DUP2 ADD SWAP1 SWAP3 MSTORE DUP8 DUP2 MSTORE SWAP2 DUP2 ADD SWAP2 SWAP1 DUP9 SWAP1 DUP9 SWAP1 DUP2 SWAP1 DUP5 ADD DUP4 DUP3 DUP1 DUP3 DUP5 CALLDATACOPY PUSH1 0x0 SWAP3 ADD SWAP2 SWAP1 SWAP2 MSTORE POP POP POP SWAP1 DUP3 MSTORE POP PUSH1 0x40 DUP1 MLOAD PUSH1 0x20 PUSH1 0x1F DUP8 ADD DUP2 SWAP1 DIV DUP2 MUL DUP3 ADD DUP2 ADD SWAP1 SWAP3 MSTORE DUP6 DUP2 MSTORE SWAP2 DUP2 ADD SWAP2 SWAP1 DUP7 SWAP1 DUP7 SWAP1 DUP2 SWAP1 DUP5 ADD DUP4 DUP3 DUP1 DUP3 DUP5 CALLDATACOPY PUSH1 0x0 SWAP3 ADD DUP3 SWAP1 MSTORE POP SWAP4 DUP6 MSTORE POP POP TIMESTAMP PUSH1 0x20 DUP5 ADD MSTORE POP PUSH1 0x40 DUP3 ADD DUP5 SWAP1 MSTORE PUSH1 0x60 DUP3 ADD DUP2 SWAP1 MSTORE PUSH1 0x1 PUSH1 0x80 DUP4 ADD MSTORE PUSH1 0xA0 SWAP1 SWAP2 ADD SWAP1 PUSH1 0x40 MLOAD SWAP1 DUP1 DUP3 MSTORE DUP1 PUSH1 0x20 MUL PUSH1 0x20 ADD DUP3 ADD PUSH1 0x40 MSTORE DUP1 ISZERO PUSH2 0x4FA JUMPI DUP2 PUSH1 0x20 ADD PUSH1 0x20 DUP3 MUL DUP1 CALLDATASIZE DUP4 CALLDATACOPY ADD SWAP1 POP JUMPDEST POP SWAP1 MSTORE CALLER PUSH1 0x0 SWAP1 DUP2 MSTORE PUSH1 0x20 DUP2 DUP2 MSTORE PUSH1 0x40 SWAP1 SWAP2 KECCAK256 DUP3 MLOAD DUP2 SLOAD PUSH1 0x1 PUSH1 0x1 PUSH1 0xA0 SHL SUB NOT AND PUSH1 0x1 PUSH1 0x1 PUSH1 0xA0 SHL SUB SWAP1 SWAP2 AND OR DUP2 SSTORE SWAP1 DUP3 ADD MLOAD PUSH1 0x1 DUP3 ADD SWAP1 PUSH2 0x53C SWAP1 DUP3 PUSH2 0x195A JUMP JUMPDEST POP PUSH1 0x40 DUP3 ADD MLOAD PUSH1 0x2 DUP3 ADD SWAP1 PUSH2 0x551 SWAP1 DUP3 PUSH2 0x195A JUMP JUMPDEST POP PUSH1 0x60 DUP3 ADD MLOAD PUSH1 0x3 DUP3 ADD SWAP1 PUSH2 0x566 SWAP1 DUP3 PUSH2 0x195A JUMP JUMPDEST POP PUSH1 0x80 DUP3 ADD MLOAD PUSH1 0x4 DUP3 ADD SWAP1 PUSH2 0x57B SWAP1 DUP3 PUSH2 0x195A JUMP JUMPDEST POP PUSH1 0xA0 DUP3 ADD MLOAD PUSH1 0x5 DUP3 ADD SSTORE PUSH1 0xC0 DUP3 ADD MLOAD PUSH1 0x6 DUP3 ADD SSTORE PUSH1 0xE0 DUP3 ADD MLOAD PUSH1 0x7 DUP3 ADD DUP1 SLOAD PUSH2 0x100 DUP1 DUP7 ADD MLOAD ISZERO ISZERO MUL PUSH2 0xFF00 NOT SWAP4 ISZERO ISZERO SWAP4 SWAP1 SWAP4 AND PUSH2 0xFFFF NOT SWAP1 SWAP2 AND OR SWAP2 SWAP1 SWAP2 OR SWAP1 SSTORE PUSH2 0x120 DUP3 ADD MLOAD DUP1 MLOAD PUSH2 0x5DA SWAP2 PUSH1 0x8 DUP5 ADD SWAP2 PUSH1 0x20 SWAP1 SWAP2 ADD SWAP1 PUSH2 0x15A0 JUMP JUMPDEST POP POP PUSH1 0x40 MLOAD CALLER SWAP2 POP PUSH32 0x90FDCD9183750BDFB11BE5D6379C04E744E8F650AAC530EA853C19226EA7EB2B SWAP1 PUSH2 0x615 SWAP1 DUP13 SWAP1 DUP13 SWAP1 DUP13 SWAP1 DUP13 SWAP1 PUSH2 0x1A43 JUMP JUMPDEST PUSH1 0x40 MLOAD DUP1 SWAP2 SUB SWAP1 LOG2 POP POP POP POP POP POP POP POP POP JUMP JUMPDEST CALLER PUSH1 0x0 SWAP1 DUP2 MSTORE PUSH1 0x20 DUP2 SWAP1 MSTORE PUSH1 0x40 SWAP1 KECCAK256 PUSH1 0x7 ADD SLOAD PUSH2 0x100 SWAP1 DIV PUSH1 0xFF AND PUSH2 0x65F JUMPI PUSH1 0x40 MLOAD PUSH3 0x461BCD PUSH1 0xE5 SHL DUP2 MSTORE PUSH1 0x4 ADD PUSH2 0x2FC SWAP1 PUSH2 0x1A75 JUMP JUMPDEST CALLER PUSH1 0x1 PUSH1 0x1 PUSH1 0xA0 SHL SUB DUP4 AND SUB PUSH2 0x6B7 JUMPI PUSH1 0x40 MLOAD PUSH3 0x461BCD PUSH1 0xE5 SHL DUP2 MSTORE PUSH1 0x20 PUSH1 0x4 DUP3 ADD MSTORE PUSH1 0x1E PUSH1 0x24 DUP3 ADD MSTORE PUSH32 0x43616E6E6F742061646420796F757273656C6620617320636F6E746163740000 PUSH1 0x44 DUP3 ADD MSTORE PUSH1 0x64 ADD PUSH2 0x2FC JUMP JUMPDEST CALLER PUSH1 0x0 SWAP1 DUP2 MSTORE PUSH1 0x1 PUSH1 0x20 SWAP1 DUP2 MSTORE PUSH1 0x40 DUP1 DUP4 KECCAK256 PUSH1 0x1 PUSH1 0x1 PUSH1 0xA0 SHL SUB DUP7 AND DUP5 MSTORE SWAP1 SWAP2 MSTORE SWAP1 KECCAK256 SLOAD PUSH3 0x10000 SWAP1 DIV PUSH1 0xFF AND ISZERO PUSH2 0x72A JUMPI PUSH1 0x40 MLOAD PUSH3 0x461BCD PUSH1 0xE5 SHL DUP2 MSTORE PUSH1 0x20 PUSH1 0x4 DUP3 ADD MSTORE PUSH1 0x16 PUSH1 0x24 DUP3 ADD MSTORE PUSH22 0x436F6E7461637420616C726561647920657869737473 PUSH1 0x50 SHL PUSH1 0x44 DUP3 ADD MSTORE PUSH1 0x64 ADD PUSH2 0x2FC JUMP JUMPDEST PUSH1 0x40 DUP1 MLOAD PUSH1 0x60 DUP2 ADD DUP3 MSTORE DUP3 ISZERO ISZERO DUP1 DUP3 MSTORE PUSH1 0x0 PUSH1 0x20 DUP1 DUP5 ADD DUP3 DUP2 MSTORE PUSH1 0x1 DUP6 DUP8 ADD DUP2 DUP2 MSTORE CALLER DUP1 DUP7 MSTORE DUP3 DUP6 MSTORE DUP9 DUP7 KECCAK256 PUSH1 0x1 PUSH1 0x1 PUSH1 0xA0 SHL SUB DUP13 AND DUP1 DUP9 MSTORE SWAP1 DUP7 MSTORE DUP10 DUP8 KECCAK256 SWAP9 MLOAD DUP10 SLOAD SWAP6 MLOAD SWAP4 MLOAD ISZERO ISZERO PUSH3 0x10000 MUL PUSH3 0xFF0000 NOT SWAP5 ISZERO ISZERO PUSH2 0x100 MUL PUSH2 0xFF00 NOT SWAP3 ISZERO ISZERO SWAP3 SWAP1 SWAP3 AND PUSH2 0xFFFF NOT SWAP1 SWAP8 AND SWAP7 SWAP1 SWAP7 OR OR SWAP3 SWAP1 SWAP3 AND SWAP4 SWAP1 SWAP4 OR SWAP1 SWAP7 SSTORE DUP2 DUP5 MSTORE DUP4 DUP4 MSTORE DUP7 DUP5 KECCAK256 PUSH1 0x8 ADD DUP1 SLOAD SWAP2 DUP3 ADD DUP2 SSTORE DUP5 MSTORE SWAP3 DUP3 SWAP1 KECCAK256 SWAP1 SWAP3 ADD DUP1 SLOAD PUSH1 0x1 PUSH1 0x1 PUSH1 0xA0 SHL SUB NOT AND DUP6 OR SWAP1 SSTORE SWAP4 MLOAD SWAP2 DUP3 MSTORE SWAP2 SWAP3 PUSH32 0xC329A4824B9CDDBF4EFB396983DB7496360FE08A32EBBD5F6021D4835E275CF4 SWAP2 ADD PUSH1 0x40 MLOAD DUP1 SWAP2 SUB SWAP1 LOG3 POP POP JUMP JUMPDEST CALLER PUSH1 0x0 SWAP1 DUP2 MSTORE PUSH1 0x20 DUP2 SWAP1 MSTORE PUSH1 0x40 SWAP1 KECCAK256 PUSH1 0x7 ADD SLOAD PUSH2 0x100 SWAP1 DIV PUSH1 0xFF AND PUSH2 0x83F JUMPI PUSH1 0x40 MLOAD PUSH3 0x461BCD PUSH1 0xE5 SHL DUP2 MSTORE PUSH1 0x4 ADD PUSH2 0x2FC SWAP1 PUSH2 0x1A75 JUMP JUMPDEST CALLER PUSH1 0x0 SWAP1 DUP2 MSTORE PUSH1 0x20 DUP2 SWAP1 MSTORE PUSH1 0x40 SWAP1 KECCAK256 PUSH1 0x7 ADD SLOAD PUSH1 0xFF AND ISZERO PUSH2 0x8A2 JUMPI PUSH1 0x40 MLOAD PUSH3 0x461BCD PUSH1 0xE5 SHL DUP2 MSTORE PUSH1 0x20 PUSH1 0x4 DUP3 ADD MSTORE PUSH1 0x19 PUSH1 0x24 DUP3 ADD MSTORE PUSH32 0x4F776E657220697320616C726561647920646563656173656400000000000000 PUSH1 0x44 DUP3 ADD MSTORE PUSH1 0x64 ADD PUSH2 0x2FC JUMP JUMPDEST CALLER PUSH1 0x0 SWAP1 DUP2 MSTORE PUSH1 0x20 DUP2 DUP2 MSTORE PUSH1 0x40 DUP1 DUP4 KECCAK256 TIMESTAMP PUSH1 0x5 SWAP2 DUP3 ADD SSTORE PUSH1 0x2 SWAP1 SWAP3 MSTORE SWAP1 SWAP2 KECCAK256 ADD SLOAD PUSH1 0xFF AND ISZERO PUSH2 0x928 JUMPI CALLER PUSH1 0x0 DUP2 DUP2 MSTORE PUSH1 0x2 PUSH1 0x20 MSTORE PUSH1 0x40 DUP1 DUP3 KECCAK256 PUSH1 0x5 ADD DUP1 SLOAD PUSH1 0xFF NOT AND SWAP1 SSTORE MLOAD PUSH32 0xAC892F9EA2BAC4D143F762134B209DE57EFB94B00C56302AAED590951368EAAC SWAP2 PUSH2 0x91F SWAP2 TIMESTAMP SWAP1 SWAP2 ISZERO ISZERO DUP3 MSTORE PUSH1 0x20 DUP3 ADD MSTORE PUSH1 0x40 ADD SWAP1 JUMP JUMPDEST PUSH1 0x40 MLOAD DUP1 SWAP2 SUB SWAP1 LOG2 JUMPDEST PUSH1 0x40 MLOAD TIMESTAMP DUP2 MSTORE CALLER SWAP1 PUSH32 0x878229CAB17522B0AA9FE67EF166BA37857B7FDB46CD8748179A9D9A7373727F SWAP1 PUSH1 0x20 ADD PUSH1 0x40 MLOAD DUP1 SWAP2 SUB SWAP1 LOG2 JUMP JUMPDEST PUSH1 0x1 PUSH1 0x1 PUSH1 0xA0 SHL SUB DUP1 DUP4 AND PUSH1 0x0 SWAP1 DUP2 MSTORE PUSH1 0x2 PUSH1 0x20 SWAP1 DUP2 MSTORE PUSH1 0x40 DUP1 DUP4 KECCAK256 SWAP4 DUP6 AND DUP4 MSTORE PUSH1 0x6 SWAP1 SWAP4 ADD SWAP1 MSTORE KECCAK256 SLOAD PUSH1 0xFF AND JUMPDEST SWAP3 SWAP2 POP POP JUMP JUMPDEST PUSH1 0x1 PUSH1 0x1 PUSH1 0xA0 SHL SUB DUP3 AND PUSH1 0x0 SWAP1 DUP2 MSTORE PUSH1 0x1 PUSH1 0x20 SWAP1 DUP2 MSTORE PUSH1 0x40 DUP1 DUP4 KECCAK256 CALLER DUP5 MSTORE SWAP1 SWAP2 MSTORE SWAP1 KECCAK256 SLOAD DUP3 SWAP1 PUSH3 0x10000 SWAP1 DIV PUSH1 0xFF AND PUSH2 0x9DE JUMPI PUSH1 0x40 MLOAD PUSH3 0x461BCD PUSH1 0xE5 SHL DUP2 MSTORE PUSH1 0x4 ADD PUSH2 0x2FC SWAP1 PUSH2 0x1AA3 JUMP JUMPDEST PUSH1 0x1 PUSH1 0x1 PUSH1 0xA0 SHL SUB DUP2 AND PUSH1 0x0 SWAP1 DUP2 MSTORE PUSH1 0x1 PUSH1 0x20 SWAP1 DUP2 MSTORE PUSH1 0x40 DUP1 DUP4 KECCAK256 CALLER DUP5 MSTORE SWAP1 SWAP2 MSTORE SWAP1 KECCAK256 SLOAD PUSH2 0x100 SWAP1 DIV PUSH1 0xFF AND PUSH2 0xA4D JUMPI PUSH1 0x40 MLOAD PUSH3 0x461BCD PUSH1 0xE5 SHL DUP2 MSTORE PUSH1 0x20 PUSH1 0x4 DUP3 ADD MSTORE PUSH1 0x14 PUSH1 0x24 DUP3 ADD MSTORE PUSH20 0x10DBDB9D1858DD081B9BDD081D995C9A599A5959 PUSH1 0x62 SHL PUSH1 0x44 DUP3 ADD MSTORE PUSH1 0x64 ADD PUSH2 0x2FC JUMP JUMPDEST PUSH1 0x1 PUSH1 0x1 PUSH1 0xA0 SHL SUB DUP2 AND PUSH1 0x0 SWAP1 DUP2 MSTORE PUSH1 0x1 PUSH1 0x20 SWAP1 DUP2 MSTORE PUSH1 0x40 DUP1 DUP4 KECCAK256 CALLER DUP5 MSTORE SWAP1 SWAP2 MSTORE SWAP1 KECCAK256 SLOAD PUSH1 0xFF AND PUSH2 0xAB3 JUMPI PUSH1 0x40 MLOAD PUSH3 0x461BCD PUSH1 0xE5 SHL DUP2 MSTORE PUSH1 0x20 PUSH1 0x4 DUP3 ADD MSTORE PUSH1 0x10 PUSH1 0x24 DUP3 ADD MSTORE PUSH16 0x4E6F20766F74696E6720726967687473 PUSH1 0x80 SHL PUSH1 0x44 DUP3 ADD MSTORE PUSH1 0x64 ADD PUSH2 0x2FC JUMP JUMPDEST PUSH1 0x1 PUSH1 0x1 PUSH1 0xA0 SHL SUB DUP4 AND PUSH1 0x0 SWAP1 DUP2 MSTORE PUSH1 0x2 PUSH1 0x20 MSTORE PUSH1 0x40 SWAP1 KECCAK256 PUSH1 0x5 ADD SLOAD PUSH1 0xFF AND PUSH2 0xB1E JUMPI PUSH1 0x40 MLOAD PUSH3 0x461BCD PUSH1 0xE5 SHL DUP2 MSTORE PUSH1 0x20 PUSH1 0x4 DUP3 ADD MSTORE PUSH1 0x1B PUSH1 0x24 DUP3 ADD MSTORE PUSH32 0x4E6F20616374697665206465617468206465636C61726174696F6E0000000000 PUSH1 0x44 DUP3 ADD MSTORE PUSH1 0x64 ADD PUSH2 0x2FC JUMP JUMPDEST PUSH1 0x1 PUSH1 0x1 PUSH1 0xA0 SHL SUB DUP4 AND PUSH1 0x0 SWAP1 DUP2 MSTORE PUSH1 0x2 PUSH1 0x20 SWAP1 DUP2 MSTORE PUSH1 0x40 DUP1 DUP4 KECCAK256 CALLER DUP5 MSTORE PUSH1 0x6 ADD SWAP1 SWAP2 MSTORE SWAP1 KECCAK256 SLOAD PUSH1 0xFF AND ISZERO PUSH2 0xB85 JUMPI PUSH1 0x40 MLOAD PUSH3 0x461BCD PUSH1 0xE5 SHL DUP2 MSTORE PUSH1 0x20 PUSH1 0x4 DUP3 ADD MSTORE PUSH1 0xD PUSH1 0x24 DUP3 ADD MSTORE PUSH13 0x105B1C9958591E481D9BDD1959 PUSH1 0x9A SHL PUSH1 0x44 DUP3 ADD MSTORE PUSH1 0x64 ADD PUSH2 0x2FC JUMP JUMPDEST PUSH1 0x1 PUSH1 0x1 PUSH1 0xA0 SHL SUB DUP4 AND PUSH1 0x0 SWAP1 DUP2 MSTORE PUSH1 0x2 PUSH1 0x20 SWAP1 DUP2 MSTORE PUSH1 0x40 DUP1 DUP4 KECCAK256 CALLER DUP5 MSTORE PUSH1 0x6 DUP2 ADD DUP4 MSTORE DUP2 DUP5 KECCAK256 DUP1 SLOAD PUSH1 0xFF NOT SWAP1 DUP2 AND PUSH1 0x1 OR SWAP1 SWAP2 SSTORE PUSH1 0x7 DUP3 ADD SWAP1 SWAP4 MSTORE SWAP3 KECCAK256 DUP1 SLOAD DUP6 ISZERO DUP1 ISZERO SWAP2 SWAP1 SWAP4 AND OR SWAP1 SSTORE PUSH2 0xBF0 JUMPI PUSH1 0x2 DUP2 ADD DUP1 SLOAD SWAP1 PUSH1 0x0 PUSH2 0xBE6 DUP4 PUSH2 0x1AF0 JUMP JUMPDEST SWAP2 SWAP1 POP SSTORE POP PUSH2 0xC08 JUMP JUMPDEST PUSH1 0x3 DUP2 ADD DUP1 SLOAD SWAP1 PUSH1 0x0 PUSH2 0xC02 DUP4 PUSH2 0x1AF0 JUMP JUMPDEST SWAP2 SWAP1 POP SSTORE POP JUMPDEST PUSH1 0x40 MLOAD DUP4 ISZERO ISZERO DUP2 MSTORE CALLER SWAP1 PUSH1 0x1 PUSH1 0x1 PUSH1 0xA0 SHL SUB DUP7 AND SWAP1 PUSH32 0xCC194F214DF029FE546C9959EE15D79D8633742AAB6C02A862E337F8ACE3D550 SWAP1 PUSH1 0x20 ADD JUMPDEST PUSH1 0x40 MLOAD DUP1 SWAP2 SUB SWAP1 LOG3 PUSH2 0xC54 DUP5 PUSH2 0x1467 JUMP JUMPDEST POP POP POP POP JUMP JUMPDEST PUSH1 0x1 PUSH1 0x1 PUSH1 0xA0 SHL SUB DUP1 DUP4 AND PUSH1 0x0 SWAP1 DUP2 MSTORE PUSH1 0x2 PUSH1 0x20 SWAP1 DUP2 MSTORE PUSH1 0x40 DUP1 DUP4 KECCAK256 SWAP4 DUP6 AND DUP4 MSTORE PUSH1 0x6 SWAP1 SWAP4 ADD SWAP1 MSTORE SWAP1 DUP2 KECCAK256 SLOAD PUSH1 0xFF AND PUSH2 0xCCB JUMPI PUSH1 0x40 MLOAD PUSH3 0x461BCD PUSH1 0xE5 SHL DUP2 MSTORE PUSH1 0x20 PUSH1 0x4 DUP3 ADD MSTORE PUSH1 0x13 PUSH1 0x24 DUP3 ADD MSTORE PUSH19 0x159BDD195C881A185CC81B9BDD081D9BDD1959 PUSH1 0x6A SHL PUSH1 0x44 DUP3 ADD MSTORE PUSH1 0x64 ADD PUSH2 0x2FC JUMP JUMPDEST POP PUSH1 0x1 PUSH1 0x1 PUSH1 0xA0 SHL SUB SWAP2 DUP3 AND PUSH1 0x0 SWAP1 DUP2 MSTORE PUSH1 0x2 PUSH1 0x20 SWAP1 DUP2 MSTORE PUSH1 0x40 DUP1 DUP4 KECCAK256 SWAP4 SWAP1 SWAP5 AND DUP3 MSTORE PUSH1 0x7 SWAP1 SWAP3 ADD SWAP1 SWAP2 MSTORE KECCAK256 SLOAD PUSH1 0xFF AND SWAP1 JUMP JUMPDEST PUSH1 0x1 PUSH1 0x1 PUSH1 0xA0 SHL SUB DUP2 AND PUSH1 0x0 SWAP1 DUP2 MSTORE PUSH1 0x1 PUSH1 0x20 SWAP1 DUP2 MSTORE PUSH1 0x40 DUP1 DUP4 KECCAK256 CALLER DUP5 MSTORE SWAP1 SWAP2 MSTORE SWAP1 KECCAK256 SLOAD DUP2 SWAP1 PUSH3 0x10000 SWAP1 DIV PUSH1 0xFF AND PUSH2 0xD49 JUMPI PUSH1 0x40 MLOAD PUSH3 0x461BCD PUSH1 0xE5 SHL DUP2 MSTORE PUSH1 0x4 ADD PUSH2 0x2FC SWAP1 PUSH2 0x1AA3 JUMP JUMPDEST PUSH1 0x1 PUSH1 0x1 PUSH1 0xA0 SHL SUB DUP3 AND PUSH1 0x0 SWAP1 DUP2 MSTORE PUSH1 0x1 PUSH1 0x20 SWAP1 DUP2 MSTORE PUSH1 0x40 DUP1 DUP4 KECCAK256 CALLER DUP5 MSTORE SWAP1 SWAP2 MSTORE SWAP1 KECCAK256 SLOAD PUSH2 0x100 SWAP1 DIV PUSH1 0xFF AND ISZERO PUSH2 0xDB5 JUMPI PUSH1 0x40 MLOAD PUSH3 0x461BCD PUSH1 0xE5 SHL DUP2 MSTORE PUSH1 0x20 PUSH1 0x4 DUP3 ADD MSTORE PUSH1 0x10 PUSH1 0x24 DUP3 ADD MSTORE PUSH16 0x105B1C9958591E481D995C9A599A5959 PUSH1 0x82 SHL PUSH1 0x44 DUP3 ADD MSTORE PUSH1 0x64 ADD PUSH2 0x2FC JUMP JUMPDEST PUSH1 0x1 PUSH1 0x1 PUSH1 0xA0 SHL SUB DUP3 AND PUSH1 0x0 DUP2 DUP2 MSTORE PUSH1 0x1 PUSH1 0x20 SWAP1 DUP2 MSTORE PUSH1 0x40 DUP1 DUP4 KECCAK256 CALLER DUP1 DUP6 MSTORE SWAP3 MSTORE DUP1 DUP4 KECCAK256 DUP1 SLOAD PUSH2 0xFF00 NOT AND PUSH2 0x100 OR SWAP1 SSTORE MLOAD SWAP1 SWAP3 SWAP2 PUSH32 0x33C6B9962C16A3768D4F15C8F694B088FD57A39499A9B9F7E59243C371A2207A SWAP2 LOG3 POP POP JUMP JUMPDEST PUSH1 0x1 PUSH1 0x1 PUSH1 0xA0 SHL SUB DUP2 AND PUSH1 0x0 SWAP1 DUP2 MSTORE PUSH1 0x1 PUSH1 0x20 SWAP1 DUP2 MSTORE PUSH1 0x40 DUP1 DUP4 KECCAK256 CALLER DUP5 MSTORE SWAP1 SWAP2 MSTORE SWAP1 KECCAK256 SLOAD DUP2 SWAP1 PUSH3 0x10000 SWAP1 DIV PUSH1 0xFF AND PUSH2 0xE5C JUMPI PUSH1 0x40 MLOAD PUSH3 0x461BCD PUSH1 0xE5 SHL DUP2 MSTORE PUSH1 0x4 ADD PUSH2 0x2FC SWAP1 PUSH2 0x1AA3 JUMP JUMPDEST PUSH1 0x1 PUSH1 0x1 PUSH1 0xA0 SHL SUB DUP2 AND PUSH1 0x0 SWAP1 DUP2 MSTORE PUSH1 0x1 PUSH1 0x20 SWAP1 DUP2 MSTORE PUSH1 0x40 DUP1 DUP4 KECCAK256 CALLER DUP5 MSTORE SWAP1 SWAP2 MSTORE SWAP1 KECCAK256 SLOAD PUSH2 0x100 SWAP1 DIV PUSH1 0xFF AND PUSH2 0xECB JUMPI PUSH1 0x40 MLOAD PUSH3 0x461BCD PUSH1 0xE5 SHL DUP2 MSTORE PUSH1 0x20 PUSH1 0x4 DUP3 ADD MSTORE PUSH1 0x14 PUSH1 0x24 DUP3 ADD MSTORE PUSH20 0x10DBDB9D1858DD081B9BDD081D995C9A599A5959 PUSH1 0x62 SHL PUSH1 0x44 DUP3 ADD MSTORE PUSH1 0x64 ADD PUSH2 0x2FC JUMP JUMPDEST PUSH1 0x1 PUSH1 0x1 PUSH1 0xA0 SHL SUB DUP2 AND PUSH1 0x0 SWAP1 DUP2 MSTORE PUSH1 0x1 PUSH1 0x20 SWAP1 DUP2 MSTORE PUSH1 0x40 DUP1 DUP4 KECCAK256 CALLER DUP5 MSTORE SWAP1 SWAP2 MSTORE SWAP1 KECCAK256 SLOAD PUSH1 0xFF AND PUSH2 0xF31 JUMPI PUSH1 0x40 MLOAD PUSH3 0x461BCD PUSH1 0xE5 SHL DUP2 MSTORE PUSH1 0x20 PUSH1 0x4 DUP3 ADD MSTORE PUSH1 0x10 PUSH1 0x24 DUP3 ADD MSTORE PUSH16 0x4E6F20766F74696E6720726967687473 PUSH1 0x80 SHL PUSH1 0x44 DUP3 ADD MSTORE PUSH1 0x64 ADD PUSH2 0x2FC JUMP JUMPDEST PUSH1 0x1 PUSH1 0x1 PUSH1 0xA0 SHL SUB DUP3 AND PUSH1 0x0 SWAP1 DUP2 MSTORE PUSH1 0x20 DUP2 SWAP1 MSTORE PUSH1 0x40 SWAP1 KECCAK256 PUSH1 0x7 ADD SLOAD PUSH2 0x100 SWAP1 DIV PUSH1 0xFF AND PUSH2 0xF71 JUMPI PUSH1 0x40 MLOAD PUSH3 0x461BCD PUSH1 0xE5 SHL DUP2 MSTORE PUSH1 0x4 ADD PUSH2 0x2FC SWAP1 PUSH2 0x1A75 JUMP JUMPDEST PUSH1 0x1 PUSH1 0x1 PUSH1 0xA0 SHL SUB DUP3 AND PUSH1 0x0 SWAP1 DUP2 MSTORE PUSH1 0x20 DUP2 SWAP1 MSTORE PUSH1 0x40 SWAP1 KECCAK256 PUSH1 0x7 ADD SLOAD PUSH1 0xFF AND ISZERO PUSH2 0xFD6 JUMPI PUSH1 0x40 MLOAD PUSH3 0x461BCD PUSH1 0xE5 SHL DUP2 MSTORE PUSH1 0x20 PUSH1 0x4 DUP3 ADD MSTORE PUSH1 0x16 PUSH1 0x24 DUP3 ADD MSTORE PUSH22 0x13DDDB995C88185B1C9958591E48191958D9585CD959 PUSH1 0x52 SHL PUSH1 0x44 DUP3 ADD MSTORE PUSH1 0x64 ADD PUSH2 0x2FC JUMP JUMPDEST PUSH1 0x1 PUSH1 0x1 PUSH1 0xA0 SHL SUB DUP3 AND PUSH1 0x0 SWAP1 DUP2 MSTORE PUSH1 0x2 PUSH1 0x20 MSTORE PUSH1 0x40 SWAP1 KECCAK256 PUSH1 0x5 ADD SLOAD PUSH1 0xFF AND ISZERO PUSH2 0x1042 JUMPI PUSH1 0x40 MLOAD PUSH3 0x461BCD PUSH1 0xE5 SHL DUP2 MSTORE PUSH1 0x20 PUSH1 0x4 DUP3 ADD DUP2 SWAP1 MSTORE PUSH1 0x24 DUP3 ADD MSTORE PUSH32 0x4465617468206465636C61726174696F6E20616C726561647920616374697665 PUSH1 0x44 DUP3 ADD MSTORE PUSH1 0x64 ADD PUSH2 0x2FC JUMP JUMPDEST PUSH1 0x0 DUP1 JUMPDEST PUSH1 0x1 PUSH1 0x1 PUSH1 0xA0 SHL SUB DUP5 AND PUSH1 0x0 SWAP1 DUP2 MSTORE PUSH1 0x20 DUP2 SWAP1 MSTORE PUSH1 0x40 SWAP1 KECCAK256 PUSH1 0x8 ADD SLOAD DUP2 LT ISZERO PUSH2 0x112A JUMPI PUSH1 0x1 PUSH1 0x1 PUSH1 0xA0 SHL SUB DUP5 AND PUSH1 0x0 SWAP1 DUP2 MSTORE PUSH1 0x20 DUP2 SWAP1 MSTORE PUSH1 0x40 DUP2 KECCAK256 PUSH1 0x8 ADD DUP1 SLOAD DUP4 SWAP1 DUP2 LT PUSH2 0x1096 JUMPI PUSH2 0x1096 PUSH2 0x1B09 JUMP JUMPDEST PUSH1 0x0 SWAP2 DUP3 MSTORE PUSH1 0x20 DUP1 DUP4 KECCAK256 SWAP1 SWAP2 ADD SLOAD PUSH1 0x1 PUSH1 0x1 PUSH1 0xA0 SHL SUB DUP9 DUP2 AND DUP5 MSTORE PUSH1 0x1 DUP4 MSTORE PUSH1 0x40 DUP1 DUP6 KECCAK256 SWAP2 SWAP1 SWAP3 AND DUP1 DUP6 MSTORE SWAP3 MSTORE SWAP1 SWAP2 KECCAK256 SLOAD SWAP1 SWAP2 POP PUSH1 0xFF PUSH2 0x100 SWAP1 SWAP2 DIV AND DUP1 ISZERO PUSH2 0x1104 JUMPI POP PUSH1 0x1 PUSH1 0x1 PUSH1 0xA0 SHL SUB DUP1 DUP7 AND PUSH1 0x0 SWAP1 DUP2 MSTORE PUSH1 0x1 PUSH1 0x20 SWAP1 DUP2 MSTORE PUSH1 0x40 DUP1 DUP4 KECCAK256 SWAP4 DUP6 AND DUP4 MSTORE SWAP3 SWAP1 MSTORE KECCAK256 SLOAD PUSH1 0xFF AND JUMPDEST ISZERO PUSH2 0x1117 JUMPI DUP3 PUSH2 0x1113 DUP2 PUSH2 0x1AF0 JUMP JUMPDEST SWAP4 POP POP JUMPDEST POP DUP1 PUSH2 0x1122 DUP2 PUSH2 0x1AF0 JUMP JUMPDEST SWAP2 POP POP PUSH2 0x1046 JUMP JUMPDEST POP PUSH1 0x0 DUP2 GT PUSH2 0x117B JUMPI PUSH1 0x40 MLOAD PUSH3 0x461BCD PUSH1 0xE5 SHL DUP2 MSTORE PUSH1 0x20 PUSH1 0x4 DUP3 ADD MSTORE PUSH1 0x1C PUSH1 0x24 DUP3 ADD MSTORE PUSH32 0x4E6F20766F74696E6720636F6E746163747320617661696C61626C6500000000 PUSH1 0x44 DUP3 ADD MSTORE PUSH1 0x64 ADD PUSH2 0x2FC JUMP JUMPDEST PUSH1 0x1 PUSH1 0x1 PUSH1 0xA0 SHL SUB DUP4 AND PUSH1 0x0 DUP2 DUP2 MSTORE PUSH1 0x2 PUSH1 0x20 DUP2 DUP2 MSTORE PUSH1 0x40 DUP1 DUP5 KECCAK256 DUP1 SLOAD PUSH1 0x1 PUSH1 0x1 PUSH1 0xA0 SHL SUB NOT AND CALLER SWAP1 DUP2 OR DUP3 SSTORE TIMESTAMP PUSH1 0x1 DUP1 DUP5 ADD DUP3 SWAP1 SSTORE SWAP6 DUP4 ADD DUP7 SWAP1 SSTORE PUSH1 0x3 DUP4 ADD DUP8 SWAP1 SSTORE PUSH1 0x4 DUP4 ADD DUP10 SWAP1 SSTORE PUSH1 0x5 DUP4 ADD DUP1 SLOAD PUSH2 0xFFFF NOT AND DUP8 OR SWAP1 SSTORE DUP2 DUP8 MSTORE PUSH1 0x6 DUP4 ADD DUP6 MSTORE DUP4 DUP8 KECCAK256 DUP1 SLOAD PUSH1 0xFF NOT SWAP1 DUP2 AND DUP9 OR SWAP1 SWAP2 SSTORE PUSH1 0x7 DUP5 ADD DUP7 MSTORE SWAP7 DUP5 SWAP1 KECCAK256 DUP1 SLOAD SWAP1 SWAP8 AND SWAP1 SWAP6 OR SWAP1 SWAP6 SSTORE SWAP1 MLOAD SWAP3 DUP4 MSTORE SWAP4 SWAP2 PUSH32 0xD1FFE6C6EEC884AE3341F8304738B02340905DFD25B73DF1802E7F95C9B9FBEC SWAP2 ADD PUSH1 0x40 MLOAD DUP1 SWAP2 SUB SWAP1 LOG3 PUSH1 0x40 MLOAD PUSH1 0x1 DUP2 MSTORE CALLER SWAP1 PUSH1 0x1 PUSH1 0x1 PUSH1 0xA0 SHL SUB DUP7 AND SWAP1 PUSH32 0xCC194F214DF029FE546C9959EE15D79D8633742AAB6C02A862E337F8ACE3D550 SWAP1 PUSH1 0x20 ADD PUSH2 0xC43 JUMP JUMPDEST PUSH1 0x1 PUSH1 0x1 PUSH1 0xA0 SHL SUB DUP2 AND PUSH1 0x0 SWAP1 DUP2 MSTORE PUSH1 0x20 DUP2 DUP2 MSTORE PUSH1 0x40 SWAP2 DUP3 SWAP1 KECCAK256 PUSH1 0x8 ADD DUP1 SLOAD DUP4 MLOAD DUP2 DUP5 MUL DUP2 ADD DUP5 ADD SWAP1 SWAP5 MSTORE DUP1 DUP5 MSTORE PUSH1 0x60 SWAP4 SWAP3 DUP4 ADD DUP3 DUP3 DUP1 ISZERO PUSH2 0x12DD JUMPI PUSH1 0x20 MUL DUP3 ADD SWAP2 SWAP1 PUSH1 0x0 MSTORE PUSH1 0x20 PUSH1 0x0 KECCAK256 SWAP1 JUMPDEST DUP2 SLOAD PUSH1 0x1 PUSH1 0x1 PUSH1 0xA0 SHL SUB AND DUP2 MSTORE PUSH1 0x1 SWAP1 SWAP2 ADD SWAP1 PUSH1 0x20 ADD DUP1 DUP4 GT PUSH2 0x12BF JUMPI JUMPDEST POP POP POP POP POP SWAP1 POP SWAP2 SWAP1 POP JUMP JUMPDEST PUSH1 0x1 PUSH1 0x1 PUSH1 0xA0 SHL SUB DUP2 AND PUSH1 0x0 SWAP1 DUP2 MSTORE PUSH1 0x20 DUP2 SWAP1 MSTORE PUSH1 0x40 DUP2 KECCAK256 PUSH1 0x5 DUP2 ADD SLOAD PUSH1 0x6 DUP3 ADD SLOAD PUSH1 0x7 DUP4 ADD SLOAD PUSH1 0x1 DUP5 ADD DUP1 SLOAD PUSH1 0x60 SWAP7 DUP8 SWAP7 SWAP1 SWAP6 DUP7 SWAP6 DUP7 SWAP6 DUP7 SWAP6 SWAP4 SWAP5 PUSH1 0x2 DUP7 ADD SWAP4 SWAP3 SWAP2 PUSH1 0xFF DUP1 DUP3 AND SWAP3 PUSH2 0x100 SWAP1 SWAP3 DIV AND SWAP1 DUP7 SWAP1 PUSH2 0x1345 SWAP1 PUSH2 0x18D2 JUMP JUMPDEST DUP1 PUSH1 0x1F ADD PUSH1 0x20 DUP1 SWAP2 DIV MUL PUSH1 0x20 ADD PUSH1 0x40 MLOAD SWAP1 DUP2 ADD PUSH1 0x40 MSTORE DUP1 SWAP3 SWAP2 SWAP1 DUP2 DUP2 MSTORE PUSH1 0x20 ADD DUP3 DUP1 SLOAD PUSH2 0x1371 SWAP1 PUSH2 0x18D2 JUMP JUMPDEST DUP1 ISZERO PUSH2 0x13BE JUMPI DUP1 PUSH1 0x1F LT PUSH2 0x1393 JUMPI PUSH2 0x100 DUP1 DUP4 SLOAD DIV MUL DUP4 MSTORE SWAP2 PUSH1 0x20 ADD SWAP2 PUSH2 0x13BE JUMP JUMPDEST DUP3 ADD SWAP2 SWAP1 PUSH1 0x0 MSTORE PUSH1 0x20 PUSH1 0x0 KECCAK256 SWAP1 JUMPDEST DUP2 SLOAD DUP2 MSTORE SWAP1 PUSH1 0x1 ADD SWAP1 PUSH1 0x20 ADD DUP1 DUP4 GT PUSH2 0x13A1 JUMPI DUP3 SWAP1 SUB PUSH1 0x1F AND DUP3 ADD SWAP2 JUMPDEST POP POP POP POP POP SWAP6 POP DUP5 DUP1 SLOAD PUSH2 0x13D1 SWAP1 PUSH2 0x18D2 JUMP JUMPDEST DUP1 PUSH1 0x1F ADD PUSH1 0x20 DUP1 SWAP2 DIV MUL PUSH1 0x20 ADD PUSH1 0x40 MLOAD SWAP1 DUP2 ADD PUSH1 0x40 MSTORE DUP1 SWAP3 SWAP2 SWAP1 DUP2 DUP2 MSTORE PUSH1 0x20 ADD DUP3 DUP1 SLOAD PUSH2 0x13FD SWAP1 PUSH2 0x18D2 JUMP JUMPDEST DUP1 ISZERO PUSH2 0x144A JUMPI DUP1 PUSH1 0x1F LT PUSH2 0x141F JUMPI PUSH2 0x100 DUP1 DUP4 SLOAD DIV MUL DUP4 MSTORE SWAP2 PUSH1 0x20 ADD SWAP2 PUSH2 0x144A JUMP JUMPDEST DUP3 ADD SWAP2 SWAP1 PUSH1 0x0 MSTORE PUSH1 0x20 PUSH1 0x0 KECCAK256 SWAP1 JUMPDEST DUP2 SLOAD DUP2 MSTORE SWAP1 PUSH1 0x1 ADD SWAP1 PUSH1 0x20 ADD DUP1 DUP4 GT PUSH2 0x142D JUMPI DUP3 SWAP1 SUB PUSH1 0x1F AND DUP3 ADD SWAP2 JUMPDEST POP POP POP POP POP SWAP5 POP SWAP7 POP SWAP7 POP SWAP7 POP SWAP7 POP SWAP7 POP SWAP7 POP POP SWAP2 SWAP4 SWAP6 POP SWAP2 SWAP4 SWAP6 JUMP JUMPDEST PUSH1 0x1 PUSH1 0x1 PUSH1 0xA0 SHL SUB DUP2 AND PUSH1 0x0 SWAP1 DUP2 MSTORE PUSH1 0x2 PUSH1 0x20 MSTORE PUSH1 0x40 DUP2 KECCAK256 PUSH1 0x4 DUP2 ADD SLOAD SWAP1 SWAP2 SWAP1 PUSH1 0x64 SWAP1 PUSH2 0x1495 SWAP1 PUSH1 0x32 PUSH2 0x1B1F JUMP JUMPDEST PUSH2 0x149F SWAP2 SWAP1 PUSH2 0x1B36 JUMP JUMPDEST PUSH2 0x14AA SWAP1 PUSH1 0x1 PUSH2 0x1B58 JUMP JUMPDEST SWAP1 POP DUP1 DUP3 PUSH1 0x2 ADD SLOAD LT PUSH2 0x153A JUMPI PUSH1 0x1 PUSH1 0x1 PUSH1 0xA0 SHL SUB DUP4 AND PUSH1 0x0 DUP2 DUP2 MSTORE PUSH1 0x20 DUP2 SWAP1 MSTORE PUSH1 0x40 SWAP1 DUP2 SWAP1 KECCAK256 PUSH1 0x7 ADD DUP1 SLOAD PUSH1 0xFF NOT AND PUSH1 0x1 SWAP1 DUP2 OR SWAP1 SWAP2 SSTORE PUSH1 0x5 DUP6 ADD DUP1 SLOAD PUSH2 0xFFFF NOT AND PUSH2 0x100 OR SWAP1 SSTORE SWAP1 MLOAD PUSH32 0xAC892F9EA2BAC4D143F762134B209DE57EFB94B00C56302AAED590951368EAAC SWAP2 PUSH2 0x152D SWAP2 TIMESTAMP SWAP1 SWAP2 ISZERO ISZERO DUP3 MSTORE PUSH1 0x20 DUP3 ADD MSTORE PUSH1 0x40 ADD SWAP1 JUMP JUMPDEST PUSH1 0x40 MLOAD DUP1 SWAP2 SUB SWAP1 LOG2 POP POP POP JUMP JUMPDEST DUP1 DUP3 PUSH1 0x3 ADD SLOAD LT PUSH2 0x159B JUMPI PUSH1 0x5 DUP3 ADD DUP1 SLOAD PUSH2 0xFFFF NOT AND PUSH2 0x100 OR SWAP1 SSTORE PUSH1 0x40 DUP1 MLOAD PUSH1 0x0 DUP2 MSTORE TIMESTAMP PUSH1 0x20 DUP3 ADD MSTORE PUSH1 0x1 PUSH1 0x1 PUSH1 0xA0 SHL SUB DUP6 AND SWAP2 PUSH32 0xAC892F9EA2BAC4D143F762134B209DE57EFB94B00C56302AAED590951368EAAC SWAP2 ADD PUSH1 0x40 MLOAD DUP1 SWAP2 SUB SWAP1 LOG2 JUMPDEST POP POP POP JUMP JUMPDEST DUP3 DUP1 SLOAD DUP3 DUP3 SSTORE SWAP1 PUSH1 0x0 MSTORE PUSH1 0x20 PUSH1 0x0 KECCAK256 SWAP1 DUP2 ADD SWAP3 DUP3 ISZERO PUSH2 0x15F5 JUMPI SWAP2 PUSH1 0x20 MUL DUP3 ADD JUMPDEST DUP3 DUP2 GT ISZERO PUSH2 0x15F5 JUMPI DUP3 MLOAD DUP3 SLOAD PUSH1 0x1 PUSH1 0x1 PUSH1 0xA0 SHL SUB NOT AND PUSH1 0x1 PUSH1 0x1 PUSH1 0xA0 SHL SUB SWAP1 SWAP2 AND OR DUP3 SSTORE PUSH1 0x20 SWAP1 SWAP3 ADD SWAP2 PUSH1 0x1 SWAP1 SWAP2 ADD SWAP1 PUSH2 0x15C0 JUMP JUMPDEST POP PUSH2 0x1601 SWAP3 SWAP2 POP PUSH2 0x1605 JUMP JUMPDEST POP SWAP1 JUMP JUMPDEST JUMPDEST DUP1 DUP3 GT ISZERO PUSH2 0x1601 JUMPI PUSH1 0x0 DUP2 SSTORE PUSH1 0x1 ADD PUSH2 0x1606 JUMP JUMPDEST PUSH1 0x0 DUP1 DUP4 PUSH1 0x1F DUP5 ADD SLT PUSH2 0x162C JUMPI PUSH1 0x0 DUP1 REVERT JUMPDEST POP DUP2 CALLDATALOAD PUSH8 0xFFFFFFFFFFFFFFFF DUP2 GT ISZERO PUSH2 0x1644 JUMPI PUSH1 0x0 DUP1 REVERT JUMPDEST PUSH1 0x20 DUP4 ADD SWAP2 POP DUP4 PUSH1 0x20 DUP3 DUP6 ADD ADD GT ISZERO PUSH2 0x165C JUMPI PUSH1 0x0 DUP1 REVERT JUMPDEST SWAP3 POP SWAP3 SWAP1 POP JUMP JUMPDEST PUSH1 0x0 DUP1 PUSH1 0x0 DUP1 PUSH1 0x0 DUP1 PUSH1 0x0 DUP1 PUSH1 0x0 PUSH1 0xA0 DUP11 DUP13 SUB SLT ISZERO PUSH2 0x1681 JUMPI PUSH1 0x0 DUP1 REVERT JUMPDEST DUP10 CALLDATALOAD PUSH8 0xFFFFFFFFFFFFFFFF DUP1 DUP3 GT ISZERO PUSH2 0x1699 JUMPI PUSH1 0x0 DUP1 REVERT JUMPDEST PUSH2 0x16A5 DUP14 DUP4 DUP15 ADD PUSH2 0x161A JUMP JUMPDEST SWAP1 SWAP12 POP SWAP10 POP PUSH1 0x20 DUP13 ADD CALLDATALOAD SWAP2 POP DUP1 DUP3 GT ISZERO PUSH2 0x16BE JUMPI PUSH1 0x0 DUP1 REVERT JUMPDEST PUSH2 0x16CA DUP14 DUP4 DUP15 ADD PUSH2 0x161A JUMP JUMPDEST SWAP1 SWAP10 POP SWAP8 POP PUSH1 0x40 DUP13 ADD CALLDATALOAD SWAP2 POP DUP1 DUP3 GT ISZERO PUSH2 0x16E3 JUMPI PUSH1 0x0 DUP1 REVERT JUMPDEST PUSH2 0x16EF DUP14 DUP4 DUP15 ADD PUSH2 0x161A JUMP JUMPDEST SWAP1 SWAP8 POP SWAP6 POP PUSH1 0x60 DUP13 ADD CALLDATALOAD SWAP2 POP DUP1 DUP3 GT ISZERO PUSH2 0x1708 JUMPI PUSH1 0x0 DUP1 REVERT JUMPDEST POP PUSH2 0x1715 DUP13 DUP3 DUP14 ADD PUSH2 0x161A JUMP JUMPDEST SWAP11 SWAP14 SWAP10 SWAP13 POP SWAP8 SWAP11 SWAP7 SWAP10 SWAP6 SWAP9 SWAP5 SWAP8 SWAP7 PUSH1 0x80 ADD CALLDATALOAD SWAP5 SWAP4 POP POP POP POP JUMP JUMPDEST DUP1 CALLDATALOAD PUSH1 0x1 PUSH1 0x1 PUSH1 0xA0 SHL SUB DUP2 AND DUP2 EQ PUSH2 0x1746 JUMPI PUSH1 0x0 DUP1 REVERT JUMPDEST SWAP2 SWAP1 POP JUMP JUMPDEST PUSH1 0x0 DUP1 PUSH1 0x40 DUP4 DUP6 SUB SLT ISZERO PUSH2 0x175E JUMPI PUSH1 0x0 DUP1 REVERT JUMPDEST PUSH2 0x1767 DUP4 PUSH2 0x172F JUMP JUMPDEST SWAP2 POP PUSH1 0x20 DUP4 ADD CALLDATALOAD DUP1 ISZERO ISZERO DUP2 EQ PUSH2 0x177C JUMPI PUSH1 0x0 DUP1 REVERT JUMPDEST DUP1 SWAP2 POP POP SWAP3 POP SWAP3 SWAP1 POP JUMP JUMPDEST PUSH1 0x0 DUP1 PUSH1 0x40 DUP4 DUP6 SUB SLT ISZERO PUSH2 0x179A JUMPI PUSH1 0x0 DUP1 REVERT JUMPDEST PUSH2 0x17A3 DUP4 PUSH2 0x172F JUMP JUMPDEST SWAP2 POP PUSH2 0x17B1 PUSH1 0x20 DUP5 ADD PUSH2 0x172F JUMP JUMPDEST SWAP1 POP SWAP3 POP SWAP3 SWAP1 POP JUMP JUMPDEST PUSH1 0x0 PUSH1 0x20 DUP3 DUP5 SUB SLT ISZERO PUSH2 0x17CC JUMPI PUSH1 0x0 DUP1 REVERT JUMPDEST PUSH2 0x17D5 DUP3 PUSH2 0x172F JUMP JUMPDEST SWAP4 SWAP3 POP POP POP JUMP JUMPDEST PUSH1 0x20 DUP1 DUP3 MSTORE DUP3 MLOAD DUP3 DUP3 ADD DUP2 SWAP1 MSTORE PUSH1 0x0 SWAP2 SWAP1 DUP5 DUP3 ADD SWAP1 PUSH1 0x40 DUP6 ADD SWAP1 DUP5 JUMPDEST DUP2 DUP2 LT ISZERO PUSH2 0x181D JUMPI DUP4 MLOAD PUSH1 0x1 PUSH1 0x1 PUSH1 0xA0 SHL SUB AND DUP4 MSTORE SWAP3 DUP5 ADD SWAP3 SWAP2 DUP5 ADD SWAP2 PUSH1 0x1 ADD PUSH2 0x17F8 JUMP JUMPDEST POP SWAP1 SWAP7 SWAP6 POP POP POP POP POP POP JUMP JUMPDEST PUSH1 0x0 DUP2 MLOAD DUP1 DUP5 MSTORE PUSH1 0x0 JUMPDEST DUP2 DUP2 LT ISZERO PUSH2 0x184F JUMPI PUSH1 0x20 DUP2 DUP6 ADD DUP2 ADD MLOAD DUP7 DUP4 ADD DUP3 ADD MSTORE ADD PUSH2 0x1833 JUMP JUMPDEST POP PUSH1 0x0 PUSH1 0x20 DUP3 DUP7 ADD ADD MSTORE PUSH1 0x20 PUSH1 0x1F NOT PUSH1 0x1F DUP4 ADD AND DUP6 ADD ADD SWAP2 POP POP SWAP3 SWAP2 POP POP JUMP JUMPDEST PUSH1 0xC0 DUP2 MSTORE PUSH1 0x0 PUSH2 0x1882 PUSH1 0xC0 DUP4 ADD DUP10 PUSH2 0x1829 JUMP JUMPDEST DUP3 DUP2 SUB PUSH1 0x20 DUP5 ADD MSTORE PUSH2 0x1894 DUP2 DUP10 PUSH2 0x1829 JUMP JUMPDEST PUSH1 0x40 DUP5 ADD SWAP8 SWAP1 SWAP8 MSTORE POP POP PUSH1 0x60 DUP2 ADD SWAP4 SWAP1 SWAP4 MSTORE SWAP1 ISZERO ISZERO PUSH1 0x80 DUP4 ADD MSTORE ISZERO ISZERO PUSH1 0xA0 SWAP1 SWAP2 ADD MSTORE SWAP3 SWAP2 POP POP JUMP JUMPDEST PUSH4 0x4E487B71 PUSH1 0xE0 SHL PUSH1 0x0 MSTORE PUSH1 0x41 PUSH1 0x4 MSTORE PUSH1 0x24 PUSH1 0x0 REVERT JUMPDEST PUSH1 0x1 DUP2 DUP2 SHR SWAP1 DUP3 AND DUP1 PUSH2 0x18E6 JUMPI PUSH1 0x7F DUP3 AND SWAP2 POP JUMPDEST PUSH1 0x20 DUP3 LT DUP2 SUB PUSH2 0x1906 JUMPI PUSH4 0x4E487B71 PUSH1 0xE0 SHL PUSH1 0x0 MSTORE PUSH1 0x22 PUSH1 0x4 MSTORE PUSH1 0x24 PUSH1 0x0 REVERT JUMPDEST POP SWAP2 SWAP1 POP JUMP JUMPDEST PUSH1 0x1F DUP3 GT ISZERO PUSH2 0x159B JUMPI PUSH1 0x0 DUP2 DUP2 MSTORE PUSH1 0x20 DUP2 KECCAK256 PUSH1 0x1F DUP6 ADD PUSH1 0x5 SHR DUP2 ADD PUSH1 0x20 DUP7 LT ISZERO PUSH2 0x1933 JUMPI POP DUP1 JUMPDEST PUSH1 0x1F DUP6 ADD PUSH1 0x5 SHR DUP3 ADD SWAP2 POP JUMPDEST DUP2 DUP2 LT ISZERO PUSH2 0x1952 JUMPI DUP3 DUP2 SSTORE PUSH1 0x1 ADD PUSH2 0x193F JUMP JUMPDEST POP POP POP POP POP POP JUMP JUMPDEST DUP2 MLOAD PUSH8 0xFFFFFFFFFFFFFFFF DUP2 GT ISZERO PUSH2 0x1974 JUMPI PUSH2 0x1974 PUSH2 0x18BC JUMP JUMPDEST PUSH2 0x1988 DUP2 PUSH2 0x1982 DUP5 SLOAD PUSH2 0x18D2 JUMP JUMPDEST DUP5 PUSH2 0x190C JUMP JUMPDEST PUSH1 0x20 DUP1 PUSH1 0x1F DUP4 GT PUSH1 0x1 DUP2 EQ PUSH2 0x19BD JUMPI PUSH1 0x0 DUP5 ISZERO PUSH2 0x19A5 JUMPI POP DUP6 DUP4 ADD MLOAD JUMPDEST PUSH1 0x0 NOT PUSH1 0x3 DUP7 SWAP1 SHL SHR NOT AND PUSH1 0x1 DUP6 SWAP1 SHL OR DUP6 SSTORE PUSH2 0x1952 JUMP JUMPDEST PUSH1 0x0 DUP6 DUP2 MSTORE PUSH1 0x20 DUP2 KECCAK256 PUSH1 0x1F NOT DUP7 AND SWAP2 JUMPDEST DUP3 DUP2 LT ISZERO PUSH2 0x19EC JUMPI DUP9 DUP7 ADD MLOAD DUP3 SSTORE SWAP5 DUP5 ADD SWAP5 PUSH1 0x1 SWAP1 SWAP2 ADD SWAP1 DUP5 ADD PUSH2 0x19CD JUMP JUMPDEST POP DUP6 DUP3 LT ISZERO PUSH2 0x1A0A JUMPI DUP8 DUP6 ADD MLOAD PUSH1 0x0 NOT PUSH1 0x3 DUP9 SWAP1 SHL PUSH1 0xF8 AND SHR NOT AND DUP2 SSTORE JUMPDEST POP POP POP POP POP PUSH1 0x1 SWAP1 DUP2 SHL ADD SWAP1 SSTORE POP JUMP JUMPDEST DUP2 DUP4 MSTORE DUP2 DUP2 PUSH1 0x20 DUP6 ADD CALLDATACOPY POP PUSH1 0x0 DUP3 DUP3 ADD PUSH1 0x20 SWAP1 DUP2 ADD SWAP2 SWAP1 SWAP2 MSTORE PUSH1 0x1F SWAP1 SWAP2 ADD PUSH1 0x1F NOT AND SWAP1 SWAP2 ADD ADD SWAP1 JUMP JUMPDEST PUSH1 0x40 DUP2 MSTORE PUSH1 0x0 PUSH2 0x1A57 PUSH1 0x40 DUP4 ADD DUP7 DUP9 PUSH2 0x1A1A JUMP JUMPDEST DUP3 DUP2 SUB PUSH1 0x20 DUP5 ADD MSTORE PUSH2 0x1A6A DUP2 DUP6 DUP8 PUSH2 0x1A1A JUMP JUMPDEST SWAP8 SWAP7 POP POP POP POP POP POP POP JUMP JUMPDEST PUSH1 0x20 DUP1 DUP3 MSTORE PUSH1 0x14 SWAP1 DUP3 ADD MSTORE PUSH20 0x13DDDB995C881B9BDD081C9959DA5CDD195C9959 PUSH1 0x62 SHL PUSH1 0x40 DUP3 ADD MSTORE PUSH1 0x60 ADD SWAP1 JUMP JUMPDEST PUSH1 0x20 DUP1 DUP3 MSTORE PUSH1 0x1B SWAP1 DUP3 ADD MSTORE PUSH32 0x4E6F74206120636F6E74616374206F662074686973206F776E65720000000000 PUSH1 0x40 DUP3 ADD MSTORE PUSH1 0x60 ADD SWAP1 JUMP JUMPDEST PUSH4 0x4E487B71 PUSH1 0xE0 SHL PUSH1 0x0 MSTORE PUSH1 0x11 PUSH1 0x4 MSTORE PUSH1 0x24 PUSH1 0x0 REVERT JUMPDEST PUSH1 0x0 PUSH1 0x1 DUP3 ADD PUSH2 0x1B02 JUMPI PUSH2 0x1B02 PUSH2 0x1ADA JUMP JUMPDEST POP PUSH1 0x1 ADD SWAP1 JUMP JUMPDEST PUSH4 0x4E487B71 PUSH1 0xE0 SHL PUSH1 0x0 MSTORE PUSH1 0x32 PUSH1 0x4 MSTORE PUSH1 0x24 PUSH1 0x0 REVERT JUMPDEST DUP1 DUP3 MUL DUP2 ISZERO DUP3 DUP3 DIV DUP5 EQ OR PUSH2 0x98D JUMPI PUSH2 0x98D PUSH2 0x1ADA JUMP JUMPDEST PUSH1 0x0 DUP3 PUSH2 0x1B53 JUMPI PUSH4 0x4E487B71 PUSH1 0xE0 SHL PUSH1 0x0 MSTORE PUSH1 0x12 PUSH1 0x4 MSTORE PUSH1 0x24 PUSH1 0x0 REVERT JUMPDEST POP DIV SWAP1 JUMP JUMPDEST DUP1 DUP3 ADD DUP1 DUP3 GT ISZERO PUSH2 0x98D JUMPI PUSH2 0x98D PUSH2 0x1ADA JUMP INVALID LOG2 PUSH5 0x6970667358 0x22 SLT KECCAK256 0xC1 0xDA 0xC7 0xA5 0x28 0xD3 SWAP13 SUB DUP7 DUP8 0x4D CODECOPY PUSH23 0x9F68FE81735C5D0FC6974533729F51637291CA64736F6C PUSH4 0x43000813 STOP CALLER "},"methodIdentifiers":{"addContact(address,bool)":"2815f211","declareDeceased(address)":"abc22bbe","getContactInfo(address,address)":"60f490f7","getContactList(address)":"b385faa8","getDeathDeclarationStatus(address)":"996e6ca1","getOwnerInfo(address)":"d385de82","getVote(address,address)":"5ab4f162","hasVoted(address,address)":"4d4d2b1c","registerOwner(string,string,string,string,uint256)":"0accc75d","sendHeartbeat()":"34f167a9","verifyContact(address)":"6880f137","voteOnDeathDeclaration(address,bool)":"4e8e32b5"}}}}}