{"contracts/automations/GracePeriodAutomation.sol":{"GracePeriodAutomation":{"abi":[{"inputs":[{"internalType":"address","name":"_registry","type":"address"}],"stateMutability":"nonpayable","type":"constructor"},{"anonymous":false,"inputs":[{"indexed":true,"internalType":"address","name":"ownerAddress","type":"address"},{"indexed":false,"internalType":"bool","name":"isDead","type":"bool"},{"indexed":false,"internalType":"uint256","name":"processTime","type":"uint256"}],"name":"GracePeriodProcessed","type":"event"},{"anonymous":false,"inputs":[{"indexed":true,"internalType":"address","name":"ownerAddress","type":"address"},{"indexed":false,"internalType":"uint256","name":"startTime","type":"uint256"}],"name":"GracePeriodStarted","type":"event"},{"anonymous":false,"inputs":[{"indexed":true,"internalType":"address","name":"ownerAddress","type":"address"},{"indexed":false,"internalType":"uint256","name":"pingTime","type":"uint256"}],"name":"OwnerPinged","type":"event"},{"inputs":[{"internalType":"address","name":"ownerAddress","type":"address"}],"name":"checkGracePeriodEnd","outputs":[{"internalType":"bool","name":"hasEnded","type":"bool"},{"internalType":"uint256","name":"endTime","type":"uint256"}],"stateMutability":"view","type":"function"},{"inputs":[{"internalType":"bytes","name":"checkData","type":"bytes"}],"name":"checkUpkeep","outputs":[{"internalType":"bool","name":"upkeepNeeded","type":"bool"},{"internalType":"bytes","name":"performData","type":"bytes"}],"stateMutability":"view","type":"function"},{"inputs":[{"internalType":"address","name":"","type":"address"}],"name":"gracePeriodStart","outputs":[{"internalType":"uint256","name":"","type":"uint256"}],"stateMutability":"view","type":"function"},{"inputs":[{"internalType":"address","name":"","type":"address"}],"name":"hasPinged","outputs":[{"internalType":"bool","name":"","type":"bool"}],"stateMutability":"view","type":"function"},{"inputs":[{"internalType":"address","name":"ownerAddress","type":"address"}],"name":"markOwnerAsDeceased","outputs":[],"stateMutability":"nonpayable","type":"function"},{"inputs":[{"internalType":"bytes","name":"performData","type":"bytes"}],"name":"performUpkeep","outputs":[],"stateMutability":"nonpayable","type":"function"},{"inputs":[{"internalType":"address","name":"ownerAddress","type":"address"}],"name":"ping","outputs":[],"stateMutability":"nonpayable","type":"function"},{"inputs":[{"internalType":"address","name":"","type":"address"}],"name":"processedGracePeriod","outputs":[{"internalType":"bool","name":"","type":"bool"}],"stateMutability":"view","type":"function"},{"inputs":[],"name":"registry","outputs":[{"internalType":"contract LifeSignalRegistry","name":"","type":"address"}],"stateMutability":"view","type":"function"},{"inputs":[{"internalType":"address","name":"ownerAddress","type":"address"}],"name":"startGracePeriod","outputs":[],"stateMutability":"nonpayable","type":"function"}],"evm":{"bytecode":{"linkReferences":{},"object":"608060405234801561001057600080fd5b506040516112c13803806112c183398101604081905261002f91610054565b600080546001600160a01b0319166001600160a01b0392909216919091179055610084565b60006020828403121561006657600080fd5b81516001600160a01b038116811461007d57600080fd5b9392505050565b61122e806100936000396000f3fe608060405234801561001057600080fd5b506004361061009e5760003560e01c80637b103999116100665780637b103999146101525780639e733e621461017d578063a3fc970c146101a7578063a5e0a4b6146101ba578063d7c83774146101cd57600080fd5b80630557605c146100a357806314df9e43146100db57806336a76238146100f05780634585e33b1461011e5780636e04ff0d14610131575b600080fd5b6100c66100b1366004610ed9565b60036020526000908152604090205460ff1681565b60405190151581526020015b60405180910390f35b6100ee6100e9366004610ed9565b6101f0565b005b6101106100fe366004610ed9565b60016020526000908152604090205481565b6040519081526020016100d2565b6100ee61012c366004610efd565b61047f565b61014461013f366004610efd565b6107d4565b6040516100d2929190610f93565b600054610165906001600160a01b031681565b6040516001600160a01b0390911681526020016100d2565b61019061018b366004610ed9565b610a48565b6040805192151583526020830191909152016100d2565b6100ee6101b5366004610ed9565b610b23565b6100ee6101c8366004610ed9565b610d97565b6100c66101db366004610ed9565b60026020526000908152604090205460ff1681565b336001600160a01b038216146102435760405162461bcd60e51b81526020600482015260136024820152724f6e6c79206f776e65722063616e2070696e6760681b60448201526064015b60405180910390fd5b600080546040516369c2ef4160e11b81526001600160a01b0384811660048301528392169063d385de8290602401600060405180830381865afa15801561028e573d6000803e3d6000fd5b505050506040513d6000823e601f3d908101601f191682016040526102b69190810190611082565b9550955050505050806102db5760405162461bcd60e51b815260040161023a90611119565b81156102f95760405162461bcd60e51b815260040161023a9061114e565b6001600160a01b0383166000908152600160205260409020546103595760405162461bcd60e51b815260206004820152601860248201527711dc9858d9481c195c9a5bd9081b9bdd081cdd185c9d195960421b604482015260640161023a565b6001600160a01b03831660009081526003602052604090205460ff16156103c25760405162461bcd60e51b815260206004820152601e60248201527f477261636520706572696f6420616c72656164792070726f6365737365640000604482015260640161023a565b60008054604080516334f167a960e01b815290516001600160a01b03909216926334f167a99260048084019382900301818387803b15801561040357600080fd5b505af1158015610417573d6000803e3d6000fd5b5050506001600160a01b03841660008181526002602052604090819020805460ff19166001179055519091507f1c33176e53a5ea7e802680f4a7a824697927a65c4c046e6939d569f07c8446ee906104729042815260200190565b60405180910390a2505050565b600061048d82840184610ed9565b600080546040516369c2ef4160e11b81526001600160a01b0380851660048301529394509192839291169063d385de8290602401600060405180830381865afa1580156104de573d6000803e3d6000fd5b505050506040513d6000823e601f3d908101601f191682016040526105069190810190611082565b95509550505050508061052b5760405162461bcd60e51b815260040161023a90611119565b81156105495760405162461bcd60e51b815260040161023a9061114e565b6001600160a01b0383166000908152600160205260409020546105a95760405162461bcd60e51b815260206004820152601860248201527711dc9858d9481c195c9a5bd9081b9bdd081cdd185c9d195960421b604482015260640161023a565b6001600160a01b03831660009081526003602052604090205460ff16156106125760405162461bcd60e51b815260206004820152601e60248201527f477261636520706572696f6420616c72656164792070726f6365737365640000604482015260640161023a565b600080546040516369c2ef4160e11b81526001600160a01b0386811660048301529091169063d385de8290602401600060405180830381865afa15801561065d573d6000803e3d6000fd5b505050506040513d6000823e601f3d908101601f191682016040526106859190810190611082565b50506001600160a01b03881660009081526001602052604081205491955093506106b29250849150611185565b9050804210156107045760405162461bcd60e51b815260206004820152601960248201527f477261636520706572696f64206e6f7420796574206f76657200000000000000604482015260640161023a565b6001600160a01b0385166000908152600360209081526040808320805460ff19166001179055600290915290205460ff161580156107855760408051600181524260208201526001600160a01b038816917f073b02415c6b09933e21630f00df65beeec8f81533ef3533c4f1c76befbd2d1c910160405180910390a26107ca565b60408051600081524260208201526001600160a01b038816917f073b02415c6b09933e21630f00df65beeec8f81533ef3533c4f1c76befbd2d1c910160405180910390a25b5050505050505050565b600060608282036107f75750506040805160208101909152600080825290610a41565b600061080584860186610ed9565b600080546040516369c2ef4160e11b81526001600160a01b0380851660048301529394509192839291169063d385de8290602401600060405180830381865afa158015610856573d6000803e3d6000fd5b505050506040513d6000823e601f3d908101601f1916820160405261087e9190810190611082565b95509550505050508015806108905750815b156108b35760006040518060200160405280600081525094509450505050610a41565b6001600160a01b03831660009081526001602052604081205490036108f05760006040518060200160405280600081525094509450505050610a41565b6001600160a01b03831660009081526003602052604090205460ff161561092f5760006040518060200160405280600081525094509450505050610a41565b600080546040516369c2ef4160e11b81526001600160a01b0386811660048301529091169063d385de8290602401600060405180830381865afa15801561097a573d6000803e3d6000fd5b505050506040513d6000823e601f3d908101601f191682016040526109a29190810190611082565b50506001600160a01b03881660009081526001602052604081205491955093506109cf9250849150611185565b9050804210610a25576001898981818080601f016020809104026020016040519081016040528093929190818152602001838380828437600092019190915250959c50919a50610a419950505050505050505050565b6000604051806020016040528060008152509650965050505050505b9250929050565b6001600160a01b03811660009081526001602052604081205481908103610a7457506000928392509050565b600080546040516369c2ef4160e11b81526001600160a01b0386811660048301529091169063d385de8290602401600060405180830381865afa158015610abf573d6000803e3d6000fd5b505050506040513d6000823e601f3d908101601f19168201604052610ae79190810190611082565b50506001600160a01b0388166000908152600160205260408120549195509350610b149250849150611185565b42811115969095509350505050565b600080546040516369c2ef4160e11b81526001600160a01b0384811660048301528392169063d385de8290602401600060405180830381865afa158015610b6e573d6000803e3d6000fd5b505050506040513d6000823e601f3d908101601f19168201604052610b969190810190611082565b955095505050505080610bbb5760405162461bcd60e51b815260040161023a90611119565b8115610bd95760405162461bcd60e51b815260040161023a9061114e565b6000805460405163996e6ca160e01b81526001600160a01b0386811660048301528392169063996e6ca19060240160c060405180830381865afa158015610c24573d6000803e3d6000fd5b505050506040513d601f19601f82011682018060405250810190610c4891906111ac565b9550505050509150818015610c5a5750805b610cb95760405162461bcd60e51b815260206004820152602a60248201527f4e6f20616374697665206465617468206465636c61726174696f6e207769746860448201526920636f6e73656e73757360b01b606482015260840161023a565b6001600160a01b03851660009081526001602052604090205415610d1f5760405162461bcd60e51b815260206004820152601c60248201527f477261636520706572696f6420616c7265616479207374617274656400000000604482015260640161023a565b6001600160a01b0385166000818152600160209081526040808320429081905560028352818420805460ff1990811690915560038452938290208054909416909355519182527f2bb92f1150248e7f78a267b3904ebd95f62a5225d70dcc813fb6906c3a646e98910160405180910390a25050505050565b6001600160a01b03811660009081526003602052604090205460ff16610dff5760405162461bcd60e51b815260206004820152601a60248201527f477261636520706572696f64206e6f742070726f636573736564000000000000604482015260640161023a565b6001600160a01b03811660009081526002602052604090205460ff1615610e7a5760405162461bcd60e51b815260206004820152602960248201527f4f776e6572206861732070696e6765642c2063616e6e6f74206d61726b20617360448201526808191958d9585cd95960ba1b606482015260840161023a565b60408051600181524260208201526001600160a01b038316917f073b02415c6b09933e21630f00df65beeec8f81533ef3533c4f1c76befbd2d1c910160405180910390a250565b6001600160a01b0381168114610ed657600080fd5b50565b600060208284031215610eeb57600080fd5b8135610ef681610ec1565b9392505050565b60008060208385031215610f1057600080fd5b823567ffffffffffffffff80821115610f2857600080fd5b818501915085601f830112610f3c57600080fd5b813581811115610f4b57600080fd5b866020828501011115610f5d57600080fd5b60209290920196919550909350505050565b60005b83811015610f8a578181015183820152602001610f72565b50506000910152565b82151581526040602082015260008251806040840152610fba816060850160208701610f6f565b601f01601f1916919091016060019392505050565b634e487b7160e01b600052604160045260246000fd5b600082601f830112610ff657600080fd5b815167ffffffffffffffff8082111561101157611011610fcf565b604051601f8301601f19908116603f0116810190828211818310171561103957611039610fcf565b8160405283815286602085880101111561105257600080fd5b611063846020830160208901610f6f565b9695505050505050565b8051801515811461107d57600080fd5b919050565b60008060008060008060c0878903121561109b57600080fd5b865167ffffffffffffffff808211156110b357600080fd5b6110bf8a838b01610fe5565b975060208901519150808211156110d557600080fd5b506110e289828a01610fe5565b95505060408701519350606087015192506110ff6080880161106d565b915061110d60a0880161106d565b90509295509295509295565b6020808252818101527f4f776e657220646f6573206e6f7420657869737420696e207265676973747279604082015260600190565b60208082526019908201527f4f776e657220697320616c726561647920646563656173656400000000000000604082015260600190565b808201808211156111a657634e487b7160e01b600052601160045260246000fd5b92915050565b60008060008060008060c087890312156111c557600080fd5b6111ce8761106d565b95506020870151945060408701519350606087015192506080870151915061110d60a0880161106d56fea2646970667358221220cff8dfd338084a83ac04e3e8b1b16baef3109719340d92d68a18c45c895f0c5564736f6c63430008130033","opcodes":"PUSH1 0x80 PUSH1 0x40 MSTORE CALLVALUE DUP1 ISZERO PUSH2 0x10 JUMPI PUSH1 0x0 DUP1 REVERT JUMPDEST POP PUSH1 0x40 MLOAD PUSH2 0x12C1 CODESIZE SUB DUP1 PUSH2 0x12C1 DUP4 CODECOPY DUP2 ADD PUSH1 0x40 DUP2 SWAP1 MSTORE PUSH2 0x2F SWAP2 PUSH2 0x54 JUMP JUMPDEST PUSH1 0x0 DUP1 SLOAD PUSH1 0x1 PUSH1 0x1 PUSH1 0xA0 SHL SUB NOT AND PUSH1 0x1 PUSH1 0x1 PUSH1 0xA0 SHL SUB SWAP3 SWAP1 SWAP3 AND SWAP2 SWAP1 SWAP2 OR SWAP1 SSTORE PUSH2 0x84 JUMP JUMPDEST PUSH1 0x0 PUSH1 0x20 DUP3 DUP5 SUB SLT ISZERO PUSH2 0x66 JUMPI PUSH1 0x0 DUP1 REVERT JUMPDEST DUP2 MLOAD PUSH1 0x1 PUSH1 0x1 PUSH1 0xA0 SHL SUB DUP2 AND DUP2 EQ PUSH2 0x7D JUMPI PUSH1 0x0 DUP1 REVERT JUMPDEST SWAP4 SWAP3 POP POP POP JUMP JUMPDEST PUSH2 0x122E DUP1 PUSH2 0x93 PUSH1 0x0 CODECOPY PUSH1 0x0 RETURN INVALID PUSH1 0x80 PUSH1 0x40 MSTORE CALLVALUE DUP1 ISZERO PUSH2 0x10 JUMPI PUSH1 0x0 DUP1 REVERT JUMPDEST POP PUSH1 0x4 CALLDATASIZE LT PUSH2 0x9E JUMPI PUSH1 0x0 CALLDATALOAD PUSH1 0xE0 SHR DUP1 PUSH4 0x7B103999 GT PUSH2 0x66 JUMPI DUP1 PUSH4 0x7B103999 EQ PUSH2 0x152 JUMPI DUP1 PUSH4 0x9E733E62 EQ PUSH2 0x17D JUMPI DUP1 PUSH4 0xA3FC970C EQ PUSH2 0x1A7 JUMPI DUP1 PUSH4 0xA5E0A4B6 EQ PUSH2 0x1BA JUMPI DUP1 PUSH4 0xD7C83774 EQ PUSH2 0x1CD JUMPI PUSH1 0x0 DUP1 REVERT JUMPDEST DUP1 PUSH4 0x557605C EQ PUSH2 0xA3 JUMPI DUP1 PUSH4 0x14DF9E43 EQ PUSH2 0xDB JUMPI DUP1 PUSH4 0x36A76238 EQ PUSH2 0xF0 JUMPI DUP1 PUSH4 0x4585E33B EQ PUSH2 0x11E JUMPI DUP1 PUSH4 0x6E04FF0D EQ PUSH2 0x131 JUMPI JUMPDEST PUSH1 0x0 DUP1 REVERT JUMPDEST PUSH2 0xC6 PUSH2 0xB1 CALLDATASIZE PUSH1 0x4 PUSH2 0xED9 JUMP JUMPDEST PUSH1 0x3 PUSH1 0x20 MSTORE PUSH1 0x0 SWAP1 DUP2 MSTORE PUSH1 0x40 SWAP1 KECCAK256 SLOAD PUSH1 0xFF AND DUP2 JUMP JUMPDEST PUSH1 0x40 MLOAD SWAP1 ISZERO ISZERO DUP2 MSTORE PUSH1 0x20 ADD JUMPDEST PUSH1 0x40 MLOAD DUP1 SWAP2 SUB SWAP1 RETURN JUMPDEST PUSH2 0xEE PUSH2 0xE9 CALLDATASIZE PUSH1 0x4 PUSH2 0xED9 JUMP JUMPDEST PUSH2 0x1F0 JUMP JUMPDEST STOP JUMPDEST PUSH2 0x110 PUSH2 0xFE CALLDATASIZE PUSH1 0x4 PUSH2 0xED9 JUMP JUMPDEST PUSH1 0x1 PUSH1 0x20 MSTORE PUSH1 0x0 SWAP1 DUP2 MSTORE PUSH1 0x40 SWAP1 KECCAK256 SLOAD DUP2 JUMP JUMPDEST PUSH1 0x40 MLOAD SWAP1 DUP2 MSTORE PUSH1 0x20 ADD PUSH2 0xD2 JUMP JUMPDEST PUSH2 0xEE PUSH2 0x12C CALLDATASIZE PUSH1 0x4 PUSH2 0xEFD JUMP JUMPDEST PUSH2 0x47F JUMP JUMPDEST PUSH2 0x144 PUSH2 0x13F CALLDATASIZE PUSH1 0x4 PUSH2 0xEFD JUMP JUMPDEST PUSH2 0x7D4 JUMP JUMPDEST PUSH1 0x40 MLOAD PUSH2 0xD2 SWAP3 SWAP2 SWAP1 PUSH2 0xF93 JUMP JUMPDEST PUSH1 0x0 SLOAD PUSH2 0x165 SWAP1 PUSH1 0x1 PUSH1 0x1 PUSH1 0xA0 SHL SUB AND DUP2 JUMP JUMPDEST PUSH1 0x40 MLOAD PUSH1 0x1 PUSH1 0x1 PUSH1 0xA0 SHL SUB SWAP1 SWAP2 AND DUP2 MSTORE PUSH1 0x20 ADD PUSH2 0xD2 JUMP JUMPDEST PUSH2 0x190 PUSH2 0x18B CALLDATASIZE PUSH1 0x4 PUSH2 0xED9 JUMP JUMPDEST PUSH2 0xA48 JUMP JUMPDEST PUSH1 0x40 DUP1 MLOAD SWAP3 ISZERO ISZERO DUP4 MSTORE PUSH1 0x20 DUP4 ADD SWAP2 SWAP1 SWAP2 MSTORE ADD PUSH2 0xD2 JUMP JUMPDEST PUSH2 0xEE PUSH2 0x1B5 CALLDATASIZE PUSH1 0x4 PUSH2 0xED9 JUMP JUMPDEST PUSH2 0xB23 JUMP JUMPDEST PUSH2 0xEE PUSH2 0x1C8 CALLDATASIZE PUSH1 0x4 PUSH2 0xED9 JUMP JUMPDEST PUSH2 0xD97 JUMP JUMPDEST PUSH2 0xC6 PUSH2 0x1DB CALLDATASIZE PUSH1 0x4 PUSH2 0xED9 JUMP JUMPDEST PUSH1 0x2 PUSH1 0x20 MSTORE PUSH1 0x0 SWAP1 DUP2 MSTORE PUSH1 0x40 SWAP1 KECCAK256 SLOAD PUSH1 0xFF AND DUP2 JUMP JUMPDEST CALLER PUSH1 0x1 PUSH1 0x1 PUSH1 0xA0 SHL SUB DUP3 AND EQ PUSH2 0x243 JUMPI PUSH1 0x40 MLOAD PUSH3 0x461BCD PUSH1 0xE5 SHL DUP2 MSTORE PUSH1 0x20 PUSH1 0x4 DUP3 ADD MSTORE PUSH1 0x13 PUSH1 0x24 DUP3 ADD MSTORE PUSH19 0x4F6E6C79206F776E65722063616E2070696E67 PUSH1 0x68 SHL PUSH1 0x44 DUP3 ADD MSTORE PUSH1 0x64 ADD JUMPDEST PUSH1 0x40 MLOAD DUP1 SWAP2 SUB SWAP1 REVERT JUMPDEST PUSH1 0x0 DUP1 SLOAD PUSH1 0x40 MLOAD PUSH4 0x69C2EF41 PUSH1 0xE1 SHL DUP2 MSTORE PUSH1 0x1 PUSH1 0x1 PUSH1 0xA0 SHL SUB DUP5 DUP2 AND PUSH1 0x4 DUP4 ADD MSTORE DUP4 SWAP3 AND SWAP1 PUSH4 0xD385DE82 SWAP1 PUSH1 0x24 ADD PUSH1 0x0 PUSH1 0x40 MLOAD DUP1 DUP4 SUB DUP2 DUP7 GAS STATICCALL ISZERO DUP1 ISZERO PUSH2 0x28E JUMPI RETURNDATASIZE PUSH1 0x0 DUP1 RETURNDATACOPY RETURNDATASIZE PUSH1 0x0 REVERT JUMPDEST POP POP POP POP PUSH1 0x40 MLOAD RETURNDATASIZE PUSH1 0x0 DUP3 RETURNDATACOPY PUSH1 0x1F RETURNDATASIZE SWAP1 DUP2 ADD PUSH1 0x1F NOT AND DUP3 ADD PUSH1 0x40 MSTORE PUSH2 0x2B6 SWAP2 SWAP1 DUP2 ADD SWAP1 PUSH2 0x1082 JUMP JUMPDEST SWAP6 POP SWAP6 POP POP POP POP POP DUP1 PUSH2 0x2DB JUMPI PUSH1 0x40 MLOAD PUSH3 0x461BCD PUSH1 0xE5 SHL DUP2 MSTORE PUSH1 0x4 ADD PUSH2 0x23A SWAP1 PUSH2 0x1119 JUMP JUMPDEST DUP2 ISZERO PUSH2 0x2F9 JUMPI PUSH1 0x40 MLOAD PUSH3 0x461BCD PUSH1 0xE5 SHL DUP2 MSTORE PUSH1 0x4 ADD PUSH2 0x23A SWAP1 PUSH2 0x114E JUMP JUMPDEST PUSH1 0x1 PUSH1 0x1 PUSH1 0xA0 SHL SUB DUP4 AND PUSH1 0x0 SWAP1 DUP2 MSTORE PUSH1 0x1 PUSH1 0x20 MSTORE PUSH1 0x40 SWAP1 KECCAK256 SLOAD PUSH2 0x359 JUMPI PUSH1 0x40 MLOAD PUSH3 0x461BCD PUSH1 0xE5 SHL DUP2 MSTORE PUSH1 0x20 PUSH1 0x4 DUP3 ADD MSTORE PUSH1 0x18 PUSH1 0x24 DUP3 ADD MSTORE PUSH24 0x11DC9858D9481C195C9A5BD9081B9BDD081CDD185C9D1959 PUSH1 0x42 SHL PUSH1 0x44 DUP3 ADD MSTORE PUSH1 0x64 ADD PUSH2 0x23A JUMP JUMPDEST PUSH1 0x1 PUSH1 0x1 PUSH1 0xA0 SHL SUB DUP4 AND PUSH1 0x0 SWAP1 DUP2 MSTORE PUSH1 0x3 PUSH1 0x20 MSTORE PUSH1 0x40 SWAP1 KECCAK256 SLOAD PUSH1 0xFF AND ISZERO PUSH2 0x3C2 JUMPI PUSH1 0x40 MLOAD PUSH3 0x461BCD PUSH1 0xE5 SHL DUP2 MSTORE PUSH1 0x20 PUSH1 0x4 DUP3 ADD MSTORE PUSH1 0x1E PUSH1 0x24 DUP3 ADD MSTORE PUSH32 0x477261636520706572696F6420616C72656164792070726F6365737365640000 PUSH1 0x44 DUP3 ADD MSTORE PUSH1 0x64 ADD PUSH2 0x23A JUMP JUMPDEST PUSH1 0x0 DUP1 SLOAD PUSH1 0x40 DUP1 MLOAD PUSH4 0x34F167A9 PUSH1 0xE0 SHL DUP2 MSTORE SWAP1 MLOAD PUSH1 0x1 PUSH1 0x1 PUSH1 0xA0 SHL SUB SWAP1 SWAP3 AND SWAP3 PUSH4 0x34F167A9 SWAP3 PUSH1 0x4 DUP1 DUP5 ADD SWAP4 DUP3 SWAP1 SUB ADD DUP2 DUP4 DUP8 DUP1 EXTCODESIZE ISZERO DUP1 ISZERO PUSH2 0x403 JUMPI PUSH1 0x0 DUP1 REVERT JUMPDEST POP GAS CALL ISZERO DUP1 ISZERO PUSH2 0x417 JUMPI RETURNDATASIZE PUSH1 0x0 DUP1 RETURNDATACOPY RETURNDATASIZE PUSH1 0x0 REVERT JUMPDEST POP POP POP PUSH1 0x1 PUSH1 0x1 PUSH1 0xA0 SHL SUB DUP5 AND PUSH1 0x0 DUP2 DUP2 MSTORE PUSH1 0x2 PUSH1 0x20 MSTORE PUSH1 0x40 SWAP1 DUP2 SWAP1 KECCAK256 DUP1 SLOAD PUSH1 0xFF NOT AND PUSH1 0x1 OR SWAP1 SSTORE MLOAD SWAP1 SWAP2 POP PUSH32 0x1C33176E53A5EA7E802680F4A7A824697927A65C4C046E6939D569F07C8446EE SWAP1 PUSH2 0x472 SWAP1 TIMESTAMP DUP2 MSTORE PUSH1 0x20 ADD SWAP1 JUMP JUMPDEST PUSH1 0x40 MLOAD DUP1 SWAP2 SUB SWAP1 LOG2 POP POP POP JUMP JUMPDEST PUSH1 0x0 PUSH2 0x48D DUP3 DUP5 ADD DUP5 PUSH2 0xED9 JUMP JUMPDEST PUSH1 0x0 DUP1 SLOAD PUSH1 0x40 MLOAD PUSH4 0x69C2EF41 PUSH1 0xE1 SHL DUP2 MSTORE PUSH1 0x1 PUSH1 0x1 PUSH1 0xA0 SHL SUB DUP1 DUP6 AND PUSH1 0x4 DUP4 ADD MSTORE SWAP4 SWAP5 POP SWAP2 SWAP3 DUP4 SWAP3 SWAP2 AND SWAP1 PUSH4 0xD385DE82 SWAP1 PUSH1 0x24 ADD PUSH1 0x0 PUSH1 0x40 MLOAD DUP1 DUP4 SUB DUP2 DUP7 GAS STATICCALL ISZERO DUP1 ISZERO PUSH2 0x4DE JUMPI RETURNDATASIZE PUSH1 0x0 DUP1 RETURNDATACOPY RETURNDATASIZE PUSH1 0x0 REVERT JUMPDEST POP POP POP POP PUSH1 0x40 MLOAD RETURNDATASIZE PUSH1 0x0 DUP3 RETURNDATACOPY PUSH1 0x1F RETURNDATASIZE SWAP1 DUP2 ADD PUSH1 0x1F NOT AND DUP3 ADD PUSH1 0x40 MSTORE PUSH2 0x506 SWAP2 SWAP1 DUP2 ADD SWAP1 PUSH2 0x1082 JUMP JUMPDEST SWAP6 POP SWAP6 POP POP POP POP POP DUP1 PUSH2 0x52B JUMPI PUSH1 0x40 MLOAD PUSH3 0x461BCD PUSH1 0xE5 SHL DUP2 MSTORE PUSH1 0x4 ADD PUSH2 0x23A SWAP1 PUSH2 0x1119 JUMP JUMPDEST DUP2 ISZERO PUSH2 0x549 JUMPI PUSH1 0x40 MLOAD PUSH3 0x461BCD PUSH1 0xE5 SHL DUP2 MSTORE PUSH1 0x4 ADD PUSH2 0x23A SWAP1 PUSH2 0x114E JUMP JUMPDEST PUSH1 0x1 PUSH1 0x1 PUSH1 0xA0 SHL SUB DUP4 AND PUSH1 0x0 SWAP1 DUP2 MSTORE PUSH1 0x1 PUSH1 0x20 MSTORE PUSH1 0x40 SWAP1 KECCAK256 SLOAD PUSH2 0x5A9 JUMPI PUSH1 0x40 MLOAD PUSH3 0x461BCD PUSH1 0xE5 SHL DUP2 MSTORE PUSH1 0x20 PUSH1 0x4 DUP3 ADD MSTORE PUSH1 0x18 PUSH1 0x24 DUP3 ADD MSTORE PUSH24 0x11DC9858D9481C195C9A5BD9081B9BDD081CDD185C9D1959 PUSH1 0x42 SHL PUSH1 0x44 DUP3 ADD MSTORE PUSH1 0x64 ADD PUSH2 0x23A JUMP JUMPDEST PUSH1 0x1 PUSH1 0x1 PUSH1 0xA0 SHL SUB DUP4 AND PUSH1 0x0 SWAP1 DUP2 MSTORE PUSH1 0x3 PUSH1 0x20 MSTORE PUSH1 0x40 SWAP1 KECCAK256 SLOAD PUSH1 0xFF AND ISZERO PUSH2 0x612 JUMPI PUSH1 0x40 MLOAD PUSH3 0x461BCD PUSH1 0xE5 SHL DUP2 MSTORE PUSH1 0x20 PUSH1 0x4 DUP3 ADD MSTORE PUSH1 0x1E PUSH1 0x24 DUP3 ADD MSTORE PUSH32 0x477261636520706572696F6420616C72656164792070726F6365737365640000 PUSH1 0x44 DUP3 ADD MSTORE PUSH1 0x64 ADD PUSH2 0x23A JUMP JUMPDEST PUSH1 0x0 DUP1 SLOAD PUSH1 0x40 MLOAD PUSH4 0x69C2EF41 PUSH1 0xE1 SHL DUP2 MSTORE PUSH1 0x1 PUSH1 0x1 PUSH1 0xA0 SHL SUB DUP7 DUP2 AND PUSH1 0x4 DUP4 ADD MSTORE SWAP1 SWAP2 AND SWAP1 PUSH4 0xD385DE82 SWAP1 PUSH1 0x24 ADD PUSH1 0x0 PUSH1 0x40 MLOAD DUP1 DUP4 SUB DUP2 DUP7 GAS STATICCALL ISZERO DUP1 ISZERO PUSH2 0x65D JUMPI RETURNDATASIZE PUSH1 0x0 DUP1 RETURNDATACOPY RETURNDATASIZE PUSH1 0x0 REVERT JUMPDEST POP POP POP POP PUSH1 0x40 MLOAD RETURNDATASIZE PUSH1 0x0 DUP3 RETURNDATACOPY PUSH1 0x1F RETURNDATASIZE SWAP1 DUP2 ADD PUSH1 0x1F NOT AND DUP3 ADD PUSH1 0x40 MSTORE PUSH2 0x685 SWAP2 SWAP1 DUP2 ADD SWAP1 PUSH2 0x1082 JUMP JUMPDEST POP POP PUSH1 0x1 PUSH1 0x1 PUSH1 0xA0 SHL SUB DUP9 AND PUSH1 0x0 SWAP1 DUP2 MSTORE PUSH1 0x1 PUSH1 0x20 MSTORE PUSH1 0x40 DUP2 KECCAK256 SLOAD SWAP2 SWAP6 POP SWAP4 POP PUSH2 0x6B2 SWAP3 POP DUP5 SWAP2 POP PUSH2 0x1185 JUMP JUMPDEST SWAP1 POP DUP1 TIMESTAMP LT ISZERO PUSH2 0x704 JUMPI PUSH1 0x40 MLOAD PUSH3 0x461BCD PUSH1 0xE5 SHL DUP2 MSTORE PUSH1 0x20 PUSH1 0x4 DUP3 ADD MSTORE PUSH1 0x19 PUSH1 0x24 DUP3 ADD MSTORE PUSH32 0x477261636520706572696F64206E6F7420796574206F76657200000000000000 PUSH1 0x44 DUP3 ADD MSTORE PUSH1 0x64 ADD PUSH2 0x23A JUMP JUMPDEST PUSH1 0x1 PUSH1 0x1 PUSH1 0xA0 SHL SUB DUP6 AND PUSH1 0x0 SWAP1 DUP2 MSTORE PUSH1 0x3 PUSH1 0x20 SWAP1 DUP2 MSTORE PUSH1 0x40 DUP1 DUP4 KECCAK256 DUP1 SLOAD PUSH1 0xFF NOT AND PUSH1 0x1 OR SWAP1 SSTORE PUSH1 0x2 SWAP1 SWAP2 MSTORE SWAP1 KECCAK256 SLOAD PUSH1 0xFF AND ISZERO DUP1 ISZERO PUSH2 0x785 JUMPI PUSH1 0x40 DUP1 MLOAD PUSH1 0x1 DUP2 MSTORE TIMESTAMP PUSH1 0x20 DUP3 ADD MSTORE PUSH1 0x1 PUSH1 0x1 PUSH1 0xA0 SHL SUB DUP9 AND SWAP2 PUSH32 0x73B02415C6B09933E21630F00DF65BEEEC8F81533EF3533C4F1C76BEFBD2D1C SWAP2 ADD PUSH1 0x40 MLOAD DUP1 SWAP2 SUB SWAP1 LOG2 PUSH2 0x7CA JUMP JUMPDEST PUSH1 0x40 DUP1 MLOAD PUSH1 0x0 DUP2 MSTORE TIMESTAMP PUSH1 0x20 DUP3 ADD MSTORE PUSH1 0x1 PUSH1 0x1 PUSH1 0xA0 SHL SUB DUP9 AND SWAP2 PUSH32 0x73B02415C6B09933E21630F00DF65BEEEC8F81533EF3533C4F1C76BEFBD2D1C SWAP2 ADD PUSH1 0x40 MLOAD DUP1 SWAP2 SUB SWAP1 LOG2 JUMPDEST POP POP POP POP POP POP POP POP JUMP JUMPDEST PUSH1 0x0 PUSH1 0x60 DUP3 DUP3 SUB PUSH2 0x7F7 JUMPI POP POP PUSH1 0x40 DUP1 MLOAD PUSH1 0x20 DUP2 ADD SWAP1 SWAP2 MSTORE PUSH1 0x0 DUP1 DUP3 MSTORE SWAP1 PUSH2 0xA41 JUMP JUMPDEST PUSH1 0x0 PUSH2 0x805 DUP5 DUP7 ADD DUP7 PUSH2 0xED9 JUMP JUMPDEST PUSH1 0x0 DUP1 SLOAD PUSH1 0x40 MLOAD PUSH4 0x69C2EF41 PUSH1 0xE1 SHL DUP2 MSTORE PUSH1 0x1 PUSH1 0x1 PUSH1 0xA0 SHL SUB DUP1 DUP6 AND PUSH1 0x4 DUP4 ADD MSTORE SWAP4 SWAP5 POP SWAP2 SWAP3 DUP4 SWAP3 SWAP2 AND SWAP1 PUSH4 0xD385DE82 SWAP1 PUSH1 0x24 ADD PUSH1 0x0 PUSH1 0x40 MLOAD DUP1 DUP4 SUB DUP2 DUP7 GAS STATICCALL ISZERO DUP1 ISZERO PUSH2 0x856 JUMPI RETURNDATASIZE PUSH1 0x0 DUP1 RETURNDATACOPY RETURNDATASIZE PUSH1 0x0 REVERT JUMPDEST POP POP POP POP PUSH1 0x40 MLOAD RETURNDATASIZE PUSH1 0x0 DUP3 RETURNDATACOPY PUSH1 0x1F RETURNDATASIZE SWAP1 DUP2 ADD PUSH1 0x1F NOT AND DUP3 ADD PUSH1 0x40 MSTORE PUSH2 0x87E SWAP2 SWAP1 DUP2 ADD SWAP1 PUSH2 0x1082 JUMP JUMPDEST SWAP6 POP SWAP6 POP POP POP POP POP DUP1 ISZERO DUP1 PUSH2 0x890 JUMPI POP DUP2 JUMPDEST ISZERO PUSH2 0x8B3 JUMPI PUSH1 0x0 PUSH1 0x40 MLOAD DUP1 PUSH1 0x20 ADD PUSH1 0x40 MSTORE DUP1 PUSH1 0x0 DUP2 MSTORE POP SWAP5 POP SWAP5 POP POP POP POP PUSH2 0xA41 JUMP JUMPDEST PUSH1 0x1 PUSH1 0x1 PUSH1 0xA0 SHL SUB DUP4 AND PUSH1 0x0 SWAP1 DUP2 MSTORE PUSH1 0x1 PUSH1 0x20 MSTORE PUSH1 0x40 DUP2 KECCAK256 SLOAD SWAP1 SUB PUSH2 0x8F0 JUMPI PUSH1 0x0 PUSH1 0x40 MLOAD DUP1 PUSH1 0x20 ADD PUSH1 0x40 MSTORE DUP1 PUSH1 0x0 DUP2 MSTORE POP SWAP5 POP SWAP5 POP POP POP POP PUSH2 0xA41 JUMP JUMPDEST PUSH1 0x1 PUSH1 0x1 PUSH1 0xA0 SHL SUB DUP4 AND PUSH1 0x0 SWAP1 DUP2 MSTORE PUSH1 0x3 PUSH1 0x20 MSTORE PUSH1 0x40 SWAP1 KECCAK256 SLOAD PUSH1 0xFF AND ISZERO PUSH2 0x92F JUMPI PUSH1 0x0 PUSH1 0x40 MLOAD DUP1 PUSH1 0x20 ADD PUSH1 0x40 MSTORE DUP1 PUSH1 0x0 DUP2 MSTORE POP SWAP5 POP SWAP5 POP POP POP POP PUSH2 0xA41 JUMP JUMPDEST PUSH1 0x0 DUP1 SLOAD PUSH1 0x40 MLOAD PUSH4 0x69C2EF41 PUSH1 0xE1 SHL DUP2 MSTORE PUSH1 0x1 PUSH1 0x1 PUSH1 0xA0 SHL SUB DUP7 DUP2 AND PUSH1 0x4 DUP4 ADD MSTORE SWAP1 SWAP2 AND SWAP1 PUSH4 0xD385DE82 SWAP1 PUSH1 0x24 ADD PUSH1 0x0 PUSH1 0x40 MLOAD DUP1 DUP4 SUB DUP2 DUP7 GAS STATICCALL ISZERO DUP1 ISZERO PUSH2 0x97A JUMPI RETURNDATASIZE PUSH1 0x0 DUP1 RETURNDATACOPY RETURNDATASIZE PUSH1 0x0 REVERT JUMPDEST POP POP POP POP PUSH1 0x40 MLOAD RETURNDATASIZE PUSH1 0x0 DUP3 RETURNDATACOPY PUSH1 0x1F RETURNDATASIZE SWAP1 DUP2 ADD PUSH1 0x1F NOT AND DUP3 ADD PUSH1 0x40 MSTORE PUSH2 0x9A2 SWAP2 SWAP1 DUP2 ADD SWAP1 PUSH2 0x1082 JUMP JUMPDEST POP POP PUSH1 0x1 PUSH1 0x1 PUSH1 0xA0 SHL SUB DUP9 AND PUSH1 0x0 SWAP1 DUP2 MSTORE PUSH1 0x1 PUSH1 0x20 MSTORE PUSH1 0x40 DUP2 KECCAK256 SLOAD SWAP2 SWAP6 POP SWAP4 POP PUSH2 0x9CF SWAP3 POP DUP5 SWAP2 POP PUSH2 0x1185 JUMP JUMPDEST SWAP1 POP DUP1 TIMESTAMP LT PUSH2 0xA25 JUMPI PUSH1 0x1 DUP10 DUP10 DUP2 DUP2 DUP1 DUP1 PUSH1 0x1F ADD PUSH1 0x20 DUP1 SWAP2 DIV MUL PUSH1 0x20 ADD PUSH1 0x40 MLOAD SWAP1 DUP2 ADD PUSH1 0x40 MSTORE DUP1 SWAP4 SWAP3 SWAP2 SWAP1 DUP2 DUP2 MSTORE PUSH1 0x20 ADD DUP4 DUP4 DUP1 DUP3 DUP5 CALLDATACOPY PUSH1 0x0 SWAP3 ADD SWAP2 SWAP1 SWAP2 MSTORE POP SWAP6 SWAP13 POP SWAP2 SWAP11 POP PUSH2 0xA41 SWAP10 POP POP POP POP POP POP POP POP POP POP JUMP JUMPDEST PUSH1 0x0 PUSH1 0x40 MLOAD DUP1 PUSH1 0x20 ADD PUSH1 0x40 MSTORE DUP1 PUSH1 0x0 DUP2 MSTORE POP SWAP7 POP SWAP7 POP POP POP POP POP POP JUMPDEST SWAP3 POP SWAP3 SWAP1 POP JUMP JUMPDEST PUSH1 0x1 PUSH1 0x1 PUSH1 0xA0 SHL SUB DUP2 AND PUSH1 0x0 SWAP1 DUP2 MSTORE PUSH1 0x1 PUSH1 0x20 MSTORE PUSH1 0x40 DUP2 KECCAK256 SLOAD DUP2 SWAP1 DUP2 SUB PUSH2 0xA74 JUMPI POP PUSH1 0x0 SWAP3 DUP4 SWAP3 POP SWAP1 POP JUMP JUMPDEST PUSH1 0x0 DUP1 SLOAD PUSH1 0x40 MLOAD PUSH4 0x69C2EF41 PUSH1 0xE1 SHL DUP2 MSTORE PUSH1 0x1 PUSH1 0x1 PUSH1 0xA0 SHL SUB DUP7 DUP2 AND PUSH1 0x4 DUP4 ADD MSTORE SWAP1 SWAP2 AND SWAP1 PUSH4 0xD385DE82 SWAP1 PUSH1 0x24 ADD PUSH1 0x0 PUSH1 0x40 MLOAD DUP1 DUP4 SUB DUP2 DUP7 GAS STATICCALL ISZERO DUP1 ISZERO PUSH2 0xABF JUMPI RETURNDATASIZE PUSH1 0x0 DUP1 RETURNDATACOPY RETURNDATASIZE PUSH1 0x0 REVERT JUMPDEST POP POP POP POP PUSH1 0x40 MLOAD RETURNDATASIZE PUSH1 0x0 DUP3 RETURNDATACOPY PUSH1 0x1F RETURNDATASIZE SWAP1 DUP2 ADD PUSH1 0x1F NOT AND DUP3 ADD PUSH1 0x40 MSTORE PUSH2 0xAE7 SWAP2 SWAP1 DUP2 ADD SWAP1 PUSH2 0x1082 JUMP JUMPDEST POP POP PUSH1 0x1 PUSH1 0x1 PUSH1 0xA0 SHL SUB DUP9 AND PUSH1 0x0 SWAP1 DUP2 MSTORE PUSH1 0x1 PUSH1 0x20 MSTORE PUSH1 0x40 DUP2 KECCAK256 SLOAD SWAP2 SWAP6 POP SWAP4 POP PUSH2 0xB14 SWAP3 POP DUP5 SWAP2 POP PUSH2 0x1185 JUMP JUMPDEST TIMESTAMP DUP2 GT ISZERO SWAP7 SWAP1 SWAP6 POP SWAP4 POP POP POP POP JUMP JUMPDEST PUSH1 0x0 DUP1 SLOAD PUSH1 0x40 MLOAD PUSH4 0x69C2EF41 PUSH1 0xE1 SHL DUP2 MSTORE PUSH1 0x1 PUSH1 0x1 PUSH1 0xA0 SHL SUB DUP5 DUP2 AND PUSH1 0x4 DUP4 ADD MSTORE DUP4 SWAP3 AND SWAP1 PUSH4 0xD385DE82 SWAP1 PUSH1 0x24 ADD PUSH1 0x0 PUSH1 0x40 MLOAD DUP1 DUP4 SUB DUP2 DUP7 GAS STATICCALL ISZERO DUP1 ISZERO PUSH2 0xB6E JUMPI RETURNDATASIZE PUSH1 0x0 DUP1 RETURNDATACOPY RETURNDATASIZE PUSH1 0x0 REVERT JUMPDEST POP POP POP POP PUSH1 0x40 MLOAD RETURNDATASIZE PUSH1 0x0 DUP3 RETURNDATACOPY PUSH1 0x1F RETURNDATASIZE SWAP1 DUP2 ADD PUSH1 0x1F NOT AND DUP3 ADD PUSH1 0x40 MSTORE PUSH2 0xB96 SWAP2 SWAP1 DUP2 ADD SWAP1 PUSH2 0x1082 JUMP JUMPDEST SWAP6 POP SWAP6 POP POP POP POP POP DUP1 PUSH2 0xBBB JUMPI PUSH1 0x40 MLOAD PUSH3 0x461BCD PUSH1 0xE5 SHL DUP2 MSTORE PUSH1 0x4 ADD PUSH2 0x23A SWAP1 PUSH2 0x1119 JUMP JUMPDEST DUP2 ISZERO PUSH2 0xBD9 JUMPI PUSH1 0x40 MLOAD PUSH3 0x461BCD PUSH1 0xE5 SHL DUP2 MSTORE PUSH1 0x4 ADD PUSH2 0x23A SWAP1 PUSH2 0x114E JUMP JUMPDEST PUSH1 0x0 DUP1 SLOAD PUSH1 0x40 MLOAD PUSH4 0x996E6CA1 PUSH1 0xE0 SHL DUP2 MSTORE PUSH1 0x1 PUSH1 0x1 PUSH1 0xA0 SHL SUB DUP7 DUP2 AND PUSH1 0x4 DUP4 ADD MSTORE DUP4 SWAP3 AND SWAP1 PUSH4 0x996E6CA1 SWAP1 PUSH1 0x24 ADD PUSH1 0xC0 PUSH1 0x40 MLOAD DUP1 DUP4 SUB DUP2 DUP7 GAS STATICCALL ISZERO DUP1 ISZERO PUSH2 0xC24 JUMPI RETURNDATASIZE PUSH1 0x0 DUP1 RETURNDATACOPY RETURNDATASIZE PUSH1 0x0 REVERT JUMPDEST POP POP POP POP PUSH1 0x40 MLOAD RETURNDATASIZE PUSH1 0x1F NOT PUSH1 0x1F DUP3 ADD AND DUP3 ADD DUP1 PUSH1 0x40 MSTORE POP DUP2 ADD SWAP1 PUSH2 0xC48 SWAP2 SWAP1 PUSH2 0x11AC JUMP JUMPDEST SWAP6 POP POP POP POP POP SWAP2 POP DUP2 DUP1 ISZERO PUSH2 0xC5A JUMPI POP DUP1 JUMPDEST PUSH2 0xCB9 JUMPI PUSH1 0x40 MLOAD PUSH3 0x461BCD PUSH1 0xE5 SHL DUP2 MSTORE PUSH1 0x20 PUSH1 0x4 DUP3 ADD MSTORE PUSH1 0x2A PUSH1 0x24 DUP3 ADD MSTORE PUSH32 0x4E6F20616374697665206465617468206465636C61726174696F6E2077697468 PUSH1 0x44 DUP3 ADD MSTORE PUSH10 0x20636F6E73656E737573 PUSH1 0xB0 SHL PUSH1 0x64 DUP3 ADD MSTORE PUSH1 0x84 ADD PUSH2 0x23A JUMP JUMPDEST PUSH1 0x1 PUSH1 0x1 PUSH1 0xA0 SHL SUB DUP6 AND PUSH1 0x0 SWAP1 DUP2 MSTORE PUSH1 0x1 PUSH1 0x20 MSTORE PUSH1 0x40 SWAP1 KECCAK256 SLOAD ISZERO PUSH2 0xD1F JUMPI PUSH1 0x40 MLOAD PUSH3 0x461BCD PUSH1 0xE5 SHL DUP2 MSTORE PUSH1 0x20 PUSH1 0x4 DUP3 ADD MSTORE PUSH1 0x1C PUSH1 0x24 DUP3 ADD MSTORE PUSH32 0x477261636520706572696F6420616C7265616479207374617274656400000000 PUSH1 0x44 DUP3 ADD MSTORE PUSH1 0x64 ADD PUSH2 0x23A JUMP JUMPDEST PUSH1 0x1 PUSH1 0x1 PUSH1 0xA0 SHL SUB DUP6 AND PUSH1 0x0 DUP2 DUP2 MSTORE PUSH1 0x1 PUSH1 0x20 SWAP1 DUP2 MSTORE PUSH1 0x40 DUP1 DUP4 KECCAK256 TIMESTAMP SWAP1 DUP2 SWAP1 SSTORE PUSH1 0x2 DUP4 MSTORE DUP2 DUP5 KECCAK256 DUP1 SLOAD PUSH1 0xFF NOT SWAP1 DUP2 AND SWAP1 SWAP2 SSTORE PUSH1 0x3 DUP5 MSTORE SWAP4 DUP3 SWAP1 KECCAK256 DUP1 SLOAD SWAP1 SWAP5 AND SWAP1 SWAP4 SSTORE MLOAD SWAP2 DUP3 MSTORE PUSH32 0x2BB92F1150248E7F78A267B3904EBD95F62A5225D70DCC813FB6906C3A646E98 SWAP2 ADD PUSH1 0x40 MLOAD DUP1 SWAP2 SUB SWAP1 LOG2 POP POP POP POP POP JUMP JUMPDEST PUSH1 0x1 PUSH1 0x1 PUSH1 0xA0 SHL SUB DUP2 AND PUSH1 0x0 SWAP1 DUP2 MSTORE PUSH1 0x3 PUSH1 0x20 MSTORE PUSH1 0x40 SWAP1 KECCAK256 SLOAD PUSH1 0xFF AND PUSH2 0xDFF JUMPI PUSH1 0x40 MLOAD PUSH3 0x461BCD PUSH1 0xE5 SHL DUP2 MSTORE PUSH1 0x20 PUSH1 0x4 DUP3 ADD MSTORE PUSH1 0x1A PUSH1 0x24 DUP3 ADD MSTORE PUSH32 0x477261636520706572696F64206E6F742070726F636573736564000000000000 PUSH1 0x44 DUP3 ADD MSTORE PUSH1 0x64 ADD PUSH2 0x23A JUMP JUMPDEST PUSH1 0x1 PUSH1 0x1 PUSH1 0xA0 SHL SUB DUP2 AND PUSH1 0x0 SWAP1 DUP2 MSTORE PUSH1 0x2 PUSH1 0x20 MSTORE PUSH1 0x40 SWAP1 KECCAK256 SLOAD PUSH1 0xFF AND ISZERO PUSH2 0xE7A JUMPI PUSH1 0x40 MLOAD PUSH3 0x461BCD PUSH1 0xE5 SHL DUP2 MSTORE PUSH1 0x20 PUSH1 0x4 DUP3 ADD MSTORE PUSH1 0x29 PUSH1 0x24 DUP3 ADD MSTORE PUSH32 0x4F776E6572206861732070696E6765642C2063616E6E6F74206D61726B206173 PUSH1 0x44 DUP3 ADD MSTORE PUSH9 0x8191958D9585CD959 PUSH1 0xBA SHL PUSH1 0x64 DUP3 ADD MSTORE PUSH1 0x84 ADD PUSH2 0x23A JUMP JUMPDEST PUSH1 0x40 DUP1 MLOAD PUSH1 0x1 DUP2 MSTORE TIMESTAMP PUSH1 0x20 DUP3 ADD MSTORE PUSH1 0x1 PUSH1 0x1 PUSH1 0xA0 SHL SUB DUP4 AND SWAP2 PUSH32 0x73B02415C6B09933E21630F00DF65BEEEC8F81533EF3533C4F1C76BEFBD2D1C SWAP2 ADD PUSH1 0x40 MLOAD DUP1 SWAP2 SUB SWAP1 LOG2 POP JUMP JUMPDEST PUSH1 0x1 PUSH1 0x1 PUSH1 0xA0 SHL SUB DUP2 AND DUP2 EQ PUSH2 0xED6 JUMPI PUSH1 0x0 DUP1 REVERT JUMPDEST POP JUMP JUMPDEST PUSH1 0x0 PUSH1 0x20 DUP3 DUP5 SUB SLT ISZERO PUSH2 0xEEB JUMPI PUSH1 0x0 DUP1 REVERT JUMPDEST DUP2 CALLDATALOAD PUSH2 0xEF6 DUP2 PUSH2 0xEC1 JUMP JUMPDEST SWAP4 SWAP3 POP POP POP JUMP JUMPDEST PUSH1 0x0 DUP1 PUSH1 0x20 DUP4 DUP6 SUB SLT ISZERO PUSH2 0xF10 JUMPI PUSH1 0x0 DUP1 REVERT JUMPDEST DUP3 CALLDATALOAD PUSH8 0xFFFFFFFFFFFFFFFF DUP1 DUP3 GT ISZERO PUSH2 0xF28 JUMPI PUSH1 0x0 DUP1 REVERT JUMPDEST DUP2 DUP6 ADD SWAP2 POP DUP6 PUSH1 0x1F DUP4 ADD SLT PUSH2 0xF3C JUMPI PUSH1 0x0 DUP1 REVERT JUMPDEST DUP2 CALLDATALOAD DUP2 DUP2 GT ISZERO PUSH2 0xF4B JUMPI PUSH1 0x0 DUP1 REVERT JUMPDEST DUP7 PUSH1 0x20 DUP3 DUP6 ADD ADD GT ISZERO PUSH2 0xF5D JUMPI PUSH1 0x0 DUP1 REVERT JUMPDEST PUSH1 0x20 SWAP3 SWAP1 SWAP3 ADD SWAP7 SWAP2 SWAP6 POP SWAP1 SWAP4 POP POP POP POP JUMP JUMPDEST PUSH1 0x0 JUMPDEST DUP4 DUP2 LT ISZERO PUSH2 0xF8A JUMPI DUP2 DUP2 ADD MLOAD DUP4 DUP3 ADD MSTORE PUSH1 0x20 ADD PUSH2 0xF72 JUMP JUMPDEST POP POP PUSH1 0x0 SWAP2 ADD MSTORE JUMP JUMPDEST DUP3 ISZERO ISZERO DUP2 MSTORE PUSH1 0x40 PUSH1 0x20 DUP3 ADD MSTORE PUSH1 0x0 DUP3 MLOAD DUP1 PUSH1 0x40 DUP5 ADD MSTORE PUSH2 0xFBA DUP2 PUSH1 0x60 DUP6 ADD PUSH1 0x20 DUP8 ADD PUSH2 0xF6F JUMP JUMPDEST PUSH1 0x1F ADD PUSH1 0x1F NOT AND SWAP2 SWAP1 SWAP2 ADD PUSH1 0x60 ADD SWAP4 SWAP3 POP POP POP JUMP JUMPDEST PUSH4 0x4E487B71 PUSH1 0xE0 SHL PUSH1 0x0 MSTORE PUSH1 0x41 PUSH1 0x4 MSTORE PUSH1 0x24 PUSH1 0x0 REVERT JUMPDEST PUSH1 0x0 DUP3 PUSH1 0x1F DUP4 ADD SLT PUSH2 0xFF6 JUMPI PUSH1 0x0 DUP1 REVERT JUMPDEST DUP2 MLOAD PUSH8 0xFFFFFFFFFFFFFFFF DUP1 DUP3 GT ISZERO PUSH2 0x1011 JUMPI PUSH2 0x1011 PUSH2 0xFCF JUMP JUMPDEST PUSH1 0x40 MLOAD PUSH1 0x1F DUP4 ADD PUSH1 0x1F NOT SWAP1 DUP2 AND PUSH1 0x3F ADD AND DUP2 ADD SWAP1 DUP3 DUP3 GT DUP2 DUP4 LT OR ISZERO PUSH2 0x1039 JUMPI PUSH2 0x1039 PUSH2 0xFCF JUMP JUMPDEST DUP2 PUSH1 0x40 MSTORE DUP4 DUP2 MSTORE DUP7 PUSH1 0x20 DUP6 DUP9 ADD ADD GT ISZERO PUSH2 0x1052 JUMPI PUSH1 0x0 DUP1 REVERT JUMPDEST PUSH2 0x1063 DUP5 PUSH1 0x20 DUP4 ADD PUSH1 0x20 DUP10 ADD PUSH2 0xF6F JUMP JUMPDEST SWAP7 SWAP6 POP POP POP POP POP POP JUMP JUMPDEST DUP1 MLOAD DUP1 ISZERO ISZERO DUP2 EQ PUSH2 0x107D JUMPI PUSH1 0x0 DUP1 REVERT JUMPDEST SWAP2 SWAP1 POP JUMP JUMPDEST PUSH1 0x0 DUP1 PUSH1 0x0 DUP1 PUSH1 0x0 DUP1 PUSH1 0xC0 DUP8 DUP10 SUB SLT ISZERO PUSH2 0x109B JUMPI PUSH1 0x0 DUP1 REVERT JUMPDEST DUP7 MLOAD PUSH8 0xFFFFFFFFFFFFFFFF DUP1 DUP3 GT ISZERO PUSH2 0x10B3 JUMPI PUSH1 0x0 DUP1 REVERT JUMPDEST PUSH2 0x10BF DUP11 DUP4 DUP12 ADD PUSH2 0xFE5 JUMP JUMPDEST SWAP8 POP PUSH1 0x20 DUP10 ADD MLOAD SWAP2 POP DUP1 DUP3 GT ISZERO PUSH2 0x10D5 JUMPI PUSH1 0x0 DUP1 REVERT JUMPDEST POP PUSH2 0x10E2 DUP10 DUP3 DUP11 ADD PUSH2 0xFE5 JUMP JUMPDEST SWAP6 POP POP PUSH1 0x40 DUP8 ADD MLOAD SWAP4 POP PUSH1 0x60 DUP8 ADD MLOAD SWAP3 POP PUSH2 0x10FF PUSH1 0x80 DUP9 ADD PUSH2 0x106D JUMP JUMPDEST SWAP2 POP PUSH2 0x110D PUSH1 0xA0 DUP9 ADD PUSH2 0x106D JUMP JUMPDEST SWAP1 POP SWAP3 SWAP6 POP SWAP3 SWAP6 POP SWAP3 SWAP6 JUMP JUMPDEST PUSH1 0x20 DUP1 DUP3 MSTORE DUP2 DUP2 ADD MSTORE PUSH32 0x4F776E657220646F6573206E6F7420657869737420696E207265676973747279 PUSH1 0x40 DUP3 ADD MSTORE PUSH1 0x60 ADD SWAP1 JUMP JUMPDEST PUSH1 0x20 DUP1 DUP3 MSTORE PUSH1 0x19 SWAP1 DUP3 ADD MSTORE PUSH32 0x4F776E657220697320616C726561647920646563656173656400000000000000 PUSH1 0x40 DUP3 ADD MSTORE PUSH1 0x60 ADD SWAP1 JUMP JUMPDEST DUP1 DUP3 ADD DUP1 DUP3 GT ISZERO PUSH2 0x11A6 JUMPI PUSH4 0x4E487B71 PUSH1 0xE0 SHL PUSH1 0x0 MSTORE PUSH1 0x11 PUSH1 0x4 MSTORE PUSH1 0x24 PUSH1 0x0 REVERT JUMPDEST SWAP3 SWAP2 POP POP JUMP JUMPDEST PUSH1 0x0 DUP1 PUSH1 0x0 DUP1 PUSH1 0x0 DUP1 PUSH1 0xC0 DUP8 DUP10 SUB SLT ISZERO PUSH2 0x11C5 JUMPI PUSH1 0x0 DUP1 REVERT JUMPDEST PUSH2 0x11CE DUP8 PUSH2 0x106D JUMP JUMPDEST SWAP6 POP PUSH1 0x20 DUP8 ADD MLOAD SWAP5 POP PUSH1 0x40 DUP8 ADD MLOAD SWAP4 POP PUSH1 0x60 DUP8 ADD MLOAD SWAP3 POP PUSH1 0x80 DUP8 ADD MLOAD SWAP2 POP PUSH2 0x110D PUSH1 0xA0 DUP9 ADD PUSH2 0x106D JUMP INVALID LOG2 PUSH5 0x6970667358 0x22 SLT KECCAK256 0xCF 0xF8 0xDF 0xD3 CODESIZE ADDMOD 0x4A DUP4 0xAC DIV 0xE3 0xE8 0xB1 0xB1 PUSH12 0xAEF3109719340D92D68A18C4 0x5C DUP10 0x5F 0xC SSTORE PUSH5 0x736F6C6343 STOP ADDMOD SGT STOP CALLER "},"methodIdentifiers":{"checkGracePeriodEnd(address)":"9e733e62","checkUpkeep(bytes)":"6e04ff0d","gracePeriodStart(address)":"36a76238","hasPinged(address)":"d7c83774","markOwnerAsDeceased(address)":"a5e0a4b6","performUpkeep(bytes)":"4585e33b","ping(address)":"14df9e43","processedGracePeriod(address)":"0557605c","registry()":"7b103999","startGracePeriod(address)":"a3fc970c"}}}}}