{"contracts/LifeSignalRegistry.sol":{"LifeSignalRegistry":{"abi":[{"anonymous":false,"inputs":[{"indexed":true,"internalType":"address","name":"owner","type":"address"},{"indexed":false,"internalType":"bool","name":"isDeceased","type":"bool"},{"indexed":false,"internalType":"uint256","name":"timestamp","type":"uint256"}],"name":"ConsensusReached","type":"event"},{"anonymous":false,"inputs":[{"indexed":true,"internalType":"address","name":"owner","type":"address"},{"indexed":true,"internalType":"address","name":"contact","type":"address"},{"indexed":false,"internalType":"bool","name":"hasVotingRight","type":"bool"}],"name":"ContactAdded","type":"event"},{"anonymous":false,"inputs":[{"indexed":true,"internalType":"address","name":"owner","type":"address"},{"indexed":true,"internalType":"address","name":"contact","type":"address"}],"name":"ContactVerified","type":"event"},{"anonymous":false,"inputs":[{"indexed":true,"internalType":"address","name":"owner","type":"address"},{"indexed":true,"internalType":"address","name":"declaredBy","type":"address"},{"indexed":false,"internalType":"uint256","name":"timestamp","type":"uint256"}],"name":"DeathDeclared","type":"event"},{"anonymous":false,"inputs":[{"indexed":true,"internalType":"address","name":"owner","type":"address"},{"indexed":false,"internalType":"uint256","name":"timestamp","type":"uint256"}],"name":"HeartbeatSent","type":"event"},{"anonymous":false,"inputs":[{"indexed":true,"internalType":"address","name":"owner","type":"address"},{"indexed":false,"internalType":"string","name":"firstName","type":"string"},{"indexed":false,"internalType":"string","name":"lastName","type":"string"}],"name":"OwnerRegistered","type":"event"},{"anonymous":false,"inputs":[{"indexed":true,"internalType":"address","name":"vaultId","type":"address"},{"indexed":true,"internalType":"address","name":"contact","type":"address"}],"name":"VaultContactAuthorized","type":"event"},{"anonymous":false,"inputs":[{"indexed":true,"internalType":"address","name":"vaultId","type":"address"},{"indexed":true,"internalType":"address","name":"owner","type":"address"},{"indexed":false,"internalType":"string","name":"name","type":"string"}],"name":"VaultCreated","type":"event"},{"anonymous":false,"inputs":[{"indexed":true,"internalType":"address","name":"vaultId","type":"address"},{"indexed":false,"internalType":"string","name":"fileId","type":"string"},{"indexed":false,"internalType":"string","name":"originalName","type":"string"}],"name":"VaultFileAdded","type":"event"},{"anonymous":false,"inputs":[{"indexed":true,"internalType":"address","name":"vaultId","type":"address"},{"indexed":true,"internalType":"address","name":"owner","type":"address"}],"name":"VaultReleased","type":"event"},{"anonymous":false,"inputs":[{"indexed":true,"internalType":"address","name":"owner","type":"address"},{"indexed":true,"internalType":"address","name":"voter","type":"address"},{"indexed":false,"internalType":"bool","name":"vote","type":"bool"}],"name":"VoteCast","type":"event"},{"inputs":[{"internalType":"address","name":"_contact","type":"address"},{"internalType":"bool","name":"_hasVotingRight","type":"bool"}],"name":"addContact","outputs":[],"stateMutability":"nonpayable","type":"function"},{"inputs":[{"internalType":"address","name":"_vaultId","type":"address"},{"internalType":"string","name":"_fileId","type":"string"},{"internalType":"string","name":"_originalName","type":"string"},{"internalType":"string","name":"_mimeType","type":"string"},{"internalType":"string","name":"_cid","type":"string"},{"internalType":"string","name":"_uploadDate","type":"string"}],"name":"addVaultFile","outputs":[],"stateMutability":"nonpayable","type":"function"},{"inputs":[{"internalType":"address","name":"_vaultId","type":"address"},{"internalType":"address","name":"_contact","type":"address"}],"name":"authorizeVaultContact","outputs":[],"stateMutability":"nonpayable","type":"function"},{"inputs":[{"internalType":"address","name":"_vaultId","type":"address"},{"internalType":"string","name":"_name","type":"string"},{"internalType":"string","name":"_cypherIv","type":"string"},{"internalType":"string","name":"_encryptionKey","type":"string"}],"name":"createVault","outputs":[],"stateMutability":"nonpayable","type":"function"},{"inputs":[{"internalType":"address","name":"_owner","type":"address"}],"name":"declareDeceased","outputs":[],"stateMutability":"nonpayable","type":"function"},{"inputs":[{"internalType":"address","name":"_owner","type":"address"},{"internalType":"address","name":"_contact","type":"address"}],"name":"getContactInfo","outputs":[{"internalType":"bool","name":"hasVotingRight","type":"bool"},{"internalType":"bool","name":"isVerified","type":"bool"},{"internalType":"bool","name":"exists","type":"bool"}],"stateMutability":"view","type":"function"},{"inputs":[{"internalType":"address","name":"_owner","type":"address"}],"name":"getContactList","outputs":[{"internalType":"address[]","name":"","type":"address[]"}],"stateMutability":"view","type":"function"},{"inputs":[{"internalType":"address","name":"_owner","type":"address"}],"name":"getDeathDeclarationStatus","outputs":[{"internalType":"bool","name":"isActive","type":"bool"},{"internalType":"uint256","name":"startTime","type":"uint256"},{"internalType":"uint256","name":"votesFor","type":"uint256"},{"internalType":"uint256","name":"votesAgainst","type":"uint256"},{"internalType":"uint256","name":"totalVotingContacts","type":"uint256"},{"internalType":"bool","name":"consensusReached","type":"bool"}],"stateMutability":"view","type":"function"},{"inputs":[{"internalType":"address","name":"_owner","type":"address"}],"name":"getOwnerInfo","outputs":[{"internalType":"string","name":"firstName","type":"string"},{"internalType":"string","name":"lastName","type":"string"},{"internalType":"uint256","name":"lastHeartbeat","type":"uint256"},{"internalType":"uint256","name":"graceInterval","type":"uint256"},{"internalType":"bool","name":"isDeceased","type":"bool"},{"internalType":"bool","name":"exists","type":"bool"}],"stateMutability":"view","type":"function"},{"inputs":[{"internalType":"address","name":"_owner","type":"address"}],"name":"getOwnerVaultList","outputs":[{"internalType":"address[]","name":"","type":"address[]"}],"stateMutability":"view","type":"function"},{"inputs":[{"internalType":"address","name":"_vaultId","type":"address"}],"name":"getVaultAuthorizedContacts","outputs":[{"internalType":"address[]","name":"","type":"address[]"}],"stateMutability":"view","type":"function"},{"inputs":[{"internalType":"address","name":"_vaultId","type":"address"},{"internalType":"string","name":"_fileId","type":"string"}],"name":"getVaultFileInfo","outputs":[{"internalType":"string","name":"originalName","type":"string"},{"internalType":"string","name":"mimeType","type":"string"},{"internalType":"string","name":"cid","type":"string"},{"internalType":"string","name":"uploadDate","type":"string"},{"internalType":"bool","name":"exists","type":"bool"}],"stateMutability":"view","type":"function"},{"inputs":[{"internalType":"address","name":"_vaultId","type":"address"}],"name":"getVaultInfo","outputs":[{"internalType":"string","name":"name","type":"string"},{"internalType":"address","name":"owner","type":"address"},{"internalType":"bool","name":"isReleased","type":"bool"},{"internalType":"string","name":"cypherIv","type":"string"},{"internalType":"string","name":"encryptionKey","type":"string"},{"internalType":"bool","name":"exists","type":"bool"}],"stateMutability":"view","type":"function"},{"inputs":[{"internalType":"address","name":"_owner","type":"address"},{"internalType":"address","name":"_voter","type":"address"}],"name":"getVote","outputs":[{"internalType":"bool","name":"","type":"bool"}],"stateMutability":"view","type":"function"},{"inputs":[{"internalType":"address","name":"_owner","type":"address"},{"internalType":"address","name":"_voter","type":"address"}],"name":"hasVoted","outputs":[{"internalType":"bool","name":"","type":"bool"}],"stateMutability":"view","type":"function"},{"inputs":[{"internalType":"address","name":"_vaultId","type":"address"},{"internalType":"address","name":"_address","type":"address"}],"name":"isVaultAuthorized","outputs":[{"internalType":"bool","name":"","type":"bool"}],"stateMutability":"view","type":"function"},{"inputs":[{"internalType":"string","name":"_firstName","type":"string"},{"internalType":"string","name":"_lastName","type":"string"},{"internalType":"string","name":"_email","type":"string"},{"internalType":"string","name":"_phone","type":"string"},{"internalType":"uint256","name":"_graceInterval","type":"uint256"}],"name":"registerOwner","outputs":[],"stateMutability":"nonpayable","type":"function"},{"inputs":[{"internalType":"address","name":"_vaultId","type":"address"}],"name":"releaseVault","outputs":[],"stateMutability":"nonpayable","type":"function"},{"inputs":[],"name":"sendHeartbeat","outputs":[],"stateMutability":"nonpayable","type":"function"},{"inputs":[{"internalType":"address","name":"_owner","type":"address"}],"name":"verifyContact","outputs":[],"stateMutability":"nonpayable","type":"function"},{"inputs":[{"internalType":"address","name":"_owner","type":"address"},{"internalType":"bool","name":"_vote","type":"bool"}],"name":"voteOnDeathDeclaration","outputs":[],"stateMutability":"nonpayable","type":"function"}],"evm":{"bytecode":{"linkReferences":{},"object":"608060405234801561001057600080fd5b50613104806100206000396000f3fe608060405234801561001057600080fd5b50600436106101375760003560e01c806360f490f7116100b8578063abc22bbe1161007c578063abc22bbe1461036a578063b385faa81461037d578063b52b670614610390578063cd30f038146103a3578063d385de82146103b6578063e42d9419146103db57600080fd5b806360f490f7146102285780636880f1371461029757806390229af7146102aa578063996e6ca1146102cf5780639dd3a4831461035757600080fd5b806336e5621e116100ff57806336e5621e146101b95780634d4d2b1c146101cc5780634e8e32b5146101ef5780635ab4f162146102025780635b1a8e3f1461021557600080fd5b80630accc75d1461013c5780632815f211146101515780632fda53e714610164578063319764fe1461018d57806334f167a9146101b1575b600080fd5b61014f61014a3660046128a6565b6103ee565b005b61014f61015f36600461298e565b6107cc565b6101776101723660046129ca565b6109ac565b60405161018491906129e5565b60405180910390f35b6101a061019b366004612a32565b610a23565b604051610184959493929190612acb565b61014f610cd9565b61014f6101c7366004612b2d565b610e30565b6101df6101da366004612bd8565b611168565b6040519015158152602001610184565b61014f6101fd36600461298e565b61119c565b6101df610210366004612bd8565b611463565b6101df610223366004612bd8565b611507565b610278610236366004612bd8565b6001600160a01b03918216600090815260016020908152604080832093909416825291909152205460ff80821692610100830482169262010000900490911690565b6040805193151584529115156020840152151590820152606001610184565b61014f6102a53660046129ca565b61151a565b6102bd6102b83660046129ca565b61162d565b60405161018496959493929190612c0b565b6103266102dd3660046129ca565b6001600160a01b031660009081526004602081905260409091206005810154600182015460028301546003840154939094015460ff808416969295949391926101009092041690565b60408051961515875260208701959095529385019290925260608401526080830152151560a082015260c001610184565b61014f610365366004612c71565b61183c565b61014f6103783660046129ca565b611b9b565b61017761038b3660046129ca565b611ffc565b61017761039e3660046129ca565b612071565b61014f6103b13660046129ca565b6120e8565b6103c96103c43660046129ca565b6122d1565b60405161018496959493929190612d78565b61014f6103e9366004612bd8565b61244f565b33600090815260208190526040902060070154610100900460ff161561045b5760405162461bcd60e51b815260206004820152601860248201527f4f776e657220616c72656164792072656769737465726564000000000000000060448201526064015b60405180910390fd5b620151808110156104ae5760405162461bcd60e51b815260206004820152601860248201527f477261636520696e74657276616c20746f6f2073686f727400000000000000006044820152606401610452565b6301e133808111156105025760405162461bcd60e51b815260206004820152601760248201527f477261636520696e74657276616c20746f6f206c6f6e670000000000000000006044820152606401610452565b604051806101600160405280336001600160a01b031681526020018a8a8080601f016020809104026020016040519081016040528093929190818152602001838380828437600092019190915250505090825250604080516020601f8b0181900481028201810190925289815291810191908a908a9081908401838280828437600092019190915250505090825250604080516020601f890181900481028201810190925287815291810191908890889081908401838280828437600092019190915250505090825250604080516020601f870181900481028201810190925285815291810191908690869081908401838280828437600092018290525093855250504260208401525060408201849052606082018190526001608083015260a090910190604051908082528060200260200182016040528015610650578160200160208202803683370190505b5081526020016000604051908082528060200260200182016040528015610681578160200160208202803683370190505b50905233600090815260208181526040909120825181546001600160a01b0319166001600160a01b039091161781559082015160018201906106c39082612e63565b50604082015160028201906106d89082612e63565b50606082015160038201906106ed9082612e63565b50608082015160048201906107029082612e63565b5060a0820151600582015560c0820151600682015560e08201516007820180546101008086015115150261ff00199315159390931661ffff199091161791909117905561012082015180516107619160088401916020909101906127e3565b50610140820151805161077e9160098401916020909101906127e3565b50506040513391507f90fdcd9183750bdfb11be5d6379c04e744e8f650aac530ea853c19226ea7eb2b906107b9908c908c908c908c90612f4c565b60405180910390a2505050505050505050565b33600090815260208190526040902060070154610100900460ff166108035760405162461bcd60e51b815260040161045290612f7e565b336001600160a01b0383160361085b5760405162461bcd60e51b815260206004820152601e60248201527f43616e6e6f742061646420796f757273656c6620617320636f6e7461637400006044820152606401610452565b3360009081526001602090815260408083206001600160a01b038616845290915290205462010000900460ff16156108ce5760405162461bcd60e51b8152602060048201526016602482015275436f6e7461637420616c72656164792065786973747360501b6044820152606401610452565b60408051606081018252821515808252600060208084018281526001858701818152338086528285528886206001600160a01b038c1680885290865289872098518954955193511515620100000262ff0000199415156101000261ff00199215159290921661ffff19909716969096171792909216939093179096558184528383528684206008018054918201815584529282902090920180546001600160a01b03191685179055935191825291927fc329a4824b9cddbf4efb396983db7496360fe08a32ebbd5f6021d4835e275cf4910160405180910390a35050565b6001600160a01b03811660009081526020818152604091829020600901805483518184028101840190945280845260609392830182828015610a1757602002820191906000526020600020905b81546001600160a01b031681526001909101906020018083116109f9575b50505050509050919050565b606080606080600080600360008a6001600160a01b03166001600160a01b031681526020019081526020016000208888604051610a61929190612fac565b90815260200160405180910390209050806001018160020182600301836004018460050160009054906101000a900460ff16848054610a9f90612ddb565b80601f0160208091040260200160405190810160405280929190818152602001828054610acb90612ddb565b8015610b185780601f10610aed57610100808354040283529160200191610b18565b820191906000526020600020905b815481529060010190602001808311610afb57829003601f168201915b50505050509450838054610b2b90612ddb565b80601f0160208091040260200160405190810160405280929190818152602001828054610b5790612ddb565b8015610ba45780601f10610b7957610100808354040283529160200191610ba4565b820191906000526020600020905b815481529060010190602001808311610b8757829003601f168201915b50505050509350828054610bb790612ddb565b80601f0160208091040260200160405190810160405280929190818152602001828054610be390612ddb565b8015610c305780601f10610c0557610100808354040283529160200191610c30565b820191906000526020600020905b815481529060010190602001808311610c1357829003601f168201915b50505050509250818054610c4390612ddb565b80601f0160208091040260200160405190810160405280929190818152602001828054610c6f90612ddb565b8015610cbc5780601f10610c9157610100808354040283529160200191610cbc565b820191906000526020600020905b815481529060010190602001808311610c9f57829003601f168201915b505050505091509550955095509550955050939792965093509350565b33600090815260208190526040902060070154610100900460ff16610d105760405162461bcd60e51b815260040161045290612f7e565b3360009081526020819052604090206007015460ff1615610d735760405162461bcd60e51b815260206004820152601960248201527f4f776e657220697320616c7265616479206465636561736564000000000000006044820152606401610452565b33600090815260208181526040808320426005918201556004909252909120015460ff1615610df95733600081815260046020526040808220600501805460ff19169055517fac892f9ea2bac4d143f762134b209de57efb94b00c56302aaed590951368eaac91610df09142909115158252602082015260400190565b60405180910390a25b60405142815233907f878229cab17522b0aa9fe67ef166ba37857b7fdb46cd8748179a9d9a7373727f9060200160405180910390a2565b33600090815260208190526040902060070154610100900460ff16610e675760405162461bcd60e51b815260040161045290612f7e565b6001600160a01b03871660009081526002602052604090206005015460ff1615610eca5760405162461bcd60e51b81526020600482015260146024820152735661756c7420616c72656164792065786973747360601b6044820152606401610452565b6001600160a01b038716610f185760405162461bcd60e51b8152602060048201526015602482015274496e76616c6964207661756c74206164647265737360581b6044820152606401610452565b604051806101000160405280886001600160a01b0316815260200187878080601f01602080910402602001604051908101604052809392919081815260200183838082843760009201829052509385525050336020808501919091526040808501939093528251601f8901829004820281018201909352878352606090930192889150879081908401838280828437600092019190915250505090825250604080516020601f8601819004810282018101909252848152918101919085908590819084018382808284376000920182905250938552505060016020808501829052604080518581528083018252958101959095526001600160a01b038d811685526002825294909320855181546001600160a01b0319169516949094178455918401519183019161104a915082612e63565b50604082015160028201805460608501511515600160a01b026001600160a81b03199091166001600160a01b0390931692909217919091179055608082015160038201906110989082612e63565b5060a082015160048201906110ad9082612e63565b5060c082015160058201805460ff191691151591909117905560e082015180516110e19160068401916020909101906127e3565b5050336000818152602081815260408083206009018054600181018255908452919092200180546001600160a01b0319166001600160a01b038c169081179091559051919250907f3585389649c4946deb9f3d591291e9a7058addcb51d91b4cad87e5810fd8909b90611157908a908a90612fbc565b60405180910390a350505050505050565b6001600160a01b038083166000908152600460209081526040808320938516835260069093019052205460ff165b92915050565b6001600160a01b0382166000908152600160209081526040808320338452909152902054829062010000900460ff166111e75760405162461bcd60e51b815260040161045290612fd8565b6001600160a01b0381166000908152600160209081526040808320338452909152902054610100900460ff166112565760405162461bcd60e51b815260206004820152601460248201527310dbdb9d1858dd081b9bdd081d995c9a599a595960621b6044820152606401610452565b6001600160a01b038116600090815260016020908152604080832033845290915290205460ff166112bc5760405162461bcd60e51b815260206004820152601060248201526f4e6f20766f74696e672072696768747360801b6044820152606401610452565b6001600160a01b03831660009081526004602052604090206005015460ff166113275760405162461bcd60e51b815260206004820152601b60248201527f4e6f20616374697665206465617468206465636c61726174696f6e00000000006044820152606401610452565b6001600160a01b038316600090815260046020908152604080832033845260060190915290205460ff161561138e5760405162461bcd60e51b815260206004820152600d60248201526c105b1c9958591e481d9bdd1959609a1b6044820152606401610452565b6001600160a01b0383166000908152600460209081526040808320338452600681018352818420805460ff19908116600117909155600782019093529220805485158015919093161790556113f9576002810180549060006113ef83613025565b9190505550611411565b60038101805490600061140b83613025565b91905055505b604051831515815233906001600160a01b038616907fcc194f214df029fe546c9959ee15d79d8633742aab6c02a862e337f8ace3d550906020015b60405180910390a361145d84612622565b50505050565b6001600160a01b0380831660009081526004602090815260408083209385168352600690930190529081205460ff166114d45760405162461bcd60e51b8152602060048201526013602482015272159bdd195c881a185cc81b9bdd081d9bdd1959606a1b6044820152606401610452565b506001600160a01b0391821660009081526004602090815260408083209390941682526007909201909152205460ff1690565b6000611513838361275c565b9392505050565b6001600160a01b0381166000908152600160209081526040808320338452909152902054819062010000900460ff166115655760405162461bcd60e51b815260040161045290612fd8565b6001600160a01b0382166000908152600160209081526040808320338452909152902054610100900460ff16156115d15760405162461bcd60e51b815260206004820152601060248201526f105b1c9958591e481d995c9a599a595960821b6044820152606401610452565b6001600160a01b0382166000818152600160209081526040808320338085529252808320805461ff001916610100179055519092917f33c6b9962c16a3768d4f15c8f694b088fd57a39499a9b9f7e59243c371a2207a91a35050565b6001600160a01b038082166000908152600260208190526040822090810154600582015460018301805460609686958895869588959294929382169260ff600160a01b90930483169260038701926004880192911690869061168e90612ddb565b80601f01602080910402602001604051908101604052809291908181526020018280546116ba90612ddb565b80156117075780601f106116dc57610100808354040283529160200191611707565b820191906000526020600020905b8154815290600101906020018083116116ea57829003601f168201915b5050505050955082805461171a90612ddb565b80601f016020809104026020016040519081016040528092919081815260200182805461174690612ddb565b80156117935780601f1061176857610100808354040283529160200191611793565b820191906000526020600020905b81548152906001019060200180831161177657829003601f168201915b505050505092508180546117a690612ddb565b80601f01602080910402602001604051908101604052809291908181526020018280546117d290612ddb565b801561181f5780601f106117f45761010080835404028352916020019161181f565b820191906000526020600020905b81548152906001019060200180831161180257829003601f168201915b505050505091509650965096509650965096505091939550919395565b6001600160a01b038b166000908152600260205260409020600501548b9060ff166118795760405162461bcd60e51b81526004016104529061303e565b6001600160a01b03818116600090815260026020819052604090912001541633146118d85760405162461bcd60e51b815260206004820152600f60248201526e2737ba103b30bab63a1037bbb732b960891b6044820152606401610452565b6001600160a01b038c16600090815260036020526040908190209051611901908d908d90612fac565b9081526040519081900360200190206005015460ff161561195a5760405162461bcd60e51b815260206004820152601360248201527246696c6520616c72656164792065786973747360681b6044820152606401610452565b6040518060c001604052808c8c8080601f016020809104026020016040519081016040528093929190818152602001838380828437600092019190915250505090825250604080516020601f8d018190048102820181019092528b815291810191908c908c9081908401838280828437600092019190915250505090825250604080516020601f8b0181900481028201810190925289815291810191908a908a9081908401838280828437600092019190915250505090825250604080516020601f890181900481028201810190925287815291810191908890889081908401838280828437600092019190915250505090825250604080516020601f870181900481028201810190925285815291810191908690869081908401838280828437600092018290525093855250506001602093840152506001600160a01b038f16815260039091526040908190209051611ab7908e908e90612fac565b90815260405190819003602001902081518190611ad49082612e63565b5060208201516001820190611ae99082612e63565b5060408201516002820190611afe9082612e63565b5060608201516003820190611b139082612e63565b5060808201516004820190611b289082612e63565b5060a091909101516005909101805460ff19169115159190911790556040516001600160a01b038d16907f7dfa9fb9245065329f41aba6fc668605ebf258da04e53b4425a1f130ad9b41cd90611b85908e908e908e908e90612f4c565b60405180910390a2505050505050505050505050565b6001600160a01b0381166000908152600160209081526040808320338452909152902054819062010000900460ff16611be65760405162461bcd60e51b815260040161045290612fd8565b6001600160a01b0381166000908152600160209081526040808320338452909152902054610100900460ff16611c555760405162461bcd60e51b815260206004820152601460248201527310dbdb9d1858dd081b9bdd081d995c9a599a595960621b6044820152606401610452565b6001600160a01b038116600090815260016020908152604080832033845290915290205460ff16611cbb5760405162461bcd60e51b815260206004820152601060248201526f4e6f20766f74696e672072696768747360801b6044820152606401610452565b6001600160a01b038216600090815260208190526040902060070154610100900460ff16611cfb5760405162461bcd60e51b815260040161045290612f7e565b6001600160a01b03821660009081526020819052604090206007015460ff1615611d605760405162461bcd60e51b815260206004820152601660248201527513dddb995c88185b1c9958591e48191958d9585cd95960521b6044820152606401610452565b6001600160a01b03821660009081526004602052604090206005015460ff1615611dcc5760405162461bcd60e51b815260206004820181905260248201527f4465617468206465636c61726174696f6e20616c7265616479206163746976656044820152606401610452565b6000805b6001600160a01b038416600090815260208190526040902060080154811015611eb4576001600160a01b0384166000908152602081905260408120600801805483908110611e2057611e2061306c565b60009182526020808320909101546001600160a01b0388811684526001835260408085209190921680855292529091205490915060ff610100909104168015611e8e57506001600160a01b0380861660009081526001602090815260408083209385168352929052205460ff165b15611ea15782611e9d81613025565b9350505b5080611eac81613025565b915050611dd0565b5060008111611f055760405162461bcd60e51b815260206004820152601c60248201527f4e6f20766f74696e6720636f6e746163747320617661696c61626c65000000006044820152606401610452565b6001600160a01b038316600081815260046020818152604080842080546001600160a01b031916339081178255426001808401829055600284018190556003840188905595830189905560058301805461ffff191687179055818752600683018552838720805460ff199081168817909155600784018652968490208054909716909517909555905192835293917fd1ffe6c6eec884ae3341f8304738b02340905dfd25b73df1802e7f95c9b9fbec910160405180910390a36040516001815233906001600160a01b038616907fcc194f214df029fe546c9959ee15d79d8633742aab6c02a862e337f8ace3d5509060200161144c565b6001600160a01b03811660009081526020818152604091829020600801805483518184028101840190945280845260609392830182828015610a17576020028201919060005260206000209081546001600160a01b031681526001909101906020018083116109f95750505050509050919050565b6001600160a01b038116600090815260026020908152604091829020600601805483518184028101840190945280845260609392830182828015610a17576020028201919060005260206000209081546001600160a01b031681526001909101906020018083116109f95750505050509050919050565b6001600160a01b038116600090815260026020526040902060050154819060ff166121255760405162461bcd60e51b81526004016104529061303e565b6001600160a01b0381811660009081526002602081905260409091200154163314806121565750612156813361275c565b6121935760405162461bcd60e51b815260206004820152600e60248201526d139bdd08185d5d1a1bdc9a5e995960921b6044820152606401610452565b6001600160a01b03821660009081526002602081905260409091200154600160a01b900460ff16156122005760405162461bcd60e51b815260206004820152601660248201527515985d5b1d08185b1c9958591e481c995b19585cd95960521b6044820152606401610452565b6001600160a01b03808316600090815260026020818152604080842090920154909316825291819052206007015460ff166122725760405162461bcd60e51b815260206004820152601260248201527113dddb995c881b9bdd08191958d9585cd95960721b6044820152606401610452565b6001600160a01b038083166000818152600260208190526040808320909101805460ff60a01b198116600160a01b1790915590519316927f56c3e31b0d2158f3b6aeced690ea98f76856f0eef497b1a9fba19cdf3a470b169190a35050565b6001600160a01b03811660009081526020819052604081206005810154600682015460078301546001840180546060968796909586958695869593946002860193929160ff808216926101009092041690869061232d90612ddb565b80601f016020809104026020016040519081016040528092919081815260200182805461235990612ddb565b80156123a65780601f1061237b576101008083540402835291602001916123a6565b820191906000526020600020905b81548152906001019060200180831161238957829003601f168201915b505050505095508480546123b990612ddb565b80601f01602080910402602001604051908101604052809291908181526020018280546123e590612ddb565b80156124325780601f1061240757610100808354040283529160200191612432565b820191906000526020600020905b81548152906001019060200180831161241557829003601f168201915b505050505094509650965096509650965096505091939550919395565b6001600160a01b038216600090815260026020526040902060050154829060ff1661248c5760405162461bcd60e51b81526004016104529061303e565b6001600160a01b03818116600090815260026020819052604090912001541633146124eb5760405162461bcd60e51b815260206004820152600f60248201526e2737ba103b30bab63a1037bbb732b960891b6044820152606401610452565b3360009081526001602090815260408083206001600160a01b038616845290915290205462010000900460ff1661255d5760405162461bcd60e51b815260206004820152601660248201527510dbdb9d1858dd08191bd95cc81b9bdd08195e1a5cdd60521b6044820152606401610452565b612567838361275c565b156125b45760405162461bcd60e51b815260206004820152601a60248201527f436f6e7461637420616c726561647920617574686f72697a65640000000000006044820152606401610452565b6001600160a01b038381166000818152600260209081526040808320600601805460018101825590845291832090910180546001600160a01b0319169487169485179055517f9c5a8053f4c2dce64df183670e37f8038c58530c372ddd0cc5167c49ec19e2129190a3505050565b6001600160a01b0381166000908152600460208190526040822090810154909190606490612651906032613082565b61265b9190613099565b6126669060016130bb565b9050808260020154106126f6576001600160a01b03831660008181526020819052604090819020600701805460ff1916600190811790915560058501805461ffff191661010017905590517fac892f9ea2bac4d143f762134b209de57efb94b00c56302aaed590951368eaac916126e99142909115158252602082015260400190565b60405180910390a2505050565b808260030154106127575760058201805461ffff191661010017905560408051600081524260208201526001600160a01b038516917fac892f9ea2bac4d143f762134b209de57efb94b00c56302aaed590951368eaac910160405180910390a25b505050565b6001600160a01b0382166000908152600260205260408120815b60068201548110156127d857836001600160a01b03168260060182815481106127a1576127a161306c565b6000918252602090912001546001600160a01b0316036127c657600192505050611196565b806127d081613025565b915050612776565b506000949350505050565b828054828255906000526020600020908101928215612838579160200282015b8281111561283857825182546001600160a01b0319166001600160a01b03909116178255602090920191600190910190612803565b50612844929150612848565b5090565b5b808211156128445760008155600101612849565b60008083601f84011261286f57600080fd5b50813567ffffffffffffffff81111561288757600080fd5b60208301915083602082850101111561289f57600080fd5b9250929050565b600080600080600080600080600060a08a8c0312156128c457600080fd5b893567ffffffffffffffff808211156128dc57600080fd5b6128e88d838e0161285d565b909b50995060208c013591508082111561290157600080fd5b61290d8d838e0161285d565b909950975060408c013591508082111561292657600080fd5b6129328d838e0161285d565b909750955060608c013591508082111561294b57600080fd5b506129588c828d0161285d565b9a9d999c50979a9699959894979660800135949350505050565b80356001600160a01b038116811461298957600080fd5b919050565b600080604083850312156129a157600080fd5b6129aa83612972565b9150602083013580151581146129bf57600080fd5b809150509250929050565b6000602082840312156129dc57600080fd5b61151382612972565b6020808252825182820181905260009190848201906040850190845b81811015612a265783516001600160a01b031683529284019291840191600101612a01565b50909695505050505050565b600080600060408486031215612a4757600080fd5b612a5084612972565b9250602084013567ffffffffffffffff811115612a6c57600080fd5b612a788682870161285d565b9497909650939450505050565b6000815180845260005b81811015612aab57602081850181015186830182015201612a8f565b506000602082860101526020601f19601f83011685010191505092915050565b60a081526000612ade60a0830188612a85565b8281036020840152612af08188612a85565b90508281036040840152612b048187612a85565b90508281036060840152612b188186612a85565b91505082151560808301529695505050505050565b60008060008060008060006080888a031215612b4857600080fd5b612b5188612972565b9650602088013567ffffffffffffffff80821115612b6e57600080fd5b612b7a8b838c0161285d565b909850965060408a0135915080821115612b9357600080fd5b612b9f8b838c0161285d565b909650945060608a0135915080821115612bb857600080fd5b50612bc58a828b0161285d565b989b979a50959850939692959293505050565b60008060408385031215612beb57600080fd5b612bf483612972565b9150612c0260208401612972565b90509250929050565b60c081526000612c1e60c0830189612a85565b6001600160a01b038816602084015286151560408401528281036060840152612c478187612a85565b90508281036080840152612c5b8186612a85565b91505082151560a0830152979650505050505050565b600080600080600080600080600080600060c08c8e031215612c9257600080fd5b612c9b8c612972565b9a5067ffffffffffffffff8060208e01351115612cb757600080fd5b612cc78e60208f01358f0161285d565b909b50995060408d0135811015612cdd57600080fd5b612ced8e60408f01358f0161285d565b909950975060608d0135811015612d0357600080fd5b612d138e60608f01358f0161285d565b909750955060808d0135811015612d2957600080fd5b612d398e60808f01358f0161285d565b909550935060a08d0135811015612d4f57600080fd5b50612d608d60a08e01358e0161285d565b81935080925050509295989b509295989b9093969950565b60c081526000612d8b60c0830189612a85565b8281036020840152612d9d8189612a85565b6040840197909752505060608101939093529015156080830152151560a09091015292915050565b634e487b7160e01b600052604160045260246000fd5b600181811c90821680612def57607f821691505b602082108103612e0f57634e487b7160e01b600052602260045260246000fd5b50919050565b601f82111561275757600081815260208120601f850160051c81016020861015612e3c5750805b601f850160051c820191505b81811015612e5b57828155600101612e48565b505050505050565b815167ffffffffffffffff811115612e7d57612e7d612dc5565b612e9181612e8b8454612ddb565b84612e15565b602080601f831160018114612ec65760008415612eae5750858301515b600019600386901b1c1916600185901b178555612e5b565b600085815260208120601f198616915b82811015612ef557888601518255948401946001909101908401612ed6565b5085821015612f135787850151600019600388901b60f8161c191681555b5050505050600190811b01905550565b81835281816020850137506000828201602090810191909152601f909101601f19169091010190565b604081526000612f60604083018688612f23565b8281036020840152612f73818587612f23565b979650505050505050565b60208082526014908201527313dddb995c881b9bdd081c9959da5cdd195c995960621b604082015260600190565b8183823760009101908152919050565b602081526000612fd0602083018486612f23565b949350505050565b6020808252601b908201527f4e6f74206120636f6e74616374206f662074686973206f776e65720000000000604082015260600190565b634e487b7160e01b600052601160045260246000fd5b6000600182016130375761303761300f565b5060010190565b60208082526014908201527315985d5b1d08191bd95cc81b9bdd08195e1a5cdd60621b604082015260600190565b634e487b7160e01b600052603260045260246000fd5b80820281158282048414176111965761119661300f565b6000826130b657634e487b7160e01b600052601260045260246000fd5b500490565b808201808211156111965761119661300f56fea264697066735822122081715119887991b1b32031f88d28647abe1b207fafe79250243ca6f31a27446064736f6c63430008130033","opcodes":"PUSH1 0x80 PUSH1 0x40 MSTORE CALLVALUE DUP1 ISZERO PUSH2 0x10 JUMPI PUSH1 0x0 DUP1 REVERT JUMPDEST POP PUSH2 0x3104 DUP1 PUSH2 0x20 PUSH1 0x0 CODECOPY PUSH1 0x0 RETURN INVALID PUSH1 0x80 PUSH1 0x40 MSTORE CALLVALUE DUP1 ISZERO PUSH2 0x10 JUMPI PUSH1 0x0 DUP1 REVERT JUMPDEST POP PUSH1 0x4 CALLDATASIZE LT PUSH2 0x137 JUMPI PUSH1 0x0 CALLDATALOAD PUSH1 0xE0 SHR DUP1 PUSH4 0x60F490F7 GT PUSH2 0xB8 JUMPI DUP1 PUSH4 0xABC22BBE GT PUSH2 0x7C JUMPI DUP1 PUSH4 0xABC22BBE EQ PUSH2 0x36A JUMPI DUP1 PUSH4 0xB385FAA8 EQ PUSH2 0x37D JUMPI DUP1 PUSH4 0xB52B6706 EQ PUSH2 0x390 JUMPI DUP1 PUSH4 0xCD30F038 EQ PUSH2 0x3A3 JUMPI DUP1 PUSH4 0xD385DE82 EQ PUSH2 0x3B6 JUMPI DUP1 PUSH4 0xE42D9419 EQ PUSH2 0x3DB JUMPI PUSH1 0x0 DUP1 REVERT JUMPDEST DUP1 PUSH4 0x60F490F7 EQ PUSH2 0x228 JUMPI DUP1 PUSH4 0x6880F137 EQ PUSH2 0x297 JUMPI DUP1 PUSH4 0x90229AF7 EQ PUSH2 0x2AA JUMPI DUP1 PUSH4 0x996E6CA1 EQ PUSH2 0x2CF JUMPI DUP1 PUSH4 0x9DD3A483 EQ PUSH2 0x357 JUMPI PUSH1 0x0 DUP1 REVERT JUMPDEST DUP1 PUSH4 0x36E5621E GT PUSH2 0xFF JUMPI DUP1 PUSH4 0x36E5621E EQ PUSH2 0x1B9 JUMPI DUP1 PUSH4 0x4D4D2B1C EQ PUSH2 0x1CC JUMPI DUP1 PUSH4 0x4E8E32B5 EQ PUSH2 0x1EF JUMPI DUP1 PUSH4 0x5AB4F162 EQ PUSH2 0x202 JUMPI DUP1 PUSH4 0x5B1A8E3F EQ PUSH2 0x215 JUMPI PUSH1 0x0 DUP1 REVERT JUMPDEST DUP1 PUSH4 0xACCC75D EQ PUSH2 0x13C JUMPI DUP1 PUSH4 0x2815F211 EQ PUSH2 0x151 JUMPI DUP1 PUSH4 0x2FDA53E7 EQ PUSH2 0x164 JUMPI DUP1 PUSH4 0x319764FE EQ PUSH2 0x18D JUMPI DUP1 PUSH4 0x34F167A9 EQ PUSH2 0x1B1 JUMPI JUMPDEST PUSH1 0x0 DUP1 REVERT JUMPDEST PUSH2 0x14F PUSH2 0x14A CALLDATASIZE PUSH1 0x4 PUSH2 0x28A6 JUMP JUMPDEST PUSH2 0x3EE JUMP JUMPDEST STOP JUMPDEST PUSH2 0x14F PUSH2 0x15F CALLDATASIZE PUSH1 0x4 PUSH2 0x298E JUMP JUMPDEST PUSH2 0x7CC JUMP JUMPDEST PUSH2 0x177 PUSH2 0x172 CALLDATASIZE PUSH1 0x4 PUSH2 0x29CA JUMP JUMPDEST PUSH2 0x9AC JUMP JUMPDEST PUSH1 0x40 MLOAD PUSH2 0x184 SWAP2 SWAP1 PUSH2 0x29E5 JUMP JUMPDEST PUSH1 0x40 MLOAD DUP1 SWAP2 SUB SWAP1 RETURN JUMPDEST PUSH2 0x1A0 PUSH2 0x19B CALLDATASIZE PUSH1 0x4 PUSH2 0x2A32 JUMP JUMPDEST PUSH2 0xA23 JUMP JUMPDEST PUSH1 0x40 MLOAD PUSH2 0x184 SWAP6 SWAP5 SWAP4 SWAP3 SWAP2 SWAP1 PUSH2 0x2ACB JUMP JUMPDEST PUSH2 0x14F PUSH2 0xCD9 JUMP JUMPDEST PUSH2 0x14F PUSH2 0x1C7 CALLDATASIZE PUSH1 0x4 PUSH2 0x2B2D JUMP JUMPDEST PUSH2 0xE30 JUMP JUMPDEST PUSH2 0x1DF PUSH2 0x1DA CALLDATASIZE PUSH1 0x4 PUSH2 0x2BD8 JUMP JUMPDEST PUSH2 0x1168 JUMP JUMPDEST PUSH1 0x40 MLOAD SWAP1 ISZERO ISZERO DUP2 MSTORE PUSH1 0x20 ADD PUSH2 0x184 JUMP JUMPDEST PUSH2 0x14F PUSH2 0x1FD CALLDATASIZE PUSH1 0x4 PUSH2 0x298E JUMP JUMPDEST PUSH2 0x119C JUMP JUMPDEST PUSH2 0x1DF PUSH2 0x210 CALLDATASIZE PUSH1 0x4 PUSH2 0x2BD8 JUMP JUMPDEST PUSH2 0x1463 JUMP JUMPDEST PUSH2 0x1DF PUSH2 0x223 CALLDATASIZE PUSH1 0x4 PUSH2 0x2BD8 JUMP JUMPDEST PUSH2 0x1507 JUMP JUMPDEST PUSH2 0x278 PUSH2 0x236 CALLDATASIZE PUSH1 0x4 PUSH2 0x2BD8 JUMP JUMPDEST PUSH1 0x1 PUSH1 0x1 PUSH1 0xA0 SHL SUB SWAP2 DUP3 AND PUSH1 0x0 SWAP1 DUP2 MSTORE PUSH1 0x1 PUSH1 0x20 SWAP1 DUP2 MSTORE PUSH1 0x40 DUP1 DUP4 KECCAK256 SWAP4 SWAP1 SWAP5 AND DUP3 MSTORE SWAP2 SWAP1 SWAP2 MSTORE KECCAK256 SLOAD PUSH1 0xFF DUP1 DUP3 AND SWAP3 PUSH2 0x100 DUP4 DIV DUP3 AND SWAP3 PUSH3 0x10000 SWAP1 DIV SWAP1 SWAP2 AND SWAP1 JUMP JUMPDEST PUSH1 0x40 DUP1 MLOAD SWAP4 ISZERO ISZERO DUP5 MSTORE SWAP2 ISZERO ISZERO PUSH1 0x20 DUP5 ADD MSTORE ISZERO ISZERO SWAP1 DUP3 ADD MSTORE PUSH1 0x60 ADD PUSH2 0x184 JUMP JUMPDEST PUSH2 0x14F PUSH2 0x2A5 CALLDATASIZE PUSH1 0x4 PUSH2 0x29CA JUMP JUMPDEST PUSH2 0x151A JUMP JUMPDEST PUSH2 0x2BD PUSH2 0x2B8 CALLDATASIZE PUSH1 0x4 PUSH2 0x29CA JUMP JUMPDEST PUSH2 0x162D JUMP JUMPDEST PUSH1 0x40 MLOAD PUSH2 0x184 SWAP7 SWAP6 SWAP5 SWAP4 SWAP3 SWAP2 SWAP1 PUSH2 0x2C0B JUMP JUMPDEST PUSH2 0x326 PUSH2 0x2DD CALLDATASIZE PUSH1 0x4 PUSH2 0x29CA JUMP JUMPDEST PUSH1 0x1 PUSH1 0x1 PUSH1 0xA0 SHL SUB AND PUSH1 0x0 SWAP1 DUP2 MSTORE PUSH1 0x4 PUSH1 0x20 DUP2 SWAP1 MSTORE PUSH1 0x40 SWAP1 SWAP2 KECCAK256 PUSH1 0x5 DUP2 ADD SLOAD PUSH1 0x1 DUP3 ADD SLOAD PUSH1 0x2 DUP4 ADD SLOAD PUSH1 0x3 DUP5 ADD SLOAD SWAP4 SWAP1 SWAP5 ADD SLOAD PUSH1 0xFF DUP1 DUP5 AND SWAP7 SWAP3 SWAP6 SWAP5 SWAP4 SWAP2 SWAP3 PUSH2 0x100 SWAP1 SWAP3 DIV AND SWAP1 JUMP JUMPDEST PUSH1 0x40 DUP1 MLOAD SWAP7 ISZERO ISZERO DUP8 MSTORE PUSH1 0x20 DUP8 ADD SWAP6 SWAP1 SWAP6 MSTORE SWAP4 DUP6 ADD SWAP3 SWAP1 SWAP3 MSTORE PUSH1 0x60 DUP5 ADD MSTORE PUSH1 0x80 DUP4 ADD MSTORE ISZERO ISZERO PUSH1 0xA0 DUP3 ADD MSTORE PUSH1 0xC0 ADD PUSH2 0x184 JUMP JUMPDEST PUSH2 0x14F PUSH2 0x365 CALLDATASIZE PUSH1 0x4 PUSH2 0x2C71 JUMP JUMPDEST PUSH2 0x183C JUMP JUMPDEST PUSH2 0x14F PUSH2 0x378 CALLDATASIZE PUSH1 0x4 PUSH2 0x29CA JUMP JUMPDEST PUSH2 0x1B9B JUMP JUMPDEST PUSH2 0x177 PUSH2 0x38B CALLDATASIZE PUSH1 0x4 PUSH2 0x29CA JUMP JUMPDEST PUSH2 0x1FFC JUMP JUMPDEST PUSH2 0x177 PUSH2 0x39E CALLDATASIZE PUSH1 0x4 PUSH2 0x29CA JUMP JUMPDEST PUSH2 0x2071 JUMP JUMPDEST PUSH2 0x14F PUSH2 0x3B1 CALLDATASIZE PUSH1 0x4 PUSH2 0x29CA JUMP JUMPDEST PUSH2 0x20E8 JUMP JUMPDEST PUSH2 0x3C9 PUSH2 0x3C4 CALLDATASIZE PUSH1 0x4 PUSH2 0x29CA JUMP JUMPDEST PUSH2 0x22D1 JUMP JUMPDEST PUSH1 0x40 MLOAD PUSH2 0x184 SWAP7 SWAP6 SWAP5 SWAP4 SWAP3 SWAP2 SWAP1 PUSH2 0x2D78 JUMP JUMPDEST PUSH2 0x14F PUSH2 0x3E9 CALLDATASIZE PUSH1 0x4 PUSH2 0x2BD8 JUMP JUMPDEST PUSH2 0x244F JUMP JUMPDEST CALLER PUSH1 0x0 SWAP1 DUP2 MSTORE PUSH1 0x20 DUP2 SWAP1 MSTORE PUSH1 0x40 SWAP1 KECCAK256 PUSH1 0x7 ADD SLOAD PUSH2 0x100 SWAP1 DIV PUSH1 0xFF AND ISZERO PUSH2 0x45B JUMPI PUSH1 0x40 MLOAD PUSH3 0x461BCD PUSH1 0xE5 SHL DUP2 MSTORE PUSH1 0x20 PUSH1 0x4 DUP3 ADD MSTORE PUSH1 0x18 PUSH1 0x24 DUP3 ADD MSTORE PUSH32 0x4F776E657220616C726561647920726567697374657265640000000000000000 PUSH1 0x44 DUP3 ADD MSTORE PUSH1 0x64 ADD JUMPDEST PUSH1 0x40 MLOAD DUP1 SWAP2 SUB SWAP1 REVERT JUMPDEST PUSH3 0x15180 DUP2 LT ISZERO PUSH2 0x4AE JUMPI PUSH1 0x40 MLOAD PUSH3 0x461BCD PUSH1 0xE5 SHL DUP2 MSTORE PUSH1 0x20 PUSH1 0x4 DUP3 ADD MSTORE PUSH1 0x18 PUSH1 0x24 DUP3 ADD MSTORE PUSH32 0x477261636520696E74657276616C20746F6F2073686F72740000000000000000 PUSH1 0x44 DUP3 ADD MSTORE PUSH1 0x64 ADD PUSH2 0x452 JUMP JUMPDEST PUSH4 0x1E13380 DUP2 GT ISZERO PUSH2 0x502 JUMPI PUSH1 0x40 MLOAD PUSH3 0x461BCD PUSH1 0xE5 SHL DUP2 MSTORE PUSH1 0x20 PUSH1 0x4 DUP3 ADD MSTORE PUSH1 0x17 PUSH1 0x24 DUP3 ADD MSTORE PUSH32 0x477261636520696E74657276616C20746F6F206C6F6E67000000000000000000 PUSH1 0x44 DUP3 ADD MSTORE PUSH1 0x64 ADD PUSH2 0x452 JUMP JUMPDEST PUSH1 0x40 MLOAD DUP1 PUSH2 0x160 ADD PUSH1 0x40 MSTORE DUP1 CALLER PUSH1 0x1 PUSH1 0x1 PUSH1 0xA0 SHL SUB AND DUP2 MSTORE PUSH1 0x20 ADD DUP11 DUP11 DUP1 DUP1 PUSH1 0x1F ADD PUSH1 0x20 DUP1 SWAP2 DIV MUL PUSH1 0x20 ADD PUSH1 0x40 MLOAD SWAP1 DUP2 ADD PUSH1 0x40 MSTORE DUP1 SWAP4 SWAP3 SWAP2 SWAP1 DUP2 DUP2 MSTORE PUSH1 0x20 ADD DUP4 DUP4 DUP1 DUP3 DUP5 CALLDATACOPY PUSH1 0x0 SWAP3 ADD SWAP2 SWAP1 SWAP2 MSTORE POP POP POP SWAP1 DUP3 MSTORE POP PUSH1 0x40 DUP1 MLOAD PUSH1 0x20 PUSH1 0x1F DUP12 ADD DUP2 SWAP1 DIV DUP2 MUL DUP3 ADD DUP2 ADD SWAP1 SWAP3 MSTORE DUP10 DUP2 MSTORE SWAP2 DUP2 ADD SWAP2 SWAP1 DUP11 SWAP1 DUP11 SWAP1 DUP2 SWAP1 DUP5 ADD DUP4 DUP3 DUP1 DUP3 DUP5 CALLDATACOPY PUSH1 0x0 SWAP3 ADD SWAP2 SWAP1 SWAP2 MSTORE POP POP POP SWAP1 DUP3 MSTORE POP PUSH1 0x40 DUP1 MLOAD PUSH1 0x20 PUSH1 0x1F DUP10 ADD DUP2 SWAP1 DIV DUP2 MUL DUP3 ADD DUP2 ADD SWAP1 SWAP3 MSTORE DUP8 DUP2 MSTORE SWAP2 DUP2 ADD SWAP2 SWAP1 DUP9 SWAP1 DUP9 SWAP1 DUP2 SWAP1 DUP5 ADD DUP4 DUP3 DUP1 DUP3 DUP5 CALLDATACOPY PUSH1 0x0 SWAP3 ADD SWAP2 SWAP1 SWAP2 MSTORE POP POP POP SWAP1 DUP3 MSTORE POP PUSH1 0x40 DUP1 MLOAD PUSH1 0x20 PUSH1 0x1F DUP8 ADD DUP2 SWAP1 DIV DUP2 MUL DUP3 ADD DUP2 ADD SWAP1 SWAP3 MSTORE DUP6 DUP2 MSTORE SWAP2 DUP2 ADD SWAP2 SWAP1 DUP7 SWAP1 DUP7 SWAP1 DUP2 SWAP1 DUP5 ADD DUP4 DUP3 DUP1 DUP3 DUP5 CALLDATACOPY PUSH1 0x0 SWAP3 ADD DUP3 SWAP1 MSTORE POP SWAP4 DUP6 MSTORE POP POP TIMESTAMP PUSH1 0x20 DUP5 ADD MSTORE POP PUSH1 0x40 DUP3 ADD DUP5 SWAP1 MSTORE PUSH1 0x60 DUP3 ADD DUP2 SWAP1 MSTORE PUSH1 0x1 PUSH1 0x80 DUP4 ADD MSTORE PUSH1 0xA0 SWAP1 SWAP2 ADD SWAP1 PUSH1 0x40 MLOAD SWAP1 DUP1 DUP3 MSTORE DUP1 PUSH1 0x20 MUL PUSH1 0x20 ADD DUP3 ADD PUSH1 0x40 MSTORE DUP1 ISZERO PUSH2 0x650 JUMPI DUP2 PUSH1 0x20 ADD PUSH1 0x20 DUP3 MUL DUP1 CALLDATASIZE DUP4 CALLDATACOPY ADD SWAP1 POP JUMPDEST POP DUP2 MSTORE PUSH1 0x20 ADD PUSH1 0x0 PUSH1 0x40 MLOAD SWAP1 DUP1 DUP3 MSTORE DUP1 PUSH1 0x20 MUL PUSH1 0x20 ADD DUP3 ADD PUSH1 0x40 MSTORE DUP1 ISZERO PUSH2 0x681 JUMPI DUP2 PUSH1 0x20 ADD PUSH1 0x20 DUP3 MUL DUP1 CALLDATASIZE DUP4 CALLDATACOPY ADD SWAP1 POP JUMPDEST POP SWAP1 MSTORE CALLER PUSH1 0x0 SWAP1 DUP2 MSTORE PUSH1 0x20 DUP2 DUP2 MSTORE PUSH1 0x40 SWAP1 SWAP2 KECCAK256 DUP3 MLOAD DUP2 SLOAD PUSH1 0x1 PUSH1 0x1 PUSH1 0xA0 SHL SUB NOT AND PUSH1 0x1 PUSH1 0x1 PUSH1 0xA0 SHL SUB SWAP1 SWAP2 AND OR DUP2 SSTORE SWAP1 DUP3 ADD MLOAD PUSH1 0x1 DUP3 ADD SWAP1 PUSH2 0x6C3 SWAP1 DUP3 PUSH2 0x2E63 JUMP JUMPDEST POP PUSH1 0x40 DUP3 ADD MLOAD PUSH1 0x2 DUP3 ADD SWAP1 PUSH2 0x6D8 SWAP1 DUP3 PUSH2 0x2E63 JUMP JUMPDEST POP PUSH1 0x60 DUP3 ADD MLOAD PUSH1 0x3 DUP3 ADD SWAP1 PUSH2 0x6ED SWAP1 DUP3 PUSH2 0x2E63 JUMP JUMPDEST POP PUSH1 0x80 DUP3 ADD MLOAD PUSH1 0x4 DUP3 ADD SWAP1 PUSH2 0x702 SWAP1 DUP3 PUSH2 0x2E63 JUMP JUMPDEST POP PUSH1 0xA0 DUP3 ADD MLOAD PUSH1 0x5 DUP3 ADD SSTORE PUSH1 0xC0 DUP3 ADD MLOAD PUSH1 0x6 DUP3 ADD SSTORE PUSH1 0xE0 DUP3 ADD MLOAD PUSH1 0x7 DUP3 ADD DUP1 SLOAD PUSH2 0x100 DUP1 DUP7 ADD MLOAD ISZERO ISZERO MUL PUSH2 0xFF00 NOT SWAP4 ISZERO ISZERO SWAP4 SWAP1 SWAP4 AND PUSH2 0xFFFF NOT SWAP1 SWAP2 AND OR SWAP2 SWAP1 SWAP2 OR SWAP1 SSTORE PUSH2 0x120 DUP3 ADD MLOAD DUP1 MLOAD PUSH2 0x761 SWAP2 PUSH1 0x8 DUP5 ADD SWAP2 PUSH1 0x20 SWAP1 SWAP2 ADD SWAP1 PUSH2 0x27E3 JUMP JUMPDEST POP PUSH2 0x140 DUP3 ADD MLOAD DUP1 MLOAD PUSH2 0x77E SWAP2 PUSH1 0x9 DUP5 ADD SWAP2 PUSH1 0x20 SWAP1 SWAP2 ADD SWAP1 PUSH2 0x27E3 JUMP JUMPDEST POP POP PUSH1 0x40 MLOAD CALLER SWAP2 POP PUSH32 0x90FDCD9183750BDFB11BE5D6379C04E744E8F650AAC530EA853C19226EA7EB2B SWAP1 PUSH2 0x7B9 SWAP1 DUP13 SWAP1 DUP13 SWAP1 DUP13 SWAP1 DUP13 SWAP1 PUSH2 0x2F4C JUMP JUMPDEST PUSH1 0x40 MLOAD DUP1 SWAP2 SUB SWAP1 LOG2 POP POP POP POP POP POP POP POP POP JUMP JUMPDEST CALLER PUSH1 0x0 SWAP1 DUP2 MSTORE PUSH1 0x20 DUP2 SWAP1 MSTORE PUSH1 0x40 SWAP1 KECCAK256 PUSH1 0x7 ADD SLOAD PUSH2 0x100 SWAP1 DIV PUSH1 0xFF AND PUSH2 0x803 JUMPI PUSH1 0x40 MLOAD PUSH3 0x461BCD PUSH1 0xE5 SHL DUP2 MSTORE PUSH1 0x4 ADD PUSH2 0x452 SWAP1 PUSH2 0x2F7E JUMP JUMPDEST CALLER PUSH1 0x1 PUSH1 0x1 PUSH1 0xA0 SHL SUB DUP4 AND SUB PUSH2 0x85B JUMPI PUSH1 0x40 MLOAD PUSH3 0x461BCD PUSH1 0xE5 SHL DUP2 MSTORE PUSH1 0x20 PUSH1 0x4 DUP3 ADD MSTORE PUSH1 0x1E PUSH1 0x24 DUP3 ADD MSTORE PUSH32 0x43616E6E6F742061646420796F757273656C6620617320636F6E746163740000 PUSH1 0x44 DUP3 ADD MSTORE PUSH1 0x64 ADD PUSH2 0x452 JUMP JUMPDEST CALLER PUSH1 0x0 SWAP1 DUP2 MSTORE PUSH1 0x1 PUSH1 0x20 SWAP1 DUP2 MSTORE PUSH1 0x40 DUP1 DUP4 KECCAK256 PUSH1 0x1 PUSH1 0x1 PUSH1 0xA0 SHL SUB DUP7 AND DUP5 MSTORE SWAP1 SWAP2 MSTORE SWAP1 KECCAK256 SLOAD PUSH3 0x10000 SWAP1 DIV PUSH1 0xFF AND ISZERO PUSH2 0x8CE JUMPI PUSH1 0x40 MLOAD PUSH3 0x461BCD PUSH1 0xE5 SHL DUP2 MSTORE PUSH1 0x20 PUSH1 0x4 DUP3 ADD MSTORE PUSH1 0x16 PUSH1 0x24 DUP3 ADD MSTORE PUSH22 0x436F6E7461637420616C726561647920657869737473 PUSH1 0x50 SHL PUSH1 0x44 DUP3 ADD MSTORE PUSH1 0x64 ADD PUSH2 0x452 JUMP JUMPDEST PUSH1 0x40 DUP1 MLOAD PUSH1 0x60 DUP2 ADD DUP3 MSTORE DUP3 ISZERO ISZERO DUP1 DUP3 MSTORE PUSH1 0x0 PUSH1 0x20 DUP1 DUP5 ADD DUP3 DUP2 MSTORE PUSH1 0x1 DUP6 DUP8 ADD DUP2 DUP2 MSTORE CALLER DUP1 DUP7 MSTORE DUP3 DUP6 MSTORE DUP9 DUP7 KECCAK256 PUSH1 0x1 PUSH1 0x1 PUSH1 0xA0 SHL SUB DUP13 AND DUP1 DUP9 MSTORE SWAP1 DUP7 MSTORE DUP10 DUP8 KECCAK256 SWAP9 MLOAD DUP10 SLOAD SWAP6 MLOAD SWAP4 MLOAD ISZERO ISZERO PUSH3 0x10000 MUL PUSH3 0xFF0000 NOT SWAP5 ISZERO ISZERO PUSH2 0x100 MUL PUSH2 0xFF00 NOT SWAP3 ISZERO ISZERO SWAP3 SWAP1 SWAP3 AND PUSH2 0xFFFF NOT SWAP1 SWAP8 AND SWAP7 SWAP1 SWAP7 OR OR SWAP3 SWAP1 SWAP3 AND SWAP4 SWAP1 SWAP4 OR SWAP1 SWAP7 SSTORE DUP2 DUP5 MSTORE DUP4 DUP4 MSTORE DUP7 DUP5 KECCAK256 PUSH1 0x8 ADD DUP1 SLOAD SWAP2 DUP3 ADD DUP2 SSTORE DUP5 MSTORE SWAP3 DUP3 SWAP1 KECCAK256 SWAP1 SWAP3 ADD DUP1 SLOAD PUSH1 0x1 PUSH1 0x1 PUSH1 0xA0 SHL SUB NOT AND DUP6 OR SWAP1 SSTORE SWAP4 MLOAD SWAP2 DUP3 MSTORE SWAP2 SWAP3 PUSH32 0xC329A4824B9CDDBF4EFB396983DB7496360FE08A32EBBD5F6021D4835E275CF4 SWAP2 ADD PUSH1 0x40 MLOAD DUP1 SWAP2 SUB SWAP1 LOG3 POP POP JUMP JUMPDEST PUSH1 0x1 PUSH1 0x1 PUSH1 0xA0 SHL SUB DUP2 AND PUSH1 0x0 SWAP1 DUP2 MSTORE PUSH1 0x20 DUP2 DUP2 MSTORE PUSH1 0x40 SWAP2 DUP3 SWAP1 KECCAK256 PUSH1 0x9 ADD DUP1 SLOAD DUP4 MLOAD DUP2 DUP5 MUL DUP2 ADD DUP5 ADD SWAP1 SWAP5 MSTORE DUP1 DUP5 MSTORE PUSH1 0x60 SWAP4 SWAP3 DUP4 ADD DUP3 DUP3 DUP1 ISZERO PUSH2 0xA17 JUMPI PUSH1 0x20 MUL DUP3 ADD SWAP2 SWAP1 PUSH1 0x0 MSTORE PUSH1 0x20 PUSH1 0x0 KECCAK256 SWAP1 JUMPDEST DUP2 SLOAD PUSH1 0x1 PUSH1 0x1 PUSH1 0xA0 SHL SUB AND DUP2 MSTORE PUSH1 0x1 SWAP1 SWAP2 ADD SWAP1 PUSH1 0x20 ADD DUP1 DUP4 GT PUSH2 0x9F9 JUMPI JUMPDEST POP POP POP POP POP SWAP1 POP SWAP2 SWAP1 POP JUMP JUMPDEST PUSH1 0x60 DUP1 PUSH1 0x60 DUP1 PUSH1 0x0 DUP1 PUSH1 0x3 PUSH1 0x0 DUP11 PUSH1 0x1 PUSH1 0x1 PUSH1 0xA0 SHL SUB AND PUSH1 0x1 PUSH1 0x1 PUSH1 0xA0 SHL SUB AND DUP2 MSTORE PUSH1 0x20 ADD SWAP1 DUP2 MSTORE PUSH1 0x20 ADD PUSH1 0x0 KECCAK256 DUP9 DUP9 PUSH1 0x40 MLOAD PUSH2 0xA61 SWAP3 SWAP2 SWAP1 PUSH2 0x2FAC JUMP JUMPDEST SWAP1 DUP2 MSTORE PUSH1 0x20 ADD PUSH1 0x40 MLOAD DUP1 SWAP2 SUB SWAP1 KECCAK256 SWAP1 POP DUP1 PUSH1 0x1 ADD DUP2 PUSH1 0x2 ADD DUP3 PUSH1 0x3 ADD DUP4 PUSH1 0x4 ADD DUP5 PUSH1 0x5 ADD PUSH1 0x0 SWAP1 SLOAD SWAP1 PUSH2 0x100 EXP SWAP1 DIV PUSH1 0xFF AND DUP5 DUP1 SLOAD PUSH2 0xA9F SWAP1 PUSH2 0x2DDB JUMP JUMPDEST DUP1 PUSH1 0x1F ADD PUSH1 0x20 DUP1 SWAP2 DIV MUL PUSH1 0x20 ADD PUSH1 0x40 MLOAD SWAP1 DUP2 ADD PUSH1 0x40 MSTORE DUP1 SWAP3 SWAP2 SWAP1 DUP2 DUP2 MSTORE PUSH1 0x20 ADD DUP3 DUP1 SLOAD PUSH2 0xACB SWAP1 PUSH2 0x2DDB JUMP JUMPDEST DUP1 ISZERO PUSH2 0xB18 JUMPI DUP1 PUSH1 0x1F LT PUSH2 0xAED JUMPI PUSH2 0x100 DUP1 DUP4 SLOAD DIV MUL DUP4 MSTORE SWAP2 PUSH1 0x20 ADD SWAP2 PUSH2 0xB18 JUMP JUMPDEST DUP3 ADD SWAP2 SWAP1 PUSH1 0x0 MSTORE PUSH1 0x20 PUSH1 0x0 KECCAK256 SWAP1 JUMPDEST DUP2 SLOAD DUP2 MSTORE SWAP1 PUSH1 0x1 ADD SWAP1 PUSH1 0x20 ADD DUP1 DUP4 GT PUSH2 0xAFB JUMPI DUP3 SWAP1 SUB PUSH1 0x1F AND DUP3 ADD SWAP2 JUMPDEST POP POP POP POP POP SWAP5 POP DUP4 DUP1 SLOAD PUSH2 0xB2B SWAP1 PUSH2 0x2DDB JUMP JUMPDEST DUP1 PUSH1 0x1F ADD PUSH1 0x20 DUP1 SWAP2 DIV MUL PUSH1 0x20 ADD PUSH1 0x40 MLOAD SWAP1 DUP2 ADD PUSH1 0x40 MSTORE DUP1 SWAP3 SWAP2 SWAP1 DUP2 DUP2 MSTORE PUSH1 0x20 ADD DUP3 DUP1 SLOAD PUSH2 0xB57 SWAP1 PUSH2 0x2DDB JUMP JUMPDEST DUP1 ISZERO PUSH2 0xBA4 JUMPI DUP1 PUSH1 0x1F LT PUSH2 0xB79 JUMPI PUSH2 0x100 DUP1 DUP4 SLOAD DIV MUL DUP4 MSTORE SWAP2 PUSH1 0x20 ADD SWAP2 PUSH2 0xBA4 JUMP JUMPDEST DUP3 ADD SWAP2 SWAP1 PUSH1 0x0 MSTORE PUSH1 0x20 PUSH1 0x0 KECCAK256 SWAP1 JUMPDEST DUP2 SLOAD DUP2 MSTORE SWAP1 PUSH1 0x1 ADD SWAP1 PUSH1 0x20 ADD DUP1 DUP4 GT PUSH2 0xB87 JUMPI DUP3 SWAP1 SUB PUSH1 0x1F AND DUP3 ADD SWAP2 JUMPDEST POP POP POP POP POP SWAP4 POP DUP3 DUP1 SLOAD PUSH2 0xBB7 SWAP1 PUSH2 0x2DDB JUMP JUMPDEST DUP1 PUSH1 0x1F ADD PUSH1 0x20 DUP1 SWAP2 DIV MUL PUSH1 0x20 ADD PUSH1 0x40 MLOAD SWAP1 DUP2 ADD PUSH1 0x40 MSTORE DUP1 SWAP3 SWAP2 SWAP1 DUP2 DUP2 MSTORE PUSH1 0x20 ADD DUP3 DUP1 SLOAD PUSH2 0xBE3 SWAP1 PUSH2 0x2DDB JUMP JUMPDEST DUP1 ISZERO PUSH2 0xC30 JUMPI DUP1 PUSH1 0x1F LT PUSH2 0xC05 JUMPI PUSH2 0x100 DUP1 DUP4 SLOAD DIV MUL DUP4 MSTORE SWAP2 PUSH1 0x20 ADD SWAP2 PUSH2 0xC30 JUMP JUMPDEST DUP3 ADD SWAP2 SWAP1 PUSH1 0x0 MSTORE PUSH1 0x20 PUSH1 0x0 KECCAK256 SWAP1 JUMPDEST DUP2 SLOAD DUP2 MSTORE SWAP1 PUSH1 0x1 ADD SWAP1 PUSH1 0x20 ADD DUP1 DUP4 GT PUSH2 0xC13 JUMPI DUP3 SWAP1 SUB PUSH1 0x1F AND DUP3 ADD SWAP2 JUMPDEST POP POP POP POP POP SWAP3 POP DUP2 DUP1 SLOAD PUSH2 0xC43 SWAP1 PUSH2 0x2DDB JUMP JUMPDEST DUP1 PUSH1 0x1F ADD PUSH1 0x20 DUP1 SWAP2 DIV MUL PUSH1 0x20 ADD PUSH1 0x40 MLOAD SWAP1 DUP2 ADD PUSH1 0x40 MSTORE DUP1 SWAP3 SWAP2 SWAP1 DUP2 DUP2 MSTORE PUSH1 0x20 ADD DUP3 DUP1 SLOAD PUSH2 0xC6F SWAP1 PUSH2 0x2DDB JUMP JUMPDEST DUP1 ISZERO PUSH2 0xCBC JUMPI DUP1 PUSH1 0x1F LT PUSH2 0xC91 JUMPI PUSH2 0x100 DUP1 DUP4 SLOAD DIV MUL DUP4 MSTORE SWAP2 PUSH1 0x20 ADD SWAP2 PUSH2 0xCBC JUMP JUMPDEST DUP3 ADD SWAP2 SWAP1 PUSH1 0x0 MSTORE PUSH1 0x20 PUSH1 0x0 KECCAK256 SWAP1 JUMPDEST DUP2 SLOAD DUP2 MSTORE SWAP1 PUSH1 0x1 ADD SWAP1 PUSH1 0x20 ADD DUP1 DUP4 GT PUSH2 0xC9F JUMPI DUP3 SWAP1 SUB PUSH1 0x1F AND DUP3 ADD SWAP2 JUMPDEST POP POP POP POP POP SWAP2 POP SWAP6 POP SWAP6 POP SWAP6 POP SWAP6 POP SWAP6 POP POP SWAP4 SWAP8 SWAP3 SWAP7 POP SWAP4 POP SWAP4 POP JUMP JUMPDEST CALLER PUSH1 0x0 SWAP1 DUP2 MSTORE PUSH1 0x20 DUP2 SWAP1 MSTORE PUSH1 0x40 SWAP1 KECCAK256 PUSH1 0x7 ADD SLOAD PUSH2 0x100 SWAP1 DIV PUSH1 0xFF AND PUSH2 0xD10 JUMPI PUSH1 0x40 MLOAD PUSH3 0x461BCD PUSH1 0xE5 SHL DUP2 MSTORE PUSH1 0x4 ADD PUSH2 0x452 SWAP1 PUSH2 0x2F7E JUMP JUMPDEST CALLER PUSH1 0x0 SWAP1 DUP2 MSTORE PUSH1 0x20 DUP2 SWAP1 MSTORE PUSH1 0x40 SWAP1 KECCAK256 PUSH1 0x7 ADD SLOAD PUSH1 0xFF AND ISZERO PUSH2 0xD73 JUMPI PUSH1 0x40 MLOAD PUSH3 0x461BCD PUSH1 0xE5 SHL DUP2 MSTORE PUSH1 0x20 PUSH1 0x4 DUP3 ADD MSTORE PUSH1 0x19 PUSH1 0x24 DUP3 ADD MSTORE PUSH32 0x4F776E657220697320616C726561647920646563656173656400000000000000 PUSH1 0x44 DUP3 ADD MSTORE PUSH1 0x64 ADD PUSH2 0x452 JUMP JUMPDEST CALLER PUSH1 0x0 SWAP1 DUP2 MSTORE PUSH1 0x20 DUP2 DUP2 MSTORE PUSH1 0x40 DUP1 DUP4 KECCAK256 TIMESTAMP PUSH1 0x5 SWAP2 DUP3 ADD SSTORE PUSH1 0x4 SWAP1 SWAP3 MSTORE SWAP1 SWAP2 KECCAK256 ADD SLOAD PUSH1 0xFF AND ISZERO PUSH2 0xDF9 JUMPI CALLER PUSH1 0x0 DUP2 DUP2 MSTORE PUSH1 0x4 PUSH1 0x20 MSTORE PUSH1 0x40 DUP1 DUP3 KECCAK256 PUSH1 0x5 ADD DUP1 SLOAD PUSH1 0xFF NOT AND SWAP1 SSTORE MLOAD PUSH32 0xAC892F9EA2BAC4D143F762134B209DE57EFB94B00C56302AAED590951368EAAC SWAP2 PUSH2 0xDF0 SWAP2 TIMESTAMP SWAP1 SWAP2 ISZERO ISZERO DUP3 MSTORE PUSH1 0x20 DUP3 ADD MSTORE PUSH1 0x40 ADD SWAP1 JUMP JUMPDEST PUSH1 0x40 MLOAD DUP1 SWAP2 SUB SWAP1 LOG2 JUMPDEST PUSH1 0x40 MLOAD TIMESTAMP DUP2 MSTORE CALLER SWAP1 PUSH32 0x878229CAB17522B0AA9FE67EF166BA37857B7FDB46CD8748179A9D9A7373727F SWAP1 PUSH1 0x20 ADD PUSH1 0x40 MLOAD DUP1 SWAP2 SUB SWAP1 LOG2 JUMP JUMPDEST CALLER PUSH1 0x0 SWAP1 DUP2 MSTORE PUSH1 0x20 DUP2 SWAP1 MSTORE PUSH1 0x40 SWAP1 KECCAK256 PUSH1 0x7 ADD SLOAD PUSH2 0x100 SWAP1 DIV PUSH1 0xFF AND PUSH2 0xE67 JUMPI PUSH1 0x40 MLOAD PUSH3 0x461BCD PUSH1 0xE5 SHL DUP2 MSTORE PUSH1 0x4 ADD PUSH2 0x452 SWAP1 PUSH2 0x2F7E JUMP JUMPDEST PUSH1 0x1 PUSH1 0x1 PUSH1 0xA0 SHL SUB DUP8 AND PUSH1 0x0 SWAP1 DUP2 MSTORE PUSH1 0x2 PUSH1 0x20 MSTORE PUSH1 0x40 SWAP1 KECCAK256 PUSH1 0x5 ADD SLOAD PUSH1 0xFF AND ISZERO PUSH2 0xECA JUMPI PUSH1 0x40 MLOAD PUSH3 0x461BCD PUSH1 0xE5 SHL DUP2 MSTORE PUSH1 0x20 PUSH1 0x4 DUP3 ADD MSTORE PUSH1 0x14 PUSH1 0x24 DUP3 ADD MSTORE PUSH20 0x5661756C7420616C726561647920657869737473 PUSH1 0x60 SHL PUSH1 0x44 DUP3 ADD MSTORE PUSH1 0x64 ADD PUSH2 0x452 JUMP JUMPDEST PUSH1 0x1 PUSH1 0x1 PUSH1 0xA0 SHL SUB DUP8 AND PUSH2 0xF18 JUMPI PUSH1 0x40 MLOAD PUSH3 0x461BCD PUSH1 0xE5 SHL DUP2 MSTORE PUSH1 0x20 PUSH1 0x4 DUP3 ADD MSTORE PUSH1 0x15 PUSH1 0x24 DUP3 ADD MSTORE PUSH21 0x496E76616C6964207661756C742061646472657373 PUSH1 0x58 SHL PUSH1 0x44 DUP3 ADD MSTORE PUSH1 0x64 ADD PUSH2 0x452 JUMP JUMPDEST PUSH1 0x40 MLOAD DUP1 PUSH2 0x100 ADD PUSH1 0x40 MSTORE DUP1 DUP9 PUSH1 0x1 PUSH1 0x1 PUSH1 0xA0 SHL SUB AND DUP2 MSTORE PUSH1 0x20 ADD DUP8 DUP8 DUP1 DUP1 PUSH1 0x1F ADD PUSH1 0x20 DUP1 SWAP2 DIV MUL PUSH1 0x20 ADD PUSH1 0x40 MLOAD SWAP1 DUP2 ADD PUSH1 0x40 MSTORE DUP1 SWAP4 SWAP3 SWAP2 SWAP1 DUP2 DUP2 MSTORE PUSH1 0x20 ADD DUP4 DUP4 DUP1 DUP3 DUP5 CALLDATACOPY PUSH1 0x0 SWAP3 ADD DUP3 SWAP1 MSTORE POP SWAP4 DUP6 MSTORE POP POP CALLER PUSH1 0x20 DUP1 DUP6 ADD SWAP2 SWAP1 SWAP2 MSTORE PUSH1 0x40 DUP1 DUP6 ADD SWAP4 SWAP1 SWAP4 MSTORE DUP3 MLOAD PUSH1 0x1F DUP10 ADD DUP3 SWAP1 DIV DUP3 MUL DUP2 ADD DUP3 ADD SWAP1 SWAP4 MSTORE DUP8 DUP4 MSTORE PUSH1 0x60 SWAP1 SWAP4 ADD SWAP3 DUP9 SWAP2 POP DUP8 SWAP1 DUP2 SWAP1 DUP5 ADD DUP4 DUP3 DUP1 DUP3 DUP5 CALLDATACOPY PUSH1 0x0 SWAP3 ADD SWAP2 SWAP1 SWAP2 MSTORE POP POP POP SWAP1 DUP3 MSTORE POP PUSH1 0x40 DUP1 MLOAD PUSH1 0x20 PUSH1 0x1F DUP7 ADD DUP2 SWAP1 DIV DUP2 MUL DUP3 ADD DUP2 ADD SWAP1 SWAP3 MSTORE DUP5 DUP2 MSTORE SWAP2 DUP2 ADD SWAP2 SWAP1 DUP6 SWAP1 DUP6 SWAP1 DUP2 SWAP1 DUP5 ADD DUP4 DUP3 DUP1 DUP3 DUP5 CALLDATACOPY PUSH1 0x0 SWAP3 ADD DUP3 SWAP1 MSTORE POP SWAP4 DUP6 MSTORE POP POP PUSH1 0x1 PUSH1 0x20 DUP1 DUP6 ADD DUP3 SWAP1 MSTORE PUSH1 0x40 DUP1 MLOAD DUP6 DUP2 MSTORE DUP1 DUP4 ADD DUP3 MSTORE SWAP6 DUP2 ADD SWAP6 SWAP1 SWAP6 MSTORE PUSH1 0x1 PUSH1 0x1 PUSH1 0xA0 SHL SUB DUP14 DUP2 AND DUP6 MSTORE PUSH1 0x2 DUP3 MSTORE SWAP5 SWAP1 SWAP4 KECCAK256 DUP6 MLOAD DUP2 SLOAD PUSH1 0x1 PUSH1 0x1 PUSH1 0xA0 SHL SUB NOT AND SWAP6 AND SWAP5 SWAP1 SWAP5 OR DUP5 SSTORE SWAP2 DUP5 ADD MLOAD SWAP2 DUP4 ADD SWAP2 PUSH2 0x104A SWAP2 POP DUP3 PUSH2 0x2E63 JUMP JUMPDEST POP PUSH1 0x40 DUP3 ADD MLOAD PUSH1 0x2 DUP3 ADD DUP1 SLOAD PUSH1 0x60 DUP6 ADD MLOAD ISZERO ISZERO PUSH1 0x1 PUSH1 0xA0 SHL MUL PUSH1 0x1 PUSH1 0x1 PUSH1 0xA8 SHL SUB NOT SWAP1 SWAP2 AND PUSH1 0x1 PUSH1 0x1 PUSH1 0xA0 SHL SUB SWAP1 SWAP4 AND SWAP3 SWAP1 SWAP3 OR SWAP2 SWAP1 SWAP2 OR SWAP1 SSTORE PUSH1 0x80 DUP3 ADD MLOAD PUSH1 0x3 DUP3 ADD SWAP1 PUSH2 0x1098 SWAP1 DUP3 PUSH2 0x2E63 JUMP JUMPDEST POP PUSH1 0xA0 DUP3 ADD MLOAD PUSH1 0x4 DUP3 ADD SWAP1 PUSH2 0x10AD SWAP1 DUP3 PUSH2 0x2E63 JUMP JUMPDEST POP PUSH1 0xC0 DUP3 ADD MLOAD PUSH1 0x5 DUP3 ADD DUP1 SLOAD PUSH1 0xFF NOT AND SWAP2 ISZERO ISZERO SWAP2 SWAP1 SWAP2 OR SWAP1 SSTORE PUSH1 0xE0 DUP3 ADD MLOAD DUP1 MLOAD PUSH2 0x10E1 SWAP2 PUSH1 0x6 DUP5 ADD SWAP2 PUSH1 0x20 SWAP1 SWAP2 ADD SWAP1 PUSH2 0x27E3 JUMP JUMPDEST POP POP CALLER PUSH1 0x0 DUP2 DUP2 MSTORE PUSH1 0x20 DUP2 DUP2 MSTORE PUSH1 0x40 DUP1 DUP4 KECCAK256 PUSH1 0x9 ADD DUP1 SLOAD PUSH1 0x1 DUP2 ADD DUP3 SSTORE SWAP1 DUP5 MSTORE SWAP2 SWAP1 SWAP3 KECCAK256 ADD DUP1 SLOAD PUSH1 0x1 PUSH1 0x1 PUSH1 0xA0 SHL SUB NOT AND PUSH1 0x1 PUSH1 0x1 PUSH1 0xA0 SHL SUB DUP13 AND SWAP1 DUP2 OR SWAP1 SWAP2 SSTORE SWAP1 MLOAD SWAP2 SWAP3 POP SWAP1 PUSH32 0x3585389649C4946DEB9F3D591291E9A7058ADDCB51D91B4CAD87E5810FD8909B SWAP1 PUSH2 0x1157 SWAP1 DUP11 SWAP1 DUP11 SWAP1 PUSH2 0x2FBC JUMP JUMPDEST PUSH1 0x40 MLOAD DUP1 SWAP2 SUB SWAP1 LOG3 POP POP POP POP POP POP POP JUMP JUMPDEST PUSH1 0x1 PUSH1 0x1 PUSH1 0xA0 SHL SUB DUP1 DUP4 AND PUSH1 0x0 SWAP1 DUP2 MSTORE PUSH1 0x4 PUSH1 0x20 SWAP1 DUP2 MSTORE PUSH1 0x40 DUP1 DUP4 KECCAK256 SWAP4 DUP6 AND DUP4 MSTORE PUSH1 0x6 SWAP1 SWAP4 ADD SWAP1 MSTORE KECCAK256 SLOAD PUSH1 0xFF AND JUMPDEST SWAP3 SWAP2 POP POP JUMP JUMPDEST PUSH1 0x1 PUSH1 0x1 PUSH1 0xA0 SHL SUB DUP3 AND PUSH1 0x0 SWAP1 DUP2 MSTORE PUSH1 0x1 PUSH1 0x20 SWAP1 DUP2 MSTORE PUSH1 0x40 DUP1 DUP4 KECCAK256 CALLER DUP5 MSTORE SWAP1 SWAP2 MSTORE SWAP1 KECCAK256 SLOAD DUP3 SWAP1 PUSH3 0x10000 SWAP1 DIV PUSH1 0xFF AND PUSH2 0x11E7 JUMPI PUSH1 0x40 MLOAD PUSH3 0x461BCD PUSH1 0xE5 SHL DUP2 MSTORE PUSH1 0x4 ADD PUSH2 0x452 SWAP1 PUSH2 0x2FD8 JUMP JUMPDEST PUSH1 0x1 PUSH1 0x1 PUSH1 0xA0 SHL SUB DUP2 AND PUSH1 0x0 SWAP1 DUP2 MSTORE PUSH1 0x1 PUSH1 0x20 SWAP1 DUP2 MSTORE PUSH1 0x40 DUP1 DUP4 KECCAK256 CALLER DUP5 MSTORE SWAP1 SWAP2 MSTORE SWAP1 KECCAK256 SLOAD PUSH2 0x100 SWAP1 DIV PUSH1 0xFF AND PUSH2 0x1256 JUMPI PUSH1 0x40 MLOAD PUSH3 0x461BCD PUSH1 0xE5 SHL DUP2 MSTORE PUSH1 0x20 PUSH1 0x4 DUP3 ADD MSTORE PUSH1 0x14 PUSH1 0x24 DUP3 ADD MSTORE PUSH20 0x10DBDB9D1858DD081B9BDD081D995C9A599A5959 PUSH1 0x62 SHL PUSH1 0x44 DUP3 ADD MSTORE PUSH1 0x64 ADD PUSH2 0x452 JUMP JUMPDEST PUSH1 0x1 PUSH1 0x1 PUSH1 0xA0 SHL SUB DUP2 AND PUSH1 0x0 SWAP1 DUP2 MSTORE PUSH1 0x1 PUSH1 0x20 SWAP1 DUP2 MSTORE PUSH1 0x40 DUP1 DUP4 KECCAK256 CALLER DUP5 MSTORE SWAP1 SWAP2 MSTORE SWAP1 KECCAK256 SLOAD PUSH1 0xFF AND PUSH2 0x12BC JUMPI PUSH1 0x40 MLOAD PUSH3 0x461BCD PUSH1 0xE5 SHL DUP2 MSTORE PUSH1 0x20 PUSH1 0x4 DUP3 ADD MSTORE PUSH1 0x10 PUSH1 0x24 DUP3 ADD MSTORE PUSH16 0x4E6F20766F74696E6720726967687473 PUSH1 0x80 SHL PUSH1 0x44 DUP3 ADD MSTORE PUSH1 0x64 ADD PUSH2 0x452 JUMP JUMPDEST PUSH1 0x1 PUSH1 0x1 PUSH1 0xA0 SHL SUB DUP4 AND PUSH1 0x0 SWAP1 DUP2 MSTORE PUSH1 0x4 PUSH1 0x20 MSTORE PUSH1 0x40 SWAP1 KECCAK256 PUSH1 0x5 ADD SLOAD PUSH1 0xFF AND PUSH2 0x1327 JUMPI PUSH1 0x40 MLOAD PUSH3 0x461BCD PUSH1 0xE5 SHL DUP2 MSTORE PUSH1 0x20 PUSH1 0x4 DUP3 ADD MSTORE PUSH1 0x1B PUSH1 0x24 DUP3 ADD MSTORE PUSH32 0x4E6F20616374697665206465617468206465636C61726174696F6E0000000000 PUSH1 0x44 DUP3 ADD MSTORE PUSH1 0x64 ADD PUSH2 0x452 JUMP JUMPDEST PUSH1 0x1 PUSH1 0x1 PUSH1 0xA0 SHL SUB DUP4 AND PUSH1 0x0 SWAP1 DUP2 MSTORE PUSH1 0x4 PUSH1 0x20 SWAP1 DUP2 MSTORE PUSH1 0x40 DUP1 DUP4 KECCAK256 CALLER DUP5 MSTORE PUSH1 0x6 ADD SWAP1 SWAP2 MSTORE SWAP1 KECCAK256 SLOAD PUSH1 0xFF AND ISZERO PUSH2 0x138E JUMPI PUSH1 0x40 MLOAD PUSH3 0x461BCD PUSH1 0xE5 SHL DUP2 MSTORE PUSH1 0x20 PUSH1 0x4 DUP3 ADD MSTORE PUSH1 0xD PUSH1 0x24 DUP3 ADD MSTORE PUSH13 0x105B1C9958591E481D9BDD1959 PUSH1 0x9A SHL PUSH1 0x44 DUP3 ADD MSTORE PUSH1 0x64 ADD PUSH2 0x452 JUMP JUMPDEST PUSH1 0x1 PUSH1 0x1 PUSH1 0xA0 SHL SUB DUP4 AND PUSH1 0x0 SWAP1 DUP2 MSTORE PUSH1 0x4 PUSH1 0x20 SWAP1 DUP2 MSTORE PUSH1 0x40 DUP1 DUP4 KECCAK256 CALLER DUP5 MSTORE PUSH1 0x6 DUP2 ADD DUP4 MSTORE DUP2 DUP5 KECCAK256 DUP1 SLOAD PUSH1 0xFF NOT SWAP1 DUP2 AND PUSH1 0x1 OR SWAP1 SWAP2 SSTORE PUSH1 0x7 DUP3 ADD SWAP1 SWAP4 MSTORE SWAP3 KECCAK256 DUP1 SLOAD DUP6 ISZERO DUP1 ISZERO SWAP2 SWAP1 SWAP4 AND OR SWAP1 SSTORE PUSH2 0x13F9 JUMPI PUSH1 0x2 DUP2 ADD DUP1 SLOAD SWAP1 PUSH1 0x0 PUSH2 0x13EF DUP4 PUSH2 0x3025 JUMP JUMPDEST SWAP2 SWAP1 POP SSTORE POP PUSH2 0x1411 JUMP JUMPDEST PUSH1 0x3 DUP2 ADD DUP1 SLOAD SWAP1 PUSH1 0x0 PUSH2 0x140B DUP4 PUSH2 0x3025 JUMP JUMPDEST SWAP2 SWAP1 POP SSTORE POP JUMPDEST PUSH1 0x40 MLOAD DUP4 ISZERO ISZERO DUP2 MSTORE CALLER SWAP1 PUSH1 0x1 PUSH1 0x1 PUSH1 0xA0 SHL SUB DUP7 AND SWAP1 PUSH32 0xCC194F214DF029FE546C9959EE15D79D8633742AAB6C02A862E337F8ACE3D550 SWAP1 PUSH1 0x20 ADD JUMPDEST PUSH1 0x40 MLOAD DUP1 SWAP2 SUB SWAP1 LOG3 PUSH2 0x145D DUP5 PUSH2 0x2622 JUMP JUMPDEST POP POP POP POP JUMP JUMPDEST PUSH1 0x1 PUSH1 0x1 PUSH1 0xA0 SHL SUB DUP1 DUP4 AND PUSH1 0x0 SWAP1 DUP2 MSTORE PUSH1 0x4 PUSH1 0x20 SWAP1 DUP2 MSTORE PUSH1 0x40 DUP1 DUP4 KECCAK256 SWAP4 DUP6 AND DUP4 MSTORE PUSH1 0x6 SWAP1 SWAP4 ADD SWAP1 MSTORE SWAP1 DUP2 KECCAK256 SLOAD PUSH1 0xFF AND PUSH2 0x14D4 JUMPI PUSH1 0x40 MLOAD PUSH3 0x461BCD PUSH1 0xE5 SHL DUP2 MSTORE PUSH1 0x20 PUSH1 0x4 DUP3 ADD MSTORE PUSH1 0x13 PUSH1 0x24 DUP3 ADD MSTORE PUSH19 0x159BDD195C881A185CC81B9BDD081D9BDD1959 PUSH1 0x6A SHL PUSH1 0x44 DUP3 ADD MSTORE PUSH1 0x64 ADD PUSH2 0x452 JUMP JUMPDEST POP PUSH1 0x1 PUSH1 0x1 PUSH1 0xA0 SHL SUB SWAP2 DUP3 AND PUSH1 0x0 SWAP1 DUP2 MSTORE PUSH1 0x4 PUSH1 0x20 SWAP1 DUP2 MSTORE PUSH1 0x40 DUP1 DUP4 KECCAK256 SWAP4 SWAP1 SWAP5 AND DUP3 MSTORE PUSH1 0x7 SWAP1 SWAP3 ADD SWAP1 SWAP2 MSTORE KECCAK256 SLOAD PUSH1 0xFF AND SWAP1 JUMP JUMPDEST PUSH1 0x0 PUSH2 0x1513 DUP4 DUP4 PUSH2 0x275C JUMP JUMPDEST SWAP4 SWAP3 POP POP POP JUMP JUMPDEST PUSH1 0x1 PUSH1 0x1 PUSH1 0xA0 SHL SUB DUP2 AND PUSH1 0x0 SWAP1 DUP2 MSTORE PUSH1 0x1 PUSH1 0x20 SWAP1 DUP2 MSTORE PUSH1 0x40 DUP1 DUP4 KECCAK256 CALLER DUP5 MSTORE SWAP1 SWAP2 MSTORE SWAP1 KECCAK256 SLOAD DUP2 SWAP1 PUSH3 0x10000 SWAP1 DIV PUSH1 0xFF AND PUSH2 0x1565 JUMPI PUSH1 0x40 MLOAD PUSH3 0x461BCD PUSH1 0xE5 SHL DUP2 MSTORE PUSH1 0x4 ADD PUSH2 0x452 SWAP1 PUSH2 0x2FD8 JUMP JUMPDEST PUSH1 0x1 PUSH1 0x1 PUSH1 0xA0 SHL SUB DUP3 AND PUSH1 0x0 SWAP1 DUP2 MSTORE PUSH1 0x1 PUSH1 0x20 SWAP1 DUP2 MSTORE PUSH1 0x40 DUP1 DUP4 KECCAK256 CALLER DUP5 MSTORE SWAP1 SWAP2 MSTORE SWAP1 KECCAK256 SLOAD PUSH2 0x100 SWAP1 DIV PUSH1 0xFF AND ISZERO PUSH2 0x15D1 JUMPI PUSH1 0x40 MLOAD PUSH3 0x461BCD PUSH1 0xE5 SHL DUP2 MSTORE PUSH1 0x20 PUSH1 0x4 DUP3 ADD MSTORE PUSH1 0x10 PUSH1 0x24 DUP3 ADD MSTORE PUSH16 0x105B1C9958591E481D995C9A599A5959 PUSH1 0x82 SHL PUSH1 0x44 DUP3 ADD MSTORE PUSH1 0x64 ADD PUSH2 0x452 JUMP JUMPDEST PUSH1 0x1 PUSH1 0x1 PUSH1 0xA0 SHL SUB DUP3 AND PUSH1 0x0 DUP2 DUP2 MSTORE PUSH1 0x1 PUSH1 0x20 SWAP1 DUP2 MSTORE PUSH1 0x40 DUP1 DUP4 KECCAK256 CALLER DUP1 DUP6 MSTORE SWAP3 MSTORE DUP1 DUP4 KECCAK256 DUP1 SLOAD PUSH2 0xFF00 NOT AND PUSH2 0x100 OR SWAP1 SSTORE MLOAD SWAP1 SWAP3 SWAP2 PUSH32 0x33C6B9962C16A3768D4F15C8F694B088FD57A39499A9B9F7E59243C371A2207A SWAP2 LOG3 POP POP JUMP JUMPDEST PUSH1 0x1 PUSH1 0x1 PUSH1 0xA0 SHL SUB DUP1 DUP3 AND PUSH1 0x0 SWAP1 DUP2 MSTORE PUSH1 0x2 PUSH1 0x20 DUP2 SWAP1 MSTORE PUSH1 0x40 DUP3 KECCAK256 SWAP1 DUP2 ADD SLOAD PUSH1 0x5 DUP3 ADD SLOAD PUSH1 0x1 DUP4 ADD DUP1 SLOAD PUSH1 0x60 SWAP7 DUP7 SWAP6 DUP9 SWAP6 DUP7 SWAP6 DUP9 SWAP6 SWAP3 SWAP5 SWAP3 SWAP4 DUP3 AND SWAP3 PUSH1 0xFF PUSH1 0x1 PUSH1 0xA0 SHL SWAP1 SWAP4 DIV DUP4 AND SWAP3 PUSH1 0x3 DUP8 ADD SWAP3 PUSH1 0x4 DUP9 ADD SWAP3 SWAP2 AND SWAP1 DUP7 SWAP1 PUSH2 0x168E SWAP1 PUSH2 0x2DDB JUMP JUMPDEST DUP1 PUSH1 0x1F ADD PUSH1 0x20 DUP1 SWAP2 DIV MUL PUSH1 0x20 ADD PUSH1 0x40 MLOAD SWAP1 DUP2 ADD PUSH1 0x40 MSTORE DUP1 SWAP3 SWAP2 SWAP1 DUP2 DUP2 MSTORE PUSH1 0x20 ADD DUP3 DUP1 SLOAD PUSH2 0x16BA SWAP1 PUSH2 0x2DDB JUMP JUMPDEST DUP1 ISZERO PUSH2 0x1707 JUMPI DUP1 PUSH1 0x1F LT PUSH2 0x16DC JUMPI PUSH2 0x100 DUP1 DUP4 SLOAD DIV MUL DUP4 MSTORE SWAP2 PUSH1 0x20 ADD SWAP2 PUSH2 0x1707 JUMP JUMPDEST DUP3 ADD SWAP2 SWAP1 PUSH1 0x0 MSTORE PUSH1 0x20 PUSH1 0x0 KECCAK256 SWAP1 JUMPDEST DUP2 SLOAD DUP2 MSTORE SWAP1 PUSH1 0x1 ADD SWAP1 PUSH1 0x20 ADD DUP1 DUP4 GT PUSH2 0x16EA JUMPI DUP3 SWAP1 SUB PUSH1 0x1F AND DUP3 ADD SWAP2 JUMPDEST POP POP POP POP POP SWAP6 POP DUP3 DUP1 SLOAD PUSH2 0x171A SWAP1 PUSH2 0x2DDB JUMP JUMPDEST DUP1 PUSH1 0x1F ADD PUSH1 0x20 DUP1 SWAP2 DIV MUL PUSH1 0x20 ADD PUSH1 0x40 MLOAD SWAP1 DUP2 ADD PUSH1 0x40 MSTORE DUP1 SWAP3 SWAP2 SWAP1 DUP2 DUP2 MSTORE PUSH1 0x20 ADD DUP3 DUP1 SLOAD PUSH2 0x1746 SWAP1 PUSH2 0x2DDB JUMP JUMPDEST DUP1 ISZERO PUSH2 0x1793 JUMPI DUP1 PUSH1 0x1F LT PUSH2 0x1768 JUMPI PUSH2 0x100 DUP1 DUP4 SLOAD DIV MUL DUP4 MSTORE SWAP2 PUSH1 0x20 ADD SWAP2 PUSH2 0x1793 JUMP JUMPDEST DUP3 ADD SWAP2 SWAP1 PUSH1 0x0 MSTORE PUSH1 0x20 PUSH1 0x0 KECCAK256 SWAP1 JUMPDEST DUP2 SLOAD DUP2 MSTORE SWAP1 PUSH1 0x1 ADD SWAP1 PUSH1 0x20 ADD DUP1 DUP4 GT PUSH2 0x1776 JUMPI DUP3 SWAP1 SUB PUSH1 0x1F AND DUP3 ADD SWAP2 JUMPDEST POP POP POP POP POP SWAP3 POP DUP2 DUP1 SLOAD PUSH2 0x17A6 SWAP1 PUSH2 0x2DDB JUMP JUMPDEST DUP1 PUSH1 0x1F ADD PUSH1 0x20 DUP1 SWAP2 DIV MUL PUSH1 0x20 ADD PUSH1 0x40 MLOAD SWAP1 DUP2 ADD PUSH1 0x40 MSTORE DUP1 SWAP3 SWAP2 SWAP1 DUP2 DUP2 MSTORE PUSH1 0x20 ADD DUP3 DUP1 SLOAD PUSH2 0x17D2 SWAP1 PUSH2 0x2DDB JUMP JUMPDEST DUP1 ISZERO PUSH2 0x181F JUMPI DUP1 PUSH1 0x1F LT PUSH2 0x17F4 JUMPI PUSH2 0x100 DUP1 DUP4 SLOAD DIV MUL DUP4 MSTORE SWAP2 PUSH1 0x20 ADD SWAP2 PUSH2 0x181F JUMP JUMPDEST DUP3 ADD SWAP2 SWAP1 PUSH1 0x0 MSTORE PUSH1 0x20 PUSH1 0x0 KECCAK256 SWAP1 JUMPDEST DUP2 SLOAD DUP2 MSTORE SWAP1 PUSH1 0x1 ADD SWAP1 PUSH1 0x20 ADD DUP1 DUP4 GT PUSH2 0x1802 JUMPI DUP3 SWAP1 SUB PUSH1 0x1F AND DUP3 ADD SWAP2 JUMPDEST POP POP POP POP POP SWAP2 POP SWAP7 POP SWAP7 POP SWAP7 POP SWAP7 POP SWAP7 POP SWAP7 POP POP SWAP2 SWAP4 SWAP6 POP SWAP2 SWAP4 SWAP6 JUMP JUMPDEST PUSH1 0x1 PUSH1 0x1 PUSH1 0xA0 SHL SUB DUP12 AND PUSH1 0x0 SWAP1 DUP2 MSTORE PUSH1 0x2 PUSH1 0x20 MSTORE PUSH1 0x40 SWAP1 KECCAK256 PUSH1 0x5 ADD SLOAD DUP12 SWAP1 PUSH1 0xFF AND PUSH2 0x1879 JUMPI PUSH1 0x40 MLOAD PUSH3 0x461BCD PUSH1 0xE5 SHL DUP2 MSTORE PUSH1 0x4 ADD PUSH2 0x452 SWAP1 PUSH2 0x303E JUMP JUMPDEST PUSH1 0x1 PUSH1 0x1 PUSH1 0xA0 SHL SUB DUP2 DUP2 AND PUSH1 0x0 SWAP1 DUP2 MSTORE PUSH1 0x2 PUSH1 0x20 DUP2 SWAP1 MSTORE PUSH1 0x40 SWAP1 SWAP2 KECCAK256 ADD SLOAD AND CALLER EQ PUSH2 0x18D8 JUMPI PUSH1 0x40 MLOAD PUSH3 0x461BCD PUSH1 0xE5 SHL DUP2 MSTORE PUSH1 0x20 PUSH1 0x4 DUP3 ADD MSTORE PUSH1 0xF PUSH1 0x24 DUP3 ADD MSTORE PUSH15 0x2737BA103B30BAB63A1037BBB732B9 PUSH1 0x89 SHL PUSH1 0x44 DUP3 ADD MSTORE PUSH1 0x64 ADD PUSH2 0x452 JUMP JUMPDEST PUSH1 0x1 PUSH1 0x1 PUSH1 0xA0 SHL SUB DUP13 AND PUSH1 0x0 SWAP1 DUP2 MSTORE PUSH1 0x3 PUSH1 0x20 MSTORE PUSH1 0x40 SWAP1 DUP2 SWAP1 KECCAK256 SWAP1 MLOAD PUSH2 0x1901 SWAP1 DUP14 SWAP1 DUP14 SWAP1 PUSH2 0x2FAC JUMP JUMPDEST SWAP1 DUP2 MSTORE PUSH1 0x40 MLOAD SWAP1 DUP2 SWAP1 SUB PUSH1 0x20 ADD SWAP1 KECCAK256 PUSH1 0x5 ADD SLOAD PUSH1 0xFF AND ISZERO PUSH2 0x195A JUMPI PUSH1 0x40 MLOAD PUSH3 0x461BCD PUSH1 0xE5 SHL DUP2 MSTORE PUSH1 0x20 PUSH1 0x4 DUP3 ADD MSTORE PUSH1 0x13 PUSH1 0x24 DUP3 ADD MSTORE PUSH19 0x46696C6520616C726561647920657869737473 PUSH1 0x68 SHL PUSH1 0x44 DUP3 ADD MSTORE PUSH1 0x64 ADD PUSH2 0x452 JUMP JUMPDEST PUSH1 0x40 MLOAD DUP1 PUSH1 0xC0 ADD PUSH1 0x40 MSTORE DUP1 DUP13 DUP13 DUP1 DUP1 PUSH1 0x1F ADD PUSH1 0x20 DUP1 SWAP2 DIV MUL PUSH1 0x20 ADD PUSH1 0x40 MLOAD SWAP1 DUP2 ADD PUSH1 0x40 MSTORE DUP1 SWAP4 SWAP3 SWAP2 SWAP1 DUP2 DUP2 MSTORE PUSH1 0x20 ADD DUP4 DUP4 DUP1 DUP3 DUP5 CALLDATACOPY PUSH1 0x0 SWAP3 ADD SWAP2 SWAP1 SWAP2 MSTORE POP POP POP SWAP1 DUP3 MSTORE POP PUSH1 0x40 DUP1 MLOAD PUSH1 0x20 PUSH1 0x1F DUP14 ADD DUP2 SWAP1 DIV DUP2 MUL DUP3 ADD DUP2 ADD SWAP1 SWAP3 MSTORE DUP12 DUP2 MSTORE SWAP2 DUP2 ADD SWAP2 SWAP1 DUP13 SWAP1 DUP13 SWAP1 DUP2 SWAP1 DUP5 ADD DUP4 DUP3 DUP1 DUP3 DUP5 CALLDATACOPY PUSH1 0x0 SWAP3 ADD SWAP2 SWAP1 SWAP2 MSTORE POP POP POP SWAP1 DUP3 MSTORE POP PUSH1 0x40 DUP1 MLOAD PUSH1 0x20 PUSH1 0x1F DUP12 ADD DUP2 SWAP1 DIV DUP2 MUL DUP3 ADD DUP2 ADD SWAP1 SWAP3 MSTORE DUP10 DUP2 MSTORE SWAP2 DUP2 ADD SWAP2 SWAP1 DUP11 SWAP1 DUP11 SWAP1 DUP2 SWAP1 DUP5 ADD DUP4 DUP3 DUP1 DUP3 DUP5 CALLDATACOPY PUSH1 0x0 SWAP3 ADD SWAP2 SWAP1 SWAP2 MSTORE POP POP POP SWAP1 DUP3 MSTORE POP PUSH1 0x40 DUP1 MLOAD PUSH1 0x20 PUSH1 0x1F DUP10 ADD DUP2 SWAP1 DIV DUP2 MUL DUP3 ADD DUP2 ADD SWAP1 SWAP3 MSTORE DUP8 DUP2 MSTORE SWAP2 DUP2 ADD SWAP2 SWAP1 DUP9 SWAP1 DUP9 SWAP1 DUP2 SWAP1 DUP5 ADD DUP4 DUP3 DUP1 DUP3 DUP5 CALLDATACOPY PUSH1 0x0 SWAP3 ADD SWAP2 SWAP1 SWAP2 MSTORE POP POP POP SWAP1 DUP3 MSTORE POP PUSH1 0x40 DUP1 MLOAD PUSH1 0x20 PUSH1 0x1F DUP8 ADD DUP2 SWAP1 DIV DUP2 MUL DUP3 ADD DUP2 ADD SWAP1 SWAP3 MSTORE DUP6 DUP2 MSTORE SWAP2 DUP2 ADD SWAP2 SWAP1 DUP7 SWAP1 DUP7 SWAP1 DUP2 SWAP1 DUP5 ADD DUP4 DUP3 DUP1 DUP3 DUP5 CALLDATACOPY PUSH1 0x0 SWAP3 ADD DUP3 SWAP1 MSTORE POP SWAP4 DUP6 MSTORE POP POP PUSH1 0x1 PUSH1 0x20 SWAP4 DUP5 ADD MSTORE POP PUSH1 0x1 PUSH1 0x1 PUSH1 0xA0 SHL SUB DUP16 AND DUP2 MSTORE PUSH1 0x3 SWAP1 SWAP2 MSTORE PUSH1 0x40 SWAP1 DUP2 SWAP1 KECCAK256 SWAP1 MLOAD PUSH2 0x1AB7 SWAP1 DUP15 SWAP1 DUP15 SWAP1 PUSH2 0x2FAC JUMP JUMPDEST SWAP1 DUP2 MSTORE PUSH1 0x40 MLOAD SWAP1 DUP2 SWAP1 SUB PUSH1 0x20 ADD SWAP1 KECCAK256 DUP2 MLOAD DUP2 SWAP1 PUSH2 0x1AD4 SWAP1 DUP3 PUSH2 0x2E63 JUMP JUMPDEST POP PUSH1 0x20 DUP3 ADD MLOAD PUSH1 0x1 DUP3 ADD SWAP1 PUSH2 0x1AE9 SWAP1 DUP3 PUSH2 0x2E63 JUMP JUMPDEST POP PUSH1 0x40 DUP3 ADD MLOAD PUSH1 0x2 DUP3 ADD SWAP1 PUSH2 0x1AFE SWAP1 DUP3 PUSH2 0x2E63 JUMP JUMPDEST POP PUSH1 0x60 DUP3 ADD MLOAD PUSH1 0x3 DUP3 ADD SWAP1 PUSH2 0x1B13 SWAP1 DUP3 PUSH2 0x2E63 JUMP JUMPDEST POP PUSH1 0x80 DUP3 ADD MLOAD PUSH1 0x4 DUP3 ADD SWAP1 PUSH2 0x1B28 SWAP1 DUP3 PUSH2 0x2E63 JUMP JUMPDEST POP PUSH1 0xA0 SWAP2 SWAP1 SWAP2 ADD MLOAD PUSH1 0x5 SWAP1 SWAP2 ADD DUP1 SLOAD PUSH1 0xFF NOT AND SWAP2 ISZERO ISZERO SWAP2 SWAP1 SWAP2 OR SWAP1 SSTORE PUSH1 0x40 MLOAD PUSH1 0x1 PUSH1 0x1 PUSH1 0xA0 SHL SUB DUP14 AND SWAP1 PUSH32 0x7DFA9FB9245065329F41ABA6FC668605EBF258DA04E53B4425A1F130AD9B41CD SWAP1 PUSH2 0x1B85 SWAP1 DUP15 SWAP1 DUP15 SWAP1 DUP15 SWAP1 DUP15 SWAP1 PUSH2 0x2F4C JUMP JUMPDEST PUSH1 0x40 MLOAD DUP1 SWAP2 SUB SWAP1 LOG2 POP POP POP POP POP POP POP POP POP POP POP POP JUMP JUMPDEST PUSH1 0x1 PUSH1 0x1 PUSH1 0xA0 SHL SUB DUP2 AND PUSH1 0x0 SWAP1 DUP2 MSTORE PUSH1 0x1 PUSH1 0x20 SWAP1 DUP2 MSTORE PUSH1 0x40 DUP1 DUP4 KECCAK256 CALLER DUP5 MSTORE SWAP1 SWAP2 MSTORE SWAP1 KECCAK256 SLOAD DUP2 SWAP1 PUSH3 0x10000 SWAP1 DIV PUSH1 0xFF AND PUSH2 0x1BE6 JUMPI PUSH1 0x40 MLOAD PUSH3 0x461BCD PUSH1 0xE5 SHL DUP2 MSTORE PUSH1 0x4 ADD PUSH2 0x452 SWAP1 PUSH2 0x2FD8 JUMP JUMPDEST PUSH1 0x1 PUSH1 0x1 PUSH1 0xA0 SHL SUB DUP2 AND PUSH1 0x0 SWAP1 DUP2 MSTORE PUSH1 0x1 PUSH1 0x20 SWAP1 DUP2 MSTORE PUSH1 0x40 DUP1 DUP4 KECCAK256 CALLER DUP5 MSTORE SWAP1 SWAP2 MSTORE SWAP1 KECCAK256 SLOAD PUSH2 0x100 SWAP1 DIV PUSH1 0xFF AND PUSH2 0x1C55 JUMPI PUSH1 0x40 MLOAD PUSH3 0x461BCD PUSH1 0xE5 SHL DUP2 MSTORE PUSH1 0x20 PUSH1 0x4 DUP3 ADD MSTORE PUSH1 0x14 PUSH1 0x24 DUP3 ADD MSTORE PUSH20 0x10DBDB9D1858DD081B9BDD081D995C9A599A5959 PUSH1 0x62 SHL PUSH1 0x44 DUP3 ADD MSTORE PUSH1 0x64 ADD PUSH2 0x452 JUMP JUMPDEST PUSH1 0x1 PUSH1 0x1 PUSH1 0xA0 SHL SUB DUP2 AND PUSH1 0x0 SWAP1 DUP2 MSTORE PUSH1 0x1 PUSH1 0x20 SWAP1 DUP2 MSTORE PUSH1 0x40 DUP1 DUP4 KECCAK256 CALLER DUP5 MSTORE SWAP1 SWAP2 MSTORE SWAP1 KECCAK256 SLOAD PUSH1 0xFF AND PUSH2 0x1CBB JUMPI PUSH1 0x40 MLOAD PUSH3 0x461BCD PUSH1 0xE5 SHL DUP2 MSTORE PUSH1 0x20 PUSH1 0x4 DUP3 ADD MSTORE PUSH1 0x10 PUSH1 0x24 DUP3 ADD MSTORE PUSH16 0x4E6F20766F74696E6720726967687473 PUSH1 0x80 SHL PUSH1 0x44 DUP3 ADD MSTORE PUSH1 0x64 ADD PUSH2 0x452 JUMP JUMPDEST PUSH1 0x1 PUSH1 0x1 PUSH1 0xA0 SHL SUB DUP3 AND PUSH1 0x0 SWAP1 DUP2 MSTORE PUSH1 0x20 DUP2 SWAP1 MSTORE PUSH1 0x40 SWAP1 KECCAK256 PUSH1 0x7 ADD SLOAD PUSH2 0x100 SWAP1 DIV PUSH1 0xFF AND PUSH2 0x1CFB JUMPI PUSH1 0x40 MLOAD PUSH3 0x461BCD PUSH1 0xE5 SHL DUP2 MSTORE PUSH1 0x4 ADD PUSH2 0x452 SWAP1 PUSH2 0x2F7E JUMP JUMPDEST PUSH1 0x1 PUSH1 0x1 PUSH1 0xA0 SHL SUB DUP3 AND PUSH1 0x0 SWAP1 DUP2 MSTORE PUSH1 0x20 DUP2 SWAP1 MSTORE PUSH1 0x40 SWAP1 KECCAK256 PUSH1 0x7 ADD SLOAD PUSH1 0xFF AND ISZERO PUSH2 0x1D60 JUMPI PUSH1 0x40 MLOAD PUSH3 0x461BCD PUSH1 0xE5 SHL DUP2 MSTORE PUSH1 0x20 PUSH1 0x4 DUP3 ADD MSTORE PUSH1 0x16 PUSH1 0x24 DUP3 ADD MSTORE PUSH22 0x13DDDB995C88185B1C9958591E48191958D9585CD959 PUSH1 0x52 SHL PUSH1 0x44 DUP3 ADD MSTORE PUSH1 0x64 ADD PUSH2 0x452 JUMP JUMPDEST PUSH1 0x1 PUSH1 0x1 PUSH1 0xA0 SHL SUB DUP3 AND PUSH1 0x0 SWAP1 DUP2 MSTORE PUSH1 0x4 PUSH1 0x20 MSTORE PUSH1 0x40 SWAP1 KECCAK256 PUSH1 0x5 ADD SLOAD PUSH1 0xFF AND ISZERO PUSH2 0x1DCC JUMPI PUSH1 0x40 MLOAD PUSH3 0x461BCD PUSH1 0xE5 SHL DUP2 MSTORE PUSH1 0x20 PUSH1 0x4 DUP3 ADD DUP2 SWAP1 MSTORE PUSH1 0x24 DUP3 ADD MSTORE PUSH32 0x4465617468206465636C61726174696F6E20616C726561647920616374697665 PUSH1 0x44 DUP3 ADD MSTORE PUSH1 0x64 ADD PUSH2 0x452 JUMP JUMPDEST PUSH1 0x0 DUP1 JUMPDEST PUSH1 0x1 PUSH1 0x1 PUSH1 0xA0 SHL SUB DUP5 AND PUSH1 0x0 SWAP1 DUP2 MSTORE PUSH1 0x20 DUP2 SWAP1 MSTORE PUSH1 0x40 SWAP1 KECCAK256 PUSH1 0x8 ADD SLOAD DUP2 LT ISZERO PUSH2 0x1EB4 JUMPI PUSH1 0x1 PUSH1 0x1 PUSH1 0xA0 SHL SUB DUP5 AND PUSH1 0x0 SWAP1 DUP2 MSTORE PUSH1 0x20 DUP2 SWAP1 MSTORE PUSH1 0x40 DUP2 KECCAK256 PUSH1 0x8 ADD DUP1 SLOAD DUP4 SWAP1 DUP2 LT PUSH2 0x1E20 JUMPI PUSH2 0x1E20 PUSH2 0x306C JUMP JUMPDEST PUSH1 0x0 SWAP2 DUP3 MSTORE PUSH1 0x20 DUP1 DUP4 KECCAK256 SWAP1 SWAP2 ADD SLOAD PUSH1 0x1 PUSH1 0x1 PUSH1 0xA0 SHL SUB DUP9 DUP2 AND DUP5 MSTORE PUSH1 0x1 DUP4 MSTORE PUSH1 0x40 DUP1 DUP6 KECCAK256 SWAP2 SWAP1 SWAP3 AND DUP1 DUP6 MSTORE SWAP3 MSTORE SWAP1 SWAP2 KECCAK256 SLOAD SWAP1 SWAP2 POP PUSH1 0xFF PUSH2 0x100 SWAP1 SWAP2 DIV AND DUP1 ISZERO PUSH2 0x1E8E JUMPI POP PUSH1 0x1 PUSH1 0x1 PUSH1 0xA0 SHL SUB DUP1 DUP7 AND PUSH1 0x0 SWAP1 DUP2 MSTORE PUSH1 0x1 PUSH1 0x20 SWAP1 DUP2 MSTORE PUSH1 0x40 DUP1 DUP4 KECCAK256 SWAP4 DUP6 AND DUP4 MSTORE SWAP3 SWAP1 MSTORE KECCAK256 SLOAD PUSH1 0xFF AND JUMPDEST ISZERO PUSH2 0x1EA1 JUMPI DUP3 PUSH2 0x1E9D DUP2 PUSH2 0x3025 JUMP JUMPDEST SWAP4 POP POP JUMPDEST POP DUP1 PUSH2 0x1EAC DUP2 PUSH2 0x3025 JUMP JUMPDEST SWAP2 POP POP PUSH2 0x1DD0 JUMP JUMPDEST POP PUSH1 0x0 DUP2 GT PUSH2 0x1F05 JUMPI PUSH1 0x40 MLOAD PUSH3 0x461BCD PUSH1 0xE5 SHL DUP2 MSTORE PUSH1 0x20 PUSH1 0x4 DUP3 ADD MSTORE PUSH1 0x1C PUSH1 0x24 DUP3 ADD MSTORE PUSH32 0x4E6F20766F74696E6720636F6E746163747320617661696C61626C6500000000 PUSH1 0x44 DUP3 ADD MSTORE PUSH1 0x64 ADD PUSH2 0x452 JUMP JUMPDEST PUSH1 0x1 PUSH1 0x1 PUSH1 0xA0 SHL SUB DUP4 AND PUSH1 0x0 DUP2 DUP2 MSTORE PUSH1 0x4 PUSH1 0x20 DUP2 DUP2 MSTORE PUSH1 0x40 DUP1 DUP5 KECCAK256 DUP1 SLOAD PUSH1 0x1 PUSH1 0x1 PUSH1 0xA0 SHL SUB NOT AND CALLER SWAP1 DUP2 OR DUP3 SSTORE TIMESTAMP PUSH1 0x1 DUP1 DUP5 ADD DUP3 SWAP1 SSTORE PUSH1 0x2 DUP5 ADD DUP2 SWAP1 SSTORE PUSH1 0x3 DUP5 ADD DUP9 SWAP1 SSTORE SWAP6 DUP4 ADD DUP10 SWAP1 SSTORE PUSH1 0x5 DUP4 ADD DUP1 SLOAD PUSH2 0xFFFF NOT AND DUP8 OR SWAP1 SSTORE DUP2 DUP8 MSTORE PUSH1 0x6 DUP4 ADD DUP6 MSTORE DUP4 DUP8 KECCAK256 DUP1 SLOAD PUSH1 0xFF NOT SWAP1 DUP2 AND DUP9 OR SWAP1 SWAP2 SSTORE PUSH1 0x7 DUP5 ADD DUP7 MSTORE SWAP7 DUP5 SWAP1 KECCAK256 DUP1 SLOAD SWAP1 SWAP8 AND SWAP1 SWAP6 OR SWAP1 SWAP6 SSTORE SWAP1 MLOAD SWAP3 DUP4 MSTORE SWAP4 SWAP2 PUSH32 0xD1FFE6C6EEC884AE3341F8304738B02340905DFD25B73DF1802E7F95C9B9FBEC SWAP2 ADD PUSH1 0x40 MLOAD DUP1 SWAP2 SUB SWAP1 LOG3 PUSH1 0x40 MLOAD PUSH1 0x1 DUP2 MSTORE CALLER SWAP1 PUSH1 0x1 PUSH1 0x1 PUSH1 0xA0 SHL SUB DUP7 AND SWAP1 PUSH32 0xCC194F214DF029FE546C9959EE15D79D8633742AAB6C02A862E337F8ACE3D550 SWAP1 PUSH1 0x20 ADD PUSH2 0x144C JUMP JUMPDEST PUSH1 0x1 PUSH1 0x1 PUSH1 0xA0 SHL SUB DUP2 AND PUSH1 0x0 SWAP1 DUP2 MSTORE PUSH1 0x20 DUP2 DUP2 MSTORE PUSH1 0x40 SWAP2 DUP3 SWAP1 KECCAK256 PUSH1 0x8 ADD DUP1 SLOAD DUP4 MLOAD DUP2 DUP5 MUL DUP2 ADD DUP5 ADD SWAP1 SWAP5 MSTORE DUP1 DUP5 MSTORE PUSH1 0x60 SWAP4 SWAP3 DUP4 ADD DUP3 DUP3 DUP1 ISZERO PUSH2 0xA17 JUMPI PUSH1 0x20 MUL DUP3 ADD SWAP2 SWAP1 PUSH1 0x0 MSTORE PUSH1 0x20 PUSH1 0x0 KECCAK256 SWAP1 DUP2 SLOAD PUSH1 0x1 PUSH1 0x1 PUSH1 0xA0 SHL SUB AND DUP2 MSTORE PUSH1 0x1 SWAP1 SWAP2 ADD SWAP1 PUSH1 0x20 ADD DUP1 DUP4 GT PUSH2 0x9F9 JUMPI POP POP POP POP POP SWAP1 POP SWAP2 SWAP1 POP JUMP JUMPDEST PUSH1 0x1 PUSH1 0x1 PUSH1 0xA0 SHL SUB DUP2 AND PUSH1 0x0 SWAP1 DUP2 MSTORE PUSH1 0x2 PUSH1 0x20 SWAP1 DUP2 MSTORE PUSH1 0x40 SWAP2 DUP3 SWAP1 KECCAK256 PUSH1 0x6 ADD DUP1 SLOAD DUP4 MLOAD DUP2 DUP5 MUL DUP2 ADD DUP5 ADD SWAP1 SWAP5 MSTORE DUP1 DUP5 MSTORE PUSH1 0x60 SWAP4 SWAP3 DUP4 ADD DUP3 DUP3 DUP1 ISZERO PUSH2 0xA17 JUMPI PUSH1 0x20 MUL DUP3 ADD SWAP2 SWAP1 PUSH1 0x0 MSTORE PUSH1 0x20 PUSH1 0x0 KECCAK256 SWAP1 DUP2 SLOAD PUSH1 0x1 PUSH1 0x1 PUSH1 0xA0 SHL SUB AND DUP2 MSTORE PUSH1 0x1 SWAP1 SWAP2 ADD SWAP1 PUSH1 0x20 ADD DUP1 DUP4 GT PUSH2 0x9F9 JUMPI POP POP POP POP POP SWAP1 POP SWAP2 SWAP1 POP JUMP JUMPDEST PUSH1 0x1 PUSH1 0x1 PUSH1 0xA0 SHL SUB DUP2 AND PUSH1 0x0 SWAP1 DUP2 MSTORE PUSH1 0x2 PUSH1 0x20 MSTORE PUSH1 0x40 SWAP1 KECCAK256 PUSH1 0x5 ADD SLOAD DUP2 SWAP1 PUSH1 0xFF AND PUSH2 0x2125 JUMPI PUSH1 0x40 MLOAD PUSH3 0x461BCD PUSH1 0xE5 SHL DUP2 MSTORE PUSH1 0x4 ADD PUSH2 0x452 SWAP1 PUSH2 0x303E JUMP JUMPDEST PUSH1 0x1 PUSH1 0x1 PUSH1 0xA0 SHL SUB DUP2 DUP2 AND PUSH1 0x0 SWAP1 DUP2 MSTORE PUSH1 0x2 PUSH1 0x20 DUP2 SWAP1 MSTORE PUSH1 0x40 SWAP1 SWAP2 KECCAK256 ADD SLOAD AND CALLER EQ DUP1 PUSH2 0x2156 JUMPI POP PUSH2 0x2156 DUP2 CALLER PUSH2 0x275C JUMP JUMPDEST PUSH2 0x2193 JUMPI PUSH1 0x40 MLOAD PUSH3 0x461BCD PUSH1 0xE5 SHL DUP2 MSTORE PUSH1 0x20 PUSH1 0x4 DUP3 ADD MSTORE PUSH1 0xE PUSH1 0x24 DUP3 ADD MSTORE PUSH14 0x139BDD08185D5D1A1BDC9A5E9959 PUSH1 0x92 SHL PUSH1 0x44 DUP3 ADD MSTORE PUSH1 0x64 ADD PUSH2 0x452 JUMP JUMPDEST PUSH1 0x1 PUSH1 0x1 PUSH1 0xA0 SHL SUB DUP3 AND PUSH1 0x0 SWAP1 DUP2 MSTORE PUSH1 0x2 PUSH1 0x20 DUP2 SWAP1 MSTORE PUSH1 0x40 SWAP1 SWAP2 KECCAK256 ADD SLOAD PUSH1 0x1 PUSH1 0xA0 SHL SWAP1 DIV PUSH1 0xFF AND ISZERO PUSH2 0x2200 JUMPI PUSH1 0x40 MLOAD PUSH3 0x461BCD PUSH1 0xE5 SHL DUP2 MSTORE PUSH1 0x20 PUSH1 0x4 DUP3 ADD MSTORE PUSH1 0x16 PUSH1 0x24 DUP3 ADD MSTORE PUSH22 0x15985D5B1D08185B1C9958591E481C995B19585CD959 PUSH1 0x52 SHL PUSH1 0x44 DUP3 ADD MSTORE PUSH1 0x64 ADD PUSH2 0x452 JUMP JUMPDEST PUSH1 0x1 PUSH1 0x1 PUSH1 0xA0 SHL SUB DUP1 DUP4 AND PUSH1 0x0 SWAP1 DUP2 MSTORE PUSH1 0x2 PUSH1 0x20 DUP2 DUP2 MSTORE PUSH1 0x40 DUP1 DUP5 KECCAK256 SWAP1 SWAP3 ADD SLOAD SWAP1 SWAP4 AND DUP3 MSTORE SWAP2 DUP2 SWAP1 MSTORE KECCAK256 PUSH1 0x7 ADD SLOAD PUSH1 0xFF AND PUSH2 0x2272 JUMPI PUSH1 0x40 MLOAD PUSH3 0x461BCD PUSH1 0xE5 SHL DUP2 MSTORE PUSH1 0x20 PUSH1 0x4 DUP3 ADD MSTORE PUSH1 0x12 PUSH1 0x24 DUP3 ADD MSTORE PUSH18 0x13DDDB995C881B9BDD08191958D9585CD959 PUSH1 0x72 SHL PUSH1 0x44 DUP3 ADD MSTORE PUSH1 0x64 ADD PUSH2 0x452 JUMP JUMPDEST PUSH1 0x1 PUSH1 0x1 PUSH1 0xA0 SHL SUB DUP1 DUP4 AND PUSH1 0x0 DUP2 DUP2 MSTORE PUSH1 0x2 PUSH1 0x20 DUP2 SWAP1 MSTORE PUSH1 0x40 DUP1 DUP4 KECCAK256 SWAP1 SWAP2 ADD DUP1 SLOAD PUSH1 0xFF PUSH1 0xA0 SHL NOT DUP2 AND PUSH1 0x1 PUSH1 0xA0 SHL OR SWAP1 SWAP2 SSTORE SWAP1 MLOAD SWAP4 AND SWAP3 PUSH32 0x56C3E31B0D2158F3B6AECED690EA98F76856F0EEF497B1A9FBA19CDF3A470B16 SWAP2 SWAP1 LOG3 POP POP JUMP JUMPDEST PUSH1 0x1 PUSH1 0x1 PUSH1 0xA0 SHL SUB DUP2 AND PUSH1 0x0 SWAP1 DUP2 MSTORE PUSH1 0x20 DUP2 SWAP1 MSTORE PUSH1 0x40 DUP2 KECCAK256 PUSH1 0x5 DUP2 ADD SLOAD PUSH1 0x6 DUP3 ADD SLOAD PUSH1 0x7 DUP4 ADD SLOAD PUSH1 0x1 DUP5 ADD DUP1 SLOAD PUSH1 0x60 SWAP7 DUP8 SWAP7 SWAP1 SWAP6 DUP7 SWAP6 DUP7 SWAP6 DUP7 SWAP6 SWAP4 SWAP5 PUSH1 0x2 DUP7 ADD SWAP4 SWAP3 SWAP2 PUSH1 0xFF DUP1 DUP3 AND SWAP3 PUSH2 0x100 SWAP1 SWAP3 DIV AND SWAP1 DUP7 SWAP1 PUSH2 0x232D SWAP1 PUSH2 0x2DDB JUMP JUMPDEST DUP1 PUSH1 0x1F ADD PUSH1 0x20 DUP1 SWAP2 DIV MUL PUSH1 0x20 ADD PUSH1 0x40 MLOAD SWAP1 DUP2 ADD PUSH1 0x40 MSTORE DUP1 SWAP3 SWAP2 SWAP1 DUP2 DUP2 MSTORE PUSH1 0x20 ADD DUP3 DUP1 SLOAD PUSH2 0x2359 SWAP1 PUSH2 0x2DDB JUMP JUMPDEST DUP1 ISZERO PUSH2 0x23A6 JUMPI DUP1 PUSH1 0x1F LT PUSH2 0x237B JUMPI PUSH2 0x100 DUP1 DUP4 SLOAD DIV MUL DUP4 MSTORE SWAP2 PUSH1 0x20 ADD SWAP2 PUSH2 0x23A6 JUMP JUMPDEST DUP3 ADD SWAP2 SWAP1 PUSH1 0x0 MSTORE PUSH1 0x20 PUSH1 0x0 KECCAK256 SWAP1 JUMPDEST DUP2 SLOAD DUP2 MSTORE SWAP1 PUSH1 0x1 ADD SWAP1 PUSH1 0x20 ADD DUP1 DUP4 GT PUSH2 0x2389 JUMPI DUP3 SWAP1 SUB PUSH1 0x1F AND DUP3 ADD SWAP2 JUMPDEST POP POP POP POP POP SWAP6 POP DUP5 DUP1 SLOAD PUSH2 0x23B9 SWAP1 PUSH2 0x2DDB JUMP JUMPDEST DUP1 PUSH1 0x1F ADD PUSH1 0x20 DUP1 SWAP2 DIV MUL PUSH1 0x20 ADD PUSH1 0x40 MLOAD SWAP1 DUP2 ADD PUSH1 0x40 MSTORE DUP1 SWAP3 SWAP2 SWAP1 DUP2 DUP2 MSTORE PUSH1 0x20 ADD DUP3 DUP1 SLOAD PUSH2 0x23E5 SWAP1 PUSH2 0x2DDB JUMP JUMPDEST DUP1 ISZERO PUSH2 0x2432 JUMPI DUP1 PUSH1 0x1F LT PUSH2 0x2407 JUMPI PUSH2 0x100 DUP1 DUP4 SLOAD DIV MUL DUP4 MSTORE SWAP2 PUSH1 0x20 ADD SWAP2 PUSH2 0x2432 JUMP JUMPDEST DUP3 ADD SWAP2 SWAP1 PUSH1 0x0 MSTORE PUSH1 0x20 PUSH1 0x0 KECCAK256 SWAP1 JUMPDEST DUP2 SLOAD DUP2 MSTORE SWAP1 PUSH1 0x1 ADD SWAP1 PUSH1 0x20 ADD DUP1 DUP4 GT PUSH2 0x2415 JUMPI DUP3 SWAP1 SUB PUSH1 0x1F AND DUP3 ADD SWAP2 JUMPDEST POP POP POP POP POP SWAP5 POP SWAP7 POP SWAP7 POP SWAP7 POP SWAP7 POP SWAP7 POP SWAP7 POP POP SWAP2 SWAP4 SWAP6 POP SWAP2 SWAP4 SWAP6 JUMP JUMPDEST PUSH1 0x1 PUSH1 0x1 PUSH1 0xA0 SHL SUB DUP3 AND PUSH1 0x0 SWAP1 DUP2 MSTORE PUSH1 0x2 PUSH1 0x20 MSTORE PUSH1 0x40 SWAP1 KECCAK256 PUSH1 0x5 ADD SLOAD DUP3 SWAP1 PUSH1 0xFF AND PUSH2 0x248C JUMPI PUSH1 0x40 MLOAD PUSH3 0x461BCD PUSH1 0xE5 SHL DUP2 MSTORE PUSH1 0x4 ADD PUSH2 0x452 SWAP1 PUSH2 0x303E JUMP JUMPDEST PUSH1 0x1 PUSH1 0x1 PUSH1 0xA0 SHL SUB DUP2 DUP2 AND PUSH1 0x0 SWAP1 DUP2 MSTORE PUSH1 0x2 PUSH1 0x20 DUP2 SWAP1 MSTORE PUSH1 0x40 SWAP1 SWAP2 KECCAK256 ADD SLOAD AND CALLER EQ PUSH2 0x24EB JUMPI PUSH1 0x40 MLOAD PUSH3 0x461BCD PUSH1 0xE5 SHL DUP2 MSTORE PUSH1 0x20 PUSH1 0x4 DUP3 ADD MSTORE PUSH1 0xF PUSH1 0x24 DUP3 ADD MSTORE PUSH15 0x2737BA103B30BAB63A1037BBB732B9 PUSH1 0x89 SHL PUSH1 0x44 DUP3 ADD MSTORE PUSH1 0x64 ADD PUSH2 0x452 JUMP JUMPDEST CALLER PUSH1 0x0 SWAP1 DUP2 MSTORE PUSH1 0x1 PUSH1 0x20 SWAP1 DUP2 MSTORE PUSH1 0x40 DUP1 DUP4 KECCAK256 PUSH1 0x1 PUSH1 0x1 PUSH1 0xA0 SHL SUB DUP7 AND DUP5 MSTORE SWAP1 SWAP2 MSTORE SWAP1 KECCAK256 SLOAD PUSH3 0x10000 SWAP1 DIV PUSH1 0xFF AND PUSH2 0x255D JUMPI PUSH1 0x40 MLOAD PUSH3 0x461BCD PUSH1 0xE5 SHL DUP2 MSTORE PUSH1 0x20 PUSH1 0x4 DUP3 ADD MSTORE PUSH1 0x16 PUSH1 0x24 DUP3 ADD MSTORE PUSH22 0x10DBDB9D1858DD08191BD95CC81B9BDD08195E1A5CDD PUSH1 0x52 SHL PUSH1 0x44 DUP3 ADD MSTORE PUSH1 0x64 ADD PUSH2 0x452 JUMP JUMPDEST PUSH2 0x2567 DUP4 DUP4 PUSH2 0x275C JUMP JUMPDEST ISZERO PUSH2 0x25B4 JUMPI PUSH1 0x40 MLOAD PUSH3 0x461BCD PUSH1 0xE5 SHL DUP2 MSTORE PUSH1 0x20 PUSH1 0x4 DUP3 ADD MSTORE PUSH1 0x1A PUSH1 0x24 DUP3 ADD MSTORE PUSH32 0x436F6E7461637420616C726561647920617574686F72697A6564000000000000 PUSH1 0x44 DUP3 ADD MSTORE PUSH1 0x64 ADD PUSH2 0x452 JUMP JUMPDEST PUSH1 0x1 PUSH1 0x1 PUSH1 0xA0 SHL SUB DUP4 DUP2 AND PUSH1 0x0 DUP2 DUP2 MSTORE PUSH1 0x2 PUSH1 0x20 SWAP1 DUP2 MSTORE PUSH1 0x40 DUP1 DUP4 KECCAK256 PUSH1 0x6 ADD DUP1 SLOAD PUSH1 0x1 DUP2 ADD DUP3 SSTORE SWAP1 DUP5 MSTORE SWAP2 DUP4 KECCAK256 SWAP1 SWAP2 ADD DUP1 SLOAD PUSH1 0x1 PUSH1 0x1 PUSH1 0xA0 SHL SUB NOT AND SWAP5 DUP8 AND SWAP5 DUP6 OR SWAP1 SSTORE MLOAD PUSH32 0x9C5A8053F4C2DCE64DF183670E37F8038C58530C372DDD0CC5167C49EC19E212 SWAP2 SWAP1 LOG3 POP POP POP JUMP JUMPDEST PUSH1 0x1 PUSH1 0x1 PUSH1 0xA0 SHL SUB DUP2 AND PUSH1 0x0 SWAP1 DUP2 MSTORE PUSH1 0x4 PUSH1 0x20 DUP2 SWAP1 MSTORE PUSH1 0x40 DUP3 KECCAK256 SWAP1 DUP2 ADD SLOAD SWAP1 SWAP2 SWAP1 PUSH1 0x64 SWAP1 PUSH2 0x2651 SWAP1 PUSH1 0x32 PUSH2 0x3082 JUMP JUMPDEST PUSH2 0x265B SWAP2 SWAP1 PUSH2 0x3099 JUMP JUMPDEST PUSH2 0x2666 SWAP1 PUSH1 0x1 PUSH2 0x30BB JUMP JUMPDEST SWAP1 POP DUP1 DUP3 PUSH1 0x2 ADD SLOAD LT PUSH2 0x26F6 JUMPI PUSH1 0x1 PUSH1 0x1 PUSH1 0xA0 SHL SUB DUP4 AND PUSH1 0x0 DUP2 DUP2 MSTORE PUSH1 0x20 DUP2 SWAP1 MSTORE PUSH1 0x40 SWAP1 DUP2 SWAP1 KECCAK256 PUSH1 0x7 ADD DUP1 SLOAD PUSH1 0xFF NOT AND PUSH1 0x1 SWAP1 DUP2 OR SWAP1 SWAP2 SSTORE PUSH1 0x5 DUP6 ADD DUP1 SLOAD PUSH2 0xFFFF NOT AND PUSH2 0x100 OR SWAP1 SSTORE SWAP1 MLOAD PUSH32 0xAC892F9EA2BAC4D143F762134B209DE57EFB94B00C56302AAED590951368EAAC SWAP2 PUSH2 0x26E9 SWAP2 TIMESTAMP SWAP1 SWAP2 ISZERO ISZERO DUP3 MSTORE PUSH1 0x20 DUP3 ADD MSTORE PUSH1 0x40 ADD SWAP1 JUMP JUMPDEST PUSH1 0x40 MLOAD DUP1 SWAP2 SUB SWAP1 LOG2 POP POP POP JUMP JUMPDEST DUP1 DUP3 PUSH1 0x3 ADD SLOAD LT PUSH2 0x2757 JUMPI PUSH1 0x5 DUP3 ADD DUP1 SLOAD PUSH2 0xFFFF NOT AND PUSH2 0x100 OR SWAP1 SSTORE PUSH1 0x40 DUP1 MLOAD PUSH1 0x0 DUP2 MSTORE TIMESTAMP PUSH1 0x20 DUP3 ADD MSTORE PUSH1 0x1 PUSH1 0x1 PUSH1 0xA0 SHL SUB DUP6 AND SWAP2 PUSH32 0xAC892F9EA2BAC4D143F762134B209DE57EFB94B00C56302AAED590951368EAAC SWAP2 ADD PUSH1 0x40 MLOAD DUP1 SWAP2 SUB SWAP1 LOG2 JUMPDEST POP POP POP JUMP JUMPDEST PUSH1 0x1 PUSH1 0x1 PUSH1 0xA0 SHL SUB DUP3 AND PUSH1 0x0 SWAP1 DUP2 MSTORE PUSH1 0x2 PUSH1 0x20 MSTORE PUSH1 0x40 DUP2 KECCAK256 DUP2 JUMPDEST PUSH1 0x6 DUP3 ADD SLOAD DUP2 LT ISZERO PUSH2 0x27D8 JUMPI DUP4 PUSH1 0x1 PUSH1 0x1 PUSH1 0xA0 SHL SUB AND DUP3 PUSH1 0x6 ADD DUP3 DUP2 SLOAD DUP2 LT PUSH2 0x27A1 JUMPI PUSH2 0x27A1 PUSH2 0x306C JUMP JUMPDEST PUSH1 0x0 SWAP2 DUP3 MSTORE PUSH1 0x20 SWAP1 SWAP2 KECCAK256 ADD SLOAD PUSH1 0x1 PUSH1 0x1 PUSH1 0xA0 SHL SUB AND SUB PUSH2 0x27C6 JUMPI PUSH1 0x1 SWAP3 POP POP POP PUSH2 0x1196 JUMP JUMPDEST DUP1 PUSH2 0x27D0 DUP2 PUSH2 0x3025 JUMP JUMPDEST SWAP2 POP POP PUSH2 0x2776 JUMP JUMPDEST POP PUSH1 0x0 SWAP5 SWAP4 POP POP POP POP JUMP JUMPDEST DUP3 DUP1 SLOAD DUP3 DUP3 SSTORE SWAP1 PUSH1 0x0 MSTORE PUSH1 0x20 PUSH1 0x0 KECCAK256 SWAP1 DUP2 ADD SWAP3 DUP3 ISZERO PUSH2 0x2838 JUMPI SWAP2 PUSH1 0x20 MUL DUP3 ADD JUMPDEST DUP3 DUP2 GT ISZERO PUSH2 0x2838 JUMPI DUP3 MLOAD DUP3 SLOAD PUSH1 0x1 PUSH1 0x1 PUSH1 0xA0 SHL SUB NOT AND PUSH1 0x1 PUSH1 0x1 PUSH1 0xA0 SHL SUB SWAP1 SWAP2 AND OR DUP3 SSTORE PUSH1 0x20 SWAP1 SWAP3 ADD SWAP2 PUSH1 0x1 SWAP1 SWAP2 ADD SWAP1 PUSH2 0x2803 JUMP JUMPDEST POP PUSH2 0x2844 SWAP3 SWAP2 POP PUSH2 0x2848 JUMP JUMPDEST POP SWAP1 JUMP JUMPDEST JUMPDEST DUP1 DUP3 GT ISZERO PUSH2 0x2844 JUMPI PUSH1 0x0 DUP2 SSTORE PUSH1 0x1 ADD PUSH2 0x2849 JUMP JUMPDEST PUSH1 0x0 DUP1 DUP4 PUSH1 0x1F DUP5 ADD SLT PUSH2 0x286F JUMPI PUSH1 0x0 DUP1 REVERT JUMPDEST POP DUP2 CALLDATALOAD PUSH8 0xFFFFFFFFFFFFFFFF DUP2 GT ISZERO PUSH2 0x2887 JUMPI PUSH1 0x0 DUP1 REVERT JUMPDEST PUSH1 0x20 DUP4 ADD SWAP2 POP DUP4 PUSH1 0x20 DUP3 DUP6 ADD ADD GT ISZERO PUSH2 0x289F JUMPI PUSH1 0x0 DUP1 REVERT JUMPDEST SWAP3 POP SWAP3 SWAP1 POP JUMP JUMPDEST PUSH1 0x0 DUP1 PUSH1 0x0 DUP1 PUSH1 0x0 DUP1 PUSH1 0x0 DUP1 PUSH1 0x0 PUSH1 0xA0 DUP11 DUP13 SUB SLT ISZERO PUSH2 0x28C4 JUMPI PUSH1 0x0 DUP1 REVERT JUMPDEST DUP10 CALLDATALOAD PUSH8 0xFFFFFFFFFFFFFFFF DUP1 DUP3 GT ISZERO PUSH2 0x28DC JUMPI PUSH1 0x0 DUP1 REVERT JUMPDEST PUSH2 0x28E8 DUP14 DUP4 DUP15 ADD PUSH2 0x285D JUMP JUMPDEST SWAP1 SWAP12 POP SWAP10 POP PUSH1 0x20 DUP13 ADD CALLDATALOAD SWAP2 POP DUP1 DUP3 GT ISZERO PUSH2 0x2901 JUMPI PUSH1 0x0 DUP1 REVERT JUMPDEST PUSH2 0x290D DUP14 DUP4 DUP15 ADD PUSH2 0x285D JUMP JUMPDEST SWAP1 SWAP10 POP SWAP8 POP PUSH1 0x40 DUP13 ADD CALLDATALOAD SWAP2 POP DUP1 DUP3 GT ISZERO PUSH2 0x2926 JUMPI PUSH1 0x0 DUP1 REVERT JUMPDEST PUSH2 0x2932 DUP14 DUP4 DUP15 ADD PUSH2 0x285D JUMP JUMPDEST SWAP1 SWAP8 POP SWAP6 POP PUSH1 0x60 DUP13 ADD CALLDATALOAD SWAP2 POP DUP1 DUP3 GT ISZERO PUSH2 0x294B JUMPI PUSH1 0x0 DUP1 REVERT JUMPDEST POP PUSH2 0x2958 DUP13 DUP3 DUP14 ADD PUSH2 0x285D JUMP JUMPDEST SWAP11 SWAP14 SWAP10 SWAP13 POP SWAP8 SWAP11 SWAP7 SWAP10 SWAP6 SWAP9 SWAP5 SWAP8 SWAP7 PUSH1 0x80 ADD CALLDATALOAD SWAP5 SWAP4 POP POP POP POP JUMP JUMPDEST DUP1 CALLDATALOAD PUSH1 0x1 PUSH1 0x1 PUSH1 0xA0 SHL SUB DUP2 AND DUP2 EQ PUSH2 0x2989 JUMPI PUSH1 0x0 DUP1 REVERT JUMPDEST SWAP2 SWAP1 POP JUMP JUMPDEST PUSH1 0x0 DUP1 PUSH1 0x40 DUP4 DUP6 SUB SLT ISZERO PUSH2 0x29A1 JUMPI PUSH1 0x0 DUP1 REVERT JUMPDEST PUSH2 0x29AA DUP4 PUSH2 0x2972 JUMP JUMPDEST SWAP2 POP PUSH1 0x20 DUP4 ADD CALLDATALOAD DUP1 ISZERO ISZERO DUP2 EQ PUSH2 0x29BF JUMPI PUSH1 0x0 DUP1 REVERT JUMPDEST DUP1 SWAP2 POP POP SWAP3 POP SWAP3 SWAP1 POP JUMP JUMPDEST PUSH1 0x0 PUSH1 0x20 DUP3 DUP5 SUB SLT ISZERO PUSH2 0x29DC JUMPI PUSH1 0x0 DUP1 REVERT JUMPDEST PUSH2 0x1513 DUP3 PUSH2 0x2972 JUMP JUMPDEST PUSH1 0x20 DUP1 DUP3 MSTORE DUP3 MLOAD DUP3 DUP3 ADD DUP2 SWAP1 MSTORE PUSH1 0x0 SWAP2 SWAP1 DUP5 DUP3 ADD SWAP1 PUSH1 0x40 DUP6 ADD SWAP1 DUP5 JUMPDEST DUP2 DUP2 LT ISZERO PUSH2 0x2A26 JUMPI DUP4 MLOAD PUSH1 0x1 PUSH1 0x1 PUSH1 0xA0 SHL SUB AND DUP4 MSTORE SWAP3 DUP5 ADD SWAP3 SWAP2 DUP5 ADD SWAP2 PUSH1 0x1 ADD PUSH2 0x2A01 JUMP JUMPDEST POP SWAP1 SWAP7 SWAP6 POP POP POP POP POP POP JUMP JUMPDEST PUSH1 0x0 DUP1 PUSH1 0x0 PUSH1 0x40 DUP5 DUP7 SUB SLT ISZERO PUSH2 0x2A47 JUMPI PUSH1 0x0 DUP1 REVERT JUMPDEST PUSH2 0x2A50 DUP5 PUSH2 0x2972 JUMP JUMPDEST SWAP3 POP PUSH1 0x20 DUP5 ADD CALLDATALOAD PUSH8 0xFFFFFFFFFFFFFFFF DUP2 GT ISZERO PUSH2 0x2A6C JUMPI PUSH1 0x0 DUP1 REVERT JUMPDEST PUSH2 0x2A78 DUP7 DUP3 DUP8 ADD PUSH2 0x285D JUMP JUMPDEST SWAP5 SWAP8 SWAP1 SWAP7 POP SWAP4 SWAP5 POP POP POP POP JUMP JUMPDEST PUSH1 0x0 DUP2 MLOAD DUP1 DUP5 MSTORE PUSH1 0x0 JUMPDEST DUP2 DUP2 LT ISZERO PUSH2 0x2AAB JUMPI PUSH1 0x20 DUP2 DUP6 ADD DUP2 ADD MLOAD DUP7 DUP4 ADD DUP3 ADD MSTORE ADD PUSH2 0x2A8F JUMP JUMPDEST POP PUSH1 0x0 PUSH1 0x20 DUP3 DUP7 ADD ADD MSTORE PUSH1 0x20 PUSH1 0x1F NOT PUSH1 0x1F DUP4 ADD AND DUP6 ADD ADD SWAP2 POP POP SWAP3 SWAP2 POP POP JUMP JUMPDEST PUSH1 0xA0 DUP2 MSTORE PUSH1 0x0 PUSH2 0x2ADE PUSH1 0xA0 DUP4 ADD DUP9 PUSH2 0x2A85 JUMP JUMPDEST DUP3 DUP2 SUB PUSH1 0x20 DUP5 ADD MSTORE PUSH2 0x2AF0 DUP2 DUP9 PUSH2 0x2A85 JUMP JUMPDEST SWAP1 POP DUP3 DUP2 SUB PUSH1 0x40 DUP5 ADD MSTORE PUSH2 0x2B04 DUP2 DUP8 PUSH2 0x2A85 JUMP JUMPDEST SWAP1 POP DUP3 DUP2 SUB PUSH1 0x60 DUP5 ADD MSTORE PUSH2 0x2B18 DUP2 DUP7 PUSH2 0x2A85 JUMP JUMPDEST SWAP2 POP POP DUP3 ISZERO ISZERO PUSH1 0x80 DUP4 ADD MSTORE SWAP7 SWAP6 POP POP POP POP POP POP JUMP JUMPDEST PUSH1 0x0 DUP1 PUSH1 0x0 DUP1 PUSH1 0x0 DUP1 PUSH1 0x0 PUSH1 0x80 DUP9 DUP11 SUB SLT ISZERO PUSH2 0x2B48 JUMPI PUSH1 0x0 DUP1 REVERT JUMPDEST PUSH2 0x2B51 DUP9 PUSH2 0x2972 JUMP JUMPDEST SWAP7 POP PUSH1 0x20 DUP9 ADD CALLDATALOAD PUSH8 0xFFFFFFFFFFFFFFFF DUP1 DUP3 GT ISZERO PUSH2 0x2B6E JUMPI PUSH1 0x0 DUP1 REVERT JUMPDEST PUSH2 0x2B7A DUP12 DUP4 DUP13 ADD PUSH2 0x285D JUMP JUMPDEST SWAP1 SWAP9 POP SWAP7 POP PUSH1 0x40 DUP11 ADD CALLDATALOAD SWAP2 POP DUP1 DUP3 GT ISZERO PUSH2 0x2B93 JUMPI PUSH1 0x0 DUP1 REVERT JUMPDEST PUSH2 0x2B9F DUP12 DUP4 DUP13 ADD PUSH2 0x285D JUMP JUMPDEST SWAP1 SWAP7 POP SWAP5 POP PUSH1 0x60 DUP11 ADD CALLDATALOAD SWAP2 POP DUP1 DUP3 GT ISZERO PUSH2 0x2BB8 JUMPI PUSH1 0x0 DUP1 REVERT JUMPDEST POP PUSH2 0x2BC5 DUP11 DUP3 DUP12 ADD PUSH2 0x285D JUMP JUMPDEST SWAP9 SWAP12 SWAP8 SWAP11 POP SWAP6 SWAP9 POP SWAP4 SWAP7 SWAP3 SWAP6 SWAP3 SWAP4 POP POP POP JUMP JUMPDEST PUSH1 0x0 DUP1 PUSH1 0x40 DUP4 DUP6 SUB SLT ISZERO PUSH2 0x2BEB JUMPI PUSH1 0x0 DUP1 REVERT JUMPDEST PUSH2 0x2BF4 DUP4 PUSH2 0x2972 JUMP JUMPDEST SWAP2 POP PUSH2 0x2C02 PUSH1 0x20 DUP5 ADD PUSH2 0x2972 JUMP JUMPDEST SWAP1 POP SWAP3 POP SWAP3 SWAP1 POP JUMP JUMPDEST PUSH1 0xC0 DUP2 MSTORE PUSH1 0x0 PUSH2 0x2C1E PUSH1 0xC0 DUP4 ADD DUP10 PUSH2 0x2A85 JUMP JUMPDEST PUSH1 0x1 PUSH1 0x1 PUSH1 0xA0 SHL SUB DUP9 AND PUSH1 0x20 DUP5 ADD MSTORE DUP7 ISZERO ISZERO PUSH1 0x40 DUP5 ADD MSTORE DUP3 DUP2 SUB PUSH1 0x60 DUP5 ADD MSTORE PUSH2 0x2C47 DUP2 DUP8 PUSH2 0x2A85 JUMP JUMPDEST SWAP1 POP DUP3 DUP2 SUB PUSH1 0x80 DUP5 ADD MSTORE PUSH2 0x2C5B DUP2 DUP7 PUSH2 0x2A85 JUMP JUMPDEST SWAP2 POP POP DUP3 ISZERO ISZERO PUSH1 0xA0 DUP4 ADD MSTORE SWAP8 SWAP7 POP POP POP POP POP POP POP JUMP JUMPDEST PUSH1 0x0 DUP1 PUSH1 0x0 DUP1 PUSH1 0x0 DUP1 PUSH1 0x0 DUP1 PUSH1 0x0 DUP1 PUSH1 0x0 PUSH1 0xC0 DUP13 DUP15 SUB SLT ISZERO PUSH2 0x2C92 JUMPI PUSH1 0x0 DUP1 REVERT JUMPDEST PUSH2 0x2C9B DUP13 PUSH2 0x2972 JUMP JUMPDEST SWAP11 POP PUSH8 0xFFFFFFFFFFFFFFFF DUP1 PUSH1 0x20 DUP15 ADD CALLDATALOAD GT ISZERO PUSH2 0x2CB7 JUMPI PUSH1 0x0 DUP1 REVERT JUMPDEST PUSH2 0x2CC7 DUP15 PUSH1 0x20 DUP16 ADD CALLDATALOAD DUP16 ADD PUSH2 0x285D JUMP JUMPDEST SWAP1 SWAP12 POP SWAP10 POP PUSH1 0x40 DUP14 ADD CALLDATALOAD DUP2 LT ISZERO PUSH2 0x2CDD JUMPI PUSH1 0x0 DUP1 REVERT JUMPDEST PUSH2 0x2CED DUP15 PUSH1 0x40 DUP16 ADD CALLDATALOAD DUP16 ADD PUSH2 0x285D JUMP JUMPDEST SWAP1 SWAP10 POP SWAP8 POP PUSH1 0x60 DUP14 ADD CALLDATALOAD DUP2 LT ISZERO PUSH2 0x2D03 JUMPI PUSH1 0x0 DUP1 REVERT JUMPDEST PUSH2 0x2D13 DUP15 PUSH1 0x60 DUP16 ADD CALLDATALOAD DUP16 ADD PUSH2 0x285D JUMP JUMPDEST SWAP1 SWAP8 POP SWAP6 POP PUSH1 0x80 DUP14 ADD CALLDATALOAD DUP2 LT ISZERO PUSH2 0x2D29 JUMPI PUSH1 0x0 DUP1 REVERT JUMPDEST PUSH2 0x2D39 DUP15 PUSH1 0x80 DUP16 ADD CALLDATALOAD DUP16 ADD PUSH2 0x285D JUMP JUMPDEST SWAP1 SWAP6 POP SWAP4 POP PUSH1 0xA0 DUP14 ADD CALLDATALOAD DUP2 LT ISZERO PUSH2 0x2D4F JUMPI PUSH1 0x0 DUP1 REVERT JUMPDEST POP PUSH2 0x2D60 DUP14 PUSH1 0xA0 DUP15 ADD CALLDATALOAD DUP15 ADD PUSH2 0x285D JUMP JUMPDEST DUP2 SWAP4 POP DUP1 SWAP3 POP POP POP SWAP3 SWAP6 SWAP9 SWAP12 POP SWAP3 SWAP6 SWAP9 SWAP12 SWAP1 SWAP4 SWAP7 SWAP10 POP JUMP JUMPDEST PUSH1 0xC0 DUP2 MSTORE PUSH1 0x0 PUSH2 0x2D8B PUSH1 0xC0 DUP4 ADD DUP10 PUSH2 0x2A85 JUMP JUMPDEST DUP3 DUP2 SUB PUSH1 0x20 DUP5 ADD MSTORE PUSH2 0x2D9D DUP2 DUP10 PUSH2 0x2A85 JUMP JUMPDEST PUSH1 0x40 DUP5 ADD SWAP8 SWAP1 SWAP8 MSTORE POP POP PUSH1 0x60 DUP2 ADD SWAP4 SWAP1 SWAP4 MSTORE SWAP1 ISZERO ISZERO PUSH1 0x80 DUP4 ADD MSTORE ISZERO ISZERO PUSH1 0xA0 SWAP1 SWAP2 ADD MSTORE SWAP3 SWAP2 POP POP JUMP JUMPDEST PUSH4 0x4E487B71 PUSH1 0xE0 SHL PUSH1 0x0 MSTORE PUSH1 0x41 PUSH1 0x4 MSTORE PUSH1 0x24 PUSH1 0x0 REVERT JUMPDEST PUSH1 0x1 DUP2 DUP2 SHR SWAP1 DUP3 AND DUP1 PUSH2 0x2DEF JUMPI PUSH1 0x7F DUP3 AND SWAP2 POP JUMPDEST PUSH1 0x20 DUP3 LT DUP2 SUB PUSH2 0x2E0F JUMPI PUSH4 0x4E487B71 PUSH1 0xE0 SHL PUSH1 0x0 MSTORE PUSH1 0x22 PUSH1 0x4 MSTORE PUSH1 0x24 PUSH1 0x0 REVERT JUMPDEST POP SWAP2 SWAP1 POP JUMP JUMPDEST PUSH1 0x1F DUP3 GT ISZERO PUSH2 0x2757 JUMPI PUSH1 0x0 DUP2 DUP2 MSTORE PUSH1 0x20 DUP2 KECCAK256 PUSH1 0x1F DUP6 ADD PUSH1 0x5 SHR DUP2 ADD PUSH1 0x20 DUP7 LT ISZERO PUSH2 0x2E3C JUMPI POP DUP1 JUMPDEST PUSH1 0x1F DUP6 ADD PUSH1 0x5 SHR DUP3 ADD SWAP2 POP JUMPDEST DUP2 DUP2 LT ISZERO PUSH2 0x2E5B JUMPI DUP3 DUP2 SSTORE PUSH1 0x1 ADD PUSH2 0x2E48 JUMP JUMPDEST POP POP POP POP POP POP JUMP JUMPDEST DUP2 MLOAD PUSH8 0xFFFFFFFFFFFFFFFF DUP2 GT ISZERO PUSH2 0x2E7D JUMPI PUSH2 0x2E7D PUSH2 0x2DC5 JUMP JUMPDEST PUSH2 0x2E91 DUP2 PUSH2 0x2E8B DUP5 SLOAD PUSH2 0x2DDB JUMP JUMPDEST DUP5 PUSH2 0x2E15 JUMP JUMPDEST PUSH1 0x20 DUP1 PUSH1 0x1F DUP4 GT PUSH1 0x1 DUP2 EQ PUSH2 0x2EC6 JUMPI PUSH1 0x0 DUP5 ISZERO PUSH2 0x2EAE JUMPI POP DUP6 DUP4 ADD MLOAD JUMPDEST PUSH1 0x0 NOT PUSH1 0x3 DUP7 SWAP1 SHL SHR NOT AND PUSH1 0x1 DUP6 SWAP1 SHL OR DUP6 SSTORE PUSH2 0x2E5B JUMP JUMPDEST PUSH1 0x0 DUP6 DUP2 MSTORE PUSH1 0x20 DUP2 KECCAK256 PUSH1 0x1F NOT DUP7 AND SWAP2 JUMPDEST DUP3 DUP2 LT ISZERO PUSH2 0x2EF5 JUMPI DUP9 DUP7 ADD MLOAD DUP3 SSTORE SWAP5 DUP5 ADD SWAP5 PUSH1 0x1 SWAP1 SWAP2 ADD SWAP1 DUP5 ADD PUSH2 0x2ED6 JUMP JUMPDEST POP DUP6 DUP3 LT ISZERO PUSH2 0x2F13 JUMPI DUP8 DUP6 ADD MLOAD PUSH1 0x0 NOT PUSH1 0x3 DUP9 SWAP1 SHL PUSH1 0xF8 AND SHR NOT AND DUP2 SSTORE JUMPDEST POP POP POP POP POP PUSH1 0x1 SWAP1 DUP2 SHL ADD SWAP1 SSTORE POP JUMP JUMPDEST DUP2 DUP4 MSTORE DUP2 DUP2 PUSH1 0x20 DUP6 ADD CALLDATACOPY POP PUSH1 0x0 DUP3 DUP3 ADD PUSH1 0x20 SWAP1 DUP2 ADD SWAP2 SWAP1 SWAP2 MSTORE PUSH1 0x1F SWAP1 SWAP2 ADD PUSH1 0x1F NOT AND SWAP1 SWAP2 ADD ADD SWAP1 JUMP JUMPDEST PUSH1 0x40 DUP2 MSTORE PUSH1 0x0 PUSH2 0x2F60 PUSH1 0x40 DUP4 ADD DUP7 DUP9 PUSH2 0x2F23 JUMP JUMPDEST DUP3 DUP2 SUB PUSH1 0x20 DUP5 ADD MSTORE PUSH2 0x2F73 DUP2 DUP6 DUP8 PUSH2 0x2F23 JUMP JUMPDEST SWAP8 SWAP7 POP POP POP POP POP POP POP JUMP JUMPDEST PUSH1 0x20 DUP1 DUP3 MSTORE PUSH1 0x14 SWAP1 DUP3 ADD MSTORE PUSH20 0x13DDDB995C881B9BDD081C9959DA5CDD195C9959 PUSH1 0x62 SHL PUSH1 0x40 DUP3 ADD MSTORE PUSH1 0x60 ADD SWAP1 JUMP JUMPDEST DUP2 DUP4 DUP3 CALLDATACOPY PUSH1 0x0 SWAP2 ADD SWAP1 DUP2 MSTORE SWAP2 SWAP1 POP JUMP JUMPDEST PUSH1 0x20 DUP2 MSTORE PUSH1 0x0 PUSH2 0x2FD0 PUSH1 0x20 DUP4 ADD DUP5 DUP7 PUSH2 0x2F23 JUMP JUMPDEST SWAP5 SWAP4 POP POP POP POP JUMP JUMPDEST PUSH1 0x20 DUP1 DUP3 MSTORE PUSH1 0x1B SWAP1 DUP3 ADD MSTORE PUSH32 0x4E6F74206120636F6E74616374206F662074686973206F776E65720000000000 PUSH1 0x40 DUP3 ADD MSTORE PUSH1 0x60 ADD SWAP1 JUMP JUMPDEST PUSH4 0x4E487B71 PUSH1 0xE0 SHL PUSH1 0x0 MSTORE PUSH1 0x11 PUSH1 0x4 MSTORE PUSH1 0x24 PUSH1 0x0 REVERT JUMPDEST PUSH1 0x0 PUSH1 0x1 DUP3 ADD PUSH2 0x3037 JUMPI PUSH2 0x3037 PUSH2 0x300F JUMP JUMPDEST POP PUSH1 0x1 ADD SWAP1 JUMP JUMPDEST PUSH1 0x20 DUP1 DUP3 MSTORE PUSH1 0x14 SWAP1 DUP3 ADD MSTORE PUSH20 0x15985D5B1D08191BD95CC81B9BDD08195E1A5CDD PUSH1 0x62 SHL PUSH1 0x40 DUP3 ADD MSTORE PUSH1 0x60 ADD SWAP1 JUMP JUMPDEST PUSH4 0x4E487B71 PUSH1 0xE0 SHL PUSH1 0x0 MSTORE PUSH1 0x32 PUSH1 0x4 MSTORE PUSH1 0x24 PUSH1 0x0 REVERT JUMPDEST DUP1 DUP3 MUL DUP2 ISZERO DUP3 DUP3 DIV DUP5 EQ OR PUSH2 0x1196 JUMPI PUSH2 0x1196 PUSH2 0x300F JUMP JUMPDEST PUSH1 0x0 DUP3 PUSH2 0x30B6 JUMPI PUSH4 0x4E487B71 PUSH1 0xE0 SHL PUSH1 0x0 MSTORE PUSH1 0x12 PUSH1 0x4 MSTORE PUSH1 0x24 PUSH1 0x0 REVERT JUMPDEST POP DIV SWAP1 JUMP JUMPDEST DUP1 DUP3 ADD DUP1 DUP3 GT ISZERO PUSH2 0x1196 JUMPI PUSH2 0x1196 PUSH2 0x300F JUMP INVALID LOG2 PUSH5 0x6970667358 0x22 SLT KECCAK256 DUP2 PUSH18 0x5119887991B1B32031F88D28647ABE1B207F 0xAF 0xE7 SWAP3 POP 0x24 EXTCODECOPY 0xA6 RETURN BYTE 0x27 PREVRANDAO PUSH1 0x64 PUSH20 0x6F6C634300081300330000000000000000000000 "},"methodIdentifiers":{"addContact(address,bool)":"2815f211","addVaultFile(address,string,string,string,string,string)":"9dd3a483","authorizeVaultContact(address,address)":"e42d9419","createVault(address,string,string,string)":"36e5621e","declareDeceased(address)":"abc22bbe","getContactInfo(address,address)":"60f490f7","getContactList(address)":"b385faa8","getDeathDeclarationStatus(address)":"996e6ca1","getOwnerInfo(address)":"d385de82","getOwnerVaultList(address)":"2fda53e7","getVaultAuthorizedContacts(address)":"b52b6706","getVaultFileInfo(address,string)":"319764fe","getVaultInfo(address)":"90229af7","getVote(address,address)":"5ab4f162","hasVoted(address,address)":"4d4d2b1c","isVaultAuthorized(address,address)":"5b1a8e3f","registerOwner(string,string,string,string,uint256)":"0accc75d","releaseVault(address)":"cd30f038","sendHeartbeat()":"34f167a9","verifyContact(address)":"6880f137","voteOnDeathDeclaration(address,bool)":"4e8e32b5"}}}}}