{"contracts/User.sol":{"User":{"abi":[{"inputs":[{"internalType":"string","name":"_firstname","type":"string"},{"internalType":"string","name":"_lastname","type":"string"},{"internalType":"string","name":"_email","type":"string"}],"stateMutability":"payable","type":"constructor"},{"inputs":[],"name":"ContactNotFound","type":"error"},{"inputs":[],"name":"DeathDeclarationNotFound","type":"error"},{"inputs":[],"name":"DuplicateContact","type":"error"},{"inputs":[],"name":"DuplicateVault","type":"error"},{"inputs":[],"name":"InvalidAddress","type":"error"},{"inputs":[],"name":"InvalidStatus","type":"error"},{"inputs":[],"name":"Unauthorized","type":"error"},{"inputs":[],"name":"UserNotActive","type":"error"},{"inputs":[],"name":"VaultNotFound","type":"error"},{"inputs":[],"name":"VoteAlreadyExists","type":"error"},{"inputs":[],"name":"VoteNotFound","type":"error"},{"anonymous":false,"inputs":[{"indexed":false,"internalType":"uint64","name":"consensusReachedAt","type":"uint64"}],"name":"ConsensusReached","type":"event"},{"anonymous":false,"inputs":[{"indexed":true,"internalType":"address","name":"contact","type":"address"}],"name":"ContactAdded","type":"event"},{"anonymous":false,"inputs":[{"indexed":true,"internalType":"address","name":"contact","type":"address"}],"name":"ContactRemoved","type":"event"},{"anonymous":false,"inputs":[{"indexed":true,"internalType":"address","name":"declaredBy","type":"address"},{"indexed":false,"internalType":"uint64","name":"declaredAt","type":"uint64"}],"name":"DeathDeclarationCreated","type":"event"},{"anonymous":false,"inputs":[{"indexed":false,"internalType":"bool","name":"isIdVerified","type":"bool"}],"name":"IdVerificationUpdated","type":"event"},{"anonymous":false,"inputs":[{"indexed":true,"internalType":"address","name":"oldOwner","type":"address"},{"indexed":true,"internalType":"address","name":"newOwner","type":"address"}],"name":"OwnerChanged","type":"event"},{"anonymous":false,"inputs":[{"indexed":false,"internalType":"string","name":"firstname","type":"string"},{"indexed":false,"internalType":"string","name":"lastname","type":"string"},{"indexed":false,"internalType":"string","name":"email","type":"string"},{"indexed":false,"internalType":"string","name":"birthDate","type":"string"}],"name":"UserProfileUpdated","type":"event"},{"anonymous":false,"inputs":[{"indexed":false,"internalType":"enum User.UserStatus","name":"status","type":"uint8"}],"name":"UserStatusChanged","type":"event"},{"anonymous":false,"inputs":[{"indexed":true,"internalType":"address","name":"vault","type":"address"}],"name":"VaultAdded","type":"event"},{"anonymous":false,"inputs":[{"indexed":true,"internalType":"address","name":"vault","type":"address"}],"name":"VaultRemoved","type":"event"},{"anonymous":false,"inputs":[{"indexed":true,"internalType":"address","name":"voter","type":"address"},{"indexed":false,"internalType":"bool","name":"voted","type":"bool"},{"indexed":false,"internalType":"uint64","name":"votedAt","type":"uint64"}],"name":"VoteCast","type":"event"},{"anonymous":false,"inputs":[{"indexed":false,"internalType":"bool","name":"hasVotingRight","type":"bool"}],"name":"VotingRightsUpdated","type":"event"},{"inputs":[{"internalType":"address","name":"_contact","type":"address"}],"name":"addContact","outputs":[],"stateMutability":"nonpayable","type":"function"},{"inputs":[{"internalType":"address","name":"_vault","type":"address"}],"name":"addVault","outputs":[],"stateMutability":"nonpayable","type":"function"},{"inputs":[{"internalType":"uint256","name":"","type":"uint256"}],"name":"contacts","outputs":[{"internalType":"address","name":"","type":"address"}],"stateMutability":"view","type":"function"},{"inputs":[],"name":"createDeathDeclaration","outputs":[],"stateMutability":"nonpayable","type":"function"},{"inputs":[],"name":"deathDeclaration","outputs":[{"internalType":"address","name":"declaredBy","type":"address"},{"internalType":"uint64","name":"declaredAt","type":"uint64"},{"internalType":"bool","name":"consensusReached","type":"bool"},{"internalType":"uint64","name":"consensusReachedAt","type":"uint64"}],"stateMutability":"view","type":"function"},{"inputs":[],"name":"finalizeDeathDeclaration","outputs":[],"stateMutability":"nonpayable","type":"function"},{"inputs":[],"name":"getBasicUserData","outputs":[{"internalType":"address","name":"owner","type":"address"},{"internalType":"string","name":"firstname","type":"string"},{"internalType":"string","name":"lastname","type":"string"},{"internalType":"string","name":"email","type":"string"},{"internalType":"string","name":"birthDate","type":"string"},{"internalType":"enum User.UserStatus","name":"status","type":"uint8"},{"internalType":"uint64","name":"graceInterval","type":"uint64"},{"internalType":"uint64","name":"createdAt","type":"uint64"},{"internalType":"uint64","name":"lastUpdated","type":"uint64"},{"internalType":"bool","name":"hasVotingRight","type":"bool"},{"internalType":"bool","name":"isIdVerified","type":"bool"}],"stateMutability":"view","type":"function"},{"inputs":[],"name":"getBirthDate","outputs":[{"internalType":"string","name":"","type":"string"}],"stateMutability":"view","type":"function"},{"inputs":[{"internalType":"uint256","name":"index","type":"uint256"}],"name":"getContactAtIndex","outputs":[{"internalType":"address","name":"","type":"address"}],"stateMutability":"view","type":"function"},{"inputs":[],"name":"getContactCount","outputs":[{"internalType":"uint256","name":"","type":"uint256"}],"stateMutability":"view","type":"function"},{"inputs":[],"name":"getContacts","outputs":[{"internalType":"address[]","name":"","type":"address[]"}],"stateMutability":"view","type":"function"},{"inputs":[],"name":"getCreatedAt","outputs":[{"internalType":"uint64","name":"","type":"uint64"}],"stateMutability":"view","type":"function"},{"inputs":[],"name":"getDeathDeclaration","outputs":[{"internalType":"address","name":"declaredBy","type":"address"},{"internalType":"uint64","name":"declaredAt","type":"uint64"},{"internalType":"address[]","name":"voters","type":"address[]"},{"internalType":"bool","name":"consensusReached","type":"bool"},{"internalType":"uint64","name":"consensusReachedAt","type":"uint64"}],"stateMutability":"view","type":"function"},{"inputs":[],"name":"getDeathDeclarationStatus","outputs":[{"internalType":"bool","name":"hasDeathDecl","type":"bool"}],"stateMutability":"view","type":"function"},{"inputs":[],"name":"getEmail","outputs":[{"internalType":"string","name":"","type":"string"}],"stateMutability":"view","type":"function"},{"inputs":[],"name":"getFirstname","outputs":[{"internalType":"string","name":"","type":"string"}],"stateMutability":"view","type":"function"},{"inputs":[],"name":"getGraceInterval","outputs":[{"internalType":"uint64","name":"","type":"uint64"}],"stateMutability":"view","type":"function"},{"inputs":[],"name":"getHasVotingRight","outputs":[{"internalType":"bool","name":"","type":"bool"}],"stateMutability":"view","type":"function"},{"inputs":[],"name":"getIsIdVerified","outputs":[{"internalType":"bool","name":"","type":"bool"}],"stateMutability":"view","type":"function"},{"inputs":[],"name":"getLastUpdated","outputs":[{"internalType":"uint64","name":"","type":"uint64"}],"stateMutability":"view","type":"function"},{"inputs":[],"name":"getLastname","outputs":[{"internalType":"string","name":"","type":"string"}],"stateMutability":"view","type":"function"},{"inputs":[],"name":"getOwner","outputs":[{"internalType":"address","name":"","type":"address"}],"stateMutability":"view","type":"function"},{"inputs":[],"name":"getStatus","outputs":[{"internalType":"enum User.UserStatus","name":"","type":"uint8"}],"stateMutability":"view","type":"function"},{"inputs":[],"name":"getUserData","outputs":[{"internalType":"address","name":"owner","type":"address"},{"internalType":"string","name":"firstname","type":"string"},{"internalType":"string","name":"lastname","type":"string"},{"internalType":"string","name":"email","type":"string"},{"internalType":"string","name":"birthDate","type":"string"},{"internalType":"enum User.UserStatus","name":"status","type":"uint8"},{"internalType":"uint64","name":"graceInterval","type":"uint64"},{"internalType":"uint64","name":"createdAt","type":"uint64"},{"internalType":"uint64","name":"lastUpdated","type":"uint64"},{"internalType":"bool","name":"hasVotingRight","type":"bool"},{"internalType":"bool","name":"isIdVerified","type":"bool"},{"internalType":"address[]","name":"userVaults","type":"address[]"},{"internalType":"address[]","name":"userContacts","type":"address[]"},{"internalType":"bool","name":"hasDeathDecl","type":"bool"}],"stateMutability":"view","type":"function"},{"inputs":[{"internalType":"uint256","name":"index","type":"uint256"}],"name":"getVaultAtIndex","outputs":[{"internalType":"address","name":"","type":"address"}],"stateMutability":"view","type":"function"},{"inputs":[],"name":"getVaultCount","outputs":[{"internalType":"uint256","name":"","type":"uint256"}],"stateMutability":"view","type":"function"},{"inputs":[],"name":"getVaults","outputs":[{"internalType":"address[]","name":"","type":"address[]"}],"stateMutability":"view","type":"function"},{"inputs":[],"name":"getVaultsAndContacts","outputs":[{"internalType":"address[]","name":"userVaults","type":"address[]"},{"internalType":"address[]","name":"userContacts","type":"address[]"}],"stateMutability":"view","type":"function"},{"inputs":[],"name":"hasDeathDeclaration","outputs":[{"internalType":"bool","name":"","type":"bool"}],"stateMutability":"view","type":"function"},{"inputs":[{"internalType":"address","name":"voter","type":"address"}],"name":"hasVoted","outputs":[{"internalType":"bool","name":"","type":"bool"}],"stateMutability":"view","type":"function"},{"inputs":[{"internalType":"address","name":"_contact","type":"address"}],"name":"isContact","outputs":[{"internalType":"bool","name":"","type":"bool"}],"stateMutability":"view","type":"function"},{"inputs":[{"internalType":"address","name":"_vault","type":"address"}],"name":"isVault","outputs":[{"internalType":"bool","name":"","type":"bool"}],"stateMutability":"view","type":"function"},{"inputs":[{"internalType":"address","name":"_contact","type":"address"}],"name":"removeContact","outputs":[],"stateMutability":"nonpayable","type":"function"},{"inputs":[{"internalType":"address","name":"_vault","type":"address"}],"name":"removeVault","outputs":[],"stateMutability":"nonpayable","type":"function"},{"inputs":[{"internalType":"string","name":"_birthDate","type":"string"}],"name":"setBirthDate","outputs":[],"stateMutability":"nonpayable","type":"function"},{"inputs":[{"internalType":"string","name":"_email","type":"string"}],"name":"setEmail","outputs":[],"stateMutability":"nonpayable","type":"function"},{"inputs":[{"internalType":"string","name":"_firstname","type":"string"}],"name":"setFirstname","outputs":[],"stateMutability":"nonpayable","type":"function"},{"inputs":[{"internalType":"uint64","name":"_graceInterval","type":"uint64"}],"name":"setGraceInterval","outputs":[],"stateMutability":"nonpayable","type":"function"},{"inputs":[{"internalType":"bool","name":"_hasVotingRight","type":"bool"}],"name":"setHasVotingRight","outputs":[],"stateMutability":"nonpayable","type":"function"},{"inputs":[{"internalType":"bool","name":"_isIdVerified","type":"bool"}],"name":"setIsIdVerified","outputs":[],"stateMutability":"nonpayable","type":"function"},{"inputs":[{"internalType":"string","name":"_lastname","type":"string"}],"name":"setLastname","outputs":[],"stateMutability":"nonpayable","type":"function"},{"inputs":[{"internalType":"address","name":"_newOwner","type":"address"}],"name":"setOwner","outputs":[],"stateMutability":"nonpayable","type":"function"},{"inputs":[{"internalType":"enum User.UserStatus","name":"_status","type":"uint8"}],"name":"setStatus","outputs":[],"stateMutability":"nonpayable","type":"function"},{"inputs":[],"name":"userData","outputs":[{"internalType":"address","name":"owner","type":"address"},{"internalType":"string","name":"firstname","type":"string"},{"internalType":"string","name":"lastname","type":"string"},{"internalType":"string","name":"email","type":"string"},{"internalType":"string","name":"birthDate","type":"string"},{"internalType":"enum User.UserStatus","name":"status","type":"uint8"},{"internalType":"uint64","name":"graceInterval","type":"uint64"},{"internalType":"uint64","name":"createdAt","type":"uint64"},{"internalType":"uint64","name":"lastUpdated","type":"uint64"},{"internalType":"bool","name":"hasVotingRight","type":"bool"},{"internalType":"bool","name":"isIdVerified","type":"bool"}],"stateMutability":"view","type":"function"},{"inputs":[{"internalType":"uint256","name":"","type":"uint256"}],"name":"vaults","outputs":[{"internalType":"address","name":"","type":"address"}],"stateMutability":"view","type":"function"},{"inputs":[{"internalType":"bool","name":"_voted","type":"bool"}],"name":"voteOnDeathDeclaration","outputs":[],"stateMutability":"nonpayable","type":"function"}],"evm":{"bytecode":{"linkReferences":{},"object":"6080604052612bab80380380610014816104dc565b92833981016060828203126104d75781516001600160401b0381116104d7578161003f918401610501565b60208301519092906001600160401b0381116104d75782610061918301610501565b60408201519092906001600160401b0381116104d7576100819201610501565b600080546001600160a01b0319163317905582516001600160401b038111610341576100ae60015461056c565b601f8111610488575b506020601f82116001146104215781929394600092610416575b50508160011b916000199060031b1c1916176001555b81516001600160401b0381116103415761010260025461056c565b601f81116103c7575b50602092601f82116001146103625792819293600092610357575b50508160011b916000199060031b1c1916176002555b80516001600160401b0381116103415761015760035461056c565b601f81116102e7575b50602091601f821160011461028357918192600092610278575b50508160011b916000199060031b1c1916176003555b61019b60045461056c565b601f8111610239575b6000600455600580547901000000000000000000000000000000000000000000278d00006001600160881b031982164260481b70ffffffffffffffff0000000000000000001690811763278d000017604090811b600160881b600160c81b03166001600160d01b0319909416909117929092171760ff60d01b1916909155600c805460ff19169055516125ed90816105be8239f35b600460005261027290601f0160051c7f8a35acfbc15ff81a39ae7d344fd709f28e8600b4aa8c65c6b64bfe7fe36bd19b908101906105a6565b386101a4565b01519050388061017a565b601f198216926003600052806000209160005b8581106102cf575083600195106102b6575b505050811b01600355610190565b015160001960f88460031b161c191690553880806102a8565b91926020600181928685015181550194019201610296565b6003600052610331907fc2575a0e9e593c00f959f8c92f12db2869c3395a3b0502d05e2516446f71f85b601f840160051c81019160208510610337575b601f0160051c01906105a6565b38610160565b9091508190610324565b634e487b7160e01b600052604160045260246000fd5b015190503880610126565b601f198216936002600052806000209160005b8681106103af5750836001959610610396575b505050811b0160025561013c565b015160001960f88460031b161c19169055388080610388565b91926020600181928685015181550194019201610375565b6002600052610410907f405787fa12a823e0f2b7631cc41b3ba8828b3321ca811111fa75cd3aa3bb5ace601f840160051c8101916020851061033757601f0160051c01906105a6565b3861010b565b0151905038806100d1565b601f198216906001600052806000209160005b81811061047057509583600195969710610457575b505050811b016001556100e7565b015160001960f88460031b161c19169055388080610449565b9192602060018192868b015181550194019201610434565b60016000526104d1907fb10e2d527612073b26eecdfd717e6a320cf44b4afac2b0732d9fcbe2b7fa0cf6601f840160051c8101916020851061033757601f0160051c01906105a6565b386100b7565b600080fd5b6040519190601f01601f191682016001600160401b0381118382101761034157604052565b81601f820112156104d7578051906001600160401b03821161034157610530601f8301601f19166020016104dc565b92828452602083830101116104d75760005b82811061055757505060206000918301015290565b80602080928401015182828701015201610542565b90600182811c9216801561059c575b602083101461058657565b634e487b7160e01b600052602260045260246000fd5b91607f169161057b565b8181106105b1575050565b600081556001016105a656fe608080604052600436101561001357600080fd5b60003560e01c9081630331553b14611f845750806308cfbde514611ef45780630989befb14611ece57806309eef43e14611e805780630ca5c1a114611dde5780630ce44e3a14611db5578063110342ad14611cfb57806313af403514611c49578063142ae1bd14611c235780631de514a914611bd357806322e8c87d14611a4c57806323cb0f8314611a23578063256b5a0214611918578063282b065a146117325780632c3e45531461170e5780632e49d78b1461167b57806336d52ed71461165d5780633856fcdf1461153457806342c838621461150557806344d00f82146114e9578063451e6c78146114485780634e69d5601461142057806362f8e6c7146113f6578063652b9b41146113bd5780636e8e0956146112f657806374d4e491146112d857806378121dd4146112ae5780637e05f5a8146112845780637e79e8ba1461126057806380b48fc9146111d2578063893d20e8146111a95780638c64ea4a146111805780639346cd2b14610f9d578063a414b37914610e92578063a6a6607214610d47578063ba681d0d14610b4a578063bea6998f14610a8c578063c16a836b14610a68578063ceb68c23146108bd578063d32ac6701461087e578063d92be7f614610655578063db920b7714610621578063e0f478cb146105df578063e169f438146104c6578063fce8baf7146104a35763feac17f21461021957600080fd5b3461049e57602036600319011261049e5760043580151580910361049e57600080600754905b818110610469575b5050156104595760ff600c5416156104485733600052600960205260ff6040600020541661043757336000526009602052604060002060ff1981541660ff8316179055600a54600160401b811015610421576102ae8160016102cc9301600a55600a6121a5565b81546001600160a01b0360039290921b91821b19163390911b179055565b6001600160401b034216906040519081528160208201527f822d6ee5c173da0ec92da61257ae046a02c578b17f7b63e7bfeced180c271e6b60403392a2600a5460009080825b82811061038557505060011c1061032557005b60207f63bed6c5a05567805b3b0682aac4a3b8058590de810204cb3055b063dd8333ad916001600b5468ffffffffffffffff004260081b169068ffffffffffffffffff19161717600b55600260ff196005541617600555604051908152a1005b60008282101561040d57600a90527fc65a7bb8d6351c1cf70c95a316cc6a92839c986682d98bc35f958f4883f9d2a88101546001600160a01b031660009081526009602052604081205460ff166103e0575b50600101610312565b90939060001982146103f95750600180910193906103d7565b634e487b7160e01b81526011600452602490fd5b634e487b7160e01b81526032600452602490fd5b634e487b7160e01b600052604160045260246000fd5b636ea01c3d60e01b60005260046000fd5b631e2c79f560e21b60005260046000fd5b6282b42960e81b60005260046000fd5b6104728161218a565b905460039190911b1c6001600160a01b031633146104925760010161023f565b50505060013880610247565b600080fd5b3461049e57600036600319011261049e57602060ff600c54166040519015158152f35b3461049e57600036600319011261049e57600080600754905b8181106105aa575b5050156104595760ff600c54161561044857600b5460ff811615610448576001600160401b038060055460081c169160081c16016001600160401b038111610594576001600160401b03164210610448576005805460ff67ffffffffffffffff60881b0119164260881b600160881b600160c81b03161760039081179091556040519081527f04e00e6a81ccbf2771640ba8cc5b7dc33da28cfda3647ef3b84f30e9b8c8edea90602090a1005b634e487b7160e01b600052601160045260246000fd5b6105b38161218a565b905460039190911b1c6001600160a01b031633146105d3576001016104df565b505050600181806104e7565b3461049e57602036600319011261049e5760043560075481101561049e5761060860209161218a565b905460405160039290921b1c6001600160a01b03168152f35b3461049e57600036600319011261049e5761065161063d6123df565b604051918291602083526020830190611fa4565b0390f35b3461049e57610663366120e2565b6000546001600160a01b031633036104595760ff600554166004811015610868576108575780516001600160401b038111610421576106a36004546121bd565b601f81116107ea575b506020601f8211600114610766579181610756926000805160206125988339815191529460009161075b575b508160011b916000199060031b1c1916176004555b6005546001600160401b0360881b4260881b16906001600160401b0360881b1916176005556040519182916080835261074861073b61072e608086016121f7565b8581036020870152612286565b84810360408601526122f9565b908382036060850152611fe1565b0390a1005b9050820151856106d8565b601f1982169060046000526000805160206125788339815191529160005b8181106107d257509260008051602061259883398151915294926001928261075696106107b9575b5050811b016004556106ed565b84015160001960f88460031b161c1916905585806107ac565b91926020600181928689015181550194019201610784565b6004600052601f820160051c600080516020612578833981519152019060208310610841575b601f0160051c60008051602061257883398151915201905b81811061083557506106ac565b60008155600101610828565b6000805160206125788339815191529150610810565b633613fe9560e01b60005260046000fd5b634e487b7160e01b600052602160045260246000fd5b3461049e57600036600319011261049e576106516040516108a9816108a2816121f7565b03826120c1565b604051918291602083526020830190611fe1565b3461049e57602036600319011261049e576004356001600160a01b0381169081900361049e576000546001600160a01b031633036104595760ff60055416600481101561086857610857578015610a575760065460001960005b828110610a26575b506000198114610a155760001982019182116105945761095c61094461098093612159565b905460039190911b1c6001600160a01b031691612159565b81546001600160a01b0393841660039290921b91821b9390911b1916919091179055565b60065480156109ff57600019016109b061099b8260066121a5565b81549060018060a01b039060031b1b19169055565b6006556005805467ffffffffffffffff60881b19164260881b600160881b600160c81b03161790557fe71f3a50e5ad81964f352c411f1d45e35438ecd1acecef59ac81d9fbbf6cbc0a600080a2005b634e487b7160e01b600052603160045260246000fd5b63dee790fb60e01b60005260046000fd5b83610a3082612159565b905460039190911b1c6001600160a01b031614610a4f57600101610917565b90508361091f565b63e6c4247b60e01b60005260046000fd5b3461049e57600036600319011261049e576106516040516108a9816108a28161236c565b3461049e57600036600319011261049e57600054604051906001600160a01b0316610ac182610aba816121f7565b03836120c1565b610651604051610ad4816108a281612286565b604051610ae4816108a2816122f9565b60405191610afc83610af58161236c565b03846120c1565b6005549560405196879660ff8260d01c169560ff8360c81c16956001600160401b038460881c16956001600160401b038560481c169560ff6001600160401b038760081c169616948c61202f565b3461049e57610b58366120e2565b6000546001600160a01b031633036104595760ff600554166004811015610868576108575780516001600160401b03811161042157610b986001546121bd565b601f8111610cda575b506020601f8211600114610c56579181610c249260008051602061259883398151915294600091610c4b575b508160011b916000199060031b1c1916176001555b6005546001600160401b0360881b4260881b16906001600160401b0360881b191617600555610756610c3e610c31604051948594608086526080860190611fe1565b8481036020860152612286565b83810360408501526122f9565b828103606084015261236c565b905082015185610bcd565b601f1982169060016000526000805160206125588339815191529160005b818110610cc2575092600080516020612598833981519152949260019282610c249610610ca9575b5050811b01600155610be2565b84015160001960f88460031b161c191690558580610c9c565b91926020600181928689015181550194019201610c74565b6001600052601f820160051c600080516020612558833981519152019060208310610d31575b601f0160051c60008051602061255883398151915201905b818110610d255750610ba1565b60008155600101610d18565b6000805160206125588339815191529150610d00565b3461049e57602036600319011261049e576004356001600160a01b0381169081900361049e576000546001600160a01b031633036104595760ff60055416600481101561086857610857578015610a575760075460001960005b828110610e61575b506000198114610e505760001982019182116105945761095c610dce610de69361218a565b905460039190911b1c6001600160a01b03169161218a565b60075480156109ff5760001901610e0161099b8260076121a5565b6007556005805467ffffffffffffffff60881b19164260881b600160881b600160c81b03161790557f860a08ee18aa4e64441f09047deffa5068bdd37321e8bcb96e0914ccfcf730e6600080a2005b634b4972a160e11b60005260046000fd5b83610e6b8261218a565b905460039190911b1c6001600160a01b031614610e8a57600101610da1565b905083610da9565b3461049e57602036600319011261049e576004356001600160a01b0381169081810361049e576000546001600160a01b031633036104595760ff60055416600481101561086857610857578115610a575760075460005b818110610f6357505060075490600160401b8210156104215761095c826001610f17940160075560076121a5565b6005805467ffffffffffffffff60881b19164260881b600160881b600160c81b03161790557fe55ed47e48e3970fda3b83dd3773a251448b798293dd077be58344aad032ec69600080a2005b83610f6d8261218a565b905460039190911b1c6001600160a01b031614610f8c57600101610ee9565b6328e4c7ab60e11b60005260046000fd5b3461049e57610fab366120e2565b6000546001600160a01b031633036104595760ff600554166004811015610868576108575780516001600160401b03811161042157610feb6002546121bd565b601f8111611113575b506020601f821160011461108f579181610c319260008051602061259883398151915294600091611084575b508160011b916000199060031b1c1916176002555b6005546001600160401b0360881b4260881b16906001600160401b0360881b191617600555610756610c3e60405193849360808552611076608086016121f7565b908582036020870152611fe1565b905082015185611020565b601f1982169060026000526000805160206125188339815191529160005b8181106110fb575092600080516020612598833981519152949260019282610c3196106110e2575b5050811b01600255611035565b84015160001960f88460031b161c1916905585806110d5565b919260206001819286890151815501940192016110ad565b6002600052601f820160051c60008051602061251883398151915201906020831061116a575b601f0160051c60008051602061251883398151915201905b81811061115e5750610ff4565b60008155600101611151565b6000805160206125188339815191529150611139565b3461049e57602036600319011261049e5760043560065481101561049e57610608602091612159565b3461049e57600036600319011261049e576000546040516001600160a01b039091168152602090f35b3461049e57602036600319011261049e576004356001600160401b038116810361049e576000546001600160a01b031633036104595760055460ff81166004811015610868576108575778ffffffffffffffff0000000000000000ffffffffffffffff00191660089190911b68ffffffffffffffff0016174260881b600160881b600160c81b031617600555005b3461049e57600036600319011261049e576106516040516108a9816108a2816122f9565b3461049e57600036600319011261049e5760206001600160401b0360055460481c16604051908152f35b3461049e57600036600319011261049e5760206001600160401b0360055460881c16604051908152f35b3461049e57600036600319011261049e576020600654604051908152f35b3461049e57600036600319011261049e5760ff600c54161561044857600854600b549060405191600a548084526020840190600a60005260206000209060005b81811061139e57505050611385846113596001600160401b0396879403826120c1565b604080516001600160a01b038716815260a096871c909716602088015286018590528594850190611fa4565b9160ff81161515606085015260081c1660808301520390f35b82546001600160a01b0316845260209093019260019283019201611336565b3461049e57602036600319011261049e576004356001600160a01b038116810361049e576113ec6020916124d4565b6040519015158152f35b3461049e57600036600319011261049e5760206001600160401b0360055460081c16604051908152f35b3461049e57600036600319011261049e57602060ff600554166114466040518092612022565bf35b3461049e57602036600319011261049e5760043580151580910361049e576000546001600160a01b031633036104595760055460ff81166004811015610868576108575768ffffffffffffffffff60881b191660c882901b60ff60c81b16174260881b600160881b600160c81b0316176005556040519081527f36d6322c229a6f6a424ae1322690455060aafc44103785af66de5d98a8302efd90602090a1005b3461049e57600036600319011261049e5761065161063d612435565b3461049e57602036600319011261049e576004356001600160a01b038116810361049e576113ec602091612489565b3461049e57600036600319011261049e57600080600754905b818110611628575b50501561045957600c5460ff811661044857600880546001600160e01b0319163367ffffffffffffffff60a01b198116919091174260a081901b67ffffffffffffffff60a01b1691909117909255600b805468ffffffffffffffffff1916905560ff199092166001908117600c556005805460ff67ffffffffffffffff60881b011916608884901b600160881b600160c81b03161790911790556040516001600160401b039190911681527f9757e4914f88f7367885e34484d735f48036c637fc3260df39e72b5db00e300790602090a2005b6116318161218a565b905460039190911b1c6001600160a01b031633146116515760010161154d565b50505060018180611555565b3461049e57600036600319011261049e576020600754604051908152f35b3461049e57602036600319011261049e57600435600481101561049e576000546001600160a01b03163303610459576005805460ff67ffffffffffffffff60881b01191660ff8316174260881b600160881b600160c81b03161790556040517f04e00e6a81ccbf2771640ba8cc5b7dc33da28cfda3647ef3b84f30e9b8c8edea916020919061170b908290612022565ba1005b3461049e57600036600319011261049e576106516040516108a9816108a281612286565b3461049e57611740366120e2565b6000546001600160a01b031633036104595760ff600554166004811015610868576108575780516001600160401b038111610421576117806003546121bd565b601f81116118ab575b506020601f8211600114611827579181610c3e926000805160206125988339815191529460009161181c575b508160011b916000199060031b1c1916176003555b6005805467ffffffffffffffff60881b19164260881b600160881b600160c81b03161790556040516080808252909283926107569261180e9061072e9086016121f7565b908482036040860152611fe1565b9050820151856117b5565b601f1982169060036000526000805160206125388339815191529160005b818110611893575092600080516020612598833981519152949260019282610c3e961061187a575b5050811b016003556117ca565b84015160001960f88460031b161c19169055858061186d565b91926020600181928689015181550194019201611845565b6003600052601f820160051c600080516020612538833981519152019060208310611902575b601f0160051c60008051602061253883398151915201905b8181106118f65750611789565b600081556001016118e9565b60008051602061253883398151915291506118d1565b3461049e57602036600319011261049e576004356001600160a01b0381169081810361049e576000546001600160a01b031633036104595760ff60055416600481101561086857610857578115610a575760065460005b8181106119e957505060065490600160401b8210156104215761095c82600161199d940160065560066121a5565b6005805467ffffffffffffffff60881b19164260881b600160881b600160c81b03161790557f7b7ef7a864d96a85497a1ed846adb39940dd6ccef678ff6ac8d55505e09b8cc4600080a2005b836119f382612159565b905460039190911b1c6001600160a01b031614611a125760010161196f565b6392c7e28d60e01b60005260046000fd5b3461049e57602036600319011261049e57600435600754811015610e505761060860209161218a565b3461049e57600036600319011261049e57600054600554600c54604051926001600160a01b03169160ff9091169083611a84816121f7565b03611a8f90856120c1565b6040519081611a9d81612286565b03611aa890836120c1565b6040519081611ab6816122f9565b03611ac190836120c1565b60405180611ace8161236c565b03611ad990826120c1565b611ae1612435565b92611aea6123df565b946040519889988952602089016101c090526101c08901611b0a91611fe1565b88810360408a0152611b1b91611fe1565b8781036060890152611b2c91611fe1565b8681036080880152611b3d91611fe1565b90611b4e60a0870160ff8316612022565b8060081c6001600160401b031660c08701528060481c6001600160401b031660e08701528060881c6001600160401b03166101008701528060c81c60ff16151561012087015260d01c60ff161515610140860152848103610160860152611bb491611fa4565b838103610180850152611bc691611fa4565b9015156101a08301520390f35b3461049e57600036600319011261049e5760806008546001600160401b03600b54816040519360018060a01b038116855260a01c16602084015260ff81161515604084015260081c166060820152f35b3461049e57600036600319011261049e57602060ff60055460c81c166040519015158152f35b3461049e57602036600319011261049e576004356001600160a01b0381169081900361049e576000546001600160a01b0381169033829003610459576005549060ff8216600481101561086857610857578315610a57576001600160a01b0319168317600090815567ffffffffffffffff60881b199091164260881b600160881b600160c81b0316176005557fb532073b38c83145e3e5135377a08bf9aab55bc0fd7c1179cd4fb995d2a5159c9080a3005b3461049e57600036600319011261049e5760005460055460405190916001600160a01b03169061065190611d32816108a2816121f7565b604051611d42816108a281612286565b60405190611d5382610aba816122f9565b60405192611d6b84611d648161236c565b03856120c1565b60405196879660ff8260d01c169560ff8360c81c16956001600160401b038460881c16956001600160401b038560481c169560ff6001600160401b038760081c169616948c61202f565b3461049e57602036600319011261049e57600435600654811015610a1557610608602091612159565b3461049e57602036600319011261049e5760043580151580910361049e576000546001600160a01b031633036104595760055460ff81166004811015610868576108575769ff00ffffffffffffffff60881b191660d082901b60ff60d01b16174260881b600160881b600160c81b0316176005556040519081527ffce1dc6f5ec56f2cacdcbd5c15446ac038b73349dc13a6dff0beb5b3a639bf1090602090a1005b3461049e57602036600319011261049e576004356001600160a01b0381169081900361049e5760ff600c541615610448576000526009602052602060ff604060002054166040519015158152f35b3461049e57600036600319011261049e57602060ff60055460d01c166040519015158152f35b3461049e57600036600319011261049e576040516006548082526020820190600660005260206000209060005b818110611f6557611f5785611f38818703826120c1565b610651611f436123df565b604051938493604085526040850190611fa4565b908382036020850152611fa4565b82546001600160a01b0316845260209093019260019283019201611f21565b3461049e57600036600319011261049e5760209060ff600c541615158152f35b906020808351928381520192019060005b818110611fc25750505090565b82516001600160a01b0316845260209384019390920191600101611fb5565b919082519283825260005b84811061200d575050826000602080949584010152601f8019910116010190565b80602080928401015182828601015201611fec565b9060048210156108685752565b9996906120946101409a966120866001600160401b03999f9e9b968a988f916120789061180e8c9a61209f9960018060a01b031686526101606020870152610160860190611fe1565b916060818403910152611fe1565b8d810360808f015290611fe1565b9c60a08c0190612022565b1660c08901521660e08701521661010085015215156101208401521515910152565b90601f801991011681019081106001600160401b0382111761042157604052565b602060031982011261049e576004356001600160401b03811161049e578160238201121561049e578060040135906001600160401b0382116104215760405192612136601f8401601f1916602001856120c1565b8284526024838301011161049e5781600092602460209301838601378301015290565b60065481101561217457600660005260206000200190600090565b634e487b7160e01b600052603260045260246000fd5b60075481101561217457600760005260206000200190600090565b80548210156121745760005260206000200190600090565b90600182811c921680156121ed575b60208310146121d757565b634e487b7160e01b600052602260045260246000fd5b91607f16916121cc565b60015460009291612207826121bd565b808252916001811690811561226a5750600114612222575050565b600160009081529293509091906000805160206125588339815191525b838310612250575060209250010190565b60018160209294939454838587010152019101919061223f565b9050602093945060ff929192191683830152151560051b010190565b60025460009291612296826121bd565b808252916001811690811561226a57506001146122b1575050565b600260009081529293509091906000805160206125188339815191525b8383106122df575060209250010190565b6001816020929493945483858701015201910191906122ce565b60035460009291612309826121bd565b808252916001811690811561226a5750600114612324575050565b600360009081529293509091906000805160206125388339815191525b838310612352575060209250010190565b600181602092949394548385870101520191019190612341565b6004546000929161237c826121bd565b808252916001811690811561226a5750600114612397575050565b600460009081529293509091906000805160206125788339815191525b8383106123c5575060209250010190565b6001816020929493945483858701015201910191906123b4565b604051906007548083528260208101600760005260206000209260005b818110612413575050612411925003836120c1565b565b84546001600160a01b03168352600194850194879450602090930192016123fc565b604051906006548083528260208101600660005260206000209260005b818110612467575050612411925003836120c1565b84546001600160a01b0316835260019485019487945060209093019201612452565b6007549060005b82811061249f57505050600090565b6124a88161218a565b905460039190911b1c6001600160a01b03908116908316146124cc57600101612490565b505050600190565b6006549060005b8281106124ea57505050600090565b6124f381612159565b905460039190911b1c6001600160a01b03908116908316146124cc576001016124db56fe405787fa12a823e0f2b7631cc41b3ba8828b3321ca811111fa75cd3aa3bb5acec2575a0e9e593c00f959f8c92f12db2869c3395a3b0502d05e2516446f71f85bb10e2d527612073b26eecdfd717e6a320cf44b4afac2b0732d9fcbe2b7fa0cf68a35acfbc15ff81a39ae7d344fd709f28e8600b4aa8c65c6b64bfe7fe36bd19b9775f25ad625945e9068004f3a218174c780fcba3e63d8f7bdb318f7222ab3b8a2646970667358221220f868c328618bb479e1c9b587d817a3b066ec7e2a228ee1d3c83af79f3356560b64736f6c634300081c0033","opcodes":"PUSH1 0x80 PUSH1 0x40 MSTORE PUSH2 0x2BAB DUP1 CODESIZE SUB DUP1 PUSH2 0x14 DUP2 PUSH2 0x4DC JUMP JUMPDEST SWAP3 DUP4 CODECOPY DUP2 ADD PUSH1 0x60 DUP3 DUP3 SUB SLT PUSH2 0x4D7 JUMPI DUP2 MLOAD PUSH1 0x1 PUSH1 0x1 PUSH1 0x40 SHL SUB DUP2 GT PUSH2 0x4D7 JUMPI DUP2 PUSH2 0x3F SWAP2 DUP5 ADD PUSH2 0x501 JUMP JUMPDEST PUSH1 0x20 DUP4 ADD MLOAD SWAP1 SWAP3 SWAP1 PUSH1 0x1 PUSH1 0x1 PUSH1 0x40 SHL SUB DUP2 GT PUSH2 0x4D7 JUMPI DUP3 PUSH2 0x61 SWAP2 DUP4 ADD PUSH2 0x501 JUMP JUMPDEST PUSH1 0x40 DUP3 ADD MLOAD SWAP1 SWAP3 SWAP1 PUSH1 0x1 PUSH1 0x1 PUSH1 0x40 SHL SUB DUP2 GT PUSH2 0x4D7 JUMPI PUSH2 0x81 SWAP3 ADD PUSH2 0x501 JUMP JUMPDEST PUSH1 0x0 DUP1 SLOAD PUSH1 0x1 PUSH1 0x1 PUSH1 0xA0 SHL SUB NOT AND CALLER OR SWAP1 SSTORE DUP3 MLOAD PUSH1 0x1 PUSH1 0x1 PUSH1 0x40 SHL SUB DUP2 GT PUSH2 0x341 JUMPI PUSH2 0xAE PUSH1 0x1 SLOAD PUSH2 0x56C JUMP JUMPDEST PUSH1 0x1F DUP2 GT PUSH2 0x488 JUMPI JUMPDEST POP PUSH1 0x20 PUSH1 0x1F DUP3 GT PUSH1 0x1 EQ PUSH2 0x421 JUMPI DUP2 SWAP3 SWAP4 SWAP5 PUSH1 0x0 SWAP3 PUSH2 0x416 JUMPI JUMPDEST POP POP DUP2 PUSH1 0x1 SHL SWAP2 PUSH1 0x0 NOT SWAP1 PUSH1 0x3 SHL SHR NOT AND OR PUSH1 0x1 SSTORE JUMPDEST DUP2 MLOAD PUSH1 0x1 PUSH1 0x1 PUSH1 0x40 SHL SUB DUP2 GT PUSH2 0x341 JUMPI PUSH2 0x102 PUSH1 0x2 SLOAD PUSH2 0x56C JUMP JUMPDEST PUSH1 0x1F DUP2 GT PUSH2 0x3C7 JUMPI JUMPDEST POP PUSH1 0x20 SWAP3 PUSH1 0x1F DUP3 GT PUSH1 0x1 EQ PUSH2 0x362 JUMPI SWAP3 DUP2 SWAP3 SWAP4 PUSH1 0x0 SWAP3 PUSH2 0x357 JUMPI JUMPDEST POP POP DUP2 PUSH1 0x1 SHL SWAP2 PUSH1 0x0 NOT SWAP1 PUSH1 0x3 SHL SHR NOT AND OR PUSH1 0x2 SSTORE JUMPDEST DUP1 MLOAD PUSH1 0x1 PUSH1 0x1 PUSH1 0x40 SHL SUB DUP2 GT PUSH2 0x341 JUMPI PUSH2 0x157 PUSH1 0x3 SLOAD PUSH2 0x56C JUMP JUMPDEST PUSH1 0x1F DUP2 GT PUSH2 0x2E7 JUMPI JUMPDEST POP PUSH1 0x20 SWAP2 PUSH1 0x1F DUP3 GT PUSH1 0x1 EQ PUSH2 0x283 JUMPI SWAP2 DUP2 SWAP3 PUSH1 0x0 SWAP3 PUSH2 0x278 JUMPI JUMPDEST POP POP DUP2 PUSH1 0x1 SHL SWAP2 PUSH1 0x0 NOT SWAP1 PUSH1 0x3 SHL SHR NOT AND OR PUSH1 0x3 SSTORE JUMPDEST PUSH2 0x19B PUSH1 0x4 SLOAD PUSH2 0x56C JUMP JUMPDEST PUSH1 0x1F DUP2 GT PUSH2 0x239 JUMPI JUMPDEST PUSH1 0x0 PUSH1 0x4 SSTORE PUSH1 0x5 DUP1 SLOAD PUSH26 0x1000000000000000000000000000000000000000000278D0000 PUSH1 0x1 PUSH1 0x1 PUSH1 0x88 SHL SUB NOT DUP3 AND TIMESTAMP PUSH1 0x48 SHL PUSH17 0xFFFFFFFFFFFFFFFF000000000000000000 AND SWAP1 DUP2 OR PUSH4 0x278D0000 OR PUSH1 0x40 SWAP1 DUP2 SHL PUSH1 0x1 PUSH1 0x88 SHL PUSH1 0x1 PUSH1 0xC8 SHL SUB AND PUSH1 0x1 PUSH1 0x1 PUSH1 0xD0 SHL SUB NOT SWAP1 SWAP5 AND SWAP1 SWAP2 OR SWAP3 SWAP1 SWAP3 OR OR PUSH1 0xFF PUSH1 0xD0 SHL NOT AND SWAP1 SWAP2 SSTORE PUSH1 0xC DUP1 SLOAD PUSH1 0xFF NOT AND SWAP1 SSTORE MLOAD PUSH2 0x25ED SWAP1 DUP2 PUSH2 0x5BE DUP3 CODECOPY RETURN JUMPDEST PUSH1 0x4 PUSH1 0x0 MSTORE PUSH2 0x272 SWAP1 PUSH1 0x1F ADD PUSH1 0x5 SHR PUSH32 0x8A35ACFBC15FF81A39AE7D344FD709F28E8600B4AA8C65C6B64BFE7FE36BD19B SWAP1 DUP2 ADD SWAP1 PUSH2 0x5A6 JUMP JUMPDEST CODESIZE PUSH2 0x1A4 JUMP JUMPDEST ADD MLOAD SWAP1 POP CODESIZE DUP1 PUSH2 0x17A JUMP JUMPDEST PUSH1 0x1F NOT DUP3 AND SWAP3 PUSH1 0x3 PUSH1 0x0 MSTORE DUP1 PUSH1 0x0 KECCAK256 SWAP2 PUSH1 0x0 JUMPDEST DUP6 DUP2 LT PUSH2 0x2CF JUMPI POP DUP4 PUSH1 0x1 SWAP6 LT PUSH2 0x2B6 JUMPI JUMPDEST POP POP POP DUP2 SHL ADD PUSH1 0x3 SSTORE PUSH2 0x190 JUMP JUMPDEST ADD MLOAD PUSH1 0x0 NOT PUSH1 0xF8 DUP5 PUSH1 0x3 SHL AND SHR NOT AND SWAP1 SSTORE CODESIZE DUP1 DUP1 PUSH2 0x2A8 JUMP JUMPDEST SWAP2 SWAP3 PUSH1 0x20 PUSH1 0x1 DUP2 SWAP3 DUP7 DUP6 ADD MLOAD DUP2 SSTORE ADD SWAP5 ADD SWAP3 ADD PUSH2 0x296 JUMP JUMPDEST PUSH1 0x3 PUSH1 0x0 MSTORE PUSH2 0x331 SWAP1 PUSH32 0xC2575A0E9E593C00F959F8C92F12DB2869C3395A3B0502D05E2516446F71F85B PUSH1 0x1F DUP5 ADD PUSH1 0x5 SHR DUP2 ADD SWAP2 PUSH1 0x20 DUP6 LT PUSH2 0x337 JUMPI JUMPDEST PUSH1 0x1F ADD PUSH1 0x5 SHR ADD SWAP1 PUSH2 0x5A6 JUMP JUMPDEST CODESIZE PUSH2 0x160 JUMP JUMPDEST SWAP1 SWAP2 POP DUP2 SWAP1 PUSH2 0x324 JUMP JUMPDEST PUSH4 0x4E487B71 PUSH1 0xE0 SHL PUSH1 0x0 MSTORE PUSH1 0x41 PUSH1 0x4 MSTORE PUSH1 0x24 PUSH1 0x0 REVERT JUMPDEST ADD MLOAD SWAP1 POP CODESIZE DUP1 PUSH2 0x126 JUMP JUMPDEST PUSH1 0x1F NOT DUP3 AND SWAP4 PUSH1 0x2 PUSH1 0x0 MSTORE DUP1 PUSH1 0x0 KECCAK256 SWAP2 PUSH1 0x0 JUMPDEST DUP7 DUP2 LT PUSH2 0x3AF JUMPI POP DUP4 PUSH1 0x1 SWAP6 SWAP7 LT PUSH2 0x396 JUMPI JUMPDEST POP POP POP DUP2 SHL ADD PUSH1 0x2 SSTORE PUSH2 0x13C JUMP JUMPDEST ADD MLOAD PUSH1 0x0 NOT PUSH1 0xF8 DUP5 PUSH1 0x3 SHL AND SHR NOT AND SWAP1 SSTORE CODESIZE DUP1 DUP1 PUSH2 0x388 JUMP JUMPDEST SWAP2 SWAP3 PUSH1 0x20 PUSH1 0x1 DUP2 SWAP3 DUP7 DUP6 ADD MLOAD DUP2 SSTORE ADD SWAP5 ADD SWAP3 ADD PUSH2 0x375 JUMP JUMPDEST PUSH1 0x2 PUSH1 0x0 MSTORE PUSH2 0x410 SWAP1 PUSH32 0x405787FA12A823E0F2B7631CC41B3BA8828B3321CA811111FA75CD3AA3BB5ACE PUSH1 0x1F DUP5 ADD PUSH1 0x5 SHR DUP2 ADD SWAP2 PUSH1 0x20 DUP6 LT PUSH2 0x337 JUMPI PUSH1 0x1F ADD PUSH1 0x5 SHR ADD SWAP1 PUSH2 0x5A6 JUMP JUMPDEST CODESIZE PUSH2 0x10B JUMP JUMPDEST ADD MLOAD SWAP1 POP CODESIZE DUP1 PUSH2 0xD1 JUMP JUMPDEST PUSH1 0x1F NOT DUP3 AND SWAP1 PUSH1 0x1 PUSH1 0x0 MSTORE DUP1 PUSH1 0x0 KECCAK256 SWAP2 PUSH1 0x0 JUMPDEST DUP2 DUP2 LT PUSH2 0x470 JUMPI POP SWAP6 DUP4 PUSH1 0x1 SWAP6 SWAP7 SWAP8 LT PUSH2 0x457 JUMPI JUMPDEST POP POP POP DUP2 SHL ADD PUSH1 0x1 SSTORE PUSH2 0xE7 JUMP JUMPDEST ADD MLOAD PUSH1 0x0 NOT PUSH1 0xF8 DUP5 PUSH1 0x3 SHL AND SHR NOT AND SWAP1 SSTORE CODESIZE DUP1 DUP1 PUSH2 0x449 JUMP JUMPDEST SWAP2 SWAP3 PUSH1 0x20 PUSH1 0x1 DUP2 SWAP3 DUP7 DUP12 ADD MLOAD DUP2 SSTORE ADD SWAP5 ADD SWAP3 ADD PUSH2 0x434 JUMP JUMPDEST PUSH1 0x1 PUSH1 0x0 MSTORE PUSH2 0x4D1 SWAP1 PUSH32 0xB10E2D527612073B26EECDFD717E6A320CF44B4AFAC2B0732D9FCBE2B7FA0CF6 PUSH1 0x1F DUP5 ADD PUSH1 0x5 SHR DUP2 ADD SWAP2 PUSH1 0x20 DUP6 LT PUSH2 0x337 JUMPI PUSH1 0x1F ADD PUSH1 0x5 SHR ADD SWAP1 PUSH2 0x5A6 JUMP JUMPDEST CODESIZE PUSH2 0xB7 JUMP JUMPDEST PUSH1 0x0 DUP1 REVERT JUMPDEST PUSH1 0x40 MLOAD SWAP2 SWAP1 PUSH1 0x1F ADD PUSH1 0x1F NOT AND DUP3 ADD PUSH1 0x1 PUSH1 0x1 PUSH1 0x40 SHL SUB DUP2 GT DUP4 DUP3 LT OR PUSH2 0x341 JUMPI PUSH1 0x40 MSTORE JUMP JUMPDEST DUP2 PUSH1 0x1F DUP3 ADD SLT ISZERO PUSH2 0x4D7 JUMPI DUP1 MLOAD SWAP1 PUSH1 0x1 PUSH1 0x1 PUSH1 0x40 SHL SUB DUP3 GT PUSH2 0x341 JUMPI PUSH2 0x530 PUSH1 0x1F DUP4 ADD PUSH1 0x1F NOT AND PUSH1 0x20 ADD PUSH2 0x4DC JUMP JUMPDEST SWAP3 DUP3 DUP5 MSTORE PUSH1 0x20 DUP4 DUP4 ADD ADD GT PUSH2 0x4D7 JUMPI PUSH1 0x0 JUMPDEST DUP3 DUP2 LT PUSH2 0x557 JUMPI POP POP PUSH1 0x20 PUSH1 0x0 SWAP2 DUP4 ADD ADD MSTORE SWAP1 JUMP JUMPDEST DUP1 PUSH1 0x20 DUP1 SWAP3 DUP5 ADD ADD MLOAD DUP3 DUP3 DUP8 ADD ADD MSTORE ADD PUSH2 0x542 JUMP JUMPDEST SWAP1 PUSH1 0x1 DUP3 DUP2 SHR SWAP3 AND DUP1 ISZERO PUSH2 0x59C JUMPI JUMPDEST PUSH1 0x20 DUP4 LT EQ PUSH2 0x586 JUMPI JUMP JUMPDEST PUSH4 0x4E487B71 PUSH1 0xE0 SHL PUSH1 0x0 MSTORE PUSH1 0x22 PUSH1 0x4 MSTORE PUSH1 0x24 PUSH1 0x0 REVERT JUMPDEST SWAP2 PUSH1 0x7F AND SWAP2 PUSH2 0x57B JUMP JUMPDEST DUP2 DUP2 LT PUSH2 0x5B1 JUMPI POP POP JUMP JUMPDEST PUSH1 0x0 DUP2 SSTORE PUSH1 0x1 ADD PUSH2 0x5A6 JUMP INVALID PUSH1 0x80 DUP1 PUSH1 0x40 MSTORE PUSH1 0x4 CALLDATASIZE LT ISZERO PUSH2 0x13 JUMPI PUSH1 0x0 DUP1 REVERT JUMPDEST PUSH1 0x0 CALLDATALOAD PUSH1 0xE0 SHR SWAP1 DUP2 PUSH4 0x331553B EQ PUSH2 0x1F84 JUMPI POP DUP1 PUSH4 0x8CFBDE5 EQ PUSH2 0x1EF4 JUMPI DUP1 PUSH4 0x989BEFB EQ PUSH2 0x1ECE JUMPI DUP1 PUSH4 0x9EEF43E EQ PUSH2 0x1E80 JUMPI DUP1 PUSH4 0xCA5C1A1 EQ PUSH2 0x1DDE JUMPI DUP1 PUSH4 0xCE44E3A EQ PUSH2 0x1DB5 JUMPI DUP1 PUSH4 0x110342AD EQ PUSH2 0x1CFB JUMPI DUP1 PUSH4 0x13AF4035 EQ PUSH2 0x1C49 JUMPI DUP1 PUSH4 0x142AE1BD EQ PUSH2 0x1C23 JUMPI DUP1 PUSH4 0x1DE514A9 EQ PUSH2 0x1BD3 JUMPI DUP1 PUSH4 0x22E8C87D EQ PUSH2 0x1A4C JUMPI DUP1 PUSH4 0x23CB0F83 EQ PUSH2 0x1A23 JUMPI DUP1 PUSH4 0x256B5A02 EQ PUSH2 0x1918 JUMPI DUP1 PUSH4 0x282B065A EQ PUSH2 0x1732 JUMPI DUP1 PUSH4 0x2C3E4553 EQ PUSH2 0x170E JUMPI DUP1 PUSH4 0x2E49D78B EQ PUSH2 0x167B JUMPI DUP1 PUSH4 0x36D52ED7 EQ PUSH2 0x165D JUMPI DUP1 PUSH4 0x3856FCDF EQ PUSH2 0x1534 JUMPI DUP1 PUSH4 0x42C83862 EQ PUSH2 0x1505 JUMPI DUP1 PUSH4 0x44D00F82 EQ PUSH2 0x14E9 JUMPI DUP1 PUSH4 0x451E6C78 EQ PUSH2 0x1448 JUMPI DUP1 PUSH4 0x4E69D560 EQ PUSH2 0x1420 JUMPI DUP1 PUSH4 0x62F8E6C7 EQ PUSH2 0x13F6 JUMPI DUP1 PUSH4 0x652B9B41 EQ PUSH2 0x13BD JUMPI DUP1 PUSH4 0x6E8E0956 EQ PUSH2 0x12F6 JUMPI DUP1 PUSH4 0x74D4E491 EQ PUSH2 0x12D8 JUMPI DUP1 PUSH4 0x78121DD4 EQ PUSH2 0x12AE JUMPI DUP1 PUSH4 0x7E05F5A8 EQ PUSH2 0x1284 JUMPI DUP1 PUSH4 0x7E79E8BA EQ PUSH2 0x1260 JUMPI DUP1 PUSH4 0x80B48FC9 EQ PUSH2 0x11D2 JUMPI DUP1 PUSH4 0x893D20E8 EQ PUSH2 0x11A9 JUMPI DUP1 PUSH4 0x8C64EA4A EQ PUSH2 0x1180 JUMPI DUP1 PUSH4 0x9346CD2B EQ PUSH2 0xF9D JUMPI DUP1 PUSH4 0xA414B379 EQ PUSH2 0xE92 JUMPI DUP1 PUSH4 0xA6A66072 EQ PUSH2 0xD47 JUMPI DUP1 PUSH4 0xBA681D0D EQ PUSH2 0xB4A JUMPI DUP1 PUSH4 0xBEA6998F EQ PUSH2 0xA8C JUMPI DUP1 PUSH4 0xC16A836B EQ PUSH2 0xA68 JUMPI DUP1 PUSH4 0xCEB68C23 EQ PUSH2 0x8BD JUMPI DUP1 PUSH4 0xD32AC670 EQ PUSH2 0x87E JUMPI DUP1 PUSH4 0xD92BE7F6 EQ PUSH2 0x655 JUMPI DUP1 PUSH4 0xDB920B77 EQ PUSH2 0x621 JUMPI DUP1 PUSH4 0xE0F478CB EQ PUSH2 0x5DF JUMPI DUP1 PUSH4 0xE169F438 EQ PUSH2 0x4C6 JUMPI DUP1 PUSH4 0xFCE8BAF7 EQ PUSH2 0x4A3 JUMPI PUSH4 0xFEAC17F2 EQ PUSH2 0x219 JUMPI PUSH1 0x0 DUP1 REVERT JUMPDEST CALLVALUE PUSH2 0x49E JUMPI PUSH1 0x20 CALLDATASIZE PUSH1 0x3 NOT ADD SLT PUSH2 0x49E JUMPI PUSH1 0x4 CALLDATALOAD DUP1 ISZERO ISZERO DUP1 SWAP2 SUB PUSH2 0x49E JUMPI PUSH1 0x0 DUP1 PUSH1 0x7 SLOAD SWAP1 JUMPDEST DUP2 DUP2 LT PUSH2 0x469 JUMPI JUMPDEST POP POP ISZERO PUSH2 0x459 JUMPI PUSH1 0xFF PUSH1 0xC SLOAD AND ISZERO PUSH2 0x448 JUMPI CALLER PUSH1 0x0 MSTORE PUSH1 0x9 PUSH1 0x20 MSTORE PUSH1 0xFF PUSH1 0x40 PUSH1 0x0 KECCAK256 SLOAD AND PUSH2 0x437 JUMPI CALLER PUSH1 0x0 MSTORE PUSH1 0x9 PUSH1 0x20 MSTORE PUSH1 0x40 PUSH1 0x0 KECCAK256 PUSH1 0xFF NOT DUP2 SLOAD AND PUSH1 0xFF DUP4 AND OR SWAP1 SSTORE PUSH1 0xA SLOAD PUSH1 0x1 PUSH1 0x40 SHL DUP2 LT ISZERO PUSH2 0x421 JUMPI PUSH2 0x2AE DUP2 PUSH1 0x1 PUSH2 0x2CC SWAP4 ADD PUSH1 0xA SSTORE PUSH1 0xA PUSH2 0x21A5 JUMP JUMPDEST DUP2 SLOAD PUSH1 0x1 PUSH1 0x1 PUSH1 0xA0 SHL SUB PUSH1 0x3 SWAP3 SWAP1 SWAP3 SHL SWAP2 DUP3 SHL NOT AND CALLER SWAP1 SWAP2 SHL OR SWAP1 SSTORE JUMP JUMPDEST PUSH1 0x1 PUSH1 0x1 PUSH1 0x40 SHL SUB TIMESTAMP AND SWAP1 PUSH1 0x40 MLOAD SWAP1 DUP2 MSTORE DUP2 PUSH1 0x20 DUP3 ADD MSTORE PUSH32 0x822D6EE5C173DA0EC92DA61257AE046A02C578B17F7B63E7BFECED180C271E6B PUSH1 0x40 CALLER SWAP3 LOG2 PUSH1 0xA SLOAD PUSH1 0x0 SWAP1 DUP1 DUP3 JUMPDEST DUP3 DUP2 LT PUSH2 0x385 JUMPI POP POP PUSH1 0x1 SHR LT PUSH2 0x325 JUMPI STOP JUMPDEST PUSH1 0x20 PUSH32 0x63BED6C5A05567805B3B0682AAC4A3B8058590DE810204CB3055B063DD8333AD SWAP2 PUSH1 0x1 PUSH1 0xB SLOAD PUSH9 0xFFFFFFFFFFFFFFFF00 TIMESTAMP PUSH1 0x8 SHL AND SWAP1 PUSH9 0xFFFFFFFFFFFFFFFFFF NOT AND OR OR PUSH1 0xB SSTORE PUSH1 0x2 PUSH1 0xFF NOT PUSH1 0x5 SLOAD AND OR PUSH1 0x5 SSTORE PUSH1 0x40 MLOAD SWAP1 DUP2 MSTORE LOG1 STOP JUMPDEST PUSH1 0x0 DUP3 DUP3 LT ISZERO PUSH2 0x40D JUMPI PUSH1 0xA SWAP1 MSTORE PUSH32 0xC65A7BB8D6351C1CF70C95A316CC6A92839C986682D98BC35F958F4883F9D2A8 DUP2 ADD SLOAD PUSH1 0x1 PUSH1 0x1 PUSH1 0xA0 SHL SUB AND PUSH1 0x0 SWAP1 DUP2 MSTORE PUSH1 0x9 PUSH1 0x20 MSTORE PUSH1 0x40 DUP2 KECCAK256 SLOAD PUSH1 0xFF AND PUSH2 0x3E0 JUMPI JUMPDEST POP PUSH1 0x1 ADD PUSH2 0x312 JUMP JUMPDEST SWAP1 SWAP4 SWAP1 PUSH1 0x0 NOT DUP3 EQ PUSH2 0x3F9 JUMPI POP PUSH1 0x1 DUP1 SWAP2 ADD SWAP4 SWAP1 PUSH2 0x3D7 JUMP JUMPDEST PUSH4 0x4E487B71 PUSH1 0xE0 SHL DUP2 MSTORE PUSH1 0x11 PUSH1 0x4 MSTORE PUSH1 0x24 SWAP1 REVERT JUMPDEST PUSH4 0x4E487B71 PUSH1 0xE0 SHL DUP2 MSTORE PUSH1 0x32 PUSH1 0x4 MSTORE PUSH1 0x24 SWAP1 REVERT JUMPDEST PUSH4 0x4E487B71 PUSH1 0xE0 SHL PUSH1 0x0 MSTORE PUSH1 0x41 PUSH1 0x4 MSTORE PUSH1 0x24 PUSH1 0x0 REVERT JUMPDEST PUSH4 0x6EA01C3D PUSH1 0xE0 SHL PUSH1 0x0 MSTORE PUSH1 0x4 PUSH1 0x0 REVERT JUMPDEST PUSH4 0x1E2C79F5 PUSH1 0xE2 SHL PUSH1 0x0 MSTORE PUSH1 0x4 PUSH1 0x0 REVERT JUMPDEST PUSH3 0x82B429 PUSH1 0xE8 SHL PUSH1 0x0 MSTORE PUSH1 0x4 PUSH1 0x0 REVERT JUMPDEST PUSH2 0x472 DUP2 PUSH2 0x218A JUMP JUMPDEST SWAP1 SLOAD PUSH1 0x3 SWAP2 SWAP1 SWAP2 SHL SHR PUSH1 0x1 PUSH1 0x1 PUSH1 0xA0 SHL SUB AND CALLER EQ PUSH2 0x492 JUMPI PUSH1 0x1 ADD PUSH2 0x23F JUMP JUMPDEST POP POP POP PUSH1 0x1 CODESIZE DUP1 PUSH2 0x247 JUMP JUMPDEST PUSH1 0x0 DUP1 REVERT JUMPDEST CALLVALUE PUSH2 0x49E JUMPI PUSH1 0x0 CALLDATASIZE PUSH1 0x3 NOT ADD SLT PUSH2 0x49E JUMPI PUSH1 0x20 PUSH1 0xFF PUSH1 0xC SLOAD AND PUSH1 0x40 MLOAD SWAP1 ISZERO ISZERO DUP2 MSTORE RETURN JUMPDEST CALLVALUE PUSH2 0x49E JUMPI PUSH1 0x0 CALLDATASIZE PUSH1 0x3 NOT ADD SLT PUSH2 0x49E JUMPI PUSH1 0x0 DUP1 PUSH1 0x7 SLOAD SWAP1 JUMPDEST DUP2 DUP2 LT PUSH2 0x5AA JUMPI JUMPDEST POP POP ISZERO PUSH2 0x459 JUMPI PUSH1 0xFF PUSH1 0xC SLOAD AND ISZERO PUSH2 0x448 JUMPI PUSH1 0xB SLOAD PUSH1 0xFF DUP2 AND ISZERO PUSH2 0x448 JUMPI PUSH1 0x1 PUSH1 0x1 PUSH1 0x40 SHL SUB DUP1 PUSH1 0x5 SLOAD PUSH1 0x8 SHR AND SWAP2 PUSH1 0x8 SHR AND ADD PUSH1 0x1 PUSH1 0x1 PUSH1 0x40 SHL SUB DUP2 GT PUSH2 0x594 JUMPI PUSH1 0x1 PUSH1 0x1 PUSH1 0x40 SHL SUB AND TIMESTAMP LT PUSH2 0x448 JUMPI PUSH1 0x5 DUP1 SLOAD PUSH1 0xFF PUSH8 0xFFFFFFFFFFFFFFFF PUSH1 0x88 SHL ADD NOT AND TIMESTAMP PUSH1 0x88 SHL PUSH1 0x1 PUSH1 0x88 SHL PUSH1 0x1 PUSH1 0xC8 SHL SUB AND OR PUSH1 0x3 SWAP1 DUP2 OR SWAP1 SWAP2 SSTORE PUSH1 0x40 MLOAD SWAP1 DUP2 MSTORE PUSH32 0x4E00E6A81CCBF2771640BA8CC5B7DC33DA28CFDA3647EF3B84F30E9B8C8EDEA SWAP1 PUSH1 0x20 SWAP1 LOG1 STOP JUMPDEST PUSH4 0x4E487B71 PUSH1 0xE0 SHL PUSH1 0x0 MSTORE PUSH1 0x11 PUSH1 0x4 MSTORE PUSH1 0x24 PUSH1 0x0 REVERT JUMPDEST PUSH2 0x5B3 DUP2 PUSH2 0x218A JUMP JUMPDEST SWAP1 SLOAD PUSH1 0x3 SWAP2 SWAP1 SWAP2 SHL SHR PUSH1 0x1 PUSH1 0x1 PUSH1 0xA0 SHL SUB AND CALLER EQ PUSH2 0x5D3 JUMPI PUSH1 0x1 ADD PUSH2 0x4DF JUMP JUMPDEST POP POP POP PUSH1 0x1 DUP2 DUP1 PUSH2 0x4E7 JUMP JUMPDEST CALLVALUE PUSH2 0x49E JUMPI PUSH1 0x20 CALLDATASIZE PUSH1 0x3 NOT ADD SLT PUSH2 0x49E JUMPI PUSH1 0x4 CALLDATALOAD PUSH1 0x7 SLOAD DUP2 LT ISZERO PUSH2 0x49E JUMPI PUSH2 0x608 PUSH1 0x20 SWAP2 PUSH2 0x218A JUMP JUMPDEST SWAP1 SLOAD PUSH1 0x40 MLOAD PUSH1 0x3 SWAP3 SWAP1 SWAP3 SHL SHR PUSH1 0x1 PUSH1 0x1 PUSH1 0xA0 SHL SUB AND DUP2 MSTORE RETURN JUMPDEST CALLVALUE PUSH2 0x49E JUMPI PUSH1 0x0 CALLDATASIZE PUSH1 0x3 NOT ADD SLT PUSH2 0x49E JUMPI PUSH2 0x651 PUSH2 0x63D PUSH2 0x23DF JUMP JUMPDEST PUSH1 0x40 MLOAD SWAP2 DUP3 SWAP2 PUSH1 0x20 DUP4 MSTORE PUSH1 0x20 DUP4 ADD SWAP1 PUSH2 0x1FA4 JUMP JUMPDEST SUB SWAP1 RETURN JUMPDEST CALLVALUE PUSH2 0x49E JUMPI PUSH2 0x663 CALLDATASIZE PUSH2 0x20E2 JUMP JUMPDEST PUSH1 0x0 SLOAD PUSH1 0x1 PUSH1 0x1 PUSH1 0xA0 SHL SUB AND CALLER SUB PUSH2 0x459 JUMPI PUSH1 0xFF PUSH1 0x5 SLOAD AND PUSH1 0x4 DUP2 LT ISZERO PUSH2 0x868 JUMPI PUSH2 0x857 JUMPI DUP1 MLOAD PUSH1 0x1 PUSH1 0x1 PUSH1 0x40 SHL SUB DUP2 GT PUSH2 0x421 JUMPI PUSH2 0x6A3 PUSH1 0x4 SLOAD PUSH2 0x21BD JUMP JUMPDEST PUSH1 0x1F DUP2 GT PUSH2 0x7EA JUMPI JUMPDEST POP PUSH1 0x20 PUSH1 0x1F DUP3 GT PUSH1 0x1 EQ PUSH2 0x766 JUMPI SWAP2 DUP2 PUSH2 0x756 SWAP3 PUSH1 0x0 DUP1 MLOAD PUSH1 0x20 PUSH2 0x2598 DUP4 CODECOPY DUP2 MLOAD SWAP2 MSTORE SWAP5 PUSH1 0x0 SWAP2 PUSH2 0x75B JUMPI JUMPDEST POP DUP2 PUSH1 0x1 SHL SWAP2 PUSH1 0x0 NOT SWAP1 PUSH1 0x3 SHL SHR NOT AND OR PUSH1 0x4 SSTORE JUMPDEST PUSH1 0x5 SLOAD PUSH1 0x1 PUSH1 0x1 PUSH1 0x40 SHL SUB PUSH1 0x88 SHL TIMESTAMP PUSH1 0x88 SHL AND SWAP1 PUSH1 0x1 PUSH1 0x1 PUSH1 0x40 SHL SUB PUSH1 0x88 SHL NOT AND OR PUSH1 0x5 SSTORE PUSH1 0x40 MLOAD SWAP2 DUP3 SWAP2 PUSH1 0x80 DUP4 MSTORE PUSH2 0x748 PUSH2 0x73B PUSH2 0x72E PUSH1 0x80 DUP7 ADD PUSH2 0x21F7 JUMP JUMPDEST DUP6 DUP2 SUB PUSH1 0x20 DUP8 ADD MSTORE PUSH2 0x2286 JUMP JUMPDEST DUP5 DUP2 SUB PUSH1 0x40 DUP7 ADD MSTORE PUSH2 0x22F9 JUMP JUMPDEST SWAP1 DUP4 DUP3 SUB PUSH1 0x60 DUP6 ADD MSTORE PUSH2 0x1FE1 JUMP JUMPDEST SUB SWAP1 LOG1 STOP JUMPDEST SWAP1 POP DUP3 ADD MLOAD DUP6 PUSH2 0x6D8 JUMP JUMPDEST PUSH1 0x1F NOT DUP3 AND SWAP1 PUSH1 0x4 PUSH1 0x0 MSTORE PUSH1 0x0 DUP1 MLOAD PUSH1 0x20 PUSH2 0x2578 DUP4 CODECOPY DUP2 MLOAD SWAP2 MSTORE SWAP2 PUSH1 0x0 JUMPDEST DUP2 DUP2 LT PUSH2 0x7D2 JUMPI POP SWAP3 PUSH1 0x0 DUP1 MLOAD PUSH1 0x20 PUSH2 0x2598 DUP4 CODECOPY DUP2 MLOAD SWAP2 MSTORE SWAP5 SWAP3 PUSH1 0x1 SWAP3 DUP3 PUSH2 0x756 SWAP7 LT PUSH2 0x7B9 JUMPI JUMPDEST POP POP DUP2 SHL ADD PUSH1 0x4 SSTORE PUSH2 0x6ED JUMP JUMPDEST DUP5 ADD MLOAD PUSH1 0x0 NOT PUSH1 0xF8 DUP5 PUSH1 0x3 SHL AND SHR NOT AND SWAP1 SSTORE DUP6 DUP1 PUSH2 0x7AC JUMP JUMPDEST SWAP2 SWAP3 PUSH1 0x20 PUSH1 0x1 DUP2 SWAP3 DUP7 DUP10 ADD MLOAD DUP2 SSTORE ADD SWAP5 ADD SWAP3 ADD PUSH2 0x784 JUMP JUMPDEST PUSH1 0x4 PUSH1 0x0 MSTORE PUSH1 0x1F DUP3 ADD PUSH1 0x5 SHR PUSH1 0x0 DUP1 MLOAD PUSH1 0x20 PUSH2 0x2578 DUP4 CODECOPY DUP2 MLOAD SWAP2 MSTORE ADD SWAP1 PUSH1 0x20 DUP4 LT PUSH2 0x841 JUMPI JUMPDEST PUSH1 0x1F ADD PUSH1 0x5 SHR PUSH1 0x0 DUP1 MLOAD PUSH1 0x20 PUSH2 0x2578 DUP4 CODECOPY DUP2 MLOAD SWAP2 MSTORE ADD SWAP1 JUMPDEST DUP2 DUP2 LT PUSH2 0x835 JUMPI POP PUSH2 0x6AC JUMP JUMPDEST PUSH1 0x0 DUP2 SSTORE PUSH1 0x1 ADD PUSH2 0x828 JUMP JUMPDEST PUSH1 0x0 DUP1 MLOAD PUSH1 0x20 PUSH2 0x2578 DUP4 CODECOPY DUP2 MLOAD SWAP2 MSTORE SWAP2 POP PUSH2 0x810 JUMP JUMPDEST PUSH4 0x3613FE95 PUSH1 0xE0 SHL PUSH1 0x0 MSTORE PUSH1 0x4 PUSH1 0x0 REVERT JUMPDEST PUSH4 0x4E487B71 PUSH1 0xE0 SHL PUSH1 0x0 MSTORE PUSH1 0x21 PUSH1 0x4 MSTORE PUSH1 0x24 PUSH1 0x0 REVERT JUMPDEST CALLVALUE PUSH2 0x49E JUMPI PUSH1 0x0 CALLDATASIZE PUSH1 0x3 NOT ADD SLT PUSH2 0x49E JUMPI PUSH2 0x651 PUSH1 0x40 MLOAD PUSH2 0x8A9 DUP2 PUSH2 0x8A2 DUP2 PUSH2 0x21F7 JUMP JUMPDEST SUB DUP3 PUSH2 0x20C1 JUMP JUMPDEST PUSH1 0x40 MLOAD SWAP2 DUP3 SWAP2 PUSH1 0x20 DUP4 MSTORE PUSH1 0x20 DUP4 ADD SWAP1 PUSH2 0x1FE1 JUMP JUMPDEST CALLVALUE PUSH2 0x49E JUMPI PUSH1 0x20 CALLDATASIZE PUSH1 0x3 NOT ADD SLT PUSH2 0x49E JUMPI PUSH1 0x4 CALLDATALOAD PUSH1 0x1 PUSH1 0x1 PUSH1 0xA0 SHL SUB DUP2 AND SWAP1 DUP2 SWAP1 SUB PUSH2 0x49E JUMPI PUSH1 0x0 SLOAD PUSH1 0x1 PUSH1 0x1 PUSH1 0xA0 SHL SUB AND CALLER SUB PUSH2 0x459 JUMPI PUSH1 0xFF PUSH1 0x5 SLOAD AND PUSH1 0x4 DUP2 LT ISZERO PUSH2 0x868 JUMPI PUSH2 0x857 JUMPI DUP1 ISZERO PUSH2 0xA57 JUMPI PUSH1 0x6 SLOAD PUSH1 0x0 NOT PUSH1 0x0 JUMPDEST DUP3 DUP2 LT PUSH2 0xA26 JUMPI JUMPDEST POP PUSH1 0x0 NOT DUP2 EQ PUSH2 0xA15 JUMPI PUSH1 0x0 NOT DUP3 ADD SWAP2 DUP3 GT PUSH2 0x594 JUMPI PUSH2 0x95C PUSH2 0x944 PUSH2 0x980 SWAP4 PUSH2 0x2159 JUMP JUMPDEST SWAP1 SLOAD PUSH1 0x3 SWAP2 SWAP1 SWAP2 SHL SHR PUSH1 0x1 PUSH1 0x1 PUSH1 0xA0 SHL SUB AND SWAP2 PUSH2 0x2159 JUMP JUMPDEST DUP2 SLOAD PUSH1 0x1 PUSH1 0x1 PUSH1 0xA0 SHL SUB SWAP4 DUP5 AND PUSH1 0x3 SWAP3 SWAP1 SWAP3 SHL SWAP2 DUP3 SHL SWAP4 SWAP1 SWAP2 SHL NOT AND SWAP2 SWAP1 SWAP2 OR SWAP1 SSTORE JUMP JUMPDEST PUSH1 0x6 SLOAD DUP1 ISZERO PUSH2 0x9FF JUMPI PUSH1 0x0 NOT ADD PUSH2 0x9B0 PUSH2 0x99B DUP3 PUSH1 0x6 PUSH2 0x21A5 JUMP JUMPDEST DUP2 SLOAD SWAP1 PUSH1 0x1 DUP1 PUSH1 0xA0 SHL SUB SWAP1 PUSH1 0x3 SHL SHL NOT AND SWAP1 SSTORE JUMP JUMPDEST PUSH1 0x6 SSTORE PUSH1 0x5 DUP1 SLOAD PUSH8 0xFFFFFFFFFFFFFFFF PUSH1 0x88 SHL NOT AND TIMESTAMP PUSH1 0x88 SHL PUSH1 0x1 PUSH1 0x88 SHL PUSH1 0x1 PUSH1 0xC8 SHL SUB AND OR SWAP1 SSTORE PUSH32 0xE71F3A50E5AD81964F352C411F1D45E35438ECD1ACECEF59AC81D9FBBF6CBC0A PUSH1 0x0 DUP1 LOG2 STOP JUMPDEST PUSH4 0x4E487B71 PUSH1 0xE0 SHL PUSH1 0x0 MSTORE PUSH1 0x31 PUSH1 0x4 MSTORE PUSH1 0x24 PUSH1 0x0 REVERT JUMPDEST PUSH4 0xDEE790FB PUSH1 0xE0 SHL PUSH1 0x0 MSTORE PUSH1 0x4 PUSH1 0x0 REVERT JUMPDEST DUP4 PUSH2 0xA30 DUP3 PUSH2 0x2159 JUMP JUMPDEST SWAP1 SLOAD PUSH1 0x3 SWAP2 SWAP1 SWAP2 SHL SHR PUSH1 0x1 PUSH1 0x1 PUSH1 0xA0 SHL SUB AND EQ PUSH2 0xA4F JUMPI PUSH1 0x1 ADD PUSH2 0x917 JUMP JUMPDEST SWAP1 POP DUP4 PUSH2 0x91F JUMP JUMPDEST PUSH4 0xE6C4247B PUSH1 0xE0 SHL PUSH1 0x0 MSTORE PUSH1 0x4 PUSH1 0x0 REVERT JUMPDEST CALLVALUE PUSH2 0x49E JUMPI PUSH1 0x0 CALLDATASIZE PUSH1 0x3 NOT ADD SLT PUSH2 0x49E JUMPI PUSH2 0x651 PUSH1 0x40 MLOAD PUSH2 0x8A9 DUP2 PUSH2 0x8A2 DUP2 PUSH2 0x236C JUMP JUMPDEST CALLVALUE PUSH2 0x49E JUMPI PUSH1 0x0 CALLDATASIZE PUSH1 0x3 NOT ADD SLT PUSH2 0x49E JUMPI PUSH1 0x0 SLOAD PUSH1 0x40 MLOAD SWAP1 PUSH1 0x1 PUSH1 0x1 PUSH1 0xA0 SHL SUB AND PUSH2 0xAC1 DUP3 PUSH2 0xABA DUP2 PUSH2 0x21F7 JUMP JUMPDEST SUB DUP4 PUSH2 0x20C1 JUMP JUMPDEST PUSH2 0x651 PUSH1 0x40 MLOAD PUSH2 0xAD4 DUP2 PUSH2 0x8A2 DUP2 PUSH2 0x2286 JUMP JUMPDEST PUSH1 0x40 MLOAD PUSH2 0xAE4 DUP2 PUSH2 0x8A2 DUP2 PUSH2 0x22F9 JUMP JUMPDEST PUSH1 0x40 MLOAD SWAP2 PUSH2 0xAFC DUP4 PUSH2 0xAF5 DUP2 PUSH2 0x236C JUMP JUMPDEST SUB DUP5 PUSH2 0x20C1 JUMP JUMPDEST PUSH1 0x5 SLOAD SWAP6 PUSH1 0x40 MLOAD SWAP7 DUP8 SWAP7 PUSH1 0xFF DUP3 PUSH1 0xD0 SHR AND SWAP6 PUSH1 0xFF DUP4 PUSH1 0xC8 SHR AND SWAP6 PUSH1 0x1 PUSH1 0x1 PUSH1 0x40 SHL SUB DUP5 PUSH1 0x88 SHR AND SWAP6 PUSH1 0x1 PUSH1 0x1 PUSH1 0x40 SHL SUB DUP6 PUSH1 0x48 SHR AND SWAP6 PUSH1 0xFF PUSH1 0x1 PUSH1 0x1 PUSH1 0x40 SHL SUB DUP8 PUSH1 0x8 SHR AND SWAP7 AND SWAP5 DUP13 PUSH2 0x202F JUMP JUMPDEST CALLVALUE PUSH2 0x49E JUMPI PUSH2 0xB58 CALLDATASIZE PUSH2 0x20E2 JUMP JUMPDEST PUSH1 0x0 SLOAD PUSH1 0x1 PUSH1 0x1 PUSH1 0xA0 SHL SUB AND CALLER SUB PUSH2 0x459 JUMPI PUSH1 0xFF PUSH1 0x5 SLOAD AND PUSH1 0x4 DUP2 LT ISZERO PUSH2 0x868 JUMPI PUSH2 0x857 JUMPI DUP1 MLOAD PUSH1 0x1 PUSH1 0x1 PUSH1 0x40 SHL SUB DUP2 GT PUSH2 0x421 JUMPI PUSH2 0xB98 PUSH1 0x1 SLOAD PUSH2 0x21BD JUMP JUMPDEST PUSH1 0x1F DUP2 GT PUSH2 0xCDA JUMPI JUMPDEST POP PUSH1 0x20 PUSH1 0x1F DUP3 GT PUSH1 0x1 EQ PUSH2 0xC56 JUMPI SWAP2 DUP2 PUSH2 0xC24 SWAP3 PUSH1 0x0 DUP1 MLOAD PUSH1 0x20 PUSH2 0x2598 DUP4 CODECOPY DUP2 MLOAD SWAP2 MSTORE SWAP5 PUSH1 0x0 SWAP2 PUSH2 0xC4B JUMPI JUMPDEST POP DUP2 PUSH1 0x1 SHL SWAP2 PUSH1 0x0 NOT SWAP1 PUSH1 0x3 SHL SHR NOT AND OR PUSH1 0x1 SSTORE JUMPDEST PUSH1 0x5 SLOAD PUSH1 0x1 PUSH1 0x1 PUSH1 0x40 SHL SUB PUSH1 0x88 SHL TIMESTAMP PUSH1 0x88 SHL AND SWAP1 PUSH1 0x1 PUSH1 0x1 PUSH1 0x40 SHL SUB PUSH1 0x88 SHL NOT AND OR PUSH1 0x5 SSTORE PUSH2 0x756 PUSH2 0xC3E PUSH2 0xC31 PUSH1 0x40 MLOAD SWAP5 DUP6 SWAP5 PUSH1 0x80 DUP7 MSTORE PUSH1 0x80 DUP7 ADD SWAP1 PUSH2 0x1FE1 JUMP JUMPDEST DUP5 DUP2 SUB PUSH1 0x20 DUP7 ADD MSTORE PUSH2 0x2286 JUMP JUMPDEST DUP4 DUP2 SUB PUSH1 0x40 DUP6 ADD MSTORE PUSH2 0x22F9 JUMP JUMPDEST DUP3 DUP2 SUB PUSH1 0x60 DUP5 ADD MSTORE PUSH2 0x236C JUMP JUMPDEST SWAP1 POP DUP3 ADD MLOAD DUP6 PUSH2 0xBCD JUMP JUMPDEST PUSH1 0x1F NOT DUP3 AND SWAP1 PUSH1 0x1 PUSH1 0x0 MSTORE PUSH1 0x0 DUP1 MLOAD PUSH1 0x20 PUSH2 0x2558 DUP4 CODECOPY DUP2 MLOAD SWAP2 MSTORE SWAP2 PUSH1 0x0 JUMPDEST DUP2 DUP2 LT PUSH2 0xCC2 JUMPI POP SWAP3 PUSH1 0x0 DUP1 MLOAD PUSH1 0x20 PUSH2 0x2598 DUP4 CODECOPY DUP2 MLOAD SWAP2 MSTORE SWAP5 SWAP3 PUSH1 0x1 SWAP3 DUP3 PUSH2 0xC24 SWAP7 LT PUSH2 0xCA9 JUMPI JUMPDEST POP POP DUP2 SHL ADD PUSH1 0x1 SSTORE PUSH2 0xBE2 JUMP JUMPDEST DUP5 ADD MLOAD PUSH1 0x0 NOT PUSH1 0xF8 DUP5 PUSH1 0x3 SHL AND SHR NOT AND SWAP1 SSTORE DUP6 DUP1 PUSH2 0xC9C JUMP JUMPDEST SWAP2 SWAP3 PUSH1 0x20 PUSH1 0x1 DUP2 SWAP3 DUP7 DUP10 ADD MLOAD DUP2 SSTORE ADD SWAP5 ADD SWAP3 ADD PUSH2 0xC74 JUMP JUMPDEST PUSH1 0x1 PUSH1 0x0 MSTORE PUSH1 0x1F DUP3 ADD PUSH1 0x5 SHR PUSH1 0x0 DUP1 MLOAD PUSH1 0x20 PUSH2 0x2558 DUP4 CODECOPY DUP2 MLOAD SWAP2 MSTORE ADD SWAP1 PUSH1 0x20 DUP4 LT PUSH2 0xD31 JUMPI JUMPDEST PUSH1 0x1F ADD PUSH1 0x5 SHR PUSH1 0x0 DUP1 MLOAD PUSH1 0x20 PUSH2 0x2558 DUP4 CODECOPY DUP2 MLOAD SWAP2 MSTORE ADD SWAP1 JUMPDEST DUP2 DUP2 LT PUSH2 0xD25 JUMPI POP PUSH2 0xBA1 JUMP JUMPDEST PUSH1 0x0 DUP2 SSTORE PUSH1 0x1 ADD PUSH2 0xD18 JUMP JUMPDEST PUSH1 0x0 DUP1 MLOAD PUSH1 0x20 PUSH2 0x2558 DUP4 CODECOPY DUP2 MLOAD SWAP2 MSTORE SWAP2 POP PUSH2 0xD00 JUMP JUMPDEST CALLVALUE PUSH2 0x49E JUMPI PUSH1 0x20 CALLDATASIZE PUSH1 0x3 NOT ADD SLT PUSH2 0x49E JUMPI PUSH1 0x4 CALLDATALOAD PUSH1 0x1 PUSH1 0x1 PUSH1 0xA0 SHL SUB DUP2 AND SWAP1 DUP2 SWAP1 SUB PUSH2 0x49E JUMPI PUSH1 0x0 SLOAD PUSH1 0x1 PUSH1 0x1 PUSH1 0xA0 SHL SUB AND CALLER SUB PUSH2 0x459 JUMPI PUSH1 0xFF PUSH1 0x5 SLOAD AND PUSH1 0x4 DUP2 LT ISZERO PUSH2 0x868 JUMPI PUSH2 0x857 JUMPI DUP1 ISZERO PUSH2 0xA57 JUMPI PUSH1 0x7 SLOAD PUSH1 0x0 NOT PUSH1 0x0 JUMPDEST DUP3 DUP2 LT PUSH2 0xE61 JUMPI JUMPDEST POP PUSH1 0x0 NOT DUP2 EQ PUSH2 0xE50 JUMPI PUSH1 0x0 NOT DUP3 ADD SWAP2 DUP3 GT PUSH2 0x594 JUMPI PUSH2 0x95C PUSH2 0xDCE PUSH2 0xDE6 SWAP4 PUSH2 0x218A JUMP JUMPDEST SWAP1 SLOAD PUSH1 0x3 SWAP2 SWAP1 SWAP2 SHL SHR PUSH1 0x1 PUSH1 0x1 PUSH1 0xA0 SHL SUB AND SWAP2 PUSH2 0x218A JUMP JUMPDEST PUSH1 0x7 SLOAD DUP1 ISZERO PUSH2 0x9FF JUMPI PUSH1 0x0 NOT ADD PUSH2 0xE01 PUSH2 0x99B DUP3 PUSH1 0x7 PUSH2 0x21A5 JUMP JUMPDEST PUSH1 0x7 SSTORE PUSH1 0x5 DUP1 SLOAD PUSH8 0xFFFFFFFFFFFFFFFF PUSH1 0x88 SHL NOT AND TIMESTAMP PUSH1 0x88 SHL PUSH1 0x1 PUSH1 0x88 SHL PUSH1 0x1 PUSH1 0xC8 SHL SUB AND OR SWAP1 SSTORE PUSH32 0x860A08EE18AA4E64441F09047DEFFA5068BDD37321E8BCB96E0914CCFCF730E6 PUSH1 0x0 DUP1 LOG2 STOP JUMPDEST PUSH4 0x4B4972A1 PUSH1 0xE1 SHL PUSH1 0x0 MSTORE PUSH1 0x4 PUSH1 0x0 REVERT JUMPDEST DUP4 PUSH2 0xE6B DUP3 PUSH2 0x218A JUMP JUMPDEST SWAP1 SLOAD PUSH1 0x3 SWAP2 SWAP1 SWAP2 SHL SHR PUSH1 0x1 PUSH1 0x1 PUSH1 0xA0 SHL SUB AND EQ PUSH2 0xE8A JUMPI PUSH1 0x1 ADD PUSH2 0xDA1 JUMP JUMPDEST SWAP1 POP DUP4 PUSH2 0xDA9 JUMP JUMPDEST CALLVALUE PUSH2 0x49E JUMPI PUSH1 0x20 CALLDATASIZE PUSH1 0x3 NOT ADD SLT PUSH2 0x49E JUMPI PUSH1 0x4 CALLDATALOAD PUSH1 0x1 PUSH1 0x1 PUSH1 0xA0 SHL SUB DUP2 AND SWAP1 DUP2 DUP2 SUB PUSH2 0x49E JUMPI PUSH1 0x0 SLOAD PUSH1 0x1 PUSH1 0x1 PUSH1 0xA0 SHL SUB AND CALLER SUB PUSH2 0x459 JUMPI PUSH1 0xFF PUSH1 0x5 SLOAD AND PUSH1 0x4 DUP2 LT ISZERO PUSH2 0x868 JUMPI PUSH2 0x857 JUMPI DUP2 ISZERO PUSH2 0xA57 JUMPI PUSH1 0x7 SLOAD PUSH1 0x0 JUMPDEST DUP2 DUP2 LT PUSH2 0xF63 JUMPI POP POP PUSH1 0x7 SLOAD SWAP1 PUSH1 0x1 PUSH1 0x40 SHL DUP3 LT ISZERO PUSH2 0x421 JUMPI PUSH2 0x95C DUP3 PUSH1 0x1 PUSH2 0xF17 SWAP5 ADD PUSH1 0x7 SSTORE PUSH1 0x7 PUSH2 0x21A5 JUMP JUMPDEST PUSH1 0x5 DUP1 SLOAD PUSH8 0xFFFFFFFFFFFFFFFF PUSH1 0x88 SHL NOT AND TIMESTAMP PUSH1 0x88 SHL PUSH1 0x1 PUSH1 0x88 SHL PUSH1 0x1 PUSH1 0xC8 SHL SUB AND OR SWAP1 SSTORE PUSH32 0xE55ED47E48E3970FDA3B83DD3773A251448B798293DD077BE58344AAD032EC69 PUSH1 0x0 DUP1 LOG2 STOP JUMPDEST DUP4 PUSH2 0xF6D DUP3 PUSH2 0x218A JUMP JUMPDEST SWAP1 SLOAD PUSH1 0x3 SWAP2 SWAP1 SWAP2 SHL SHR PUSH1 0x1 PUSH1 0x1 PUSH1 0xA0 SHL SUB AND EQ PUSH2 0xF8C JUMPI PUSH1 0x1 ADD PUSH2 0xEE9 JUMP JUMPDEST PUSH4 0x28E4C7AB PUSH1 0xE1 SHL PUSH1 0x0 MSTORE PUSH1 0x4 PUSH1 0x0 REVERT JUMPDEST CALLVALUE PUSH2 0x49E JUMPI PUSH2 0xFAB CALLDATASIZE PUSH2 0x20E2 JUMP JUMPDEST PUSH1 0x0 SLOAD PUSH1 0x1 PUSH1 0x1 PUSH1 0xA0 SHL SUB AND CALLER SUB PUSH2 0x459 JUMPI PUSH1 0xFF PUSH1 0x5 SLOAD AND PUSH1 0x4 DUP2 LT ISZERO PUSH2 0x868 JUMPI PUSH2 0x857 JUMPI DUP1 MLOAD PUSH1 0x1 PUSH1 0x1 PUSH1 0x40 SHL SUB DUP2 GT PUSH2 0x421 JUMPI PUSH2 0xFEB PUSH1 0x2 SLOAD PUSH2 0x21BD JUMP JUMPDEST PUSH1 0x1F DUP2 GT PUSH2 0x1113 JUMPI JUMPDEST POP PUSH1 0x20 PUSH1 0x1F DUP3 GT PUSH1 0x1 EQ PUSH2 0x108F JUMPI SWAP2 DUP2 PUSH2 0xC31 SWAP3 PUSH1 0x0 DUP1 MLOAD PUSH1 0x20 PUSH2 0x2598 DUP4 CODECOPY DUP2 MLOAD SWAP2 MSTORE SWAP5 PUSH1 0x0 SWAP2 PUSH2 0x1084 JUMPI JUMPDEST POP DUP2 PUSH1 0x1 SHL SWAP2 PUSH1 0x0 NOT SWAP1 PUSH1 0x3 SHL SHR NOT AND OR PUSH1 0x2 SSTORE JUMPDEST PUSH1 0x5 SLOAD PUSH1 0x1 PUSH1 0x1 PUSH1 0x40 SHL SUB PUSH1 0x88 SHL TIMESTAMP PUSH1 0x88 SHL AND SWAP1 PUSH1 0x1 PUSH1 0x1 PUSH1 0x40 SHL SUB PUSH1 0x88 SHL NOT AND OR PUSH1 0x5 SSTORE PUSH2 0x756 PUSH2 0xC3E PUSH1 0x40 MLOAD SWAP4 DUP5 SWAP4 PUSH1 0x80 DUP6 MSTORE PUSH2 0x1076 PUSH1 0x80 DUP7 ADD PUSH2 0x21F7 JUMP JUMPDEST SWAP1 DUP6 DUP3 SUB PUSH1 0x20 DUP8 ADD MSTORE PUSH2 0x1FE1 JUMP JUMPDEST SWAP1 POP DUP3 ADD MLOAD DUP6 PUSH2 0x1020 JUMP JUMPDEST PUSH1 0x1F NOT DUP3 AND SWAP1 PUSH1 0x2 PUSH1 0x0 MSTORE PUSH1 0x0 DUP1 MLOAD PUSH1 0x20 PUSH2 0x2518 DUP4 CODECOPY DUP2 MLOAD SWAP2 MSTORE SWAP2 PUSH1 0x0 JUMPDEST DUP2 DUP2 LT PUSH2 0x10FB JUMPI POP SWAP3 PUSH1 0x0 DUP1 MLOAD PUSH1 0x20 PUSH2 0x2598 DUP4 CODECOPY DUP2 MLOAD SWAP2 MSTORE SWAP5 SWAP3 PUSH1 0x1 SWAP3 DUP3 PUSH2 0xC31 SWAP7 LT PUSH2 0x10E2 JUMPI JUMPDEST POP POP DUP2 SHL ADD PUSH1 0x2 SSTORE PUSH2 0x1035 JUMP JUMPDEST DUP5 ADD MLOAD PUSH1 0x0 NOT PUSH1 0xF8 DUP5 PUSH1 0x3 SHL AND SHR NOT AND SWAP1 SSTORE DUP6 DUP1 PUSH2 0x10D5 JUMP JUMPDEST SWAP2 SWAP3 PUSH1 0x20 PUSH1 0x1 DUP2 SWAP3 DUP7 DUP10 ADD MLOAD DUP2 SSTORE ADD SWAP5 ADD SWAP3 ADD PUSH2 0x10AD JUMP JUMPDEST PUSH1 0x2 PUSH1 0x0 MSTORE PUSH1 0x1F DUP3 ADD PUSH1 0x5 SHR PUSH1 0x0 DUP1 MLOAD PUSH1 0x20 PUSH2 0x2518 DUP4 CODECOPY DUP2 MLOAD SWAP2 MSTORE ADD SWAP1 PUSH1 0x20 DUP4 LT PUSH2 0x116A JUMPI JUMPDEST PUSH1 0x1F ADD PUSH1 0x5 SHR PUSH1 0x0 DUP1 MLOAD PUSH1 0x20 PUSH2 0x2518 DUP4 CODECOPY DUP2 MLOAD SWAP2 MSTORE ADD SWAP1 JUMPDEST DUP2 DUP2 LT PUSH2 0x115E JUMPI POP PUSH2 0xFF4 JUMP JUMPDEST PUSH1 0x0 DUP2 SSTORE PUSH1 0x1 ADD PUSH2 0x1151 JUMP JUMPDEST PUSH1 0x0 DUP1 MLOAD PUSH1 0x20 PUSH2 0x2518 DUP4 CODECOPY DUP2 MLOAD SWAP2 MSTORE SWAP2 POP PUSH2 0x1139 JUMP JUMPDEST CALLVALUE PUSH2 0x49E JUMPI PUSH1 0x20 CALLDATASIZE PUSH1 0x3 NOT ADD SLT PUSH2 0x49E JUMPI PUSH1 0x4 CALLDATALOAD PUSH1 0x6 SLOAD DUP2 LT ISZERO PUSH2 0x49E JUMPI PUSH2 0x608 PUSH1 0x20 SWAP2 PUSH2 0x2159 JUMP JUMPDEST CALLVALUE PUSH2 0x49E JUMPI PUSH1 0x0 CALLDATASIZE PUSH1 0x3 NOT ADD SLT PUSH2 0x49E JUMPI PUSH1 0x0 SLOAD PUSH1 0x40 MLOAD PUSH1 0x1 PUSH1 0x1 PUSH1 0xA0 SHL SUB SWAP1 SWAP2 AND DUP2 MSTORE PUSH1 0x20 SWAP1 RETURN JUMPDEST CALLVALUE PUSH2 0x49E JUMPI PUSH1 0x20 CALLDATASIZE PUSH1 0x3 NOT ADD SLT PUSH2 0x49E JUMPI PUSH1 0x4 CALLDATALOAD PUSH1 0x1 PUSH1 0x1 PUSH1 0x40 SHL SUB DUP2 AND DUP2 SUB PUSH2 0x49E JUMPI PUSH1 0x0 SLOAD PUSH1 0x1 PUSH1 0x1 PUSH1 0xA0 SHL SUB AND CALLER SUB PUSH2 0x459 JUMPI PUSH1 0x5 SLOAD PUSH1 0xFF DUP2 AND PUSH1 0x4 DUP2 LT ISZERO PUSH2 0x868 JUMPI PUSH2 0x857 JUMPI PUSH25 0xFFFFFFFFFFFFFFFF0000000000000000FFFFFFFFFFFFFFFF00 NOT AND PUSH1 0x8 SWAP2 SWAP1 SWAP2 SHL PUSH9 0xFFFFFFFFFFFFFFFF00 AND OR TIMESTAMP PUSH1 0x88 SHL PUSH1 0x1 PUSH1 0x88 SHL PUSH1 0x1 PUSH1 0xC8 SHL SUB AND OR PUSH1 0x5 SSTORE STOP JUMPDEST CALLVALUE PUSH2 0x49E JUMPI PUSH1 0x0 CALLDATASIZE PUSH1 0x3 NOT ADD SLT PUSH2 0x49E JUMPI PUSH2 0x651 PUSH1 0x40 MLOAD PUSH2 0x8A9 DUP2 PUSH2 0x8A2 DUP2 PUSH2 0x22F9 JUMP JUMPDEST CALLVALUE PUSH2 0x49E JUMPI PUSH1 0x0 CALLDATASIZE PUSH1 0x3 NOT ADD SLT PUSH2 0x49E JUMPI PUSH1 0x20 PUSH1 0x1 PUSH1 0x1 PUSH1 0x40 SHL SUB PUSH1 0x5 SLOAD PUSH1 0x48 SHR AND PUSH1 0x40 MLOAD SWAP1 DUP2 MSTORE RETURN JUMPDEST CALLVALUE PUSH2 0x49E JUMPI PUSH1 0x0 CALLDATASIZE PUSH1 0x3 NOT ADD SLT PUSH2 0x49E JUMPI PUSH1 0x20 PUSH1 0x1 PUSH1 0x1 PUSH1 0x40 SHL SUB PUSH1 0x5 SLOAD PUSH1 0x88 SHR AND PUSH1 0x40 MLOAD SWAP1 DUP2 MSTORE RETURN JUMPDEST CALLVALUE PUSH2 0x49E JUMPI PUSH1 0x0 CALLDATASIZE PUSH1 0x3 NOT ADD SLT PUSH2 0x49E JUMPI PUSH1 0x20 PUSH1 0x6 SLOAD PUSH1 0x40 MLOAD SWAP1 DUP2 MSTORE RETURN JUMPDEST CALLVALUE PUSH2 0x49E JUMPI PUSH1 0x0 CALLDATASIZE PUSH1 0x3 NOT ADD SLT PUSH2 0x49E JUMPI PUSH1 0xFF PUSH1 0xC SLOAD AND ISZERO PUSH2 0x448 JUMPI PUSH1 0x8 SLOAD PUSH1 0xB SLOAD SWAP1 PUSH1 0x40 MLOAD SWAP2 PUSH1 0xA SLOAD DUP1 DUP5 MSTORE PUSH1 0x20 DUP5 ADD SWAP1 PUSH1 0xA PUSH1 0x0 MSTORE PUSH1 0x20 PUSH1 0x0 KECCAK256 SWAP1 PUSH1 0x0 JUMPDEST DUP2 DUP2 LT PUSH2 0x139E JUMPI POP POP POP PUSH2 0x1385 DUP5 PUSH2 0x1359 PUSH1 0x1 PUSH1 0x1 PUSH1 0x40 SHL SUB SWAP7 DUP8 SWAP5 SUB DUP3 PUSH2 0x20C1 JUMP JUMPDEST PUSH1 0x40 DUP1 MLOAD PUSH1 0x1 PUSH1 0x1 PUSH1 0xA0 SHL SUB DUP8 AND DUP2 MSTORE PUSH1 0xA0 SWAP7 DUP8 SHR SWAP1 SWAP8 AND PUSH1 0x20 DUP9 ADD MSTORE DUP7 ADD DUP6 SWAP1 MSTORE DUP6 SWAP5 DUP6 ADD SWAP1 PUSH2 0x1FA4 JUMP JUMPDEST SWAP2 PUSH1 0xFF DUP2 AND ISZERO ISZERO PUSH1 0x60 DUP6 ADD MSTORE PUSH1 0x8 SHR AND PUSH1 0x80 DUP4 ADD MSTORE SUB SWAP1 RETURN JUMPDEST DUP3 SLOAD PUSH1 0x1 PUSH1 0x1 PUSH1 0xA0 SHL SUB AND DUP5 MSTORE PUSH1 0x20 SWAP1 SWAP4 ADD SWAP3 PUSH1 0x1 SWAP3 DUP4 ADD SWAP3 ADD PUSH2 0x1336 JUMP JUMPDEST CALLVALUE PUSH2 0x49E JUMPI PUSH1 0x20 CALLDATASIZE PUSH1 0x3 NOT ADD SLT PUSH2 0x49E JUMPI PUSH1 0x4 CALLDATALOAD PUSH1 0x1 PUSH1 0x1 PUSH1 0xA0 SHL SUB DUP2 AND DUP2 SUB PUSH2 0x49E JUMPI PUSH2 0x13EC PUSH1 0x20 SWAP2 PUSH2 0x24D4 JUMP JUMPDEST PUSH1 0x40 MLOAD SWAP1 ISZERO ISZERO DUP2 MSTORE RETURN JUMPDEST CALLVALUE PUSH2 0x49E JUMPI PUSH1 0x0 CALLDATASIZE PUSH1 0x3 NOT ADD SLT PUSH2 0x49E JUMPI PUSH1 0x20 PUSH1 0x1 PUSH1 0x1 PUSH1 0x40 SHL SUB PUSH1 0x5 SLOAD PUSH1 0x8 SHR AND PUSH1 0x40 MLOAD SWAP1 DUP2 MSTORE RETURN JUMPDEST CALLVALUE PUSH2 0x49E JUMPI PUSH1 0x0 CALLDATASIZE PUSH1 0x3 NOT ADD SLT PUSH2 0x49E JUMPI PUSH1 0x20 PUSH1 0xFF PUSH1 0x5 SLOAD AND PUSH2 0x1446 PUSH1 0x40 MLOAD DUP1 SWAP3 PUSH2 0x2022 JUMP JUMPDEST RETURN JUMPDEST CALLVALUE PUSH2 0x49E JUMPI PUSH1 0x20 CALLDATASIZE PUSH1 0x3 NOT ADD SLT PUSH2 0x49E JUMPI PUSH1 0x4 CALLDATALOAD DUP1 ISZERO ISZERO DUP1 SWAP2 SUB PUSH2 0x49E JUMPI PUSH1 0x0 SLOAD PUSH1 0x1 PUSH1 0x1 PUSH1 0xA0 SHL SUB AND CALLER SUB PUSH2 0x459 JUMPI PUSH1 0x5 SLOAD PUSH1 0xFF DUP2 AND PUSH1 0x4 DUP2 LT ISZERO PUSH2 0x868 JUMPI PUSH2 0x857 JUMPI PUSH9 0xFFFFFFFFFFFFFFFFFF PUSH1 0x88 SHL NOT AND PUSH1 0xC8 DUP3 SWAP1 SHL PUSH1 0xFF PUSH1 0xC8 SHL AND OR TIMESTAMP PUSH1 0x88 SHL PUSH1 0x1 PUSH1 0x88 SHL PUSH1 0x1 PUSH1 0xC8 SHL SUB AND OR PUSH1 0x5 SSTORE PUSH1 0x40 MLOAD SWAP1 DUP2 MSTORE PUSH32 0x36D6322C229A6F6A424AE1322690455060AAFC44103785AF66DE5D98A8302EFD SWAP1 PUSH1 0x20 SWAP1 LOG1 STOP JUMPDEST CALLVALUE PUSH2 0x49E JUMPI PUSH1 0x0 CALLDATASIZE PUSH1 0x3 NOT ADD SLT PUSH2 0x49E JUMPI PUSH2 0x651 PUSH2 0x63D PUSH2 0x2435 JUMP JUMPDEST CALLVALUE PUSH2 0x49E JUMPI PUSH1 0x20 CALLDATASIZE PUSH1 0x3 NOT ADD SLT PUSH2 0x49E JUMPI PUSH1 0x4 CALLDATALOAD PUSH1 0x1 PUSH1 0x1 PUSH1 0xA0 SHL SUB DUP2 AND DUP2 SUB PUSH2 0x49E JUMPI PUSH2 0x13EC PUSH1 0x20 SWAP2 PUSH2 0x2489 JUMP JUMPDEST CALLVALUE PUSH2 0x49E JUMPI PUSH1 0x0 CALLDATASIZE PUSH1 0x3 NOT ADD SLT PUSH2 0x49E JUMPI PUSH1 0x0 DUP1 PUSH1 0x7 SLOAD SWAP1 JUMPDEST DUP2 DUP2 LT PUSH2 0x1628 JUMPI JUMPDEST POP POP ISZERO PUSH2 0x459 JUMPI PUSH1 0xC SLOAD PUSH1 0xFF DUP2 AND PUSH2 0x448 JUMPI PUSH1 0x8 DUP1 SLOAD PUSH1 0x1 PUSH1 0x1 PUSH1 0xE0 SHL SUB NOT AND CALLER PUSH8 0xFFFFFFFFFFFFFFFF PUSH1 0xA0 SHL NOT DUP2 AND SWAP2 SWAP1 SWAP2 OR TIMESTAMP PUSH1 0xA0 DUP2 SWAP1 SHL PUSH8 0xFFFFFFFFFFFFFFFF PUSH1 0xA0 SHL AND SWAP2 SWAP1 SWAP2 OR SWAP1 SWAP3 SSTORE PUSH1 0xB DUP1 SLOAD PUSH9 0xFFFFFFFFFFFFFFFFFF NOT AND SWAP1 SSTORE PUSH1 0xFF NOT SWAP1 SWAP3 AND PUSH1 0x1 SWAP1 DUP2 OR PUSH1 0xC SSTORE PUSH1 0x5 DUP1 SLOAD PUSH1 0xFF PUSH8 0xFFFFFFFFFFFFFFFF PUSH1 0x88 SHL ADD NOT AND PUSH1 0x88 DUP5 SWAP1 SHL PUSH1 0x1 PUSH1 0x88 SHL PUSH1 0x1 PUSH1 0xC8 SHL SUB AND OR SWAP1 SWAP2 OR SWAP1 SSTORE PUSH1 0x40 MLOAD PUSH1 0x1 PUSH1 0x1 PUSH1 0x40 SHL SUB SWAP2 SWAP1 SWAP2 AND DUP2 MSTORE PUSH32 0x9757E4914F88F7367885E34484D735F48036C637FC3260DF39E72B5DB00E3007 SWAP1 PUSH1 0x20 SWAP1 LOG2 STOP JUMPDEST PUSH2 0x1631 DUP2 PUSH2 0x218A JUMP JUMPDEST SWAP1 SLOAD PUSH1 0x3 SWAP2 SWAP1 SWAP2 SHL SHR PUSH1 0x1 PUSH1 0x1 PUSH1 0xA0 SHL SUB AND CALLER EQ PUSH2 0x1651 JUMPI PUSH1 0x1 ADD PUSH2 0x154D JUMP JUMPDEST POP POP POP PUSH1 0x1 DUP2 DUP1 PUSH2 0x1555 JUMP JUMPDEST CALLVALUE PUSH2 0x49E JUMPI PUSH1 0x0 CALLDATASIZE PUSH1 0x3 NOT ADD SLT PUSH2 0x49E JUMPI PUSH1 0x20 PUSH1 0x7 SLOAD PUSH1 0x40 MLOAD SWAP1 DUP2 MSTORE RETURN JUMPDEST CALLVALUE PUSH2 0x49E JUMPI PUSH1 0x20 CALLDATASIZE PUSH1 0x3 NOT ADD SLT PUSH2 0x49E JUMPI PUSH1 0x4 CALLDATALOAD PUSH1 0x4 DUP2 LT ISZERO PUSH2 0x49E JUMPI PUSH1 0x0 SLOAD PUSH1 0x1 PUSH1 0x1 PUSH1 0xA0 SHL SUB AND CALLER SUB PUSH2 0x459 JUMPI PUSH1 0x5 DUP1 SLOAD PUSH1 0xFF PUSH8 0xFFFFFFFFFFFFFFFF PUSH1 0x88 SHL ADD NOT AND PUSH1 0xFF DUP4 AND OR TIMESTAMP PUSH1 0x88 SHL PUSH1 0x1 PUSH1 0x88 SHL PUSH1 0x1 PUSH1 0xC8 SHL SUB AND OR SWAP1 SSTORE PUSH1 0x40 MLOAD PUSH32 0x4E00E6A81CCBF2771640BA8CC5B7DC33DA28CFDA3647EF3B84F30E9B8C8EDEA SWAP2 PUSH1 0x20 SWAP2 SWAP1 PUSH2 0x170B SWAP1 DUP3 SWAP1 PUSH2 0x2022 JUMP JUMPDEST LOG1 STOP JUMPDEST CALLVALUE PUSH2 0x49E JUMPI PUSH1 0x0 CALLDATASIZE PUSH1 0x3 NOT ADD SLT PUSH2 0x49E JUMPI PUSH2 0x651 PUSH1 0x40 MLOAD PUSH2 0x8A9 DUP2 PUSH2 0x8A2 DUP2 PUSH2 0x2286 JUMP JUMPDEST CALLVALUE PUSH2 0x49E JUMPI PUSH2 0x1740 CALLDATASIZE PUSH2 0x20E2 JUMP JUMPDEST PUSH1 0x0 SLOAD PUSH1 0x1 PUSH1 0x1 PUSH1 0xA0 SHL SUB AND CALLER SUB PUSH2 0x459 JUMPI PUSH1 0xFF PUSH1 0x5 SLOAD AND PUSH1 0x4 DUP2 LT ISZERO PUSH2 0x868 JUMPI PUSH2 0x857 JUMPI DUP1 MLOAD PUSH1 0x1 PUSH1 0x1 PUSH1 0x40 SHL SUB DUP2 GT PUSH2 0x421 JUMPI PUSH2 0x1780 PUSH1 0x3 SLOAD PUSH2 0x21BD JUMP JUMPDEST PUSH1 0x1F DUP2 GT PUSH2 0x18AB JUMPI JUMPDEST POP PUSH1 0x20 PUSH1 0x1F DUP3 GT PUSH1 0x1 EQ PUSH2 0x1827 JUMPI SWAP2 DUP2 PUSH2 0xC3E SWAP3 PUSH1 0x0 DUP1 MLOAD PUSH1 0x20 PUSH2 0x2598 DUP4 CODECOPY DUP2 MLOAD SWAP2 MSTORE SWAP5 PUSH1 0x0 SWAP2 PUSH2 0x181C JUMPI JUMPDEST POP DUP2 PUSH1 0x1 SHL SWAP2 PUSH1 0x0 NOT SWAP1 PUSH1 0x3 SHL SHR NOT AND OR PUSH1 0x3 SSTORE JUMPDEST PUSH1 0x5 DUP1 SLOAD PUSH8 0xFFFFFFFFFFFFFFFF PUSH1 0x88 SHL NOT AND TIMESTAMP PUSH1 0x88 SHL PUSH1 0x1 PUSH1 0x88 SHL PUSH1 0x1 PUSH1 0xC8 SHL SUB AND OR SWAP1 SSTORE PUSH1 0x40 MLOAD PUSH1 0x80 DUP1 DUP3 MSTORE SWAP1 SWAP3 DUP4 SWAP3 PUSH2 0x756 SWAP3 PUSH2 0x180E SWAP1 PUSH2 0x72E SWAP1 DUP7 ADD PUSH2 0x21F7 JUMP JUMPDEST SWAP1 DUP5 DUP3 SUB PUSH1 0x40 DUP7 ADD MSTORE PUSH2 0x1FE1 JUMP JUMPDEST SWAP1 POP DUP3 ADD MLOAD DUP6 PUSH2 0x17B5 JUMP JUMPDEST PUSH1 0x1F NOT DUP3 AND SWAP1 PUSH1 0x3 PUSH1 0x0 MSTORE PUSH1 0x0 DUP1 MLOAD PUSH1 0x20 PUSH2 0x2538 DUP4 CODECOPY DUP2 MLOAD SWAP2 MSTORE SWAP2 PUSH1 0x0 JUMPDEST DUP2 DUP2 LT PUSH2 0x1893 JUMPI POP SWAP3 PUSH1 0x0 DUP1 MLOAD PUSH1 0x20 PUSH2 0x2598 DUP4 CODECOPY DUP2 MLOAD SWAP2 MSTORE SWAP5 SWAP3 PUSH1 0x1 SWAP3 DUP3 PUSH2 0xC3E SWAP7 LT PUSH2 0x187A JUMPI JUMPDEST POP POP DUP2 SHL ADD PUSH1 0x3 SSTORE PUSH2 0x17CA JUMP JUMPDEST DUP5 ADD MLOAD PUSH1 0x0 NOT PUSH1 0xF8 DUP5 PUSH1 0x3 SHL AND SHR NOT AND SWAP1 SSTORE DUP6 DUP1 PUSH2 0x186D JUMP JUMPDEST SWAP2 SWAP3 PUSH1 0x20 PUSH1 0x1 DUP2 SWAP3 DUP7 DUP10 ADD MLOAD DUP2 SSTORE ADD SWAP5 ADD SWAP3 ADD PUSH2 0x1845 JUMP JUMPDEST PUSH1 0x3 PUSH1 0x0 MSTORE PUSH1 0x1F DUP3 ADD PUSH1 0x5 SHR PUSH1 0x0 DUP1 MLOAD PUSH1 0x20 PUSH2 0x2538 DUP4 CODECOPY DUP2 MLOAD SWAP2 MSTORE ADD SWAP1 PUSH1 0x20 DUP4 LT PUSH2 0x1902 JUMPI JUMPDEST PUSH1 0x1F ADD PUSH1 0x5 SHR PUSH1 0x0 DUP1 MLOAD PUSH1 0x20 PUSH2 0x2538 DUP4 CODECOPY DUP2 MLOAD SWAP2 MSTORE ADD SWAP1 JUMPDEST DUP2 DUP2 LT PUSH2 0x18F6 JUMPI POP PUSH2 0x1789 JUMP JUMPDEST PUSH1 0x0 DUP2 SSTORE PUSH1 0x1 ADD PUSH2 0x18E9 JUMP JUMPDEST PUSH1 0x0 DUP1 MLOAD PUSH1 0x20 PUSH2 0x2538 DUP4 CODECOPY DUP2 MLOAD SWAP2 MSTORE SWAP2 POP PUSH2 0x18D1 JUMP JUMPDEST CALLVALUE PUSH2 0x49E JUMPI PUSH1 0x20 CALLDATASIZE PUSH1 0x3 NOT ADD SLT PUSH2 0x49E JUMPI PUSH1 0x4 CALLDATALOAD PUSH1 0x1 PUSH1 0x1 PUSH1 0xA0 SHL SUB DUP2 AND SWAP1 DUP2 DUP2 SUB PUSH2 0x49E JUMPI PUSH1 0x0 SLOAD PUSH1 0x1 PUSH1 0x1 PUSH1 0xA0 SHL SUB AND CALLER SUB PUSH2 0x459 JUMPI PUSH1 0xFF PUSH1 0x5 SLOAD AND PUSH1 0x4 DUP2 LT ISZERO PUSH2 0x868 JUMPI PUSH2 0x857 JUMPI DUP2 ISZERO PUSH2 0xA57 JUMPI PUSH1 0x6 SLOAD PUSH1 0x0 JUMPDEST DUP2 DUP2 LT PUSH2 0x19E9 JUMPI POP POP PUSH1 0x6 SLOAD SWAP1 PUSH1 0x1 PUSH1 0x40 SHL DUP3 LT ISZERO PUSH2 0x421 JUMPI PUSH2 0x95C DUP3 PUSH1 0x1 PUSH2 0x199D SWAP5 ADD PUSH1 0x6 SSTORE PUSH1 0x6 PUSH2 0x21A5 JUMP JUMPDEST PUSH1 0x5 DUP1 SLOAD PUSH8 0xFFFFFFFFFFFFFFFF PUSH1 0x88 SHL NOT AND TIMESTAMP PUSH1 0x88 SHL PUSH1 0x1 PUSH1 0x88 SHL PUSH1 0x1 PUSH1 0xC8 SHL SUB AND OR SWAP1 SSTORE PUSH32 0x7B7EF7A864D96A85497A1ED846ADB39940DD6CCEF678FF6AC8D55505E09B8CC4 PUSH1 0x0 DUP1 LOG2 STOP JUMPDEST DUP4 PUSH2 0x19F3 DUP3 PUSH2 0x2159 JUMP JUMPDEST SWAP1 SLOAD PUSH1 0x3 SWAP2 SWAP1 SWAP2 SHL SHR PUSH1 0x1 PUSH1 0x1 PUSH1 0xA0 SHL SUB AND EQ PUSH2 0x1A12 JUMPI PUSH1 0x1 ADD PUSH2 0x196F JUMP JUMPDEST PUSH4 0x92C7E28D PUSH1 0xE0 SHL PUSH1 0x0 MSTORE PUSH1 0x4 PUSH1 0x0 REVERT JUMPDEST CALLVALUE PUSH2 0x49E JUMPI PUSH1 0x20 CALLDATASIZE PUSH1 0x3 NOT ADD SLT PUSH2 0x49E JUMPI PUSH1 0x4 CALLDATALOAD PUSH1 0x7 SLOAD DUP2 LT ISZERO PUSH2 0xE50 JUMPI PUSH2 0x608 PUSH1 0x20 SWAP2 PUSH2 0x218A JUMP JUMPDEST CALLVALUE PUSH2 0x49E JUMPI PUSH1 0x0 CALLDATASIZE PUSH1 0x3 NOT ADD SLT PUSH2 0x49E JUMPI PUSH1 0x0 SLOAD PUSH1 0x5 SLOAD PUSH1 0xC SLOAD PUSH1 0x40 MLOAD SWAP3 PUSH1 0x1 PUSH1 0x1 PUSH1 0xA0 SHL SUB AND SWAP2 PUSH1 0xFF SWAP1 SWAP2 AND SWAP1 DUP4 PUSH2 0x1A84 DUP2 PUSH2 0x21F7 JUMP JUMPDEST SUB PUSH2 0x1A8F SWAP1 DUP6 PUSH2 0x20C1 JUMP JUMPDEST PUSH1 0x40 MLOAD SWAP1 DUP2 PUSH2 0x1A9D DUP2 PUSH2 0x2286 JUMP JUMPDEST SUB PUSH2 0x1AA8 SWAP1 DUP4 PUSH2 0x20C1 JUMP JUMPDEST PUSH1 0x40 MLOAD SWAP1 DUP2 PUSH2 0x1AB6 DUP2 PUSH2 0x22F9 JUMP JUMPDEST SUB PUSH2 0x1AC1 SWAP1 DUP4 PUSH2 0x20C1 JUMP JUMPDEST PUSH1 0x40 MLOAD DUP1 PUSH2 0x1ACE DUP2 PUSH2 0x236C JUMP JUMPDEST SUB PUSH2 0x1AD9 SWAP1 DUP3 PUSH2 0x20C1 JUMP JUMPDEST PUSH2 0x1AE1 PUSH2 0x2435 JUMP JUMPDEST SWAP3 PUSH2 0x1AEA PUSH2 0x23DF JUMP JUMPDEST SWAP5 PUSH1 0x40 MLOAD SWAP9 DUP10 SWAP9 DUP10 MSTORE PUSH1 0x20 DUP10 ADD PUSH2 0x1C0 SWAP1 MSTORE PUSH2 0x1C0 DUP10 ADD PUSH2 0x1B0A SWAP2 PUSH2 0x1FE1 JUMP JUMPDEST DUP9 DUP2 SUB PUSH1 0x40 DUP11 ADD MSTORE PUSH2 0x1B1B SWAP2 PUSH2 0x1FE1 JUMP JUMPDEST DUP8 DUP2 SUB PUSH1 0x60 DUP10 ADD MSTORE PUSH2 0x1B2C SWAP2 PUSH2 0x1FE1 JUMP JUMPDEST DUP7 DUP2 SUB PUSH1 0x80 DUP9 ADD MSTORE PUSH2 0x1B3D SWAP2 PUSH2 0x1FE1 JUMP JUMPDEST SWAP1 PUSH2 0x1B4E PUSH1 0xA0 DUP8 ADD PUSH1 0xFF DUP4 AND PUSH2 0x2022 JUMP JUMPDEST DUP1 PUSH1 0x8 SHR PUSH1 0x1 PUSH1 0x1 PUSH1 0x40 SHL SUB AND PUSH1 0xC0 DUP8 ADD MSTORE DUP1 PUSH1 0x48 SHR PUSH1 0x1 PUSH1 0x1 PUSH1 0x40 SHL SUB AND PUSH1 0xE0 DUP8 ADD MSTORE DUP1 PUSH1 0x88 SHR PUSH1 0x1 PUSH1 0x1 PUSH1 0x40 SHL SUB AND PUSH2 0x100 DUP8 ADD MSTORE DUP1 PUSH1 0xC8 SHR PUSH1 0xFF AND ISZERO ISZERO PUSH2 0x120 DUP8 ADD MSTORE PUSH1 0xD0 SHR PUSH1 0xFF AND ISZERO ISZERO PUSH2 0x140 DUP7 ADD MSTORE DUP5 DUP2 SUB PUSH2 0x160 DUP7 ADD MSTORE PUSH2 0x1BB4 SWAP2 PUSH2 0x1FA4 JUMP JUMPDEST DUP4 DUP2 SUB PUSH2 0x180 DUP6 ADD MSTORE PUSH2 0x1BC6 SWAP2 PUSH2 0x1FA4 JUMP JUMPDEST SWAP1 ISZERO ISZERO PUSH2 0x1A0 DUP4 ADD MSTORE SUB SWAP1 RETURN JUMPDEST CALLVALUE PUSH2 0x49E JUMPI PUSH1 0x0 CALLDATASIZE PUSH1 0x3 NOT ADD SLT PUSH2 0x49E JUMPI PUSH1 0x80 PUSH1 0x8 SLOAD PUSH1 0x1 PUSH1 0x1 PUSH1 0x40 SHL SUB PUSH1 0xB SLOAD DUP2 PUSH1 0x40 MLOAD SWAP4 PUSH1 0x1 DUP1 PUSH1 0xA0 SHL SUB DUP2 AND DUP6 MSTORE PUSH1 0xA0 SHR AND PUSH1 0x20 DUP5 ADD MSTORE PUSH1 0xFF DUP2 AND ISZERO ISZERO PUSH1 0x40 DUP5 ADD MSTORE PUSH1 0x8 SHR AND PUSH1 0x60 DUP3 ADD MSTORE RETURN JUMPDEST CALLVALUE PUSH2 0x49E JUMPI PUSH1 0x0 CALLDATASIZE PUSH1 0x3 NOT ADD SLT PUSH2 0x49E JUMPI PUSH1 0x20 PUSH1 0xFF PUSH1 0x5 SLOAD PUSH1 0xC8 SHR AND PUSH1 0x40 MLOAD SWAP1 ISZERO ISZERO DUP2 MSTORE RETURN JUMPDEST CALLVALUE PUSH2 0x49E JUMPI PUSH1 0x20 CALLDATASIZE PUSH1 0x3 NOT ADD SLT PUSH2 0x49E JUMPI PUSH1 0x4 CALLDATALOAD PUSH1 0x1 PUSH1 0x1 PUSH1 0xA0 SHL SUB DUP2 AND SWAP1 DUP2 SWAP1 SUB PUSH2 0x49E JUMPI PUSH1 0x0 SLOAD PUSH1 0x1 PUSH1 0x1 PUSH1 0xA0 SHL SUB DUP2 AND SWAP1 CALLER DUP3 SWAP1 SUB PUSH2 0x459 JUMPI PUSH1 0x5 SLOAD SWAP1 PUSH1 0xFF DUP3 AND PUSH1 0x4 DUP2 LT ISZERO PUSH2 0x868 JUMPI PUSH2 0x857 JUMPI DUP4 ISZERO PUSH2 0xA57 JUMPI PUSH1 0x1 PUSH1 0x1 PUSH1 0xA0 SHL SUB NOT AND DUP4 OR PUSH1 0x0 SWAP1 DUP2 SSTORE PUSH8 0xFFFFFFFFFFFFFFFF PUSH1 0x88 SHL NOT SWAP1 SWAP2 AND TIMESTAMP PUSH1 0x88 SHL PUSH1 0x1 PUSH1 0x88 SHL PUSH1 0x1 PUSH1 0xC8 SHL SUB AND OR PUSH1 0x5 SSTORE PUSH32 0xB532073B38C83145E3E5135377A08BF9AAB55BC0FD7C1179CD4FB995D2A5159C SWAP1 DUP1 LOG3 STOP JUMPDEST CALLVALUE PUSH2 0x49E JUMPI PUSH1 0x0 CALLDATASIZE PUSH1 0x3 NOT ADD SLT PUSH2 0x49E JUMPI PUSH1 0x0 SLOAD PUSH1 0x5 SLOAD PUSH1 0x40 MLOAD SWAP1 SWAP2 PUSH1 0x1 PUSH1 0x1 PUSH1 0xA0 SHL SUB AND SWAP1 PUSH2 0x651 SWAP1 PUSH2 0x1D32 DUP2 PUSH2 0x8A2 DUP2 PUSH2 0x21F7 JUMP JUMPDEST PUSH1 0x40 MLOAD PUSH2 0x1D42 DUP2 PUSH2 0x8A2 DUP2 PUSH2 0x2286 JUMP JUMPDEST PUSH1 0x40 MLOAD SWAP1 PUSH2 0x1D53 DUP3 PUSH2 0xABA DUP2 PUSH2 0x22F9 JUMP JUMPDEST PUSH1 0x40 MLOAD SWAP3 PUSH2 0x1D6B DUP5 PUSH2 0x1D64 DUP2 PUSH2 0x236C JUMP JUMPDEST SUB DUP6 PUSH2 0x20C1 JUMP JUMPDEST PUSH1 0x40 MLOAD SWAP7 DUP8 SWAP7 PUSH1 0xFF DUP3 PUSH1 0xD0 SHR AND SWAP6 PUSH1 0xFF DUP4 PUSH1 0xC8 SHR AND SWAP6 PUSH1 0x1 PUSH1 0x1 PUSH1 0x40 SHL SUB DUP5 PUSH1 0x88 SHR AND SWAP6 PUSH1 0x1 PUSH1 0x1 PUSH1 0x40 SHL SUB DUP6 PUSH1 0x48 SHR AND SWAP6 PUSH1 0xFF PUSH1 0x1 PUSH1 0x1 PUSH1 0x40 SHL SUB DUP8 PUSH1 0x8 SHR AND SWAP7 AND SWAP5 DUP13 PUSH2 0x202F JUMP JUMPDEST CALLVALUE PUSH2 0x49E JUMPI PUSH1 0x20 CALLDATASIZE PUSH1 0x3 NOT ADD SLT PUSH2 0x49E JUMPI PUSH1 0x4 CALLDATALOAD PUSH1 0x6 SLOAD DUP2 LT ISZERO PUSH2 0xA15 JUMPI PUSH2 0x608 PUSH1 0x20 SWAP2 PUSH2 0x2159 JUMP JUMPDEST CALLVALUE PUSH2 0x49E JUMPI PUSH1 0x20 CALLDATASIZE PUSH1 0x3 NOT ADD SLT PUSH2 0x49E JUMPI PUSH1 0x4 CALLDATALOAD DUP1 ISZERO ISZERO DUP1 SWAP2 SUB PUSH2 0x49E JUMPI PUSH1 0x0 SLOAD PUSH1 0x1 PUSH1 0x1 PUSH1 0xA0 SHL SUB AND CALLER SUB PUSH2 0x459 JUMPI PUSH1 0x5 SLOAD PUSH1 0xFF DUP2 AND PUSH1 0x4 DUP2 LT ISZERO PUSH2 0x868 JUMPI PUSH2 0x857 JUMPI PUSH10 0xFF00FFFFFFFFFFFFFFFF PUSH1 0x88 SHL NOT AND PUSH1 0xD0 DUP3 SWAP1 SHL PUSH1 0xFF PUSH1 0xD0 SHL AND OR TIMESTAMP PUSH1 0x88 SHL PUSH1 0x1 PUSH1 0x88 SHL PUSH1 0x1 PUSH1 0xC8 SHL SUB AND OR PUSH1 0x5 SSTORE PUSH1 0x40 MLOAD SWAP1 DUP2 MSTORE PUSH32 0xFCE1DC6F5EC56F2CACDCBD5C15446AC038B73349DC13A6DFF0BEB5B3A639BF10 SWAP1 PUSH1 0x20 SWAP1 LOG1 STOP JUMPDEST CALLVALUE PUSH2 0x49E JUMPI PUSH1 0x20 CALLDATASIZE PUSH1 0x3 NOT ADD SLT PUSH2 0x49E JUMPI PUSH1 0x4 CALLDATALOAD PUSH1 0x1 PUSH1 0x1 PUSH1 0xA0 SHL SUB DUP2 AND SWAP1 DUP2 SWAP1 SUB PUSH2 0x49E JUMPI PUSH1 0xFF PUSH1 0xC SLOAD AND ISZERO PUSH2 0x448 JUMPI PUSH1 0x0 MSTORE PUSH1 0x9 PUSH1 0x20 MSTORE PUSH1 0x20 PUSH1 0xFF PUSH1 0x40 PUSH1 0x0 KECCAK256 SLOAD AND PUSH1 0x40 MLOAD SWAP1 ISZERO ISZERO DUP2 MSTORE RETURN JUMPDEST CALLVALUE PUSH2 0x49E JUMPI PUSH1 0x0 CALLDATASIZE PUSH1 0x3 NOT ADD SLT PUSH2 0x49E JUMPI PUSH1 0x20 PUSH1 0xFF PUSH1 0x5 SLOAD PUSH1 0xD0 SHR AND PUSH1 0x40 MLOAD SWAP1 ISZERO ISZERO DUP2 MSTORE RETURN JUMPDEST CALLVALUE PUSH2 0x49E JUMPI PUSH1 0x0 CALLDATASIZE PUSH1 0x3 NOT ADD SLT PUSH2 0x49E JUMPI PUSH1 0x40 MLOAD PUSH1 0x6 SLOAD DUP1 DUP3 MSTORE PUSH1 0x20 DUP3 ADD SWAP1 PUSH1 0x6 PUSH1 0x0 MSTORE PUSH1 0x20 PUSH1 0x0 KECCAK256 SWAP1 PUSH1 0x0 JUMPDEST DUP2 DUP2 LT PUSH2 0x1F65 JUMPI PUSH2 0x1F57 DUP6 PUSH2 0x1F38 DUP2 DUP8 SUB DUP3 PUSH2 0x20C1 JUMP JUMPDEST PUSH2 0x651 PUSH2 0x1F43 PUSH2 0x23DF JUMP JUMPDEST PUSH1 0x40 MLOAD SWAP4 DUP5 SWAP4 PUSH1 0x40 DUP6 MSTORE PUSH1 0x40 DUP6 ADD SWAP1 PUSH2 0x1FA4 JUMP JUMPDEST SWAP1 DUP4 DUP3 SUB PUSH1 0x20 DUP6 ADD MSTORE PUSH2 0x1FA4 JUMP JUMPDEST DUP3 SLOAD PUSH1 0x1 PUSH1 0x1 PUSH1 0xA0 SHL SUB AND DUP5 MSTORE PUSH1 0x20 SWAP1 SWAP4 ADD SWAP3 PUSH1 0x1 SWAP3 DUP4 ADD SWAP3 ADD PUSH2 0x1F21 JUMP JUMPDEST CALLVALUE PUSH2 0x49E JUMPI PUSH1 0x0 CALLDATASIZE PUSH1 0x3 NOT ADD SLT PUSH2 0x49E JUMPI PUSH1 0x20 SWAP1 PUSH1 0xFF PUSH1 0xC SLOAD AND ISZERO ISZERO DUP2 MSTORE RETURN JUMPDEST SWAP1 PUSH1 0x20 DUP1 DUP4 MLOAD SWAP3 DUP4 DUP2 MSTORE ADD SWAP3 ADD SWAP1 PUSH1 0x0 JUMPDEST DUP2 DUP2 LT PUSH2 0x1FC2 JUMPI POP POP POP SWAP1 JUMP JUMPDEST DUP3 MLOAD PUSH1 0x1 PUSH1 0x1 PUSH1 0xA0 SHL SUB AND DUP5 MSTORE PUSH1 0x20 SWAP4 DUP5 ADD SWAP4 SWAP1 SWAP3 ADD SWAP2 PUSH1 0x1 ADD PUSH2 0x1FB5 JUMP JUMPDEST SWAP2 SWAP1 DUP3 MLOAD SWAP3 DUP4 DUP3 MSTORE PUSH1 0x0 JUMPDEST DUP5 DUP2 LT PUSH2 0x200D JUMPI POP POP DUP3 PUSH1 0x0 PUSH1 0x20 DUP1 SWAP5 SWAP6 DUP5 ADD ADD MSTORE PUSH1 0x1F DUP1 NOT SWAP2 ADD AND ADD ADD SWAP1 JUMP JUMPDEST DUP1 PUSH1 0x20 DUP1 SWAP3 DUP5 ADD ADD MLOAD DUP3 DUP3 DUP7 ADD ADD MSTORE ADD PUSH2 0x1FEC JUMP JUMPDEST SWAP1 PUSH1 0x4 DUP3 LT ISZERO PUSH2 0x868 JUMPI MSTORE JUMP JUMPDEST SWAP10 SWAP7 SWAP1 PUSH2 0x2094 PUSH2 0x140 SWAP11 SWAP7 PUSH2 0x2086 PUSH1 0x1 PUSH1 0x1 PUSH1 0x40 SHL SUB SWAP10 SWAP16 SWAP15 SWAP12 SWAP7 DUP11 SWAP9 DUP16 SWAP2 PUSH2 0x2078 SWAP1 PUSH2 0x180E DUP13 SWAP11 PUSH2 0x209F SWAP10 PUSH1 0x1 DUP1 PUSH1 0xA0 SHL SUB AND DUP7 MSTORE PUSH2 0x160 PUSH1 0x20 DUP8 ADD MSTORE PUSH2 0x160 DUP7 ADD SWAP1 PUSH2 0x1FE1 JUMP JUMPDEST SWAP2 PUSH1 0x60 DUP2 DUP5 SUB SWAP2 ADD MSTORE PUSH2 0x1FE1 JUMP JUMPDEST DUP14 DUP2 SUB PUSH1 0x80 DUP16 ADD MSTORE SWAP1 PUSH2 0x1FE1 JUMP JUMPDEST SWAP13 PUSH1 0xA0 DUP13 ADD SWAP1 PUSH2 0x2022 JUMP JUMPDEST AND PUSH1 0xC0 DUP10 ADD MSTORE AND PUSH1 0xE0 DUP8 ADD MSTORE AND PUSH2 0x100 DUP6 ADD MSTORE ISZERO ISZERO PUSH2 0x120 DUP5 ADD MSTORE ISZERO ISZERO SWAP2 ADD MSTORE JUMP JUMPDEST SWAP1 PUSH1 0x1F DUP1 NOT SWAP2 ADD AND DUP2 ADD SWAP1 DUP2 LT PUSH1 0x1 PUSH1 0x1 PUSH1 0x40 SHL SUB DUP3 GT OR PUSH2 0x421 JUMPI PUSH1 0x40 MSTORE JUMP JUMPDEST PUSH1 0x20 PUSH1 0x3 NOT DUP3 ADD SLT PUSH2 0x49E JUMPI PUSH1 0x4 CALLDATALOAD PUSH1 0x1 PUSH1 0x1 PUSH1 0x40 SHL SUB DUP2 GT PUSH2 0x49E JUMPI DUP2 PUSH1 0x23 DUP3 ADD SLT ISZERO PUSH2 0x49E JUMPI DUP1 PUSH1 0x4 ADD CALLDATALOAD SWAP1 PUSH1 0x1 PUSH1 0x1 PUSH1 0x40 SHL SUB DUP3 GT PUSH2 0x421 JUMPI PUSH1 0x40 MLOAD SWAP3 PUSH2 0x2136 PUSH1 0x1F DUP5 ADD PUSH1 0x1F NOT AND PUSH1 0x20 ADD DUP6 PUSH2 0x20C1 JUMP JUMPDEST DUP3 DUP5 MSTORE PUSH1 0x24 DUP4 DUP4 ADD ADD GT PUSH2 0x49E JUMPI DUP2 PUSH1 0x0 SWAP3 PUSH1 0x24 PUSH1 0x20 SWAP4 ADD DUP4 DUP7 ADD CALLDATACOPY DUP4 ADD ADD MSTORE SWAP1 JUMP JUMPDEST PUSH1 0x6 SLOAD DUP2 LT ISZERO PUSH2 0x2174 JUMPI PUSH1 0x6 PUSH1 0x0 MSTORE PUSH1 0x20 PUSH1 0x0 KECCAK256 ADD SWAP1 PUSH1 0x0 SWAP1 JUMP JUMPDEST PUSH4 0x4E487B71 PUSH1 0xE0 SHL PUSH1 0x0 MSTORE PUSH1 0x32 PUSH1 0x4 MSTORE PUSH1 0x24 PUSH1 0x0 REVERT JUMPDEST PUSH1 0x7 SLOAD DUP2 LT ISZERO PUSH2 0x2174 JUMPI PUSH1 0x7 PUSH1 0x0 MSTORE PUSH1 0x20 PUSH1 0x0 KECCAK256 ADD SWAP1 PUSH1 0x0 SWAP1 JUMP JUMPDEST DUP1 SLOAD DUP3 LT ISZERO PUSH2 0x2174 JUMPI PUSH1 0x0 MSTORE PUSH1 0x20 PUSH1 0x0 KECCAK256 ADD SWAP1 PUSH1 0x0 SWAP1 JUMP JUMPDEST SWAP1 PUSH1 0x1 DUP3 DUP2 SHR SWAP3 AND DUP1 ISZERO PUSH2 0x21ED JUMPI JUMPDEST PUSH1 0x20 DUP4 LT EQ PUSH2 0x21D7 JUMPI JUMP JUMPDEST PUSH4 0x4E487B71 PUSH1 0xE0 SHL PUSH1 0x0 MSTORE PUSH1 0x22 PUSH1 0x4 MSTORE PUSH1 0x24 PUSH1 0x0 REVERT JUMPDEST SWAP2 PUSH1 0x7F AND SWAP2 PUSH2 0x21CC JUMP JUMPDEST PUSH1 0x1 SLOAD PUSH1 0x0 SWAP3 SWAP2 PUSH2 0x2207 DUP3 PUSH2 0x21BD JUMP JUMPDEST DUP1 DUP3 MSTORE SWAP2 PUSH1 0x1 DUP2 AND SWAP1 DUP2 ISZERO PUSH2 0x226A JUMPI POP PUSH1 0x1 EQ PUSH2 0x2222 JUMPI POP POP JUMP JUMPDEST PUSH1 0x1 PUSH1 0x0 SWAP1 DUP2 MSTORE SWAP3 SWAP4 POP SWAP1 SWAP2 SWAP1 PUSH1 0x0 DUP1 MLOAD PUSH1 0x20 PUSH2 0x2558 DUP4 CODECOPY DUP2 MLOAD SWAP2 MSTORE JUMPDEST DUP4 DUP4 LT PUSH2 0x2250 JUMPI POP PUSH1 0x20 SWAP3 POP ADD ADD SWAP1 JUMP JUMPDEST PUSH1 0x1 DUP2 PUSH1 0x20 SWAP3 SWAP5 SWAP4 SWAP5 SLOAD DUP4 DUP6 DUP8 ADD ADD MSTORE ADD SWAP2 ADD SWAP2 SWAP1 PUSH2 0x223F JUMP JUMPDEST SWAP1 POP PUSH1 0x20 SWAP4 SWAP5 POP PUSH1 0xFF SWAP3 SWAP2 SWAP3 NOT AND DUP4 DUP4 ADD MSTORE ISZERO ISZERO PUSH1 0x5 SHL ADD ADD SWAP1 JUMP JUMPDEST PUSH1 0x2 SLOAD PUSH1 0x0 SWAP3 SWAP2 PUSH2 0x2296 DUP3 PUSH2 0x21BD JUMP JUMPDEST DUP1 DUP3 MSTORE SWAP2 PUSH1 0x1 DUP2 AND SWAP1 DUP2 ISZERO PUSH2 0x226A JUMPI POP PUSH1 0x1 EQ PUSH2 0x22B1 JUMPI POP POP JUMP JUMPDEST PUSH1 0x2 PUSH1 0x0 SWAP1 DUP2 MSTORE SWAP3 SWAP4 POP SWAP1 SWAP2 SWAP1 PUSH1 0x0 DUP1 MLOAD PUSH1 0x20 PUSH2 0x2518 DUP4 CODECOPY DUP2 MLOAD SWAP2 MSTORE JUMPDEST DUP4 DUP4 LT PUSH2 0x22DF JUMPI POP PUSH1 0x20 SWAP3 POP ADD ADD SWAP1 JUMP JUMPDEST PUSH1 0x1 DUP2 PUSH1 0x20 SWAP3 SWAP5 SWAP4 SWAP5 SLOAD DUP4 DUP6 DUP8 ADD ADD MSTORE ADD SWAP2 ADD SWAP2 SWAP1 PUSH2 0x22CE JUMP JUMPDEST PUSH1 0x3 SLOAD PUSH1 0x0 SWAP3 SWAP2 PUSH2 0x2309 DUP3 PUSH2 0x21BD JUMP JUMPDEST DUP1 DUP3 MSTORE SWAP2 PUSH1 0x1 DUP2 AND SWAP1 DUP2 ISZERO PUSH2 0x226A JUMPI POP PUSH1 0x1 EQ PUSH2 0x2324 JUMPI POP POP JUMP JUMPDEST PUSH1 0x3 PUSH1 0x0 SWAP1 DUP2 MSTORE SWAP3 SWAP4 POP SWAP1 SWAP2 SWAP1 PUSH1 0x0 DUP1 MLOAD PUSH1 0x20 PUSH2 0x2538 DUP4 CODECOPY DUP2 MLOAD SWAP2 MSTORE JUMPDEST DUP4 DUP4 LT PUSH2 0x2352 JUMPI POP PUSH1 0x20 SWAP3 POP ADD ADD SWAP1 JUMP JUMPDEST PUSH1 0x1 DUP2 PUSH1 0x20 SWAP3 SWAP5 SWAP4 SWAP5 SLOAD DUP4 DUP6 DUP8 ADD ADD MSTORE ADD SWAP2 ADD SWAP2 SWAP1 PUSH2 0x2341 JUMP JUMPDEST PUSH1 0x4 SLOAD PUSH1 0x0 SWAP3 SWAP2 PUSH2 0x237C DUP3 PUSH2 0x21BD JUMP JUMPDEST DUP1 DUP3 MSTORE SWAP2 PUSH1 0x1 DUP2 AND SWAP1 DUP2 ISZERO PUSH2 0x226A JUMPI POP PUSH1 0x1 EQ PUSH2 0x2397 JUMPI POP POP JUMP JUMPDEST PUSH1 0x4 PUSH1 0x0 SWAP1 DUP2 MSTORE SWAP3 SWAP4 POP SWAP1 SWAP2 SWAP1 PUSH1 0x0 DUP1 MLOAD PUSH1 0x20 PUSH2 0x2578 DUP4 CODECOPY DUP2 MLOAD SWAP2 MSTORE JUMPDEST DUP4 DUP4 LT PUSH2 0x23C5 JUMPI POP PUSH1 0x20 SWAP3 POP ADD ADD SWAP1 JUMP JUMPDEST PUSH1 0x1 DUP2 PUSH1 0x20 SWAP3 SWAP5 SWAP4 SWAP5 SLOAD DUP4 DUP6 DUP8 ADD ADD MSTORE ADD SWAP2 ADD SWAP2 SWAP1 PUSH2 0x23B4 JUMP JUMPDEST PUSH1 0x40 MLOAD SWAP1 PUSH1 0x7 SLOAD DUP1 DUP4 MSTORE DUP3 PUSH1 0x20 DUP2 ADD PUSH1 0x7 PUSH1 0x0 MSTORE PUSH1 0x20 PUSH1 0x0 KECCAK256 SWAP3 PUSH1 0x0 JUMPDEST DUP2 DUP2 LT PUSH2 0x2413 JUMPI POP POP PUSH2 0x2411 SWAP3 POP SUB DUP4 PUSH2 0x20C1 JUMP JUMPDEST JUMP JUMPDEST DUP5 SLOAD PUSH1 0x1 PUSH1 0x1 PUSH1 0xA0 SHL SUB AND DUP4 MSTORE PUSH1 0x1 SWAP5 DUP6 ADD SWAP5 DUP8 SWAP5 POP PUSH1 0x20 SWAP1 SWAP4 ADD SWAP3 ADD PUSH2 0x23FC JUMP JUMPDEST PUSH1 0x40 MLOAD SWAP1 PUSH1 0x6 SLOAD DUP1 DUP4 MSTORE DUP3 PUSH1 0x20 DUP2 ADD PUSH1 0x6 PUSH1 0x0 MSTORE PUSH1 0x20 PUSH1 0x0 KECCAK256 SWAP3 PUSH1 0x0 JUMPDEST DUP2 DUP2 LT PUSH2 0x2467 JUMPI POP POP PUSH2 0x2411 SWAP3 POP SUB DUP4 PUSH2 0x20C1 JUMP JUMPDEST DUP5 SLOAD PUSH1 0x1 PUSH1 0x1 PUSH1 0xA0 SHL SUB AND DUP4 MSTORE PUSH1 0x1 SWAP5 DUP6 ADD SWAP5 DUP8 SWAP5 POP PUSH1 0x20 SWAP1 SWAP4 ADD SWAP3 ADD PUSH2 0x2452 JUMP JUMPDEST PUSH1 0x7 SLOAD SWAP1 PUSH1 0x0 JUMPDEST DUP3 DUP2 LT PUSH2 0x249F JUMPI POP POP POP PUSH1 0x0 SWAP1 JUMP JUMPDEST PUSH2 0x24A8 DUP2 PUSH2 0x218A JUMP JUMPDEST SWAP1 SLOAD PUSH1 0x3 SWAP2 SWAP1 SWAP2 SHL SHR PUSH1 0x1 PUSH1 0x1 PUSH1 0xA0 SHL SUB SWAP1 DUP2 AND SWAP1 DUP4 AND EQ PUSH2 0x24CC JUMPI PUSH1 0x1 ADD PUSH2 0x2490 JUMP JUMPDEST POP POP POP PUSH1 0x1 SWAP1 JUMP JUMPDEST PUSH1 0x6 SLOAD SWAP1 PUSH1 0x0 JUMPDEST DUP3 DUP2 LT PUSH2 0x24EA JUMPI POP POP POP PUSH1 0x0 SWAP1 JUMP JUMPDEST PUSH2 0x24F3 DUP2 PUSH2 0x2159 JUMP JUMPDEST SWAP1 SLOAD PUSH1 0x3 SWAP2 SWAP1 SWAP2 SHL SHR PUSH1 0x1 PUSH1 0x1 PUSH1 0xA0 SHL SUB SWAP1 DUP2 AND SWAP1 DUP4 AND EQ PUSH2 0x24CC JUMPI PUSH1 0x1 ADD PUSH2 0x24DB JUMP INVALID BLOCKHASH JUMPI DUP8 STATICCALL SLT 0xA8 0x23 0xE0 CALLCODE 0xB7 PUSH4 0x1CC41B3B 0xA8 DUP3 DUP12 CALLER 0x21 0xCA DUP2 GT GT STATICCALL PUSH22 0xCD3AA3BB5ACEC2575A0E9E593C00F959F8C92F12DB28 PUSH10 0xC3395A3B0502D05E2516 PREVRANDAO PUSH16 0x71F85BB10E2D527612073B26EECDFD71 PUSH31 0x6A320CF44B4AFAC2B0732D9FCBE2B7FA0CF68A35ACFBC15FF81A39AE7D344F 0xD7 MULMOD CALLCODE DUP15 DUP7 STOP 0xB4 0xAA DUP13 PUSH6 0xC6B64BFE7FE3 PUSH12 0xD19B9775F25AD625945E9068 STOP 0x4F GASPRICE 0x21 DUP2 PUSH21 0xC780FCBA3E63D8F7BDB318F7222AB3B8A264697066 PUSH20 0x58221220F868C328618BB479E1C9B587D817A3B0 PUSH7 0xEC7E2A228EE1D3 0xC8 GASPRICE 0xF7 SWAP16 CALLER JUMP JUMP SIGNEXTEND PUSH5 0x736F6C6343 STOP ADDMOD SHR STOP CALLER "},"methodIdentifiers":{"addContact(address)":"a414b379","addVault(address)":"256b5a02","contacts(uint256)":"e0f478cb","createDeathDeclaration()":"3856fcdf","deathDeclaration()":"1de514a9","finalizeDeathDeclaration()":"e169f438","getBasicUserData()":"110342ad","getBirthDate()":"c16a836b","getContactAtIndex(uint256)":"23cb0f83","getContactCount()":"36d52ed7","getContacts()":"db920b77","getCreatedAt()":"7e05f5a8","getDeathDeclaration()":"6e8e0956","getDeathDeclarationStatus()":"0331553b","getEmail()":"7e79e8ba","getFirstname()":"d32ac670","getGraceInterval()":"62f8e6c7","getHasVotingRight()":"142ae1bd","getIsIdVerified()":"0989befb","getLastUpdated()":"78121dd4","getLastname()":"2c3e4553","getOwner()":"893d20e8","getStatus()":"4e69d560","getUserData()":"22e8c87d","getVaultAtIndex(uint256)":"0ce44e3a","getVaultCount()":"74d4e491","getVaults()":"44d00f82","getVaultsAndContacts()":"08cfbde5","hasDeathDeclaration()":"fce8baf7","hasVoted(address)":"09eef43e","isContact(address)":"42c83862","isVault(address)":"652b9b41","removeContact(address)":"a6a66072","removeVault(address)":"ceb68c23","setBirthDate(string)":"d92be7f6","setEmail(string)":"282b065a","setFirstname(string)":"ba681d0d","setGraceInterval(uint64)":"80b48fc9","setHasVotingRight(bool)":"451e6c78","setIsIdVerified(bool)":"0ca5c1a1","setLastname(string)":"9346cd2b","setOwner(address)":"13af4035","setStatus(uint8)":"2e49d78b","userData()":"bea6998f","vaults(uint256)":"8c64ea4a","voteOnDeathDeclaration(bool)":"feac17f2"}}}}}