{"contracts/Vault.sol":{"VaultManager":{"abi":[{"inputs":[{"internalType":"address","name":"_userContractAddress","type":"address"}],"stateMutability":"nonpayable","type":"constructor"},{"inputs":[],"name":"ContactNotFound","type":"error"},{"inputs":[],"name":"DuplicateContact","type":"error"},{"inputs":[],"name":"InvalidAddress","type":"error"},{"inputs":[],"name":"InvalidVaultId","type":"error"},{"inputs":[],"name":"Unauthorized","type":"error"},{"inputs":[],"name":"UserNotDead","type":"error"},{"inputs":[],"name":"VaultAlreadyExists","type":"error"},{"inputs":[],"name":"VaultNotFound","type":"error"},{"inputs":[],"name":"VaultNotReleased","type":"error"},{"anonymous":false,"inputs":[{"indexed":true,"internalType":"string","name":"vaultId","type":"string"},{"indexed":true,"internalType":"address","name":"contact","type":"address"}],"name":"ContactAssigned","type":"event"},{"anonymous":false,"inputs":[{"indexed":true,"internalType":"string","name":"vaultId","type":"string"},{"indexed":true,"internalType":"address","name":"contact","type":"address"}],"name":"ContactRemoved","type":"event"},{"anonymous":false,"inputs":[{"indexed":true,"internalType":"string","name":"vaultId","type":"string"}],"name":"EncryptionKeyUpdated","type":"event"},{"anonymous":false,"inputs":[{"indexed":true,"internalType":"string","name":"vaultId","type":"string"},{"indexed":true,"internalType":"address","name":"owner","type":"address"},{"indexed":false,"internalType":"string","name":"name","type":"string"}],"name":"VaultCreated","type":"event"},{"anonymous":false,"inputs":[{"indexed":true,"internalType":"string","name":"vaultId","type":"string"},{"indexed":false,"internalType":"string","name":"name","type":"string"}],"name":"VaultMetadataUpdated","type":"event"},{"anonymous":false,"inputs":[{"indexed":true,"internalType":"string","name":"vaultId","type":"string"},{"indexed":false,"internalType":"uint64","name":"releasedAt","type":"uint64"}],"name":"VaultReleased","type":"event"},{"inputs":[{"internalType":"uint256","name":"","type":"uint256"}],"name":"allAuthorizedContacts","outputs":[{"internalType":"address","name":"","type":"address"}],"stateMutability":"view","type":"function"},{"inputs":[{"internalType":"string","name":"_vaultId","type":"string"},{"internalType":"address","name":"_contact","type":"address"}],"name":"assignContactToVault","outputs":[],"stateMutability":"nonpayable","type":"function"},{"inputs":[{"internalType":"string","name":"_vaultId","type":"string"},{"internalType":"string","name":"_name","type":"string"},{"internalType":"address[]","name":"_contacts","type":"address[]"},{"internalType":"string","name":"_encryptionKey","type":"string"},{"internalType":"string","name":"_iv","type":"string"}],"name":"createVault","outputs":[],"stateMutability":"nonpayable","type":"function"},{"inputs":[{"internalType":"string","name":"_vaultId","type":"string"}],"name":"deleteVault","outputs":[],"stateMutability":"nonpayable","type":"function"},{"inputs":[],"name":"getAllAuthorizedContacts","outputs":[{"internalType":"address[]","name":"","type":"address[]"}],"stateMutability":"view","type":"function"},{"inputs":[{"internalType":"string","name":"_vaultId","type":"string"}],"name":"getDecryptionKey","outputs":[{"internalType":"string","name":"encryptionKey","type":"string"},{"internalType":"string","name":"iv","type":"string"}],"stateMutability":"view","type":"function"},{"inputs":[{"internalType":"string[]","name":"_vaultIds","type":"string[]"}],"name":"getMultipleVaultsInfo","outputs":[{"internalType":"string[]","name":"ids","type":"string[]"},{"internalType":"string[]","name":"names","type":"string[]"},{"internalType":"address[]","name":"owners","type":"address[]"},{"internalType":"enum VaultManager.VaultStatus[]","name":"statuses","type":"uint8[]"},{"internalType":"bool[]","name":"isReleasedArray","type":"bool[]"}],"stateMutability":"view","type":"function"},{"inputs":[{"internalType":"address","name":"_user","type":"address"}],"name":"getUserVaultCount","outputs":[{"internalType":"uint256","name":"","type":"uint256"}],"stateMutability":"view","type":"function"},{"inputs":[{"internalType":"address","name":"_user","type":"address"}],"name":"getUserVaults","outputs":[{"internalType":"string[]","name":"","type":"string[]"}],"stateMutability":"view","type":"function"},{"inputs":[{"internalType":"string","name":"_vaultId","type":"string"}],"name":"getVaultAuthorizedContacts","outputs":[{"internalType":"address[]","name":"","type":"address[]"}],"stateMutability":"view","type":"function"},{"inputs":[{"internalType":"string","name":"_vaultId","type":"string"},{"internalType":"uint256","name":"_index","type":"uint256"}],"name":"getVaultContactAtIndex","outputs":[{"internalType":"address","name":"","type":"address"}],"stateMutability":"view","type":"function"},{"inputs":[{"internalType":"string","name":"_vaultId","type":"string"}],"name":"getVaultContactCount","outputs":[{"internalType":"uint256","name":"","type":"uint256"}],"stateMutability":"view","type":"function"},{"inputs":[{"internalType":"string","name":"_vaultId","type":"string"}],"name":"getVaultInfo","outputs":[{"internalType":"string","name":"id","type":"string"},{"internalType":"string","name":"name","type":"string"},{"internalType":"address","name":"owner","type":"address"},{"internalType":"address[]","name":"authorizedContacts","type":"address[]"},{"internalType":"enum VaultManager.VaultStatus","name":"status","type":"uint8"},{"internalType":"uint64","name":"createdAt","type":"uint64"},{"internalType":"uint64","name":"lastUpdated","type":"uint64"},{"internalType":"bool","name":"isReleased","type":"bool"}],"stateMutability":"view","type":"function"},{"inputs":[{"internalType":"address","name":"","type":"address"}],"name":"isAuthorizedContact","outputs":[{"internalType":"bool","name":"","type":"bool"}],"stateMutability":"view","type":"function"},{"inputs":[{"internalType":"string","name":"_vaultId","type":"string"},{"internalType":"address","name":"_contact","type":"address"}],"name":"isVaultContact","outputs":[{"internalType":"bool","name":"","type":"bool"}],"stateMutability":"view","type":"function"},{"inputs":[{"internalType":"string","name":"_vaultId","type":"string"},{"internalType":"address","name":"_user","type":"address"}],"name":"isVaultOwner","outputs":[{"internalType":"bool","name":"","type":"bool"}],"stateMutability":"view","type":"function"},{"inputs":[{"internalType":"string","name":"_vaultId","type":"string"}],"name":"isVaultReleased","outputs":[{"internalType":"bool","name":"","type":"bool"}],"stateMutability":"view","type":"function"},{"inputs":[{"internalType":"string","name":"_vaultId","type":"string"}],"name":"releaseVault","outputs":[],"stateMutability":"nonpayable","type":"function"},{"inputs":[{"internalType":"string","name":"_vaultId","type":"string"},{"internalType":"address","name":"_contact","type":"address"}],"name":"removeContactFromVault","outputs":[],"stateMutability":"nonpayable","type":"function"},{"inputs":[{"internalType":"string","name":"_vaultId","type":"string"},{"internalType":"string","name":"_newEncryptionKey","type":"string"},{"internalType":"string","name":"_newIv","type":"string"}],"name":"updateEncryptionKey","outputs":[],"stateMutability":"nonpayable","type":"function"},{"inputs":[{"internalType":"string","name":"_vaultId","type":"string"},{"internalType":"string","name":"_name","type":"string"}],"name":"updateVaultMetadata","outputs":[],"stateMutability":"nonpayable","type":"function"},{"inputs":[],"name":"userContract","outputs":[{"internalType":"contract User","name":"","type":"address"}],"stateMutability":"view","type":"function"},{"inputs":[{"internalType":"address","name":"","type":"address"},{"internalType":"uint256","name":"","type":"uint256"}],"name":"userVaults","outputs":[{"internalType":"string","name":"","type":"string"}],"stateMutability":"view","type":"function"},{"inputs":[{"internalType":"string","name":"","type":"string"}],"name":"vaultExists","outputs":[{"internalType":"bool","name":"","type":"bool"}],"stateMutability":"view","type":"function"},{"inputs":[{"internalType":"string","name":"","type":"string"}],"name":"vaults","outputs":[{"internalType":"string","name":"id","type":"string"},{"internalType":"string","name":"name","type":"string"},{"internalType":"address","name":"owner","type":"address"},{"internalType":"enum VaultManager.VaultStatus","name":"status","type":"uint8"},{"internalType":"string","name":"encryptionKey","type":"string"},{"internalType":"string","name":"iv","type":"string"},{"internalType":"uint64","name":"createdAt","type":"uint64"},{"internalType":"uint64","name":"lastUpdated","type":"uint64"},{"internalType":"bool","name":"isReleased","type":"bool"}],"stateMutability":"view","type":"function"}],"evm":{"bytecode":{"linkReferences":{},"object":"608034608657601f61280338819003918201601f19168301916001600160401b03831184841017608b57808492602094604052833981010312608657516001600160a01b038116908190036086578015607557600580546001600160a01b03191691909117905560405161276190816100a28239f35b63e6c4247b60e01b60005260046000fd5b600080fd5b634e487b7160e01b600052604160045260246000fdfe608080604052600436101561001357600080fd5b60003560e01c9081630c490d1314611eb8575080630c5a2f1d14611cef57806311b6f8e614611bf757806327d54b9f14611b945780632d8c263b14611b1a5780632e3f132d1461188a5780633b7316c11461184b5780634cc74432146114805780635000596b146114575780635f4a9f91146114345780636ae22b53146113f25780636e895a661461122b578063701d5b08146110a5578063744c3fde14610ebb57806374ac328714610e48578063791ed6b614610a4a578063828edbe814610a10578063875e407a1461099957806391b6c696146106955780639c841fef14610615578063a86e4e38146104a7578063ad46915c14610294578063aec5c6f414610255578063dd6b4b5e146101d15763e7f3c69c1461013257600080fd5b346101cc5760203660031901126101cc576001600160a01b0361015361213a565b1660005260016020526040600020805461016c81612349565b9161017a6040519384611f62565b818352602083019060005260206000206000915b8383106101af57604051602080825281906101ab908201886121c2565b0390f35b6001602081926101be85612064565b81520192019201919061018e565b600080fd5b346101cc5760203660031901126101cc576004356001600160401b0381116101cc57610201903690600401611f35565b9060ff6040518383823760208185810160028152030190205416156102445781602060039281946040519384928337810160008152030190200154604051908152f35b63dee790fb60e01b60005260046000fd5b346101cc5760203660031901126101cc576001600160a01b0361027661213a565b166000526003602052602060ff604060002054166040519015158152f35b346101cc576102a236612150565b916102ae368383611f83565b6040519060ff815192602081818501956102c9818389612007565b81016002815203019020541615610244576002906102ef60405193849251928391612007565b600090830190815282900360200190912001546001600160a01b03163303610497576001600160a01b0383169283156104865760036040518484823760208186810160008152030190200160008154905b81811061044b5750508054600160401b8110156104355761036b8161038f9360018694018155612289565b81546001600160a01b0393841660039290921b91821b9390911b1916919091179055565b6103bb60405184848237600785820191600083526020816001600160401b034216940301902001612321565b83600052600360205260ff604060002054161561040d575b508160405192839283378101600081520390207f5b24e906ed33d54afa2c3096b24b154479110726563d9727b6561726054b3f90600080a3005b61042f908460005260036020526040600020600160ff198254161790556125b8565b836103d3565b634e487b7160e01b600052604160045260246000fd5b866104568285612289565b905460039190911b1c6001600160a01b03161461047557600101610340565b6328e4c7ab60e11b60005260046000fd5b63e6c4247b60e01b60005260046000fd5b6282b42960e81b60005260046000fd5b346101cc5760403660031901126101cc576004356001600160401b0381116101cc576104d7903690600401611f35565b906024356001600160401b0381116101cc576104f7903690600401611f35565b9092610504368285611f83565b6040519060ff8151926020818185019561051f818389612007565b810160028152030190205416156102445760029061054560405193849251928391612007565b600090830190815282900360200190912001546001600160a01b03163303610497578115610604577f96e591a23a774ffe2c2eb47f8c39aeefafc9f7a098d8d66170621bfe53838723926105b183866001604051868682376020818881016000815203019020016124ce565b6105dd60405183838237600784820191600083526020816001600160401b034216940301902001612321565b816040519283928337810160008152039020926105ff604051928392836125dd565b0390a2005b6319d2ee1360e01b60005260046000fd5b346101cc5760403660031901126101cc5761062e61213a565b6001600160a01b031660009081526001602052604090208054602435908110156101cc5761065b91612289565b61067f5761066b6101ab91612064565b604051918291602083526020830190612108565b634e487b7160e01b600052600060045260246000fd5b346101cc5760203660031901126101cc576004356001600160401b0381116101cc576106c5903690600401611f35565b906106d1368383611f83565b6040519060ff815192602081818501956106ec818389612007565b810160028152030190205416156102445760029061071260405193849251928391612007565b600090830190815282900360200190912001546001600160a01b0316330361049757336000526001602052604060002060005b81548082101561098e576107598284612289565b5060405181549181600061076c8561202a565b92838352602083019560018116908160001461096f575060011461092d575b5061079892500382611f62565b5190206107a6368787611f83565b60208151910120146107bb5750600101610745565b9192916000198101908111610917576107d76107df9185612289565b509184612289565b91909161067f576107ef91612605565b8154801561090157600019016108058184612289565b93909361067f57836108196020955461202a565b90816108bf575b5050555b6000600760405185848237848187810185815203019020610844816126dc565b610850600182016126dc565b826002820155600381018054848255806108a6575b5050826004820155610879600582016126dc565b610885600682016126dc565b0155826040519384928337600290820190815203019020805460ff19169055005b6108b891855286852090810190612472565b8680610865565b81601f600093116001146108d75750555b8580610820565b8183528683206108f291601f0160051c810190600101612472565b808252818681209155556108d0565b634e487b7160e01b600052603160045260246000fd5b634e487b7160e01b600052601160045260246000fd5b9150506000526020600020906000915b818310610956575050816020610798928201018a61078b565b805460208486018101919091529092019160010161093d565b60ff191687525061079893151560051b830160200191508b905061078b565b505050602090610824565b346101cc5760003660031901126101cc576040516004548082526020820190600460005260206000209060005b8181106109f1576101ab856109dd81870382611f62565b60405191829160208352602083019061221b565b82546001600160a01b03168452602090930192600192830192016109c6565b346101cc5760203660031901126101cc576001600160a01b03610a3161213a565b1660005260016020526020604060002054604051908152f35b346101cc5760a03660031901126101cc576004356001600160401b0381116101cc57610a7a903690600401611f35565b6024356001600160401b0381116101cc57610a99903690600401611f35565b9190926044356001600160401b0381116101cc57610abb903690600401612192565b6064356001600160401b0381116101cc57610ada903690600401611f35565b6084356001600160401b0381116101cc57610af9903690600401611f35565b9187156106045760ff604051898982376020818b810160028152030190205416610e37578815610604576005546040516302734eab60e51b815290602090829060049082906001600160a01b03165afa908115610e2b57600091610dfc575b506004811015610de6576104975760005b858110610dc25750604051888882376020818a8101600081520301902093610b928989876124ce565b610ba08a8c600188016124ce565b6002850180546001600160a01b03191633179055600385016001600160401b03871161043557600160401b8711610435578054878255808810610da4575b50879060005260206000209060005b888110610d895750505060048501805460ff19169055610c1f939291610c1691600587016124ce565b600684016124ce565b600701805467ffffffffffffffff1916426001600160401b03169081178255610c489082612321565b805460ff60801b19169055604051848482376020818681016002815203019020600160ff1982541617905533600052600160205260406000208054600160401b81101561043557610c9e91600182018155612289565b61067f578484610cad926124ce565b60005b818110610d06575050507f5c578089328510fcba8ec80e76af680fc9d08782b7f362fe6304133fc43ab8b291610d0191816040519283928337810160008152039020926040519182913396836125dd565b0390a3005b6001906001600160a01b03610d24610d1f838688612594565b6125a4565b16600052600360205260ff6040600020541615610d42575b01610cb0565b818060a01b03610d56610d1f838688612594565b16600052600360205260406000208260ff19825416179055610d84610d7f610d1f838688612594565b6125b8565b610d3c565b6001906020610d97846125a4565b9301928185015501610bed565b610dbc90826000528860206000209182019101612472565b8c610bde565b6001600160a01b03610dd8610d1f83898b612594565b161561048657600101610b69565b634e487b7160e01b600052602160045260246000fd5b610e1e915060203d602011610e24575b610e168183611f62565b810190612309565b8b610b58565b503d610e0c565b6040513d6000823e3d90fd5b6304aabf3360e01b60005260046000fd5b346101cc5760203660031901126101cc576004356001600160401b0381116101cc57610e78903690600401611f35565b60ff6040518284823760208184810160028152030190205416156102445760038160206101ab946109dd94604051938492833781016000815203019020016122a1565b346101cc5760203660031901126101cc576004356001600160401b0381116101cc57610eeb903690600401611f35565b610ef6368284611f83565b9060405160ff83519160208181870194610f11818388612007565b810160028152030190205416156102445760009260405160028251610f37818487612007565b82018681528290036020019091200154336001600160a01b039190911603611039575050905060015b15610497576020610fdd928260405193849283378101600081520301902060018060a01b0360028201541660ff8060048401541691611009610ffe600786015492610faa87612064565b96610feb610fc66003610fbf60018501612064565b93016122a1565b916040519a8b9a6101008c526101008c0190612108565b908a820360208c0152612108565b916040890152878203606089015261221b565b93608086019061212d565b6001600160401b03811660a08501526001600160401b038160401c1660c085015260801c16151560e08301520390f35b611056602061106593600393604051938492839251928391612007565b810187815203019020016122a1565b825b815181101561109d57336001600160a01b0361108383856122f5565b51161461109257600101611067565b505090506001610f60565b505090610f60565b346101cc5760603660031901126101cc576004356001600160401b0381116101cc576110d5903690600401611f35565b906024356001600160401b0381116101cc576110f5903690600401611f35565b906044356001600160401b0381116101cc57611115903690600401611f35565b91611121368787611f83565b6040519060ff8151926020818185019561113c818389612007565b810160028152030190205416156102445760029061116260405193849251928391612007565b600090830190815282900360200190912001546001600160a01b03163303610497576111c6936111a9916005604051898982376020818b81016000815203019020016124ce565b6006604051868682376020818881016000815203019020016124ce565b6111f260405183838237600784820191600083526020816001600160401b034216940301902001612321565b8160405192839283378101600081520390207f118f8a5a251028ff08d7fefd23abb6d8fdf2b823a5a54f21fdccb15f8a09addd600080a2005b346101cc5760203660031901126101cc576004356001600160401b0381116101cc5761125b903690600401611f35565b90611267368383611f83565b9060405160ff83519160208181870194611282818388612007565b810160028152030190205416156102445760036112b260206112c293600096604051938492839251928391612007565b81016000815203019020016122a1565b60005b81518110156113ea57336001600160a01b036112e183856122f5565b5116146112f0576001016112c5565b5050905060015b15610497576005546040516302734eab60e51b815290602090829060049082906001600160a01b03165afa908115610e2b576000916113cb575b506004811015610de6576003036113ba576020908260405193849283378101600081520301902060ff600782015460801c16156113a957806101ab6113876006611380600561139b9601612064565b9301612064565b604051938493604085526040850190612108565b908382036020850152612108565b6313c06ebd60e31b60005260046000fd5b634eab270160e01b60005260046000fd5b6113e4915060203d602011610e2457610e168183611f62565b83611331565b5050906112f7565b346101cc5760203660031901126101cc576004356004548110156101cc5761141b602091612258565b905460405160039290921b1c6001600160a01b03168152f35b346101cc57602061144d61144736612150565b916123eb565b6040519015158152f35b346101cc5760003660031901126101cc576005546040516001600160a01b039091168152602090f35b346101cc5761148e36612150565b611499368385611f83565b6040519060ff815192602081818501956114b4818389612007565b81016002815203019020541615610244576002906114da60405193849251928391612007565b600090830190815282900360200190912001546001600160a01b03163303610497576001600160a01b0316918215610486576003604051838382376020818581016000815203019020016000196000908254915b828110611819575b5060001981146118085760001982019182116109175761036b61155c6115759385612289565b905460039190911b1c6001600160a01b03169184612289565b805480156109015760001901906115a461158f8383612289565b81549060018060a01b039060031b1b19169055565b556115d160405183838237600784820191600083526020816001600160401b034216940301902001612321565b600080600454905b8181106116d3575b505015611622575b8160405192839283378101600081520390207f76be9dab7e679f0f2cd6897b213dc3df48cea1a62cce5ffdec3e64a39f31f003600080a3005b90826000526003602052604060002060ff19815416905560005b600454808210156116cb578461165183612258565b905460039190911b1c6001600160a01b031614611671575060010161163c565b9192916000198101919082116109175761036b6116906116a893612258565b905460039190911b1c6001600160a01b031691612258565b600454801561090157600019016116c361158f826004612289565b6004556115e9565b5050906115e9565b856116dd82612258565b905460039190911b1c6001600160a01b0316146116fc576001016115d9565b5050919060005b84600052600160205260406000205481101561180057846000526001602052611739611733826040600020612289565b50612064565b6040519060ff81519260208181850195611754818389612007565b81016002815203019020541661176f575b5050600101611703565b602060039261178992604051938492839251928391612007565b8101600081520301902001856000918054925b8381106117bf575b50505050836117b4578580611765565b5090915b84806115e1565b826117cd82849a979a612289565b905460039190911b1c6001600160a01b0316146117ef5760010196939661179c565b5050505050600192858581806117a4565b5090916117b8565b634b4972a160e11b60005260046000fd5b866118248286612289565b905460039190911b1c6001600160a01b0316146118435760010161152e565b905086611536565b346101cc57602060ff6118748261186136611fc9565b8160405193828580945193849201612007565b8101600281520301902054166040519015158152f35b346101cc5760203660031901126101cc576004356001600160401b0381116101cc576118ba903690600401612192565b6118c381612360565b916118cd82612360565b906118d783612349565b6118e46040519182611f62565b838152601f196118f385612349565b0136602083013761190384612349565b906119116040519283611f62565b84825261191d85612349565b602083019490601f190136863761193386612349565b936119416040519586611f62565b86855261194d87612349565b602086019790601f190136893760005b818110611a295761198a8a8a8a8a8a60206119a58c6119978d6040519a8b9a60a08c5260a08c01906121c2565b908a8203868c01526121c2565b9088820360408a015261221b565b918683036060880152519182815201929060005b818110611a02575050506020908483036080860152519182815201919060005b8181106119e7575050500390f35b825115158452859450602093840193909201916001016119d9565b91949550919260208082611a19600194895161212d565b01950191019186959493926119b9565b60ff6020611a388385876123aa565b9190826040519384928337810160028152030190205416611a5c575b60010161195d565b6020611a698284866123aa565b91908260405193849283378101600081520301902090611a8882612064565b611a92828d6122f5565b52611a9d818c6122f5565b50611aaa60018301612064565b611ab482876122f5565b52611abf81866122f5565b5060028201546001600160a01b0316611ad882886122f5565b5260ff600483015416611aeb82896122f5565b6002821015610de65760019360ff9260079252015460801c16611b0e828a6122f5565b90151590529050611a54565b346101cc5760203660031901126101cc576004356001600160401b0381116101cc57611b4a903690600401611f35565b60ff604051828482376020818481016002815203019020541615610244576007816020809460ff94604051938492833781016000815203019020015460801c166040519015158152f35b346101cc57611ba236612150565b909160ff604051848382376020818681016002815203019020541615610244576002836020946040519384376000908301908152829003840190912001546040516001600160a01b0392831691909216148152f35b346101cc57611c0a602061186136611fc9565b81016000815203019020610120611c2082612064565b9160ff611cbd611c3260018401612064565b92611caf60018060a01b0360028301541684600484015416611ca2611c5960058601612064565b91611c926007611c6b60068901612064565b97015499611c846040519d8d8f9e8f9081520190612108565b8c810360208e015290612108565b9360408b015260608a019061212d565b8782036080890152612108565b9085820360a0870152612108565b916001600160401b03811660c08501526001600160401b038160401c1660e085015260801c1615156101008301520390f35b346101cc5760203660031901126101cc576004356001600160401b0381116101cc57611d1f903690600401611f35565b90611d2b368383611f83565b9060405160ff83519160208181870194611d46818388612007565b810160028152030190205416156102445760036112b26020611d7693600096604051938492839251928391612007565b60005b8151811015611eb057336001600160a01b03611d9583856122f5565b511614611da457600101611d79565b5050905060015b15610497576005546040516302734eab60e51b815290602090829060049082906001600160a01b03165afa908115610e2b57600091611e91575b506004811015610de6576003036113ba57604051828282376020818481016000815203019020600781019283549260ff8460801c166113a95760046020937f9e379b91c2a38bbf3ad1980f07480411c5b71925153a238d75c9ca396bca3ad395600160801b9060ff60801b191617875501600160ff19825416179055611e756001600160401b0342168096612321565b81604051928392833781016000815203902092604051908152a2005b611eaa915060203d602011610e2457610e168183611f62565b83611de5565b505090611dab565b346101cc5760403660031901126101cc576004356001600160401b0381116101cc57611ee8903690600401611f35565b60ff60243593828482376020818481016002815203019020541615610244576020600392826040519384928337810160008152030190200180548210156118085760209161141b91612289565b9181601f840112156101cc578235916001600160401b0383116101cc57602083818601950101116101cc57565b90601f801991011681019081106001600160401b0382111761043557604052565b9291926001600160401b0382116104355760405191611fac601f8201601f191660200184611f62565b8294818452818301116101cc578281602093846000960137010152565b60206003198201126101cc57600435906001600160401b0382116101cc57806023830112156101cc5781602461200493600401359101611f83565b90565b60005b83811061201a5750506000910152565b818101518382015260200161200a565b90600182811c9216801561205a575b602083101461204457565b634e487b7160e01b600052602260045260246000fd5b91607f1691612039565b90604051918260008254926120788461202a565b80845293600181169081156120e6575060011461209f575b5061209d92500383611f62565b565b90506000929192526020600020906000915b8183106120ca57505090602061209d9282010138612090565b60209193508060019154838589010152019101909184926120b1565b90506020925061209d94915060ff191682840152151560051b82010138612090565b9060209161212181518092818552858086019101612007565b601f01601f1916010190565b906002821015610de65752565b600435906001600160a01b03821682036101cc57565b60406003198201126101cc57600435906001600160401b0382116101cc5761217a91600401611f35565b90916024356001600160a01b03811681036101cc5790565b9181601f840112156101cc578235916001600160401b0383116101cc576020808501948460051b0101116101cc57565b9080602083519182815201916020808360051b8301019401926000915b8383106121ee57505050505090565b909192939460208061220c600193601f198682030187528951612108565b970193019301919392906121df565b906020808351928381520192019060005b8181106122395750505090565b82516001600160a01b031684526020938401939092019160010161222c565b60045481101561227357600460005260206000200190600090565b634e487b7160e01b600052603260045260246000fd5b80548210156122735760005260206000200190600090565b906040519182815491828252602082019060005260206000209260005b8181106122d357505061209d92500383611f62565b84546001600160a01b03168352600194850194879450602090930192016122be565b80518210156122735760209160051b010190565b908160209103126101cc575160048110156101cc5790565b9067ffffffffffffffff60401b82549160401b169067ffffffffffffffff60401b1916179055565b6001600160401b0381116104355760051b60200190565b9061236a82612349565b6123776040519182611f62565b8281528092612388601f1991612349565b019060005b82811061239957505050565b80606060208093850101520161238d565b91908110156122735760051b81013590601e19813603018212156101cc5701908135916001600160401b0383116101cc5760200182360381136101cc579190565b9060ff6040518284823760208184810160028152030190205416156102445760206003928260405193849283378101600081520301902001906000918054925b83811061243b5750505050600090565b6124458183612289565b905460039190911b1c6001600160a01b03908116908416146124695760010161242b565b50505050600190565b81811061247d575050565b60008155600101612472565b9190601f811161249857505050565b61209d926000526020600020906020601f840160051c830193106124c4575b601f0160051c0190612472565b90915081906124b7565b9092916001600160401b038111610435576124f3816124ed845461202a565b84612489565b6000601f8211600114612534578190612525939495600092612529575b50508160011b916000199060031b1c19161790565b9055565b013590503880612510565b601f198216948382526020822091805b87811061257c575083600195969710612562575b505050811b019055565b0135600019600384901b60f8161c19169055388080612558565b90926020600181928686013581550194019101612544565b91908110156122735760051b0190565b356001600160a01b03811681036101cc5790565b60045490600160401b8210156104355761036b82600161209d94016004556004612289565b90918060409360208452816020850152848401376000828201840152601f01601f1916010190565b9190918281146126d757612619835461202a565b6001600160401b03811161043557612635816124ed845461202a565b600093601f82116001146126725761252592939482916000926126675750508160011b916000199060031b1c19161790565b015490503880612510565b845260208085208386529085209094601f198316815b8181106126bf575095836001959697106126a657505050811b019055565b015460001960f88460031b161c19169055388080612558565b9192600180602092868b015481550194019201612688565b509050565b6126e6815461202a565b90816126f0575050565b81601f60009311600114612702575055565b8183526020832061271e91601f0160051c810190600101612472565b808252816020812091555556fea26469706673582212201bd0aa41211782990c1ebefad20252beda06b8cc099127ca25f394921d196b7e64736f6c634300081c0033","opcodes":"PUSH1 0x80 CALLVALUE PUSH1 0x86 JUMPI PUSH1 0x1F PUSH2 0x2803 CODESIZE DUP2 SWAP1 SUB SWAP2 DUP3 ADD PUSH1 0x1F NOT AND DUP4 ADD SWAP2 PUSH1 0x1 PUSH1 0x1 PUSH1 0x40 SHL SUB DUP4 GT DUP5 DUP5 LT OR PUSH1 0x8B JUMPI DUP1 DUP5 SWAP3 PUSH1 0x20 SWAP5 PUSH1 0x40 MSTORE DUP4 CODECOPY DUP2 ADD SUB SLT PUSH1 0x86 JUMPI MLOAD PUSH1 0x1 PUSH1 0x1 PUSH1 0xA0 SHL SUB DUP2 AND SWAP1 DUP2 SWAP1 SUB PUSH1 0x86 JUMPI DUP1 ISZERO PUSH1 0x75 JUMPI PUSH1 0x5 DUP1 SLOAD PUSH1 0x1 PUSH1 0x1 PUSH1 0xA0 SHL SUB NOT AND SWAP2 SWAP1 SWAP2 OR SWAP1 SSTORE PUSH1 0x40 MLOAD PUSH2 0x2761 SWAP1 DUP2 PUSH2 0xA2 DUP3 CODECOPY RETURN JUMPDEST PUSH4 0xE6C4247B PUSH1 0xE0 SHL PUSH1 0x0 MSTORE PUSH1 0x4 PUSH1 0x0 REVERT JUMPDEST PUSH1 0x0 DUP1 REVERT JUMPDEST PUSH4 0x4E487B71 PUSH1 0xE0 SHL PUSH1 0x0 MSTORE PUSH1 0x41 PUSH1 0x4 MSTORE PUSH1 0x24 PUSH1 0x0 REVERT INVALID PUSH1 0x80 DUP1 PUSH1 0x40 MSTORE PUSH1 0x4 CALLDATASIZE LT ISZERO PUSH2 0x13 JUMPI PUSH1 0x0 DUP1 REVERT JUMPDEST PUSH1 0x0 CALLDATALOAD PUSH1 0xE0 SHR SWAP1 DUP2 PUSH4 0xC490D13 EQ PUSH2 0x1EB8 JUMPI POP DUP1 PUSH4 0xC5A2F1D EQ PUSH2 0x1CEF JUMPI DUP1 PUSH4 0x11B6F8E6 EQ PUSH2 0x1BF7 JUMPI DUP1 PUSH4 0x27D54B9F EQ PUSH2 0x1B94 JUMPI DUP1 PUSH4 0x2D8C263B EQ PUSH2 0x1B1A JUMPI DUP1 PUSH4 0x2E3F132D EQ PUSH2 0x188A JUMPI DUP1 PUSH4 0x3B7316C1 EQ PUSH2 0x184B JUMPI DUP1 PUSH4 0x4CC74432 EQ PUSH2 0x1480 JUMPI DUP1 PUSH4 0x5000596B EQ PUSH2 0x1457 JUMPI DUP1 PUSH4 0x5F4A9F91 EQ PUSH2 0x1434 JUMPI DUP1 PUSH4 0x6AE22B53 EQ PUSH2 0x13F2 JUMPI DUP1 PUSH4 0x6E895A66 EQ PUSH2 0x122B JUMPI DUP1 PUSH4 0x701D5B08 EQ PUSH2 0x10A5 JUMPI DUP1 PUSH4 0x744C3FDE EQ PUSH2 0xEBB JUMPI DUP1 PUSH4 0x74AC3287 EQ PUSH2 0xE48 JUMPI DUP1 PUSH4 0x791ED6B6 EQ PUSH2 0xA4A JUMPI DUP1 PUSH4 0x828EDBE8 EQ PUSH2 0xA10 JUMPI DUP1 PUSH4 0x875E407A EQ PUSH2 0x999 JUMPI DUP1 PUSH4 0x91B6C696 EQ PUSH2 0x695 JUMPI DUP1 PUSH4 0x9C841FEF EQ PUSH2 0x615 JUMPI DUP1 PUSH4 0xA86E4E38 EQ PUSH2 0x4A7 JUMPI DUP1 PUSH4 0xAD46915C EQ PUSH2 0x294 JUMPI DUP1 PUSH4 0xAEC5C6F4 EQ PUSH2 0x255 JUMPI DUP1 PUSH4 0xDD6B4B5E EQ PUSH2 0x1D1 JUMPI PUSH4 0xE7F3C69C EQ PUSH2 0x132 JUMPI PUSH1 0x0 DUP1 REVERT JUMPDEST CALLVALUE PUSH2 0x1CC JUMPI PUSH1 0x20 CALLDATASIZE PUSH1 0x3 NOT ADD SLT PUSH2 0x1CC JUMPI PUSH1 0x1 PUSH1 0x1 PUSH1 0xA0 SHL SUB PUSH2 0x153 PUSH2 0x213A JUMP JUMPDEST AND PUSH1 0x0 MSTORE PUSH1 0x1 PUSH1 0x20 MSTORE PUSH1 0x40 PUSH1 0x0 KECCAK256 DUP1 SLOAD PUSH2 0x16C DUP2 PUSH2 0x2349 JUMP JUMPDEST SWAP2 PUSH2 0x17A PUSH1 0x40 MLOAD SWAP4 DUP5 PUSH2 0x1F62 JUMP JUMPDEST DUP2 DUP4 MSTORE PUSH1 0x20 DUP4 ADD SWAP1 PUSH1 0x0 MSTORE PUSH1 0x20 PUSH1 0x0 KECCAK256 PUSH1 0x0 SWAP2 JUMPDEST DUP4 DUP4 LT PUSH2 0x1AF JUMPI PUSH1 0x40 MLOAD PUSH1 0x20 DUP1 DUP3 MSTORE DUP2 SWAP1 PUSH2 0x1AB SWAP1 DUP3 ADD DUP9 PUSH2 0x21C2 JUMP JUMPDEST SUB SWAP1 RETURN JUMPDEST PUSH1 0x1 PUSH1 0x20 DUP2 SWAP3 PUSH2 0x1BE DUP6 PUSH2 0x2064 JUMP JUMPDEST DUP2 MSTORE ADD SWAP3 ADD SWAP3 ADD SWAP2 SWAP1 PUSH2 0x18E JUMP JUMPDEST PUSH1 0x0 DUP1 REVERT JUMPDEST CALLVALUE PUSH2 0x1CC JUMPI PUSH1 0x20 CALLDATASIZE PUSH1 0x3 NOT ADD SLT PUSH2 0x1CC JUMPI PUSH1 0x4 CALLDATALOAD PUSH1 0x1 PUSH1 0x1 PUSH1 0x40 SHL SUB DUP2 GT PUSH2 0x1CC JUMPI PUSH2 0x201 SWAP1 CALLDATASIZE SWAP1 PUSH1 0x4 ADD PUSH2 0x1F35 JUMP JUMPDEST SWAP1 PUSH1 0xFF PUSH1 0x40 MLOAD DUP4 DUP4 DUP3 CALLDATACOPY PUSH1 0x20 DUP2 DUP6 DUP2 ADD PUSH1 0x2 DUP2 MSTORE SUB ADD SWAP1 KECCAK256 SLOAD AND ISZERO PUSH2 0x244 JUMPI DUP2 PUSH1 0x20 PUSH1 0x3 SWAP3 DUP2 SWAP5 PUSH1 0x40 MLOAD SWAP4 DUP5 SWAP3 DUP4 CALLDATACOPY DUP2 ADD PUSH1 0x0 DUP2 MSTORE SUB ADD SWAP1 KECCAK256 ADD SLOAD PUSH1 0x40 MLOAD SWAP1 DUP2 MSTORE RETURN JUMPDEST PUSH4 0xDEE790FB PUSH1 0xE0 SHL PUSH1 0x0 MSTORE PUSH1 0x4 PUSH1 0x0 REVERT JUMPDEST CALLVALUE PUSH2 0x1CC JUMPI PUSH1 0x20 CALLDATASIZE PUSH1 0x3 NOT ADD SLT PUSH2 0x1CC JUMPI PUSH1 0x1 PUSH1 0x1 PUSH1 0xA0 SHL SUB PUSH2 0x276 PUSH2 0x213A JUMP JUMPDEST AND PUSH1 0x0 MSTORE PUSH1 0x3 PUSH1 0x20 MSTORE PUSH1 0x20 PUSH1 0xFF PUSH1 0x40 PUSH1 0x0 KECCAK256 SLOAD AND PUSH1 0x40 MLOAD SWAP1 ISZERO ISZERO DUP2 MSTORE RETURN JUMPDEST CALLVALUE PUSH2 0x1CC JUMPI PUSH2 0x2A2 CALLDATASIZE PUSH2 0x2150 JUMP JUMPDEST SWAP2 PUSH2 0x2AE CALLDATASIZE DUP4 DUP4 PUSH2 0x1F83 JUMP JUMPDEST PUSH1 0x40 MLOAD SWAP1 PUSH1 0xFF DUP2 MLOAD SWAP3 PUSH1 0x20 DUP2 DUP2 DUP6 ADD SWAP6 PUSH2 0x2C9 DUP2 DUP4 DUP10 PUSH2 0x2007 JUMP JUMPDEST DUP2 ADD PUSH1 0x2 DUP2 MSTORE SUB ADD SWAP1 KECCAK256 SLOAD AND ISZERO PUSH2 0x244 JUMPI PUSH1 0x2 SWAP1 PUSH2 0x2EF PUSH1 0x40 MLOAD SWAP4 DUP5 SWAP3 MLOAD SWAP3 DUP4 SWAP2 PUSH2 0x2007 JUMP JUMPDEST PUSH1 0x0 SWAP1 DUP4 ADD SWAP1 DUP2 MSTORE DUP3 SWAP1 SUB PUSH1 0x20 ADD SWAP1 SWAP2 KECCAK256 ADD SLOAD PUSH1 0x1 PUSH1 0x1 PUSH1 0xA0 SHL SUB AND CALLER SUB PUSH2 0x497 JUMPI PUSH1 0x1 PUSH1 0x1 PUSH1 0xA0 SHL SUB DUP4 AND SWAP3 DUP4 ISZERO PUSH2 0x486 JUMPI PUSH1 0x3 PUSH1 0x40 MLOAD DUP5 DUP5 DUP3 CALLDATACOPY PUSH1 0x20 DUP2 DUP7 DUP2 ADD PUSH1 0x0 DUP2 MSTORE SUB ADD SWAP1 KECCAK256 ADD PUSH1 0x0 DUP2 SLOAD SWAP1 JUMPDEST DUP2 DUP2 LT PUSH2 0x44B JUMPI POP POP DUP1 SLOAD PUSH1 0x1 PUSH1 0x40 SHL DUP2 LT ISZERO PUSH2 0x435 JUMPI PUSH2 0x36B DUP2 PUSH2 0x38F SWAP4 PUSH1 0x1 DUP7 SWAP5 ADD DUP2 SSTORE PUSH2 0x2289 JUMP JUMPDEST DUP2 SLOAD PUSH1 0x1 PUSH1 0x1 PUSH1 0xA0 SHL SUB SWAP4 DUP5 AND PUSH1 0x3 SWAP3 SWAP1 SWAP3 SHL SWAP2 DUP3 SHL SWAP4 SWAP1 SWAP2 SHL NOT AND SWAP2 SWAP1 SWAP2 OR SWAP1 SSTORE JUMP JUMPDEST PUSH2 0x3BB PUSH1 0x40 MLOAD DUP5 DUP5 DUP3 CALLDATACOPY PUSH1 0x7 DUP6 DUP3 ADD SWAP2 PUSH1 0x0 DUP4 MSTORE PUSH1 0x20 DUP2 PUSH1 0x1 PUSH1 0x1 PUSH1 0x40 SHL SUB TIMESTAMP AND SWAP5 SUB ADD SWAP1 KECCAK256 ADD PUSH2 0x2321 JUMP JUMPDEST DUP4 PUSH1 0x0 MSTORE PUSH1 0x3 PUSH1 0x20 MSTORE PUSH1 0xFF PUSH1 0x40 PUSH1 0x0 KECCAK256 SLOAD AND ISZERO PUSH2 0x40D JUMPI JUMPDEST POP DUP2 PUSH1 0x40 MLOAD SWAP3 DUP4 SWAP3 DUP4 CALLDATACOPY DUP2 ADD PUSH1 0x0 DUP2 MSTORE SUB SWAP1 KECCAK256 PUSH32 0x5B24E906ED33D54AFA2C3096B24B154479110726563D9727B6561726054B3F90 PUSH1 0x0 DUP1 LOG3 STOP JUMPDEST PUSH2 0x42F SWAP1 DUP5 PUSH1 0x0 MSTORE PUSH1 0x3 PUSH1 0x20 MSTORE PUSH1 0x40 PUSH1 0x0 KECCAK256 PUSH1 0x1 PUSH1 0xFF NOT DUP3 SLOAD AND OR SWAP1 SSTORE PUSH2 0x25B8 JUMP JUMPDEST DUP4 PUSH2 0x3D3 JUMP JUMPDEST PUSH4 0x4E487B71 PUSH1 0xE0 SHL PUSH1 0x0 MSTORE PUSH1 0x41 PUSH1 0x4 MSTORE PUSH1 0x24 PUSH1 0x0 REVERT JUMPDEST DUP7 PUSH2 0x456 DUP3 DUP6 PUSH2 0x2289 JUMP JUMPDEST SWAP1 SLOAD PUSH1 0x3 SWAP2 SWAP1 SWAP2 SHL SHR PUSH1 0x1 PUSH1 0x1 PUSH1 0xA0 SHL SUB AND EQ PUSH2 0x475 JUMPI PUSH1 0x1 ADD PUSH2 0x340 JUMP JUMPDEST PUSH4 0x28E4C7AB PUSH1 0xE1 SHL PUSH1 0x0 MSTORE PUSH1 0x4 PUSH1 0x0 REVERT JUMPDEST PUSH4 0xE6C4247B PUSH1 0xE0 SHL PUSH1 0x0 MSTORE PUSH1 0x4 PUSH1 0x0 REVERT JUMPDEST PUSH3 0x82B429 PUSH1 0xE8 SHL PUSH1 0x0 MSTORE PUSH1 0x4 PUSH1 0x0 REVERT JUMPDEST CALLVALUE PUSH2 0x1CC JUMPI PUSH1 0x40 CALLDATASIZE PUSH1 0x3 NOT ADD SLT PUSH2 0x1CC JUMPI PUSH1 0x4 CALLDATALOAD PUSH1 0x1 PUSH1 0x1 PUSH1 0x40 SHL SUB DUP2 GT PUSH2 0x1CC JUMPI PUSH2 0x4D7 SWAP1 CALLDATASIZE SWAP1 PUSH1 0x4 ADD PUSH2 0x1F35 JUMP JUMPDEST SWAP1 PUSH1 0x24 CALLDATALOAD PUSH1 0x1 PUSH1 0x1 PUSH1 0x40 SHL SUB DUP2 GT PUSH2 0x1CC JUMPI PUSH2 0x4F7 SWAP1 CALLDATASIZE SWAP1 PUSH1 0x4 ADD PUSH2 0x1F35 JUMP JUMPDEST SWAP1 SWAP3 PUSH2 0x504 CALLDATASIZE DUP3 DUP6 PUSH2 0x1F83 JUMP JUMPDEST PUSH1 0x40 MLOAD SWAP1 PUSH1 0xFF DUP2 MLOAD SWAP3 PUSH1 0x20 DUP2 DUP2 DUP6 ADD SWAP6 PUSH2 0x51F DUP2 DUP4 DUP10 PUSH2 0x2007 JUMP JUMPDEST DUP2 ADD PUSH1 0x2 DUP2 MSTORE SUB ADD SWAP1 KECCAK256 SLOAD AND ISZERO PUSH2 0x244 JUMPI PUSH1 0x2 SWAP1 PUSH2 0x545 PUSH1 0x40 MLOAD SWAP4 DUP5 SWAP3 MLOAD SWAP3 DUP4 SWAP2 PUSH2 0x2007 JUMP JUMPDEST PUSH1 0x0 SWAP1 DUP4 ADD SWAP1 DUP2 MSTORE DUP3 SWAP1 SUB PUSH1 0x20 ADD SWAP1 SWAP2 KECCAK256 ADD SLOAD PUSH1 0x1 PUSH1 0x1 PUSH1 0xA0 SHL SUB AND CALLER SUB PUSH2 0x497 JUMPI DUP2 ISZERO PUSH2 0x604 JUMPI PUSH32 0x96E591A23A774FFE2C2EB47F8C39AEEFAFC9F7A098D8D66170621BFE53838723 SWAP3 PUSH2 0x5B1 DUP4 DUP7 PUSH1 0x1 PUSH1 0x40 MLOAD DUP7 DUP7 DUP3 CALLDATACOPY PUSH1 0x20 DUP2 DUP9 DUP2 ADD PUSH1 0x0 DUP2 MSTORE SUB ADD SWAP1 KECCAK256 ADD PUSH2 0x24CE JUMP JUMPDEST PUSH2 0x5DD PUSH1 0x40 MLOAD DUP4 DUP4 DUP3 CALLDATACOPY PUSH1 0x7 DUP5 DUP3 ADD SWAP2 PUSH1 0x0 DUP4 MSTORE PUSH1 0x20 DUP2 PUSH1 0x1 PUSH1 0x1 PUSH1 0x40 SHL SUB TIMESTAMP AND SWAP5 SUB ADD SWAP1 KECCAK256 ADD PUSH2 0x2321 JUMP JUMPDEST DUP2 PUSH1 0x40 MLOAD SWAP3 DUP4 SWAP3 DUP4 CALLDATACOPY DUP2 ADD PUSH1 0x0 DUP2 MSTORE SUB SWAP1 KECCAK256 SWAP3 PUSH2 0x5FF PUSH1 0x40 MLOAD SWAP3 DUP4 SWAP3 DUP4 PUSH2 0x25DD JUMP JUMPDEST SUB SWAP1 LOG2 STOP JUMPDEST PUSH4 0x19D2EE13 PUSH1 0xE0 SHL PUSH1 0x0 MSTORE PUSH1 0x4 PUSH1 0x0 REVERT JUMPDEST CALLVALUE PUSH2 0x1CC JUMPI PUSH1 0x40 CALLDATASIZE PUSH1 0x3 NOT ADD SLT PUSH2 0x1CC JUMPI PUSH2 0x62E PUSH2 0x213A JUMP JUMPDEST PUSH1 0x1 PUSH1 0x1 PUSH1 0xA0 SHL SUB AND PUSH1 0x0 SWAP1 DUP2 MSTORE PUSH1 0x1 PUSH1 0x20 MSTORE PUSH1 0x40 SWAP1 KECCAK256 DUP1 SLOAD PUSH1 0x24 CALLDATALOAD SWAP1 DUP2 LT ISZERO PUSH2 0x1CC JUMPI PUSH2 0x65B SWAP2 PUSH2 0x2289 JUMP JUMPDEST PUSH2 0x67F JUMPI PUSH2 0x66B PUSH2 0x1AB SWAP2 PUSH2 0x2064 JUMP JUMPDEST PUSH1 0x40 MLOAD SWAP2 DUP3 SWAP2 PUSH1 0x20 DUP4 MSTORE PUSH1 0x20 DUP4 ADD SWAP1 PUSH2 0x2108 JUMP JUMPDEST PUSH4 0x4E487B71 PUSH1 0xE0 SHL PUSH1 0x0 MSTORE PUSH1 0x0 PUSH1 0x4 MSTORE PUSH1 0x24 PUSH1 0x0 REVERT JUMPDEST CALLVALUE PUSH2 0x1CC JUMPI PUSH1 0x20 CALLDATASIZE PUSH1 0x3 NOT ADD SLT PUSH2 0x1CC JUMPI PUSH1 0x4 CALLDATALOAD PUSH1 0x1 PUSH1 0x1 PUSH1 0x40 SHL SUB DUP2 GT PUSH2 0x1CC JUMPI PUSH2 0x6C5 SWAP1 CALLDATASIZE SWAP1 PUSH1 0x4 ADD PUSH2 0x1F35 JUMP JUMPDEST SWAP1 PUSH2 0x6D1 CALLDATASIZE DUP4 DUP4 PUSH2 0x1F83 JUMP JUMPDEST PUSH1 0x40 MLOAD SWAP1 PUSH1 0xFF DUP2 MLOAD SWAP3 PUSH1 0x20 DUP2 DUP2 DUP6 ADD SWAP6 PUSH2 0x6EC DUP2 DUP4 DUP10 PUSH2 0x2007 JUMP JUMPDEST DUP2 ADD PUSH1 0x2 DUP2 MSTORE SUB ADD SWAP1 KECCAK256 SLOAD AND ISZERO PUSH2 0x244 JUMPI PUSH1 0x2 SWAP1 PUSH2 0x712 PUSH1 0x40 MLOAD SWAP4 DUP5 SWAP3 MLOAD SWAP3 DUP4 SWAP2 PUSH2 0x2007 JUMP JUMPDEST PUSH1 0x0 SWAP1 DUP4 ADD SWAP1 DUP2 MSTORE DUP3 SWAP1 SUB PUSH1 0x20 ADD SWAP1 SWAP2 KECCAK256 ADD SLOAD PUSH1 0x1 PUSH1 0x1 PUSH1 0xA0 SHL SUB AND CALLER SUB PUSH2 0x497 JUMPI CALLER PUSH1 0x0 MSTORE PUSH1 0x1 PUSH1 0x20 MSTORE PUSH1 0x40 PUSH1 0x0 KECCAK256 PUSH1 0x0 JUMPDEST DUP2 SLOAD DUP1 DUP3 LT ISZERO PUSH2 0x98E JUMPI PUSH2 0x759 DUP3 DUP5 PUSH2 0x2289 JUMP JUMPDEST POP PUSH1 0x40 MLOAD DUP2 SLOAD SWAP2 DUP2 PUSH1 0x0 PUSH2 0x76C DUP6 PUSH2 0x202A JUMP JUMPDEST SWAP3 DUP4 DUP4 MSTORE PUSH1 0x20 DUP4 ADD SWAP6 PUSH1 0x1 DUP2 AND SWAP1 DUP2 PUSH1 0x0 EQ PUSH2 0x96F JUMPI POP PUSH1 0x1 EQ PUSH2 0x92D JUMPI JUMPDEST POP PUSH2 0x798 SWAP3 POP SUB DUP3 PUSH2 0x1F62 JUMP JUMPDEST MLOAD SWAP1 KECCAK256 PUSH2 0x7A6 CALLDATASIZE DUP8 DUP8 PUSH2 0x1F83 JUMP JUMPDEST PUSH1 0x20 DUP2 MLOAD SWAP2 ADD KECCAK256 EQ PUSH2 0x7BB JUMPI POP PUSH1 0x1 ADD PUSH2 0x745 JUMP JUMPDEST SWAP2 SWAP3 SWAP2 PUSH1 0x0 NOT DUP2 ADD SWAP1 DUP2 GT PUSH2 0x917 JUMPI PUSH2 0x7D7 PUSH2 0x7DF SWAP2 DUP6 PUSH2 0x2289 JUMP JUMPDEST POP SWAP2 DUP5 PUSH2 0x2289 JUMP JUMPDEST SWAP2 SWAP1 SWAP2 PUSH2 0x67F JUMPI PUSH2 0x7EF SWAP2 PUSH2 0x2605 JUMP JUMPDEST DUP2 SLOAD DUP1 ISZERO PUSH2 0x901 JUMPI PUSH1 0x0 NOT ADD PUSH2 0x805 DUP2 DUP5 PUSH2 0x2289 JUMP JUMPDEST SWAP4 SWAP1 SWAP4 PUSH2 0x67F JUMPI DUP4 PUSH2 0x819 PUSH1 0x20 SWAP6 SLOAD PUSH2 0x202A JUMP JUMPDEST SWAP1 DUP2 PUSH2 0x8BF JUMPI JUMPDEST POP POP SSTORE JUMPDEST PUSH1 0x0 PUSH1 0x7 PUSH1 0x40 MLOAD DUP6 DUP5 DUP3 CALLDATACOPY DUP5 DUP2 DUP8 DUP2 ADD DUP6 DUP2 MSTORE SUB ADD SWAP1 KECCAK256 PUSH2 0x844 DUP2 PUSH2 0x26DC JUMP JUMPDEST PUSH2 0x850 PUSH1 0x1 DUP3 ADD PUSH2 0x26DC JUMP JUMPDEST DUP3 PUSH1 0x2 DUP3 ADD SSTORE PUSH1 0x3 DUP2 ADD DUP1 SLOAD DUP5 DUP3 SSTORE DUP1 PUSH2 0x8A6 JUMPI JUMPDEST POP POP DUP3 PUSH1 0x4 DUP3 ADD SSTORE PUSH2 0x879 PUSH1 0x5 DUP3 ADD PUSH2 0x26DC JUMP JUMPDEST PUSH2 0x885 PUSH1 0x6 DUP3 ADD PUSH2 0x26DC JUMP JUMPDEST ADD SSTORE DUP3 PUSH1 0x40 MLOAD SWAP4 DUP5 SWAP3 DUP4 CALLDATACOPY PUSH1 0x2 SWAP1 DUP3 ADD SWAP1 DUP2 MSTORE SUB ADD SWAP1 KECCAK256 DUP1 SLOAD PUSH1 0xFF NOT AND SWAP1 SSTORE STOP JUMPDEST PUSH2 0x8B8 SWAP2 DUP6 MSTORE DUP7 DUP6 KECCAK256 SWAP1 DUP2 ADD SWAP1 PUSH2 0x2472 JUMP JUMPDEST DUP7 DUP1 PUSH2 0x865 JUMP JUMPDEST DUP2 PUSH1 0x1F PUSH1 0x0 SWAP4 GT PUSH1 0x1 EQ PUSH2 0x8D7 JUMPI POP SSTORE JUMPDEST DUP6 DUP1 PUSH2 0x820 JUMP JUMPDEST DUP2 DUP4 MSTORE DUP7 DUP4 KECCAK256 PUSH2 0x8F2 SWAP2 PUSH1 0x1F ADD PUSH1 0x5 SHR DUP2 ADD SWAP1 PUSH1 0x1 ADD PUSH2 0x2472 JUMP JUMPDEST DUP1 DUP3 MSTORE DUP2 DUP7 DUP2 KECCAK256 SWAP2 SSTORE SSTORE PUSH2 0x8D0 JUMP JUMPDEST PUSH4 0x4E487B71 PUSH1 0xE0 SHL PUSH1 0x0 MSTORE PUSH1 0x31 PUSH1 0x4 MSTORE PUSH1 0x24 PUSH1 0x0 REVERT JUMPDEST PUSH4 0x4E487B71 PUSH1 0xE0 SHL PUSH1 0x0 MSTORE PUSH1 0x11 PUSH1 0x4 MSTORE PUSH1 0x24 PUSH1 0x0 REVERT JUMPDEST SWAP2 POP POP PUSH1 0x0 MSTORE PUSH1 0x20 PUSH1 0x0 KECCAK256 SWAP1 PUSH1 0x0 SWAP2 JUMPDEST DUP2 DUP4 LT PUSH2 0x956 JUMPI POP POP DUP2 PUSH1 0x20 PUSH2 0x798 SWAP3 DUP3 ADD ADD DUP11 PUSH2 0x78B JUMP JUMPDEST DUP1 SLOAD PUSH1 0x20 DUP5 DUP7 ADD DUP2 ADD SWAP2 SWAP1 SWAP2 MSTORE SWAP1 SWAP3 ADD SWAP2 PUSH1 0x1 ADD PUSH2 0x93D JUMP JUMPDEST PUSH1 0xFF NOT AND DUP8 MSTORE POP PUSH2 0x798 SWAP4 ISZERO ISZERO PUSH1 0x5 SHL DUP4 ADD PUSH1 0x20 ADD SWAP2 POP DUP12 SWAP1 POP PUSH2 0x78B JUMP JUMPDEST POP POP POP PUSH1 0x20 SWAP1 PUSH2 0x824 JUMP JUMPDEST CALLVALUE PUSH2 0x1CC JUMPI PUSH1 0x0 CALLDATASIZE PUSH1 0x3 NOT ADD SLT PUSH2 0x1CC JUMPI PUSH1 0x40 MLOAD PUSH1 0x4 SLOAD DUP1 DUP3 MSTORE PUSH1 0x20 DUP3 ADD SWAP1 PUSH1 0x4 PUSH1 0x0 MSTORE PUSH1 0x20 PUSH1 0x0 KECCAK256 SWAP1 PUSH1 0x0 JUMPDEST DUP2 DUP2 LT PUSH2 0x9F1 JUMPI PUSH2 0x1AB DUP6 PUSH2 0x9DD DUP2 DUP8 SUB DUP3 PUSH2 0x1F62 JUMP JUMPDEST PUSH1 0x40 MLOAD SWAP2 DUP3 SWAP2 PUSH1 0x20 DUP4 MSTORE PUSH1 0x20 DUP4 ADD SWAP1 PUSH2 0x221B JUMP JUMPDEST DUP3 SLOAD PUSH1 0x1 PUSH1 0x1 PUSH1 0xA0 SHL SUB AND DUP5 MSTORE PUSH1 0x20 SWAP1 SWAP4 ADD SWAP3 PUSH1 0x1 SWAP3 DUP4 ADD SWAP3 ADD PUSH2 0x9C6 JUMP JUMPDEST CALLVALUE PUSH2 0x1CC JUMPI PUSH1 0x20 CALLDATASIZE PUSH1 0x3 NOT ADD SLT PUSH2 0x1CC JUMPI PUSH1 0x1 PUSH1 0x1 PUSH1 0xA0 SHL SUB PUSH2 0xA31 PUSH2 0x213A JUMP JUMPDEST AND PUSH1 0x0 MSTORE PUSH1 0x1 PUSH1 0x20 MSTORE PUSH1 0x20 PUSH1 0x40 PUSH1 0x0 KECCAK256 SLOAD PUSH1 0x40 MLOAD SWAP1 DUP2 MSTORE RETURN JUMPDEST CALLVALUE PUSH2 0x1CC JUMPI PUSH1 0xA0 CALLDATASIZE PUSH1 0x3 NOT ADD SLT PUSH2 0x1CC JUMPI PUSH1 0x4 CALLDATALOAD PUSH1 0x1 PUSH1 0x1 PUSH1 0x40 SHL SUB DUP2 GT PUSH2 0x1CC JUMPI PUSH2 0xA7A SWAP1 CALLDATASIZE SWAP1 PUSH1 0x4 ADD PUSH2 0x1F35 JUMP JUMPDEST PUSH1 0x24 CALLDATALOAD PUSH1 0x1 PUSH1 0x1 PUSH1 0x40 SHL SUB DUP2 GT PUSH2 0x1CC JUMPI PUSH2 0xA99 SWAP1 CALLDATASIZE SWAP1 PUSH1 0x4 ADD PUSH2 0x1F35 JUMP JUMPDEST SWAP2 SWAP1 SWAP3 PUSH1 0x44 CALLDATALOAD PUSH1 0x1 PUSH1 0x1 PUSH1 0x40 SHL SUB DUP2 GT PUSH2 0x1CC JUMPI PUSH2 0xABB SWAP1 CALLDATASIZE SWAP1 PUSH1 0x4 ADD PUSH2 0x2192 JUMP JUMPDEST PUSH1 0x64 CALLDATALOAD PUSH1 0x1 PUSH1 0x1 PUSH1 0x40 SHL SUB DUP2 GT PUSH2 0x1CC JUMPI PUSH2 0xADA SWAP1 CALLDATASIZE SWAP1 PUSH1 0x4 ADD PUSH2 0x1F35 JUMP JUMPDEST PUSH1 0x84 CALLDATALOAD PUSH1 0x1 PUSH1 0x1 PUSH1 0x40 SHL SUB DUP2 GT PUSH2 0x1CC JUMPI PUSH2 0xAF9 SWAP1 CALLDATASIZE SWAP1 PUSH1 0x4 ADD PUSH2 0x1F35 JUMP JUMPDEST SWAP2 DUP8 ISZERO PUSH2 0x604 JUMPI PUSH1 0xFF PUSH1 0x40 MLOAD DUP10 DUP10 DUP3 CALLDATACOPY PUSH1 0x20 DUP2 DUP12 DUP2 ADD PUSH1 0x2 DUP2 MSTORE SUB ADD SWAP1 KECCAK256 SLOAD AND PUSH2 0xE37 JUMPI DUP9 ISZERO PUSH2 0x604 JUMPI PUSH1 0x5 SLOAD PUSH1 0x40 MLOAD PUSH4 0x2734EAB PUSH1 0xE5 SHL DUP2 MSTORE SWAP1 PUSH1 0x20 SWAP1 DUP3 SWAP1 PUSH1 0x4 SWAP1 DUP3 SWAP1 PUSH1 0x1 PUSH1 0x1 PUSH1 0xA0 SHL SUB AND GAS STATICCALL SWAP1 DUP2 ISZERO PUSH2 0xE2B JUMPI PUSH1 0x0 SWAP2 PUSH2 0xDFC JUMPI JUMPDEST POP PUSH1 0x4 DUP2 LT ISZERO PUSH2 0xDE6 JUMPI PUSH2 0x497 JUMPI PUSH1 0x0 JUMPDEST DUP6 DUP2 LT PUSH2 0xDC2 JUMPI POP PUSH1 0x40 MLOAD DUP9 DUP9 DUP3 CALLDATACOPY PUSH1 0x20 DUP2 DUP11 DUP2 ADD PUSH1 0x0 DUP2 MSTORE SUB ADD SWAP1 KECCAK256 SWAP4 PUSH2 0xB92 DUP10 DUP10 DUP8 PUSH2 0x24CE JUMP JUMPDEST PUSH2 0xBA0 DUP11 DUP13 PUSH1 0x1 DUP9 ADD PUSH2 0x24CE JUMP JUMPDEST PUSH1 0x2 DUP6 ADD DUP1 SLOAD PUSH1 0x1 PUSH1 0x1 PUSH1 0xA0 SHL SUB NOT AND CALLER OR SWAP1 SSTORE PUSH1 0x3 DUP6 ADD PUSH1 0x1 PUSH1 0x1 PUSH1 0x40 SHL SUB DUP8 GT PUSH2 0x435 JUMPI PUSH1 0x1 PUSH1 0x40 SHL DUP8 GT PUSH2 0x435 JUMPI DUP1 SLOAD DUP8 DUP3 SSTORE DUP1 DUP9 LT PUSH2 0xDA4 JUMPI JUMPDEST POP DUP8 SWAP1 PUSH1 0x0 MSTORE PUSH1 0x20 PUSH1 0x0 KECCAK256 SWAP1 PUSH1 0x0 JUMPDEST DUP9 DUP2 LT PUSH2 0xD89 JUMPI POP POP POP PUSH1 0x4 DUP6 ADD DUP1 SLOAD PUSH1 0xFF NOT AND SWAP1 SSTORE PUSH2 0xC1F SWAP4 SWAP3 SWAP2 PUSH2 0xC16 SWAP2 PUSH1 0x5 DUP8 ADD PUSH2 0x24CE JUMP JUMPDEST PUSH1 0x6 DUP5 ADD PUSH2 0x24CE JUMP JUMPDEST PUSH1 0x7 ADD DUP1 SLOAD PUSH8 0xFFFFFFFFFFFFFFFF NOT AND TIMESTAMP PUSH1 0x1 PUSH1 0x1 PUSH1 0x40 SHL SUB AND SWAP1 DUP2 OR DUP3 SSTORE PUSH2 0xC48 SWAP1 DUP3 PUSH2 0x2321 JUMP JUMPDEST DUP1 SLOAD PUSH1 0xFF PUSH1 0x80 SHL NOT AND SWAP1 SSTORE PUSH1 0x40 MLOAD DUP5 DUP5 DUP3 CALLDATACOPY PUSH1 0x20 DUP2 DUP7 DUP2 ADD PUSH1 0x2 DUP2 MSTORE SUB ADD SWAP1 KECCAK256 PUSH1 0x1 PUSH1 0xFF NOT DUP3 SLOAD AND OR SWAP1 SSTORE CALLER PUSH1 0x0 MSTORE PUSH1 0x1 PUSH1 0x20 MSTORE PUSH1 0x40 PUSH1 0x0 KECCAK256 DUP1 SLOAD PUSH1 0x1 PUSH1 0x40 SHL DUP2 LT ISZERO PUSH2 0x435 JUMPI PUSH2 0xC9E SWAP2 PUSH1 0x1 DUP3 ADD DUP2 SSTORE PUSH2 0x2289 JUMP JUMPDEST PUSH2 0x67F JUMPI DUP5 DUP5 PUSH2 0xCAD SWAP3 PUSH2 0x24CE JUMP JUMPDEST PUSH1 0x0 JUMPDEST DUP2 DUP2 LT PUSH2 0xD06 JUMPI POP POP POP PUSH32 0x5C578089328510FCBA8EC80E76AF680FC9D08782B7F362FE6304133FC43AB8B2 SWAP2 PUSH2 0xD01 SWAP2 DUP2 PUSH1 0x40 MLOAD SWAP3 DUP4 SWAP3 DUP4 CALLDATACOPY DUP2 ADD PUSH1 0x0 DUP2 MSTORE SUB SWAP1 KECCAK256 SWAP3 PUSH1 0x40 MLOAD SWAP2 DUP3 SWAP2 CALLER SWAP7 DUP4 PUSH2 0x25DD JUMP JUMPDEST SUB SWAP1 LOG3 STOP JUMPDEST PUSH1 0x1 SWAP1 PUSH1 0x1 PUSH1 0x1 PUSH1 0xA0 SHL SUB PUSH2 0xD24 PUSH2 0xD1F DUP4 DUP7 DUP9 PUSH2 0x2594 JUMP JUMPDEST PUSH2 0x25A4 JUMP JUMPDEST AND PUSH1 0x0 MSTORE PUSH1 0x3 PUSH1 0x20 MSTORE PUSH1 0xFF PUSH1 0x40 PUSH1 0x0 KECCAK256 SLOAD AND ISZERO PUSH2 0xD42 JUMPI JUMPDEST ADD PUSH2 0xCB0 JUMP JUMPDEST DUP2 DUP1 PUSH1 0xA0 SHL SUB PUSH2 0xD56 PUSH2 0xD1F DUP4 DUP7 DUP9 PUSH2 0x2594 JUMP JUMPDEST AND PUSH1 0x0 MSTORE PUSH1 0x3 PUSH1 0x20 MSTORE PUSH1 0x40 PUSH1 0x0 KECCAK256 DUP3 PUSH1 0xFF NOT DUP3 SLOAD AND OR SWAP1 SSTORE PUSH2 0xD84 PUSH2 0xD7F PUSH2 0xD1F DUP4 DUP7 DUP9 PUSH2 0x2594 JUMP JUMPDEST PUSH2 0x25B8 JUMP JUMPDEST PUSH2 0xD3C JUMP JUMPDEST PUSH1 0x1 SWAP1 PUSH1 0x20 PUSH2 0xD97 DUP5 PUSH2 0x25A4 JUMP JUMPDEST SWAP4 ADD SWAP3 DUP2 DUP6 ADD SSTORE ADD PUSH2 0xBED JUMP JUMPDEST PUSH2 0xDBC SWAP1 DUP3 PUSH1 0x0 MSTORE DUP9 PUSH1 0x20 PUSH1 0x0 KECCAK256 SWAP2 DUP3 ADD SWAP2 ADD PUSH2 0x2472 JUMP JUMPDEST DUP13 PUSH2 0xBDE JUMP JUMPDEST PUSH1 0x1 PUSH1 0x1 PUSH1 0xA0 SHL SUB PUSH2 0xDD8 PUSH2 0xD1F DUP4 DUP10 DUP12 PUSH2 0x2594 JUMP JUMPDEST AND ISZERO PUSH2 0x486 JUMPI PUSH1 0x1 ADD PUSH2 0xB69 JUMP JUMPDEST PUSH4 0x4E487B71 PUSH1 0xE0 SHL PUSH1 0x0 MSTORE PUSH1 0x21 PUSH1 0x4 MSTORE PUSH1 0x24 PUSH1 0x0 REVERT JUMPDEST PUSH2 0xE1E SWAP2 POP PUSH1 0x20 RETURNDATASIZE PUSH1 0x20 GT PUSH2 0xE24 JUMPI JUMPDEST PUSH2 0xE16 DUP2 DUP4 PUSH2 0x1F62 JUMP JUMPDEST DUP2 ADD SWAP1 PUSH2 0x2309 JUMP JUMPDEST DUP12 PUSH2 0xB58 JUMP JUMPDEST POP RETURNDATASIZE PUSH2 0xE0C JUMP JUMPDEST PUSH1 0x40 MLOAD RETURNDATASIZE PUSH1 0x0 DUP3 RETURNDATACOPY RETURNDATASIZE SWAP1 REVERT JUMPDEST PUSH4 0x4AABF33 PUSH1 0xE0 SHL PUSH1 0x0 MSTORE PUSH1 0x4 PUSH1 0x0 REVERT JUMPDEST CALLVALUE PUSH2 0x1CC JUMPI PUSH1 0x20 CALLDATASIZE PUSH1 0x3 NOT ADD SLT PUSH2 0x1CC JUMPI PUSH1 0x4 CALLDATALOAD PUSH1 0x1 PUSH1 0x1 PUSH1 0x40 SHL SUB DUP2 GT PUSH2 0x1CC JUMPI PUSH2 0xE78 SWAP1 CALLDATASIZE SWAP1 PUSH1 0x4 ADD PUSH2 0x1F35 JUMP JUMPDEST PUSH1 0xFF PUSH1 0x40 MLOAD DUP3 DUP5 DUP3 CALLDATACOPY PUSH1 0x20 DUP2 DUP5 DUP2 ADD PUSH1 0x2 DUP2 MSTORE SUB ADD SWAP1 KECCAK256 SLOAD AND ISZERO PUSH2 0x244 JUMPI PUSH1 0x3 DUP2 PUSH1 0x20 PUSH2 0x1AB SWAP5 PUSH2 0x9DD SWAP5 PUSH1 0x40 MLOAD SWAP4 DUP5 SWAP3 DUP4 CALLDATACOPY DUP2 ADD PUSH1 0x0 DUP2 MSTORE SUB ADD SWAP1 KECCAK256 ADD PUSH2 0x22A1 JUMP JUMPDEST CALLVALUE PUSH2 0x1CC JUMPI PUSH1 0x20 CALLDATASIZE PUSH1 0x3 NOT ADD SLT PUSH2 0x1CC JUMPI PUSH1 0x4 CALLDATALOAD PUSH1 0x1 PUSH1 0x1 PUSH1 0x40 SHL SUB DUP2 GT PUSH2 0x1CC JUMPI PUSH2 0xEEB SWAP1 CALLDATASIZE SWAP1 PUSH1 0x4 ADD PUSH2 0x1F35 JUMP JUMPDEST PUSH2 0xEF6 CALLDATASIZE DUP3 DUP5 PUSH2 0x1F83 JUMP JUMPDEST SWAP1 PUSH1 0x40 MLOAD PUSH1 0xFF DUP4 MLOAD SWAP2 PUSH1 0x20 DUP2 DUP2 DUP8 ADD SWAP5 PUSH2 0xF11 DUP2 DUP4 DUP9 PUSH2 0x2007 JUMP JUMPDEST DUP2 ADD PUSH1 0x2 DUP2 MSTORE SUB ADD SWAP1 KECCAK256 SLOAD AND ISZERO PUSH2 0x244 JUMPI PUSH1 0x0 SWAP3 PUSH1 0x40 MLOAD PUSH1 0x2 DUP3 MLOAD PUSH2 0xF37 DUP2 DUP5 DUP8 PUSH2 0x2007 JUMP JUMPDEST DUP3 ADD DUP7 DUP2 MSTORE DUP3 SWAP1 SUB PUSH1 0x20 ADD SWAP1 SWAP2 KECCAK256 ADD SLOAD CALLER PUSH1 0x1 PUSH1 0x1 PUSH1 0xA0 SHL SUB SWAP2 SWAP1 SWAP2 AND SUB PUSH2 0x1039 JUMPI POP POP SWAP1 POP PUSH1 0x1 JUMPDEST ISZERO PUSH2 0x497 JUMPI PUSH1 0x20 PUSH2 0xFDD SWAP3 DUP3 PUSH1 0x40 MLOAD SWAP4 DUP5 SWAP3 DUP4 CALLDATACOPY DUP2 ADD PUSH1 0x0 DUP2 MSTORE SUB ADD SWAP1 KECCAK256 PUSH1 0x1 DUP1 PUSH1 0xA0 SHL SUB PUSH1 0x2 DUP3 ADD SLOAD AND PUSH1 0xFF DUP1 PUSH1 0x4 DUP5 ADD SLOAD AND SWAP2 PUSH2 0x1009 PUSH2 0xFFE PUSH1 0x7 DUP7 ADD SLOAD SWAP3 PUSH2 0xFAA DUP8 PUSH2 0x2064 JUMP JUMPDEST SWAP7 PUSH2 0xFEB PUSH2 0xFC6 PUSH1 0x3 PUSH2 0xFBF PUSH1 0x1 DUP6 ADD PUSH2 0x2064 JUMP JUMPDEST SWAP4 ADD PUSH2 0x22A1 JUMP JUMPDEST SWAP2 PUSH1 0x40 MLOAD SWAP11 DUP12 SWAP11 PUSH2 0x100 DUP13 MSTORE PUSH2 0x100 DUP13 ADD SWAP1 PUSH2 0x2108 JUMP JUMPDEST SWAP1 DUP11 DUP3 SUB PUSH1 0x20 DUP13 ADD MSTORE PUSH2 0x2108 JUMP JUMPDEST SWAP2 PUSH1 0x40 DUP10 ADD MSTORE DUP8 DUP3 SUB PUSH1 0x60 DUP10 ADD MSTORE PUSH2 0x221B JUMP JUMPDEST SWAP4 PUSH1 0x80 DUP7 ADD SWAP1 PUSH2 0x212D JUMP JUMPDEST PUSH1 0x1 PUSH1 0x1 PUSH1 0x40 SHL SUB DUP2 AND PUSH1 0xA0 DUP6 ADD MSTORE PUSH1 0x1 PUSH1 0x1 PUSH1 0x40 SHL SUB DUP2 PUSH1 0x40 SHR AND PUSH1 0xC0 DUP6 ADD MSTORE PUSH1 0x80 SHR AND ISZERO ISZERO PUSH1 0xE0 DUP4 ADD MSTORE SUB SWAP1 RETURN JUMPDEST PUSH2 0x1056 PUSH1 0x20 PUSH2 0x1065 SWAP4 PUSH1 0x3 SWAP4 PUSH1 0x40 MLOAD SWAP4 DUP5 SWAP3 DUP4 SWAP3 MLOAD SWAP3 DUP4 SWAP2 PUSH2 0x2007 JUMP JUMPDEST DUP2 ADD DUP8 DUP2 MSTORE SUB ADD SWAP1 KECCAK256 ADD PUSH2 0x22A1 JUMP JUMPDEST DUP3 JUMPDEST DUP2 MLOAD DUP2 LT ISZERO PUSH2 0x109D JUMPI CALLER PUSH1 0x1 PUSH1 0x1 PUSH1 0xA0 SHL SUB PUSH2 0x1083 DUP4 DUP6 PUSH2 0x22F5 JUMP JUMPDEST MLOAD AND EQ PUSH2 0x1092 JUMPI PUSH1 0x1 ADD PUSH2 0x1067 JUMP JUMPDEST POP POP SWAP1 POP PUSH1 0x1 PUSH2 0xF60 JUMP JUMPDEST POP POP SWAP1 PUSH2 0xF60 JUMP JUMPDEST CALLVALUE PUSH2 0x1CC JUMPI PUSH1 0x60 CALLDATASIZE PUSH1 0x3 NOT ADD SLT PUSH2 0x1CC JUMPI PUSH1 0x4 CALLDATALOAD PUSH1 0x1 PUSH1 0x1 PUSH1 0x40 SHL SUB DUP2 GT PUSH2 0x1CC JUMPI PUSH2 0x10D5 SWAP1 CALLDATASIZE SWAP1 PUSH1 0x4 ADD PUSH2 0x1F35 JUMP JUMPDEST SWAP1 PUSH1 0x24 CALLDATALOAD PUSH1 0x1 PUSH1 0x1 PUSH1 0x40 SHL SUB DUP2 GT PUSH2 0x1CC JUMPI PUSH2 0x10F5 SWAP1 CALLDATASIZE SWAP1 PUSH1 0x4 ADD PUSH2 0x1F35 JUMP JUMPDEST SWAP1 PUSH1 0x44 CALLDATALOAD PUSH1 0x1 PUSH1 0x1 PUSH1 0x40 SHL SUB DUP2 GT PUSH2 0x1CC JUMPI PUSH2 0x1115 SWAP1 CALLDATASIZE SWAP1 PUSH1 0x4 ADD PUSH2 0x1F35 JUMP JUMPDEST SWAP2 PUSH2 0x1121 CALLDATASIZE DUP8 DUP8 PUSH2 0x1F83 JUMP JUMPDEST PUSH1 0x40 MLOAD SWAP1 PUSH1 0xFF DUP2 MLOAD SWAP3 PUSH1 0x20 DUP2 DUP2 DUP6 ADD SWAP6 PUSH2 0x113C DUP2 DUP4 DUP10 PUSH2 0x2007 JUMP JUMPDEST DUP2 ADD PUSH1 0x2 DUP2 MSTORE SUB ADD SWAP1 KECCAK256 SLOAD AND ISZERO PUSH2 0x244 JUMPI PUSH1 0x2 SWAP1 PUSH2 0x1162 PUSH1 0x40 MLOAD SWAP4 DUP5 SWAP3 MLOAD SWAP3 DUP4 SWAP2 PUSH2 0x2007 JUMP JUMPDEST PUSH1 0x0 SWAP1 DUP4 ADD SWAP1 DUP2 MSTORE DUP3 SWAP1 SUB PUSH1 0x20 ADD SWAP1 SWAP2 KECCAK256 ADD SLOAD PUSH1 0x1 PUSH1 0x1 PUSH1 0xA0 SHL SUB AND CALLER SUB PUSH2 0x497 JUMPI PUSH2 0x11C6 SWAP4 PUSH2 0x11A9 SWAP2 PUSH1 0x5 PUSH1 0x40 MLOAD DUP10 DUP10 DUP3 CALLDATACOPY PUSH1 0x20 DUP2 DUP12 DUP2 ADD PUSH1 0x0 DUP2 MSTORE SUB ADD SWAP1 KECCAK256 ADD PUSH2 0x24CE JUMP JUMPDEST PUSH1 0x6 PUSH1 0x40 MLOAD DUP7 DUP7 DUP3 CALLDATACOPY PUSH1 0x20 DUP2 DUP9 DUP2 ADD PUSH1 0x0 DUP2 MSTORE SUB ADD SWAP1 KECCAK256 ADD PUSH2 0x24CE JUMP JUMPDEST PUSH2 0x11F2 PUSH1 0x40 MLOAD DUP4 DUP4 DUP3 CALLDATACOPY PUSH1 0x7 DUP5 DUP3 ADD SWAP2 PUSH1 0x0 DUP4 MSTORE PUSH1 0x20 DUP2 PUSH1 0x1 PUSH1 0x1 PUSH1 0x40 SHL SUB TIMESTAMP AND SWAP5 SUB ADD SWAP1 KECCAK256 ADD PUSH2 0x2321 JUMP JUMPDEST DUP2 PUSH1 0x40 MLOAD SWAP3 DUP4 SWAP3 DUP4 CALLDATACOPY DUP2 ADD PUSH1 0x0 DUP2 MSTORE SUB SWAP1 KECCAK256 PUSH32 0x118F8A5A251028FF08D7FEFD23ABB6D8FDF2B823A5A54F21FDCCB15F8A09ADDD PUSH1 0x0 DUP1 LOG2 STOP JUMPDEST CALLVALUE PUSH2 0x1CC JUMPI PUSH1 0x20 CALLDATASIZE PUSH1 0x3 NOT ADD SLT PUSH2 0x1CC JUMPI PUSH1 0x4 CALLDATALOAD PUSH1 0x1 PUSH1 0x1 PUSH1 0x40 SHL SUB DUP2 GT PUSH2 0x1CC JUMPI PUSH2 0x125B SWAP1 CALLDATASIZE SWAP1 PUSH1 0x4 ADD PUSH2 0x1F35 JUMP JUMPDEST SWAP1 PUSH2 0x1267 CALLDATASIZE DUP4 DUP4 PUSH2 0x1F83 JUMP JUMPDEST SWAP1 PUSH1 0x40 MLOAD PUSH1 0xFF DUP4 MLOAD SWAP2 PUSH1 0x20 DUP2 DUP2 DUP8 ADD SWAP5 PUSH2 0x1282 DUP2 DUP4 DUP9 PUSH2 0x2007 JUMP JUMPDEST DUP2 ADD PUSH1 0x2 DUP2 MSTORE SUB ADD SWAP1 KECCAK256 SLOAD AND ISZERO PUSH2 0x244 JUMPI PUSH1 0x3 PUSH2 0x12B2 PUSH1 0x20 PUSH2 0x12C2 SWAP4 PUSH1 0x0 SWAP7 PUSH1 0x40 MLOAD SWAP4 DUP5 SWAP3 DUP4 SWAP3 MLOAD SWAP3 DUP4 SWAP2 PUSH2 0x2007 JUMP JUMPDEST DUP2 ADD PUSH1 0x0 DUP2 MSTORE SUB ADD SWAP1 KECCAK256 ADD PUSH2 0x22A1 JUMP JUMPDEST PUSH1 0x0 JUMPDEST DUP2 MLOAD DUP2 LT ISZERO PUSH2 0x13EA JUMPI CALLER PUSH1 0x1 PUSH1 0x1 PUSH1 0xA0 SHL SUB PUSH2 0x12E1 DUP4 DUP6 PUSH2 0x22F5 JUMP JUMPDEST MLOAD AND EQ PUSH2 0x12F0 JUMPI PUSH1 0x1 ADD PUSH2 0x12C5 JUMP JUMPDEST POP POP SWAP1 POP PUSH1 0x1 JUMPDEST ISZERO PUSH2 0x497 JUMPI PUSH1 0x5 SLOAD PUSH1 0x40 MLOAD PUSH4 0x2734EAB PUSH1 0xE5 SHL DUP2 MSTORE SWAP1 PUSH1 0x20 SWAP1 DUP3 SWAP1 PUSH1 0x4 SWAP1 DUP3 SWAP1 PUSH1 0x1 PUSH1 0x1 PUSH1 0xA0 SHL SUB AND GAS STATICCALL SWAP1 DUP2 ISZERO PUSH2 0xE2B JUMPI PUSH1 0x0 SWAP2 PUSH2 0x13CB JUMPI JUMPDEST POP PUSH1 0x4 DUP2 LT ISZERO PUSH2 0xDE6 JUMPI PUSH1 0x3 SUB PUSH2 0x13BA JUMPI PUSH1 0x20 SWAP1 DUP3 PUSH1 0x40 MLOAD SWAP4 DUP5 SWAP3 DUP4 CALLDATACOPY DUP2 ADD PUSH1 0x0 DUP2 MSTORE SUB ADD SWAP1 KECCAK256 PUSH1 0xFF PUSH1 0x7 DUP3 ADD SLOAD PUSH1 0x80 SHR AND ISZERO PUSH2 0x13A9 JUMPI DUP1 PUSH2 0x1AB PUSH2 0x1387 PUSH1 0x6 PUSH2 0x1380 PUSH1 0x5 PUSH2 0x139B SWAP7 ADD PUSH2 0x2064 JUMP JUMPDEST SWAP4 ADD PUSH2 0x2064 JUMP JUMPDEST PUSH1 0x40 MLOAD SWAP4 DUP5 SWAP4 PUSH1 0x40 DUP6 MSTORE PUSH1 0x40 DUP6 ADD SWAP1 PUSH2 0x2108 JUMP JUMPDEST SWAP1 DUP4 DUP3 SUB PUSH1 0x20 DUP6 ADD MSTORE PUSH2 0x2108 JUMP JUMPDEST PUSH4 0x13C06EBD PUSH1 0xE3 SHL PUSH1 0x0 MSTORE PUSH1 0x4 PUSH1 0x0 REVERT JUMPDEST PUSH4 0x4EAB2701 PUSH1 0xE0 SHL PUSH1 0x0 MSTORE PUSH1 0x4 PUSH1 0x0 REVERT JUMPDEST PUSH2 0x13E4 SWAP2 POP PUSH1 0x20 RETURNDATASIZE PUSH1 0x20 GT PUSH2 0xE24 JUMPI PUSH2 0xE16 DUP2 DUP4 PUSH2 0x1F62 JUMP JUMPDEST DUP4 PUSH2 0x1331 JUMP JUMPDEST POP POP SWAP1 PUSH2 0x12F7 JUMP JUMPDEST CALLVALUE PUSH2 0x1CC JUMPI PUSH1 0x20 CALLDATASIZE PUSH1 0x3 NOT ADD SLT PUSH2 0x1CC JUMPI PUSH1 0x4 CALLDATALOAD PUSH1 0x4 SLOAD DUP2 LT ISZERO PUSH2 0x1CC JUMPI PUSH2 0x141B PUSH1 0x20 SWAP2 PUSH2 0x2258 JUMP JUMPDEST SWAP1 SLOAD PUSH1 0x40 MLOAD PUSH1 0x3 SWAP3 SWAP1 SWAP3 SHL SHR PUSH1 0x1 PUSH1 0x1 PUSH1 0xA0 SHL SUB AND DUP2 MSTORE RETURN JUMPDEST CALLVALUE PUSH2 0x1CC JUMPI PUSH1 0x20 PUSH2 0x144D PUSH2 0x1447 CALLDATASIZE PUSH2 0x2150 JUMP JUMPDEST SWAP2 PUSH2 0x23EB JUMP JUMPDEST PUSH1 0x40 MLOAD SWAP1 ISZERO ISZERO DUP2 MSTORE RETURN JUMPDEST CALLVALUE PUSH2 0x1CC JUMPI PUSH1 0x0 CALLDATASIZE PUSH1 0x3 NOT ADD SLT PUSH2 0x1CC JUMPI PUSH1 0x5 SLOAD PUSH1 0x40 MLOAD PUSH1 0x1 PUSH1 0x1 PUSH1 0xA0 SHL SUB SWAP1 SWAP2 AND DUP2 MSTORE PUSH1 0x20 SWAP1 RETURN JUMPDEST CALLVALUE PUSH2 0x1CC JUMPI PUSH2 0x148E CALLDATASIZE PUSH2 0x2150 JUMP JUMPDEST PUSH2 0x1499 CALLDATASIZE DUP4 DUP6 PUSH2 0x1F83 JUMP JUMPDEST PUSH1 0x40 MLOAD SWAP1 PUSH1 0xFF DUP2 MLOAD SWAP3 PUSH1 0x20 DUP2 DUP2 DUP6 ADD SWAP6 PUSH2 0x14B4 DUP2 DUP4 DUP10 PUSH2 0x2007 JUMP JUMPDEST DUP2 ADD PUSH1 0x2 DUP2 MSTORE SUB ADD SWAP1 KECCAK256 SLOAD AND ISZERO PUSH2 0x244 JUMPI PUSH1 0x2 SWAP1 PUSH2 0x14DA PUSH1 0x40 MLOAD SWAP4 DUP5 SWAP3 MLOAD SWAP3 DUP4 SWAP2 PUSH2 0x2007 JUMP JUMPDEST PUSH1 0x0 SWAP1 DUP4 ADD SWAP1 DUP2 MSTORE DUP3 SWAP1 SUB PUSH1 0x20 ADD SWAP1 SWAP2 KECCAK256 ADD SLOAD PUSH1 0x1 PUSH1 0x1 PUSH1 0xA0 SHL SUB AND CALLER SUB PUSH2 0x497 JUMPI PUSH1 0x1 PUSH1 0x1 PUSH1 0xA0 SHL SUB AND SWAP2 DUP3 ISZERO PUSH2 0x486 JUMPI PUSH1 0x3 PUSH1 0x40 MLOAD DUP4 DUP4 DUP3 CALLDATACOPY PUSH1 0x20 DUP2 DUP6 DUP2 ADD PUSH1 0x0 DUP2 MSTORE SUB ADD SWAP1 KECCAK256 ADD PUSH1 0x0 NOT PUSH1 0x0 SWAP1 DUP3 SLOAD SWAP2 JUMPDEST DUP3 DUP2 LT PUSH2 0x1819 JUMPI JUMPDEST POP PUSH1 0x0 NOT DUP2 EQ PUSH2 0x1808 JUMPI PUSH1 0x0 NOT DUP3 ADD SWAP2 DUP3 GT PUSH2 0x917 JUMPI PUSH2 0x36B PUSH2 0x155C PUSH2 0x1575 SWAP4 DUP6 PUSH2 0x2289 JUMP JUMPDEST SWAP1 SLOAD PUSH1 0x3 SWAP2 SWAP1 SWAP2 SHL SHR PUSH1 0x1 PUSH1 0x1 PUSH1 0xA0 SHL SUB AND SWAP2 DUP5 PUSH2 0x2289 JUMP JUMPDEST DUP1 SLOAD DUP1 ISZERO PUSH2 0x901 JUMPI PUSH1 0x0 NOT ADD SWAP1 PUSH2 0x15A4 PUSH2 0x158F DUP4 DUP4 PUSH2 0x2289 JUMP JUMPDEST DUP2 SLOAD SWAP1 PUSH1 0x1 DUP1 PUSH1 0xA0 SHL SUB SWAP1 PUSH1 0x3 SHL SHL NOT AND SWAP1 SSTORE JUMP JUMPDEST SSTORE PUSH2 0x15D1 PUSH1 0x40 MLOAD DUP4 DUP4 DUP3 CALLDATACOPY PUSH1 0x7 DUP5 DUP3 ADD SWAP2 PUSH1 0x0 DUP4 MSTORE PUSH1 0x20 DUP2 PUSH1 0x1 PUSH1 0x1 PUSH1 0x40 SHL SUB TIMESTAMP AND SWAP5 SUB ADD SWAP1 KECCAK256 ADD PUSH2 0x2321 JUMP JUMPDEST PUSH1 0x0 DUP1 PUSH1 0x4 SLOAD SWAP1 JUMPDEST DUP2 DUP2 LT PUSH2 0x16D3 JUMPI JUMPDEST POP POP ISZERO PUSH2 0x1622 JUMPI JUMPDEST DUP2 PUSH1 0x40 MLOAD SWAP3 DUP4 SWAP3 DUP4 CALLDATACOPY DUP2 ADD PUSH1 0x0 DUP2 MSTORE SUB SWAP1 KECCAK256 PUSH32 0x76BE9DAB7E679F0F2CD6897B213DC3DF48CEA1A62CCE5FFDEC3E64A39F31F003 PUSH1 0x0 DUP1 LOG3 STOP JUMPDEST SWAP1 DUP3 PUSH1 0x0 MSTORE PUSH1 0x3 PUSH1 0x20 MSTORE PUSH1 0x40 PUSH1 0x0 KECCAK256 PUSH1 0xFF NOT DUP2 SLOAD AND SWAP1 SSTORE PUSH1 0x0 JUMPDEST PUSH1 0x4 SLOAD DUP1 DUP3 LT ISZERO PUSH2 0x16CB JUMPI DUP5 PUSH2 0x1651 DUP4 PUSH2 0x2258 JUMP JUMPDEST SWAP1 SLOAD PUSH1 0x3 SWAP2 SWAP1 SWAP2 SHL SHR PUSH1 0x1 PUSH1 0x1 PUSH1 0xA0 SHL SUB AND EQ PUSH2 0x1671 JUMPI POP PUSH1 0x1 ADD PUSH2 0x163C JUMP JUMPDEST SWAP2 SWAP3 SWAP2 PUSH1 0x0 NOT DUP2 ADD SWAP2 SWAP1 DUP3 GT PUSH2 0x917 JUMPI PUSH2 0x36B PUSH2 0x1690 PUSH2 0x16A8 SWAP4 PUSH2 0x2258 JUMP JUMPDEST SWAP1 SLOAD PUSH1 0x3 SWAP2 SWAP1 SWAP2 SHL SHR PUSH1 0x1 PUSH1 0x1 PUSH1 0xA0 SHL SUB AND SWAP2 PUSH2 0x2258 JUMP JUMPDEST PUSH1 0x4 SLOAD DUP1 ISZERO PUSH2 0x901 JUMPI PUSH1 0x0 NOT ADD PUSH2 0x16C3 PUSH2 0x158F DUP3 PUSH1 0x4 PUSH2 0x2289 JUMP JUMPDEST PUSH1 0x4 SSTORE PUSH2 0x15E9 JUMP JUMPDEST POP POP SWAP1 PUSH2 0x15E9 JUMP JUMPDEST DUP6 PUSH2 0x16DD DUP3 PUSH2 0x2258 JUMP JUMPDEST SWAP1 SLOAD PUSH1 0x3 SWAP2 SWAP1 SWAP2 SHL SHR PUSH1 0x1 PUSH1 0x1 PUSH1 0xA0 SHL SUB AND EQ PUSH2 0x16FC JUMPI PUSH1 0x1 ADD PUSH2 0x15D9 JUMP JUMPDEST POP POP SWAP2 SWAP1 PUSH1 0x0 JUMPDEST DUP5 PUSH1 0x0 MSTORE PUSH1 0x1 PUSH1 0x20 MSTORE PUSH1 0x40 PUSH1 0x0 KECCAK256 SLOAD DUP2 LT ISZERO PUSH2 0x1800 JUMPI DUP5 PUSH1 0x0 MSTORE PUSH1 0x1 PUSH1 0x20 MSTORE PUSH2 0x1739 PUSH2 0x1733 DUP3 PUSH1 0x40 PUSH1 0x0 KECCAK256 PUSH2 0x2289 JUMP JUMPDEST POP PUSH2 0x2064 JUMP JUMPDEST PUSH1 0x40 MLOAD SWAP1 PUSH1 0xFF DUP2 MLOAD SWAP3 PUSH1 0x20 DUP2 DUP2 DUP6 ADD SWAP6 PUSH2 0x1754 DUP2 DUP4 DUP10 PUSH2 0x2007 JUMP JUMPDEST DUP2 ADD PUSH1 0x2 DUP2 MSTORE SUB ADD SWAP1 KECCAK256 SLOAD AND PUSH2 0x176F JUMPI JUMPDEST POP POP PUSH1 0x1 ADD PUSH2 0x1703 JUMP JUMPDEST PUSH1 0x20 PUSH1 0x3 SWAP3 PUSH2 0x1789 SWAP3 PUSH1 0x40 MLOAD SWAP4 DUP5 SWAP3 DUP4 SWAP3 MLOAD SWAP3 DUP4 SWAP2 PUSH2 0x2007 JUMP JUMPDEST DUP2 ADD PUSH1 0x0 DUP2 MSTORE SUB ADD SWAP1 KECCAK256 ADD DUP6 PUSH1 0x0 SWAP2 DUP1 SLOAD SWAP3 JUMPDEST DUP4 DUP2 LT PUSH2 0x17BF JUMPI JUMPDEST POP POP POP POP DUP4 PUSH2 0x17B4 JUMPI DUP6 DUP1 PUSH2 0x1765 JUMP JUMPDEST POP SWAP1 SWAP2 JUMPDEST DUP5 DUP1 PUSH2 0x15E1 JUMP JUMPDEST DUP3 PUSH2 0x17CD DUP3 DUP5 SWAP11 SWAP8 SWAP11 PUSH2 0x2289 JUMP JUMPDEST SWAP1 SLOAD PUSH1 0x3 SWAP2 SWAP1 SWAP2 SHL SHR PUSH1 0x1 PUSH1 0x1 PUSH1 0xA0 SHL SUB AND EQ PUSH2 0x17EF JUMPI PUSH1 0x1 ADD SWAP7 SWAP4 SWAP7 PUSH2 0x179C JUMP JUMPDEST POP POP POP POP POP PUSH1 0x1 SWAP3 DUP6 DUP6 DUP2 DUP1 PUSH2 0x17A4 JUMP JUMPDEST POP SWAP1 SWAP2 PUSH2 0x17B8 JUMP JUMPDEST PUSH4 0x4B4972A1 PUSH1 0xE1 SHL PUSH1 0x0 MSTORE PUSH1 0x4 PUSH1 0x0 REVERT JUMPDEST DUP7 PUSH2 0x1824 DUP3 DUP7 PUSH2 0x2289 JUMP JUMPDEST SWAP1 SLOAD PUSH1 0x3 SWAP2 SWAP1 SWAP2 SHL SHR PUSH1 0x1 PUSH1 0x1 PUSH1 0xA0 SHL SUB AND EQ PUSH2 0x1843 JUMPI PUSH1 0x1 ADD PUSH2 0x152E JUMP JUMPDEST SWAP1 POP DUP7 PUSH2 0x1536 JUMP JUMPDEST CALLVALUE PUSH2 0x1CC JUMPI PUSH1 0x20 PUSH1 0xFF PUSH2 0x1874 DUP3 PUSH2 0x1861 CALLDATASIZE PUSH2 0x1FC9 JUMP JUMPDEST DUP2 PUSH1 0x40 MLOAD SWAP4 DUP3 DUP6 DUP1 SWAP5 MLOAD SWAP4 DUP5 SWAP3 ADD PUSH2 0x2007 JUMP JUMPDEST DUP2 ADD PUSH1 0x2 DUP2 MSTORE SUB ADD SWAP1 KECCAK256 SLOAD AND PUSH1 0x40 MLOAD SWAP1 ISZERO ISZERO DUP2 MSTORE RETURN JUMPDEST CALLVALUE PUSH2 0x1CC JUMPI PUSH1 0x20 CALLDATASIZE PUSH1 0x3 NOT ADD SLT PUSH2 0x1CC JUMPI PUSH1 0x4 CALLDATALOAD PUSH1 0x1 PUSH1 0x1 PUSH1 0x40 SHL SUB DUP2 GT PUSH2 0x1CC JUMPI PUSH2 0x18BA SWAP1 CALLDATASIZE SWAP1 PUSH1 0x4 ADD PUSH2 0x2192 JUMP JUMPDEST PUSH2 0x18C3 DUP2 PUSH2 0x2360 JUMP JUMPDEST SWAP2 PUSH2 0x18CD DUP3 PUSH2 0x2360 JUMP JUMPDEST SWAP1 PUSH2 0x18D7 DUP4 PUSH2 0x2349 JUMP JUMPDEST PUSH2 0x18E4 PUSH1 0x40 MLOAD SWAP2 DUP3 PUSH2 0x1F62 JUMP JUMPDEST DUP4 DUP2 MSTORE PUSH1 0x1F NOT PUSH2 0x18F3 DUP6 PUSH2 0x2349 JUMP JUMPDEST ADD CALLDATASIZE PUSH1 0x20 DUP4 ADD CALLDATACOPY PUSH2 0x1903 DUP5 PUSH2 0x2349 JUMP JUMPDEST SWAP1 PUSH2 0x1911 PUSH1 0x40 MLOAD SWAP3 DUP4 PUSH2 0x1F62 JUMP JUMPDEST DUP5 DUP3 MSTORE PUSH2 0x191D DUP6 PUSH2 0x2349 JUMP JUMPDEST PUSH1 0x20 DUP4 ADD SWAP5 SWAP1 PUSH1 0x1F NOT ADD CALLDATASIZE DUP7 CALLDATACOPY PUSH2 0x1933 DUP7 PUSH2 0x2349 JUMP JUMPDEST SWAP4 PUSH2 0x1941 PUSH1 0x40 MLOAD SWAP6 DUP7 PUSH2 0x1F62 JUMP JUMPDEST DUP7 DUP6 MSTORE PUSH2 0x194D DUP8 PUSH2 0x2349 JUMP JUMPDEST PUSH1 0x20 DUP7 ADD SWAP8 SWAP1 PUSH1 0x1F NOT ADD CALLDATASIZE DUP10 CALLDATACOPY PUSH1 0x0 JUMPDEST DUP2 DUP2 LT PUSH2 0x1A29 JUMPI PUSH2 0x198A DUP11 DUP11 DUP11 DUP11 DUP11 PUSH1 0x20 PUSH2 0x19A5 DUP13 PUSH2 0x1997 DUP14 PUSH1 0x40 MLOAD SWAP11 DUP12 SWAP11 PUSH1 0xA0 DUP13 MSTORE PUSH1 0xA0 DUP13 ADD SWAP1 PUSH2 0x21C2 JUMP JUMPDEST SWAP1 DUP11 DUP3 SUB DUP7 DUP13 ADD MSTORE PUSH2 0x21C2 JUMP JUMPDEST SWAP1 DUP9 DUP3 SUB PUSH1 0x40 DUP11 ADD MSTORE PUSH2 0x221B JUMP JUMPDEST SWAP2 DUP7 DUP4 SUB PUSH1 0x60 DUP9 ADD MSTORE MLOAD SWAP2 DUP3 DUP2 MSTORE ADD SWAP3 SWAP1 PUSH1 0x0 JUMPDEST DUP2 DUP2 LT PUSH2 0x1A02 JUMPI POP POP POP PUSH1 0x20 SWAP1 DUP5 DUP4 SUB PUSH1 0x80 DUP7 ADD MSTORE MLOAD SWAP2 DUP3 DUP2 MSTORE ADD SWAP2 SWAP1 PUSH1 0x0 JUMPDEST DUP2 DUP2 LT PUSH2 0x19E7 JUMPI POP POP POP SUB SWAP1 RETURN JUMPDEST DUP3 MLOAD ISZERO ISZERO DUP5 MSTORE DUP6 SWAP5 POP PUSH1 0x20 SWAP4 DUP5 ADD SWAP4 SWAP1 SWAP3 ADD SWAP2 PUSH1 0x1 ADD PUSH2 0x19D9 JUMP JUMPDEST SWAP2 SWAP5 SWAP6 POP SWAP2 SWAP3 PUSH1 0x20 DUP1 DUP3 PUSH2 0x1A19 PUSH1 0x1 SWAP5 DUP10 MLOAD PUSH2 0x212D JUMP JUMPDEST ADD SWAP6 ADD SWAP2 ADD SWAP2 DUP7 SWAP6 SWAP5 SWAP4 SWAP3 PUSH2 0x19B9 JUMP JUMPDEST PUSH1 0xFF PUSH1 0x20 PUSH2 0x1A38 DUP4 DUP6 DUP8 PUSH2 0x23AA JUMP JUMPDEST SWAP2 SWAP1 DUP3 PUSH1 0x40 MLOAD SWAP4 DUP5 SWAP3 DUP4 CALLDATACOPY DUP2 ADD PUSH1 0x2 DUP2 MSTORE SUB ADD SWAP1 KECCAK256 SLOAD AND PUSH2 0x1A5C JUMPI JUMPDEST PUSH1 0x1 ADD PUSH2 0x195D JUMP JUMPDEST PUSH1 0x20 PUSH2 0x1A69 DUP3 DUP5 DUP7 PUSH2 0x23AA JUMP JUMPDEST SWAP2 SWAP1 DUP3 PUSH1 0x40 MLOAD SWAP4 DUP5 SWAP3 DUP4 CALLDATACOPY DUP2 ADD PUSH1 0x0 DUP2 MSTORE SUB ADD SWAP1 KECCAK256 SWAP1 PUSH2 0x1A88 DUP3 PUSH2 0x2064 JUMP JUMPDEST PUSH2 0x1A92 DUP3 DUP14 PUSH2 0x22F5 JUMP JUMPDEST MSTORE PUSH2 0x1A9D DUP2 DUP13 PUSH2 0x22F5 JUMP JUMPDEST POP PUSH2 0x1AAA PUSH1 0x1 DUP4 ADD PUSH2 0x2064 JUMP JUMPDEST PUSH2 0x1AB4 DUP3 DUP8 PUSH2 0x22F5 JUMP JUMPDEST MSTORE PUSH2 0x1ABF DUP2 DUP7 PUSH2 0x22F5 JUMP JUMPDEST POP PUSH1 0x2 DUP3 ADD SLOAD PUSH1 0x1 PUSH1 0x1 PUSH1 0xA0 SHL SUB AND PUSH2 0x1AD8 DUP3 DUP9 PUSH2 0x22F5 JUMP JUMPDEST MSTORE PUSH1 0xFF PUSH1 0x4 DUP4 ADD SLOAD AND PUSH2 0x1AEB DUP3 DUP10 PUSH2 0x22F5 JUMP JUMPDEST PUSH1 0x2 DUP3 LT ISZERO PUSH2 0xDE6 JUMPI PUSH1 0x1 SWAP4 PUSH1 0xFF SWAP3 PUSH1 0x7 SWAP3 MSTORE ADD SLOAD PUSH1 0x80 SHR AND PUSH2 0x1B0E DUP3 DUP11 PUSH2 0x22F5 JUMP JUMPDEST SWAP1 ISZERO ISZERO SWAP1 MSTORE SWAP1 POP PUSH2 0x1A54 JUMP JUMPDEST CALLVALUE PUSH2 0x1CC JUMPI PUSH1 0x20 CALLDATASIZE PUSH1 0x3 NOT ADD SLT PUSH2 0x1CC JUMPI PUSH1 0x4 CALLDATALOAD PUSH1 0x1 PUSH1 0x1 PUSH1 0x40 SHL SUB DUP2 GT PUSH2 0x1CC JUMPI PUSH2 0x1B4A SWAP1 CALLDATASIZE SWAP1 PUSH1 0x4 ADD PUSH2 0x1F35 JUMP JUMPDEST PUSH1 0xFF PUSH1 0x40 MLOAD DUP3 DUP5 DUP3 CALLDATACOPY PUSH1 0x20 DUP2 DUP5 DUP2 ADD PUSH1 0x2 DUP2 MSTORE SUB ADD SWAP1 KECCAK256 SLOAD AND ISZERO PUSH2 0x244 JUMPI PUSH1 0x7 DUP2 PUSH1 0x20 DUP1 SWAP5 PUSH1 0xFF SWAP5 PUSH1 0x40 MLOAD SWAP4 DUP5 SWAP3 DUP4 CALLDATACOPY DUP2 ADD PUSH1 0x0 DUP2 MSTORE SUB ADD SWAP1 KECCAK256 ADD SLOAD PUSH1 0x80 SHR AND PUSH1 0x40 MLOAD SWAP1 ISZERO ISZERO DUP2 MSTORE RETURN JUMPDEST CALLVALUE PUSH2 0x1CC JUMPI PUSH2 0x1BA2 CALLDATASIZE PUSH2 0x2150 JUMP JUMPDEST SWAP1 SWAP2 PUSH1 0xFF PUSH1 0x40 MLOAD DUP5 DUP4 DUP3 CALLDATACOPY PUSH1 0x20 DUP2 DUP7 DUP2 ADD PUSH1 0x2 DUP2 MSTORE SUB ADD SWAP1 KECCAK256 SLOAD AND ISZERO PUSH2 0x244 JUMPI PUSH1 0x2 DUP4 PUSH1 0x20 SWAP5 PUSH1 0x40 MLOAD SWAP4 DUP5 CALLDATACOPY PUSH1 0x0 SWAP1 DUP4 ADD SWAP1 DUP2 MSTORE DUP3 SWAP1 SUB DUP5 ADD SWAP1 SWAP2 KECCAK256 ADD SLOAD PUSH1 0x40 MLOAD PUSH1 0x1 PUSH1 0x1 PUSH1 0xA0 SHL SUB SWAP3 DUP4 AND SWAP2 SWAP1 SWAP3 AND EQ DUP2 MSTORE RETURN JUMPDEST CALLVALUE PUSH2 0x1CC JUMPI PUSH2 0x1C0A PUSH1 0x20 PUSH2 0x1861 CALLDATASIZE PUSH2 0x1FC9 JUMP JUMPDEST DUP2 ADD PUSH1 0x0 DUP2 MSTORE SUB ADD SWAP1 KECCAK256 PUSH2 0x120 PUSH2 0x1C20 DUP3 PUSH2 0x2064 JUMP JUMPDEST SWAP2 PUSH1 0xFF PUSH2 0x1CBD PUSH2 0x1C32 PUSH1 0x1 DUP5 ADD PUSH2 0x2064 JUMP JUMPDEST SWAP3 PUSH2 0x1CAF PUSH1 0x1 DUP1 PUSH1 0xA0 SHL SUB PUSH1 0x2 DUP4 ADD SLOAD AND DUP5 PUSH1 0x4 DUP5 ADD SLOAD AND PUSH2 0x1CA2 PUSH2 0x1C59 PUSH1 0x5 DUP7 ADD PUSH2 0x2064 JUMP JUMPDEST SWAP2 PUSH2 0x1C92 PUSH1 0x7 PUSH2 0x1C6B PUSH1 0x6 DUP10 ADD PUSH2 0x2064 JUMP JUMPDEST SWAP8 ADD SLOAD SWAP10 PUSH2 0x1C84 PUSH1 0x40 MLOAD SWAP14 DUP14 DUP16 SWAP15 DUP16 SWAP1 DUP2 MSTORE ADD SWAP1 PUSH2 0x2108 JUMP JUMPDEST DUP13 DUP2 SUB PUSH1 0x20 DUP15 ADD MSTORE SWAP1 PUSH2 0x2108 JUMP JUMPDEST SWAP4 PUSH1 0x40 DUP12 ADD MSTORE PUSH1 0x60 DUP11 ADD SWAP1 PUSH2 0x212D JUMP JUMPDEST DUP8 DUP3 SUB PUSH1 0x80 DUP10 ADD MSTORE PUSH2 0x2108 JUMP JUMPDEST SWAP1 DUP6 DUP3 SUB PUSH1 0xA0 DUP8 ADD MSTORE PUSH2 0x2108 JUMP JUMPDEST SWAP2 PUSH1 0x1 PUSH1 0x1 PUSH1 0x40 SHL SUB DUP2 AND PUSH1 0xC0 DUP6 ADD MSTORE PUSH1 0x1 PUSH1 0x1 PUSH1 0x40 SHL SUB DUP2 PUSH1 0x40 SHR AND PUSH1 0xE0 DUP6 ADD MSTORE PUSH1 0x80 SHR AND ISZERO ISZERO PUSH2 0x100 DUP4 ADD MSTORE SUB SWAP1 RETURN JUMPDEST CALLVALUE PUSH2 0x1CC JUMPI PUSH1 0x20 CALLDATASIZE PUSH1 0x3 NOT ADD SLT PUSH2 0x1CC JUMPI PUSH1 0x4 CALLDATALOAD PUSH1 0x1 PUSH1 0x1 PUSH1 0x40 SHL SUB DUP2 GT PUSH2 0x1CC JUMPI PUSH2 0x1D1F SWAP1 CALLDATASIZE SWAP1 PUSH1 0x4 ADD PUSH2 0x1F35 JUMP JUMPDEST SWAP1 PUSH2 0x1D2B CALLDATASIZE DUP4 DUP4 PUSH2 0x1F83 JUMP JUMPDEST SWAP1 PUSH1 0x40 MLOAD PUSH1 0xFF DUP4 MLOAD SWAP2 PUSH1 0x20 DUP2 DUP2 DUP8 ADD SWAP5 PUSH2 0x1D46 DUP2 DUP4 DUP9 PUSH2 0x2007 JUMP JUMPDEST DUP2 ADD PUSH1 0x2 DUP2 MSTORE SUB ADD SWAP1 KECCAK256 SLOAD AND ISZERO PUSH2 0x244 JUMPI PUSH1 0x3 PUSH2 0x12B2 PUSH1 0x20 PUSH2 0x1D76 SWAP4 PUSH1 0x0 SWAP7 PUSH1 0x40 MLOAD SWAP4 DUP5 SWAP3 DUP4 SWAP3 MLOAD SWAP3 DUP4 SWAP2 PUSH2 0x2007 JUMP JUMPDEST PUSH1 0x0 JUMPDEST DUP2 MLOAD DUP2 LT ISZERO PUSH2 0x1EB0 JUMPI CALLER PUSH1 0x1 PUSH1 0x1 PUSH1 0xA0 SHL SUB PUSH2 0x1D95 DUP4 DUP6 PUSH2 0x22F5 JUMP JUMPDEST MLOAD AND EQ PUSH2 0x1DA4 JUMPI PUSH1 0x1 ADD PUSH2 0x1D79 JUMP JUMPDEST POP POP SWAP1 POP PUSH1 0x1 JUMPDEST ISZERO PUSH2 0x497 JUMPI PUSH1 0x5 SLOAD PUSH1 0x40 MLOAD PUSH4 0x2734EAB PUSH1 0xE5 SHL DUP2 MSTORE SWAP1 PUSH1 0x20 SWAP1 DUP3 SWAP1 PUSH1 0x4 SWAP1 DUP3 SWAP1 PUSH1 0x1 PUSH1 0x1 PUSH1 0xA0 SHL SUB AND GAS STATICCALL SWAP1 DUP2 ISZERO PUSH2 0xE2B JUMPI PUSH1 0x0 SWAP2 PUSH2 0x1E91 JUMPI JUMPDEST POP PUSH1 0x4 DUP2 LT ISZERO PUSH2 0xDE6 JUMPI PUSH1 0x3 SUB PUSH2 0x13BA JUMPI PUSH1 0x40 MLOAD DUP3 DUP3 DUP3 CALLDATACOPY PUSH1 0x20 DUP2 DUP5 DUP2 ADD PUSH1 0x0 DUP2 MSTORE SUB ADD SWAP1 KECCAK256 PUSH1 0x7 DUP2 ADD SWAP3 DUP4 SLOAD SWAP3 PUSH1 0xFF DUP5 PUSH1 0x80 SHR AND PUSH2 0x13A9 JUMPI PUSH1 0x4 PUSH1 0x20 SWAP4 PUSH32 0x9E379B91C2A38BBF3AD1980F07480411C5B71925153A238D75C9CA396BCA3AD3 SWAP6 PUSH1 0x1 PUSH1 0x80 SHL SWAP1 PUSH1 0xFF PUSH1 0x80 SHL NOT AND OR DUP8 SSTORE ADD PUSH1 0x1 PUSH1 0xFF NOT DUP3 SLOAD AND OR SWAP1 SSTORE PUSH2 0x1E75 PUSH1 0x1 PUSH1 0x1 PUSH1 0x40 SHL SUB TIMESTAMP AND DUP1 SWAP7 PUSH2 0x2321 JUMP JUMPDEST DUP2 PUSH1 0x40 MLOAD SWAP3 DUP4 SWAP3 DUP4 CALLDATACOPY DUP2 ADD PUSH1 0x0 DUP2 MSTORE SUB SWAP1 KECCAK256 SWAP3 PUSH1 0x40 MLOAD SWAP1 DUP2 MSTORE LOG2 STOP JUMPDEST PUSH2 0x1EAA SWAP2 POP PUSH1 0x20 RETURNDATASIZE PUSH1 0x20 GT PUSH2 0xE24 JUMPI PUSH2 0xE16 DUP2 DUP4 PUSH2 0x1F62 JUMP JUMPDEST DUP4 PUSH2 0x1DE5 JUMP JUMPDEST POP POP SWAP1 PUSH2 0x1DAB JUMP JUMPDEST CALLVALUE PUSH2 0x1CC JUMPI PUSH1 0x40 CALLDATASIZE PUSH1 0x3 NOT ADD SLT PUSH2 0x1CC JUMPI PUSH1 0x4 CALLDATALOAD PUSH1 0x1 PUSH1 0x1 PUSH1 0x40 SHL SUB DUP2 GT PUSH2 0x1CC JUMPI PUSH2 0x1EE8 SWAP1 CALLDATASIZE SWAP1 PUSH1 0x4 ADD PUSH2 0x1F35 JUMP JUMPDEST PUSH1 0xFF PUSH1 0x24 CALLDATALOAD SWAP4 DUP3 DUP5 DUP3 CALLDATACOPY PUSH1 0x20 DUP2 DUP5 DUP2 ADD PUSH1 0x2 DUP2 MSTORE SUB ADD SWAP1 KECCAK256 SLOAD AND ISZERO PUSH2 0x244 JUMPI PUSH1 0x20 PUSH1 0x3 SWAP3 DUP3 PUSH1 0x40 MLOAD SWAP4 DUP5 SWAP3 DUP4 CALLDATACOPY DUP2 ADD PUSH1 0x0 DUP2 MSTORE SUB ADD SWAP1 KECCAK256 ADD DUP1 SLOAD DUP3 LT ISZERO PUSH2 0x1808 JUMPI PUSH1 0x20 SWAP2 PUSH2 0x141B SWAP2 PUSH2 0x2289 JUMP JUMPDEST SWAP2 DUP2 PUSH1 0x1F DUP5 ADD SLT ISZERO PUSH2 0x1CC JUMPI DUP3 CALLDATALOAD SWAP2 PUSH1 0x1 PUSH1 0x1 PUSH1 0x40 SHL SUB DUP4 GT PUSH2 0x1CC JUMPI PUSH1 0x20 DUP4 DUP2 DUP7 ADD SWAP6 ADD ADD GT PUSH2 0x1CC JUMPI JUMP JUMPDEST SWAP1 PUSH1 0x1F DUP1 NOT SWAP2 ADD AND DUP2 ADD SWAP1 DUP2 LT PUSH1 0x1 PUSH1 0x1 PUSH1 0x40 SHL SUB DUP3 GT OR PUSH2 0x435 JUMPI PUSH1 0x40 MSTORE JUMP JUMPDEST SWAP3 SWAP2 SWAP3 PUSH1 0x1 PUSH1 0x1 PUSH1 0x40 SHL SUB DUP3 GT PUSH2 0x435 JUMPI PUSH1 0x40 MLOAD SWAP2 PUSH2 0x1FAC PUSH1 0x1F DUP3 ADD PUSH1 0x1F NOT AND PUSH1 0x20 ADD DUP5 PUSH2 0x1F62 JUMP JUMPDEST DUP3 SWAP5 DUP2 DUP5 MSTORE DUP2 DUP4 ADD GT PUSH2 0x1CC JUMPI DUP3 DUP2 PUSH1 0x20 SWAP4 DUP5 PUSH1 0x0 SWAP7 ADD CALLDATACOPY ADD ADD MSTORE JUMP JUMPDEST PUSH1 0x20 PUSH1 0x3 NOT DUP3 ADD SLT PUSH2 0x1CC JUMPI PUSH1 0x4 CALLDATALOAD SWAP1 PUSH1 0x1 PUSH1 0x1 PUSH1 0x40 SHL SUB DUP3 GT PUSH2 0x1CC JUMPI DUP1 PUSH1 0x23 DUP4 ADD SLT ISZERO PUSH2 0x1CC JUMPI DUP2 PUSH1 0x24 PUSH2 0x2004 SWAP4 PUSH1 0x4 ADD CALLDATALOAD SWAP2 ADD PUSH2 0x1F83 JUMP JUMPDEST SWAP1 JUMP JUMPDEST PUSH1 0x0 JUMPDEST DUP4 DUP2 LT PUSH2 0x201A JUMPI POP POP PUSH1 0x0 SWAP2 ADD MSTORE JUMP JUMPDEST DUP2 DUP2 ADD MLOAD DUP4 DUP3 ADD MSTORE PUSH1 0x20 ADD PUSH2 0x200A JUMP JUMPDEST SWAP1 PUSH1 0x1 DUP3 DUP2 SHR SWAP3 AND DUP1 ISZERO PUSH2 0x205A JUMPI JUMPDEST PUSH1 0x20 DUP4 LT EQ PUSH2 0x2044 JUMPI JUMP JUMPDEST PUSH4 0x4E487B71 PUSH1 0xE0 SHL PUSH1 0x0 MSTORE PUSH1 0x22 PUSH1 0x4 MSTORE PUSH1 0x24 PUSH1 0x0 REVERT JUMPDEST SWAP2 PUSH1 0x7F AND SWAP2 PUSH2 0x2039 JUMP JUMPDEST SWAP1 PUSH1 0x40 MLOAD SWAP2 DUP3 PUSH1 0x0 DUP3 SLOAD SWAP3 PUSH2 0x2078 DUP5 PUSH2 0x202A JUMP JUMPDEST DUP1 DUP5 MSTORE SWAP4 PUSH1 0x1 DUP2 AND SWAP1 DUP2 ISZERO PUSH2 0x20E6 JUMPI POP PUSH1 0x1 EQ PUSH2 0x209F JUMPI JUMPDEST POP PUSH2 0x209D SWAP3 POP SUB DUP4 PUSH2 0x1F62 JUMP JUMPDEST JUMP JUMPDEST SWAP1 POP PUSH1 0x0 SWAP3 SWAP2 SWAP3 MSTORE PUSH1 0x20 PUSH1 0x0 KECCAK256 SWAP1 PUSH1 0x0 SWAP2 JUMPDEST DUP2 DUP4 LT PUSH2 0x20CA JUMPI POP POP SWAP1 PUSH1 0x20 PUSH2 0x209D SWAP3 DUP3 ADD ADD CODESIZE PUSH2 0x2090 JUMP JUMPDEST PUSH1 0x20 SWAP2 SWAP4 POP DUP1 PUSH1 0x1 SWAP2 SLOAD DUP4 DUP6 DUP10 ADD ADD MSTORE ADD SWAP2 ADD SWAP1 SWAP2 DUP5 SWAP3 PUSH2 0x20B1 JUMP JUMPDEST SWAP1 POP PUSH1 0x20 SWAP3 POP PUSH2 0x209D SWAP5 SWAP2 POP PUSH1 0xFF NOT AND DUP3 DUP5 ADD MSTORE ISZERO ISZERO PUSH1 0x5 SHL DUP3 ADD ADD CODESIZE PUSH2 0x2090 JUMP JUMPDEST SWAP1 PUSH1 0x20 SWAP2 PUSH2 0x2121 DUP2 MLOAD DUP1 SWAP3 DUP2 DUP6 MSTORE DUP6 DUP1 DUP7 ADD SWAP2 ADD PUSH2 0x2007 JUMP JUMPDEST PUSH1 0x1F ADD PUSH1 0x1F NOT AND ADD ADD SWAP1 JUMP JUMPDEST SWAP1 PUSH1 0x2 DUP3 LT ISZERO PUSH2 0xDE6 JUMPI MSTORE JUMP JUMPDEST PUSH1 0x4 CALLDATALOAD SWAP1 PUSH1 0x1 PUSH1 0x1 PUSH1 0xA0 SHL SUB DUP3 AND DUP3 SUB PUSH2 0x1CC JUMPI JUMP JUMPDEST PUSH1 0x40 PUSH1 0x3 NOT DUP3 ADD SLT PUSH2 0x1CC JUMPI PUSH1 0x4 CALLDATALOAD SWAP1 PUSH1 0x1 PUSH1 0x1 PUSH1 0x40 SHL SUB DUP3 GT PUSH2 0x1CC JUMPI PUSH2 0x217A SWAP2 PUSH1 0x4 ADD PUSH2 0x1F35 JUMP JUMPDEST SWAP1 SWAP2 PUSH1 0x24 CALLDATALOAD PUSH1 0x1 PUSH1 0x1 PUSH1 0xA0 SHL SUB DUP2 AND DUP2 SUB PUSH2 0x1CC JUMPI SWAP1 JUMP JUMPDEST SWAP2 DUP2 PUSH1 0x1F DUP5 ADD SLT ISZERO PUSH2 0x1CC JUMPI DUP3 CALLDATALOAD SWAP2 PUSH1 0x1 PUSH1 0x1 PUSH1 0x40 SHL SUB DUP4 GT PUSH2 0x1CC JUMPI PUSH1 0x20 DUP1 DUP6 ADD SWAP5 DUP5 PUSH1 0x5 SHL ADD ADD GT PUSH2 0x1CC JUMPI JUMP JUMPDEST SWAP1 DUP1 PUSH1 0x20 DUP4 MLOAD SWAP2 DUP3 DUP2 MSTORE ADD SWAP2 PUSH1 0x20 DUP1 DUP4 PUSH1 0x5 SHL DUP4 ADD ADD SWAP5 ADD SWAP3 PUSH1 0x0 SWAP2 JUMPDEST DUP4 DUP4 LT PUSH2 0x21EE JUMPI POP POP POP POP POP SWAP1 JUMP JUMPDEST SWAP1 SWAP2 SWAP3 SWAP4 SWAP5 PUSH1 0x20 DUP1 PUSH2 0x220C PUSH1 0x1 SWAP4 PUSH1 0x1F NOT DUP7 DUP3 SUB ADD DUP8 MSTORE DUP10 MLOAD PUSH2 0x2108 JUMP JUMPDEST SWAP8 ADD SWAP4 ADD SWAP4 ADD SWAP2 SWAP4 SWAP3 SWAP1 PUSH2 0x21DF JUMP JUMPDEST SWAP1 PUSH1 0x20 DUP1 DUP4 MLOAD SWAP3 DUP4 DUP2 MSTORE ADD SWAP3 ADD SWAP1 PUSH1 0x0 JUMPDEST DUP2 DUP2 LT PUSH2 0x2239 JUMPI POP POP POP SWAP1 JUMP JUMPDEST DUP3 MLOAD PUSH1 0x1 PUSH1 0x1 PUSH1 0xA0 SHL SUB AND DUP5 MSTORE PUSH1 0x20 SWAP4 DUP5 ADD SWAP4 SWAP1 SWAP3 ADD SWAP2 PUSH1 0x1 ADD PUSH2 0x222C JUMP JUMPDEST PUSH1 0x4 SLOAD DUP2 LT ISZERO PUSH2 0x2273 JUMPI PUSH1 0x4 PUSH1 0x0 MSTORE PUSH1 0x20 PUSH1 0x0 KECCAK256 ADD SWAP1 PUSH1 0x0 SWAP1 JUMP JUMPDEST PUSH4 0x4E487B71 PUSH1 0xE0 SHL PUSH1 0x0 MSTORE PUSH1 0x32 PUSH1 0x4 MSTORE PUSH1 0x24 PUSH1 0x0 REVERT JUMPDEST DUP1 SLOAD DUP3 LT ISZERO PUSH2 0x2273 JUMPI PUSH1 0x0 MSTORE PUSH1 0x20 PUSH1 0x0 KECCAK256 ADD SWAP1 PUSH1 0x0 SWAP1 JUMP JUMPDEST SWAP1 PUSH1 0x40 MLOAD SWAP2 DUP3 DUP2 SLOAD SWAP2 DUP3 DUP3 MSTORE PUSH1 0x20 DUP3 ADD SWAP1 PUSH1 0x0 MSTORE PUSH1 0x20 PUSH1 0x0 KECCAK256 SWAP3 PUSH1 0x0 JUMPDEST DUP2 DUP2 LT PUSH2 0x22D3 JUMPI POP POP PUSH2 0x209D SWAP3 POP SUB DUP4 PUSH2 0x1F62 JUMP JUMPDEST DUP5 SLOAD PUSH1 0x1 PUSH1 0x1 PUSH1 0xA0 SHL SUB AND DUP4 MSTORE PUSH1 0x1 SWAP5 DUP6 ADD SWAP5 DUP8 SWAP5 POP PUSH1 0x20 SWAP1 SWAP4 ADD SWAP3 ADD PUSH2 0x22BE JUMP JUMPDEST DUP1 MLOAD DUP3 LT ISZERO PUSH2 0x2273 JUMPI PUSH1 0x20 SWAP2 PUSH1 0x5 SHL ADD ADD SWAP1 JUMP JUMPDEST SWAP1 DUP2 PUSH1 0x20 SWAP2 SUB SLT PUSH2 0x1CC JUMPI MLOAD PUSH1 0x4 DUP2 LT ISZERO PUSH2 0x1CC JUMPI SWAP1 JUMP JUMPDEST SWAP1 PUSH8 0xFFFFFFFFFFFFFFFF PUSH1 0x40 SHL DUP3 SLOAD SWAP2 PUSH1 0x40 SHL AND SWAP1 PUSH8 0xFFFFFFFFFFFFFFFF PUSH1 0x40 SHL NOT AND OR SWAP1 SSTORE JUMP JUMPDEST PUSH1 0x1 PUSH1 0x1 PUSH1 0x40 SHL SUB DUP2 GT PUSH2 0x435 JUMPI PUSH1 0x5 SHL PUSH1 0x20 ADD SWAP1 JUMP JUMPDEST SWAP1 PUSH2 0x236A DUP3 PUSH2 0x2349 JUMP JUMPDEST PUSH2 0x2377 PUSH1 0x40 MLOAD SWAP2 DUP3 PUSH2 0x1F62 JUMP JUMPDEST DUP3 DUP2 MSTORE DUP1 SWAP3 PUSH2 0x2388 PUSH1 0x1F NOT SWAP2 PUSH2 0x2349 JUMP JUMPDEST ADD SWAP1 PUSH1 0x0 JUMPDEST DUP3 DUP2 LT PUSH2 0x2399 JUMPI POP POP POP JUMP JUMPDEST DUP1 PUSH1 0x60 PUSH1 0x20 DUP1 SWAP4 DUP6 ADD ADD MSTORE ADD PUSH2 0x238D JUMP JUMPDEST SWAP2 SWAP1 DUP2 LT ISZERO PUSH2 0x2273 JUMPI PUSH1 0x5 SHL DUP2 ADD CALLDATALOAD SWAP1 PUSH1 0x1E NOT DUP2 CALLDATASIZE SUB ADD DUP3 SLT ISZERO PUSH2 0x1CC JUMPI ADD SWAP1 DUP2 CALLDATALOAD SWAP2 PUSH1 0x1 PUSH1 0x1 PUSH1 0x40 SHL SUB DUP4 GT PUSH2 0x1CC JUMPI PUSH1 0x20 ADD DUP3 CALLDATASIZE SUB DUP2 SGT PUSH2 0x1CC JUMPI SWAP2 SWAP1 JUMP JUMPDEST SWAP1 PUSH1 0xFF PUSH1 0x40 MLOAD DUP3 DUP5 DUP3 CALLDATACOPY PUSH1 0x20 DUP2 DUP5 DUP2 ADD PUSH1 0x2 DUP2 MSTORE SUB ADD SWAP1 KECCAK256 SLOAD AND ISZERO PUSH2 0x244 JUMPI PUSH1 0x20 PUSH1 0x3 SWAP3 DUP3 PUSH1 0x40 MLOAD SWAP4 DUP5 SWAP3 DUP4 CALLDATACOPY DUP2 ADD PUSH1 0x0 DUP2 MSTORE SUB ADD SWAP1 KECCAK256 ADD SWAP1 PUSH1 0x0 SWAP2 DUP1 SLOAD SWAP3 JUMPDEST DUP4 DUP2 LT PUSH2 0x243B JUMPI POP POP POP POP PUSH1 0x0 SWAP1 JUMP JUMPDEST PUSH2 0x2445 DUP2 DUP4 PUSH2 0x2289 JUMP JUMPDEST SWAP1 SLOAD PUSH1 0x3 SWAP2 SWAP1 SWAP2 SHL SHR PUSH1 0x1 PUSH1 0x1 PUSH1 0xA0 SHL SUB SWAP1 DUP2 AND SWAP1 DUP5 AND EQ PUSH2 0x2469 JUMPI PUSH1 0x1 ADD PUSH2 0x242B JUMP JUMPDEST POP POP POP POP PUSH1 0x1 SWAP1 JUMP JUMPDEST DUP2 DUP2 LT PUSH2 0x247D JUMPI POP POP JUMP JUMPDEST PUSH1 0x0 DUP2 SSTORE PUSH1 0x1 ADD PUSH2 0x2472 JUMP JUMPDEST SWAP2 SWAP1 PUSH1 0x1F DUP2 GT PUSH2 0x2498 JUMPI POP POP POP JUMP JUMPDEST PUSH2 0x209D SWAP3 PUSH1 0x0 MSTORE PUSH1 0x20 PUSH1 0x0 KECCAK256 SWAP1 PUSH1 0x20 PUSH1 0x1F DUP5 ADD PUSH1 0x5 SHR DUP4 ADD SWAP4 LT PUSH2 0x24C4 JUMPI JUMPDEST PUSH1 0x1F ADD PUSH1 0x5 SHR ADD SWAP1 PUSH2 0x2472 JUMP JUMPDEST SWAP1 SWAP2 POP DUP2 SWAP1 PUSH2 0x24B7 JUMP JUMPDEST SWAP1 SWAP3 SWAP2 PUSH1 0x1 PUSH1 0x1 PUSH1 0x40 SHL SUB DUP2 GT PUSH2 0x435 JUMPI PUSH2 0x24F3 DUP2 PUSH2 0x24ED DUP5 SLOAD PUSH2 0x202A JUMP JUMPDEST DUP5 PUSH2 0x2489 JUMP JUMPDEST PUSH1 0x0 PUSH1 0x1F DUP3 GT PUSH1 0x1 EQ PUSH2 0x2534 JUMPI DUP2 SWAP1 PUSH2 0x2525 SWAP4 SWAP5 SWAP6 PUSH1 0x0 SWAP3 PUSH2 0x2529 JUMPI JUMPDEST POP POP DUP2 PUSH1 0x1 SHL SWAP2 PUSH1 0x0 NOT SWAP1 PUSH1 0x3 SHL SHR NOT AND OR SWAP1 JUMP JUMPDEST SWAP1 SSTORE JUMP JUMPDEST ADD CALLDATALOAD SWAP1 POP CODESIZE DUP1 PUSH2 0x2510 JUMP JUMPDEST PUSH1 0x1F NOT DUP3 AND SWAP5 DUP4 DUP3 MSTORE PUSH1 0x20 DUP3 KECCAK256 SWAP2 DUP1 JUMPDEST DUP8 DUP2 LT PUSH2 0x257C JUMPI POP DUP4 PUSH1 0x1 SWAP6 SWAP7 SWAP8 LT PUSH2 0x2562 JUMPI JUMPDEST POP POP POP DUP2 SHL ADD SWAP1 SSTORE JUMP JUMPDEST ADD CALLDATALOAD PUSH1 0x0 NOT PUSH1 0x3 DUP5 SWAP1 SHL PUSH1 0xF8 AND SHR NOT AND SWAP1 SSTORE CODESIZE DUP1 DUP1 PUSH2 0x2558 JUMP JUMPDEST SWAP1 SWAP3 PUSH1 0x20 PUSH1 0x1 DUP2 SWAP3 DUP7 DUP7 ADD CALLDATALOAD DUP2 SSTORE ADD SWAP5 ADD SWAP2 ADD PUSH2 0x2544 JUMP JUMPDEST SWAP2 SWAP1 DUP2 LT ISZERO PUSH2 0x2273 JUMPI PUSH1 0x5 SHL ADD SWAP1 JUMP JUMPDEST CALLDATALOAD PUSH1 0x1 PUSH1 0x1 PUSH1 0xA0 SHL SUB DUP2 AND DUP2 SUB PUSH2 0x1CC JUMPI SWAP1 JUMP JUMPDEST PUSH1 0x4 SLOAD SWAP1 PUSH1 0x1 PUSH1 0x40 SHL DUP3 LT ISZERO PUSH2 0x435 JUMPI PUSH2 0x36B DUP3 PUSH1 0x1 PUSH2 0x209D SWAP5 ADD PUSH1 0x4 SSTORE PUSH1 0x4 PUSH2 0x2289 JUMP JUMPDEST SWAP1 SWAP2 DUP1 PUSH1 0x40 SWAP4 PUSH1 0x20 DUP5 MSTORE DUP2 PUSH1 0x20 DUP6 ADD MSTORE DUP5 DUP5 ADD CALLDATACOPY PUSH1 0x0 DUP3 DUP3 ADD DUP5 ADD MSTORE PUSH1 0x1F ADD PUSH1 0x1F NOT AND ADD ADD SWAP1 JUMP JUMPDEST SWAP2 SWAP1 SWAP2 DUP3 DUP2 EQ PUSH2 0x26D7 JUMPI PUSH2 0x2619 DUP4 SLOAD PUSH2 0x202A JUMP JUMPDEST PUSH1 0x1 PUSH1 0x1 PUSH1 0x40 SHL SUB DUP2 GT PUSH2 0x435 JUMPI PUSH2 0x2635 DUP2 PUSH2 0x24ED DUP5 SLOAD PUSH2 0x202A JUMP JUMPDEST PUSH1 0x0 SWAP4 PUSH1 0x1F DUP3 GT PUSH1 0x1 EQ PUSH2 0x2672 JUMPI PUSH2 0x2525 SWAP3 SWAP4 SWAP5 DUP3 SWAP2 PUSH1 0x0 SWAP3 PUSH2 0x2667 JUMPI POP POP DUP2 PUSH1 0x1 SHL SWAP2 PUSH1 0x0 NOT SWAP1 PUSH1 0x3 SHL SHR NOT AND OR SWAP1 JUMP JUMPDEST ADD SLOAD SWAP1 POP CODESIZE DUP1 PUSH2 0x2510 JUMP JUMPDEST DUP5 MSTORE PUSH1 0x20 DUP1 DUP6 KECCAK256 DUP4 DUP7 MSTORE SWAP1 DUP6 KECCAK256 SWAP1 SWAP5 PUSH1 0x1F NOT DUP4 AND DUP2 JUMPDEST DUP2 DUP2 LT PUSH2 0x26BF JUMPI POP SWAP6 DUP4 PUSH1 0x1 SWAP6 SWAP7 SWAP8 LT PUSH2 0x26A6 JUMPI POP POP POP DUP2 SHL ADD SWAP1 SSTORE JUMP JUMPDEST ADD SLOAD PUSH1 0x0 NOT PUSH1 0xF8 DUP5 PUSH1 0x3 SHL AND SHR NOT AND SWAP1 SSTORE CODESIZE DUP1 DUP1 PUSH2 0x2558 JUMP JUMPDEST SWAP2 SWAP3 PUSH1 0x1 DUP1 PUSH1 0x20 SWAP3 DUP7 DUP12 ADD SLOAD DUP2 SSTORE ADD SWAP5 ADD SWAP3 ADD PUSH2 0x2688 JUMP JUMPDEST POP SWAP1 POP JUMP JUMPDEST PUSH2 0x26E6 DUP2 SLOAD PUSH2 0x202A JUMP JUMPDEST SWAP1 DUP2 PUSH2 0x26F0 JUMPI POP POP JUMP JUMPDEST DUP2 PUSH1 0x1F PUSH1 0x0 SWAP4 GT PUSH1 0x1 EQ PUSH2 0x2702 JUMPI POP SSTORE JUMP JUMPDEST DUP2 DUP4 MSTORE PUSH1 0x20 DUP4 KECCAK256 PUSH2 0x271E SWAP2 PUSH1 0x1F ADD PUSH1 0x5 SHR DUP2 ADD SWAP1 PUSH1 0x1 ADD PUSH2 0x2472 JUMP JUMPDEST DUP1 DUP3 MSTORE DUP2 PUSH1 0x20 DUP2 KECCAK256 SWAP2 SSTORE SSTORE JUMP INVALID LOG2 PUSH5 0x6970667358 0x22 SLT KECCAK256 SHL 0xD0 0xAA COINBASE 0x21 OR DUP3 SWAP10 0xC 0x1E 0xBE STATICCALL 0xD2 MUL MSTORE 0xBE 0xDA MOD 0xB8 0xCC MULMOD SWAP2 0x27 0xCA 0x25 RETURN SWAP5 SWAP3 SAR NOT PUSH12 0x7E64736F6C634300081C0033 "},"methodIdentifiers":{"allAuthorizedContacts(uint256)":"6ae22b53","assignContactToVault(string,address)":"ad46915c","createVault(string,string,address[],string,string)":"791ed6b6","deleteVault(string)":"91b6c696","getAllAuthorizedContacts()":"875e407a","getDecryptionKey(string)":"6e895a66","getMultipleVaultsInfo(string[])":"2e3f132d","getUserVaultCount(address)":"828edbe8","getUserVaults(address)":"e7f3c69c","getVaultAuthorizedContacts(string)":"74ac3287","getVaultContactAtIndex(string,uint256)":"0c490d13","getVaultContactCount(string)":"dd6b4b5e","getVaultInfo(string)":"744c3fde","isAuthorizedContact(address)":"aec5c6f4","isVaultContact(string,address)":"5f4a9f91","isVaultOwner(string,address)":"27d54b9f","isVaultReleased(string)":"2d8c263b","releaseVault(string)":"0c5a2f1d","removeContactFromVault(string,address)":"4cc74432","updateEncryptionKey(string,string,string)":"701d5b08","updateVaultMetadata(string,string)":"a86e4e38","userContract()":"5000596b","userVaults(address,uint256)":"9c841fef","vaultExists(string)":"3b7316c1","vaults(string)":"11b6f8e6"}}}}}