{"contracts/providers/LifeSignal.sol":{"LifeSignal":{"abi":[{"inputs":[{"internalType":"uint256","name":"_interval","type":"uint256"},{"internalType":"uint256","name":"_timeout","type":"uint256"}],"stateMutability":"nonpayable","type":"constructor"},{"inputs":[{"internalType":"bytes","name":"","type":"bytes"}],"name":"checkUpkeep","outputs":[{"internalType":"bool","name":"upkeepNeeded","type":"bool"},{"internalType":"bytes","name":"performData","type":"bytes"}],"stateMutability":"view","type":"function"},{"inputs":[],"name":"interval","outputs":[{"internalType":"uint256","name":"","type":"uint256"}],"stateMutability":"view","type":"function"},{"inputs":[],"name":"lastCheck","outputs":[{"internalType":"uint256","name":"","type":"uint256"}],"stateMutability":"view","type":"function"},{"inputs":[],"name":"lastPing","outputs":[{"internalType":"uint256","name":"","type":"uint256"}],"stateMutability":"view","type":"function"},{"inputs":[{"internalType":"bytes","name":"","type":"bytes"}],"name":"performUpkeep","outputs":[],"stateMutability":"nonpayable","type":"function"},{"inputs":[],"name":"ping","outputs":[],"stateMutability":"nonpayable","type":"function"},{"inputs":[],"name":"status","outputs":[{"internalType":"enum LifeSignal.Status","name":"","type":"uint8"}],"stateMutability":"view","type":"function"},{"inputs":[],"name":"timeout","outputs":[{"internalType":"uint256","name":"","type":"uint256"}],"stateMutability":"view","type":"function"},{"inputs":[],"name":"user","outputs":[{"internalType":"address","name":"","type":"address"}],"stateMutability":"view","type":"function"}],"evm":{"bytecode":{"linkReferences":{},"object":"608034607a57601f61041838819003918201601f19168301916001600160401b03831184841017607f578084926040948552833981010312607a5760208151910151903360018060a01b03196000541617600055426001556002556003554260045560ff196005541660055560405161038290816100968239f35b600080fd5b634e487b7160e01b600052604160045260246000fdfe608080604052600436101561001357600080fd5b60003560e01c908163200d2ed21461029a575080632760c57e1461027c5780634585e33b146102225780634f8632ba146101f95780635c36b1861461018c5780636e04ff0d146100e157806370dea79a146100c3578063947a36fb146100a55763d2eae1b41461008257600080fd5b346100a05760003660031901126100a0576020600454604051908152f35b600080fd5b346100a05760003660031901126100a0576020600254604051908152f35b346100a05760003660031901126100a0576020600354604051908152f35b346100a0576100ef366102d8565b50506100fd60045442610329565b600254106040516020810181811067ffffffffffffffff8211176101765760405260008152604051918252604060208301528181519182604083015260005b83811061015e5750508160006060809484010152601f80199101168101030190f35b6020828201810151606087840101528593500161013c565b634e487b7160e01b600052604160045260246000fd5b346100a05760003660031901126100a0576000546001600160a01b031633036101bf57426001556005805460ff19169055005b60405162461bcd60e51b81526020600482015260126024820152714f6e6c7920757365722063616e2070696e6760701b6044820152606490fd5b346100a05760003660031901126100a0576000546040516001600160a01b039091168152602090f35b346100a057610230366102d8565b505061023e60045442610329565b6002541061024857005b4260045561025860015442610329565b6003541015610270576005805460ff19166001179055005b60ff1960055416600555005b346100a05760003660031901126100a0576020600154604051908152f35b346100a05760003660031901126100a05760ff600554169060028210156102c2576020918152f35b634e487b7160e01b600052602160045260246000fd5b9060206003198301126100a05760043567ffffffffffffffff81116100a057826023820112156100a05780600401359267ffffffffffffffff84116100a057602484830101116100a0576024019190565b9190820391821161033657565b634e487b7160e01b600052601160045260246000fdfea2646970667358221220ab57224e8c34984595abf6231477ef968411ae7a34e281fef0b0e957abbee5e464736f6c634300081c0033","opcodes":"PUSH1 0x80 CALLVALUE PUSH1 0x7A JUMPI PUSH1 0x1F PUSH2 0x418 CODESIZE DUP2 SWAP1 SUB SWAP2 DUP3 ADD PUSH1 0x1F NOT AND DUP4 ADD SWAP2 PUSH1 0x1 PUSH1 0x1 PUSH1 0x40 SHL SUB DUP4 GT DUP5 DUP5 LT OR PUSH1 0x7F JUMPI DUP1 DUP5 SWAP3 PUSH1 0x40 SWAP5 DUP6 MSTORE DUP4 CODECOPY DUP2 ADD SUB SLT PUSH1 0x7A JUMPI PUSH1 0x20 DUP2 MLOAD SWAP2 ADD MLOAD SWAP1 CALLER PUSH1 0x1 DUP1 PUSH1 0xA0 SHL SUB NOT PUSH1 0x0 SLOAD AND OR PUSH1 0x0 SSTORE TIMESTAMP PUSH1 0x1 SSTORE PUSH1 0x2 SSTORE PUSH1 0x3 SSTORE TIMESTAMP PUSH1 0x4 SSTORE PUSH1 0xFF NOT PUSH1 0x5 SLOAD AND PUSH1 0x5 SSTORE PUSH1 0x40 MLOAD PUSH2 0x382 SWAP1 DUP2 PUSH2 0x96 DUP3 CODECOPY RETURN JUMPDEST PUSH1 0x0 DUP1 REVERT JUMPDEST PUSH4 0x4E487B71 PUSH1 0xE0 SHL PUSH1 0x0 MSTORE PUSH1 0x41 PUSH1 0x4 MSTORE PUSH1 0x24 PUSH1 0x0 REVERT INVALID PUSH1 0x80 DUP1 PUSH1 0x40 MSTORE PUSH1 0x4 CALLDATASIZE LT ISZERO PUSH2 0x13 JUMPI PUSH1 0x0 DUP1 REVERT JUMPDEST PUSH1 0x0 CALLDATALOAD PUSH1 0xE0 SHR SWAP1 DUP2 PUSH4 0x200D2ED2 EQ PUSH2 0x29A JUMPI POP DUP1 PUSH4 0x2760C57E EQ PUSH2 0x27C JUMPI DUP1 PUSH4 0x4585E33B EQ PUSH2 0x222 JUMPI DUP1 PUSH4 0x4F8632BA EQ PUSH2 0x1F9 JUMPI DUP1 PUSH4 0x5C36B186 EQ PUSH2 0x18C JUMPI DUP1 PUSH4 0x6E04FF0D EQ PUSH2 0xE1 JUMPI DUP1 PUSH4 0x70DEA79A EQ PUSH2 0xC3 JUMPI DUP1 PUSH4 0x947A36FB EQ PUSH2 0xA5 JUMPI PUSH4 0xD2EAE1B4 EQ PUSH2 0x82 JUMPI PUSH1 0x0 DUP1 REVERT JUMPDEST CALLVALUE PUSH2 0xA0 JUMPI PUSH1 0x0 CALLDATASIZE PUSH1 0x3 NOT ADD SLT PUSH2 0xA0 JUMPI PUSH1 0x20 PUSH1 0x4 SLOAD PUSH1 0x40 MLOAD SWAP1 DUP2 MSTORE RETURN JUMPDEST PUSH1 0x0 DUP1 REVERT JUMPDEST CALLVALUE PUSH2 0xA0 JUMPI PUSH1 0x0 CALLDATASIZE PUSH1 0x3 NOT ADD SLT PUSH2 0xA0 JUMPI PUSH1 0x20 PUSH1 0x2 SLOAD PUSH1 0x40 MLOAD SWAP1 DUP2 MSTORE RETURN JUMPDEST CALLVALUE PUSH2 0xA0 JUMPI PUSH1 0x0 CALLDATASIZE PUSH1 0x3 NOT ADD SLT PUSH2 0xA0 JUMPI PUSH1 0x20 PUSH1 0x3 SLOAD PUSH1 0x40 MLOAD SWAP1 DUP2 MSTORE RETURN JUMPDEST CALLVALUE PUSH2 0xA0 JUMPI PUSH2 0xEF CALLDATASIZE PUSH2 0x2D8 JUMP JUMPDEST POP POP PUSH2 0xFD PUSH1 0x4 SLOAD TIMESTAMP PUSH2 0x329 JUMP JUMPDEST PUSH1 0x2 SLOAD LT PUSH1 0x40 MLOAD PUSH1 0x20 DUP2 ADD DUP2 DUP2 LT PUSH8 0xFFFFFFFFFFFFFFFF DUP3 GT OR PUSH2 0x176 JUMPI PUSH1 0x40 MSTORE PUSH1 0x0 DUP2 MSTORE PUSH1 0x40 MLOAD SWAP2 DUP3 MSTORE PUSH1 0x40 PUSH1 0x20 DUP4 ADD MSTORE DUP2 DUP2 MLOAD SWAP2 DUP3 PUSH1 0x40 DUP4 ADD MSTORE PUSH1 0x0 JUMPDEST DUP4 DUP2 LT PUSH2 0x15E JUMPI POP POP DUP2 PUSH1 0x0 PUSH1 0x60 DUP1 SWAP5 DUP5 ADD ADD MSTORE PUSH1 0x1F DUP1 NOT SWAP2 ADD AND DUP2 ADD SUB ADD SWAP1 RETURN JUMPDEST PUSH1 0x20 DUP3 DUP3 ADD DUP2 ADD MLOAD PUSH1 0x60 DUP8 DUP5 ADD ADD MSTORE DUP6 SWAP4 POP ADD PUSH2 0x13C JUMP JUMPDEST PUSH4 0x4E487B71 PUSH1 0xE0 SHL PUSH1 0x0 MSTORE PUSH1 0x41 PUSH1 0x4 MSTORE PUSH1 0x24 PUSH1 0x0 REVERT JUMPDEST CALLVALUE PUSH2 0xA0 JUMPI PUSH1 0x0 CALLDATASIZE PUSH1 0x3 NOT ADD SLT PUSH2 0xA0 JUMPI PUSH1 0x0 SLOAD PUSH1 0x1 PUSH1 0x1 PUSH1 0xA0 SHL SUB AND CALLER SUB PUSH2 0x1BF JUMPI TIMESTAMP PUSH1 0x1 SSTORE PUSH1 0x5 DUP1 SLOAD PUSH1 0xFF NOT AND SWAP1 SSTORE STOP JUMPDEST PUSH1 0x40 MLOAD PUSH3 0x461BCD PUSH1 0xE5 SHL DUP2 MSTORE PUSH1 0x20 PUSH1 0x4 DUP3 ADD MSTORE PUSH1 0x12 PUSH1 0x24 DUP3 ADD MSTORE PUSH18 0x4F6E6C7920757365722063616E2070696E67 PUSH1 0x70 SHL PUSH1 0x44 DUP3 ADD MSTORE PUSH1 0x64 SWAP1 REVERT JUMPDEST CALLVALUE PUSH2 0xA0 JUMPI PUSH1 0x0 CALLDATASIZE PUSH1 0x3 NOT ADD SLT PUSH2 0xA0 JUMPI PUSH1 0x0 SLOAD PUSH1 0x40 MLOAD PUSH1 0x1 PUSH1 0x1 PUSH1 0xA0 SHL SUB SWAP1 SWAP2 AND DUP2 MSTORE PUSH1 0x20 SWAP1 RETURN JUMPDEST CALLVALUE PUSH2 0xA0 JUMPI PUSH2 0x230 CALLDATASIZE PUSH2 0x2D8 JUMP JUMPDEST POP POP PUSH2 0x23E PUSH1 0x4 SLOAD TIMESTAMP PUSH2 0x329 JUMP JUMPDEST PUSH1 0x2 SLOAD LT PUSH2 0x248 JUMPI STOP JUMPDEST TIMESTAMP PUSH1 0x4 SSTORE PUSH2 0x258 PUSH1 0x1 SLOAD TIMESTAMP PUSH2 0x329 JUMP JUMPDEST PUSH1 0x3 SLOAD LT ISZERO PUSH2 0x270 JUMPI PUSH1 0x5 DUP1 SLOAD PUSH1 0xFF NOT AND PUSH1 0x1 OR SWAP1 SSTORE STOP JUMPDEST PUSH1 0xFF NOT PUSH1 0x5 SLOAD AND PUSH1 0x5 SSTORE STOP JUMPDEST CALLVALUE PUSH2 0xA0 JUMPI PUSH1 0x0 CALLDATASIZE PUSH1 0x3 NOT ADD SLT PUSH2 0xA0 JUMPI PUSH1 0x20 PUSH1 0x1 SLOAD PUSH1 0x40 MLOAD SWAP1 DUP2 MSTORE RETURN JUMPDEST CALLVALUE PUSH2 0xA0 JUMPI PUSH1 0x0 CALLDATASIZE PUSH1 0x3 NOT ADD SLT PUSH2 0xA0 JUMPI PUSH1 0xFF PUSH1 0x5 SLOAD AND SWAP1 PUSH1 0x2 DUP3 LT ISZERO PUSH2 0x2C2 JUMPI PUSH1 0x20 SWAP2 DUP2 MSTORE RETURN JUMPDEST PUSH4 0x4E487B71 PUSH1 0xE0 SHL PUSH1 0x0 MSTORE PUSH1 0x21 PUSH1 0x4 MSTORE PUSH1 0x24 PUSH1 0x0 REVERT JUMPDEST SWAP1 PUSH1 0x20 PUSH1 0x3 NOT DUP4 ADD SLT PUSH2 0xA0 JUMPI PUSH1 0x4 CALLDATALOAD PUSH8 0xFFFFFFFFFFFFFFFF DUP2 GT PUSH2 0xA0 JUMPI DUP3 PUSH1 0x23 DUP3 ADD SLT ISZERO PUSH2 0xA0 JUMPI DUP1 PUSH1 0x4 ADD CALLDATALOAD SWAP3 PUSH8 0xFFFFFFFFFFFFFFFF DUP5 GT PUSH2 0xA0 JUMPI PUSH1 0x24 DUP5 DUP4 ADD ADD GT PUSH2 0xA0 JUMPI PUSH1 0x24 ADD SWAP2 SWAP1 JUMP JUMPDEST SWAP2 SWAP1 DUP3 SUB SWAP2 DUP3 GT PUSH2 0x336 JUMPI JUMP JUMPDEST PUSH4 0x4E487B71 PUSH1 0xE0 SHL PUSH1 0x0 MSTORE PUSH1 0x11 PUSH1 0x4 MSTORE PUSH1 0x24 PUSH1 0x0 REVERT INVALID LOG2 PUSH5 0x6970667358 0x22 SLT KECCAK256 0xAB JUMPI 0x22 0x4E DUP13 CALLVALUE SWAP9 GASLIMIT SWAP6 0xAB 0xF6 0x23 EQ PUSH24 0xEF968411AE7A34E281FEF0B0E957ABBEE5E464736F6C6343 STOP ADDMOD SHR STOP CALLER "},"methodIdentifiers":{"checkUpkeep(bytes)":"6e04ff0d","interval()":"947a36fb","lastCheck()":"d2eae1b4","lastPing()":"2760c57e","performUpkeep(bytes)":"4585e33b","ping()":"5c36b186","status()":"200d2ed2","timeout()":"70dea79a","user()":"4f8632ba"}}}}}