{"contracts/LifeSignalRegistry.sol":{"LifeSignalRegistry":{"abi":[{"anonymous":false,"inputs":[{"indexed":true,"internalType":"address","name":"owner","type":"address"},{"indexed":false,"internalType":"bool","name":"isDeceased","type":"bool"},{"indexed":false,"internalType":"uint256","name":"timestamp","type":"uint256"}],"name":"ConsensusReached","type":"event"},{"anonymous":false,"inputs":[{"indexed":true,"internalType":"address","name":"owner","type":"address"},{"indexed":true,"internalType":"address","name":"contact","type":"address"},{"indexed":false,"internalType":"string","name":"firstName","type":"string"},{"indexed":false,"internalType":"string","name":"lastName","type":"string"},{"indexed":false,"internalType":"bool","name":"hasVotingRight","type":"bool"}],"name":"ContactAdded","type":"event"},{"anonymous":false,"inputs":[{"indexed":true,"internalType":"address","name":"owner","type":"address"},{"indexed":true,"internalType":"address","name":"contact","type":"address"}],"name":"ContactVerified","type":"event"},{"anonymous":false,"inputs":[{"indexed":true,"internalType":"address","name":"owner","type":"address"},{"indexed":true,"internalType":"address","name":"declaredBy","type":"address"},{"indexed":false,"internalType":"uint256","name":"timestamp","type":"uint256"}],"name":"DeathDeclared","type":"event"},{"anonymous":false,"inputs":[{"indexed":true,"internalType":"address","name":"owner","type":"address"},{"indexed":false,"internalType":"uint256","name":"timestamp","type":"uint256"}],"name":"HeartbeatSent","type":"event"},{"anonymous":false,"inputs":[{"indexed":true,"internalType":"address","name":"owner","type":"address"},{"indexed":false,"internalType":"string","name":"firstName","type":"string"},{"indexed":false,"internalType":"string","name":"lastName","type":"string"}],"name":"OwnerRegistered","type":"event"},{"anonymous":false,"inputs":[{"indexed":true,"internalType":"uint256","name":"vaultId","type":"uint256"},{"indexed":true,"internalType":"address","name":"contact","type":"address"}],"name":"VaultContactAuthorized","type":"event"},{"anonymous":false,"inputs":[{"indexed":true,"internalType":"uint256","name":"vaultId","type":"uint256"},{"indexed":true,"internalType":"address","name":"owner","type":"address"},{"indexed":false,"internalType":"string","name":"name","type":"string"}],"name":"VaultCreated","type":"event"},{"anonymous":false,"inputs":[{"indexed":true,"internalType":"uint256","name":"vaultId","type":"uint256"},{"indexed":false,"internalType":"uint256","name":"fileId","type":"uint256"},{"indexed":false,"internalType":"string","name":"originalName","type":"string"}],"name":"VaultFileAdded","type":"event"},{"anonymous":false,"inputs":[{"indexed":true,"internalType":"uint256","name":"vaultId","type":"uint256"},{"indexed":true,"internalType":"address","name":"owner","type":"address"}],"name":"VaultReleased","type":"event"},{"anonymous":false,"inputs":[{"indexed":true,"internalType":"address","name":"owner","type":"address"},{"indexed":true,"internalType":"address","name":"voter","type":"address"},{"indexed":false,"internalType":"bool","name":"vote","type":"bool"}],"name":"VoteCast","type":"event"},{"inputs":[{"internalType":"address","name":"_contact","type":"address"},{"internalType":"string","name":"_firstName","type":"string"},{"internalType":"string","name":"_lastName","type":"string"},{"internalType":"string","name":"_email","type":"string"},{"internalType":"string","name":"_phone","type":"string"},{"internalType":"bool","name":"_hasVotingRight","type":"bool"},{"internalType":"uint256[]","name":"_authorizedVaults","type":"uint256[]"}],"name":"addContact","outputs":[],"stateMutability":"nonpayable","type":"function"},{"inputs":[{"internalType":"uint256","name":"_vaultId","type":"uint256"},{"internalType":"string","name":"_originalName","type":"string"},{"internalType":"string","name":"_mimeType","type":"string"},{"internalType":"string","name":"_cid","type":"string"},{"internalType":"string","name":"_uploadDate","type":"string"}],"name":"addVaultFile","outputs":[{"internalType":"uint256","name":"","type":"uint256"}],"stateMutability":"nonpayable","type":"function"},{"inputs":[{"internalType":"uint256","name":"_vaultId","type":"uint256"},{"internalType":"address","name":"_contact","type":"address"}],"name":"authorizeVaultContact","outputs":[],"stateMutability":"nonpayable","type":"function"},{"inputs":[{"internalType":"string","name":"_name","type":"string"},{"internalType":"string","name":"_cypherIv","type":"string"},{"internalType":"string","name":"_encryptionKey","type":"string"}],"name":"createVault","outputs":[{"internalType":"uint256","name":"","type":"uint256"}],"stateMutability":"nonpayable","type":"function"},{"inputs":[{"internalType":"address","name":"_owner","type":"address"}],"name":"declareDeceased","outputs":[],"stateMutability":"nonpayable","type":"function"},{"inputs":[{"internalType":"address","name":"_owner","type":"address"},{"internalType":"address","name":"_contact","type":"address"}],"name":"getContactAuthorizedVaults","outputs":[{"internalType":"uint256[]","name":"","type":"uint256[]"}],"stateMutability":"view","type":"function"},{"inputs":[{"internalType":"address","name":"_owner","type":"address"},{"internalType":"address","name":"_contact","type":"address"}],"name":"getContactInfo","outputs":[{"internalType":"address","name":"addr","type":"address"},{"internalType":"string","name":"firstName","type":"string"},{"internalType":"string","name":"lastName","type":"string"},{"internalType":"string","name":"email","type":"string"},{"internalType":"string","name":"phone","type":"string"},{"internalType":"bool","name":"hasVotingRight","type":"bool"},{"internalType":"bool","name":"isVerified","type":"bool"},{"internalType":"bool","name":"exists","type":"bool"}],"stateMutability":"view","type":"function"},{"inputs":[{"internalType":"address","name":"_owner","type":"address"}],"name":"getContactList","outputs":[{"internalType":"address[]","name":"","type":"address[]"}],"stateMutability":"view","type":"function"},{"inputs":[{"internalType":"address","name":"_owner","type":"address"}],"name":"getContactListDetails","outputs":[{"internalType":"address[]","name":"contactAddresses","type":"address[]"},{"internalType":"string[]","name":"firstNames","type":"string[]"},{"internalType":"string[]","name":"lastNames","type":"string[]"},{"internalType":"string[]","name":"emails","type":"string[]"},{"internalType":"string[]","name":"phones","type":"string[]"},{"internalType":"bool[]","name":"hasVotingRights","type":"bool[]"},{"internalType":"bool[]","name":"isVerified","type":"bool[]"}],"stateMutability":"view","type":"function"},{"inputs":[{"internalType":"address","name":"_contact","type":"address"}],"name":"getContactVaultDetails","outputs":[{"internalType":"uint256[]","name":"vaultIds","type":"uint256[]"},{"internalType":"string[]","name":"vaultNames","type":"string[]"},{"internalType":"address[]","name":"vaultOwners","type":"address[]"},{"internalType":"bool[]","name":"isReleased","type":"bool[]"},{"internalType":"string[]","name":"cypherIvs","type":"string[]"},{"internalType":"string[]","name":"encryptionKeys","type":"string[]"},{"internalType":"uint256[][]","name":"fileIds","type":"uint256[][]"}],"stateMutability":"view","type":"function"},{"inputs":[{"internalType":"address","name":"_owner","type":"address"}],"name":"getDeathDeclarationStatus","outputs":[{"internalType":"bool","name":"isActive","type":"bool"},{"internalType":"uint256","name":"startTime","type":"uint256"},{"internalType":"uint256","name":"votesFor","type":"uint256"},{"internalType":"uint256","name":"votesAgainst","type":"uint256"},{"internalType":"uint256","name":"totalVotingContacts","type":"uint256"},{"internalType":"bool","name":"consensusReached","type":"bool"}],"stateMutability":"view","type":"function"},{"inputs":[{"internalType":"address","name":"_owner","type":"address"}],"name":"getOwnerInfo","outputs":[{"internalType":"string","name":"firstName","type":"string"},{"internalType":"string","name":"lastName","type":"string"},{"internalType":"uint256","name":"lastHeartbeat","type":"uint256"},{"internalType":"uint256","name":"graceInterval","type":"uint256"},{"internalType":"bool","name":"isDeceased","type":"bool"},{"internalType":"bool","name":"exists","type":"bool"}],"stateMutability":"view","type":"function"},{"inputs":[{"internalType":"address","name":"_owner","type":"address"}],"name":"getOwnerVaultList","outputs":[{"internalType":"uint256[]","name":"","type":"uint256[]"}],"stateMutability":"view","type":"function"},{"inputs":[{"internalType":"address","name":"_owner","type":"address"}],"name":"getOwnerVaultListDetails","outputs":[{"internalType":"uint256[]","name":"vaultIds","type":"uint256[]"},{"internalType":"string[]","name":"names","type":"string[]"},{"internalType":"address[]","name":"vaultOwners","type":"address[]"},{"internalType":"bool[]","name":"isReleased","type":"bool[]"},{"internalType":"string[]","name":"cypherIvs","type":"string[]"},{"internalType":"string[]","name":"encryptionKeys","type":"string[]"},{"internalType":"uint256[][]","name":"fileIds","type":"uint256[][]"},{"internalType":"address[][]","name":"authorizedContacts","type":"address[][]"}],"stateMutability":"view","type":"function"},{"inputs":[{"internalType":"uint256","name":"_vaultId","type":"uint256"}],"name":"getVaultAuthorizedContacts","outputs":[{"internalType":"address[]","name":"","type":"address[]"}],"stateMutability":"view","type":"function"},{"inputs":[{"internalType":"uint256","name":"_vaultId","type":"uint256"},{"internalType":"uint256","name":"_fileId","type":"uint256"}],"name":"getVaultFileInfo","outputs":[{"internalType":"string","name":"originalName","type":"string"},{"internalType":"string","name":"mimeType","type":"string"},{"internalType":"string","name":"cid","type":"string"},{"internalType":"string","name":"uploadDate","type":"string"},{"internalType":"bool","name":"exists","type":"bool"}],"stateMutability":"view","type":"function"},{"inputs":[{"internalType":"uint256","name":"_vaultId","type":"uint256"}],"name":"getVaultFileList","outputs":[{"internalType":"uint256[]","name":"","type":"uint256[]"}],"stateMutability":"view","type":"function"},{"inputs":[{"internalType":"uint256","name":"_vaultId","type":"uint256"}],"name":"getVaultInfo","outputs":[{"internalType":"uint256","name":"id","type":"uint256"},{"internalType":"string","name":"name","type":"string"},{"internalType":"address","name":"owner","type":"address"},{"internalType":"bool","name":"isReleased","type":"bool"},{"internalType":"string","name":"cypherIv","type":"string"},{"internalType":"string","name":"encryptionKey","type":"string"},{"internalType":"uint256[]","name":"fileIds","type":"uint256[]"},{"internalType":"address[]","name":"authorizedContacts","type":"address[]"},{"internalType":"bool","name":"exists","type":"bool"}],"stateMutability":"view","type":"function"},{"inputs":[{"internalType":"address","name":"_owner","type":"address"},{"internalType":"address","name":"_voter","type":"address"}],"name":"getVote","outputs":[{"internalType":"bool","name":"","type":"bool"}],"stateMutability":"view","type":"function"},{"inputs":[{"internalType":"address","name":"_owner","type":"address"},{"internalType":"address","name":"_voter","type":"address"}],"name":"hasVoted","outputs":[{"internalType":"bool","name":"","type":"bool"}],"stateMutability":"view","type":"function"},{"inputs":[{"internalType":"uint256","name":"_vaultId","type":"uint256"},{"internalType":"address","name":"_address","type":"address"}],"name":"isVaultAuthorized","outputs":[{"internalType":"bool","name":"","type":"bool"}],"stateMutability":"view","type":"function"},{"inputs":[{"internalType":"string","name":"_firstName","type":"string"},{"internalType":"string","name":"_lastName","type":"string"},{"internalType":"string","name":"_email","type":"string"},{"internalType":"string","name":"_phone","type":"string"},{"internalType":"uint256","name":"_graceInterval","type":"uint256"}],"name":"registerOwner","outputs":[],"stateMutability":"nonpayable","type":"function"},{"inputs":[{"internalType":"uint256","name":"_vaultId","type":"uint256"}],"name":"releaseVault","outputs":[],"stateMutability":"nonpayable","type":"function"},{"inputs":[],"name":"sendHeartbeat","outputs":[],"stateMutability":"nonpayable","type":"function"},{"inputs":[{"internalType":"address","name":"_owner","type":"address"},{"internalType":"string","name":"_firstName","type":"string"},{"internalType":"string","name":"_lastName","type":"string"},{"internalType":"string","name":"_email","type":"string"},{"internalType":"string","name":"_phone","type":"string"}],"name":"updateContactInfo","outputs":[],"stateMutability":"nonpayable","type":"function"},{"inputs":[{"internalType":"address","name":"_owner","type":"address"}],"name":"verifyContact","outputs":[],"stateMutability":"nonpayable","type":"function"},{"inputs":[{"internalType":"address","name":"_owner","type":"address"},{"internalType":"bool","name":"_vote","type":"bool"}],"name":"voteOnDeathDeclaration","outputs":[],"stateMutability":"nonpayable","type":"function"}],"evm":{"bytecode":{"linkReferences":{},"object":"60808060405234610020576000600655600060075561459390816100268239f35b600080fdfe608080604052600436101561001357600080fd5b60003560e01c9081630accc75d146131a8575080631d2f4368146131545780631fe7fe7e146127dc57806320261995146125195780632c8bc50b146121365780632fda53e7146120f9578063329a5ac014611b4057806333587dc41461157e57806334f167a91461145a5780633bfb14f5146113a1578063490f0eba146113725780634d4d2b1c146113195780634e8e32b51461113a57806352e20c4f1461110a5780635ab4f1621461105257806360f490f714610f585780636880f13714610e5c5780637366252c14610c505780637584361814610c0d578063996e6ca114610b92578063abc22bbe1461089e578063b1ba9620146107a1578063b2b2baed146105ff578063b385faa8146105ae578063ceb15920146103e8578063d385de82146103435763d72d3e161461014857600080fd5b3461033e57602036600319011261033e576001600160a01b03610169613916565b16806000526000602052610183600860406000200161449f565b80519161018f83613b9b565b9261019981614514565b6101a282614514565b6101ab83614514565b916101b584614514565b936101bf81613b9b565b956101c982613b9b565b9760005b8a84821061025d5760e06102598c61024b8d61023d8e61022f8f8f8f90610213610221926102056040519e8f9e8f8181520190613a12565b8d810360208f0152906139b6565b908b820360408d01526139b6565b9089820360608b01526139b6565b9087820360808901526139b6565b9085820360a0870152613a4f565b9083820360c0850152613a4f565b0390f35b90898b61032b8361031b8160058f988f8f8f9b6103058f8f946103399f8980966102eb826102f8946102db82986103129d61029f8560018060a01b0392614549565b5116906000526001908160205260406000209060005260205260406000209e8f906102d48660018060a01b0384541692614549565b5201613e76565b6102e58383614549565b52614549565b506102db60028b01613e76565b506102db60038801613e76565b506102db60048501613e76565b50015495614549565b9260ff9384861615159052614549565b9160081c1615159052613d9b565b6101cd565b600080fd5b3461033e57602036600319011261033e576001600160a01b03610364613916565b1660005260006020526103b66040600020600581015460ff60068301546007840154906103c46103a2600261039b60018901613e76565b9701613e76565b60405197889760c0895260c0890190613976565b908782036020890152613976565b93604086015260608501528181161515608085015260081c16151560a08301520390f35b3461033e57602036600319011261033e576001600160a01b03610409613916565b166000526005602052604060002080549061042382613b9b565b9161042d81614514565b61043682613b9b565b61043f83613b9b565b9061044984614514565b9261045385614514565b9461045d81614514565b9660005b8281106104d057508860e06102598a6104c28b6104b48c61022f8d6104a68e6104988f6102056040519e8f9e8f8181520190613942565b908b820360408d0152613a12565b9089820360608b0152613a4f565b9085820360a08701526139b6565b9083820360c0850152613a85565b8061058e60056104e36105a99486613f69565b508d6104f185835492614549565b526104fe60018201613e76565b610508858a614549565b526105138489614549565b5060028101546001600160a01b03811661052d868c614549565b5260ff61053a868d614549565b9160a01c161515905261054f60038201613e76565b610559858d614549565b52610564848c614549565b508b61057c8561057660048501613e76565b92614549565b52610587848d614549565b5001613f1a565b610598828c614549565b526105a3818b614549565b50613d9b565b610461565b3461033e57602036600319011261033e576001600160a01b036105cf613916565b1660005260006020526102596105eb600860406000200161449f565b604051918291602083526020830190613a12565b3461033e5760208060031936011261033e576004359081600052600280825261063260ff60056040600020015416613dc0565b6000838152818352604090208101546001600160a01b039290831633148015610791575b1561075c578360005281815260ff826040600020015460a01c1661071f5783600052818152828260406000200154166000526000815260ff60076040600020015416156106e65781908460005252604060002001805490600160a01b60ff60a01b19831617905516907fa18f1ac3d4c6b800447518126c2fc0d98210a7078080b093679e972d1f8500b9600080a3005b6064906040519062461bcd60e51b82526004820152601260248201527113dddb995c881b9bdd08191958d9585cd95960721b6044820152fd5b6064906040519062461bcd60e51b82526004820152601660248201527515985d5b1d08185b1c9958591e481c995b19585cd95960521b6044820152fd5b6064906040519062461bcd60e51b82526004820152600e60248201526d139bdd08185d5d1a1bdc9a5e995960921b6044820152fd5b5061079c338561429e565b610656565b3461033e57602036600319011261033e57600435600052600260205260406000208054600282015461089160ff600585015416916108836107e460018701613e76565b956108756107f460038301613e76565b9361086761080460048501613e76565b9161081d600661081660078801613f1a565b960161449f565b9660ff61083d6040519d8e9d8e528d610120908160208201520190613976565b6001600160a01b03841660408e015260a09390931c16151560608c01528a820360808c0152613976565b9088820360a08a0152613976565b9086820360c0880152613942565b9084820360e0860152613a12565b9015156101008301520390f35b3461033e5760208060031936011261033e576108b8613916565b60018060a01b0380821680600052600191828552604060002033600052855260ff6005906108f181836040600020015460101c16614303565b8360005284875260406000203360005287526109158183604060002001541661434f565b83600052600087526007604060002001549261093682600895861c16613cef565b84600052600088528160076040600020015416610b5457846000526004885281836040600020015416610b1157908591600094836000905b610a98575b50505050508115610a5357947fcc194f214df029fe546c9959ee15d79d8633742aab6c02a862e337f8ace3d55091610a51968460005260048352604060002091336001600160601b0360a01b845416178355428784015586600284015560006003840155600483015581018561ffff1982541617905533600052600681018252600760406000209160ff1992878482541617905501825284604060002091825416179055604051428152837fd1ffe6c6eec884ae3341f8304738b02340905dfd25b73df1802e7f95c9b9fbec833393a36040519384523393a361438e565b005b60405162461bcd60e51b815260048101879052601c60248201527f4e6f20766f74696e6720636f6e746163747320617661696c61626c65000000006044820152606490fd5b8760005260008b528a826040600020018054831015610b0a578691610abe848793613d32565b939054918c6000525260406000209260031b1c166000528b5283866040600020015416610af5575b610aef90613d9b565b8461096e565b95610b02610aef91613d9b565b969050610ae6565b5050610973565b6064886040519062461bcd60e51b825280600483015260248201527f4465617468206465636c61726174696f6e20616c7265616479206163746976656044820152fd5b60405162461bcd60e51b815260048101899052601660248201527513dddb995c88185b1c9958591e48191958d9585cd95960521b6044820152606490fd5b3461033e57602036600319011261033e576001600160a01b03610bb3613916565b16600052600460205260c0604060002060ff600582015460018301549260028101549060046003820154910154916040519585851615158752602087015260408601526060850152608084015260081c16151560a0820152f35b3461033e57602036600319011261033e576004356000526002602052610259610c3c6007604060002001613f1a565b604051918291602083526020830190613942565b3461033e57604036600319011261033e57600435610c6c61392c565b908060005260026020818152610c8c60ff60056040600020015416613dc0565b8260005281815260018060a01b0391610caf838260406000200154163314613e03565b33600052600182526040600020948381169586600052835260ff60056040600020015460101c1615610e1e57610ce5818661429e565b610dd95791610d9e6007600593610d0e610db29796896000528286526006604060002001613d60565b33600052600184526040600020896000528452610d32886006604060002001613e41565b8760005280845260ff60406000209182015460405197610d5189613b2d565b8a8952610d6060018501613e76565b878a01528116604089015260a01c1615156060870152610d8260038201613e76565b6080870152610d9360048201613e76565b60a087015201613f1a565b60c084015285600052526040600020613f85565b7f072024bc1a3beff7df2fe575c8097c660ee4a4e15f263e037ed38560728681f1600080a3005b60405162461bcd60e51b815260048101849052601a60248201527f436f6e7461637420616c726561647920617574686f72697a65640000000000006044820152606490fd5b60405162461bcd60e51b815260048101849052601660248201527510dbdb9d1858dd08191bd95cc81b9bdd08195e1a5cdd60521b6044820152606490fd5b3461033e5760208060031936011261033e576001600160a01b03610e7e613916565b169081600052600181526040600020336000528152610eaa60ff60056040600020015460101c16614303565b8160005260018152604060002033600052815260ff60056040600020015460081c16610f215781600052600181526040600020903360005252600560406000200161010061ff001982541617905533907f33c6b9962c16a3768d4f15c8f694b088fd57a39499a9b9f7e59243c371a2207a600080a3005b6064906040519062461bcd60e51b82526004820152601060248201526f105b1c9958591e481d995c9a599a595960821b6044820152fd5b3461033e57604036600319011261033e57610f71613916565b610f7961392c565b60018060a01b0380921660005260016020528160406000209116600052602052604060002090815416600582015460ff61102b610fb860018601613e76565b9461101d610fc860028301613e76565b9161100f610fe46004610fdd60038501613e76565b9301613e76565b936110016040519a8b9a8b526101008060208d01528b0190613976565b9089820360408b0152613976565b908782036060890152613976565b908582036080870152613976565b91818116151560a0850152818160081c16151560c085015260101c16151560e08301520390f35b3461033e57604036600319011261033e5761106b613916565b61107361392c565b60018060a01b038092168060005260209260048452600660406000200192169182600052835260ff60406000205416156110cf5760005260048252600760406000200190600052815260ff604060002054166040519015158152f35b60405162461bcd60e51b8152600481018490526013602482015272159bdd195c881a185cc81b9bdd081d9bdd1959606a1b6044820152606490fd5b3461033e57604036600319011261033e57602061113061112861392c565b60043561429e565b6040519015158152f35b3461033e57604036600319011261033e57611153613916565b6024359081151580830361033e5760018060a01b0382168060005260209360018552604060002033600052855261119760ff60056040600020015460101c16614303565b816000526001855260406000203360005285526111be60ff6005604060002001541661434f565b816000526004855260ff60056040600020015416156112d4578160005260048552600660406000200133600052855260ff6040600020541661129f57610a51947fcc194f214df029fe546c9959ee15d79d8633742aab6c02a862e337f8ace3d550918360005260048252604060002090336000526006820183526040600020600160ff198254161790556007820183526112688160406000209060ff801983541691151516179055565b1561128b5760020161127a8154613d9b565b90555b6040519384523393a361438e565b6003016112988154613d9b565b905561127d565b60405162461bcd60e51b815260048101869052600d60248201526c105b1c9958591e481d9bdd1959609a1b6044820152606490fd5b60405162461bcd60e51b815260048101869052601b60248201527f4e6f20616374697665206465617468206465636c61726174696f6e00000000006044820152606490fd5b3461033e57604036600319011261033e57611332613916565b61133a61392c565b9060018060a01b03809116600052600460205260066040600020019116600052602052602060ff604060002054166040519015158152f35b3461033e57602036600319011261033e5760043560005260026020526102596105eb600660406000200161449f565b3461033e57604036600319011261033e5760043560005260036020526040600020602435600052602052611424604060002060ff60058201541661144e6113ea60018401613e76565b926114406113fa60028301613e76565b9161143261140f6004610fdd60038501613e76565b9360405198899860a08a5260a08a0190613976565b9088820360208a0152613976565b908682036040880152613976565b908482036060860152613976565b90151560808301520390f35b3461033e57600036600319011261033e573360005260206000815261148c60ff60076040600020015460081c16613cef565b336000526000815260ff6007604060002001541661153a57336000526000815242600560406000200155600481526005604060002001805460ff81166114fb575b827f878229cab17522b0aa9fe67ef166ba37857b7fdb46cd8748179a9d9a7373727f604051914283523392a2005b60ff191690556040516000815242828201527fac892f9ea2bac4d143f762134b209de57efb94b00c56302aaed590951368eaac60403392a281806114cd565b6064906040519062461bcd60e51b82526004820152601960248201527f4f776e657220697320616c7265616479206465636561736564000000000000006044820152fd5b3461033e57606036600319011261033e576004356001600160401b03811161033e576115ae9036906004016138e9565b6024356001600160401b03811161033e576115cd9036906004016138e9565b6044929192356001600160401b03811161033e576115ef9036906004016138e9565b93909333600052600060205261161260ff60076040600020015460081c16613cef565b6006549485600052600260205260ff60056040600020015416611b0457611698906040519261164084613b48565b6000845261168c6040519561165487613b48565b600087526040519761166589613b11565b8a8952611673368b8e613bcd565b60208a01523360408a0152600060608a01523691613bcd565b60808701523691613bcd565b60a0840152600160c084015260e083015261010082015282600052600260205260406000208151815560208201518051906001600160401b03821161195a5781906116f3826116ea6001870154613c13565b60018701613c64565b602090601f8311600114611a9257600092611a87575b50508160011b916000199060031b1c19161760018201555b6040820151600282018054606085015160ff60a01b90151560a01b166001600160a01b039093166001600160a81b03199091161791909117905560808201518051906001600160401b03821161195a57819061178d826117846003870154613c13565b60038701613c64565b602090601f8311600114611a1557600092611a0a575b50508160011b916000199060031b1c19161760038201555b60a08201518051906001600160401b03821161195a5781906117ed826117e46004870154613c13565b60048701613c64565b602090601f83116001146119985760009261198d575b50508160011b916000199060031b1c19161760048201555b61183a60c08301511515600583019060ff801983541691151516179055565b60e08201518051906001600160401b03821161195a57600160401b821161195a576020600684019161187184845481865585613cab565b0190600052602060002060005b838110611970575050505060076101009101910151908151916001600160401b03831161195a57600160401b831161195a576020906118c284845481865585613cab565b0190600052602060002060005b8381106119465760208686817f6cda1fe49e022cf08f0f3e367bd8c6abb3c3a01a260273f23c8e432a4166a04861193b8c3360005260008752611919846009604060002001613e41565b611924600654613d9b565b600655604051918291888352339689840191613cce565b0390a3604051908152f35b6001906020845194019381840155016118cf565b634e487b7160e01b600052604160045260246000fd5b82516001600160a01b03168183015560209092019160010161187e565b015190508780611803565b9250600484016000526020600020906000935b601f19841685106119ef576001945083601f198116106119d6575b505050811b01600482015561181b565b015160001960f88460031b161c191690558780806119c6565b818101518355602094850194600190930192909101906119ab565b0151905087806117a3565b9250600384016000526020600020906000935b601f1984168510611a6c576001945083601f19811610611a53575b505050811b0160038201556117bb565b015160001960f88460031b161c19169055878080611a43565b81810151835560209485019460019093019290910190611a28565b015190508780611709565b9250600184016000526020600020906000935b601f1984168510611ae9576001945083601f19811610611ad0575b505050811b016001820155611721565b015160001960f88460031b161c19169055878080611ac0565b81810151835560209485019460019093019290910190611aa5565b60405162461bcd60e51b81526020600482015260146024820152735661756c7420616c72656164792065786973747360601b6044820152606490fd5b3461033e5760a036600319011261033e576024356001600160401b03811161033e57611b709036906004016138e9565b906044356001600160401b03811161033e57611b909036906004016138e9565b9290916064356001600160401b03811161033e57611bb29036906004016138e9565b90946084356001600160401b03811161033e57611bd39036906004016138e9565b6004356000526002602052611bf260ff60056040600020015416613dc0565b6004356000526002602052611c1860018060a01b03600260406000200154163314613e03565b60075496600435600052600360205260406000208860005260205260ff600560406000200154166120be57604051988960c08101106001600160401b0360c08c01111761195a5760c08a01604052888a528995611ca895611c9c93611c90916020611c84368e8e613bcd565b9a01998a523691613bcd565b60408c01523691613bcd565b60608901523691613bcd565b6080860152600160a08601526004356000526003602052604060002084600052602052604060002090855182555180516001600160401b03811161195a57806001840192611d0082611cfa8654613c13565b86613c64565b602090601f83116001146120585760009261204d575b50508160011b916000199060031b1c19161790555b604085015180516001600160401b03811161195a57806002840192611d5482611cfa8654613c13565b602090601f8311600114611fe757600092611fdc575b50508160011b916000199060031b1c19161790555b606085015180516001600160401b03811161195a57806003840192611da882611cfa8654613c13565b602090601f8311600114611f7657600092611f6b575b50508160011b916000199060031b1c19161790555b60808501519485516001600160401b03811161195a57602096611dfd826117e46004870154613c13565b8790601f8311600114611ecf5760a07f1d3c6a3c34addeca1898ed9e2152304ea92cf5b2dfabe5461461392a62f6d8de969484611e7395611eb99895600595600092611ec4575b50508160011b916000199060031b1c19161760048501555b0151151591019060ff801983541691151516179055565b60043560005260028652611e8e856007604060002001613e41565b611e99600754613d9b565b600755604051918291868352604088840152600435956040840191613cce565b0390a2604051908152f35b015190508d80611e44565b9060048501600052886000209160005b601f1985168110611f5457507f1d3c6a3c34addeca1898ed9e2152304ea92cf5b2dfabe5461461392a62f6d8de9694600185611eb9989560059560a095611e7399601f19811610611f3b575b505050811b016004850155611e5c565b015160001960f88460031b161c191690558d8080611f2b565b91928a600181928685015181550194019201611edf565b015190508880611dbe565b6000858152602081209350601f198516905b818110611fc45750908460019594939210611fab575b505050811b019055611dd3565b015160001960f88460031b161c19169055888080611f9e565b92936020600181928786015181550195019301611f88565b015190508880611d6a565b6000858152602081209350601f198516905b818110612035575090846001959493921061201c575b505050811b019055611d7f565b015160001960f88460031b161c1916905588808061200f565b92936020600181928786015181550195019301611ff9565b015190508880611d16565b6000858152602081209350601f198516905b8181106120a6575090846001959493921061208d575b505050811b019055611d2b565b015160001960f88460031b161c19169055888080612080565b9293602060018192878601518155019501930161206a565b60405162461bcd60e51b815260206004820152601360248201527246696c6520616c72656164792065786973747360681b6044820152606490fd5b3461033e57602036600319011261033e576001600160a01b0361211a613916565b166000526000602052610259610c3c6009604060002001613f1a565b3461033e5760a036600319011261033e5761214f613916565b6001600160401b0360243581811161033e5761216f9036906004016138e9565b9060443583811161033e576121889036906004016138e9565b9060643585811161033e576121a19036906004016138e9565b91909260843587811161033e576121bc9036906004016138e9565b96909860018060a01b03168060005260016020526040600020336000526020526121f360ff60056040600020015460101c16614303565b600052600160205260406000203360005260205260406000209588821161195a5781906122308261222760018b0154613c13565b60018b01613c64565b600090601f83116001146124a85760009261249d575b50508160011b916000199060031b1c19161760018601555b600285019187821161195a57819061227a82611cfa8654613c13565b600090601f831160011461243257600092612427575b50508160011b916000199060031b1c19161790555b600383019185821161195a576122c5826122bf8554613c13565b85613c64565b600090601f83116001146123bb57600494939291600091836123b0575b50508160011b916000199060031b1c19161790555b0191811161195a576123138161230d8454613c13565b84613c64565b6000601f821160011461234e57819293600092612343575b5050600019600383901b1c191660019190911b179055005b01359050838061232b565b601f198216938360005260206000209160005b868110612398575083600195961061237e575b505050811b019055005b0135600019600384901b60f8161c19169055838080612374565b90926020600181928686013581550194019101612361565b0135905088806122e2565b601f198316918460005260206000209260005b81811061240f5750916001939185600498979694106123f5575b505050811b0190556122f7565b0135600019600384901b60f8161c191690558880806123e8565b919360206001819287870135815501950192016123ce565b013590508980612290565b909150601f198316918460005260206000209260005b818110612485575090846001959493921061246b575b505050811b0190556122a5565b0135600019600384901b60f8161c1916905589808061245e565b91936020600181928787013581550195019201612448565b013590508a80612246565b909150601f198316916001890160005260206000209260005b81811061250157509084600195949392106124e7575b505050811b01600186015561225e565b0135600019600384901b60f8161c191690558a80806124d7565b919360206001819287870135815501950192016124c1565b3461033e57602036600319011261033e576001600160a01b0361253a613916565b1660005260006020526125536009604060002001613f1a565b80519061255f82613b9b565b9161256981614514565b9261257382613b9b565b61257c83613b9b565b61258584614514565b9161258f85614514565b9361259986614514565b956125a381613b84565b976125b1604051998a613b63565b8189526125cd601f196125c384613b84565b0160208b016144f7565b60005b8281106126c15750505061260c96959361263661265294612628612660989561261a612644966040519e8f9e8f92610100808552840190613942565b9160208184039101526139b6565b8c810360408e015290613a12565b908a820360608c0152613a4f565b9088820360808a01526139b6565b9086820360a08801526139b6565b9084820360c0860152613a85565b82810360e0840152815180825260208201916020808360051b8301019401926000915b8383106126905786860387f35b9193955091936020806126af600193601f198682030187528951613a12565b97019301930190928695949293612683565b6126d181839c959697989c614549565b5160005260028060205260406000209081546126ed8489614549565b526126fa60018301613e76565b6127048488614549565b5261270f8387614549565b508101546001600160a01b038116612727848a614549565b52612732838a614549565b9060a01c60ff1615159052818c6003830161274c90613e76565b9161275691614549565b52612761828d614549565b5061276e60048201613e76565b612778838b614549565b52612783828a614549565b5061279060078201613f1a565b61279a838c614549565b526127a5828b614549565b506006016127b29061449f565b6127bc828c614549565b526127c7818b614549565b506127d190613d9b565b9995949392996125d0565b3461033e5760e036600319011261033e576127f5613916565b6024356001600160401b03811161033e576128149036906004016138e9565b916044356001600160401b03811161033e576128349036906004016138e9565b60649384356001600160401b03811161033e576128559036906004016138e9565b95906084356001600160401b03811161033e576128769036906004016138e9565b909160a435988915158a0361033e576001600160401b0360c4351161033e5736602360c43501121561033e576001600160401b0360c435600401351161033e5736602460c4356004013560051b60c43501011161033e573360005260006020526128ed60ff60076040600020015460081c16613cef565b6001600160a01b038916331461311057336000526001602052604060002060018060a01b038a1660005260205260ff60056040600020015460101c166130d357928a92612989612995938b9661296d6040519761294989613b48565b600089526040519961295a8b613b11565b6001600160a01b03168a5236908c613bcd565b602089015261297d368c8e613bcd565b60408901523691613bcd565b60608601523691613bcd565b608083015287151560a0830152600160c0830152600160e0830152610100820152336000526001602052604060002060018060a01b03871660005260205260406000209060018060a01b038151166001600160601b0360a01b83541617825560208101518051906001600160401b03821161195a578190612a2682612a1d6001880154613c13565b60018801613c64565b602090601f831160011461306157600092613056575b50508160011b916000199060031b1c19161760018301555b60408101518051906001600160401b03821161195a578190612a8682612a7d6002880154613c13565b60028801613c64565b602090601f8311600114612fe457600092612fd9575b50508160011b916000199060031b1c19161760028301555b60608101518051906001600160401b03821161195a578190612ae682612add6003880154613c13565b60038801613c64565b602090601f8311600114612f6757600092612f5c575b50508160011b916000199060031b1c19161760038301555b60808101518051906001600160401b03821161195a57612b3b826117e46004870154613c13565b602090601f8311600114612ee85761010093929160009183612edd575b50508160011b916000199060031b1c19161760048401555b60058301612b9060a08301511515829060ff801983541691151516179055565b60c0820151815461ff00191690151560081b61ff001617815560e0820151815462ff0000191690151560101b62ff00001617905501518051916001600160401b03831161195a57600160401b831161195a5760066020910191612bf884845481865585613cab565b0190600052602060002060005b838110612ec95750505050336000526000602052612c2a856008604060002001613d60565b60005b60c435600401358110612ca257505091612c8791612c797fd39b94c4e0a6dc7134a60e93b1e6d3076988e71a9558afb69b3ecb6488db04dd95946040519860608a5260608a0191613cce565b918783036020890152613cce565b92151560408501526001600160a01b031692339281900390a3005b60248160051b60c4350101356000526002602052612cca60ff60056040600020015416613dc0565b60248160051b60c4350101356000526002602052612cf93360018060a01b036002604060002001541614613e03565b612d0e8660248360051b60c43501013561429e565b612e7357806024612e6e9260051b60c4350101356000526002602052612d3b876006604060002001613d60565b336000526001602052604060002060018060a01b038816600052602052612d7460248260051b60c4350101356006604060002001613e41565b60248160051b60c4350101356000526002602052612e2d6040600020612e0b600760028301549260ff60405194612daa86613b2d565b60248860051b60c4350101358652612dc460018401613e76565b60208701526001600160a01b038116604087015260a01c1615156060850152612def60038201613e76565b6080850152612e0060048201613e76565b60a085015201613f1a565b60c08201526001600160a01b0389166000908152600560205260409020613f85565b6001600160a01b03871660c435600583901b01602401357f072024bc1a3beff7df2fe575c8097c660ee4a4e15f263e037ed38560728681f1600080a3613d9b565b612c2d565b60405162461bcd60e51b815260206004820152602960248201527f436f6e7461637420616c726561647920617574686f72697a656420666f7220746044820152681a1a5cc81d985d5b1d60ba1b81840152608490fd5b600190602084519401938184015501612c05565b015190508c80612b58565b906004850160005260206000209160005b601f1985168110612f4457509183916001936101009695601f19811610612f2b575b505050811b016004840155612b70565b015160001960f88460031b161c191690558c8080612f1b565b91926020600181928685015181550194019201612ef9565b015190508b80612afc565b9250600385016000526020600020906000935b601f1984168510612fbe576001945083601f19811610612fa5575b505050811b016003830155612b14565b015160001960f88460031b161c191690558b8080612f95565b81810151835560209485019460019093019290910190612f7a565b015190508b80612a9c565b9250600285016000526020600020906000935b601f198416851061303b576001945083601f19811610613022575b505050811b016002830155612ab4565b015160001960f88460031b161c191690558b8080613012565b81810151835560209485019460019093019290910190612ff7565b015190508b80612a3c565b9250600185016000526020600020906000935b601f19841685106130b8576001945083601f1981161061309f575b505050811b016001830155612a54565b015160001960f88460031b161c191690558b808061308f565b81810151835560209485019460019093019290910190613074565b60405162461bcd60e51b8152602060048201526016602482015275436f6e7461637420616c72656164792065786973747360501b60448201528590fd5b60405162461bcd60e51b815260206004820152601e60248201527f43616e6e6f742061646420796f757273656c6620617320636f6e74616374000060448201528590fd5b3461033e57604036600319011261033e5761316d613916565b61317561392c565b9060018060a01b03809116600052600160205260406000209116600052602052610259610c3c6006604060002001613f1a565b3461033e5760a036600319011261033e576004356001600160401b03811161033e576131d89036906004016138e9565b906024356001600160401b03811161033e576131f89036906004016138e9565b6044939193356001600160401b03811161033e5761321a9036906004016138e9565b956064356001600160401b03811161033e5761323a9036906004016138e9565b92909133600052600060205260ff60076040600020015460081c166138a757506201518060843510613862576301e133806084351161381d576040519161328083613b48565b600083526040519361329185613b48565b60008552604051998a6101608101106001600160401b036101608d01111761195a576132fb936132ef918c60406132e58e6132d88f8f610160870186523387523691613bcd565b60208501528c3691613bcd565b9101523691613bcd565b60608b01523691613bcd565b60808801524260a088015260843560c0880152600060e08801526001610100880152610120870152610140860152336000526000602052604060002060018060a01b038651166001600160601b0360a01b82541617815560208601518051906001600160401b03821161195a57819061337b826116ea6001870154613c13565b602090601f83116001146137ab576000926137a0575b50508160011b916000199060031b1c19161760018201555b60408601518051906001600160401b03821161195a5781906133db826133d26002870154613c13565b60028701613c64565b602090601f831160011461372e57600092613723575b50508160011b916000199060031b1c19161760028201555b60608601518051906001600160401b03821161195a578190613432826117846003870154613c13565b602090601f83116001146136b1576000926136a6575b50508160011b916000199060031b1c19161760038201555b60808601518051906001600160401b03821161195a578190613489826117e46004870154613c13565b602090601f831160011461363457600092613629575b50508160011b916000199060031b1c19161760048201555b60a0860151600582015560c0860151600682015561350a600782016134ee60e08901511515829060ff801983541691151516179055565b610100880151815461ff00191690151560081b61ff0016179055565b6101208601519081516001600160401b03811161195a57600160401b9283821161195a576020600884019161354484845481865585613cab565b0190600052602060002060005b83811061360c5750505050600961014091019601518051916001600160401b03831161195a57821161195a5760209061358f838954818b558a613cab565b019560005260206000209560005b8281106135f857867f90fdcd9183750bdfb11be5d6379c04e744e8f650aac530ea853c19226ea7eb2b87876135f3886135e3604051948594604086526040860191613cce565b9083820360208501523396613cce565b0390a2005b60019060208351930192818a01550161359d565b82516001600160a01b031681830155602090920191600101613551565b01519050888061349f565b9250600484016000526020600020906000935b601f198416851061368b576001945083601f19811610613672575b505050811b0160048201556134b7565b015160001960f88460031b161c19169055888080613662565b81810151835560209485019460019093019290910190613647565b015190508880613448565b9250600384016000526020600020906000935b601f1984168510613708576001945083601f198116106136ef575b505050811b016003820155613460565b015160001960f88460031b161c191690558880806136df565b818101518355602094850194600190930192909101906136c4565b0151905088806133f1565b9250600284016000526020600020906000935b601f1984168510613785576001945083601f1981161061376c575b505050811b016002820155613409565b015160001960f88460031b161c1916905588808061375c565b81810151835560209485019460019093019290910190613741565b015190508880613391565b9250600184016000526020600020906000935b601f1984168510613802576001945083601f198116106137e9575b505050811b0160018201556133a9565b015160001960f88460031b161c191690558880806137d9565b818101518355602094850194600190930192909101906137be565b60405162461bcd60e51b815260206004820152601760248201527f477261636520696e74657276616c20746f6f206c6f6e670000000000000000006044820152606490fd5b60405162461bcd60e51b815260206004820152601860248201527f477261636520696e74657276616c20746f6f2073686f727400000000000000006044820152606490fd5b62461bcd60e51b815260206004820152601860248201527f4f776e657220616c7265616479207265676973746572656400000000000000006044820152606490fd5b9181601f8401121561033e578235916001600160401b03831161033e576020838186019501011161033e57565b600435906001600160a01b038216820361033e57565b602435906001600160a01b038216820361033e57565b90815180825260208080930193019160005b828110613962575050505090565b835185529381019392810192600101613954565b919082519283825260005b8481106139a2575050826000602080949584010152601f8019910116010190565b602081830181015184830182015201613981565b90808183519182825260208080809401958560051b01019501936000915b8483106139e45750505050505090565b9091929394958480613a02600193601f198682030187528a51613976565b98019301930191949392906139d4565b90815180825260208080930193019160005b828110613a32575050505090565b83516001600160a01b031685529381019392810192600101613a24565b90815180825260208080930193019160005b828110613a6f575050505090565b8351151585529381019392810192600101613a61565b90808183519182825260208080809401958560051b0101950193600080925b858410613ab5575050505050505090565b9091929380959697601f1983820301855288519082808351928381520192019085905b808210613af8575050509080600192990194019401929594939190613aa4565b9193806001929486518152019401920188939291613ad8565b61012081019081106001600160401b0382111761195a57604052565b60e081019081106001600160401b0382111761195a57604052565b602081019081106001600160401b0382111761195a57604052565b90601f801991011681019081106001600160401b0382111761195a57604052565b6001600160401b03811161195a5760051b60200190565b90613ba582613b84565b613bb26040519182613b63565b8281528092613bc3601f1991613b84565b0190602036910137565b9291926001600160401b03821161195a5760405191613bf6601f8201601f191660200184613b63565b82948184528183011161033e578281602093846000960137010152565b90600182811c92168015613c43575b6020831014613c2d57565b634e487b7160e01b600052602260045260246000fd5b91607f1691613c22565b818110613c58575050565b60008155600101613c4d565b9190601f8111613c7357505050565b613c9f926000526020600020906020601f840160051c83019310613ca1575b601f0160051c0190613c4d565b565b9091508190613c92565b91818110613cb857505050565b613c9f9260005260206000209182019101613c4d565b908060209392818452848401376000828201840152601f01601f1916010190565b15613cf657565b60405162461bcd60e51b815260206004820152601460248201527313dddb995c881b9bdd081c9959da5cdd195c995960621b6044820152606490fd5b8054821015613d4a5760005260206000200190600090565b634e487b7160e01b600052603260045260246000fd5b8054600160401b81101561195a57613d7d91600182018155613d32565b819291549060031b9160018060a01b03809116831b921b1916179055565b6000198114613daa5760010190565b634e487b7160e01b600052601160045260246000fd5b15613dc757565b60405162461bcd60e51b815260206004820152601460248201527315985d5b1d08191bd95cc81b9bdd08195e1a5cdd60621b6044820152606490fd5b15613e0a57565b60405162461bcd60e51b815260206004820152600f60248201526e2737ba103b30bab63a1037bbb732b960891b6044820152606490fd5b8054600160401b81101561195a57613e5e91600182018155613d32565b819291549060031b91821b91600019901b1916179055565b9060405191826000825492613e8a84613c13565b908184526001948581169081600014613ef75750600114613eb4575b5050613c9f92500383613b63565b9093915060005260209081600020936000915b818310613edf575050613c9f93508201013880613ea6565b85548884018501529485019487945091830191613ec7565b915050613c9f94506020925060ff191682840152151560051b8201013880613ea6565b9060405191828154918282526020928383019160005283600020936000905b828210613f4f57505050613c9f92500383613b63565b855484526001958601958895509381019390910190613f39565b8054821015613d4a576000526006602060002091020190600090565b90815490600160401b918281101561195a57613fa8906001948582018155613f69565b614288578151815583810192602091828401519485516001600160401b039687821161195a578190613fde82611cfa8654613c13565b8690601f83116001146142255760009261421a575b5050600019600383901b1c191690881b1790555b6040840151600282018054606087015160ff60a01b90151560a01b166001600160a01b039093166001600160a81b03199091161791909117905560038101608085015180519087821161195a57819061406482611cfa8654613c13565b8690601f83116001146141b7576000926141ac575b5050600019600383901b1c191690881b1790555b6004810160a085015180519087821161195a576140ae826122bf8554613c13565b8590601f831160011461413e5791806005949260c09694600092614133575b5050600019600383901b1c1916908a1b1790555b0193015190815194851161195a57841161195a57819061410685855481875586613cab565b0191600052806000209060005b84811061412257505050505050565b835183820155928101928501614113565b0151905038806140cd565b899291601f1983169185600052886000209260005b8a8282106141965750509160c0979593918560059896941061417d575b505050811b0190556140e1565b015160001960f88460031b161c19169055388080614170565b8385015186558e97909501949384019301614153565b015190503880614079565b908a9350601f1983169185600052886000209260005b8a82821061420457505084116141eb575b505050811b01905561408d565b015160001960f88460031b161c191690553880806141de565b8385015186558e979095019493840193016141cd565b015190503880613ff3565b908a9350601f1983169185600052886000209260005b8a8282106142725750508411614259575b505050811b019055614007565b015160001960f88460031b161c1916905538808061424c565b8385015186558e9790950194938401930161423b565b634e487b7160e01b600052600060045260246000fd5b60005260026020526040600020906006600092018054925b8381106142c65750505050600090565b6142d08183613d32565b905460039190911b1c6001600160a01b03908116908416146142fa576142f590613d9b565b6142b6565b50505050600190565b1561430a57565b60405162461bcd60e51b815260206004820152601b60248201527f4e6f74206120636f6e74616374206f662074686973206f776e657200000000006044820152606490fd5b1561435657565b60405162461bcd60e51b815260206004820152601060248201526f4e6f20766f74696e672072696768747360801b6044820152606490fd5b60018060a01b031660008181526004602052604080822091600483015460328102908082046032149015171561448b57606490046001810180911161448b576002840154811161443257507fac892f9ea2bac4d143f762134b209de57efb94b00c56302aaed590951368eaac92600783838760059552806020522001600160ff198254161790550161010061ffff19825416179055805160018152426020820152a2565b60038401541015614444575b50505050565b60057fac892f9ea2bac4d143f762134b209de57efb94b00c56302aaed590951368eaac930161010061ffff198254161790558151908152426020820152a23880808061443e565b634e487b7160e01b82526011600452602482fd5b9060405191828154918282526020928383019160005283600020936000905b8282106144d457505050613c9f92500383613b63565b85546001600160a01b0316845260019586019588955093810193909101906144be565b60005b82811061450657505050565b6060828201526020016144fa565b90613c9f61452183613b84565b61452e6040519182613b63565b83815260208194614541601f1991613b84565b0191016144f7565b8051821015613d4a5760209160051b01019056fea2646970667358221220807267c5e62a6150c63f027a06ebb0f238bbfbec33db81d17bf31c81df85723f64736f6c63430008130033","opcodes":"PUSH1 0x80 DUP1 PUSH1 0x40 MSTORE CALLVALUE PUSH2 0x20 JUMPI PUSH1 0x0 PUSH1 0x6 SSTORE PUSH1 0x0 PUSH1 0x7 SSTORE PUSH2 0x4593 SWAP1 DUP2 PUSH2 0x26 DUP3 CODECOPY RETURN JUMPDEST PUSH1 0x0 DUP1 REVERT INVALID PUSH1 0x80 DUP1 PUSH1 0x40 MSTORE PUSH1 0x4 CALLDATASIZE LT ISZERO PUSH2 0x13 JUMPI PUSH1 0x0 DUP1 REVERT JUMPDEST PUSH1 0x0 CALLDATALOAD PUSH1 0xE0 SHR SWAP1 DUP2 PUSH4 0xACCC75D EQ PUSH2 0x31A8 JUMPI POP DUP1 PUSH4 0x1D2F4368 EQ PUSH2 0x3154 JUMPI DUP1 PUSH4 0x1FE7FE7E EQ PUSH2 0x27DC JUMPI DUP1 PUSH4 0x20261995 EQ PUSH2 0x2519 JUMPI DUP1 PUSH4 0x2C8BC50B EQ PUSH2 0x2136 JUMPI DUP1 PUSH4 0x2FDA53E7 EQ PUSH2 0x20F9 JUMPI DUP1 PUSH4 0x329A5AC0 EQ PUSH2 0x1B40 JUMPI DUP1 PUSH4 0x33587DC4 EQ PUSH2 0x157E JUMPI DUP1 PUSH4 0x34F167A9 EQ PUSH2 0x145A JUMPI DUP1 PUSH4 0x3BFB14F5 EQ PUSH2 0x13A1 JUMPI DUP1 PUSH4 0x490F0EBA EQ PUSH2 0x1372 JUMPI DUP1 PUSH4 0x4D4D2B1C EQ PUSH2 0x1319 JUMPI DUP1 PUSH4 0x4E8E32B5 EQ PUSH2 0x113A JUMPI DUP1 PUSH4 0x52E20C4F EQ PUSH2 0x110A JUMPI DUP1 PUSH4 0x5AB4F162 EQ PUSH2 0x1052 JUMPI DUP1 PUSH4 0x60F490F7 EQ PUSH2 0xF58 JUMPI DUP1 PUSH4 0x6880F137 EQ PUSH2 0xE5C JUMPI DUP1 PUSH4 0x7366252C EQ PUSH2 0xC50 JUMPI DUP1 PUSH4 0x75843618 EQ PUSH2 0xC0D JUMPI DUP1 PUSH4 0x996E6CA1 EQ PUSH2 0xB92 JUMPI DUP1 PUSH4 0xABC22BBE EQ PUSH2 0x89E JUMPI DUP1 PUSH4 0xB1BA9620 EQ PUSH2 0x7A1 JUMPI DUP1 PUSH4 0xB2B2BAED EQ PUSH2 0x5FF JUMPI DUP1 PUSH4 0xB385FAA8 EQ PUSH2 0x5AE JUMPI DUP1 PUSH4 0xCEB15920 EQ PUSH2 0x3E8 JUMPI DUP1 PUSH4 0xD385DE82 EQ PUSH2 0x343 JUMPI PUSH4 0xD72D3E16 EQ PUSH2 0x148 JUMPI PUSH1 0x0 DUP1 REVERT JUMPDEST CALLVALUE PUSH2 0x33E JUMPI PUSH1 0x20 CALLDATASIZE PUSH1 0x3 NOT ADD SLT PUSH2 0x33E JUMPI PUSH1 0x1 PUSH1 0x1 PUSH1 0xA0 SHL SUB PUSH2 0x169 PUSH2 0x3916 JUMP JUMPDEST AND DUP1 PUSH1 0x0 MSTORE PUSH1 0x0 PUSH1 0x20 MSTORE PUSH2 0x183 PUSH1 0x8 PUSH1 0x40 PUSH1 0x0 KECCAK256 ADD PUSH2 0x449F JUMP JUMPDEST DUP1 MLOAD SWAP2 PUSH2 0x18F DUP4 PUSH2 0x3B9B JUMP JUMPDEST SWAP3 PUSH2 0x199 DUP2 PUSH2 0x4514 JUMP JUMPDEST PUSH2 0x1A2 DUP3 PUSH2 0x4514 JUMP JUMPDEST PUSH2 0x1AB DUP4 PUSH2 0x4514 JUMP JUMPDEST SWAP2 PUSH2 0x1B5 DUP5 PUSH2 0x4514 JUMP JUMPDEST SWAP4 PUSH2 0x1BF DUP2 PUSH2 0x3B9B JUMP JUMPDEST SWAP6 PUSH2 0x1C9 DUP3 PUSH2 0x3B9B JUMP JUMPDEST SWAP8 PUSH1 0x0 JUMPDEST DUP11 DUP5 DUP3 LT PUSH2 0x25D JUMPI PUSH1 0xE0 PUSH2 0x259 DUP13 PUSH2 0x24B DUP14 PUSH2 0x23D DUP15 PUSH2 0x22F DUP16 DUP16 DUP16 SWAP1 PUSH2 0x213 PUSH2 0x221 SWAP3 PUSH2 0x205 PUSH1 0x40 MLOAD SWAP15 DUP16 SWAP15 DUP16 DUP2 DUP2 MSTORE ADD SWAP1 PUSH2 0x3A12 JUMP JUMPDEST DUP14 DUP2 SUB PUSH1 0x20 DUP16 ADD MSTORE SWAP1 PUSH2 0x39B6 JUMP JUMPDEST SWAP1 DUP12 DUP3 SUB PUSH1 0x40 DUP14 ADD MSTORE PUSH2 0x39B6 JUMP JUMPDEST SWAP1 DUP10 DUP3 SUB PUSH1 0x60 DUP12 ADD MSTORE PUSH2 0x39B6 JUMP JUMPDEST SWAP1 DUP8 DUP3 SUB PUSH1 0x80 DUP10 ADD MSTORE PUSH2 0x39B6 JUMP JUMPDEST SWAP1 DUP6 DUP3 SUB PUSH1 0xA0 DUP8 ADD MSTORE PUSH2 0x3A4F JUMP JUMPDEST SWAP1 DUP4 DUP3 SUB PUSH1 0xC0 DUP6 ADD MSTORE PUSH2 0x3A4F JUMP JUMPDEST SUB SWAP1 RETURN JUMPDEST SWAP1 DUP10 DUP12 PUSH2 0x32B DUP4 PUSH2 0x31B DUP2 PUSH1 0x5 DUP16 SWAP9 DUP16 DUP16 DUP16 SWAP12 PUSH2 0x305 DUP16 DUP16 SWAP5 PUSH2 0x339 SWAP16 DUP10 DUP1 SWAP7 PUSH2 0x2EB DUP3 PUSH2 0x2F8 SWAP5 PUSH2 0x2DB DUP3 SWAP9 PUSH2 0x312 SWAP14 PUSH2 0x29F DUP6 PUSH1 0x1 DUP1 PUSH1 0xA0 SHL SUB SWAP3 PUSH2 0x4549 JUMP JUMPDEST MLOAD AND SWAP1 PUSH1 0x0 MSTORE PUSH1 0x1 SWAP1 DUP2 PUSH1 0x20 MSTORE PUSH1 0x40 PUSH1 0x0 KECCAK256 SWAP1 PUSH1 0x0 MSTORE PUSH1 0x20 MSTORE PUSH1 0x40 PUSH1 0x0 KECCAK256 SWAP15 DUP16 SWAP1 PUSH2 0x2D4 DUP7 PUSH1 0x1 DUP1 PUSH1 0xA0 SHL SUB DUP5 SLOAD AND SWAP3 PUSH2 0x4549 JUMP JUMPDEST MSTORE ADD PUSH2 0x3E76 JUMP JUMPDEST PUSH2 0x2E5 DUP4 DUP4 PUSH2 0x4549 JUMP JUMPDEST MSTORE PUSH2 0x4549 JUMP JUMPDEST POP PUSH2 0x2DB PUSH1 0x2 DUP12 ADD PUSH2 0x3E76 JUMP JUMPDEST POP PUSH2 0x2DB PUSH1 0x3 DUP9 ADD PUSH2 0x3E76 JUMP JUMPDEST POP PUSH2 0x2DB PUSH1 0x4 DUP6 ADD PUSH2 0x3E76 JUMP JUMPDEST POP ADD SLOAD SWAP6 PUSH2 0x4549 JUMP JUMPDEST SWAP3 PUSH1 0xFF SWAP4 DUP5 DUP7 AND ISZERO ISZERO SWAP1 MSTORE PUSH2 0x4549 JUMP JUMPDEST SWAP2 PUSH1 0x8 SHR AND ISZERO ISZERO SWAP1 MSTORE PUSH2 0x3D9B JUMP JUMPDEST PUSH2 0x1CD JUMP JUMPDEST PUSH1 0x0 DUP1 REVERT JUMPDEST CALLVALUE PUSH2 0x33E JUMPI PUSH1 0x20 CALLDATASIZE PUSH1 0x3 NOT ADD SLT PUSH2 0x33E JUMPI PUSH1 0x1 PUSH1 0x1 PUSH1 0xA0 SHL SUB PUSH2 0x364 PUSH2 0x3916 JUMP JUMPDEST AND PUSH1 0x0 MSTORE PUSH1 0x0 PUSH1 0x20 MSTORE PUSH2 0x3B6 PUSH1 0x40 PUSH1 0x0 KECCAK256 PUSH1 0x5 DUP2 ADD SLOAD PUSH1 0xFF PUSH1 0x6 DUP4 ADD SLOAD PUSH1 0x7 DUP5 ADD SLOAD SWAP1 PUSH2 0x3C4 PUSH2 0x3A2 PUSH1 0x2 PUSH2 0x39B PUSH1 0x1 DUP10 ADD PUSH2 0x3E76 JUMP JUMPDEST SWAP8 ADD PUSH2 0x3E76 JUMP JUMPDEST PUSH1 0x40 MLOAD SWAP8 DUP9 SWAP8 PUSH1 0xC0 DUP10 MSTORE PUSH1 0xC0 DUP10 ADD SWAP1 PUSH2 0x3976 JUMP JUMPDEST SWAP1 DUP8 DUP3 SUB PUSH1 0x20 DUP10 ADD MSTORE PUSH2 0x3976 JUMP JUMPDEST SWAP4 PUSH1 0x40 DUP7 ADD MSTORE PUSH1 0x60 DUP6 ADD MSTORE DUP2 DUP2 AND ISZERO ISZERO PUSH1 0x80 DUP6 ADD MSTORE PUSH1 0x8 SHR AND ISZERO ISZERO PUSH1 0xA0 DUP4 ADD MSTORE SUB SWAP1 RETURN JUMPDEST CALLVALUE PUSH2 0x33E JUMPI PUSH1 0x20 CALLDATASIZE PUSH1 0x3 NOT ADD SLT PUSH2 0x33E JUMPI PUSH1 0x1 PUSH1 0x1 PUSH1 0xA0 SHL SUB PUSH2 0x409 PUSH2 0x3916 JUMP JUMPDEST AND PUSH1 0x0 MSTORE PUSH1 0x5 PUSH1 0x20 MSTORE PUSH1 0x40 PUSH1 0x0 KECCAK256 DUP1 SLOAD SWAP1 PUSH2 0x423 DUP3 PUSH2 0x3B9B JUMP JUMPDEST SWAP2 PUSH2 0x42D DUP2 PUSH2 0x4514 JUMP JUMPDEST PUSH2 0x436 DUP3 PUSH2 0x3B9B JUMP JUMPDEST PUSH2 0x43F DUP4 PUSH2 0x3B9B JUMP JUMPDEST SWAP1 PUSH2 0x449 DUP5 PUSH2 0x4514 JUMP JUMPDEST SWAP3 PUSH2 0x453 DUP6 PUSH2 0x4514 JUMP JUMPDEST SWAP5 PUSH2 0x45D DUP2 PUSH2 0x4514 JUMP JUMPDEST SWAP7 PUSH1 0x0 JUMPDEST DUP3 DUP2 LT PUSH2 0x4D0 JUMPI POP DUP9 PUSH1 0xE0 PUSH2 0x259 DUP11 PUSH2 0x4C2 DUP12 PUSH2 0x4B4 DUP13 PUSH2 0x22F DUP14 PUSH2 0x4A6 DUP15 PUSH2 0x498 DUP16 PUSH2 0x205 PUSH1 0x40 MLOAD SWAP15 DUP16 SWAP15 DUP16 DUP2 DUP2 MSTORE ADD SWAP1 PUSH2 0x3942 JUMP JUMPDEST SWAP1 DUP12 DUP3 SUB PUSH1 0x40 DUP14 ADD MSTORE PUSH2 0x3A12 JUMP JUMPDEST SWAP1 DUP10 DUP3 SUB PUSH1 0x60 DUP12 ADD MSTORE PUSH2 0x3A4F JUMP JUMPDEST SWAP1 DUP6 DUP3 SUB PUSH1 0xA0 DUP8 ADD MSTORE PUSH2 0x39B6 JUMP JUMPDEST SWAP1 DUP4 DUP3 SUB PUSH1 0xC0 DUP6 ADD MSTORE PUSH2 0x3A85 JUMP JUMPDEST DUP1 PUSH2 0x58E PUSH1 0x5 PUSH2 0x4E3 PUSH2 0x5A9 SWAP5 DUP7 PUSH2 0x3F69 JUMP JUMPDEST POP DUP14 PUSH2 0x4F1 DUP6 DUP4 SLOAD SWAP3 PUSH2 0x4549 JUMP JUMPDEST MSTORE PUSH2 0x4FE PUSH1 0x1 DUP3 ADD PUSH2 0x3E76 JUMP JUMPDEST PUSH2 0x508 DUP6 DUP11 PUSH2 0x4549 JUMP JUMPDEST MSTORE PUSH2 0x513 DUP5 DUP10 PUSH2 0x4549 JUMP JUMPDEST POP PUSH1 0x2 DUP2 ADD SLOAD PUSH1 0x1 PUSH1 0x1 PUSH1 0xA0 SHL SUB DUP2 AND PUSH2 0x52D DUP7 DUP13 PUSH2 0x4549 JUMP JUMPDEST MSTORE PUSH1 0xFF PUSH2 0x53A DUP7 DUP14 PUSH2 0x4549 JUMP JUMPDEST SWAP2 PUSH1 0xA0 SHR AND ISZERO ISZERO SWAP1 MSTORE PUSH2 0x54F PUSH1 0x3 DUP3 ADD PUSH2 0x3E76 JUMP JUMPDEST PUSH2 0x559 DUP6 DUP14 PUSH2 0x4549 JUMP JUMPDEST MSTORE PUSH2 0x564 DUP5 DUP13 PUSH2 0x4549 JUMP JUMPDEST POP DUP12 PUSH2 0x57C DUP6 PUSH2 0x576 PUSH1 0x4 DUP6 ADD PUSH2 0x3E76 JUMP JUMPDEST SWAP3 PUSH2 0x4549 JUMP JUMPDEST MSTORE PUSH2 0x587 DUP5 DUP14 PUSH2 0x4549 JUMP JUMPDEST POP ADD PUSH2 0x3F1A JUMP JUMPDEST PUSH2 0x598 DUP3 DUP13 PUSH2 0x4549 JUMP JUMPDEST MSTORE PUSH2 0x5A3 DUP2 DUP12 PUSH2 0x4549 JUMP JUMPDEST POP PUSH2 0x3D9B JUMP JUMPDEST PUSH2 0x461 JUMP JUMPDEST CALLVALUE PUSH2 0x33E JUMPI PUSH1 0x20 CALLDATASIZE PUSH1 0x3 NOT ADD SLT PUSH2 0x33E JUMPI PUSH1 0x1 PUSH1 0x1 PUSH1 0xA0 SHL SUB PUSH2 0x5CF PUSH2 0x3916 JUMP JUMPDEST AND PUSH1 0x0 MSTORE PUSH1 0x0 PUSH1 0x20 MSTORE PUSH2 0x259 PUSH2 0x5EB PUSH1 0x8 PUSH1 0x40 PUSH1 0x0 KECCAK256 ADD PUSH2 0x449F JUMP JUMPDEST PUSH1 0x40 MLOAD SWAP2 DUP3 SWAP2 PUSH1 0x20 DUP4 MSTORE PUSH1 0x20 DUP4 ADD SWAP1 PUSH2 0x3A12 JUMP JUMPDEST CALLVALUE PUSH2 0x33E JUMPI PUSH1 0x20 DUP1 PUSH1 0x3 NOT CALLDATASIZE ADD SLT PUSH2 0x33E JUMPI PUSH1 0x4 CALLDATALOAD SWAP1 DUP2 PUSH1 0x0 MSTORE PUSH1 0x2 DUP1 DUP3 MSTORE PUSH2 0x632 PUSH1 0xFF PUSH1 0x5 PUSH1 0x40 PUSH1 0x0 KECCAK256 ADD SLOAD AND PUSH2 0x3DC0 JUMP JUMPDEST PUSH1 0x0 DUP4 DUP2 MSTORE DUP2 DUP4 MSTORE PUSH1 0x40 SWAP1 KECCAK256 DUP2 ADD SLOAD PUSH1 0x1 PUSH1 0x1 PUSH1 0xA0 SHL SUB SWAP3 SWAP1 DUP4 AND CALLER EQ DUP1 ISZERO PUSH2 0x791 JUMPI JUMPDEST ISZERO PUSH2 0x75C JUMPI DUP4 PUSH1 0x0 MSTORE DUP2 DUP2 MSTORE PUSH1 0xFF DUP3 PUSH1 0x40 PUSH1 0x0 KECCAK256 ADD SLOAD PUSH1 0xA0 SHR AND PUSH2 0x71F JUMPI DUP4 PUSH1 0x0 MSTORE DUP2 DUP2 MSTORE DUP3 DUP3 PUSH1 0x40 PUSH1 0x0 KECCAK256 ADD SLOAD AND PUSH1 0x0 MSTORE PUSH1 0x0 DUP2 MSTORE PUSH1 0xFF PUSH1 0x7 PUSH1 0x40 PUSH1 0x0 KECCAK256 ADD SLOAD AND ISZERO PUSH2 0x6E6 JUMPI DUP2 SWAP1 DUP5 PUSH1 0x0 MSTORE MSTORE PUSH1 0x40 PUSH1 0x0 KECCAK256 ADD DUP1 SLOAD SWAP1 PUSH1 0x1 PUSH1 0xA0 SHL PUSH1 0xFF PUSH1 0xA0 SHL NOT DUP4 AND OR SWAP1 SSTORE AND SWAP1 PUSH32 0xA18F1AC3D4C6B800447518126C2FC0D98210A7078080B093679E972D1F8500B9 PUSH1 0x0 DUP1 LOG3 STOP JUMPDEST PUSH1 0x64 SWAP1 PUSH1 0x40 MLOAD SWAP1 PUSH3 0x461BCD PUSH1 0xE5 SHL DUP3 MSTORE PUSH1 0x4 DUP3 ADD MSTORE PUSH1 0x12 PUSH1 0x24 DUP3 ADD MSTORE PUSH18 0x13DDDB995C881B9BDD08191958D9585CD959 PUSH1 0x72 SHL PUSH1 0x44 DUP3 ADD MSTORE REVERT JUMPDEST PUSH1 0x64 SWAP1 PUSH1 0x40 MLOAD SWAP1 PUSH3 0x461BCD PUSH1 0xE5 SHL DUP3 MSTORE PUSH1 0x4 DUP3 ADD MSTORE PUSH1 0x16 PUSH1 0x24 DUP3 ADD MSTORE PUSH22 0x15985D5B1D08185B1C9958591E481C995B19585CD959 PUSH1 0x52 SHL PUSH1 0x44 DUP3 ADD MSTORE REVERT JUMPDEST PUSH1 0x64 SWAP1 PUSH1 0x40 MLOAD SWAP1 PUSH3 0x461BCD PUSH1 0xE5 SHL DUP3 MSTORE PUSH1 0x4 DUP3 ADD MSTORE PUSH1 0xE PUSH1 0x24 DUP3 ADD MSTORE PUSH14 0x139BDD08185D5D1A1BDC9A5E9959 PUSH1 0x92 SHL PUSH1 0x44 DUP3 ADD MSTORE REVERT JUMPDEST POP PUSH2 0x79C CALLER DUP6 PUSH2 0x429E JUMP JUMPDEST PUSH2 0x656 JUMP JUMPDEST CALLVALUE PUSH2 0x33E JUMPI PUSH1 0x20 CALLDATASIZE PUSH1 0x3 NOT ADD SLT PUSH2 0x33E JUMPI PUSH1 0x4 CALLDATALOAD PUSH1 0x0 MSTORE PUSH1 0x2 PUSH1 0x20 MSTORE PUSH1 0x40 PUSH1 0x0 KECCAK256 DUP1 SLOAD PUSH1 0x2 DUP3 ADD SLOAD PUSH2 0x891 PUSH1 0xFF PUSH1 0x5 DUP6 ADD SLOAD AND SWAP2 PUSH2 0x883 PUSH2 0x7E4 PUSH1 0x1 DUP8 ADD PUSH2 0x3E76 JUMP JUMPDEST SWAP6 PUSH2 0x875 PUSH2 0x7F4 PUSH1 0x3 DUP4 ADD PUSH2 0x3E76 JUMP JUMPDEST SWAP4 PUSH2 0x867 PUSH2 0x804 PUSH1 0x4 DUP6 ADD PUSH2 0x3E76 JUMP JUMPDEST SWAP2 PUSH2 0x81D PUSH1 0x6 PUSH2 0x816 PUSH1 0x7 DUP9 ADD PUSH2 0x3F1A JUMP JUMPDEST SWAP7 ADD PUSH2 0x449F JUMP JUMPDEST SWAP7 PUSH1 0xFF PUSH2 0x83D PUSH1 0x40 MLOAD SWAP14 DUP15 SWAP14 DUP15 MSTORE DUP14 PUSH2 0x120 SWAP1 DUP2 PUSH1 0x20 DUP3 ADD MSTORE ADD SWAP1 PUSH2 0x3976 JUMP JUMPDEST PUSH1 0x1 PUSH1 0x1 PUSH1 0xA0 SHL SUB DUP5 AND PUSH1 0x40 DUP15 ADD MSTORE PUSH1 0xA0 SWAP4 SWAP1 SWAP4 SHR AND ISZERO ISZERO PUSH1 0x60 DUP13 ADD MSTORE DUP11 DUP3 SUB PUSH1 0x80 DUP13 ADD MSTORE PUSH2 0x3976 JUMP JUMPDEST SWAP1 DUP9 DUP3 SUB PUSH1 0xA0 DUP11 ADD MSTORE PUSH2 0x3976 JUMP JUMPDEST SWAP1 DUP7 DUP3 SUB PUSH1 0xC0 DUP9 ADD MSTORE PUSH2 0x3942 JUMP JUMPDEST SWAP1 DUP5 DUP3 SUB PUSH1 0xE0 DUP7 ADD MSTORE PUSH2 0x3A12 JUMP JUMPDEST SWAP1 ISZERO ISZERO PUSH2 0x100 DUP4 ADD MSTORE SUB SWAP1 RETURN JUMPDEST CALLVALUE PUSH2 0x33E JUMPI PUSH1 0x20 DUP1 PUSH1 0x3 NOT CALLDATASIZE ADD SLT PUSH2 0x33E JUMPI PUSH2 0x8B8 PUSH2 0x3916 JUMP JUMPDEST PUSH1 0x1 DUP1 PUSH1 0xA0 SHL SUB DUP1 DUP3 AND DUP1 PUSH1 0x0 MSTORE PUSH1 0x1 SWAP2 DUP3 DUP6 MSTORE PUSH1 0x40 PUSH1 0x0 KECCAK256 CALLER PUSH1 0x0 MSTORE DUP6 MSTORE PUSH1 0xFF PUSH1 0x5 SWAP1 PUSH2 0x8F1 DUP2 DUP4 PUSH1 0x40 PUSH1 0x0 KECCAK256 ADD SLOAD PUSH1 0x10 SHR AND PUSH2 0x4303 JUMP JUMPDEST DUP4 PUSH1 0x0 MSTORE DUP5 DUP8 MSTORE PUSH1 0x40 PUSH1 0x0 KECCAK256 CALLER PUSH1 0x0 MSTORE DUP8 MSTORE PUSH2 0x915 DUP2 DUP4 PUSH1 0x40 PUSH1 0x0 KECCAK256 ADD SLOAD AND PUSH2 0x434F JUMP JUMPDEST DUP4 PUSH1 0x0 MSTORE PUSH1 0x0 DUP8 MSTORE PUSH1 0x7 PUSH1 0x40 PUSH1 0x0 KECCAK256 ADD SLOAD SWAP3 PUSH2 0x936 DUP3 PUSH1 0x8 SWAP6 DUP7 SHR AND PUSH2 0x3CEF JUMP JUMPDEST DUP5 PUSH1 0x0 MSTORE PUSH1 0x0 DUP9 MSTORE DUP2 PUSH1 0x7 PUSH1 0x40 PUSH1 0x0 KECCAK256 ADD SLOAD AND PUSH2 0xB54 JUMPI DUP5 PUSH1 0x0 MSTORE PUSH1 0x4 DUP9 MSTORE DUP2 DUP4 PUSH1 0x40 PUSH1 0x0 KECCAK256 ADD SLOAD AND PUSH2 0xB11 JUMPI SWAP1 DUP6 SWAP2 PUSH1 0x0 SWAP5 DUP4 PUSH1 0x0 SWAP1 JUMPDEST PUSH2 0xA98 JUMPI JUMPDEST POP POP POP POP POP DUP2 ISZERO PUSH2 0xA53 JUMPI SWAP5 PUSH32 0xCC194F214DF029FE546C9959EE15D79D8633742AAB6C02A862E337F8ACE3D550 SWAP2 PUSH2 0xA51 SWAP7 DUP5 PUSH1 0x0 MSTORE PUSH1 0x4 DUP4 MSTORE PUSH1 0x40 PUSH1 0x0 KECCAK256 SWAP2 CALLER PUSH1 0x1 PUSH1 0x1 PUSH1 0x60 SHL SUB PUSH1 0xA0 SHL DUP5 SLOAD AND OR DUP4 SSTORE TIMESTAMP DUP8 DUP5 ADD SSTORE DUP7 PUSH1 0x2 DUP5 ADD SSTORE PUSH1 0x0 PUSH1 0x3 DUP5 ADD SSTORE PUSH1 0x4 DUP4 ADD SSTORE DUP2 ADD DUP6 PUSH2 0xFFFF NOT DUP3 SLOAD AND OR SWAP1 SSTORE CALLER PUSH1 0x0 MSTORE PUSH1 0x6 DUP2 ADD DUP3 MSTORE PUSH1 0x7 PUSH1 0x40 PUSH1 0x0 KECCAK256 SWAP2 PUSH1 0xFF NOT SWAP3 DUP8 DUP5 DUP3 SLOAD AND OR SWAP1 SSTORE ADD DUP3 MSTORE DUP5 PUSH1 0x40 PUSH1 0x0 KECCAK256 SWAP2 DUP3 SLOAD AND OR SWAP1 SSTORE PUSH1 0x40 MLOAD TIMESTAMP DUP2 MSTORE DUP4 PUSH32 0xD1FFE6C6EEC884AE3341F8304738B02340905DFD25B73DF1802E7F95C9B9FBEC DUP4 CALLER SWAP4 LOG3 PUSH1 0x40 MLOAD SWAP4 DUP5 MSTORE CALLER SWAP4 LOG3 PUSH2 0x438E JUMP JUMPDEST STOP JUMPDEST PUSH1 0x40 MLOAD PUSH3 0x461BCD PUSH1 0xE5 SHL DUP2 MSTORE PUSH1 0x4 DUP2 ADD DUP8 SWAP1 MSTORE PUSH1 0x1C PUSH1 0x24 DUP3 ADD MSTORE PUSH32 0x4E6F20766F74696E6720636F6E746163747320617661696C61626C6500000000 PUSH1 0x44 DUP3 ADD MSTORE PUSH1 0x64 SWAP1 REVERT JUMPDEST DUP8 PUSH1 0x0 MSTORE PUSH1 0x0 DUP12 MSTORE DUP11 DUP3 PUSH1 0x40 PUSH1 0x0 KECCAK256 ADD DUP1 SLOAD DUP4 LT ISZERO PUSH2 0xB0A JUMPI DUP7 SWAP2 PUSH2 0xABE DUP5 DUP8 SWAP4 PUSH2 0x3D32 JUMP JUMPDEST SWAP4 SWAP1 SLOAD SWAP2 DUP13 PUSH1 0x0 MSTORE MSTORE PUSH1 0x40 PUSH1 0x0 KECCAK256 SWAP3 PUSH1 0x3 SHL SHR AND PUSH1 0x0 MSTORE DUP12 MSTORE DUP4 DUP7 PUSH1 0x40 PUSH1 0x0 KECCAK256 ADD SLOAD AND PUSH2 0xAF5 JUMPI JUMPDEST PUSH2 0xAEF SWAP1 PUSH2 0x3D9B JUMP JUMPDEST DUP5 PUSH2 0x96E JUMP JUMPDEST SWAP6 PUSH2 0xB02 PUSH2 0xAEF SWAP2 PUSH2 0x3D9B JUMP JUMPDEST SWAP7 SWAP1 POP PUSH2 0xAE6 JUMP JUMPDEST POP POP PUSH2 0x973 JUMP JUMPDEST PUSH1 0x64 DUP9 PUSH1 0x40 MLOAD SWAP1 PUSH3 0x461BCD PUSH1 0xE5 SHL DUP3 MSTORE DUP1 PUSH1 0x4 DUP4 ADD MSTORE PUSH1 0x24 DUP3 ADD MSTORE PUSH32 0x4465617468206465636C61726174696F6E20616C726561647920616374697665 PUSH1 0x44 DUP3 ADD MSTORE REVERT JUMPDEST PUSH1 0x40 MLOAD PUSH3 0x461BCD PUSH1 0xE5 SHL DUP2 MSTORE PUSH1 0x4 DUP2 ADD DUP10 SWAP1 MSTORE PUSH1 0x16 PUSH1 0x24 DUP3 ADD MSTORE PUSH22 0x13DDDB995C88185B1C9958591E48191958D9585CD959 PUSH1 0x52 SHL PUSH1 0x44 DUP3 ADD MSTORE PUSH1 0x64 SWAP1 REVERT JUMPDEST CALLVALUE PUSH2 0x33E JUMPI PUSH1 0x20 CALLDATASIZE PUSH1 0x3 NOT ADD SLT PUSH2 0x33E JUMPI PUSH1 0x1 PUSH1 0x1 PUSH1 0xA0 SHL SUB PUSH2 0xBB3 PUSH2 0x3916 JUMP JUMPDEST AND PUSH1 0x0 MSTORE PUSH1 0x4 PUSH1 0x20 MSTORE PUSH1 0xC0 PUSH1 0x40 PUSH1 0x0 KECCAK256 PUSH1 0xFF PUSH1 0x5 DUP3 ADD SLOAD PUSH1 0x1 DUP4 ADD SLOAD SWAP3 PUSH1 0x2 DUP2 ADD SLOAD SWAP1 PUSH1 0x4 PUSH1 0x3 DUP3 ADD SLOAD SWAP2 ADD SLOAD SWAP2 PUSH1 0x40 MLOAD SWAP6 DUP6 DUP6 AND ISZERO ISZERO DUP8 MSTORE PUSH1 0x20 DUP8 ADD MSTORE PUSH1 0x40 DUP7 ADD MSTORE PUSH1 0x60 DUP6 ADD MSTORE PUSH1 0x80 DUP5 ADD MSTORE PUSH1 0x8 SHR AND ISZERO ISZERO PUSH1 0xA0 DUP3 ADD MSTORE RETURN JUMPDEST CALLVALUE PUSH2 0x33E JUMPI PUSH1 0x20 CALLDATASIZE PUSH1 0x3 NOT ADD SLT PUSH2 0x33E JUMPI PUSH1 0x4 CALLDATALOAD PUSH1 0x0 MSTORE PUSH1 0x2 PUSH1 0x20 MSTORE PUSH2 0x259 PUSH2 0xC3C PUSH1 0x7 PUSH1 0x40 PUSH1 0x0 KECCAK256 ADD PUSH2 0x3F1A JUMP JUMPDEST PUSH1 0x40 MLOAD SWAP2 DUP3 SWAP2 PUSH1 0x20 DUP4 MSTORE PUSH1 0x20 DUP4 ADD SWAP1 PUSH2 0x3942 JUMP JUMPDEST CALLVALUE PUSH2 0x33E JUMPI PUSH1 0x40 CALLDATASIZE PUSH1 0x3 NOT ADD SLT PUSH2 0x33E JUMPI PUSH1 0x4 CALLDATALOAD PUSH2 0xC6C PUSH2 0x392C JUMP JUMPDEST SWAP1 DUP1 PUSH1 0x0 MSTORE PUSH1 0x2 PUSH1 0x20 DUP2 DUP2 MSTORE PUSH2 0xC8C PUSH1 0xFF PUSH1 0x5 PUSH1 0x40 PUSH1 0x0 KECCAK256 ADD SLOAD AND PUSH2 0x3DC0 JUMP JUMPDEST DUP3 PUSH1 0x0 MSTORE DUP2 DUP2 MSTORE PUSH1 0x1 DUP1 PUSH1 0xA0 SHL SUB SWAP2 PUSH2 0xCAF DUP4 DUP3 PUSH1 0x40 PUSH1 0x0 KECCAK256 ADD SLOAD AND CALLER EQ PUSH2 0x3E03 JUMP JUMPDEST CALLER PUSH1 0x0 MSTORE PUSH1 0x1 DUP3 MSTORE PUSH1 0x40 PUSH1 0x0 KECCAK256 SWAP5 DUP4 DUP2 AND SWAP6 DUP7 PUSH1 0x0 MSTORE DUP4 MSTORE PUSH1 0xFF PUSH1 0x5 PUSH1 0x40 PUSH1 0x0 KECCAK256 ADD SLOAD PUSH1 0x10 SHR AND ISZERO PUSH2 0xE1E JUMPI PUSH2 0xCE5 DUP2 DUP7 PUSH2 0x429E JUMP JUMPDEST PUSH2 0xDD9 JUMPI SWAP2 PUSH2 0xD9E PUSH1 0x7 PUSH1 0x5 SWAP4 PUSH2 0xD0E PUSH2 0xDB2 SWAP8 SWAP7 DUP10 PUSH1 0x0 MSTORE DUP3 DUP7 MSTORE PUSH1 0x6 PUSH1 0x40 PUSH1 0x0 KECCAK256 ADD PUSH2 0x3D60 JUMP JUMPDEST CALLER PUSH1 0x0 MSTORE PUSH1 0x1 DUP5 MSTORE PUSH1 0x40 PUSH1 0x0 KECCAK256 DUP10 PUSH1 0x0 MSTORE DUP5 MSTORE PUSH2 0xD32 DUP9 PUSH1 0x6 PUSH1 0x40 PUSH1 0x0 KECCAK256 ADD PUSH2 0x3E41 JUMP JUMPDEST DUP8 PUSH1 0x0 MSTORE DUP1 DUP5 MSTORE PUSH1 0xFF PUSH1 0x40 PUSH1 0x0 KECCAK256 SWAP2 DUP3 ADD SLOAD PUSH1 0x40 MLOAD SWAP8 PUSH2 0xD51 DUP10 PUSH2 0x3B2D JUMP JUMPDEST DUP11 DUP10 MSTORE PUSH2 0xD60 PUSH1 0x1 DUP6 ADD PUSH2 0x3E76 JUMP JUMPDEST DUP8 DUP11 ADD MSTORE DUP2 AND PUSH1 0x40 DUP10 ADD MSTORE PUSH1 0xA0 SHR AND ISZERO ISZERO PUSH1 0x60 DUP8 ADD MSTORE PUSH2 0xD82 PUSH1 0x3 DUP3 ADD PUSH2 0x3E76 JUMP JUMPDEST PUSH1 0x80 DUP8 ADD MSTORE PUSH2 0xD93 PUSH1 0x4 DUP3 ADD PUSH2 0x3E76 JUMP JUMPDEST PUSH1 0xA0 DUP8 ADD MSTORE ADD PUSH2 0x3F1A JUMP JUMPDEST PUSH1 0xC0 DUP5 ADD MSTORE DUP6 PUSH1 0x0 MSTORE MSTORE PUSH1 0x40 PUSH1 0x0 KECCAK256 PUSH2 0x3F85 JUMP JUMPDEST PUSH32 0x72024BC1A3BEFF7DF2FE575C8097C660EE4A4E15F263E037ED38560728681F1 PUSH1 0x0 DUP1 LOG3 STOP JUMPDEST PUSH1 0x40 MLOAD PUSH3 0x461BCD PUSH1 0xE5 SHL DUP2 MSTORE PUSH1 0x4 DUP2 ADD DUP5 SWAP1 MSTORE PUSH1 0x1A PUSH1 0x24 DUP3 ADD MSTORE PUSH32 0x436F6E7461637420616C726561647920617574686F72697A6564000000000000 PUSH1 0x44 DUP3 ADD MSTORE PUSH1 0x64 SWAP1 REVERT JUMPDEST PUSH1 0x40 MLOAD PUSH3 0x461BCD PUSH1 0xE5 SHL DUP2 MSTORE PUSH1 0x4 DUP2 ADD DUP5 SWAP1 MSTORE PUSH1 0x16 PUSH1 0x24 DUP3 ADD MSTORE PUSH22 0x10DBDB9D1858DD08191BD95CC81B9BDD08195E1A5CDD PUSH1 0x52 SHL PUSH1 0x44 DUP3 ADD MSTORE PUSH1 0x64 SWAP1 REVERT JUMPDEST CALLVALUE PUSH2 0x33E JUMPI PUSH1 0x20 DUP1 PUSH1 0x3 NOT CALLDATASIZE ADD SLT PUSH2 0x33E JUMPI PUSH1 0x1 PUSH1 0x1 PUSH1 0xA0 SHL SUB PUSH2 0xE7E PUSH2 0x3916 JUMP JUMPDEST AND SWAP1 DUP2 PUSH1 0x0 MSTORE PUSH1 0x1 DUP2 MSTORE PUSH1 0x40 PUSH1 0x0 KECCAK256 CALLER PUSH1 0x0 MSTORE DUP2 MSTORE PUSH2 0xEAA PUSH1 0xFF PUSH1 0x5 PUSH1 0x40 PUSH1 0x0 KECCAK256 ADD SLOAD PUSH1 0x10 SHR AND PUSH2 0x4303 JUMP JUMPDEST DUP2 PUSH1 0x0 MSTORE PUSH1 0x1 DUP2 MSTORE PUSH1 0x40 PUSH1 0x0 KECCAK256 CALLER PUSH1 0x0 MSTORE DUP2 MSTORE PUSH1 0xFF PUSH1 0x5 PUSH1 0x40 PUSH1 0x0 KECCAK256 ADD SLOAD PUSH1 0x8 SHR AND PUSH2 0xF21 JUMPI DUP2 PUSH1 0x0 MSTORE PUSH1 0x1 DUP2 MSTORE PUSH1 0x40 PUSH1 0x0 KECCAK256 SWAP1 CALLER PUSH1 0x0 MSTORE MSTORE PUSH1 0x5 PUSH1 0x40 PUSH1 0x0 KECCAK256 ADD PUSH2 0x100 PUSH2 0xFF00 NOT DUP3 SLOAD AND OR SWAP1 SSTORE CALLER SWAP1 PUSH32 0x33C6B9962C16A3768D4F15C8F694B088FD57A39499A9B9F7E59243C371A2207A PUSH1 0x0 DUP1 LOG3 STOP JUMPDEST PUSH1 0x64 SWAP1 PUSH1 0x40 MLOAD SWAP1 PUSH3 0x461BCD PUSH1 0xE5 SHL DUP3 MSTORE PUSH1 0x4 DUP3 ADD MSTORE PUSH1 0x10 PUSH1 0x24 DUP3 ADD MSTORE PUSH16 0x105B1C9958591E481D995C9A599A5959 PUSH1 0x82 SHL PUSH1 0x44 DUP3 ADD MSTORE REVERT JUMPDEST CALLVALUE PUSH2 0x33E JUMPI PUSH1 0x40 CALLDATASIZE PUSH1 0x3 NOT ADD SLT PUSH2 0x33E JUMPI PUSH2 0xF71 PUSH2 0x3916 JUMP JUMPDEST PUSH2 0xF79 PUSH2 0x392C JUMP JUMPDEST PUSH1 0x1 DUP1 PUSH1 0xA0 SHL SUB DUP1 SWAP3 AND PUSH1 0x0 MSTORE PUSH1 0x1 PUSH1 0x20 MSTORE DUP2 PUSH1 0x40 PUSH1 0x0 KECCAK256 SWAP2 AND PUSH1 0x0 MSTORE PUSH1 0x20 MSTORE PUSH1 0x40 PUSH1 0x0 KECCAK256 SWAP1 DUP2 SLOAD AND PUSH1 0x5 DUP3 ADD SLOAD PUSH1 0xFF PUSH2 0x102B PUSH2 0xFB8 PUSH1 0x1 DUP7 ADD PUSH2 0x3E76 JUMP JUMPDEST SWAP5 PUSH2 0x101D PUSH2 0xFC8 PUSH1 0x2 DUP4 ADD PUSH2 0x3E76 JUMP JUMPDEST SWAP2 PUSH2 0x100F PUSH2 0xFE4 PUSH1 0x4 PUSH2 0xFDD PUSH1 0x3 DUP6 ADD PUSH2 0x3E76 JUMP JUMPDEST SWAP4 ADD PUSH2 0x3E76 JUMP JUMPDEST SWAP4 PUSH2 0x1001 PUSH1 0x40 MLOAD SWAP11 DUP12 SWAP11 DUP12 MSTORE PUSH2 0x100 DUP1 PUSH1 0x20 DUP14 ADD MSTORE DUP12 ADD SWAP1 PUSH2 0x3976 JUMP JUMPDEST SWAP1 DUP10 DUP3 SUB PUSH1 0x40 DUP12 ADD MSTORE PUSH2 0x3976 JUMP JUMPDEST SWAP1 DUP8 DUP3 SUB PUSH1 0x60 DUP10 ADD MSTORE PUSH2 0x3976 JUMP JUMPDEST SWAP1 DUP6 DUP3 SUB PUSH1 0x80 DUP8 ADD MSTORE PUSH2 0x3976 JUMP JUMPDEST SWAP2 DUP2 DUP2 AND ISZERO ISZERO PUSH1 0xA0 DUP6 ADD MSTORE DUP2 DUP2 PUSH1 0x8 SHR AND ISZERO ISZERO PUSH1 0xC0 DUP6 ADD MSTORE PUSH1 0x10 SHR AND ISZERO ISZERO PUSH1 0xE0 DUP4 ADD MSTORE SUB SWAP1 RETURN JUMPDEST CALLVALUE PUSH2 0x33E JUMPI PUSH1 0x40 CALLDATASIZE PUSH1 0x3 NOT ADD SLT PUSH2 0x33E JUMPI PUSH2 0x106B PUSH2 0x3916 JUMP JUMPDEST PUSH2 0x1073 PUSH2 0x392C JUMP JUMPDEST PUSH1 0x1 DUP1 PUSH1 0xA0 SHL SUB DUP1 SWAP3 AND DUP1 PUSH1 0x0 MSTORE PUSH1 0x20 SWAP3 PUSH1 0x4 DUP5 MSTORE PUSH1 0x6 PUSH1 0x40 PUSH1 0x0 KECCAK256 ADD SWAP3 AND SWAP2 DUP3 PUSH1 0x0 MSTORE DUP4 MSTORE PUSH1 0xFF PUSH1 0x40 PUSH1 0x0 KECCAK256 SLOAD AND ISZERO PUSH2 0x10CF JUMPI PUSH1 0x0 MSTORE PUSH1 0x4 DUP3 MSTORE PUSH1 0x7 PUSH1 0x40 PUSH1 0x0 KECCAK256 ADD SWAP1 PUSH1 0x0 MSTORE DUP2 MSTORE PUSH1 0xFF PUSH1 0x40 PUSH1 0x0 KECCAK256 SLOAD AND PUSH1 0x40 MLOAD SWAP1 ISZERO ISZERO DUP2 MSTORE RETURN JUMPDEST PUSH1 0x40 MLOAD PUSH3 0x461BCD PUSH1 0xE5 SHL DUP2 MSTORE PUSH1 0x4 DUP2 ADD DUP5 SWAP1 MSTORE PUSH1 0x13 PUSH1 0x24 DUP3 ADD MSTORE PUSH19 0x159BDD195C881A185CC81B9BDD081D9BDD1959 PUSH1 0x6A SHL PUSH1 0x44 DUP3 ADD MSTORE PUSH1 0x64 SWAP1 REVERT JUMPDEST CALLVALUE PUSH2 0x33E JUMPI PUSH1 0x40 CALLDATASIZE PUSH1 0x3 NOT ADD SLT PUSH2 0x33E JUMPI PUSH1 0x20 PUSH2 0x1130 PUSH2 0x1128 PUSH2 0x392C JUMP JUMPDEST PUSH1 0x4 CALLDATALOAD PUSH2 0x429E JUMP JUMPDEST PUSH1 0x40 MLOAD SWAP1 ISZERO ISZERO DUP2 MSTORE RETURN JUMPDEST CALLVALUE PUSH2 0x33E JUMPI PUSH1 0x40 CALLDATASIZE PUSH1 0x3 NOT ADD SLT PUSH2 0x33E JUMPI PUSH2 0x1153 PUSH2 0x3916 JUMP JUMPDEST PUSH1 0x24 CALLDATALOAD SWAP1 DUP2 ISZERO ISZERO DUP1 DUP4 SUB PUSH2 0x33E JUMPI PUSH1 0x1 DUP1 PUSH1 0xA0 SHL SUB DUP3 AND DUP1 PUSH1 0x0 MSTORE PUSH1 0x20 SWAP4 PUSH1 0x1 DUP6 MSTORE PUSH1 0x40 PUSH1 0x0 KECCAK256 CALLER PUSH1 0x0 MSTORE DUP6 MSTORE PUSH2 0x1197 PUSH1 0xFF PUSH1 0x5 PUSH1 0x40 PUSH1 0x0 KECCAK256 ADD SLOAD PUSH1 0x10 SHR AND PUSH2 0x4303 JUMP JUMPDEST DUP2 PUSH1 0x0 MSTORE PUSH1 0x1 DUP6 MSTORE PUSH1 0x40 PUSH1 0x0 KECCAK256 CALLER PUSH1 0x0 MSTORE DUP6 MSTORE PUSH2 0x11BE PUSH1 0xFF PUSH1 0x5 PUSH1 0x40 PUSH1 0x0 KECCAK256 ADD SLOAD AND PUSH2 0x434F JUMP JUMPDEST DUP2 PUSH1 0x0 MSTORE PUSH1 0x4 DUP6 MSTORE PUSH1 0xFF PUSH1 0x5 PUSH1 0x40 PUSH1 0x0 KECCAK256 ADD SLOAD AND ISZERO PUSH2 0x12D4 JUMPI DUP2 PUSH1 0x0 MSTORE PUSH1 0x4 DUP6 MSTORE PUSH1 0x6 PUSH1 0x40 PUSH1 0x0 KECCAK256 ADD CALLER PUSH1 0x0 MSTORE DUP6 MSTORE PUSH1 0xFF PUSH1 0x40 PUSH1 0x0 KECCAK256 SLOAD AND PUSH2 0x129F JUMPI PUSH2 0xA51 SWAP5 PUSH32 0xCC194F214DF029FE546C9959EE15D79D8633742AAB6C02A862E337F8ACE3D550 SWAP2 DUP4 PUSH1 0x0 MSTORE PUSH1 0x4 DUP3 MSTORE PUSH1 0x40 PUSH1 0x0 KECCAK256 SWAP1 CALLER PUSH1 0x0 MSTORE PUSH1 0x6 DUP3 ADD DUP4 MSTORE PUSH1 0x40 PUSH1 0x0 KECCAK256 PUSH1 0x1 PUSH1 0xFF NOT DUP3 SLOAD AND OR SWAP1 SSTORE PUSH1 0x7 DUP3 ADD DUP4 MSTORE PUSH2 0x1268 DUP2 PUSH1 0x40 PUSH1 0x0 KECCAK256 SWAP1 PUSH1 0xFF DUP1 NOT DUP4 SLOAD AND SWAP2 ISZERO ISZERO AND OR SWAP1 SSTORE JUMP JUMPDEST ISZERO PUSH2 0x128B JUMPI PUSH1 0x2 ADD PUSH2 0x127A DUP2 SLOAD PUSH2 0x3D9B JUMP JUMPDEST SWAP1 SSTORE JUMPDEST PUSH1 0x40 MLOAD SWAP4 DUP5 MSTORE CALLER SWAP4 LOG3 PUSH2 0x438E JUMP JUMPDEST PUSH1 0x3 ADD PUSH2 0x1298 DUP2 SLOAD PUSH2 0x3D9B JUMP JUMPDEST SWAP1 SSTORE PUSH2 0x127D JUMP JUMPDEST PUSH1 0x40 MLOAD PUSH3 0x461BCD PUSH1 0xE5 SHL DUP2 MSTORE PUSH1 0x4 DUP2 ADD DUP7 SWAP1 MSTORE PUSH1 0xD PUSH1 0x24 DUP3 ADD MSTORE PUSH13 0x105B1C9958591E481D9BDD1959 PUSH1 0x9A SHL PUSH1 0x44 DUP3 ADD MSTORE PUSH1 0x64 SWAP1 REVERT JUMPDEST PUSH1 0x40 MLOAD PUSH3 0x461BCD PUSH1 0xE5 SHL DUP2 MSTORE PUSH1 0x4 DUP2 ADD DUP7 SWAP1 MSTORE PUSH1 0x1B PUSH1 0x24 DUP3 ADD MSTORE PUSH32 0x4E6F20616374697665206465617468206465636C61726174696F6E0000000000 PUSH1 0x44 DUP3 ADD MSTORE PUSH1 0x64 SWAP1 REVERT JUMPDEST CALLVALUE PUSH2 0x33E JUMPI PUSH1 0x40 CALLDATASIZE PUSH1 0x3 NOT ADD SLT PUSH2 0x33E JUMPI PUSH2 0x1332 PUSH2 0x3916 JUMP JUMPDEST PUSH2 0x133A PUSH2 0x392C JUMP JUMPDEST SWAP1 PUSH1 0x1 DUP1 PUSH1 0xA0 SHL SUB DUP1 SWAP2 AND PUSH1 0x0 MSTORE PUSH1 0x4 PUSH1 0x20 MSTORE PUSH1 0x6 PUSH1 0x40 PUSH1 0x0 KECCAK256 ADD SWAP2 AND PUSH1 0x0 MSTORE PUSH1 0x20 MSTORE PUSH1 0x20 PUSH1 0xFF PUSH1 0x40 PUSH1 0x0 KECCAK256 SLOAD AND PUSH1 0x40 MLOAD SWAP1 ISZERO ISZERO DUP2 MSTORE RETURN JUMPDEST CALLVALUE PUSH2 0x33E JUMPI PUSH1 0x20 CALLDATASIZE PUSH1 0x3 NOT ADD SLT PUSH2 0x33E JUMPI PUSH1 0x4 CALLDATALOAD PUSH1 0x0 MSTORE PUSH1 0x2 PUSH1 0x20 MSTORE PUSH2 0x259 PUSH2 0x5EB PUSH1 0x6 PUSH1 0x40 PUSH1 0x0 KECCAK256 ADD PUSH2 0x449F JUMP JUMPDEST CALLVALUE PUSH2 0x33E JUMPI PUSH1 0x40 CALLDATASIZE PUSH1 0x3 NOT ADD SLT PUSH2 0x33E JUMPI PUSH1 0x4 CALLDATALOAD PUSH1 0x0 MSTORE PUSH1 0x3 PUSH1 0x20 MSTORE PUSH1 0x40 PUSH1 0x0 KECCAK256 PUSH1 0x24 CALLDATALOAD PUSH1 0x0 MSTORE PUSH1 0x20 MSTORE PUSH2 0x1424 PUSH1 0x40 PUSH1 0x0 KECCAK256 PUSH1 0xFF PUSH1 0x5 DUP3 ADD SLOAD AND PUSH2 0x144E PUSH2 0x13EA PUSH1 0x1 DUP5 ADD PUSH2 0x3E76 JUMP JUMPDEST SWAP3 PUSH2 0x1440 PUSH2 0x13FA PUSH1 0x2 DUP4 ADD PUSH2 0x3E76 JUMP JUMPDEST SWAP2 PUSH2 0x1432 PUSH2 0x140F PUSH1 0x4 PUSH2 0xFDD PUSH1 0x3 DUP6 ADD PUSH2 0x3E76 JUMP JUMPDEST SWAP4 PUSH1 0x40 MLOAD SWAP9 DUP10 SWAP9 PUSH1 0xA0 DUP11 MSTORE PUSH1 0xA0 DUP11 ADD SWAP1 PUSH2 0x3976 JUMP JUMPDEST SWAP1 DUP9 DUP3 SUB PUSH1 0x20 DUP11 ADD MSTORE PUSH2 0x3976 JUMP JUMPDEST SWAP1 DUP7 DUP3 SUB PUSH1 0x40 DUP9 ADD MSTORE PUSH2 0x3976 JUMP JUMPDEST SWAP1 DUP5 DUP3 SUB PUSH1 0x60 DUP7 ADD MSTORE PUSH2 0x3976 JUMP JUMPDEST SWAP1 ISZERO ISZERO PUSH1 0x80 DUP4 ADD MSTORE SUB SWAP1 RETURN JUMPDEST CALLVALUE PUSH2 0x33E JUMPI PUSH1 0x0 CALLDATASIZE PUSH1 0x3 NOT ADD SLT PUSH2 0x33E JUMPI CALLER PUSH1 0x0 MSTORE PUSH1 0x20 PUSH1 0x0 DUP2 MSTORE PUSH2 0x148C PUSH1 0xFF PUSH1 0x7 PUSH1 0x40 PUSH1 0x0 KECCAK256 ADD SLOAD PUSH1 0x8 SHR AND PUSH2 0x3CEF JUMP JUMPDEST CALLER PUSH1 0x0 MSTORE PUSH1 0x0 DUP2 MSTORE PUSH1 0xFF PUSH1 0x7 PUSH1 0x40 PUSH1 0x0 KECCAK256 ADD SLOAD AND PUSH2 0x153A JUMPI CALLER PUSH1 0x0 MSTORE PUSH1 0x0 DUP2 MSTORE TIMESTAMP PUSH1 0x5 PUSH1 0x40 PUSH1 0x0 KECCAK256 ADD SSTORE PUSH1 0x4 DUP2 MSTORE PUSH1 0x5 PUSH1 0x40 PUSH1 0x0 KECCAK256 ADD DUP1 SLOAD PUSH1 0xFF DUP2 AND PUSH2 0x14FB JUMPI JUMPDEST DUP3 PUSH32 0x878229CAB17522B0AA9FE67EF166BA37857B7FDB46CD8748179A9D9A7373727F PUSH1 0x40 MLOAD SWAP2 TIMESTAMP DUP4 MSTORE CALLER SWAP3 LOG2 STOP JUMPDEST PUSH1 0xFF NOT AND SWAP1 SSTORE PUSH1 0x40 MLOAD PUSH1 0x0 DUP2 MSTORE TIMESTAMP DUP3 DUP3 ADD MSTORE PUSH32 0xAC892F9EA2BAC4D143F762134B209DE57EFB94B00C56302AAED590951368EAAC PUSH1 0x40 CALLER SWAP3 LOG2 DUP2 DUP1 PUSH2 0x14CD JUMP JUMPDEST PUSH1 0x64 SWAP1 PUSH1 0x40 MLOAD SWAP1 PUSH3 0x461BCD PUSH1 0xE5 SHL DUP3 MSTORE PUSH1 0x4 DUP3 ADD MSTORE PUSH1 0x19 PUSH1 0x24 DUP3 ADD MSTORE PUSH32 0x4F776E657220697320616C726561647920646563656173656400000000000000 PUSH1 0x44 DUP3 ADD MSTORE REVERT JUMPDEST CALLVALUE PUSH2 0x33E JUMPI PUSH1 0x60 CALLDATASIZE PUSH1 0x3 NOT ADD SLT PUSH2 0x33E JUMPI PUSH1 0x4 CALLDATALOAD PUSH1 0x1 PUSH1 0x1 PUSH1 0x40 SHL SUB DUP2 GT PUSH2 0x33E JUMPI PUSH2 0x15AE SWAP1 CALLDATASIZE SWAP1 PUSH1 0x4 ADD PUSH2 0x38E9 JUMP JUMPDEST PUSH1 0x24 CALLDATALOAD PUSH1 0x1 PUSH1 0x1 PUSH1 0x40 SHL SUB DUP2 GT PUSH2 0x33E JUMPI PUSH2 0x15CD SWAP1 CALLDATASIZE SWAP1 PUSH1 0x4 ADD PUSH2 0x38E9 JUMP JUMPDEST PUSH1 0x44 SWAP3 SWAP2 SWAP3 CALLDATALOAD PUSH1 0x1 PUSH1 0x1 PUSH1 0x40 SHL SUB DUP2 GT PUSH2 0x33E JUMPI PUSH2 0x15EF SWAP1 CALLDATASIZE SWAP1 PUSH1 0x4 ADD PUSH2 0x38E9 JUMP JUMPDEST SWAP4 SWAP1 SWAP4 CALLER PUSH1 0x0 MSTORE PUSH1 0x0 PUSH1 0x20 MSTORE PUSH2 0x1612 PUSH1 0xFF PUSH1 0x7 PUSH1 0x40 PUSH1 0x0 KECCAK256 ADD SLOAD PUSH1 0x8 SHR AND PUSH2 0x3CEF JUMP JUMPDEST PUSH1 0x6 SLOAD SWAP5 DUP6 PUSH1 0x0 MSTORE PUSH1 0x2 PUSH1 0x20 MSTORE PUSH1 0xFF PUSH1 0x5 PUSH1 0x40 PUSH1 0x0 KECCAK256 ADD SLOAD AND PUSH2 0x1B04 JUMPI PUSH2 0x1698 SWAP1 PUSH1 0x40 MLOAD SWAP3 PUSH2 0x1640 DUP5 PUSH2 0x3B48 JUMP JUMPDEST PUSH1 0x0 DUP5 MSTORE PUSH2 0x168C PUSH1 0x40 MLOAD SWAP6 PUSH2 0x1654 DUP8 PUSH2 0x3B48 JUMP JUMPDEST PUSH1 0x0 DUP8 MSTORE PUSH1 0x40 MLOAD SWAP8 PUSH2 0x1665 DUP10 PUSH2 0x3B11 JUMP JUMPDEST DUP11 DUP10 MSTORE PUSH2 0x1673 CALLDATASIZE DUP12 DUP15 PUSH2 0x3BCD JUMP JUMPDEST PUSH1 0x20 DUP11 ADD MSTORE CALLER PUSH1 0x40 DUP11 ADD MSTORE PUSH1 0x0 PUSH1 0x60 DUP11 ADD MSTORE CALLDATASIZE SWAP2 PUSH2 0x3BCD JUMP JUMPDEST PUSH1 0x80 DUP8 ADD MSTORE CALLDATASIZE SWAP2 PUSH2 0x3BCD JUMP JUMPDEST PUSH1 0xA0 DUP5 ADD MSTORE PUSH1 0x1 PUSH1 0xC0 DUP5 ADD MSTORE PUSH1 0xE0 DUP4 ADD MSTORE PUSH2 0x100 DUP3 ADD MSTORE DUP3 PUSH1 0x0 MSTORE PUSH1 0x2 PUSH1 0x20 MSTORE PUSH1 0x40 PUSH1 0x0 KECCAK256 DUP2 MLOAD DUP2 SSTORE PUSH1 0x20 DUP3 ADD MLOAD DUP1 MLOAD SWAP1 PUSH1 0x1 PUSH1 0x1 PUSH1 0x40 SHL SUB DUP3 GT PUSH2 0x195A JUMPI DUP2 SWAP1 PUSH2 0x16F3 DUP3 PUSH2 0x16EA PUSH1 0x1 DUP8 ADD SLOAD PUSH2 0x3C13 JUMP JUMPDEST PUSH1 0x1 DUP8 ADD PUSH2 0x3C64 JUMP JUMPDEST PUSH1 0x20 SWAP1 PUSH1 0x1F DUP4 GT PUSH1 0x1 EQ PUSH2 0x1A92 JUMPI PUSH1 0x0 SWAP3 PUSH2 0x1A87 JUMPI JUMPDEST POP POP DUP2 PUSH1 0x1 SHL SWAP2 PUSH1 0x0 NOT SWAP1 PUSH1 0x3 SHL SHR NOT AND OR PUSH1 0x1 DUP3 ADD SSTORE JUMPDEST PUSH1 0x40 DUP3 ADD MLOAD PUSH1 0x2 DUP3 ADD DUP1 SLOAD PUSH1 0x60 DUP6 ADD MLOAD PUSH1 0xFF PUSH1 0xA0 SHL SWAP1 ISZERO ISZERO PUSH1 0xA0 SHL AND PUSH1 0x1 PUSH1 0x1 PUSH1 0xA0 SHL SUB SWAP1 SWAP4 AND PUSH1 0x1 PUSH1 0x1 PUSH1 0xA8 SHL SUB NOT SWAP1 SWAP2 AND OR SWAP2 SWAP1 SWAP2 OR SWAP1 SSTORE PUSH1 0x80 DUP3 ADD MLOAD DUP1 MLOAD SWAP1 PUSH1 0x1 PUSH1 0x1 PUSH1 0x40 SHL SUB DUP3 GT PUSH2 0x195A JUMPI DUP2 SWAP1 PUSH2 0x178D DUP3 PUSH2 0x1784 PUSH1 0x3 DUP8 ADD SLOAD PUSH2 0x3C13 JUMP JUMPDEST PUSH1 0x3 DUP8 ADD PUSH2 0x3C64 JUMP JUMPDEST PUSH1 0x20 SWAP1 PUSH1 0x1F DUP4 GT PUSH1 0x1 EQ PUSH2 0x1A15 JUMPI PUSH1 0x0 SWAP3 PUSH2 0x1A0A JUMPI JUMPDEST POP POP DUP2 PUSH1 0x1 SHL SWAP2 PUSH1 0x0 NOT SWAP1 PUSH1 0x3 SHL SHR NOT AND OR PUSH1 0x3 DUP3 ADD SSTORE JUMPDEST PUSH1 0xA0 DUP3 ADD MLOAD DUP1 MLOAD SWAP1 PUSH1 0x1 PUSH1 0x1 PUSH1 0x40 SHL SUB DUP3 GT PUSH2 0x195A JUMPI DUP2 SWAP1 PUSH2 0x17ED DUP3 PUSH2 0x17E4 PUSH1 0x4 DUP8 ADD SLOAD PUSH2 0x3C13 JUMP JUMPDEST PUSH1 0x4 DUP8 ADD PUSH2 0x3C64 JUMP JUMPDEST PUSH1 0x20 SWAP1 PUSH1 0x1F DUP4 GT PUSH1 0x1 EQ PUSH2 0x1998 JUMPI PUSH1 0x0 SWAP3 PUSH2 0x198D JUMPI JUMPDEST POP POP DUP2 PUSH1 0x1 SHL SWAP2 PUSH1 0x0 NOT SWAP1 PUSH1 0x3 SHL SHR NOT AND OR PUSH1 0x4 DUP3 ADD SSTORE JUMPDEST PUSH2 0x183A PUSH1 0xC0 DUP4 ADD MLOAD ISZERO ISZERO PUSH1 0x5 DUP4 ADD SWAP1 PUSH1 0xFF DUP1 NOT DUP4 SLOAD AND SWAP2 ISZERO ISZERO AND OR SWAP1 SSTORE JUMP JUMPDEST PUSH1 0xE0 DUP3 ADD MLOAD DUP1 MLOAD SWAP1 PUSH1 0x1 PUSH1 0x1 PUSH1 0x40 SHL SUB DUP3 GT PUSH2 0x195A JUMPI PUSH1 0x1 PUSH1 0x40 SHL DUP3 GT PUSH2 0x195A JUMPI PUSH1 0x20 PUSH1 0x6 DUP5 ADD SWAP2 PUSH2 0x1871 DUP5 DUP5 SLOAD DUP2 DUP7 SSTORE DUP6 PUSH2 0x3CAB JUMP JUMPDEST ADD SWAP1 PUSH1 0x0 MSTORE PUSH1 0x20 PUSH1 0x0 KECCAK256 PUSH1 0x0 JUMPDEST DUP4 DUP2 LT PUSH2 0x1970 JUMPI POP POP POP POP PUSH1 0x7 PUSH2 0x100 SWAP2 ADD SWAP2 ADD MLOAD SWAP1 DUP2 MLOAD SWAP2 PUSH1 0x1 PUSH1 0x1 PUSH1 0x40 SHL SUB DUP4 GT PUSH2 0x195A JUMPI PUSH1 0x1 PUSH1 0x40 SHL DUP4 GT PUSH2 0x195A JUMPI PUSH1 0x20 SWAP1 PUSH2 0x18C2 DUP5 DUP5 SLOAD DUP2 DUP7 SSTORE DUP6 PUSH2 0x3CAB JUMP JUMPDEST ADD SWAP1 PUSH1 0x0 MSTORE PUSH1 0x20 PUSH1 0x0 KECCAK256 PUSH1 0x0 JUMPDEST DUP4 DUP2 LT PUSH2 0x1946 JUMPI PUSH1 0x20 DUP7 DUP7 DUP2 PUSH32 0x6CDA1FE49E022CF08F0F3E367BD8C6ABB3C3A01A260273F23C8E432A4166A048 PUSH2 0x193B DUP13 CALLER PUSH1 0x0 MSTORE PUSH1 0x0 DUP8 MSTORE PUSH2 0x1919 DUP5 PUSH1 0x9 PUSH1 0x40 PUSH1 0x0 KECCAK256 ADD PUSH2 0x3E41 JUMP JUMPDEST PUSH2 0x1924 PUSH1 0x6 SLOAD PUSH2 0x3D9B JUMP JUMPDEST PUSH1 0x6 SSTORE PUSH1 0x40 MLOAD SWAP2 DUP3 SWAP2 DUP9 DUP4 MSTORE CALLER SWAP7 DUP10 DUP5 ADD SWAP2 PUSH2 0x3CCE JUMP JUMPDEST SUB SWAP1 LOG3 PUSH1 0x40 MLOAD SWAP1 DUP2 MSTORE RETURN JUMPDEST PUSH1 0x1 SWAP1 PUSH1 0x20 DUP5 MLOAD SWAP5 ADD SWAP4 DUP2 DUP5 ADD SSTORE ADD PUSH2 0x18CF JUMP JUMPDEST PUSH4 0x4E487B71 PUSH1 0xE0 SHL PUSH1 0x0 MSTORE PUSH1 0x41 PUSH1 0x4 MSTORE PUSH1 0x24 PUSH1 0x0 REVERT JUMPDEST DUP3 MLOAD PUSH1 0x1 PUSH1 0x1 PUSH1 0xA0 SHL SUB AND DUP2 DUP4 ADD SSTORE PUSH1 0x20 SWAP1 SWAP3 ADD SWAP2 PUSH1 0x1 ADD PUSH2 0x187E JUMP JUMPDEST ADD MLOAD SWAP1 POP DUP8 DUP1 PUSH2 0x1803 JUMP JUMPDEST SWAP3 POP PUSH1 0x4 DUP5 ADD PUSH1 0x0 MSTORE PUSH1 0x20 PUSH1 0x0 KECCAK256 SWAP1 PUSH1 0x0 SWAP4 JUMPDEST PUSH1 0x1F NOT DUP5 AND DUP6 LT PUSH2 0x19EF JUMPI PUSH1 0x1 SWAP5 POP DUP4 PUSH1 0x1F NOT DUP2 AND LT PUSH2 0x19D6 JUMPI JUMPDEST POP POP POP DUP2 SHL ADD PUSH1 0x4 DUP3 ADD SSTORE PUSH2 0x181B JUMP JUMPDEST ADD MLOAD PUSH1 0x0 NOT PUSH1 0xF8 DUP5 PUSH1 0x3 SHL AND SHR NOT AND SWAP1 SSTORE DUP8 DUP1 DUP1 PUSH2 0x19C6 JUMP JUMPDEST DUP2 DUP2 ADD MLOAD DUP4 SSTORE PUSH1 0x20 SWAP5 DUP6 ADD SWAP5 PUSH1 0x1 SWAP1 SWAP4 ADD SWAP3 SWAP1 SWAP2 ADD SWAP1 PUSH2 0x19AB JUMP JUMPDEST ADD MLOAD SWAP1 POP DUP8 DUP1 PUSH2 0x17A3 JUMP JUMPDEST SWAP3 POP PUSH1 0x3 DUP5 ADD PUSH1 0x0 MSTORE PUSH1 0x20 PUSH1 0x0 KECCAK256 SWAP1 PUSH1 0x0 SWAP4 JUMPDEST PUSH1 0x1F NOT DUP5 AND DUP6 LT PUSH2 0x1A6C JUMPI PUSH1 0x1 SWAP5 POP DUP4 PUSH1 0x1F NOT DUP2 AND LT PUSH2 0x1A53 JUMPI JUMPDEST POP POP POP DUP2 SHL ADD PUSH1 0x3 DUP3 ADD SSTORE PUSH2 0x17BB JUMP JUMPDEST ADD MLOAD PUSH1 0x0 NOT PUSH1 0xF8 DUP5 PUSH1 0x3 SHL AND SHR NOT AND SWAP1 SSTORE DUP8 DUP1 DUP1 PUSH2 0x1A43 JUMP JUMPDEST DUP2 DUP2 ADD MLOAD DUP4 SSTORE PUSH1 0x20 SWAP5 DUP6 ADD SWAP5 PUSH1 0x1 SWAP1 SWAP4 ADD SWAP3 SWAP1 SWAP2 ADD SWAP1 PUSH2 0x1A28 JUMP JUMPDEST ADD MLOAD SWAP1 POP DUP8 DUP1 PUSH2 0x1709 JUMP JUMPDEST SWAP3 POP PUSH1 0x1 DUP5 ADD PUSH1 0x0 MSTORE PUSH1 0x20 PUSH1 0x0 KECCAK256 SWAP1 PUSH1 0x0 SWAP4 JUMPDEST PUSH1 0x1F NOT DUP5 AND DUP6 LT PUSH2 0x1AE9 JUMPI PUSH1 0x1 SWAP5 POP DUP4 PUSH1 0x1F NOT DUP2 AND LT PUSH2 0x1AD0 JUMPI JUMPDEST POP POP POP DUP2 SHL ADD PUSH1 0x1 DUP3 ADD SSTORE PUSH2 0x1721 JUMP JUMPDEST ADD MLOAD PUSH1 0x0 NOT PUSH1 0xF8 DUP5 PUSH1 0x3 SHL AND SHR NOT AND SWAP1 SSTORE DUP8 DUP1 DUP1 PUSH2 0x1AC0 JUMP JUMPDEST DUP2 DUP2 ADD MLOAD DUP4 SSTORE PUSH1 0x20 SWAP5 DUP6 ADD SWAP5 PUSH1 0x1 SWAP1 SWAP4 ADD SWAP3 SWAP1 SWAP2 ADD SWAP1 PUSH2 0x1AA5 JUMP JUMPDEST PUSH1 0x40 MLOAD PUSH3 0x461BCD PUSH1 0xE5 SHL DUP2 MSTORE PUSH1 0x20 PUSH1 0x4 DUP3 ADD MSTORE PUSH1 0x14 PUSH1 0x24 DUP3 ADD MSTORE PUSH20 0x5661756C7420616C726561647920657869737473 PUSH1 0x60 SHL PUSH1 0x44 DUP3 ADD MSTORE PUSH1 0x64 SWAP1 REVERT JUMPDEST CALLVALUE PUSH2 0x33E JUMPI PUSH1 0xA0 CALLDATASIZE PUSH1 0x3 NOT ADD SLT PUSH2 0x33E JUMPI PUSH1 0x24 CALLDATALOAD PUSH1 0x1 PUSH1 0x1 PUSH1 0x40 SHL SUB DUP2 GT PUSH2 0x33E JUMPI PUSH2 0x1B70 SWAP1 CALLDATASIZE SWAP1 PUSH1 0x4 ADD PUSH2 0x38E9 JUMP JUMPDEST SWAP1 PUSH1 0x44 CALLDATALOAD PUSH1 0x1 PUSH1 0x1 PUSH1 0x40 SHL SUB DUP2 GT PUSH2 0x33E JUMPI PUSH2 0x1B90 SWAP1 CALLDATASIZE SWAP1 PUSH1 0x4 ADD PUSH2 0x38E9 JUMP JUMPDEST SWAP3 SWAP1 SWAP2 PUSH1 0x64 CALLDATALOAD PUSH1 0x1 PUSH1 0x1 PUSH1 0x40 SHL SUB DUP2 GT PUSH2 0x33E JUMPI PUSH2 0x1BB2 SWAP1 CALLDATASIZE SWAP1 PUSH1 0x4 ADD PUSH2 0x38E9 JUMP JUMPDEST SWAP1 SWAP5 PUSH1 0x84 CALLDATALOAD PUSH1 0x1 PUSH1 0x1 PUSH1 0x40 SHL SUB DUP2 GT PUSH2 0x33E JUMPI PUSH2 0x1BD3 SWAP1 CALLDATASIZE SWAP1 PUSH1 0x4 ADD PUSH2 0x38E9 JUMP JUMPDEST PUSH1 0x4 CALLDATALOAD PUSH1 0x0 MSTORE PUSH1 0x2 PUSH1 0x20 MSTORE PUSH2 0x1BF2 PUSH1 0xFF PUSH1 0x5 PUSH1 0x40 PUSH1 0x0 KECCAK256 ADD SLOAD AND PUSH2 0x3DC0 JUMP JUMPDEST PUSH1 0x4 CALLDATALOAD PUSH1 0x0 MSTORE PUSH1 0x2 PUSH1 0x20 MSTORE PUSH2 0x1C18 PUSH1 0x1 DUP1 PUSH1 0xA0 SHL SUB PUSH1 0x2 PUSH1 0x40 PUSH1 0x0 KECCAK256 ADD SLOAD AND CALLER EQ PUSH2 0x3E03 JUMP JUMPDEST PUSH1 0x7 SLOAD SWAP7 PUSH1 0x4 CALLDATALOAD PUSH1 0x0 MSTORE PUSH1 0x3 PUSH1 0x20 MSTORE PUSH1 0x40 PUSH1 0x0 KECCAK256 DUP9 PUSH1 0x0 MSTORE PUSH1 0x20 MSTORE PUSH1 0xFF PUSH1 0x5 PUSH1 0x40 PUSH1 0x0 KECCAK256 ADD SLOAD AND PUSH2 0x20BE JUMPI PUSH1 0x40 MLOAD SWAP9 DUP10 PUSH1 0xC0 DUP2 ADD LT PUSH1 0x1 PUSH1 0x1 PUSH1 0x40 SHL SUB PUSH1 0xC0 DUP13 ADD GT OR PUSH2 0x195A JUMPI PUSH1 0xC0 DUP11 ADD PUSH1 0x40 MSTORE DUP9 DUP11 MSTORE DUP10 SWAP6 PUSH2 0x1CA8 SWAP6 PUSH2 0x1C9C SWAP4 PUSH2 0x1C90 SWAP2 PUSH1 0x20 PUSH2 0x1C84 CALLDATASIZE DUP15 DUP15 PUSH2 0x3BCD JUMP JUMPDEST SWAP11 ADD SWAP10 DUP11 MSTORE CALLDATASIZE SWAP2 PUSH2 0x3BCD JUMP JUMPDEST PUSH1 0x40 DUP13 ADD MSTORE CALLDATASIZE SWAP2 PUSH2 0x3BCD JUMP JUMPDEST PUSH1 0x60 DUP10 ADD MSTORE CALLDATASIZE SWAP2 PUSH2 0x3BCD JUMP JUMPDEST PUSH1 0x80 DUP7 ADD MSTORE PUSH1 0x1 PUSH1 0xA0 DUP7 ADD MSTORE PUSH1 0x4 CALLDATALOAD PUSH1 0x0 MSTORE PUSH1 0x3 PUSH1 0x20 MSTORE PUSH1 0x40 PUSH1 0x0 KECCAK256 DUP5 PUSH1 0x0 MSTORE PUSH1 0x20 MSTORE PUSH1 0x40 PUSH1 0x0 KECCAK256 SWAP1 DUP6 MLOAD DUP3 SSTORE MLOAD DUP1 MLOAD PUSH1 0x1 PUSH1 0x1 PUSH1 0x40 SHL SUB DUP2 GT PUSH2 0x195A JUMPI DUP1 PUSH1 0x1 DUP5 ADD SWAP3 PUSH2 0x1D00 DUP3 PUSH2 0x1CFA DUP7 SLOAD PUSH2 0x3C13 JUMP JUMPDEST DUP7 PUSH2 0x3C64 JUMP JUMPDEST PUSH1 0x20 SWAP1 PUSH1 0x1F DUP4 GT PUSH1 0x1 EQ PUSH2 0x2058 JUMPI PUSH1 0x0 SWAP3 PUSH2 0x204D JUMPI JUMPDEST POP POP DUP2 PUSH1 0x1 SHL SWAP2 PUSH1 0x0 NOT SWAP1 PUSH1 0x3 SHL SHR NOT AND OR SWAP1 SSTORE JUMPDEST PUSH1 0x40 DUP6 ADD MLOAD DUP1 MLOAD PUSH1 0x1 PUSH1 0x1 PUSH1 0x40 SHL SUB DUP2 GT PUSH2 0x195A JUMPI DUP1 PUSH1 0x2 DUP5 ADD SWAP3 PUSH2 0x1D54 DUP3 PUSH2 0x1CFA DUP7 SLOAD PUSH2 0x3C13 JUMP JUMPDEST PUSH1 0x20 SWAP1 PUSH1 0x1F DUP4 GT PUSH1 0x1 EQ PUSH2 0x1FE7 JUMPI PUSH1 0x0 SWAP3 PUSH2 0x1FDC JUMPI JUMPDEST POP POP DUP2 PUSH1 0x1 SHL SWAP2 PUSH1 0x0 NOT SWAP1 PUSH1 0x3 SHL SHR NOT AND OR SWAP1 SSTORE JUMPDEST PUSH1 0x60 DUP6 ADD MLOAD DUP1 MLOAD PUSH1 0x1 PUSH1 0x1 PUSH1 0x40 SHL SUB DUP2 GT PUSH2 0x195A JUMPI DUP1 PUSH1 0x3 DUP5 ADD SWAP3 PUSH2 0x1DA8 DUP3 PUSH2 0x1CFA DUP7 SLOAD PUSH2 0x3C13 JUMP JUMPDEST PUSH1 0x20 SWAP1 PUSH1 0x1F DUP4 GT PUSH1 0x1 EQ PUSH2 0x1F76 JUMPI PUSH1 0x0 SWAP3 PUSH2 0x1F6B JUMPI JUMPDEST POP POP DUP2 PUSH1 0x1 SHL SWAP2 PUSH1 0x0 NOT SWAP1 PUSH1 0x3 SHL SHR NOT AND OR SWAP1 SSTORE JUMPDEST PUSH1 0x80 DUP6 ADD MLOAD SWAP5 DUP6 MLOAD PUSH1 0x1 PUSH1 0x1 PUSH1 0x40 SHL SUB DUP2 GT PUSH2 0x195A JUMPI PUSH1 0x20 SWAP7 PUSH2 0x1DFD DUP3 PUSH2 0x17E4 PUSH1 0x4 DUP8 ADD SLOAD PUSH2 0x3C13 JUMP JUMPDEST DUP8 SWAP1 PUSH1 0x1F DUP4 GT PUSH1 0x1 EQ PUSH2 0x1ECF JUMPI PUSH1 0xA0 PUSH32 0x1D3C6A3C34ADDECA1898ED9E2152304EA92CF5B2DFABE5461461392A62F6D8DE SWAP7 SWAP5 DUP5 PUSH2 0x1E73 SWAP6 PUSH2 0x1EB9 SWAP9 SWAP6 PUSH1 0x5 SWAP6 PUSH1 0x0 SWAP3 PUSH2 0x1EC4 JUMPI JUMPDEST POP POP DUP2 PUSH1 0x1 SHL SWAP2 PUSH1 0x0 NOT SWAP1 PUSH1 0x3 SHL SHR NOT AND OR PUSH1 0x4 DUP6 ADD SSTORE JUMPDEST ADD MLOAD ISZERO ISZERO SWAP2 ADD SWAP1 PUSH1 0xFF DUP1 NOT DUP4 SLOAD AND SWAP2 ISZERO ISZERO AND OR SWAP1 SSTORE JUMP JUMPDEST PUSH1 0x4 CALLDATALOAD PUSH1 0x0 MSTORE PUSH1 0x2 DUP7 MSTORE PUSH2 0x1E8E DUP6 PUSH1 0x7 PUSH1 0x40 PUSH1 0x0 KECCAK256 ADD PUSH2 0x3E41 JUMP JUMPDEST PUSH2 0x1E99 PUSH1 0x7 SLOAD PUSH2 0x3D9B JUMP JUMPDEST PUSH1 0x7 SSTORE PUSH1 0x40 MLOAD SWAP2 DUP3 SWAP2 DUP7 DUP4 MSTORE PUSH1 0x40 DUP9 DUP5 ADD MSTORE PUSH1 0x4 CALLDATALOAD SWAP6 PUSH1 0x40 DUP5 ADD SWAP2 PUSH2 0x3CCE JUMP JUMPDEST SUB SWAP1 LOG2 PUSH1 0x40 MLOAD SWAP1 DUP2 MSTORE RETURN JUMPDEST ADD MLOAD SWAP1 POP DUP14 DUP1 PUSH2 0x1E44 JUMP JUMPDEST SWAP1 PUSH1 0x4 DUP6 ADD PUSH1 0x0 MSTORE DUP9 PUSH1 0x0 KECCAK256 SWAP2 PUSH1 0x0 JUMPDEST PUSH1 0x1F NOT DUP6 AND DUP2 LT PUSH2 0x1F54 JUMPI POP PUSH32 0x1D3C6A3C34ADDECA1898ED9E2152304EA92CF5B2DFABE5461461392A62F6D8DE SWAP7 SWAP5 PUSH1 0x1 DUP6 PUSH2 0x1EB9 SWAP9 SWAP6 PUSH1 0x5 SWAP6 PUSH1 0xA0 SWAP6 PUSH2 0x1E73 SWAP10 PUSH1 0x1F NOT DUP2 AND LT PUSH2 0x1F3B JUMPI JUMPDEST POP POP POP DUP2 SHL ADD PUSH1 0x4 DUP6 ADD SSTORE PUSH2 0x1E5C JUMP JUMPDEST ADD MLOAD PUSH1 0x0 NOT PUSH1 0xF8 DUP5 PUSH1 0x3 SHL AND SHR NOT AND SWAP1 SSTORE DUP14 DUP1 DUP1 PUSH2 0x1F2B JUMP JUMPDEST SWAP2 SWAP3 DUP11 PUSH1 0x1 DUP2 SWAP3 DUP7 DUP6 ADD MLOAD DUP2 SSTORE ADD SWAP5 ADD SWAP3 ADD PUSH2 0x1EDF JUMP JUMPDEST ADD MLOAD SWAP1 POP DUP9 DUP1 PUSH2 0x1DBE JUMP JUMPDEST PUSH1 0x0 DUP6 DUP2 MSTORE PUSH1 0x20 DUP2 KECCAK256 SWAP4 POP PUSH1 0x1F NOT DUP6 AND SWAP1 JUMPDEST DUP2 DUP2 LT PUSH2 0x1FC4 JUMPI POP SWAP1 DUP5 PUSH1 0x1 SWAP6 SWAP5 SWAP4 SWAP3 LT PUSH2 0x1FAB JUMPI JUMPDEST POP POP POP DUP2 SHL ADD SWAP1 SSTORE PUSH2 0x1DD3 JUMP JUMPDEST ADD MLOAD PUSH1 0x0 NOT PUSH1 0xF8 DUP5 PUSH1 0x3 SHL AND SHR NOT AND SWAP1 SSTORE DUP9 DUP1 DUP1 PUSH2 0x1F9E JUMP JUMPDEST SWAP3 SWAP4 PUSH1 0x20 PUSH1 0x1 DUP2 SWAP3 DUP8 DUP7 ADD MLOAD DUP2 SSTORE ADD SWAP6 ADD SWAP4 ADD PUSH2 0x1F88 JUMP JUMPDEST ADD MLOAD SWAP1 POP DUP9 DUP1 PUSH2 0x1D6A JUMP JUMPDEST PUSH1 0x0 DUP6 DUP2 MSTORE PUSH1 0x20 DUP2 KECCAK256 SWAP4 POP PUSH1 0x1F NOT DUP6 AND SWAP1 JUMPDEST DUP2 DUP2 LT PUSH2 0x2035 JUMPI POP SWAP1 DUP5 PUSH1 0x1 SWAP6 SWAP5 SWAP4 SWAP3 LT PUSH2 0x201C JUMPI JUMPDEST POP POP POP DUP2 SHL ADD SWAP1 SSTORE PUSH2 0x1D7F JUMP JUMPDEST ADD MLOAD PUSH1 0x0 NOT PUSH1 0xF8 DUP5 PUSH1 0x3 SHL AND SHR NOT AND SWAP1 SSTORE DUP9 DUP1 DUP1 PUSH2 0x200F JUMP JUMPDEST SWAP3 SWAP4 PUSH1 0x20 PUSH1 0x1 DUP2 SWAP3 DUP8 DUP7 ADD MLOAD DUP2 SSTORE ADD SWAP6 ADD SWAP4 ADD PUSH2 0x1FF9 JUMP JUMPDEST ADD MLOAD SWAP1 POP DUP9 DUP1 PUSH2 0x1D16 JUMP JUMPDEST PUSH1 0x0 DUP6 DUP2 MSTORE PUSH1 0x20 DUP2 KECCAK256 SWAP4 POP PUSH1 0x1F NOT DUP6 AND SWAP1 JUMPDEST DUP2 DUP2 LT PUSH2 0x20A6 JUMPI POP SWAP1 DUP5 PUSH1 0x1 SWAP6 SWAP5 SWAP4 SWAP3 LT PUSH2 0x208D JUMPI JUMPDEST POP POP POP DUP2 SHL ADD SWAP1 SSTORE PUSH2 0x1D2B JUMP JUMPDEST ADD MLOAD PUSH1 0x0 NOT PUSH1 0xF8 DUP5 PUSH1 0x3 SHL AND SHR NOT AND SWAP1 SSTORE DUP9 DUP1 DUP1 PUSH2 0x2080 JUMP JUMPDEST SWAP3 SWAP4 PUSH1 0x20 PUSH1 0x1 DUP2 SWAP3 DUP8 DUP7 ADD MLOAD DUP2 SSTORE ADD SWAP6 ADD SWAP4 ADD PUSH2 0x206A JUMP JUMPDEST PUSH1 0x40 MLOAD PUSH3 0x461BCD PUSH1 0xE5 SHL DUP2 MSTORE PUSH1 0x20 PUSH1 0x4 DUP3 ADD MSTORE PUSH1 0x13 PUSH1 0x24 DUP3 ADD MSTORE PUSH19 0x46696C6520616C726561647920657869737473 PUSH1 0x68 SHL PUSH1 0x44 DUP3 ADD MSTORE PUSH1 0x64 SWAP1 REVERT JUMPDEST CALLVALUE PUSH2 0x33E JUMPI PUSH1 0x20 CALLDATASIZE PUSH1 0x3 NOT ADD SLT PUSH2 0x33E JUMPI PUSH1 0x1 PUSH1 0x1 PUSH1 0xA0 SHL SUB PUSH2 0x211A PUSH2 0x3916 JUMP JUMPDEST AND PUSH1 0x0 MSTORE PUSH1 0x0 PUSH1 0x20 MSTORE PUSH2 0x259 PUSH2 0xC3C PUSH1 0x9 PUSH1 0x40 PUSH1 0x0 KECCAK256 ADD PUSH2 0x3F1A JUMP JUMPDEST CALLVALUE PUSH2 0x33E JUMPI PUSH1 0xA0 CALLDATASIZE PUSH1 0x3 NOT ADD SLT PUSH2 0x33E JUMPI PUSH2 0x214F PUSH2 0x3916 JUMP JUMPDEST PUSH1 0x1 PUSH1 0x1 PUSH1 0x40 SHL SUB PUSH1 0x24 CALLDATALOAD DUP2 DUP2 GT PUSH2 0x33E JUMPI PUSH2 0x216F SWAP1 CALLDATASIZE SWAP1 PUSH1 0x4 ADD PUSH2 0x38E9 JUMP JUMPDEST SWAP1 PUSH1 0x44 CALLDATALOAD DUP4 DUP2 GT PUSH2 0x33E JUMPI PUSH2 0x2188 SWAP1 CALLDATASIZE SWAP1 PUSH1 0x4 ADD PUSH2 0x38E9 JUMP JUMPDEST SWAP1 PUSH1 0x64 CALLDATALOAD DUP6 DUP2 GT PUSH2 0x33E JUMPI PUSH2 0x21A1 SWAP1 CALLDATASIZE SWAP1 PUSH1 0x4 ADD PUSH2 0x38E9 JUMP JUMPDEST SWAP2 SWAP1 SWAP3 PUSH1 0x84 CALLDATALOAD DUP8 DUP2 GT PUSH2 0x33E JUMPI PUSH2 0x21BC SWAP1 CALLDATASIZE SWAP1 PUSH1 0x4 ADD PUSH2 0x38E9 JUMP JUMPDEST SWAP7 SWAP1 SWAP9 PUSH1 0x1 DUP1 PUSH1 0xA0 SHL SUB AND DUP1 PUSH1 0x0 MSTORE PUSH1 0x1 PUSH1 0x20 MSTORE PUSH1 0x40 PUSH1 0x0 KECCAK256 CALLER PUSH1 0x0 MSTORE PUSH1 0x20 MSTORE PUSH2 0x21F3 PUSH1 0xFF PUSH1 0x5 PUSH1 0x40 PUSH1 0x0 KECCAK256 ADD SLOAD PUSH1 0x10 SHR AND PUSH2 0x4303 JUMP JUMPDEST PUSH1 0x0 MSTORE PUSH1 0x1 PUSH1 0x20 MSTORE PUSH1 0x40 PUSH1 0x0 KECCAK256 CALLER PUSH1 0x0 MSTORE PUSH1 0x20 MSTORE PUSH1 0x40 PUSH1 0x0 KECCAK256 SWAP6 DUP9 DUP3 GT PUSH2 0x195A JUMPI DUP2 SWAP1 PUSH2 0x2230 DUP3 PUSH2 0x2227 PUSH1 0x1 DUP12 ADD SLOAD PUSH2 0x3C13 JUMP JUMPDEST PUSH1 0x1 DUP12 ADD PUSH2 0x3C64 JUMP JUMPDEST PUSH1 0x0 SWAP1 PUSH1 0x1F DUP4 GT PUSH1 0x1 EQ PUSH2 0x24A8 JUMPI PUSH1 0x0 SWAP3 PUSH2 0x249D JUMPI JUMPDEST POP POP DUP2 PUSH1 0x1 SHL SWAP2 PUSH1 0x0 NOT SWAP1 PUSH1 0x3 SHL SHR NOT AND OR PUSH1 0x1 DUP7 ADD SSTORE JUMPDEST PUSH1 0x2 DUP6 ADD SWAP2 DUP8 DUP3 GT PUSH2 0x195A JUMPI DUP2 SWAP1 PUSH2 0x227A DUP3 PUSH2 0x1CFA DUP7 SLOAD PUSH2 0x3C13 JUMP JUMPDEST PUSH1 0x0 SWAP1 PUSH1 0x1F DUP4 GT PUSH1 0x1 EQ PUSH2 0x2432 JUMPI PUSH1 0x0 SWAP3 PUSH2 0x2427 JUMPI JUMPDEST POP POP DUP2 PUSH1 0x1 SHL SWAP2 PUSH1 0x0 NOT SWAP1 PUSH1 0x3 SHL SHR NOT AND OR SWAP1 SSTORE JUMPDEST PUSH1 0x3 DUP4 ADD SWAP2 DUP6 DUP3 GT PUSH2 0x195A JUMPI PUSH2 0x22C5 DUP3 PUSH2 0x22BF DUP6 SLOAD PUSH2 0x3C13 JUMP JUMPDEST DUP6 PUSH2 0x3C64 JUMP JUMPDEST PUSH1 0x0 SWAP1 PUSH1 0x1F DUP4 GT PUSH1 0x1 EQ PUSH2 0x23BB JUMPI PUSH1 0x4 SWAP5 SWAP4 SWAP3 SWAP2 PUSH1 0x0 SWAP2 DUP4 PUSH2 0x23B0 JUMPI JUMPDEST POP POP DUP2 PUSH1 0x1 SHL SWAP2 PUSH1 0x0 NOT SWAP1 PUSH1 0x3 SHL SHR NOT AND OR SWAP1 SSTORE JUMPDEST ADD SWAP2 DUP2 GT PUSH2 0x195A JUMPI PUSH2 0x2313 DUP2 PUSH2 0x230D DUP5 SLOAD PUSH2 0x3C13 JUMP JUMPDEST DUP5 PUSH2 0x3C64 JUMP JUMPDEST PUSH1 0x0 PUSH1 0x1F DUP3 GT PUSH1 0x1 EQ PUSH2 0x234E JUMPI DUP2 SWAP3 SWAP4 PUSH1 0x0 SWAP3 PUSH2 0x2343 JUMPI JUMPDEST POP POP PUSH1 0x0 NOT PUSH1 0x3 DUP4 SWAP1 SHL SHR NOT AND PUSH1 0x1 SWAP2 SWAP1 SWAP2 SHL OR SWAP1 SSTORE STOP JUMPDEST ADD CALLDATALOAD SWAP1 POP DUP4 DUP1 PUSH2 0x232B JUMP JUMPDEST PUSH1 0x1F NOT DUP3 AND SWAP4 DUP4 PUSH1 0x0 MSTORE PUSH1 0x20 PUSH1 0x0 KECCAK256 SWAP2 PUSH1 0x0 JUMPDEST DUP7 DUP2 LT PUSH2 0x2398 JUMPI POP DUP4 PUSH1 0x1 SWAP6 SWAP7 LT PUSH2 0x237E JUMPI JUMPDEST POP POP POP DUP2 SHL ADD SWAP1 SSTORE STOP JUMPDEST ADD CALLDATALOAD PUSH1 0x0 NOT PUSH1 0x3 DUP5 SWAP1 SHL PUSH1 0xF8 AND SHR NOT AND SWAP1 SSTORE DUP4 DUP1 DUP1 PUSH2 0x2374 JUMP JUMPDEST SWAP1 SWAP3 PUSH1 0x20 PUSH1 0x1 DUP2 SWAP3 DUP7 DUP7 ADD CALLDATALOAD DUP2 SSTORE ADD SWAP5 ADD SWAP2 ADD PUSH2 0x2361 JUMP JUMPDEST ADD CALLDATALOAD SWAP1 POP DUP9 DUP1 PUSH2 0x22E2 JUMP JUMPDEST PUSH1 0x1F NOT DUP4 AND SWAP2 DUP5 PUSH1 0x0 MSTORE PUSH1 0x20 PUSH1 0x0 KECCAK256 SWAP3 PUSH1 0x0 JUMPDEST DUP2 DUP2 LT PUSH2 0x240F JUMPI POP SWAP2 PUSH1 0x1 SWAP4 SWAP2 DUP6 PUSH1 0x4 SWAP9 SWAP8 SWAP7 SWAP5 LT PUSH2 0x23F5 JUMPI JUMPDEST POP POP POP DUP2 SHL ADD SWAP1 SSTORE PUSH2 0x22F7 JUMP JUMPDEST ADD CALLDATALOAD PUSH1 0x0 NOT PUSH1 0x3 DUP5 SWAP1 SHL PUSH1 0xF8 AND SHR NOT AND SWAP1 SSTORE DUP9 DUP1 DUP1 PUSH2 0x23E8 JUMP JUMPDEST SWAP2 SWAP4 PUSH1 0x20 PUSH1 0x1 DUP2 SWAP3 DUP8 DUP8 ADD CALLDATALOAD DUP2 SSTORE ADD SWAP6 ADD SWAP3 ADD PUSH2 0x23CE JUMP JUMPDEST ADD CALLDATALOAD SWAP1 POP DUP10 DUP1 PUSH2 0x2290 JUMP JUMPDEST SWAP1 SWAP2 POP PUSH1 0x1F NOT DUP4 AND SWAP2 DUP5 PUSH1 0x0 MSTORE PUSH1 0x20 PUSH1 0x0 KECCAK256 SWAP3 PUSH1 0x0 JUMPDEST DUP2 DUP2 LT PUSH2 0x2485 JUMPI POP SWAP1 DUP5 PUSH1 0x1 SWAP6 SWAP5 SWAP4 SWAP3 LT PUSH2 0x246B JUMPI JUMPDEST POP POP POP DUP2 SHL ADD SWAP1 SSTORE PUSH2 0x22A5 JUMP JUMPDEST ADD CALLDATALOAD PUSH1 0x0 NOT PUSH1 0x3 DUP5 SWAP1 SHL PUSH1 0xF8 AND SHR NOT AND SWAP1 SSTORE DUP10 DUP1 DUP1 PUSH2 0x245E JUMP JUMPDEST SWAP2 SWAP4 PUSH1 0x20 PUSH1 0x1 DUP2 SWAP3 DUP8 DUP8 ADD CALLDATALOAD DUP2 SSTORE ADD SWAP6 ADD SWAP3 ADD PUSH2 0x2448 JUMP JUMPDEST ADD CALLDATALOAD SWAP1 POP DUP11 DUP1 PUSH2 0x2246 JUMP JUMPDEST SWAP1 SWAP2 POP PUSH1 0x1F NOT DUP4 AND SWAP2 PUSH1 0x1 DUP10 ADD PUSH1 0x0 MSTORE PUSH1 0x20 PUSH1 0x0 KECCAK256 SWAP3 PUSH1 0x0 JUMPDEST DUP2 DUP2 LT PUSH2 0x2501 JUMPI POP SWAP1 DUP5 PUSH1 0x1 SWAP6 SWAP5 SWAP4 SWAP3 LT PUSH2 0x24E7 JUMPI JUMPDEST POP POP POP DUP2 SHL ADD PUSH1 0x1 DUP7 ADD SSTORE PUSH2 0x225E JUMP JUMPDEST ADD CALLDATALOAD PUSH1 0x0 NOT PUSH1 0x3 DUP5 SWAP1 SHL PUSH1 0xF8 AND SHR NOT AND SWAP1 SSTORE DUP11 DUP1 DUP1 PUSH2 0x24D7 JUMP JUMPDEST SWAP2 SWAP4 PUSH1 0x20 PUSH1 0x1 DUP2 SWAP3 DUP8 DUP8 ADD CALLDATALOAD DUP2 SSTORE ADD SWAP6 ADD SWAP3 ADD PUSH2 0x24C1 JUMP JUMPDEST CALLVALUE PUSH2 0x33E JUMPI PUSH1 0x20 CALLDATASIZE PUSH1 0x3 NOT ADD SLT PUSH2 0x33E JUMPI PUSH1 0x1 PUSH1 0x1 PUSH1 0xA0 SHL SUB PUSH2 0x253A PUSH2 0x3916 JUMP JUMPDEST AND PUSH1 0x0 MSTORE PUSH1 0x0 PUSH1 0x20 MSTORE PUSH2 0x2553 PUSH1 0x9 PUSH1 0x40 PUSH1 0x0 KECCAK256 ADD PUSH2 0x3F1A JUMP JUMPDEST DUP1 MLOAD SWAP1 PUSH2 0x255F DUP3 PUSH2 0x3B9B JUMP JUMPDEST SWAP2 PUSH2 0x2569 DUP2 PUSH2 0x4514 JUMP JUMPDEST SWAP3 PUSH2 0x2573 DUP3 PUSH2 0x3B9B JUMP JUMPDEST PUSH2 0x257C DUP4 PUSH2 0x3B9B JUMP JUMPDEST PUSH2 0x2585 DUP5 PUSH2 0x4514 JUMP JUMPDEST SWAP2 PUSH2 0x258F DUP6 PUSH2 0x4514 JUMP JUMPDEST SWAP4 PUSH2 0x2599 DUP7 PUSH2 0x4514 JUMP JUMPDEST SWAP6 PUSH2 0x25A3 DUP2 PUSH2 0x3B84 JUMP JUMPDEST SWAP8 PUSH2 0x25B1 PUSH1 0x40 MLOAD SWAP10 DUP11 PUSH2 0x3B63 JUMP JUMPDEST DUP2 DUP10 MSTORE PUSH2 0x25CD PUSH1 0x1F NOT PUSH2 0x25C3 DUP5 PUSH2 0x3B84 JUMP JUMPDEST ADD PUSH1 0x20 DUP12 ADD PUSH2 0x44F7 JUMP JUMPDEST PUSH1 0x0 JUMPDEST DUP3 DUP2 LT PUSH2 0x26C1 JUMPI POP POP POP PUSH2 0x260C SWAP7 SWAP6 SWAP4 PUSH2 0x2636 PUSH2 0x2652 SWAP5 PUSH2 0x2628 PUSH2 0x2660 SWAP9 SWAP6 PUSH2 0x261A PUSH2 0x2644 SWAP7 PUSH1 0x40 MLOAD SWAP15 DUP16 SWAP15 DUP16 SWAP3 PUSH2 0x100 DUP1 DUP6 MSTORE DUP5 ADD SWAP1 PUSH2 0x3942 JUMP JUMPDEST SWAP2 PUSH1 0x20 DUP2 DUP5 SUB SWAP2 ADD MSTORE PUSH2 0x39B6 JUMP JUMPDEST DUP13 DUP2 SUB PUSH1 0x40 DUP15 ADD MSTORE SWAP1 PUSH2 0x3A12 JUMP JUMPDEST SWAP1 DUP11 DUP3 SUB PUSH1 0x60 DUP13 ADD MSTORE PUSH2 0x3A4F JUMP JUMPDEST SWAP1 DUP9 DUP3 SUB PUSH1 0x80 DUP11 ADD MSTORE PUSH2 0x39B6 JUMP JUMPDEST SWAP1 DUP7 DUP3 SUB PUSH1 0xA0 DUP9 ADD MSTORE PUSH2 0x39B6 JUMP JUMPDEST SWAP1 DUP5 DUP3 SUB PUSH1 0xC0 DUP7 ADD MSTORE PUSH2 0x3A85 JUMP JUMPDEST DUP3 DUP2 SUB PUSH1 0xE0 DUP5 ADD MSTORE DUP2 MLOAD DUP1 DUP3 MSTORE PUSH1 0x20 DUP3 ADD SWAP2 PUSH1 0x20 DUP1 DUP4 PUSH1 0x5 SHL DUP4 ADD ADD SWAP5 ADD SWAP3 PUSH1 0x0 SWAP2 JUMPDEST DUP4 DUP4 LT PUSH2 0x2690 JUMPI DUP7 DUP7 SUB DUP8 RETURN JUMPDEST SWAP2 SWAP4 SWAP6 POP SWAP2 SWAP4 PUSH1 0x20 DUP1 PUSH2 0x26AF PUSH1 0x1 SWAP4 PUSH1 0x1F NOT DUP7 DUP3 SUB ADD DUP8 MSTORE DUP10 MLOAD PUSH2 0x3A12 JUMP JUMPDEST SWAP8 ADD SWAP4 ADD SWAP4 ADD SWAP1 SWAP3 DUP7 SWAP6 SWAP5 SWAP3 SWAP4 PUSH2 0x2683 JUMP JUMPDEST PUSH2 0x26D1 DUP2 DUP4 SWAP13 SWAP6 SWAP7 SWAP8 SWAP9 SWAP13 PUSH2 0x4549 JUMP JUMPDEST MLOAD PUSH1 0x0 MSTORE PUSH1 0x2 DUP1 PUSH1 0x20 MSTORE PUSH1 0x40 PUSH1 0x0 KECCAK256 SWAP1 DUP2 SLOAD PUSH2 0x26ED DUP5 DUP10 PUSH2 0x4549 JUMP JUMPDEST MSTORE PUSH2 0x26FA PUSH1 0x1 DUP4 ADD PUSH2 0x3E76 JUMP JUMPDEST PUSH2 0x2704 DUP5 DUP9 PUSH2 0x4549 JUMP JUMPDEST MSTORE PUSH2 0x270F DUP4 DUP8 PUSH2 0x4549 JUMP JUMPDEST POP DUP2 ADD SLOAD PUSH1 0x1 PUSH1 0x1 PUSH1 0xA0 SHL SUB DUP2 AND PUSH2 0x2727 DUP5 DUP11 PUSH2 0x4549 JUMP JUMPDEST MSTORE PUSH2 0x2732 DUP4 DUP11 PUSH2 0x4549 JUMP JUMPDEST SWAP1 PUSH1 0xA0 SHR PUSH1 0xFF AND ISZERO ISZERO SWAP1 MSTORE DUP2 DUP13 PUSH1 0x3 DUP4 ADD PUSH2 0x274C SWAP1 PUSH2 0x3E76 JUMP JUMPDEST SWAP2 PUSH2 0x2756 SWAP2 PUSH2 0x4549 JUMP JUMPDEST MSTORE PUSH2 0x2761 DUP3 DUP14 PUSH2 0x4549 JUMP JUMPDEST POP PUSH2 0x276E PUSH1 0x4 DUP3 ADD PUSH2 0x3E76 JUMP JUMPDEST PUSH2 0x2778 DUP4 DUP12 PUSH2 0x4549 JUMP JUMPDEST MSTORE PUSH2 0x2783 DUP3 DUP11 PUSH2 0x4549 JUMP JUMPDEST POP PUSH2 0x2790 PUSH1 0x7 DUP3 ADD PUSH2 0x3F1A JUMP JUMPDEST PUSH2 0x279A DUP4 DUP13 PUSH2 0x4549 JUMP JUMPDEST MSTORE PUSH2 0x27A5 DUP3 DUP12 PUSH2 0x4549 JUMP JUMPDEST POP PUSH1 0x6 ADD PUSH2 0x27B2 SWAP1 PUSH2 0x449F JUMP JUMPDEST PUSH2 0x27BC DUP3 DUP13 PUSH2 0x4549 JUMP JUMPDEST MSTORE PUSH2 0x27C7 DUP2 DUP12 PUSH2 0x4549 JUMP JUMPDEST POP PUSH2 0x27D1 SWAP1 PUSH2 0x3D9B JUMP JUMPDEST SWAP10 SWAP6 SWAP5 SWAP4 SWAP3 SWAP10 PUSH2 0x25D0 JUMP JUMPDEST CALLVALUE PUSH2 0x33E JUMPI PUSH1 0xE0 CALLDATASIZE PUSH1 0x3 NOT ADD SLT PUSH2 0x33E JUMPI PUSH2 0x27F5 PUSH2 0x3916 JUMP JUMPDEST PUSH1 0x24 CALLDATALOAD PUSH1 0x1 PUSH1 0x1 PUSH1 0x40 SHL SUB DUP2 GT PUSH2 0x33E JUMPI PUSH2 0x2814 SWAP1 CALLDATASIZE SWAP1 PUSH1 0x4 ADD PUSH2 0x38E9 JUMP JUMPDEST SWAP2 PUSH1 0x44 CALLDATALOAD PUSH1 0x1 PUSH1 0x1 PUSH1 0x40 SHL SUB DUP2 GT PUSH2 0x33E JUMPI PUSH2 0x2834 SWAP1 CALLDATASIZE SWAP1 PUSH1 0x4 ADD PUSH2 0x38E9 JUMP JUMPDEST PUSH1 0x64 SWAP4 DUP5 CALLDATALOAD PUSH1 0x1 PUSH1 0x1 PUSH1 0x40 SHL SUB DUP2 GT PUSH2 0x33E JUMPI PUSH2 0x2855 SWAP1 CALLDATASIZE SWAP1 PUSH1 0x4 ADD PUSH2 0x38E9 JUMP JUMPDEST SWAP6 SWAP1 PUSH1 0x84 CALLDATALOAD PUSH1 0x1 PUSH1 0x1 PUSH1 0x40 SHL SUB DUP2 GT PUSH2 0x33E JUMPI PUSH2 0x2876 SWAP1 CALLDATASIZE SWAP1 PUSH1 0x4 ADD PUSH2 0x38E9 JUMP JUMPDEST SWAP1 SWAP2 PUSH1 0xA4 CALLDATALOAD SWAP9 DUP10 ISZERO ISZERO DUP11 SUB PUSH2 0x33E JUMPI PUSH1 0x1 PUSH1 0x1 PUSH1 0x40 SHL SUB PUSH1 0xC4 CALLDATALOAD GT PUSH2 0x33E JUMPI CALLDATASIZE PUSH1 0x23 PUSH1 0xC4 CALLDATALOAD ADD SLT ISZERO PUSH2 0x33E JUMPI PUSH1 0x1 PUSH1 0x1 PUSH1 0x40 SHL SUB PUSH1 0xC4 CALLDATALOAD PUSH1 0x4 ADD CALLDATALOAD GT PUSH2 0x33E JUMPI CALLDATASIZE PUSH1 0x24 PUSH1 0xC4 CALLDATALOAD PUSH1 0x4 ADD CALLDATALOAD PUSH1 0x5 SHL PUSH1 0xC4 CALLDATALOAD ADD ADD GT PUSH2 0x33E JUMPI CALLER PUSH1 0x0 MSTORE PUSH1 0x0 PUSH1 0x20 MSTORE PUSH2 0x28ED PUSH1 0xFF PUSH1 0x7 PUSH1 0x40 PUSH1 0x0 KECCAK256 ADD SLOAD PUSH1 0x8 SHR AND PUSH2 0x3CEF JUMP JUMPDEST PUSH1 0x1 PUSH1 0x1 PUSH1 0xA0 SHL SUB DUP10 AND CALLER EQ PUSH2 0x3110 JUMPI CALLER PUSH1 0x0 MSTORE PUSH1 0x1 PUSH1 0x20 MSTORE PUSH1 0x40 PUSH1 0x0 KECCAK256 PUSH1 0x1 DUP1 PUSH1 0xA0 SHL SUB DUP11 AND PUSH1 0x0 MSTORE PUSH1 0x20 MSTORE PUSH1 0xFF PUSH1 0x5 PUSH1 0x40 PUSH1 0x0 KECCAK256 ADD SLOAD PUSH1 0x10 SHR AND PUSH2 0x30D3 JUMPI SWAP3 DUP11 SWAP3 PUSH2 0x2989 PUSH2 0x2995 SWAP4 DUP12 SWAP7 PUSH2 0x296D PUSH1 0x40 MLOAD SWAP8 PUSH2 0x2949 DUP10 PUSH2 0x3B48 JUMP JUMPDEST PUSH1 0x0 DUP10 MSTORE PUSH1 0x40 MLOAD SWAP10 PUSH2 0x295A DUP12 PUSH2 0x3B11 JUMP JUMPDEST PUSH1 0x1 PUSH1 0x1 PUSH1 0xA0 SHL SUB AND DUP11 MSTORE CALLDATASIZE SWAP1 DUP13 PUSH2 0x3BCD JUMP JUMPDEST PUSH1 0x20 DUP10 ADD MSTORE PUSH2 0x297D CALLDATASIZE DUP13 DUP15 PUSH2 0x3BCD JUMP JUMPDEST PUSH1 0x40 DUP10 ADD MSTORE CALLDATASIZE SWAP2 PUSH2 0x3BCD JUMP JUMPDEST PUSH1 0x60 DUP7 ADD MSTORE CALLDATASIZE SWAP2 PUSH2 0x3BCD JUMP JUMPDEST PUSH1 0x80 DUP4 ADD MSTORE DUP8 ISZERO ISZERO PUSH1 0xA0 DUP4 ADD MSTORE PUSH1 0x1 PUSH1 0xC0 DUP4 ADD MSTORE PUSH1 0x1 PUSH1 0xE0 DUP4 ADD MSTORE PUSH2 0x100 DUP3 ADD MSTORE CALLER PUSH1 0x0 MSTORE PUSH1 0x1 PUSH1 0x20 MSTORE PUSH1 0x40 PUSH1 0x0 KECCAK256 PUSH1 0x1 DUP1 PUSH1 0xA0 SHL SUB DUP8 AND PUSH1 0x0 MSTORE PUSH1 0x20 MSTORE PUSH1 0x40 PUSH1 0x0 KECCAK256 SWAP1 PUSH1 0x1 DUP1 PUSH1 0xA0 SHL SUB DUP2 MLOAD AND PUSH1 0x1 PUSH1 0x1 PUSH1 0x60 SHL SUB PUSH1 0xA0 SHL DUP4 SLOAD AND OR DUP3 SSTORE PUSH1 0x20 DUP2 ADD MLOAD DUP1 MLOAD SWAP1 PUSH1 0x1 PUSH1 0x1 PUSH1 0x40 SHL SUB DUP3 GT PUSH2 0x195A JUMPI DUP2 SWAP1 PUSH2 0x2A26 DUP3 PUSH2 0x2A1D PUSH1 0x1 DUP9 ADD SLOAD PUSH2 0x3C13 JUMP JUMPDEST PUSH1 0x1 DUP9 ADD PUSH2 0x3C64 JUMP JUMPDEST PUSH1 0x20 SWAP1 PUSH1 0x1F DUP4 GT PUSH1 0x1 EQ PUSH2 0x3061 JUMPI PUSH1 0x0 SWAP3 PUSH2 0x3056 JUMPI JUMPDEST POP POP DUP2 PUSH1 0x1 SHL SWAP2 PUSH1 0x0 NOT SWAP1 PUSH1 0x3 SHL SHR NOT AND OR PUSH1 0x1 DUP4 ADD SSTORE JUMPDEST PUSH1 0x40 DUP2 ADD MLOAD DUP1 MLOAD SWAP1 PUSH1 0x1 PUSH1 0x1 PUSH1 0x40 SHL SUB DUP3 GT PUSH2 0x195A JUMPI DUP2 SWAP1 PUSH2 0x2A86 DUP3 PUSH2 0x2A7D PUSH1 0x2 DUP9 ADD SLOAD PUSH2 0x3C13 JUMP JUMPDEST PUSH1 0x2 DUP9 ADD PUSH2 0x3C64 JUMP JUMPDEST PUSH1 0x20 SWAP1 PUSH1 0x1F DUP4 GT PUSH1 0x1 EQ PUSH2 0x2FE4 JUMPI PUSH1 0x0 SWAP3 PUSH2 0x2FD9 JUMPI JUMPDEST POP POP DUP2 PUSH1 0x1 SHL SWAP2 PUSH1 0x0 NOT SWAP1 PUSH1 0x3 SHL SHR NOT AND OR PUSH1 0x2 DUP4 ADD SSTORE JUMPDEST PUSH1 0x60 DUP2 ADD MLOAD DUP1 MLOAD SWAP1 PUSH1 0x1 PUSH1 0x1 PUSH1 0x40 SHL SUB DUP3 GT PUSH2 0x195A JUMPI DUP2 SWAP1 PUSH2 0x2AE6 DUP3 PUSH2 0x2ADD PUSH1 0x3 DUP9 ADD SLOAD PUSH2 0x3C13 JUMP JUMPDEST PUSH1 0x3 DUP9 ADD PUSH2 0x3C64 JUMP JUMPDEST PUSH1 0x20 SWAP1 PUSH1 0x1F DUP4 GT PUSH1 0x1 EQ PUSH2 0x2F67 JUMPI PUSH1 0x0 SWAP3 PUSH2 0x2F5C JUMPI JUMPDEST POP POP DUP2 PUSH1 0x1 SHL SWAP2 PUSH1 0x0 NOT SWAP1 PUSH1 0x3 SHL SHR NOT AND OR PUSH1 0x3 DUP4 ADD SSTORE JUMPDEST PUSH1 0x80 DUP2 ADD MLOAD DUP1 MLOAD SWAP1 PUSH1 0x1 PUSH1 0x1 PUSH1 0x40 SHL SUB DUP3 GT PUSH2 0x195A JUMPI PUSH2 0x2B3B DUP3 PUSH2 0x17E4 PUSH1 0x4 DUP8 ADD SLOAD PUSH2 0x3C13 JUMP JUMPDEST PUSH1 0x20 SWAP1 PUSH1 0x1F DUP4 GT PUSH1 0x1 EQ PUSH2 0x2EE8 JUMPI PUSH2 0x100 SWAP4 SWAP3 SWAP2 PUSH1 0x0 SWAP2 DUP4 PUSH2 0x2EDD JUMPI JUMPDEST POP POP DUP2 PUSH1 0x1 SHL SWAP2 PUSH1 0x0 NOT SWAP1 PUSH1 0x3 SHL SHR NOT AND OR PUSH1 0x4 DUP5 ADD SSTORE JUMPDEST PUSH1 0x5 DUP4 ADD PUSH2 0x2B90 PUSH1 0xA0 DUP4 ADD MLOAD ISZERO ISZERO DUP3 SWAP1 PUSH1 0xFF DUP1 NOT DUP4 SLOAD AND SWAP2 ISZERO ISZERO AND OR SWAP1 SSTORE JUMP JUMPDEST PUSH1 0xC0 DUP3 ADD MLOAD DUP2 SLOAD PUSH2 0xFF00 NOT AND SWAP1 ISZERO ISZERO PUSH1 0x8 SHL PUSH2 0xFF00 AND OR DUP2 SSTORE PUSH1 0xE0 DUP3 ADD MLOAD DUP2 SLOAD PUSH3 0xFF0000 NOT AND SWAP1 ISZERO ISZERO PUSH1 0x10 SHL PUSH3 0xFF0000 AND OR SWAP1 SSTORE ADD MLOAD DUP1 MLOAD SWAP2 PUSH1 0x1 PUSH1 0x1 PUSH1 0x40 SHL SUB DUP4 GT PUSH2 0x195A JUMPI PUSH1 0x1 PUSH1 0x40 SHL DUP4 GT PUSH2 0x195A JUMPI PUSH1 0x6 PUSH1 0x20 SWAP2 ADD SWAP2 PUSH2 0x2BF8 DUP5 DUP5 SLOAD DUP2 DUP7 SSTORE DUP6 PUSH2 0x3CAB JUMP JUMPDEST ADD SWAP1 PUSH1 0x0 MSTORE PUSH1 0x20 PUSH1 0x0 KECCAK256 PUSH1 0x0 JUMPDEST DUP4 DUP2 LT PUSH2 0x2EC9 JUMPI POP POP POP POP CALLER PUSH1 0x0 MSTORE PUSH1 0x0 PUSH1 0x20 MSTORE PUSH2 0x2C2A DUP6 PUSH1 0x8 PUSH1 0x40 PUSH1 0x0 KECCAK256 ADD PUSH2 0x3D60 JUMP JUMPDEST PUSH1 0x0 JUMPDEST PUSH1 0xC4 CALLDATALOAD PUSH1 0x4 ADD CALLDATALOAD DUP2 LT PUSH2 0x2CA2 JUMPI POP POP SWAP2 PUSH2 0x2C87 SWAP2 PUSH2 0x2C79 PUSH32 0xD39B94C4E0A6DC7134A60E93B1E6D3076988E71A9558AFB69B3ECB6488DB04DD SWAP6 SWAP5 PUSH1 0x40 MLOAD SWAP9 PUSH1 0x60 DUP11 MSTORE PUSH1 0x60 DUP11 ADD SWAP2 PUSH2 0x3CCE JUMP JUMPDEST SWAP2 DUP8 DUP4 SUB PUSH1 0x20 DUP10 ADD MSTORE PUSH2 0x3CCE JUMP JUMPDEST SWAP3 ISZERO ISZERO PUSH1 0x40 DUP6 ADD MSTORE PUSH1 0x1 PUSH1 0x1 PUSH1 0xA0 SHL SUB AND SWAP3 CALLER SWAP3 DUP2 SWAP1 SUB SWAP1 LOG3 STOP JUMPDEST PUSH1 0x24 DUP2 PUSH1 0x5 SHL PUSH1 0xC4 CALLDATALOAD ADD ADD CALLDATALOAD PUSH1 0x0 MSTORE PUSH1 0x2 PUSH1 0x20 MSTORE PUSH2 0x2CCA PUSH1 0xFF PUSH1 0x5 PUSH1 0x40 PUSH1 0x0 KECCAK256 ADD SLOAD AND PUSH2 0x3DC0 JUMP JUMPDEST PUSH1 0x24 DUP2 PUSH1 0x5 SHL PUSH1 0xC4 CALLDATALOAD ADD ADD CALLDATALOAD PUSH1 0x0 MSTORE PUSH1 0x2 PUSH1 0x20 MSTORE PUSH2 0x2CF9 CALLER PUSH1 0x1 DUP1 PUSH1 0xA0 SHL SUB PUSH1 0x2 PUSH1 0x40 PUSH1 0x0 KECCAK256 ADD SLOAD AND EQ PUSH2 0x3E03 JUMP JUMPDEST PUSH2 0x2D0E DUP7 PUSH1 0x24 DUP4 PUSH1 0x5 SHL PUSH1 0xC4 CALLDATALOAD ADD ADD CALLDATALOAD PUSH2 0x429E JUMP JUMPDEST PUSH2 0x2E73 JUMPI DUP1 PUSH1 0x24 PUSH2 0x2E6E SWAP3 PUSH1 0x5 SHL PUSH1 0xC4 CALLDATALOAD ADD ADD CALLDATALOAD PUSH1 0x0 MSTORE PUSH1 0x2 PUSH1 0x20 MSTORE PUSH2 0x2D3B DUP8 PUSH1 0x6 PUSH1 0x40 PUSH1 0x0 KECCAK256 ADD PUSH2 0x3D60 JUMP JUMPDEST CALLER PUSH1 0x0 MSTORE PUSH1 0x1 PUSH1 0x20 MSTORE PUSH1 0x40 PUSH1 0x0 KECCAK256 PUSH1 0x1 DUP1 PUSH1 0xA0 SHL SUB DUP9 AND PUSH1 0x0 MSTORE PUSH1 0x20 MSTORE PUSH2 0x2D74 PUSH1 0x24 DUP3 PUSH1 0x5 SHL PUSH1 0xC4 CALLDATALOAD ADD ADD CALLDATALOAD PUSH1 0x6 PUSH1 0x40 PUSH1 0x0 KECCAK256 ADD PUSH2 0x3E41 JUMP JUMPDEST PUSH1 0x24 DUP2 PUSH1 0x5 SHL PUSH1 0xC4 CALLDATALOAD ADD ADD CALLDATALOAD PUSH1 0x0 MSTORE PUSH1 0x2 PUSH1 0x20 MSTORE PUSH2 0x2E2D PUSH1 0x40 PUSH1 0x0 KECCAK256 PUSH2 0x2E0B PUSH1 0x7 PUSH1 0x2 DUP4 ADD SLOAD SWAP3 PUSH1 0xFF PUSH1 0x40 MLOAD SWAP5 PUSH2 0x2DAA DUP7 PUSH2 0x3B2D JUMP JUMPDEST PUSH1 0x24 DUP9 PUSH1 0x5 SHL PUSH1 0xC4 CALLDATALOAD ADD ADD CALLDATALOAD DUP7 MSTORE PUSH2 0x2DC4 PUSH1 0x1 DUP5 ADD PUSH2 0x3E76 JUMP JUMPDEST PUSH1 0x20 DUP8 ADD MSTORE PUSH1 0x1 PUSH1 0x1 PUSH1 0xA0 SHL SUB DUP2 AND PUSH1 0x40 DUP8 ADD MSTORE PUSH1 0xA0 SHR AND ISZERO ISZERO PUSH1 0x60 DUP6 ADD MSTORE PUSH2 0x2DEF PUSH1 0x3 DUP3 ADD PUSH2 0x3E76 JUMP JUMPDEST PUSH1 0x80 DUP6 ADD MSTORE PUSH2 0x2E00 PUSH1 0x4 DUP3 ADD PUSH2 0x3E76 JUMP JUMPDEST PUSH1 0xA0 DUP6 ADD MSTORE ADD PUSH2 0x3F1A JUMP JUMPDEST PUSH1 0xC0 DUP3 ADD MSTORE PUSH1 0x1 PUSH1 0x1 PUSH1 0xA0 SHL SUB DUP10 AND PUSH1 0x0 SWAP1 DUP2 MSTORE PUSH1 0x5 PUSH1 0x20 MSTORE PUSH1 0x40 SWAP1 KECCAK256 PUSH2 0x3F85 JUMP JUMPDEST PUSH1 0x1 PUSH1 0x1 PUSH1 0xA0 SHL SUB DUP8 AND PUSH1 0xC4 CALLDATALOAD PUSH1 0x5 DUP4 SWAP1 SHL ADD PUSH1 0x24 ADD CALLDATALOAD PUSH32 0x72024BC1A3BEFF7DF2FE575C8097C660EE4A4E15F263E037ED38560728681F1 PUSH1 0x0 DUP1 LOG3 PUSH2 0x3D9B JUMP JUMPDEST PUSH2 0x2C2D JUMP JUMPDEST PUSH1 0x40 MLOAD PUSH3 0x461BCD PUSH1 0xE5 SHL DUP2 MSTORE PUSH1 0x20 PUSH1 0x4 DUP3 ADD MSTORE PUSH1 0x29 PUSH1 0x24 DUP3 ADD MSTORE PUSH32 0x436F6E7461637420616C726561647920617574686F72697A656420666F722074 PUSH1 0x44 DUP3 ADD MSTORE PUSH9 0x1A1A5CC81D985D5B1D PUSH1 0xBA SHL DUP2 DUP5 ADD MSTORE PUSH1 0x84 SWAP1 REVERT JUMPDEST PUSH1 0x1 SWAP1 PUSH1 0x20 DUP5 MLOAD SWAP5 ADD SWAP4 DUP2 DUP5 ADD SSTORE ADD PUSH2 0x2C05 JUMP JUMPDEST ADD MLOAD SWAP1 POP DUP13 DUP1 PUSH2 0x2B58 JUMP JUMPDEST SWAP1 PUSH1 0x4 DUP6 ADD PUSH1 0x0 MSTORE PUSH1 0x20 PUSH1 0x0 KECCAK256 SWAP2 PUSH1 0x0 JUMPDEST PUSH1 0x1F NOT DUP6 AND DUP2 LT PUSH2 0x2F44 JUMPI POP SWAP2 DUP4 SWAP2 PUSH1 0x1 SWAP4 PUSH2 0x100 SWAP7 SWAP6 PUSH1 0x1F NOT DUP2 AND LT PUSH2 0x2F2B JUMPI JUMPDEST POP POP POP DUP2 SHL ADD PUSH1 0x4 DUP5 ADD SSTORE PUSH2 0x2B70 JUMP JUMPDEST ADD MLOAD PUSH1 0x0 NOT PUSH1 0xF8 DUP5 PUSH1 0x3 SHL AND SHR NOT AND SWAP1 SSTORE DUP13 DUP1 DUP1 PUSH2 0x2F1B JUMP JUMPDEST SWAP2 SWAP3 PUSH1 0x20 PUSH1 0x1 DUP2 SWAP3 DUP7 DUP6 ADD MLOAD DUP2 SSTORE ADD SWAP5 ADD SWAP3 ADD PUSH2 0x2EF9 JUMP JUMPDEST ADD MLOAD SWAP1 POP DUP12 DUP1 PUSH2 0x2AFC JUMP JUMPDEST SWAP3 POP PUSH1 0x3 DUP6 ADD PUSH1 0x0 MSTORE PUSH1 0x20 PUSH1 0x0 KECCAK256 SWAP1 PUSH1 0x0 SWAP4 JUMPDEST PUSH1 0x1F NOT DUP5 AND DUP6 LT PUSH2 0x2FBE JUMPI PUSH1 0x1 SWAP5 POP DUP4 PUSH1 0x1F NOT DUP2 AND LT PUSH2 0x2FA5 JUMPI JUMPDEST POP POP POP DUP2 SHL ADD PUSH1 0x3 DUP4 ADD SSTORE PUSH2 0x2B14 JUMP JUMPDEST ADD MLOAD PUSH1 0x0 NOT PUSH1 0xF8 DUP5 PUSH1 0x3 SHL AND SHR NOT AND SWAP1 SSTORE DUP12 DUP1 DUP1 PUSH2 0x2F95 JUMP JUMPDEST DUP2 DUP2 ADD MLOAD DUP4 SSTORE PUSH1 0x20 SWAP5 DUP6 ADD SWAP5 PUSH1 0x1 SWAP1 SWAP4 ADD SWAP3 SWAP1 SWAP2 ADD SWAP1 PUSH2 0x2F7A JUMP JUMPDEST ADD MLOAD SWAP1 POP DUP12 DUP1 PUSH2 0x2A9C JUMP JUMPDEST SWAP3 POP PUSH1 0x2 DUP6 ADD PUSH1 0x0 MSTORE PUSH1 0x20 PUSH1 0x0 KECCAK256 SWAP1 PUSH1 0x0 SWAP4 JUMPDEST PUSH1 0x1F NOT DUP5 AND DUP6 LT PUSH2 0x303B JUMPI PUSH1 0x1 SWAP5 POP DUP4 PUSH1 0x1F NOT DUP2 AND LT PUSH2 0x3022 JUMPI JUMPDEST POP POP POP DUP2 SHL ADD PUSH1 0x2 DUP4 ADD SSTORE PUSH2 0x2AB4 JUMP JUMPDEST ADD MLOAD PUSH1 0x0 NOT PUSH1 0xF8 DUP5 PUSH1 0x3 SHL AND SHR NOT AND SWAP1 SSTORE DUP12 DUP1 DUP1 PUSH2 0x3012 JUMP JUMPDEST DUP2 DUP2 ADD MLOAD DUP4 SSTORE PUSH1 0x20 SWAP5 DUP6 ADD SWAP5 PUSH1 0x1 SWAP1 SWAP4 ADD SWAP3 SWAP1 SWAP2 ADD SWAP1 PUSH2 0x2FF7 JUMP JUMPDEST ADD MLOAD SWAP1 POP DUP12 DUP1 PUSH2 0x2A3C JUMP JUMPDEST SWAP3 POP PUSH1 0x1 DUP6 ADD PUSH1 0x0 MSTORE PUSH1 0x20 PUSH1 0x0 KECCAK256 SWAP1 PUSH1 0x0 SWAP4 JUMPDEST PUSH1 0x1F NOT DUP5 AND DUP6 LT PUSH2 0x30B8 JUMPI PUSH1 0x1 SWAP5 POP DUP4 PUSH1 0x1F NOT DUP2 AND LT PUSH2 0x309F JUMPI JUMPDEST POP POP POP DUP2 SHL ADD PUSH1 0x1 DUP4 ADD SSTORE PUSH2 0x2A54 JUMP JUMPDEST ADD MLOAD PUSH1 0x0 NOT PUSH1 0xF8 DUP5 PUSH1 0x3 SHL AND SHR NOT AND SWAP1 SSTORE DUP12 DUP1 DUP1 PUSH2 0x308F JUMP JUMPDEST DUP2 DUP2 ADD MLOAD DUP4 SSTORE PUSH1 0x20 SWAP5 DUP6 ADD SWAP5 PUSH1 0x1 SWAP1 SWAP4 ADD SWAP3 SWAP1 SWAP2 ADD SWAP1 PUSH2 0x3074 JUMP JUMPDEST PUSH1 0x40 MLOAD PUSH3 0x461BCD PUSH1 0xE5 SHL DUP2 MSTORE PUSH1 0x20 PUSH1 0x4 DUP3 ADD MSTORE PUSH1 0x16 PUSH1 0x24 DUP3 ADD MSTORE PUSH22 0x436F6E7461637420616C726561647920657869737473 PUSH1 0x50 SHL PUSH1 0x44 DUP3 ADD MSTORE DUP6 SWAP1 REVERT JUMPDEST PUSH1 0x40 MLOAD PUSH3 0x461BCD PUSH1 0xE5 SHL DUP2 MSTORE PUSH1 0x20 PUSH1 0x4 DUP3 ADD MSTORE PUSH1 0x1E PUSH1 0x24 DUP3 ADD MSTORE PUSH32 0x43616E6E6F742061646420796F757273656C6620617320636F6E746163740000 PUSH1 0x44 DUP3 ADD MSTORE DUP6 SWAP1 REVERT JUMPDEST CALLVALUE PUSH2 0x33E JUMPI PUSH1 0x40 CALLDATASIZE PUSH1 0x3 NOT ADD SLT PUSH2 0x33E JUMPI PUSH2 0x316D PUSH2 0x3916 JUMP JUMPDEST PUSH2 0x3175 PUSH2 0x392C JUMP JUMPDEST SWAP1 PUSH1 0x1 DUP1 PUSH1 0xA0 SHL SUB DUP1 SWAP2 AND PUSH1 0x0 MSTORE PUSH1 0x1 PUSH1 0x20 MSTORE PUSH1 0x40 PUSH1 0x0 KECCAK256 SWAP2 AND PUSH1 0x0 MSTORE PUSH1 0x20 MSTORE PUSH2 0x259 PUSH2 0xC3C PUSH1 0x6 PUSH1 0x40 PUSH1 0x0 KECCAK256 ADD PUSH2 0x3F1A JUMP JUMPDEST CALLVALUE PUSH2 0x33E JUMPI PUSH1 0xA0 CALLDATASIZE PUSH1 0x3 NOT ADD SLT PUSH2 0x33E JUMPI PUSH1 0x4 CALLDATALOAD PUSH1 0x1 PUSH1 0x1 PUSH1 0x40 SHL SUB DUP2 GT PUSH2 0x33E JUMPI PUSH2 0x31D8 SWAP1 CALLDATASIZE SWAP1 PUSH1 0x4 ADD PUSH2 0x38E9 JUMP JUMPDEST SWAP1 PUSH1 0x24 CALLDATALOAD PUSH1 0x1 PUSH1 0x1 PUSH1 0x40 SHL SUB DUP2 GT PUSH2 0x33E JUMPI PUSH2 0x31F8 SWAP1 CALLDATASIZE SWAP1 PUSH1 0x4 ADD PUSH2 0x38E9 JUMP JUMPDEST PUSH1 0x44 SWAP4 SWAP2 SWAP4 CALLDATALOAD PUSH1 0x1 PUSH1 0x1 PUSH1 0x40 SHL SUB DUP2 GT PUSH2 0x33E JUMPI PUSH2 0x321A SWAP1 CALLDATASIZE SWAP1 PUSH1 0x4 ADD PUSH2 0x38E9 JUMP JUMPDEST SWAP6 PUSH1 0x64 CALLDATALOAD PUSH1 0x1 PUSH1 0x1 PUSH1 0x40 SHL SUB DUP2 GT PUSH2 0x33E JUMPI PUSH2 0x323A SWAP1 CALLDATASIZE SWAP1 PUSH1 0x4 ADD PUSH2 0x38E9 JUMP JUMPDEST SWAP3 SWAP1 SWAP2 CALLER PUSH1 0x0 MSTORE PUSH1 0x0 PUSH1 0x20 MSTORE PUSH1 0xFF PUSH1 0x7 PUSH1 0x40 PUSH1 0x0 KECCAK256 ADD SLOAD PUSH1 0x8 SHR AND PUSH2 0x38A7 JUMPI POP PUSH3 0x15180 PUSH1 0x84 CALLDATALOAD LT PUSH2 0x3862 JUMPI PUSH4 0x1E13380 PUSH1 0x84 CALLDATALOAD GT PUSH2 0x381D JUMPI PUSH1 0x40 MLOAD SWAP2 PUSH2 0x3280 DUP4 PUSH2 0x3B48 JUMP JUMPDEST PUSH1 0x0 DUP4 MSTORE PUSH1 0x40 MLOAD SWAP4 PUSH2 0x3291 DUP6 PUSH2 0x3B48 JUMP JUMPDEST PUSH1 0x0 DUP6 MSTORE PUSH1 0x40 MLOAD SWAP10 DUP11 PUSH2 0x160 DUP2 ADD LT PUSH1 0x1 PUSH1 0x1 PUSH1 0x40 SHL SUB PUSH2 0x160 DUP14 ADD GT OR PUSH2 0x195A JUMPI PUSH2 0x32FB SWAP4 PUSH2 0x32EF SWAP2 DUP13 PUSH1 0x40 PUSH2 0x32E5 DUP15 PUSH2 0x32D8 DUP16 DUP16 PUSH2 0x160 DUP8 ADD DUP7 MSTORE CALLER DUP8 MSTORE CALLDATASIZE SWAP2 PUSH2 0x3BCD JUMP JUMPDEST PUSH1 0x20 DUP6 ADD MSTORE DUP13 CALLDATASIZE SWAP2 PUSH2 0x3BCD JUMP JUMPDEST SWAP2 ADD MSTORE CALLDATASIZE SWAP2 PUSH2 0x3BCD JUMP JUMPDEST PUSH1 0x60 DUP12 ADD MSTORE CALLDATASIZE SWAP2 PUSH2 0x3BCD JUMP JUMPDEST PUSH1 0x80 DUP9 ADD MSTORE TIMESTAMP PUSH1 0xA0 DUP9 ADD MSTORE PUSH1 0x84 CALLDATALOAD PUSH1 0xC0 DUP9 ADD MSTORE PUSH1 0x0 PUSH1 0xE0 DUP9 ADD MSTORE PUSH1 0x1 PUSH2 0x100 DUP9 ADD MSTORE PUSH2 0x120 DUP8 ADD MSTORE PUSH2 0x140 DUP7 ADD MSTORE CALLER PUSH1 0x0 MSTORE PUSH1 0x0 PUSH1 0x20 MSTORE PUSH1 0x40 PUSH1 0x0 KECCAK256 PUSH1 0x1 DUP1 PUSH1 0xA0 SHL SUB DUP7 MLOAD AND PUSH1 0x1 PUSH1 0x1 PUSH1 0x60 SHL SUB PUSH1 0xA0 SHL DUP3 SLOAD AND OR DUP2 SSTORE PUSH1 0x20 DUP7 ADD MLOAD DUP1 MLOAD SWAP1 PUSH1 0x1 PUSH1 0x1 PUSH1 0x40 SHL SUB DUP3 GT PUSH2 0x195A JUMPI DUP2 SWAP1 PUSH2 0x337B DUP3 PUSH2 0x16EA PUSH1 0x1 DUP8 ADD SLOAD PUSH2 0x3C13 JUMP JUMPDEST PUSH1 0x20 SWAP1 PUSH1 0x1F DUP4 GT PUSH1 0x1 EQ PUSH2 0x37AB JUMPI PUSH1 0x0 SWAP3 PUSH2 0x37A0 JUMPI JUMPDEST POP POP DUP2 PUSH1 0x1 SHL SWAP2 PUSH1 0x0 NOT SWAP1 PUSH1 0x3 SHL SHR NOT AND OR PUSH1 0x1 DUP3 ADD SSTORE JUMPDEST PUSH1 0x40 DUP7 ADD MLOAD DUP1 MLOAD SWAP1 PUSH1 0x1 PUSH1 0x1 PUSH1 0x40 SHL SUB DUP3 GT PUSH2 0x195A JUMPI DUP2 SWAP1 PUSH2 0x33DB DUP3 PUSH2 0x33D2 PUSH1 0x2 DUP8 ADD SLOAD PUSH2 0x3C13 JUMP JUMPDEST PUSH1 0x2 DUP8 ADD PUSH2 0x3C64 JUMP JUMPDEST PUSH1 0x20 SWAP1 PUSH1 0x1F DUP4 GT PUSH1 0x1 EQ PUSH2 0x372E JUMPI PUSH1 0x0 SWAP3 PUSH2 0x3723 JUMPI JUMPDEST POP POP DUP2 PUSH1 0x1 SHL SWAP2 PUSH1 0x0 NOT SWAP1 PUSH1 0x3 SHL SHR NOT AND OR PUSH1 0x2 DUP3 ADD SSTORE JUMPDEST PUSH1 0x60 DUP7 ADD MLOAD DUP1 MLOAD SWAP1 PUSH1 0x1 PUSH1 0x1 PUSH1 0x40 SHL SUB DUP3 GT PUSH2 0x195A JUMPI DUP2 SWAP1 PUSH2 0x3432 DUP3 PUSH2 0x1784 PUSH1 0x3 DUP8 ADD SLOAD PUSH2 0x3C13 JUMP JUMPDEST PUSH1 0x20 SWAP1 PUSH1 0x1F DUP4 GT PUSH1 0x1 EQ PUSH2 0x36B1 JUMPI PUSH1 0x0 SWAP3 PUSH2 0x36A6 JUMPI JUMPDEST POP POP DUP2 PUSH1 0x1 SHL SWAP2 PUSH1 0x0 NOT SWAP1 PUSH1 0x3 SHL SHR NOT AND OR PUSH1 0x3 DUP3 ADD SSTORE JUMPDEST PUSH1 0x80 DUP7 ADD MLOAD DUP1 MLOAD SWAP1 PUSH1 0x1 PUSH1 0x1 PUSH1 0x40 SHL SUB DUP3 GT PUSH2 0x195A JUMPI DUP2 SWAP1 PUSH2 0x3489 DUP3 PUSH2 0x17E4 PUSH1 0x4 DUP8 ADD SLOAD PUSH2 0x3C13 JUMP JUMPDEST PUSH1 0x20 SWAP1 PUSH1 0x1F DUP4 GT PUSH1 0x1 EQ PUSH2 0x3634 JUMPI PUSH1 0x0 SWAP3 PUSH2 0x3629 JUMPI JUMPDEST POP POP DUP2 PUSH1 0x1 SHL SWAP2 PUSH1 0x0 NOT SWAP1 PUSH1 0x3 SHL SHR NOT AND OR PUSH1 0x4 DUP3 ADD SSTORE JUMPDEST PUSH1 0xA0 DUP7 ADD MLOAD PUSH1 0x5 DUP3 ADD SSTORE PUSH1 0xC0 DUP7 ADD MLOAD PUSH1 0x6 DUP3 ADD SSTORE PUSH2 0x350A PUSH1 0x7 DUP3 ADD PUSH2 0x34EE PUSH1 0xE0 DUP10 ADD MLOAD ISZERO ISZERO DUP3 SWAP1 PUSH1 0xFF DUP1 NOT DUP4 SLOAD AND SWAP2 ISZERO ISZERO AND OR SWAP1 SSTORE JUMP JUMPDEST PUSH2 0x100 DUP9 ADD MLOAD DUP2 SLOAD PUSH2 0xFF00 NOT AND SWAP1 ISZERO ISZERO PUSH1 0x8 SHL PUSH2 0xFF00 AND OR SWAP1 SSTORE JUMP JUMPDEST PUSH2 0x120 DUP7 ADD MLOAD SWAP1 DUP2 MLOAD PUSH1 0x1 PUSH1 0x1 PUSH1 0x40 SHL SUB DUP2 GT PUSH2 0x195A JUMPI PUSH1 0x1 PUSH1 0x40 SHL SWAP3 DUP4 DUP3 GT PUSH2 0x195A JUMPI PUSH1 0x20 PUSH1 0x8 DUP5 ADD SWAP2 PUSH2 0x3544 DUP5 DUP5 SLOAD DUP2 DUP7 SSTORE DUP6 PUSH2 0x3CAB JUMP JUMPDEST ADD SWAP1 PUSH1 0x0 MSTORE PUSH1 0x20 PUSH1 0x0 KECCAK256 PUSH1 0x0 JUMPDEST DUP4 DUP2 LT PUSH2 0x360C JUMPI POP POP POP POP PUSH1 0x9 PUSH2 0x140 SWAP2 ADD SWAP7 ADD MLOAD DUP1 MLOAD SWAP2 PUSH1 0x1 PUSH1 0x1 PUSH1 0x40 SHL SUB DUP4 GT PUSH2 0x195A JUMPI DUP3 GT PUSH2 0x195A JUMPI PUSH1 0x20 SWAP1 PUSH2 0x358F DUP4 DUP10 SLOAD DUP2 DUP12 SSTORE DUP11 PUSH2 0x3CAB JUMP JUMPDEST ADD SWAP6 PUSH1 0x0 MSTORE PUSH1 0x20 PUSH1 0x0 KECCAK256 SWAP6 PUSH1 0x0 JUMPDEST DUP3 DUP2 LT PUSH2 0x35F8 JUMPI DUP7 PUSH32 0x90FDCD9183750BDFB11BE5D6379C04E744E8F650AAC530EA853C19226EA7EB2B DUP8 DUP8 PUSH2 0x35F3 DUP9 PUSH2 0x35E3 PUSH1 0x40 MLOAD SWAP5 DUP6 SWAP5 PUSH1 0x40 DUP7 MSTORE PUSH1 0x40 DUP7 ADD SWAP2 PUSH2 0x3CCE JUMP JUMPDEST SWAP1 DUP4 DUP3 SUB PUSH1 0x20 DUP6 ADD MSTORE CALLER SWAP7 PUSH2 0x3CCE JUMP JUMPDEST SUB SWAP1 LOG2 STOP JUMPDEST PUSH1 0x1 SWAP1 PUSH1 0x20 DUP4 MLOAD SWAP4 ADD SWAP3 DUP2 DUP11 ADD SSTORE ADD PUSH2 0x359D JUMP JUMPDEST DUP3 MLOAD PUSH1 0x1 PUSH1 0x1 PUSH1 0xA0 SHL SUB AND DUP2 DUP4 ADD SSTORE PUSH1 0x20 SWAP1 SWAP3 ADD SWAP2 PUSH1 0x1 ADD PUSH2 0x3551 JUMP JUMPDEST ADD MLOAD SWAP1 POP DUP9 DUP1 PUSH2 0x349F JUMP JUMPDEST SWAP3 POP PUSH1 0x4 DUP5 ADD PUSH1 0x0 MSTORE PUSH1 0x20 PUSH1 0x0 KECCAK256 SWAP1 PUSH1 0x0 SWAP4 JUMPDEST PUSH1 0x1F NOT DUP5 AND DUP6 LT PUSH2 0x368B JUMPI PUSH1 0x1 SWAP5 POP DUP4 PUSH1 0x1F NOT DUP2 AND LT PUSH2 0x3672 JUMPI JUMPDEST POP POP POP DUP2 SHL ADD PUSH1 0x4 DUP3 ADD SSTORE PUSH2 0x34B7 JUMP JUMPDEST ADD MLOAD PUSH1 0x0 NOT PUSH1 0xF8 DUP5 PUSH1 0x3 SHL AND SHR NOT AND SWAP1 SSTORE DUP9 DUP1 DUP1 PUSH2 0x3662 JUMP JUMPDEST DUP2 DUP2 ADD MLOAD DUP4 SSTORE PUSH1 0x20 SWAP5 DUP6 ADD SWAP5 PUSH1 0x1 SWAP1 SWAP4 ADD SWAP3 SWAP1 SWAP2 ADD SWAP1 PUSH2 0x3647 JUMP JUMPDEST ADD MLOAD SWAP1 POP DUP9 DUP1 PUSH2 0x3448 JUMP JUMPDEST SWAP3 POP PUSH1 0x3 DUP5 ADD PUSH1 0x0 MSTORE PUSH1 0x20 PUSH1 0x0 KECCAK256 SWAP1 PUSH1 0x0 SWAP4 JUMPDEST PUSH1 0x1F NOT DUP5 AND DUP6 LT PUSH2 0x3708 JUMPI PUSH1 0x1 SWAP5 POP DUP4 PUSH1 0x1F NOT DUP2 AND LT PUSH2 0x36EF JUMPI JUMPDEST POP POP POP DUP2 SHL ADD PUSH1 0x3 DUP3 ADD SSTORE PUSH2 0x3460 JUMP JUMPDEST ADD MLOAD PUSH1 0x0 NOT PUSH1 0xF8 DUP5 PUSH1 0x3 SHL AND SHR NOT AND SWAP1 SSTORE DUP9 DUP1 DUP1 PUSH2 0x36DF JUMP JUMPDEST DUP2 DUP2 ADD MLOAD DUP4 SSTORE PUSH1 0x20 SWAP5 DUP6 ADD SWAP5 PUSH1 0x1 SWAP1 SWAP4 ADD SWAP3 SWAP1 SWAP2 ADD SWAP1 PUSH2 0x36C4 JUMP JUMPDEST ADD MLOAD SWAP1 POP DUP9 DUP1 PUSH2 0x33F1 JUMP JUMPDEST SWAP3 POP PUSH1 0x2 DUP5 ADD PUSH1 0x0 MSTORE PUSH1 0x20 PUSH1 0x0 KECCAK256 SWAP1 PUSH1 0x0 SWAP4 JUMPDEST PUSH1 0x1F NOT DUP5 AND DUP6 LT PUSH2 0x3785 JUMPI PUSH1 0x1 SWAP5 POP DUP4 PUSH1 0x1F NOT DUP2 AND LT PUSH2 0x376C JUMPI JUMPDEST POP POP POP DUP2 SHL ADD PUSH1 0x2 DUP3 ADD SSTORE PUSH2 0x3409 JUMP JUMPDEST ADD MLOAD PUSH1 0x0 NOT PUSH1 0xF8 DUP5 PUSH1 0x3 SHL AND SHR NOT AND SWAP1 SSTORE DUP9 DUP1 DUP1 PUSH2 0x375C JUMP JUMPDEST DUP2 DUP2 ADD MLOAD DUP4 SSTORE PUSH1 0x20 SWAP5 DUP6 ADD SWAP5 PUSH1 0x1 SWAP1 SWAP4 ADD SWAP3 SWAP1 SWAP2 ADD SWAP1 PUSH2 0x3741 JUMP JUMPDEST ADD MLOAD SWAP1 POP DUP9 DUP1 PUSH2 0x3391 JUMP JUMPDEST SWAP3 POP PUSH1 0x1 DUP5 ADD PUSH1 0x0 MSTORE PUSH1 0x20 PUSH1 0x0 KECCAK256 SWAP1 PUSH1 0x0 SWAP4 JUMPDEST PUSH1 0x1F NOT DUP5 AND DUP6 LT PUSH2 0x3802 JUMPI PUSH1 0x1 SWAP5 POP DUP4 PUSH1 0x1F NOT DUP2 AND LT PUSH2 0x37E9 JUMPI JUMPDEST POP POP POP DUP2 SHL ADD PUSH1 0x1 DUP3 ADD SSTORE PUSH2 0x33A9 JUMP JUMPDEST ADD MLOAD PUSH1 0x0 NOT PUSH1 0xF8 DUP5 PUSH1 0x3 SHL AND SHR NOT AND SWAP1 SSTORE DUP9 DUP1 DUP1 PUSH2 0x37D9 JUMP JUMPDEST DUP2 DUP2 ADD MLOAD DUP4 SSTORE PUSH1 0x20 SWAP5 DUP6 ADD SWAP5 PUSH1 0x1 SWAP1 SWAP4 ADD SWAP3 SWAP1 SWAP2 ADD SWAP1 PUSH2 0x37BE JUMP JUMPDEST PUSH1 0x40 MLOAD PUSH3 0x461BCD PUSH1 0xE5 SHL DUP2 MSTORE PUSH1 0x20 PUSH1 0x4 DUP3 ADD MSTORE PUSH1 0x17 PUSH1 0x24 DUP3 ADD MSTORE PUSH32 0x477261636520696E74657276616C20746F6F206C6F6E67000000000000000000 PUSH1 0x44 DUP3 ADD MSTORE PUSH1 0x64 SWAP1 REVERT JUMPDEST PUSH1 0x40 MLOAD PUSH3 0x461BCD PUSH1 0xE5 SHL DUP2 MSTORE PUSH1 0x20 PUSH1 0x4 DUP3 ADD MSTORE PUSH1 0x18 PUSH1 0x24 DUP3 ADD MSTORE PUSH32 0x477261636520696E74657276616C20746F6F2073686F72740000000000000000 PUSH1 0x44 DUP3 ADD MSTORE PUSH1 0x64 SWAP1 REVERT JUMPDEST PUSH3 0x461BCD PUSH1 0xE5 SHL DUP2 MSTORE PUSH1 0x20 PUSH1 0x4 DUP3 ADD MSTORE PUSH1 0x18 PUSH1 0x24 DUP3 ADD MSTORE PUSH32 0x4F776E657220616C726561647920726567697374657265640000000000000000 PUSH1 0x44 DUP3 ADD MSTORE PUSH1 0x64 SWAP1 REVERT JUMPDEST SWAP2 DUP2 PUSH1 0x1F DUP5 ADD SLT ISZERO PUSH2 0x33E JUMPI DUP3 CALLDATALOAD SWAP2 PUSH1 0x1 PUSH1 0x1 PUSH1 0x40 SHL SUB DUP4 GT PUSH2 0x33E JUMPI PUSH1 0x20 DUP4 DUP2 DUP7 ADD SWAP6 ADD ADD GT PUSH2 0x33E JUMPI JUMP JUMPDEST PUSH1 0x4 CALLDATALOAD SWAP1 PUSH1 0x1 PUSH1 0x1 PUSH1 0xA0 SHL SUB DUP3 AND DUP3 SUB PUSH2 0x33E JUMPI JUMP JUMPDEST PUSH1 0x24 CALLDATALOAD SWAP1 PUSH1 0x1 PUSH1 0x1 PUSH1 0xA0 SHL SUB DUP3 AND DUP3 SUB PUSH2 0x33E JUMPI JUMP JUMPDEST SWAP1 DUP2 MLOAD DUP1 DUP3 MSTORE PUSH1 0x20 DUP1 DUP1 SWAP4 ADD SWAP4 ADD SWAP2 PUSH1 0x0 JUMPDEST DUP3 DUP2 LT PUSH2 0x3962 JUMPI POP POP POP POP SWAP1 JUMP JUMPDEST DUP4 MLOAD DUP6 MSTORE SWAP4 DUP2 ADD SWAP4 SWAP3 DUP2 ADD SWAP3 PUSH1 0x1 ADD PUSH2 0x3954 JUMP JUMPDEST SWAP2 SWAP1 DUP3 MLOAD SWAP3 DUP4 DUP3 MSTORE PUSH1 0x0 JUMPDEST DUP5 DUP2 LT PUSH2 0x39A2 JUMPI POP POP DUP3 PUSH1 0x0 PUSH1 0x20 DUP1 SWAP5 SWAP6 DUP5 ADD ADD MSTORE PUSH1 0x1F DUP1 NOT SWAP2 ADD AND ADD ADD SWAP1 JUMP JUMPDEST PUSH1 0x20 DUP2 DUP4 ADD DUP2 ADD MLOAD DUP5 DUP4 ADD DUP3 ADD MSTORE ADD PUSH2 0x3981 JUMP JUMPDEST SWAP1 DUP1 DUP2 DUP4 MLOAD SWAP2 DUP3 DUP3 MSTORE PUSH1 0x20 DUP1 DUP1 DUP1 SWAP5 ADD SWAP6 DUP6 PUSH1 0x5 SHL ADD ADD SWAP6 ADD SWAP4 PUSH1 0x0 SWAP2 JUMPDEST DUP5 DUP4 LT PUSH2 0x39E4 JUMPI POP POP POP POP POP POP SWAP1 JUMP JUMPDEST SWAP1 SWAP2 SWAP3 SWAP4 SWAP5 SWAP6 DUP5 DUP1 PUSH2 0x3A02 PUSH1 0x1 SWAP4 PUSH1 0x1F NOT DUP7 DUP3 SUB ADD DUP8 MSTORE DUP11 MLOAD PUSH2 0x3976 JUMP JUMPDEST SWAP9 ADD SWAP4 ADD SWAP4 ADD SWAP2 SWAP5 SWAP4 SWAP3 SWAP1 PUSH2 0x39D4 JUMP JUMPDEST SWAP1 DUP2 MLOAD DUP1 DUP3 MSTORE PUSH1 0x20 DUP1 DUP1 SWAP4 ADD SWAP4 ADD SWAP2 PUSH1 0x0 JUMPDEST DUP3 DUP2 LT PUSH2 0x3A32 JUMPI POP POP POP POP SWAP1 JUMP JUMPDEST DUP4 MLOAD PUSH1 0x1 PUSH1 0x1 PUSH1 0xA0 SHL SUB AND DUP6 MSTORE SWAP4 DUP2 ADD SWAP4 SWAP3 DUP2 ADD SWAP3 PUSH1 0x1 ADD PUSH2 0x3A24 JUMP JUMPDEST SWAP1 DUP2 MLOAD DUP1 DUP3 MSTORE PUSH1 0x20 DUP1 DUP1 SWAP4 ADD SWAP4 ADD SWAP2 PUSH1 0x0 JUMPDEST DUP3 DUP2 LT PUSH2 0x3A6F JUMPI POP POP POP POP SWAP1 JUMP JUMPDEST DUP4 MLOAD ISZERO ISZERO DUP6 MSTORE SWAP4 DUP2 ADD SWAP4 SWAP3 DUP2 ADD SWAP3 PUSH1 0x1 ADD PUSH2 0x3A61 JUMP JUMPDEST SWAP1 DUP1 DUP2 DUP4 MLOAD SWAP2 DUP3 DUP3 MSTORE PUSH1 0x20 DUP1 DUP1 DUP1 SWAP5 ADD SWAP6 DUP6 PUSH1 0x5 SHL ADD ADD SWAP6 ADD SWAP4 PUSH1 0x0 DUP1 SWAP3 JUMPDEST DUP6 DUP5 LT PUSH2 0x3AB5 JUMPI POP POP POP POP POP POP POP SWAP1 JUMP JUMPDEST SWAP1 SWAP2 SWAP3 SWAP4 DUP1 SWAP6 SWAP7 SWAP8 PUSH1 0x1F NOT DUP4 DUP3 SUB ADD DUP6 MSTORE DUP9 MLOAD SWAP1 DUP3 DUP1 DUP4 MLOAD SWAP3 DUP4 DUP2 MSTORE ADD SWAP3 ADD SWAP1 DUP6 SWAP1 JUMPDEST DUP1 DUP3 LT PUSH2 0x3AF8 JUMPI POP POP POP SWAP1 DUP1 PUSH1 0x1 SWAP3 SWAP10 ADD SWAP5 ADD SWAP5 ADD SWAP3 SWAP6 SWAP5 SWAP4 SWAP2 SWAP1 PUSH2 0x3AA4 JUMP JUMPDEST SWAP2 SWAP4 DUP1 PUSH1 0x1 SWAP3 SWAP5 DUP7 MLOAD DUP2 MSTORE ADD SWAP5 ADD SWAP3 ADD DUP9 SWAP4 SWAP3 SWAP2 PUSH2 0x3AD8 JUMP JUMPDEST PUSH2 0x120 DUP2 ADD SWAP1 DUP2 LT PUSH1 0x1 PUSH1 0x1 PUSH1 0x40 SHL SUB DUP3 GT OR PUSH2 0x195A JUMPI PUSH1 0x40 MSTORE JUMP JUMPDEST PUSH1 0xE0 DUP2 ADD SWAP1 DUP2 LT PUSH1 0x1 PUSH1 0x1 PUSH1 0x40 SHL SUB DUP3 GT OR PUSH2 0x195A JUMPI PUSH1 0x40 MSTORE JUMP JUMPDEST PUSH1 0x20 DUP2 ADD SWAP1 DUP2 LT PUSH1 0x1 PUSH1 0x1 PUSH1 0x40 SHL SUB DUP3 GT OR PUSH2 0x195A JUMPI PUSH1 0x40 MSTORE JUMP JUMPDEST SWAP1 PUSH1 0x1F DUP1 NOT SWAP2 ADD AND DUP2 ADD SWAP1 DUP2 LT PUSH1 0x1 PUSH1 0x1 PUSH1 0x40 SHL SUB DUP3 GT OR PUSH2 0x195A JUMPI PUSH1 0x40 MSTORE JUMP JUMPDEST PUSH1 0x1 PUSH1 0x1 PUSH1 0x40 SHL SUB DUP2 GT PUSH2 0x195A JUMPI PUSH1 0x5 SHL PUSH1 0x20 ADD SWAP1 JUMP JUMPDEST SWAP1 PUSH2 0x3BA5 DUP3 PUSH2 0x3B84 JUMP JUMPDEST PUSH2 0x3BB2 PUSH1 0x40 MLOAD SWAP2 DUP3 PUSH2 0x3B63 JUMP JUMPDEST DUP3 DUP2 MSTORE DUP1 SWAP3 PUSH2 0x3BC3 PUSH1 0x1F NOT SWAP2 PUSH2 0x3B84 JUMP JUMPDEST ADD SWAP1 PUSH1 0x20 CALLDATASIZE SWAP2 ADD CALLDATACOPY JUMP JUMPDEST SWAP3 SWAP2 SWAP3 PUSH1 0x1 PUSH1 0x1 PUSH1 0x40 SHL SUB DUP3 GT PUSH2 0x195A JUMPI PUSH1 0x40 MLOAD SWAP2 PUSH2 0x3BF6 PUSH1 0x1F DUP3 ADD PUSH1 0x1F NOT AND PUSH1 0x20 ADD DUP5 PUSH2 0x3B63 JUMP JUMPDEST DUP3 SWAP5 DUP2 DUP5 MSTORE DUP2 DUP4 ADD GT PUSH2 0x33E JUMPI DUP3 DUP2 PUSH1 0x20 SWAP4 DUP5 PUSH1 0x0 SWAP7 ADD CALLDATACOPY ADD ADD MSTORE JUMP JUMPDEST SWAP1 PUSH1 0x1 DUP3 DUP2 SHR SWAP3 AND DUP1 ISZERO PUSH2 0x3C43 JUMPI JUMPDEST PUSH1 0x20 DUP4 LT EQ PUSH2 0x3C2D JUMPI JUMP JUMPDEST PUSH4 0x4E487B71 PUSH1 0xE0 SHL PUSH1 0x0 MSTORE PUSH1 0x22 PUSH1 0x4 MSTORE PUSH1 0x24 PUSH1 0x0 REVERT JUMPDEST SWAP2 PUSH1 0x7F AND SWAP2 PUSH2 0x3C22 JUMP JUMPDEST DUP2 DUP2 LT PUSH2 0x3C58 JUMPI POP POP JUMP JUMPDEST PUSH1 0x0 DUP2 SSTORE PUSH1 0x1 ADD PUSH2 0x3C4D JUMP JUMPDEST SWAP2 SWAP1 PUSH1 0x1F DUP2 GT PUSH2 0x3C73 JUMPI POP POP POP JUMP JUMPDEST PUSH2 0x3C9F SWAP3 PUSH1 0x0 MSTORE PUSH1 0x20 PUSH1 0x0 KECCAK256 SWAP1 PUSH1 0x20 PUSH1 0x1F DUP5 ADD PUSH1 0x5 SHR DUP4 ADD SWAP4 LT PUSH2 0x3CA1 JUMPI JUMPDEST PUSH1 0x1F ADD PUSH1 0x5 SHR ADD SWAP1 PUSH2 0x3C4D JUMP JUMPDEST JUMP JUMPDEST SWAP1 SWAP2 POP DUP2 SWAP1 PUSH2 0x3C92 JUMP JUMPDEST SWAP2 DUP2 DUP2 LT PUSH2 0x3CB8 JUMPI POP POP POP JUMP JUMPDEST PUSH2 0x3C9F SWAP3 PUSH1 0x0 MSTORE PUSH1 0x20 PUSH1 0x0 KECCAK256 SWAP2 DUP3 ADD SWAP2 ADD PUSH2 0x3C4D JUMP JUMPDEST SWAP1 DUP1 PUSH1 0x20 SWAP4 SWAP3 DUP2 DUP5 MSTORE DUP5 DUP5 ADD CALLDATACOPY PUSH1 0x0 DUP3 DUP3 ADD DUP5 ADD MSTORE PUSH1 0x1F ADD PUSH1 0x1F NOT AND ADD ADD SWAP1 JUMP JUMPDEST ISZERO PUSH2 0x3CF6 JUMPI JUMP JUMPDEST PUSH1 0x40 MLOAD PUSH3 0x461BCD PUSH1 0xE5 SHL DUP2 MSTORE PUSH1 0x20 PUSH1 0x4 DUP3 ADD MSTORE PUSH1 0x14 PUSH1 0x24 DUP3 ADD MSTORE PUSH20 0x13DDDB995C881B9BDD081C9959DA5CDD195C9959 PUSH1 0x62 SHL PUSH1 0x44 DUP3 ADD MSTORE PUSH1 0x64 SWAP1 REVERT JUMPDEST DUP1 SLOAD DUP3 LT ISZERO PUSH2 0x3D4A JUMPI PUSH1 0x0 MSTORE PUSH1 0x20 PUSH1 0x0 KECCAK256 ADD SWAP1 PUSH1 0x0 SWAP1 JUMP JUMPDEST PUSH4 0x4E487B71 PUSH1 0xE0 SHL PUSH1 0x0 MSTORE PUSH1 0x32 PUSH1 0x4 MSTORE PUSH1 0x24 PUSH1 0x0 REVERT JUMPDEST DUP1 SLOAD PUSH1 0x1 PUSH1 0x40 SHL DUP2 LT ISZERO PUSH2 0x195A JUMPI PUSH2 0x3D7D SWAP2 PUSH1 0x1 DUP3 ADD DUP2 SSTORE PUSH2 0x3D32 JUMP JUMPDEST DUP2 SWAP3 SWAP2 SLOAD SWAP1 PUSH1 0x3 SHL SWAP2 PUSH1 0x1 DUP1 PUSH1 0xA0 SHL SUB DUP1 SWAP2 AND DUP4 SHL SWAP3 SHL NOT AND OR SWAP1 SSTORE JUMP JUMPDEST PUSH1 0x0 NOT DUP2 EQ PUSH2 0x3DAA JUMPI PUSH1 0x1 ADD SWAP1 JUMP JUMPDEST PUSH4 0x4E487B71 PUSH1 0xE0 SHL PUSH1 0x0 MSTORE PUSH1 0x11 PUSH1 0x4 MSTORE PUSH1 0x24 PUSH1 0x0 REVERT JUMPDEST ISZERO PUSH2 0x3DC7 JUMPI JUMP JUMPDEST PUSH1 0x40 MLOAD PUSH3 0x461BCD PUSH1 0xE5 SHL DUP2 MSTORE PUSH1 0x20 PUSH1 0x4 DUP3 ADD MSTORE PUSH1 0x14 PUSH1 0x24 DUP3 ADD MSTORE PUSH20 0x15985D5B1D08191BD95CC81B9BDD08195E1A5CDD PUSH1 0x62 SHL PUSH1 0x44 DUP3 ADD MSTORE PUSH1 0x64 SWAP1 REVERT JUMPDEST ISZERO PUSH2 0x3E0A JUMPI JUMP JUMPDEST PUSH1 0x40 MLOAD PUSH3 0x461BCD PUSH1 0xE5 SHL DUP2 MSTORE PUSH1 0x20 PUSH1 0x4 DUP3 ADD MSTORE PUSH1 0xF PUSH1 0x24 DUP3 ADD MSTORE PUSH15 0x2737BA103B30BAB63A1037BBB732B9 PUSH1 0x89 SHL PUSH1 0x44 DUP3 ADD MSTORE PUSH1 0x64 SWAP1 REVERT JUMPDEST DUP1 SLOAD PUSH1 0x1 PUSH1 0x40 SHL DUP2 LT ISZERO PUSH2 0x195A JUMPI PUSH2 0x3E5E SWAP2 PUSH1 0x1 DUP3 ADD DUP2 SSTORE PUSH2 0x3D32 JUMP JUMPDEST DUP2 SWAP3 SWAP2 SLOAD SWAP1 PUSH1 0x3 SHL SWAP2 DUP3 SHL SWAP2 PUSH1 0x0 NOT SWAP1 SHL NOT AND OR SWAP1 SSTORE JUMP JUMPDEST SWAP1 PUSH1 0x40 MLOAD SWAP2 DUP3 PUSH1 0x0 DUP3 SLOAD SWAP3 PUSH2 0x3E8A DUP5 PUSH2 0x3C13 JUMP JUMPDEST SWAP1 DUP2 DUP5 MSTORE PUSH1 0x1 SWAP5 DUP6 DUP2 AND SWAP1 DUP2 PUSH1 0x0 EQ PUSH2 0x3EF7 JUMPI POP PUSH1 0x1 EQ PUSH2 0x3EB4 JUMPI JUMPDEST POP POP PUSH2 0x3C9F SWAP3 POP SUB DUP4 PUSH2 0x3B63 JUMP JUMPDEST SWAP1 SWAP4 SWAP2 POP PUSH1 0x0 MSTORE PUSH1 0x20 SWAP1 DUP2 PUSH1 0x0 KECCAK256 SWAP4 PUSH1 0x0 SWAP2 JUMPDEST DUP2 DUP4 LT PUSH2 0x3EDF JUMPI POP POP PUSH2 0x3C9F SWAP4 POP DUP3 ADD ADD CODESIZE DUP1 PUSH2 0x3EA6 JUMP JUMPDEST DUP6 SLOAD DUP9 DUP5 ADD DUP6 ADD MSTORE SWAP5 DUP6 ADD SWAP5 DUP8 SWAP5 POP SWAP2 DUP4 ADD SWAP2 PUSH2 0x3EC7 JUMP JUMPDEST SWAP2 POP POP PUSH2 0x3C9F SWAP5 POP PUSH1 0x20 SWAP3 POP PUSH1 0xFF NOT AND DUP3 DUP5 ADD MSTORE ISZERO ISZERO PUSH1 0x5 SHL DUP3 ADD ADD CODESIZE DUP1 PUSH2 0x3EA6 JUMP JUMPDEST SWAP1 PUSH1 0x40 MLOAD SWAP2 DUP3 DUP2 SLOAD SWAP2 DUP3 DUP3 MSTORE PUSH1 0x20 SWAP3 DUP4 DUP4 ADD SWAP2 PUSH1 0x0 MSTORE DUP4 PUSH1 0x0 KECCAK256 SWAP4 PUSH1 0x0 SWAP1 JUMPDEST DUP3 DUP3 LT PUSH2 0x3F4F JUMPI POP POP POP PUSH2 0x3C9F SWAP3 POP SUB DUP4 PUSH2 0x3B63 JUMP JUMPDEST DUP6 SLOAD DUP5 MSTORE PUSH1 0x1 SWAP6 DUP7 ADD SWAP6 DUP9 SWAP6 POP SWAP4 DUP2 ADD SWAP4 SWAP1 SWAP2 ADD SWAP1 PUSH2 0x3F39 JUMP JUMPDEST DUP1 SLOAD DUP3 LT ISZERO PUSH2 0x3D4A JUMPI PUSH1 0x0 MSTORE PUSH1 0x6 PUSH1 0x20 PUSH1 0x0 KECCAK256 SWAP2 MUL ADD SWAP1 PUSH1 0x0 SWAP1 JUMP JUMPDEST SWAP1 DUP2 SLOAD SWAP1 PUSH1 0x1 PUSH1 0x40 SHL SWAP2 DUP3 DUP2 LT ISZERO PUSH2 0x195A JUMPI PUSH2 0x3FA8 SWAP1 PUSH1 0x1 SWAP5 DUP6 DUP3 ADD DUP2 SSTORE PUSH2 0x3F69 JUMP JUMPDEST PUSH2 0x4288 JUMPI DUP2 MLOAD DUP2 SSTORE DUP4 DUP2 ADD SWAP3 PUSH1 0x20 SWAP2 DUP3 DUP5 ADD MLOAD SWAP5 DUP6 MLOAD PUSH1 0x1 PUSH1 0x1 PUSH1 0x40 SHL SUB SWAP7 DUP8 DUP3 GT PUSH2 0x195A JUMPI DUP2 SWAP1 PUSH2 0x3FDE DUP3 PUSH2 0x1CFA DUP7 SLOAD PUSH2 0x3C13 JUMP JUMPDEST DUP7 SWAP1 PUSH1 0x1F DUP4 GT PUSH1 0x1 EQ PUSH2 0x4225 JUMPI PUSH1 0x0 SWAP3 PUSH2 0x421A JUMPI JUMPDEST POP POP PUSH1 0x0 NOT PUSH1 0x3 DUP4 SWAP1 SHL SHR NOT AND SWAP1 DUP9 SHL OR SWAP1 SSTORE JUMPDEST PUSH1 0x40 DUP5 ADD MLOAD PUSH1 0x2 DUP3 ADD DUP1 SLOAD PUSH1 0x60 DUP8 ADD MLOAD PUSH1 0xFF PUSH1 0xA0 SHL SWAP1 ISZERO ISZERO PUSH1 0xA0 SHL AND PUSH1 0x1 PUSH1 0x1 PUSH1 0xA0 SHL SUB SWAP1 SWAP4 AND PUSH1 0x1 PUSH1 0x1 PUSH1 0xA8 SHL SUB NOT SWAP1 SWAP2 AND OR SWAP2 SWAP1 SWAP2 OR SWAP1 SSTORE PUSH1 0x3 DUP2 ADD PUSH1 0x80 DUP6 ADD MLOAD DUP1 MLOAD SWAP1 DUP8 DUP3 GT PUSH2 0x195A JUMPI DUP2 SWAP1 PUSH2 0x4064 DUP3 PUSH2 0x1CFA DUP7 SLOAD PUSH2 0x3C13 JUMP JUMPDEST DUP7 SWAP1 PUSH1 0x1F DUP4 GT PUSH1 0x1 EQ PUSH2 0x41B7 JUMPI PUSH1 0x0 SWAP3 PUSH2 0x41AC JUMPI JUMPDEST POP POP PUSH1 0x0 NOT PUSH1 0x3 DUP4 SWAP1 SHL SHR NOT AND SWAP1 DUP9 SHL OR SWAP1 SSTORE JUMPDEST PUSH1 0x4 DUP2 ADD PUSH1 0xA0 DUP6 ADD MLOAD DUP1 MLOAD SWAP1 DUP8 DUP3 GT PUSH2 0x195A JUMPI PUSH2 0x40AE DUP3 PUSH2 0x22BF DUP6 SLOAD PUSH2 0x3C13 JUMP JUMPDEST DUP6 SWAP1 PUSH1 0x1F DUP4 GT PUSH1 0x1 EQ PUSH2 0x413E JUMPI SWAP2 DUP1 PUSH1 0x5 SWAP5 SWAP3 PUSH1 0xC0 SWAP7 SWAP5 PUSH1 0x0 SWAP3 PUSH2 0x4133 JUMPI JUMPDEST POP POP PUSH1 0x0 NOT PUSH1 0x3 DUP4 SWAP1 SHL SHR NOT AND SWAP1 DUP11 SHL OR SWAP1 SSTORE JUMPDEST ADD SWAP4 ADD MLOAD SWAP1 DUP2 MLOAD SWAP5 DUP6 GT PUSH2 0x195A JUMPI DUP5 GT PUSH2 0x195A JUMPI DUP2 SWAP1 PUSH2 0x4106 DUP6 DUP6 SLOAD DUP2 DUP8 SSTORE DUP7 PUSH2 0x3CAB JUMP JUMPDEST ADD SWAP2 PUSH1 0x0 MSTORE DUP1 PUSH1 0x0 KECCAK256 SWAP1 PUSH1 0x0 JUMPDEST DUP5 DUP2 LT PUSH2 0x4122 JUMPI POP POP POP POP POP POP JUMP JUMPDEST DUP4 MLOAD DUP4 DUP3 ADD SSTORE SWAP3 DUP2 ADD SWAP3 DUP6 ADD PUSH2 0x4113 JUMP JUMPDEST ADD MLOAD SWAP1 POP CODESIZE DUP1 PUSH2 0x40CD JUMP JUMPDEST DUP10 SWAP3 SWAP2 PUSH1 0x1F NOT DUP4 AND SWAP2 DUP6 PUSH1 0x0 MSTORE DUP9 PUSH1 0x0 KECCAK256 SWAP3 PUSH1 0x0 JUMPDEST DUP11 DUP3 DUP3 LT PUSH2 0x4196 JUMPI POP POP SWAP2 PUSH1 0xC0 SWAP8 SWAP6 SWAP4 SWAP2 DUP6 PUSH1 0x5 SWAP9 SWAP7 SWAP5 LT PUSH2 0x417D JUMPI JUMPDEST POP POP POP DUP2 SHL ADD SWAP1 SSTORE PUSH2 0x40E1 JUMP JUMPDEST ADD MLOAD PUSH1 0x0 NOT PUSH1 0xF8 DUP5 PUSH1 0x3 SHL AND SHR NOT AND SWAP1 SSTORE CODESIZE DUP1 DUP1 PUSH2 0x4170 JUMP JUMPDEST DUP4 DUP6 ADD MLOAD DUP7 SSTORE DUP15 SWAP8 SWAP1 SWAP6 ADD SWAP5 SWAP4 DUP5 ADD SWAP4 ADD PUSH2 0x4153 JUMP JUMPDEST ADD MLOAD SWAP1 POP CODESIZE DUP1 PUSH2 0x4079 JUMP JUMPDEST SWAP1 DUP11 SWAP4 POP PUSH1 0x1F NOT DUP4 AND SWAP2 DUP6 PUSH1 0x0 MSTORE DUP9 PUSH1 0x0 KECCAK256 SWAP3 PUSH1 0x0 JUMPDEST DUP11 DUP3 DUP3 LT PUSH2 0x4204 JUMPI POP POP DUP5 GT PUSH2 0x41EB JUMPI JUMPDEST POP POP POP DUP2 SHL ADD SWAP1 SSTORE PUSH2 0x408D JUMP JUMPDEST ADD MLOAD PUSH1 0x0 NOT PUSH1 0xF8 DUP5 PUSH1 0x3 SHL AND SHR NOT AND SWAP1 SSTORE CODESIZE DUP1 DUP1 PUSH2 0x41DE JUMP JUMPDEST DUP4 DUP6 ADD MLOAD DUP7 SSTORE DUP15 SWAP8 SWAP1 SWAP6 ADD SWAP5 SWAP4 DUP5 ADD SWAP4 ADD PUSH2 0x41CD JUMP JUMPDEST ADD MLOAD SWAP1 POP CODESIZE DUP1 PUSH2 0x3FF3 JUMP JUMPDEST SWAP1 DUP11 SWAP4 POP PUSH1 0x1F NOT DUP4 AND SWAP2 DUP6 PUSH1 0x0 MSTORE DUP9 PUSH1 0x0 KECCAK256 SWAP3 PUSH1 0x0 JUMPDEST DUP11 DUP3 DUP3 LT PUSH2 0x4272 JUMPI POP POP DUP5 GT PUSH2 0x4259 JUMPI JUMPDEST POP POP POP DUP2 SHL ADD SWAP1 SSTORE PUSH2 0x4007 JUMP JUMPDEST ADD MLOAD PUSH1 0x0 NOT PUSH1 0xF8 DUP5 PUSH1 0x3 SHL AND SHR NOT AND SWAP1 SSTORE CODESIZE DUP1 DUP1 PUSH2 0x424C JUMP JUMPDEST DUP4 DUP6 ADD MLOAD DUP7 SSTORE DUP15 SWAP8 SWAP1 SWAP6 ADD SWAP5 SWAP4 DUP5 ADD SWAP4 ADD PUSH2 0x423B JUMP JUMPDEST PUSH4 0x4E487B71 PUSH1 0xE0 SHL PUSH1 0x0 MSTORE PUSH1 0x0 PUSH1 0x4 MSTORE PUSH1 0x24 PUSH1 0x0 REVERT JUMPDEST PUSH1 0x0 MSTORE PUSH1 0x2 PUSH1 0x20 MSTORE PUSH1 0x40 PUSH1 0x0 KECCAK256 SWAP1 PUSH1 0x6 PUSH1 0x0 SWAP3 ADD DUP1 SLOAD SWAP3 JUMPDEST DUP4 DUP2 LT PUSH2 0x42C6 JUMPI POP POP POP POP PUSH1 0x0 SWAP1 JUMP JUMPDEST PUSH2 0x42D0 DUP2 DUP4 PUSH2 0x3D32 JUMP JUMPDEST SWAP1 SLOAD PUSH1 0x3 SWAP2 SWAP1 SWAP2 SHL SHR PUSH1 0x1 PUSH1 0x1 PUSH1 0xA0 SHL SUB SWAP1 DUP2 AND SWAP1 DUP5 AND EQ PUSH2 0x42FA JUMPI PUSH2 0x42F5 SWAP1 PUSH2 0x3D9B JUMP JUMPDEST PUSH2 0x42B6 JUMP JUMPDEST POP POP POP POP PUSH1 0x1 SWAP1 JUMP JUMPDEST ISZERO PUSH2 0x430A JUMPI JUMP JUMPDEST PUSH1 0x40 MLOAD PUSH3 0x461BCD PUSH1 0xE5 SHL DUP2 MSTORE PUSH1 0x20 PUSH1 0x4 DUP3 ADD MSTORE PUSH1 0x1B PUSH1 0x24 DUP3 ADD MSTORE PUSH32 0x4E6F74206120636F6E74616374206F662074686973206F776E65720000000000 PUSH1 0x44 DUP3 ADD MSTORE PUSH1 0x64 SWAP1 REVERT JUMPDEST ISZERO PUSH2 0x4356 JUMPI JUMP JUMPDEST PUSH1 0x40 MLOAD PUSH3 0x461BCD PUSH1 0xE5 SHL DUP2 MSTORE PUSH1 0x20 PUSH1 0x4 DUP3 ADD MSTORE PUSH1 0x10 PUSH1 0x24 DUP3 ADD MSTORE PUSH16 0x4E6F20766F74696E6720726967687473 PUSH1 0x80 SHL PUSH1 0x44 DUP3 ADD MSTORE PUSH1 0x64 SWAP1 REVERT JUMPDEST PUSH1 0x1 DUP1 PUSH1 0xA0 SHL SUB AND PUSH1 0x0 DUP2 DUP2 MSTORE PUSH1 0x4 PUSH1 0x20 MSTORE PUSH1 0x40 DUP1 DUP3 KECCAK256 SWAP2 PUSH1 0x4 DUP4 ADD SLOAD PUSH1 0x32 DUP2 MUL SWAP1 DUP1 DUP3 DIV PUSH1 0x32 EQ SWAP1 ISZERO OR ISZERO PUSH2 0x448B JUMPI PUSH1 0x64 SWAP1 DIV PUSH1 0x1 DUP2 ADD DUP1 SWAP2 GT PUSH2 0x448B JUMPI PUSH1 0x2 DUP5 ADD SLOAD DUP2 GT PUSH2 0x4432 JUMPI POP PUSH32 0xAC892F9EA2BAC4D143F762134B209DE57EFB94B00C56302AAED590951368EAAC SWAP3 PUSH1 0x7 DUP4 DUP4 DUP8 PUSH1 0x5 SWAP6 MSTORE DUP1 PUSH1 0x20 MSTORE KECCAK256 ADD PUSH1 0x1 PUSH1 0xFF NOT DUP3 SLOAD AND OR SWAP1 SSTORE ADD PUSH2 0x100 PUSH2 0xFFFF NOT DUP3 SLOAD AND OR SWAP1 SSTORE DUP1 MLOAD PUSH1 0x1 DUP2 MSTORE TIMESTAMP PUSH1 0x20 DUP3 ADD MSTORE LOG2 JUMP JUMPDEST PUSH1 0x3 DUP5 ADD SLOAD LT ISZERO PUSH2 0x4444 JUMPI JUMPDEST POP POP POP POP JUMP JUMPDEST PUSH1 0x5 PUSH32 0xAC892F9EA2BAC4D143F762134B209DE57EFB94B00C56302AAED590951368EAAC SWAP4 ADD PUSH2 0x100 PUSH2 0xFFFF NOT DUP3 SLOAD AND OR SWAP1 SSTORE DUP2 MLOAD SWAP1 DUP2 MSTORE TIMESTAMP PUSH1 0x20 DUP3 ADD MSTORE LOG2 CODESIZE DUP1 DUP1 DUP1 PUSH2 0x443E JUMP JUMPDEST PUSH4 0x4E487B71 PUSH1 0xE0 SHL DUP3 MSTORE PUSH1 0x11 PUSH1 0x4 MSTORE PUSH1 0x24 DUP3 REVERT JUMPDEST SWAP1 PUSH1 0x40 MLOAD SWAP2 DUP3 DUP2 SLOAD SWAP2 DUP3 DUP3 MSTORE PUSH1 0x20 SWAP3 DUP4 DUP4 ADD SWAP2 PUSH1 0x0 MSTORE DUP4 PUSH1 0x0 KECCAK256 SWAP4 PUSH1 0x0 SWAP1 JUMPDEST DUP3 DUP3 LT PUSH2 0x44D4 JUMPI POP POP POP PUSH2 0x3C9F SWAP3 POP SUB DUP4 PUSH2 0x3B63 JUMP JUMPDEST DUP6 SLOAD PUSH1 0x1 PUSH1 0x1 PUSH1 0xA0 SHL SUB AND DUP5 MSTORE PUSH1 0x1 SWAP6 DUP7 ADD SWAP6 DUP9 SWAP6 POP SWAP4 DUP2 ADD SWAP4 SWAP1 SWAP2 ADD SWAP1 PUSH2 0x44BE JUMP JUMPDEST PUSH1 0x0 JUMPDEST DUP3 DUP2 LT PUSH2 0x4506 JUMPI POP POP POP JUMP JUMPDEST PUSH1 0x60 DUP3 DUP3 ADD MSTORE PUSH1 0x20 ADD PUSH2 0x44FA JUMP JUMPDEST SWAP1 PUSH2 0x3C9F PUSH2 0x4521 DUP4 PUSH2 0x3B84 JUMP JUMPDEST PUSH2 0x452E PUSH1 0x40 MLOAD SWAP2 DUP3 PUSH2 0x3B63 JUMP JUMPDEST DUP4 DUP2 MSTORE PUSH1 0x20 DUP2 SWAP5 PUSH2 0x4541 PUSH1 0x1F NOT SWAP2 PUSH2 0x3B84 JUMP JUMPDEST ADD SWAP2 ADD PUSH2 0x44F7 JUMP JUMPDEST DUP1 MLOAD DUP3 LT ISZERO PUSH2 0x3D4A JUMPI PUSH1 0x20 SWAP2 PUSH1 0x5 SHL ADD ADD SWAP1 JUMP INVALID LOG2 PUSH5 0x6970667358 0x22 SLT KECCAK256 DUP1 PUSH19 0x67C5E62A6150C63F027A06EBB0F238BBFBEC33 0xDB DUP2 0xD1 PUSH28 0xF31C81DF85723F64736F6C6343000813003300000000000000000000 "},"methodIdentifiers":{"addContact(address,string,string,string,string,bool,uint256[])":"1fe7fe7e","addVaultFile(uint256,string,string,string,string)":"329a5ac0","authorizeVaultContact(uint256,address)":"7366252c","createVault(string,string,string)":"33587dc4","declareDeceased(address)":"abc22bbe","getContactAuthorizedVaults(address,address)":"1d2f4368","getContactInfo(address,address)":"60f490f7","getContactList(address)":"b385faa8","getContactListDetails(address)":"d72d3e16","getContactVaultDetails(address)":"ceb15920","getDeathDeclarationStatus(address)":"996e6ca1","getOwnerInfo(address)":"d385de82","getOwnerVaultList(address)":"2fda53e7","getOwnerVaultListDetails(address)":"20261995","getVaultAuthorizedContacts(uint256)":"490f0eba","getVaultFileInfo(uint256,uint256)":"3bfb14f5","getVaultFileList(uint256)":"75843618","getVaultInfo(uint256)":"b1ba9620","getVote(address,address)":"5ab4f162","hasVoted(address,address)":"4d4d2b1c","isVaultAuthorized(uint256,address)":"52e20c4f","registerOwner(string,string,string,string,uint256)":"0accc75d","releaseVault(uint256)":"b2b2baed","sendHeartbeat()":"34f167a9","updateContactInfo(address,string,string,string,string)":"2c8bc50b","verifyContact(address)":"6880f137","voteOnDeathDeclaration(address,bool)":"4e8e32b5"}}}}}