{
  "_format": "hh-sol-artifact-1",
  "contractName": "LifeSignalRegistry",
  "sourceName": "contracts/LifeSignalRegistry.sol",
  "abi": [
    {
      "anonymous": false,
      "inputs": [
        {
          "indexed": true,
          "internalType": "address",
          "name": "owner",
          "type": "address"
        },
        {
          "indexed": false,
          "internalType": "bool",
          "name": "isDeceased",
          "type": "bool"
        },
        {
          "indexed": false,
          "internalType": "uint256",
          "name": "timestamp",
          "type": "uint256"
        }
      ],
      "name": "ConsensusReached",
      "type": "event"
    },
    {
      "anonymous": false,
      "inputs": [
        {
          "indexed": true,
          "internalType": "address",
          "name": "owner",
          "type": "address"
        },
        {
          "indexed": true,
          "internalType": "address",
          "name": "contact",
          "type": "address"
        },
        {
          "indexed": false,
          "internalType": "bool",
          "name": "hasVotingRight",
          "type": "bool"
        }
      ],
      "name": "ContactAdded",
      "type": "event"
    },
    {
      "anonymous": false,
      "inputs": [
        {
          "indexed": true,
          "internalType": "address",
          "name": "owner",
          "type": "address"
        },
        {
          "indexed": true,
          "internalType": "address",
          "name": "contact",
          "type": "address"
        }
      ],
      "name": "ContactVerified",
      "type": "event"
    },
    {
      "anonymous": false,
      "inputs": [
        {
          "indexed": true,
          "internalType": "address",
          "name": "owner",
          "type": "address"
        },
        {
          "indexed": true,
          "internalType": "address",
          "name": "declaredBy",
          "type": "address"
        },
        {
          "indexed": false,
          "internalType": "uint256",
          "name": "timestamp",
          "type": "uint256"
        }
      ],
      "name": "DeathDeclared",
      "type": "event"
    },
    {
      "anonymous": false,
      "inputs": [
        {
          "indexed": true,
          "internalType": "address",
          "name": "owner",
          "type": "address"
        },
        {
          "indexed": false,
          "internalType": "uint256",
          "name": "timestamp",
          "type": "uint256"
        }
      ],
      "name": "HeartbeatSent",
      "type": "event"
    },
    {
      "anonymous": false,
      "inputs": [
        {
          "indexed": true,
          "internalType": "address",
          "name": "owner",
          "type": "address"
        },
        {
          "indexed": false,
          "internalType": "string",
          "name": "firstName",
          "type": "string"
        },
        {
          "indexed": false,
          "internalType": "string",
          "name": "lastName",
          "type": "string"
        }
      ],
      "name": "OwnerRegistered",
      "type": "event"
    },
    {
      "anonymous": false,
      "inputs": [
        {
          "indexed": true,
          "internalType": "address",
          "name": "vaultId",
          "type": "address"
        },
        {
          "indexed": true,
          "internalType": "address",
          "name": "contact",
          "type": "address"
        }
      ],
      "name": "VaultContactAuthorized",
      "type": "event"
    },
    {
      "anonymous": false,
      "inputs": [
        {
          "indexed": true,
          "internalType": "address",
          "name": "vaultId",
          "type": "address"
        },
        {
          "indexed": true,
          "internalType": "address",
          "name": "owner",
          "type": "address"
        },
        {
          "indexed": false,
          "internalType": "string",
          "name": "name",
          "type": "string"
        }
      ],
      "name": "VaultCreated",
      "type": "event"
    },
    {
      "anonymous": false,
      "inputs": [
        {
          "indexed": true,
          "internalType": "address",
          "name": "vaultId",
          "type": "address"
        },
        {
          "indexed": false,
          "internalType": "string",
          "name": "fileId",
          "type": "string"
        },
        {
          "indexed": false,
          "internalType": "string",
          "name": "originalName",
          "type": "string"
        }
      ],
      "name": "VaultFileAdded",
      "type": "event"
    },
    {
      "anonymous": false,
      "inputs": [
        {
          "indexed": true,
          "internalType": "address",
          "name": "vaultId",
          "type": "address"
        },
        {
          "indexed": true,
          "internalType": "address",
          "name": "owner",
          "type": "address"
        }
      ],
      "name": "VaultReleased",
      "type": "event"
    },
    {
      "anonymous": false,
      "inputs": [
        {
          "indexed": true,
          "internalType": "address",
          "name": "owner",
          "type": "address"
        },
        {
          "indexed": true,
          "internalType": "address",
          "name": "voter",
          "type": "address"
        },
        {
          "indexed": false,
          "internalType": "bool",
          "name": "vote",
          "type": "bool"
        }
      ],
      "name": "VoteCast",
      "type": "event"
    },
    {
      "inputs": [
        {
          "internalType": "address",
          "name": "_contact",
          "type": "address"
        },
        {
          "internalType": "bool",
          "name": "_hasVotingRight",
          "type": "bool"
        }
      ],
      "name": "addContact",
      "outputs": [],
      "stateMutability": "nonpayable",
      "type": "function"
    },
    {
      "inputs": [
        {
          "internalType": "address",
          "name": "_vaultId",
          "type": "address"
        },
        {
          "internalType": "string",
          "name": "_fileId",
          "type": "string"
        },
        {
          "internalType": "string",
          "name": "_originalName",
          "type": "string"
        },
        {
          "internalType": "string",
          "name": "_mimeType",
          "type": "string"
        },
        {
          "internalType": "string",
          "name": "_cid",
          "type": "string"
        },
        {
          "internalType": "string",
          "name": "_uploadDate",
          "type": "string"
        }
      ],
      "name": "addVaultFile",
      "outputs": [],
      "stateMutability": "nonpayable",
      "type": "function"
    },
    {
      "inputs": [
        {
          "internalType": "address",
          "name": "_vaultId",
          "type": "address"
        },
        {
          "internalType": "address",
          "name": "_contact",
          "type": "address"
        }
      ],
      "name": "authorizeVaultContact",
      "outputs": [],
      "stateMutability": "nonpayable",
      "type": "function"
    },
    {
      "inputs": [
        {
          "internalType": "address",
          "name": "_vaultId",
          "type": "address"
        },
        {
          "internalType": "string",
          "name": "_name",
          "type": "string"
        },
        {
          "internalType": "string",
          "name": "_cypherIv",
          "type": "string"
        },
        {
          "internalType": "string",
          "name": "_encryptionKey",
          "type": "string"
        }
      ],
      "name": "createVault",
      "outputs": [],
      "stateMutability": "nonpayable",
      "type": "function"
    },
    {
      "inputs": [
        {
          "internalType": "address",
          "name": "_owner",
          "type": "address"
        }
      ],
      "name": "declareDeceased",
      "outputs": [],
      "stateMutability": "nonpayable",
      "type": "function"
    },
    {
      "inputs": [
        {
          "internalType": "address",
          "name": "_owner",
          "type": "address"
        },
        {
          "internalType": "address",
          "name": "_contact",
          "type": "address"
        }
      ],
      "name": "getContactInfo",
      "outputs": [
        {
          "internalType": "bool",
          "name": "hasVotingRight",
          "type": "bool"
        },
        {
          "internalType": "bool",
          "name": "isVerified",
          "type": "bool"
        },
        {
          "internalType": "bool",
          "name": "exists",
          "type": "bool"
        }
      ],
      "stateMutability": "view",
      "type": "function"
    },
    {
      "inputs": [
        {
          "internalType": "address",
          "name": "_owner",
          "type": "address"
        }
      ],
      "name": "getContactList",
      "outputs": [
        {
          "internalType": "address[]",
          "name": "",
          "type": "address[]"
        }
      ],
      "stateMutability": "view",
      "type": "function"
    },
    {
      "inputs": [
        {
          "internalType": "address",
          "name": "_owner",
          "type": "address"
        }
      ],
      "name": "getDeathDeclarationStatus",
      "outputs": [
        {
          "internalType": "bool",
          "name": "isActive",
          "type": "bool"
        },
        {
          "internalType": "uint256",
          "name": "startTime",
          "type": "uint256"
        },
        {
          "internalType": "uint256",
          "name": "votesFor",
          "type": "uint256"
        },
        {
          "internalType": "uint256",
          "name": "votesAgainst",
          "type": "uint256"
        },
        {
          "internalType": "uint256",
          "name": "totalVotingContacts",
          "type": "uint256"
        },
        {
          "internalType": "bool",
          "name": "consensusReached",
          "type": "bool"
        }
      ],
      "stateMutability": "view",
      "type": "function"
    },
    {
      "inputs": [
        {
          "internalType": "address",
          "name": "_owner",
          "type": "address"
        }
      ],
      "name": "getOwnerInfo",
      "outputs": [
        {
          "internalType": "string",
          "name": "firstName",
          "type": "string"
        },
        {
          "internalType": "string",
          "name": "lastName",
          "type": "string"
        },
        {
          "internalType": "uint256",
          "name": "lastHeartbeat",
          "type": "uint256"
        },
        {
          "internalType": "uint256",
          "name": "graceInterval",
          "type": "uint256"
        },
        {
          "internalType": "bool",
          "name": "isDeceased",
          "type": "bool"
        },
        {
          "internalType": "bool",
          "name": "exists",
          "type": "bool"
        }
      ],
      "stateMutability": "view",
      "type": "function"
    },
    {
      "inputs": [
        {
          "internalType": "address",
          "name": "_owner",
          "type": "address"
        }
      ],
      "name": "getOwnerVaultList",
      "outputs": [
        {
          "internalType": "address[]",
          "name": "",
          "type": "address[]"
        }
      ],
      "stateMutability": "view",
      "type": "function"
    },
    {
      "inputs": [
        {
          "internalType": "address",
          "name": "_vaultId",
          "type": "address"
        }
      ],
      "name": "getVaultAuthorizedContacts",
      "outputs": [
        {
          "internalType": "address[]",
          "name": "",
          "type": "address[]"
        }
      ],
      "stateMutability": "view",
      "type": "function"
    },
    {
      "inputs": [
        {
          "internalType": "address",
          "name": "_vaultId",
          "type": "address"
        },
        {
          "internalType": "string",
          "name": "_fileId",
          "type": "string"
        }
      ],
      "name": "getVaultFileInfo",
      "outputs": [
        {
          "internalType": "string",
          "name": "originalName",
          "type": "string"
        },
        {
          "internalType": "string",
          "name": "mimeType",
          "type": "string"
        },
        {
          "internalType": "string",
          "name": "cid",
          "type": "string"
        },
        {
          "internalType": "string",
          "name": "uploadDate",
          "type": "string"
        },
        {
          "internalType": "bool",
          "name": "exists",
          "type": "bool"
        }
      ],
      "stateMutability": "view",
      "type": "function"
    },
    {
      "inputs": [
        {
          "internalType": "address",
          "name": "_vaultId",
          "type": "address"
        }
      ],
      "name": "getVaultInfo",
      "outputs": [
        {
          "internalType": "string",
          "name": "name",
          "type": "string"
        },
        {
          "internalType": "address",
          "name": "owner",
          "type": "address"
        },
        {
          "internalType": "bool",
          "name": "isReleased",
          "type": "bool"
        },
        {
          "internalType": "string",
          "name": "cypherIv",
          "type": "string"
        },
        {
          "internalType": "string",
          "name": "encryptionKey",
          "type": "string"
        },
        {
          "internalType": "bool",
          "name": "exists",
          "type": "bool"
        }
      ],
      "stateMutability": "view",
      "type": "function"
    },
    {
      "inputs": [
        {
          "internalType": "address",
          "name": "_owner",
          "type": "address"
        },
        {
          "internalType": "address",
          "name": "_voter",
          "type": "address"
        }
      ],
      "name": "getVote",
      "outputs": [
        {
          "internalType": "bool",
          "name": "",
          "type": "bool"
        }
      ],
      "stateMutability": "view",
      "type": "function"
    },
    {
      "inputs": [
        {
          "internalType": "address",
          "name": "_owner",
          "type": "address"
        },
        {
          "internalType": "address",
          "name": "_voter",
          "type": "address"
        }
      ],
      "name": "hasVoted",
      "outputs": [
        {
          "internalType": "bool",
          "name": "",
          "type": "bool"
        }
      ],
      "stateMutability": "view",
      "type": "function"
    },
    {
      "inputs": [
        {
          "internalType": "address",
          "name": "_vaultId",
          "type": "address"
        },
        {
          "internalType": "address",
          "name": "_address",
          "type": "address"
        }
      ],
      "name": "isVaultAuthorized",
      "outputs": [
        {
          "internalType": "bool",
          "name": "",
          "type": "bool"
        }
      ],
      "stateMutability": "view",
      "type": "function"
    },
    {
      "inputs": [
        {
          "internalType": "string",
          "name": "_firstName",
          "type": "string"
        },
        {
          "internalType": "string",
          "name": "_lastName",
          "type": "string"
        },
        {
          "internalType": "string",
          "name": "_email",
          "type": "string"
        },
        {
          "internalType": "string",
          "name": "_phone",
          "type": "string"
        },
        {
          "internalType": "uint256",
          "name": "_graceInterval",
          "type": "uint256"
        }
      ],
      "name": "registerOwner",
      "outputs": [],
      "stateMutability": "nonpayable",
      "type": "function"
    },
    {
      "inputs": [
        {
          "internalType": "address",
          "name": "_vaultId",
          "type": "address"
        }
      ],
      "name": "releaseVault",
      "outputs": [],
      "stateMutability": "nonpayable",
      "type": "function"
    },
    {
      "inputs": [],
      "name": "sendHeartbeat",
      "outputs": [],
      "stateMutability": "nonpayable",
      "type": "function"
    },
    {
      "inputs": [
        {
          "internalType": "address",
          "name": "_owner",
          "type": "address"
        }
      ],
      "name": "verifyContact",
      "outputs": [],
      "stateMutability": "nonpayable",
      "type": "function"
    },
    {
      "inputs": [
        {
          "internalType": "address",
          "name": "_owner",
          "type": "address"
        },
        {
          "internalType": "bool",
          "name": "_vote",
          "type": "bool"
        }
      ],
      "name": "voteOnDeathDeclaration",
      "outputs": [],
      "stateMutability": "nonpayable",
      "type": "function"
    }
  ],
  "bytecode": "0x608060405234801561001057600080fd5b50613104806100206000396000f3fe608060405234801561001057600080fd5b50600436106101375760003560e01c806360f490f7116100b8578063abc22bbe1161007c578063abc22bbe1461036a578063b385faa81461037d578063b52b670614610390578063cd30f038146103a3578063d385de82146103b6578063e42d9419146103db57600080fd5b806360f490f7146102285780636880f1371461029757806390229af7146102aa578063996e6ca1146102cf5780639dd3a4831461035757600080fd5b806336e5621e116100ff57806336e5621e146101b95780634d4d2b1c146101cc5780634e8e32b5146101ef5780635ab4f162146102025780635b1a8e3f1461021557600080fd5b80630accc75d1461013c5780632815f211146101515780632fda53e714610164578063319764fe1461018d57806334f167a9146101b1575b600080fd5b61014f61014a3660046128a6565b6103ee565b005b61014f61015f36600461298e565b6107cc565b6101776101723660046129ca565b6109ac565b60405161018491906129e5565b60405180910390f35b6101a061019b366004612a32565b610a23565b604051610184959493929190612acb565b61014f610cd9565b61014f6101c7366004612b2d565b610e30565b6101df6101da366004612bd8565b611168565b6040519015158152602001610184565b61014f6101fd36600461298e565b61119c565b6101df610210366004612bd8565b611463565b6101df610223366004612bd8565b611507565b610278610236366004612bd8565b6001600160a01b03918216600090815260016020908152604080832093909416825291909152205460ff80821692610100830482169262010000900490911690565b6040805193151584529115156020840152151590820152606001610184565b61014f6102a53660046129ca565b61151a565b6102bd6102b83660046129ca565b61162d565b60405161018496959493929190612c0b565b6103266102dd3660046129ca565b6001600160a01b031660009081526004602081905260409091206005810154600182015460028301546003840154939094015460ff808416969295949391926101009092041690565b60408051961515875260208701959095529385019290925260608401526080830152151560a082015260c001610184565b61014f610365366004612c71565b61183c565b61014f6103783660046129ca565b611b9b565b61017761038b3660046129ca565b611ffc565b61017761039e3660046129ca565b612071565b61014f6103b13660046129ca565b6120e8565b6103c96103c43660046129ca565b6122d1565b60405161018496959493929190612d78565b61014f6103e9366004612bd8565b61244f565b33600090815260208190526040902060070154610100900460ff161561045b5760405162461bcd60e51b815260206004820152601860248201527f4f776e657220616c72656164792072656769737465726564000000000000000060448201526064015b60405180910390fd5b620151808110156104ae5760405162461bcd60e51b815260206004820152601860248201527f477261636520696e74657276616c20746f6f2073686f727400000000000000006044820152606401610452565b6301e133808111156105025760405162461bcd60e51b815260206004820152601760248201527f477261636520696e74657276616c20746f6f206c6f6e670000000000000000006044820152606401610452565b604051806101600160405280336001600160a01b031681526020018a8a8080601f016020809104026020016040519081016040528093929190818152602001838380828437600092019190915250505090825250604080516020601f8b0181900481028201810190925289815291810191908a908a9081908401838280828437600092019190915250505090825250604080516020601f890181900481028201810190925287815291810191908890889081908401838280828437600092019190915250505090825250604080516020601f870181900481028201810190925285815291810191908690869081908401838280828437600092018290525093855250504260208401525060408201849052606082018190526001608083015260a090910190604051908082528060200260200182016040528015610650578160200160208202803683370190505b5081526020016000604051908082528060200260200182016040528015610681578160200160208202803683370190505b50905233600090815260208181526040909120825181546001600160a01b0319166001600160a01b039091161781559082015160018201906106c39082612e63565b50604082015160028201906106d89082612e63565b50606082015160038201906106ed9082612e63565b50608082015160048201906107029082612e63565b5060a0820151600582015560c0820151600682015560e08201516007820180546101008086015115150261ff00199315159390931661ffff199091161791909117905561012082015180516107619160088401916020909101906127e3565b50610140820151805161077e9160098401916020909101906127e3565b50506040513391507f90fdcd9183750bdfb11be5d6379c04e744e8f650aac530ea853c19226ea7eb2b906107b9908c908c908c908c90612f4c565b60405180910390a2505050505050505050565b33600090815260208190526040902060070154610100900460ff166108035760405162461bcd60e51b815260040161045290612f7e565b336001600160a01b0383160361085b5760405162461bcd60e51b815260206004820152601e60248201527f43616e6e6f742061646420796f757273656c6620617320636f6e7461637400006044820152606401610452565b3360009081526001602090815260408083206001600160a01b038616845290915290205462010000900460ff16156108ce5760405162461bcd60e51b8152602060048201526016602482015275436f6e7461637420616c72656164792065786973747360501b6044820152606401610452565b60408051606081018252821515808252600060208084018281526001858701818152338086528285528886206001600160a01b038c1680885290865289872098518954955193511515620100000262ff0000199415156101000261ff00199215159290921661ffff19909716969096171792909216939093179096558184528383528684206008018054918201815584529282902090920180546001600160a01b03191685179055935191825291927fc329a4824b9cddbf4efb396983db7496360fe08a32ebbd5f6021d4835e275cf4910160405180910390a35050565b6001600160a01b03811660009081526020818152604091829020600901805483518184028101840190945280845260609392830182828015610a1757602002820191906000526020600020905b81546001600160a01b031681526001909101906020018083116109f9575b50505050509050919050565b606080606080600080600360008a6001600160a01b03166001600160a01b031681526020019081526020016000208888604051610a61929190612fac565b90815260200160405180910390209050806001018160020182600301836004018460050160009054906101000a900460ff16848054610a9f90612ddb565b80601f0160208091040260200160405190810160405280929190818152602001828054610acb90612ddb565b8015610b185780601f10610aed57610100808354040283529160200191610b18565b820191906000526020600020905b815481529060010190602001808311610afb57829003601f168201915b50505050509450838054610b2b90612ddb565b80601f0160208091040260200160405190810160405280929190818152602001828054610b5790612ddb565b8015610ba45780601f10610b7957610100808354040283529160200191610ba4565b820191906000526020600020905b815481529060010190602001808311610b8757829003601f168201915b50505050509350828054610bb790612ddb565b80601f0160208091040260200160405190810160405280929190818152602001828054610be390612ddb565b8015610c305780601f10610c0557610100808354040283529160200191610c30565b820191906000526020600020905b815481529060010190602001808311610c1357829003601f168201915b50505050509250818054610c4390612ddb565b80601f0160208091040260200160405190810160405280929190818152602001828054610c6f90612ddb565b8015610cbc5780601f10610c9157610100808354040283529160200191610cbc565b820191906000526020600020905b815481529060010190602001808311610c9f57829003601f168201915b505050505091509550955095509550955050939792965093509350565b33600090815260208190526040902060070154610100900460ff16610d105760405162461bcd60e51b815260040161045290612f7e565b3360009081526020819052604090206007015460ff1615610d735760405162461bcd60e51b815260206004820152601960248201527f4f776e657220697320616c7265616479206465636561736564000000000000006044820152606401610452565b33600090815260208181526040808320426005918201556004909252909120015460ff1615610df95733600081815260046020526040808220600501805460ff19169055517fac892f9ea2bac4d143f762134b209de57efb94b00c56302aaed590951368eaac91610df09142909115158252602082015260400190565b60405180910390a25b60405142815233907f878229cab17522b0aa9fe67ef166ba37857b7fdb46cd8748179a9d9a7373727f9060200160405180910390a2565b33600090815260208190526040902060070154610100900460ff16610e675760405162461bcd60e51b815260040161045290612f7e565b6001600160a01b03871660009081526002602052604090206005015460ff1615610eca5760405162461bcd60e51b81526020600482015260146024820152735661756c7420616c72656164792065786973747360601b6044820152606401610452565b6001600160a01b038716610f185760405162461bcd60e51b8152602060048201526015602482015274496e76616c6964207661756c74206164647265737360581b6044820152606401610452565b604051806101000160405280886001600160a01b0316815260200187878080601f01602080910402602001604051908101604052809392919081815260200183838082843760009201829052509385525050336020808501919091526040808501939093528251601f8901829004820281018201909352878352606090930192889150879081908401838280828437600092019190915250505090825250604080516020601f8601819004810282018101909252848152918101919085908590819084018382808284376000920182905250938552505060016020808501829052604080518581528083018252958101959095526001600160a01b038d811685526002825294909320855181546001600160a01b0319169516949094178455918401519183019161104a915082612e63565b50604082015160028201805460608501511515600160a01b026001600160a81b03199091166001600160a01b0390931692909217919091179055608082015160038201906110989082612e63565b5060a082015160048201906110ad9082612e63565b5060c082015160058201805460ff191691151591909117905560e082015180516110e19160068401916020909101906127e3565b5050336000818152602081815260408083206009018054600181018255908452919092200180546001600160a01b0319166001600160a01b038c169081179091559051919250907f3585389649c4946deb9f3d591291e9a7058addcb51d91b4cad87e5810fd8909b90611157908a908a90612fbc565b60405180910390a350505050505050565b6001600160a01b038083166000908152600460209081526040808320938516835260069093019052205460ff165b92915050565b6001600160a01b0382166000908152600160209081526040808320338452909152902054829062010000900460ff166111e75760405162461bcd60e51b815260040161045290612fd8565b6001600160a01b0381166000908152600160209081526040808320338452909152902054610100900460ff166112565760405162461bcd60e51b815260206004820152601460248201527310dbdb9d1858dd081b9bdd081d995c9a599a595960621b6044820152606401610452565b6001600160a01b038116600090815260016020908152604080832033845290915290205460ff166112bc5760405162461bcd60e51b815260206004820152601060248201526f4e6f20766f74696e672072696768747360801b6044820152606401610452565b6001600160a01b03831660009081526004602052604090206005015460ff166113275760405162461bcd60e51b815260206004820152601b60248201527f4e6f20616374697665206465617468206465636c61726174696f6e00000000006044820152606401610452565b6001600160a01b038316600090815260046020908152604080832033845260060190915290205460ff161561138e5760405162461bcd60e51b815260206004820152600d60248201526c105b1c9958591e481d9bdd1959609a1b6044820152606401610452565b6001600160a01b0383166000908152600460209081526040808320338452600681018352818420805460ff19908116600117909155600782019093529220805485158015919093161790556113f9576002810180549060006113ef83613025565b9190505550611411565b60038101805490600061140b83613025565b91905055505b604051831515815233906001600160a01b038616907fcc194f214df029fe546c9959ee15d79d8633742aab6c02a862e337f8ace3d550906020015b60405180910390a361145d84612622565b50505050565b6001600160a01b0380831660009081526004602090815260408083209385168352600690930190529081205460ff166114d45760405162461bcd60e51b8152602060048201526013602482015272159bdd195c881a185cc81b9bdd081d9bdd1959606a1b6044820152606401610452565b506001600160a01b0391821660009081526004602090815260408083209390941682526007909201909152205460ff1690565b6000611513838361275c565b9392505050565b6001600160a01b0381166000908152600160209081526040808320338452909152902054819062010000900460ff166115655760405162461bcd60e51b815260040161045290612fd8565b6001600160a01b0382166000908152600160209081526040808320338452909152902054610100900460ff16156115d15760405162461bcd60e51b815260206004820152601060248201526f105b1c9958591e481d995c9a599a595960821b6044820152606401610452565b6001600160a01b0382166000818152600160209081526040808320338085529252808320805461ff001916610100179055519092917f33c6b9962c16a3768d4f15c8f694b088fd57a39499a9b9f7e59243c371a2207a91a35050565b6001600160a01b038082166000908152600260208190526040822090810154600582015460018301805460609686958895869588959294929382169260ff600160a01b90930483169260038701926004880192911690869061168e90612ddb565b80601f01602080910402602001604051908101604052809291908181526020018280546116ba90612ddb565b80156117075780601f106116dc57610100808354040283529160200191611707565b820191906000526020600020905b8154815290600101906020018083116116ea57829003601f168201915b5050505050955082805461171a90612ddb565b80601f016020809104026020016040519081016040528092919081815260200182805461174690612ddb565b80156117935780601f1061176857610100808354040283529160200191611793565b820191906000526020600020905b81548152906001019060200180831161177657829003601f168201915b505050505092508180546117a690612ddb565b80601f01602080910402602001604051908101604052809291908181526020018280546117d290612ddb565b801561181f5780601f106117f45761010080835404028352916020019161181f565b820191906000526020600020905b81548152906001019060200180831161180257829003601f168201915b505050505091509650965096509650965096505091939550919395565b6001600160a01b038b166000908152600260205260409020600501548b9060ff166118795760405162461bcd60e51b81526004016104529061303e565b6001600160a01b03818116600090815260026020819052604090912001541633146118d85760405162461bcd60e51b815260206004820152600f60248201526e2737ba103b30bab63a1037bbb732b960891b6044820152606401610452565b6001600160a01b038c16600090815260036020526040908190209051611901908d908d90612fac565b9081526040519081900360200190206005015460ff161561195a5760405162461bcd60e51b815260206004820152601360248201527246696c6520616c72656164792065786973747360681b6044820152606401610452565b6040518060c001604052808c8c8080601f016020809104026020016040519081016040528093929190818152602001838380828437600092019190915250505090825250604080516020601f8d018190048102820181019092528b815291810191908c908c9081908401838280828437600092019190915250505090825250604080516020601f8b0181900481028201810190925289815291810191908a908a9081908401838280828437600092019190915250505090825250604080516020601f890181900481028201810190925287815291810191908890889081908401838280828437600092019190915250505090825250604080516020601f870181900481028201810190925285815291810191908690869081908401838280828437600092018290525093855250506001602093840152506001600160a01b038f16815260039091526040908190209051611ab7908e908e90612fac565b90815260405190819003602001902081518190611ad49082612e63565b5060208201516001820190611ae99082612e63565b5060408201516002820190611afe9082612e63565b5060608201516003820190611b139082612e63565b5060808201516004820190611b289082612e63565b5060a091909101516005909101805460ff19169115159190911790556040516001600160a01b038d16907f7dfa9fb9245065329f41aba6fc668605ebf258da04e53b4425a1f130ad9b41cd90611b85908e908e908e908e90612f4c565b60405180910390a2505050505050505050505050565b6001600160a01b0381166000908152600160209081526040808320338452909152902054819062010000900460ff16611be65760405162461bcd60e51b815260040161045290612fd8565b6001600160a01b0381166000908152600160209081526040808320338452909152902054610100900460ff16611c555760405162461bcd60e51b815260206004820152601460248201527310dbdb9d1858dd081b9bdd081d995c9a599a595960621b6044820152606401610452565b6001600160a01b038116600090815260016020908152604080832033845290915290205460ff16611cbb5760405162461bcd60e51b815260206004820152601060248201526f4e6f20766f74696e672072696768747360801b6044820152606401610452565b6001600160a01b038216600090815260208190526040902060070154610100900460ff16611cfb5760405162461bcd60e51b815260040161045290612f7e565b6001600160a01b03821660009081526020819052604090206007015460ff1615611d605760405162461bcd60e51b815260206004820152601660248201527513dddb995c88185b1c9958591e48191958d9585cd95960521b6044820152606401610452565b6001600160a01b03821660009081526004602052604090206005015460ff1615611dcc5760405162461bcd60e51b815260206004820181905260248201527f4465617468206465636c61726174696f6e20616c7265616479206163746976656044820152606401610452565b6000805b6001600160a01b038416600090815260208190526040902060080154811015611eb4576001600160a01b0384166000908152602081905260408120600801805483908110611e2057611e2061306c565b60009182526020808320909101546001600160a01b0388811684526001835260408085209190921680855292529091205490915060ff610100909104168015611e8e57506001600160a01b0380861660009081526001602090815260408083209385168352929052205460ff165b15611ea15782611e9d81613025565b9350505b5080611eac81613025565b915050611dd0565b5060008111611f055760405162461bcd60e51b815260206004820152601c60248201527f4e6f20766f74696e6720636f6e746163747320617661696c61626c65000000006044820152606401610452565b6001600160a01b038316600081815260046020818152604080842080546001600160a01b031916339081178255426001808401829055600284018190556003840188905595830189905560058301805461ffff191687179055818752600683018552838720805460ff199081168817909155600784018652968490208054909716909517909555905192835293917fd1ffe6c6eec884ae3341f8304738b02340905dfd25b73df1802e7f95c9b9fbec910160405180910390a36040516001815233906001600160a01b038616907fcc194f214df029fe546c9959ee15d79d8633742aab6c02a862e337f8ace3d5509060200161144c565b6001600160a01b03811660009081526020818152604091829020600801805483518184028101840190945280845260609392830182828015610a17576020028201919060005260206000209081546001600160a01b031681526001909101906020018083116109f95750505050509050919050565b6001600160a01b038116600090815260026020908152604091829020600601805483518184028101840190945280845260609392830182828015610a17576020028201919060005260206000209081546001600160a01b031681526001909101906020018083116109f95750505050509050919050565b6001600160a01b038116600090815260026020526040902060050154819060ff166121255760405162461bcd60e51b81526004016104529061303e565b6001600160a01b0381811660009081526002602081905260409091200154163314806121565750612156813361275c565b6121935760405162461bcd60e51b815260206004820152600e60248201526d139bdd08185d5d1a1bdc9a5e995960921b6044820152606401610452565b6001600160a01b03821660009081526002602081905260409091200154600160a01b900460ff16156122005760405162461bcd60e51b815260206004820152601660248201527515985d5b1d08185b1c9958591e481c995b19585cd95960521b6044820152606401610452565b6001600160a01b03808316600090815260026020818152604080842090920154909316825291819052206007015460ff166122725760405162461bcd60e51b815260206004820152601260248201527113dddb995c881b9bdd08191958d9585cd95960721b6044820152606401610452565b6001600160a01b038083166000818152600260208190526040808320909101805460ff60a01b198116600160a01b1790915590519316927f56c3e31b0d2158f3b6aeced690ea98f76856f0eef497b1a9fba19cdf3a470b169190a35050565b6001600160a01b03811660009081526020819052604081206005810154600682015460078301546001840180546060968796909586958695869593946002860193929160ff808216926101009092041690869061232d90612ddb565b80601f016020809104026020016040519081016040528092919081815260200182805461235990612ddb565b80156123a65780601f1061237b576101008083540402835291602001916123a6565b820191906000526020600020905b81548152906001019060200180831161238957829003601f168201915b505050505095508480546123b990612ddb565b80601f01602080910402602001604051908101604052809291908181526020018280546123e590612ddb565b80156124325780601f1061240757610100808354040283529160200191612432565b820191906000526020600020905b81548152906001019060200180831161241557829003601f168201915b505050505094509650965096509650965096505091939550919395565b6001600160a01b038216600090815260026020526040902060050154829060ff1661248c5760405162461bcd60e51b81526004016104529061303e565b6001600160a01b03818116600090815260026020819052604090912001541633146124eb5760405162461bcd60e51b815260206004820152600f60248201526e2737ba103b30bab63a1037bbb732b960891b6044820152606401610452565b3360009081526001602090815260408083206001600160a01b038616845290915290205462010000900460ff1661255d5760405162461bcd60e51b815260206004820152601660248201527510dbdb9d1858dd08191bd95cc81b9bdd08195e1a5cdd60521b6044820152606401610452565b612567838361275c565b156125b45760405162461bcd60e51b815260206004820152601a60248201527f436f6e7461637420616c726561647920617574686f72697a65640000000000006044820152606401610452565b6001600160a01b038381166000818152600260209081526040808320600601805460018101825590845291832090910180546001600160a01b0319169487169485179055517f9c5a8053f4c2dce64df183670e37f8038c58530c372ddd0cc5167c49ec19e2129190a3505050565b6001600160a01b0381166000908152600460208190526040822090810154909190606490612651906032613082565b61265b9190613099565b6126669060016130bb565b9050808260020154106126f6576001600160a01b03831660008181526020819052604090819020600701805460ff1916600190811790915560058501805461ffff191661010017905590517fac892f9ea2bac4d143f762134b209de57efb94b00c56302aaed590951368eaac916126e99142909115158252602082015260400190565b60405180910390a2505050565b808260030154106127575760058201805461ffff191661010017905560408051600081524260208201526001600160a01b038516917fac892f9ea2bac4d143f762134b209de57efb94b00c56302aaed590951368eaac910160405180910390a25b505050565b6001600160a01b0382166000908152600260205260408120815b60068201548110156127d857836001600160a01b03168260060182815481106127a1576127a161306c565b6000918252602090912001546001600160a01b0316036127c657600192505050611196565b806127d081613025565b915050612776565b506000949350505050565b828054828255906000526020600020908101928215612838579160200282015b8281111561283857825182546001600160a01b0319166001600160a01b03909116178255602090920191600190910190612803565b50612844929150612848565b5090565b5b808211156128445760008155600101612849565b60008083601f84011261286f57600080fd5b50813567ffffffffffffffff81111561288757600080fd5b60208301915083602082850101111561289f57600080fd5b9250929050565b600080600080600080600080600060a08a8c0312156128c457600080fd5b893567ffffffffffffffff808211156128dc57600080fd5b6128e88d838e0161285d565b909b50995060208c013591508082111561290157600080fd5b61290d8d838e0161285d565b909950975060408c013591508082111561292657600080fd5b6129328d838e0161285d565b909750955060608c013591508082111561294b57600080fd5b506129588c828d0161285d565b9a9d999c50979a9699959894979660800135949350505050565b80356001600160a01b038116811461298957600080fd5b919050565b600080604083850312156129a157600080fd5b6129aa83612972565b9150602083013580151581146129bf57600080fd5b809150509250929050565b6000602082840312156129dc57600080fd5b61151382612972565b6020808252825182820181905260009190848201906040850190845b81811015612a265783516001600160a01b031683529284019291840191600101612a01565b50909695505050505050565b600080600060408486031215612a4757600080fd5b612a5084612972565b9250602084013567ffffffffffffffff811115612a6c57600080fd5b612a788682870161285d565b9497909650939450505050565b6000815180845260005b81811015612aab57602081850181015186830182015201612a8f565b506000602082860101526020601f19601f83011685010191505092915050565b60a081526000612ade60a0830188612a85565b8281036020840152612af08188612a85565b90508281036040840152612b048187612a85565b90508281036060840152612b188186612a85565b91505082151560808301529695505050505050565b60008060008060008060006080888a031215612b4857600080fd5b612b5188612972565b9650602088013567ffffffffffffffff80821115612b6e57600080fd5b612b7a8b838c0161285d565b909850965060408a0135915080821115612b9357600080fd5b612b9f8b838c0161285d565b909650945060608a0135915080821115612bb857600080fd5b50612bc58a828b0161285d565b989b979a50959850939692959293505050565b60008060408385031215612beb57600080fd5b612bf483612972565b9150612c0260208401612972565b90509250929050565b60c081526000612c1e60c0830189612a85565b6001600160a01b038816602084015286151560408401528281036060840152612c478187612a85565b90508281036080840152612c5b8186612a85565b91505082151560a0830152979650505050505050565b600080600080600080600080600080600060c08c8e031215612c9257600080fd5b612c9b8c612972565b9a5067ffffffffffffffff8060208e01351115612cb757600080fd5b612cc78e60208f01358f0161285d565b909b50995060408d0135811015612cdd57600080fd5b612ced8e60408f01358f0161285d565b909950975060608d0135811015612d0357600080fd5b612d138e60608f01358f0161285d565b909750955060808d0135811015612d2957600080fd5b612d398e60808f01358f0161285d565b909550935060a08d0135811015612d4f57600080fd5b50612d608d60a08e01358e0161285d565b81935080925050509295989b509295989b9093969950565b60c081526000612d8b60c0830189612a85565b8281036020840152612d9d8189612a85565b6040840197909752505060608101939093529015156080830152151560a09091015292915050565b634e487b7160e01b600052604160045260246000fd5b600181811c90821680612def57607f821691505b602082108103612e0f57634e487b7160e01b600052602260045260246000fd5b50919050565b601f82111561275757600081815260208120601f850160051c81016020861015612e3c5750805b601f850160051c820191505b81811015612e5b57828155600101612e48565b505050505050565b815167ffffffffffffffff811115612e7d57612e7d612dc5565b612e9181612e8b8454612ddb565b84612e15565b602080601f831160018114612ec65760008415612eae5750858301515b600019600386901b1c1916600185901b178555612e5b565b600085815260208120601f198616915b82811015612ef557888601518255948401946001909101908401612ed6565b5085821015612f135787850151600019600388901b60f8161c191681555b5050505050600190811b01905550565b81835281816020850137506000828201602090810191909152601f909101601f19169091010190565b604081526000612f60604083018688612f23565b8281036020840152612f73818587612f23565b979650505050505050565b60208082526014908201527313dddb995c881b9bdd081c9959da5cdd195c995960621b604082015260600190565b8183823760009101908152919050565b602081526000612fd0602083018486612f23565b949350505050565b6020808252601b908201527f4e6f74206120636f6e74616374206f662074686973206f776e65720000000000604082015260600190565b634e487b7160e01b600052601160045260246000fd5b6000600182016130375761303761300f565b5060010190565b60208082526014908201527315985d5b1d08191bd95cc81b9bdd08195e1a5cdd60621b604082015260600190565b634e487b7160e01b600052603260045260246000fd5b80820281158282048414176111965761119661300f565b6000826130b657634e487b7160e01b600052601260045260246000fd5b500490565b808201808211156111965761119661300f56fea264697066735822122046df372c00614a01c237e882c0aadfbe6a97cec1f23b121139a3f2a80836ea8e64736f6c63430008130033",
  "linkReferences": {},
  "deployedLinkReferences": {}
}