{
  "_format": "hh-sol-artifact-1",
  "contractName": "LifeSignalRegistry",
  "sourceName": "contracts/LifeSignalRegistry.sol",
  "abi": [
    {
      "anonymous": false,
      "inputs": [
        {
          "indexed": true,
          "internalType": "address",
          "name": "owner",
          "type": "address"
        },
        {
          "indexed": false,
          "internalType": "bool",
          "name": "isDeceased",
          "type": "bool"
        },
        {
          "indexed": false,
          "internalType": "uint256",
          "name": "timestamp",
          "type": "uint256"
        }
      ],
      "name": "ConsensusReached",
      "type": "event"
    },
    {
      "anonymous": false,
      "inputs": [
        {
          "indexed": true,
          "internalType": "address",
          "name": "owner",
          "type": "address"
        },
        {
          "indexed": true,
          "internalType": "address",
          "name": "contact",
          "type": "address"
        },
        {
          "indexed": false,
          "internalType": "string",
          "name": "firstName",
          "type": "string"
        },
        {
          "indexed": false,
          "internalType": "string",
          "name": "lastName",
          "type": "string"
        },
        {
          "indexed": false,
          "internalType": "bool",
          "name": "hasVotingRight",
          "type": "bool"
        }
      ],
      "name": "ContactAdded",
      "type": "event"
    },
    {
      "anonymous": false,
      "inputs": [
        {
          "indexed": true,
          "internalType": "address",
          "name": "owner",
          "type": "address"
        },
        {
          "indexed": true,
          "internalType": "address",
          "name": "contact",
          "type": "address"
        }
      ],
      "name": "ContactVerified",
      "type": "event"
    },
    {
      "anonymous": false,
      "inputs": [
        {
          "indexed": true,
          "internalType": "address",
          "name": "owner",
          "type": "address"
        },
        {
          "indexed": true,
          "internalType": "address",
          "name": "declaredBy",
          "type": "address"
        },
        {
          "indexed": false,
          "internalType": "uint256",
          "name": "timestamp",
          "type": "uint256"
        }
      ],
      "name": "DeathDeclared",
      "type": "event"
    },
    {
      "anonymous": false,
      "inputs": [
        {
          "indexed": true,
          "internalType": "address",
          "name": "owner",
          "type": "address"
        },
        {
          "indexed": false,
          "internalType": "uint256",
          "name": "timestamp",
          "type": "uint256"
        }
      ],
      "name": "HeartbeatSent",
      "type": "event"
    },
    {
      "anonymous": false,
      "inputs": [
        {
          "indexed": true,
          "internalType": "address",
          "name": "owner",
          "type": "address"
        },
        {
          "indexed": false,
          "internalType": "string",
          "name": "firstName",
          "type": "string"
        },
        {
          "indexed": false,
          "internalType": "string",
          "name": "lastName",
          "type": "string"
        }
      ],
      "name": "OwnerRegistered",
      "type": "event"
    },
    {
      "anonymous": false,
      "inputs": [
        {
          "indexed": true,
          "internalType": "uint256",
          "name": "vaultId",
          "type": "uint256"
        },
        {
          "indexed": true,
          "internalType": "address",
          "name": "contact",
          "type": "address"
        }
      ],
      "name": "VaultContactAuthorized",
      "type": "event"
    },
    {
      "anonymous": false,
      "inputs": [
        {
          "indexed": true,
          "internalType": "uint256",
          "name": "vaultId",
          "type": "uint256"
        },
        {
          "indexed": true,
          "internalType": "address",
          "name": "owner",
          "type": "address"
        },
        {
          "indexed": false,
          "internalType": "string",
          "name": "name",
          "type": "string"
        }
      ],
      "name": "VaultCreated",
      "type": "event"
    },
    {
      "anonymous": false,
      "inputs": [
        {
          "indexed": true,
          "internalType": "uint256",
          "name": "vaultId",
          "type": "uint256"
        },
        {
          "indexed": false,
          "internalType": "uint256",
          "name": "fileId",
          "type": "uint256"
        },
        {
          "indexed": false,
          "internalType": "string",
          "name": "originalName",
          "type": "string"
        }
      ],
      "name": "VaultFileAdded",
      "type": "event"
    },
    {
      "anonymous": false,
      "inputs": [
        {
          "indexed": true,
          "internalType": "uint256",
          "name": "vaultId",
          "type": "uint256"
        },
        {
          "indexed": true,
          "internalType": "address",
          "name": "owner",
          "type": "address"
        }
      ],
      "name": "VaultReleased",
      "type": "event"
    },
    {
      "anonymous": false,
      "inputs": [
        {
          "indexed": true,
          "internalType": "address",
          "name": "owner",
          "type": "address"
        },
        {
          "indexed": true,
          "internalType": "address",
          "name": "voter",
          "type": "address"
        },
        {
          "indexed": false,
          "internalType": "bool",
          "name": "vote",
          "type": "bool"
        }
      ],
      "name": "VoteCast",
      "type": "event"
    },
    {
      "inputs": [
        {
          "internalType": "address",
          "name": "_contact",
          "type": "address"
        },
        {
          "internalType": "string",
          "name": "_firstName",
          "type": "string"
        },
        {
          "internalType": "string",
          "name": "_lastName",
          "type": "string"
        },
        {
          "internalType": "string",
          "name": "_email",
          "type": "string"
        },
        {
          "internalType": "string",
          "name": "_phone",
          "type": "string"
        },
        {
          "internalType": "bool",
          "name": "_hasVotingRight",
          "type": "bool"
        },
        {
          "internalType": "uint256[]",
          "name": "_authorizedVaults",
          "type": "uint256[]"
        }
      ],
      "name": "addContact",
      "outputs": [],
      "stateMutability": "nonpayable",
      "type": "function"
    },
    {
      "inputs": [
        {
          "internalType": "uint256",
          "name": "_vaultId",
          "type": "uint256"
        },
        {
          "internalType": "string",
          "name": "_originalName",
          "type": "string"
        },
        {
          "internalType": "string",
          "name": "_mimeType",
          "type": "string"
        },
        {
          "internalType": "string",
          "name": "_cid",
          "type": "string"
        },
        {
          "internalType": "string",
          "name": "_uploadDate",
          "type": "string"
        }
      ],
      "name": "addVaultFile",
      "outputs": [
        {
          "internalType": "uint256",
          "name": "",
          "type": "uint256"
        }
      ],
      "stateMutability": "nonpayable",
      "type": "function"
    },
    {
      "inputs": [
        {
          "internalType": "uint256",
          "name": "_vaultId",
          "type": "uint256"
        },
        {
          "internalType": "address",
          "name": "_contact",
          "type": "address"
        }
      ],
      "name": "authorizeVaultContact",
      "outputs": [],
      "stateMutability": "nonpayable",
      "type": "function"
    },
    {
      "inputs": [
        {
          "internalType": "string",
          "name": "_name",
          "type": "string"
        },
        {
          "internalType": "string",
          "name": "_cypherIv",
          "type": "string"
        },
        {
          "internalType": "string",
          "name": "_encryptionKey",
          "type": "string"
        }
      ],
      "name": "createVault",
      "outputs": [
        {
          "internalType": "uint256",
          "name": "",
          "type": "uint256"
        }
      ],
      "stateMutability": "nonpayable",
      "type": "function"
    },
    {
      "inputs": [
        {
          "internalType": "address",
          "name": "_owner",
          "type": "address"
        }
      ],
      "name": "declareDeceased",
      "outputs": [],
      "stateMutability": "nonpayable",
      "type": "function"
    },
    {
      "inputs": [
        {
          "internalType": "address",
          "name": "_owner",
          "type": "address"
        },
        {
          "internalType": "address",
          "name": "_contact",
          "type": "address"
        }
      ],
      "name": "getContactAuthorizedVaults",
      "outputs": [
        {
          "internalType": "uint256[]",
          "name": "",
          "type": "uint256[]"
        }
      ],
      "stateMutability": "view",
      "type": "function"
    },
    {
      "inputs": [
        {
          "internalType": "address",
          "name": "_owner",
          "type": "address"
        },
        {
          "internalType": "address",
          "name": "_contact",
          "type": "address"
        }
      ],
      "name": "getContactInfo",
      "outputs": [
        {
          "internalType": "address",
          "name": "addr",
          "type": "address"
        },
        {
          "internalType": "string",
          "name": "firstName",
          "type": "string"
        },
        {
          "internalType": "string",
          "name": "lastName",
          "type": "string"
        },
        {
          "internalType": "string",
          "name": "email",
          "type": "string"
        },
        {
          "internalType": "string",
          "name": "phone",
          "type": "string"
        },
        {
          "internalType": "bool",
          "name": "hasVotingRight",
          "type": "bool"
        },
        {
          "internalType": "bool",
          "name": "isVerified",
          "type": "bool"
        },
        {
          "internalType": "bool",
          "name": "exists",
          "type": "bool"
        }
      ],
      "stateMutability": "view",
      "type": "function"
    },
    {
      "inputs": [
        {
          "internalType": "address",
          "name": "_owner",
          "type": "address"
        }
      ],
      "name": "getContactList",
      "outputs": [
        {
          "internalType": "address[]",
          "name": "",
          "type": "address[]"
        }
      ],
      "stateMutability": "view",
      "type": "function"
    },
    {
      "inputs": [
        {
          "internalType": "address",
          "name": "_owner",
          "type": "address"
        }
      ],
      "name": "getContactListDetails",
      "outputs": [
        {
          "internalType": "address[]",
          "name": "contactAddresses",
          "type": "address[]"
        },
        {
          "internalType": "string[]",
          "name": "firstNames",
          "type": "string[]"
        },
        {
          "internalType": "string[]",
          "name": "lastNames",
          "type": "string[]"
        },
        {
          "internalType": "string[]",
          "name": "emails",
          "type": "string[]"
        },
        {
          "internalType": "string[]",
          "name": "phones",
          "type": "string[]"
        },
        {
          "internalType": "bool[]",
          "name": "hasVotingRights",
          "type": "bool[]"
        },
        {
          "internalType": "bool[]",
          "name": "isVerified",
          "type": "bool[]"
        }
      ],
      "stateMutability": "view",
      "type": "function"
    },
    {
      "inputs": [
        {
          "internalType": "address",
          "name": "_owner",
          "type": "address"
        }
      ],
      "name": "getDeathDeclarationStatus",
      "outputs": [
        {
          "internalType": "bool",
          "name": "isActive",
          "type": "bool"
        },
        {
          "internalType": "uint256",
          "name": "startTime",
          "type": "uint256"
        },
        {
          "internalType": "uint256",
          "name": "votesFor",
          "type": "uint256"
        },
        {
          "internalType": "uint256",
          "name": "votesAgainst",
          "type": "uint256"
        },
        {
          "internalType": "uint256",
          "name": "totalVotingContacts",
          "type": "uint256"
        },
        {
          "internalType": "bool",
          "name": "consensusReached",
          "type": "bool"
        }
      ],
      "stateMutability": "view",
      "type": "function"
    },
    {
      "inputs": [
        {
          "internalType": "address",
          "name": "_owner",
          "type": "address"
        }
      ],
      "name": "getOwnerInfo",
      "outputs": [
        {
          "internalType": "string",
          "name": "firstName",
          "type": "string"
        },
        {
          "internalType": "string",
          "name": "lastName",
          "type": "string"
        },
        {
          "internalType": "uint256",
          "name": "lastHeartbeat",
          "type": "uint256"
        },
        {
          "internalType": "uint256",
          "name": "graceInterval",
          "type": "uint256"
        },
        {
          "internalType": "bool",
          "name": "isDeceased",
          "type": "bool"
        },
        {
          "internalType": "bool",
          "name": "exists",
          "type": "bool"
        }
      ],
      "stateMutability": "view",
      "type": "function"
    },
    {
      "inputs": [
        {
          "internalType": "address",
          "name": "_owner",
          "type": "address"
        }
      ],
      "name": "getOwnerVaultList",
      "outputs": [
        {
          "internalType": "uint256[]",
          "name": "",
          "type": "uint256[]"
        }
      ],
      "stateMutability": "view",
      "type": "function"
    },
    {
      "inputs": [
        {
          "internalType": "address",
          "name": "_owner",
          "type": "address"
        }
      ],
      "name": "getOwnerVaultListDetails",
      "outputs": [
        {
          "internalType": "uint256[]",
          "name": "vaultIds",
          "type": "uint256[]"
        },
        {
          "internalType": "string[]",
          "name": "names",
          "type": "string[]"
        },
        {
          "internalType": "address[]",
          "name": "vaultOwners",
          "type": "address[]"
        },
        {
          "internalType": "bool[]",
          "name": "isReleased",
          "type": "bool[]"
        },
        {
          "internalType": "string[]",
          "name": "cypherIvs",
          "type": "string[]"
        },
        {
          "internalType": "string[]",
          "name": "encryptionKeys",
          "type": "string[]"
        },
        {
          "internalType": "uint256[][]",
          "name": "fileIds",
          "type": "uint256[][]"
        },
        {
          "internalType": "address[][]",
          "name": "authorizedContacts",
          "type": "address[][]"
        }
      ],
      "stateMutability": "view",
      "type": "function"
    },
    {
      "inputs": [
        {
          "internalType": "uint256",
          "name": "_vaultId",
          "type": "uint256"
        }
      ],
      "name": "getVaultAuthorizedContacts",
      "outputs": [
        {
          "internalType": "address[]",
          "name": "",
          "type": "address[]"
        }
      ],
      "stateMutability": "view",
      "type": "function"
    },
    {
      "inputs": [
        {
          "internalType": "uint256",
          "name": "_vaultId",
          "type": "uint256"
        },
        {
          "internalType": "uint256",
          "name": "_fileId",
          "type": "uint256"
        }
      ],
      "name": "getVaultFileInfo",
      "outputs": [
        {
          "internalType": "string",
          "name": "originalName",
          "type": "string"
        },
        {
          "internalType": "string",
          "name": "mimeType",
          "type": "string"
        },
        {
          "internalType": "string",
          "name": "cid",
          "type": "string"
        },
        {
          "internalType": "string",
          "name": "uploadDate",
          "type": "string"
        },
        {
          "internalType": "bool",
          "name": "exists",
          "type": "bool"
        }
      ],
      "stateMutability": "view",
      "type": "function"
    },
    {
      "inputs": [
        {
          "internalType": "uint256",
          "name": "_vaultId",
          "type": "uint256"
        }
      ],
      "name": "getVaultFileList",
      "outputs": [
        {
          "internalType": "uint256[]",
          "name": "",
          "type": "uint256[]"
        }
      ],
      "stateMutability": "view",
      "type": "function"
    },
    {
      "inputs": [
        {
          "internalType": "uint256",
          "name": "_vaultId",
          "type": "uint256"
        }
      ],
      "name": "getVaultInfo",
      "outputs": [
        {
          "internalType": "uint256",
          "name": "id",
          "type": "uint256"
        },
        {
          "internalType": "string",
          "name": "name",
          "type": "string"
        },
        {
          "internalType": "address",
          "name": "owner",
          "type": "address"
        },
        {
          "internalType": "bool",
          "name": "isReleased",
          "type": "bool"
        },
        {
          "internalType": "string",
          "name": "cypherIv",
          "type": "string"
        },
        {
          "internalType": "string",
          "name": "encryptionKey",
          "type": "string"
        },
        {
          "internalType": "uint256[]",
          "name": "fileIds",
          "type": "uint256[]"
        },
        {
          "internalType": "address[]",
          "name": "authorizedContacts",
          "type": "address[]"
        },
        {
          "internalType": "bool",
          "name": "exists",
          "type": "bool"
        }
      ],
      "stateMutability": "view",
      "type": "function"
    },
    {
      "inputs": [
        {
          "internalType": "address",
          "name": "_owner",
          "type": "address"
        },
        {
          "internalType": "address",
          "name": "_voter",
          "type": "address"
        }
      ],
      "name": "getVote",
      "outputs": [
        {
          "internalType": "bool",
          "name": "",
          "type": "bool"
        }
      ],
      "stateMutability": "view",
      "type": "function"
    },
    {
      "inputs": [
        {
          "internalType": "address",
          "name": "_owner",
          "type": "address"
        },
        {
          "internalType": "address",
          "name": "_voter",
          "type": "address"
        }
      ],
      "name": "hasVoted",
      "outputs": [
        {
          "internalType": "bool",
          "name": "",
          "type": "bool"
        }
      ],
      "stateMutability": "view",
      "type": "function"
    },
    {
      "inputs": [
        {
          "internalType": "uint256",
          "name": "_vaultId",
          "type": "uint256"
        },
        {
          "internalType": "address",
          "name": "_address",
          "type": "address"
        }
      ],
      "name": "isVaultAuthorized",
      "outputs": [
        {
          "internalType": "bool",
          "name": "",
          "type": "bool"
        }
      ],
      "stateMutability": "view",
      "type": "function"
    },
    {
      "inputs": [
        {
          "internalType": "string",
          "name": "_firstName",
          "type": "string"
        },
        {
          "internalType": "string",
          "name": "_lastName",
          "type": "string"
        },
        {
          "internalType": "string",
          "name": "_email",
          "type": "string"
        },
        {
          "internalType": "string",
          "name": "_phone",
          "type": "string"
        },
        {
          "internalType": "uint256",
          "name": "_graceInterval",
          "type": "uint256"
        }
      ],
      "name": "registerOwner",
      "outputs": [],
      "stateMutability": "nonpayable",
      "type": "function"
    },
    {
      "inputs": [
        {
          "internalType": "uint256",
          "name": "_vaultId",
          "type": "uint256"
        }
      ],
      "name": "releaseVault",
      "outputs": [],
      "stateMutability": "nonpayable",
      "type": "function"
    },
    {
      "inputs": [],
      "name": "sendHeartbeat",
      "outputs": [],
      "stateMutability": "nonpayable",
      "type": "function"
    },
    {
      "inputs": [
        {
          "internalType": "address",
          "name": "_owner",
          "type": "address"
        },
        {
          "internalType": "string",
          "name": "_firstName",
          "type": "string"
        },
        {
          "internalType": "string",
          "name": "_lastName",
          "type": "string"
        },
        {
          "internalType": "string",
          "name": "_email",
          "type": "string"
        },
        {
          "internalType": "string",
          "name": "_phone",
          "type": "string"
        }
      ],
      "name": "updateContactInfo",
      "outputs": [],
      "stateMutability": "nonpayable",
      "type": "function"
    },
    {
      "inputs": [
        {
          "internalType": "address",
          "name": "_owner",
          "type": "address"
        }
      ],
      "name": "verifyContact",
      "outputs": [],
      "stateMutability": "nonpayable",
      "type": "function"
    },
    {
      "inputs": [
        {
          "internalType": "address",
          "name": "_owner",
          "type": "address"
        },
        {
          "internalType": "bool",
          "name": "_vote",
          "type": "bool"
        }
      ],
      "name": "voteOnDeathDeclaration",
      "outputs": [],
      "stateMutability": "nonpayable",
      "type": "function"
    }
  ],
  "bytecode": "0x60806040526000600555600060065534801561001a57600080fd5b50614e038061002a6000396000f3fe608060405234801561001057600080fd5b506004361061018e5760003560e01c806352e20c4f116100de578063996e6ca111610097578063b2b2baed11610071578063b2b2baed1461045d578063b385faa814610470578063d385de8214610483578063d72d3e16146104a857600080fd5b8063996e6ca11461039a578063abc22bbe14610422578063b1ba96201461043557600080fd5b806352e20c4f146103145780635ab4f1621461032757806360f490f71461033a5780636880f137146103615780637366252c14610374578063758436181461038757600080fd5b8063329a5ac01161014b5780633bfb14f5116101255780633bfb14f51461026d578063490f0eba146102915780634d4d2b1c146102b15780634e8e32b51461030157600080fd5b8063329a5ac01461023157806333587dc41461025257806334f167a91461026557600080fd5b80630accc75d146101935780631d2f4368146101a85780631fe7fe7e146101d157806320261995146101e45780632c8bc50b1461020b5780632fda53e71461021e575b600080fd5b6101a66101a1366004613f76565b6104ce565b005b6101bb6101b636600461405d565b6108ac565b6040516101c891906140cb565b60405180910390f35b6101a66101df366004614132565b61092c565b6101f76101f2366004614261565b610fa5565b6040516101c89897969594939291906143ca565b6101a66102193660046144e2565b611668565b6101bb61022c366004614261565b611726565b61024461023f3660046145b8565b611793565b6040519081526020016101c8565b6102446102603660046145f4565b611a9a565b6101a6611d89565b61028061027b36600461468d565b611ee0565b6040516101c89594939291906146af565b6102a461029f366004614711565b612168565b6040516101c8919061472a565b6102f16102bf36600461405d565b6001600160a01b0391821660009081526004602090815260408083209390941682526006909201909152205460ff1690565b60405190151581526020016101c8565b6101a661030f36600461473d565b6121d6565b6102f1610322366004614767565b6124a6565b6102f161033536600461405d565b6124b9565b61034d61034836600461405d565b61255d565b6040516101c898979695949392919061478a565b6101a661036f366004614261565b61281c565b6101a6610382366004614767565b612938565b6101bb610395366004614711565b612b07565b6103f16103a8366004614261565b6001600160a01b031660009081526004602081905260409091206005810154600182015460028301546003840154939094015460ff808416969295949391926101009092041690565b60408051961515875260208701959095529385019290925260608401526080830152151560a082015260c0016101c8565b6101a6610430366004614261565b612b6a565b610448610443366004614711565b612fda565b6040516101c89998979695949392919061480e565b6101a661046b366004614711565b6132ae565b6102a461047e366004614261565b61347b565b610496610491366004614261565b6134f0565b6040516101c8969594939291906148a9565b6104bb6104b6366004614261565b61366e565b6040516101c897969594939291906148f6565b33600090815260208190526040902060070154610100900460ff161561053b5760405162461bcd60e51b815260206004820152601860248201527f4f776e657220616c72656164792072656769737465726564000000000000000060448201526064015b60405180910390fd5b6201518081101561058e5760405162461bcd60e51b815260206004820152601860248201527f477261636520696e74657276616c20746f6f2073686f727400000000000000006044820152606401610532565b6301e133808111156105e25760405162461bcd60e51b815260206004820152601760248201527f477261636520696e74657276616c20746f6f206c6f6e670000000000000000006044820152606401610532565b604051806101600160405280336001600160a01b031681526020018a8a8080601f016020809104026020016040519081016040528093929190818152602001838380828437600092019190915250505090825250604080516020601f8b0181900481028201810190925289815291810191908a908a9081908401838280828437600092019190915250505090825250604080516020601f890181900481028201810190925287815291810191908890889081908401838280828437600092019190915250505090825250604080516020601f870181900481028201810190925285815291810191908690869081908401838280828437600092018290525093855250504260208401525060408201849052606082018190526001608083015260a090910190604051908082528060200260200182016040528015610730578160200160208202803683370190505b5081526020016000604051908082528060200260200182016040528015610761578160200160208202803683370190505b50905233600090815260208181526040909120825181546001600160a01b0319166001600160a01b039091161781559082015160018201906107a39082614a2b565b50604082015160028201906107b89082614a2b565b50606082015160038201906107cd9082614a2b565b50608082015160048201906107e29082614a2b565b5060a0820151600582015560c0820151600682015560e08201516007820180546101008086015115150261ff00199315159390931661ffff19909116179190911790556101208201518051610841916008840191602090910190613e79565b50610140820151805161085e916009840191602090910190613ede565b50506040513391507f90fdcd9183750bdfb11be5d6379c04e744e8f650aac530ea853c19226ea7eb2b90610899908c908c908c908c90614b13565b60405180910390a2505050505050505050565b6001600160a01b038083166000908152600160209081526040808320938516835292815290829020600681018054845181850281018501909552808552606094929383018282801561091d57602002820191906000526020600020905b815481526020019060010190808311610909575b50505050509150505b92915050565b33600090815260208190526040902060070154610100900460ff166109635760405162461bcd60e51b815260040161053290614b45565b336001600160a01b038d16036109bb5760405162461bcd60e51b815260206004820152601e60248201527f43616e6e6f742061646420796f757273656c6620617320636f6e7461637400006044820152606401610532565b60016000336001600160a01b03166001600160a01b0316815260200190815260200160002060008d6001600160a01b03166001600160a01b0316815260200190815260200160002060050160029054906101000a900460ff1615610a5a5760405162461bcd60e51b8152602060048201526016602482015275436f6e7461637420616c72656164792065786973747360501b6044820152606401610532565b6040518061012001604052808d6001600160a01b031681526020018c8c8080601f016020809104026020016040519081016040528093929190818152602001838380828437600092019190915250505090825250604080516020601f8d018190048102820181019092528b815291810191908c908c9081908401838280828437600092019190915250505090825250604080516020601f8b0181900481028201810190925289815291810191908a908a9081908401838280828437600092019190915250505090825250604080516020601f890181900481028201810190925287815291810191908890889081908401838280828437600092018290525093855250505085151560208084019190915260408084018390526001606085015280518381529182019052608090920191905081525060016000336001600160a01b03166001600160a01b0316815260200190815260200160002060008e6001600160a01b03166001600160a01b0316815260200190815260200160002060008201518160000160006101000a8154816001600160a01b0302191690836001600160a01b031602179055506020820151816001019081610c189190614a2b565b5060408201516002820190610c2d9082614a2b565b5060608201516003820190610c429082614a2b565b5060808201516004820190610c579082614a2b565b5060a082015160058201805460c085015160e086015161ffff1990921693151561ff0019169390931761010093151584021762ff0000191662010000911515919091021790558201518051610cb6916006840191602090910190613ede565b50905050600080336001600160a01b03166001600160a01b031681526020019081526020016000206008018c9080600181540180825580915050600190039060005260206000200160009091909190916101000a8154816001600160a01b0302191690836001600160a01b0316021790555060005b81811015610f43576000838383818110610d4757610d47614b73565b60209081029290920135600081815260029093526040909220600501549192505060ff16610d875760405162461bcd60e51b815260040161053290614b89565b600081815260026020819052604090912001546001600160a01b03163314610dc15760405162461bcd60e51b815260040161053290614bb7565b610dcb818f613cc2565b15610e2a5760405162461bcd60e51b815260206004820152602960248201527f436f6e7461637420616c726561647920617574686f72697a656420666f7220746044820152681a1a5cc81d985d5b1d60ba1b6064820152608401610532565b600260008281526020019081526020016000206006018e9080600181540180825580915050600190039060005260206000200160009091909190916101000a8154816001600160a01b0302191690836001600160a01b0316021790555060016000336001600160a01b03166001600160a01b0316815260200190815260200160002060008f6001600160a01b03166001600160a01b031681526020019081526020016000206006018190806001815401808255809150506001900390600052602060002001600090919091909150558d6001600160a01b0316817f072024bc1a3beff7df2fe575c8097c660ee4a4e15f263e037ed38560728681f160405160405180910390a35080610f3b81614bf6565b915050610d2b565b508b6001600160a01b0316336001600160a01b03167fd39b94c4e0a6dc7134a60e93b1e6d3076988e71a9558afb69b3ecb6488db04dd8d8d8d8d89604051610f8f959493929190614c0f565b60405180910390a3505050505050505050505050565b60608060608060608060608060008060008b6001600160a01b03166001600160a01b0316815260200190815260200160002060090180548060200260200160405190810160405280929190818152602001828054801561102457602002820191906000526020600020905b815481526020019060010190808311611010575b5050835193945083925050506001600160401b038111156110475761104761498d565b604051908082528060200260200182016040528015611070578160200160208202803683370190505b509950806001600160401b0381111561108b5761108b61498d565b6040519080825280602002602001820160405280156110be57816020015b60608152602001906001900390816110a95790505b509850806001600160401b038111156110d9576110d961498d565b604051908082528060200260200182016040528015611102578160200160208202803683370190505b509750806001600160401b0381111561111d5761111d61498d565b604051908082528060200260200182016040528015611146578160200160208202803683370190505b509650806001600160401b038111156111615761116161498d565b60405190808252806020026020018201604052801561119457816020015b606081526020019060019003908161117f5790505b509550806001600160401b038111156111af576111af61498d565b6040519080825280602002602001820160405280156111e257816020015b60608152602001906001900390816111cd5790505b509450806001600160401b038111156111fd576111fd61498d565b60405190808252806020026020018201604052801561123057816020015b606081526020019060019003908161121b5790505b509350806001600160401b0381111561124b5761124b61498d565b60405190808252806020026020018201604052801561127e57816020015b60608152602001906001900390816112695790505b50925060005b8181101561165a5760008382815181106112a0576112a0614b73565b60200260200101519050600060026000838152602001908152602001600020905080600001548d84815181106112d8576112d8614b73565b6020026020010181815250508060010180546112f3906149a3565b80601f016020809104026020016040519081016040528092919081815260200182805461131f906149a3565b801561136c5780601f106113415761010080835404028352916020019161136c565b820191906000526020600020905b81548152906001019060200180831161134f57829003601f168201915b50505050508c848151811061138357611383614b73565b602090810291909101015260028101548b516001600160a01b03909116908c90859081106113b3576113b3614b73565b60200260200101906001600160a01b031690816001600160a01b0316815250508060020160149054906101000a900460ff168a84815181106113f7576113f7614b73565b91151560209283029190910190910152600381018054611416906149a3565b80601f0160208091040260200160405190810160405280929190818152602001828054611442906149a3565b801561148f5780601f106114645761010080835404028352916020019161148f565b820191906000526020600020905b81548152906001019060200180831161147257829003601f168201915b50505050508984815181106114a6576114a6614b73565b60200260200101819052508060040180546114c0906149a3565b80601f01602080910402602001604051908101604052809291908181526020018280546114ec906149a3565b80156115395780601f1061150e57610100808354040283529160200191611539565b820191906000526020600020905b81548152906001019060200180831161151c57829003601f168201915b505050505088848151811061155057611550614b73565b6020026020010181905250806007018054806020026020016040519081016040528092919081815260200182805480156115a957602002820191906000526020600020905b815481526020019060010190808311611595575b50505050508784815181106115c0576115c0614b73565b60200260200101819052508060060180548060200260200160405190810160405280929190818152602001828054801561162357602002820191906000526020600020905b81546001600160a01b03168152600190910190602001808311611605575b505050505086848151811061163a5761163a614b73565b60200260200101819052505050808061165290614bf6565b915050611284565b505050919395975091939597565b6001600160a01b0389166000908152600160209081526040808320338452909152902060050154899062010000900460ff166116b65760405162461bcd60e51b815260040161053290614c4b565b6001600160a01b038a1660009081526001602081815260408084203385529091529091209081016116e88a8c83614c82565b50600281016116f8888a83614c82565b5060038101611708868883614c82565b5060048101611718848683614c82565b505050505050505050505050565b6001600160a01b0381166000908152602081815260409182902060090180548351818402810184019094528084526060939283018282801561178757602002820191906000526020600020905b815481526020019060010190808311611773575b50505050509050919050565b6000898152600260205260408120600501548a9060ff166117c65760405162461bcd60e51b815260040161053290614b89565b600081815260026020819052604090912001546001600160a01b031633146118005760405162461bcd60e51b815260040161053290614bb7565b60065460008c815260036020908152604080832084845290915290206005015460ff16156118665760405162461bcd60e51b815260206004820152601360248201527246696c6520616c72656164792065786973747360681b6044820152606401610532565b6040518060c001604052808281526020018c8c8080601f016020809104026020016040519081016040528093929190818152602001838380828437600092019190915250505090825250604080516020601f8d018190048102820181019092528b815291810191908c908c9081908401838280828437600092019190915250505090825250604080516020601f8b0181900481028201810190925289815291810191908a908a9081908401838280828437600092019190915250505090825250604080516020601f890181900481028201810190925287815291810191908890889081908401838280828437600081840152601f19601f82011690508083019250505050505050815260200160011515815250600360008e815260200190815260200160002060008381526020019081526020016000206000820151816000015560208201518160010190816119bc9190614a2b565b50604082015160028201906119d19082614a2b565b50606082015160038201906119e69082614a2b565b50608082015160048201906119fb9082614a2b565b5060a091909101516005909101805460ff191691151591909117905560008c815260026020908152604082206007018054600181018255908352908220018290556006805491611a4a83614bf6565b91905055508b7f1d3c6a3c34addeca1898ed9e2152304ea92cf5b2dfabe5461461392a62f6d8de828d8d604051611a8393929190614d42565b60405180910390a29b9a5050505050505050505050565b33600090815260208190526040812060070154610100900460ff16611ad15760405162461bcd60e51b815260040161053290614b45565b6005805460008181526002602052604090209091015460ff1615611b2e5760405162461bcd60e51b81526020600482015260146024820152735661756c7420616c72656164792065786973747360601b6044820152606401610532565b60405180610120016040528082815260200189898080601f01602080910402602001604051908101604052809392919081815260200183838082843760009201829052509385525050336020808501919091526040808501939093528251601f8b018290048202810182019093528983526060909301928a9150899081908401838280828437600092019190915250505090825250604080516020601f880181900481028201810190925286815291810191908790879081908401838280828437600092018290525093855250506001602080850182905260408051858152808301825281870152805185815280830182526060909601959095528684526002815293909220845181559284015191830191611c4b915082614a2b565b50604082015160028201805460608501511515600160a01b026001600160a81b03199091166001600160a01b039093169290921791909117905560808201516003820190611c999082614a2b565b5060a08201516004820190611cae9082614a2b565b5060c082015160058201805460ff191691151591909117905560e08201518051611ce2916006840191602090910190613e79565b506101008201518051611cff916007840191602090910190613ede565b505033600090815260208181526040822060090180546001810182559083529082200183905560058054925090611d3583614bf6565b9190505550336001600160a01b0316817f6cda1fe49e022cf08f0f3e367bd8c6abb3c3a01a260273f23c8e432a4166a0488a8a604051611d76929190614d65565b60405180910390a3979650505050505050565b33600090815260208190526040902060070154610100900460ff16611dc05760405162461bcd60e51b815260040161053290614b45565b3360009081526020819052604090206007015460ff1615611e235760405162461bcd60e51b815260206004820152601960248201527f4f776e657220697320616c7265616479206465636561736564000000000000006044820152606401610532565b33600090815260208181526040808320426005918201556004909252909120015460ff1615611ea95733600081815260046020526040808220600501805460ff19169055517fac892f9ea2bac4d143f762134b209de57efb94b00c56302aaed590951368eaac91611ea09142909115158252602082015260400190565b60405180910390a25b60405142815233907f878229cab17522b0aa9fe67ef166ba37857b7fdb46cd8748179a9d9a7373727f9060200160405180910390a2565b6000828152600360208181526040808420858552909152822060058101546001820180546060958695869586959294909390926002850192850191600486019160ff16908590611f2f906149a3565b80601f0160208091040260200160405190810160405280929190818152602001828054611f5b906149a3565b8015611fa85780601f10611f7d57610100808354040283529160200191611fa8565b820191906000526020600020905b815481529060010190602001808311611f8b57829003601f168201915b50505050509450838054611fbb906149a3565b80601f0160208091040260200160405190810160405280929190818152602001828054611fe7906149a3565b80156120345780601f1061200957610100808354040283529160200191612034565b820191906000526020600020905b81548152906001019060200180831161201757829003601f168201915b50505050509350828054612047906149a3565b80601f0160208091040260200160405190810160405280929190818152602001828054612073906149a3565b80156120c05780601f10612095576101008083540402835291602001916120c0565b820191906000526020600020905b8154815290600101906020018083116120a357829003601f168201915b505050505092508180546120d3906149a3565b80601f01602080910402602001604051908101604052809291908181526020018280546120ff906149a3565b801561214c5780601f106121215761010080835404028352916020019161214c565b820191906000526020600020905b81548152906001019060200180831161212f57829003601f168201915b5050505050915095509550955095509550509295509295909350565b60008181526002602090815260409182902060060180548351818402810184019094528084526060939283018282801561178757602002820191906000526020600020905b81546001600160a01b031681526001909101906020018083116121ad5750505050509050919050565b6001600160a01b0382166000908152600160209081526040808320338452909152902060050154829062010000900460ff166122245760405162461bcd60e51b815260040161053290614c4b565b6001600160a01b0381166000908152600160209081526040808320338452909152902060050154610100900460ff166122965760405162461bcd60e51b815260206004820152601460248201527310dbdb9d1858dd081b9bdd081d995c9a599a595960621b6044820152606401610532565b6001600160a01b038116600090815260016020908152604080832033845290915290206005015460ff166122ff5760405162461bcd60e51b815260206004820152601060248201526f4e6f20766f74696e672072696768747360801b6044820152606401610532565b6001600160a01b03831660009081526004602052604090206005015460ff1661236a5760405162461bcd60e51b815260206004820152601b60248201527f4e6f20616374697665206465617468206465636c61726174696f6e00000000006044820152606401610532565b6001600160a01b038316600090815260046020908152604080832033845260060190915290205460ff16156123d15760405162461bcd60e51b815260206004820152600d60248201526c105b1c9958591e481d9bdd1959609a1b6044820152606401610532565b6001600160a01b0383166000908152600460209081526040808320338452600681018352818420805460ff199081166001179091556007820190935292208054851580159190931617905561243c5760028101805490600061243283614bf6565b9190505550612454565b60038101805490600061244e83614bf6565b91905055505b604051831515815233906001600160a01b038616907fcc194f214df029fe546c9959ee15d79d8633742aab6c02a862e337f8ace3d550906020015b60405180910390a36124a084613d3f565b50505050565b60006124b28383613cc2565b9392505050565b6001600160a01b0380831660009081526004602090815260408083209385168352600690930190529081205460ff1661252a5760405162461bcd60e51b8152602060048201526013602482015272159bdd195c881a185cc81b9bdd081d9bdd1959606a1b6044820152606401610532565b506001600160a01b0391821660009081526004602090815260408083209390941682526007909201909152205460ff1690565b6001600160a01b0380831660009081526001602081815260408084208686168552909152822080546005820154928201805494956060958695869586958a95869586959394921692909160028501916003860191600487019160ff808316926101008104821692620100009091049091169087906125da906149a3565b80601f0160208091040260200160405190810160405280929190818152602001828054612606906149a3565b80156126535780601f1061262857610100808354040283529160200191612653565b820191906000526020600020905b81548152906001019060200180831161263657829003601f168201915b50505050509650858054612666906149a3565b80601f0160208091040260200160405190810160405280929190818152602001828054612692906149a3565b80156126df5780601f106126b4576101008083540402835291602001916126df565b820191906000526020600020905b8154815290600101906020018083116126c257829003601f168201915b505050505095508480546126f2906149a3565b80601f016020809104026020016040519081016040528092919081815260200182805461271e906149a3565b801561276b5780601f106127405761010080835404028352916020019161276b565b820191906000526020600020905b81548152906001019060200180831161274e57829003601f168201915b5050505050945083805461277e906149a3565b80601f01602080910402602001604051908101604052809291908181526020018280546127aa906149a3565b80156127f75780601f106127cc576101008083540402835291602001916127f7565b820191906000526020600020905b8154815290600101906020018083116127da57829003601f168201915b5050505050935098509850985098509850985098509850509295985092959890939650565b6001600160a01b0381166000908152600160209081526040808320338452909152902060050154819062010000900460ff1661286a5760405162461bcd60e51b815260040161053290614c4b565b6001600160a01b0382166000908152600160209081526040808320338452909152902060050154610100900460ff16156128d95760405162461bcd60e51b815260206004820152601060248201526f105b1c9958591e481d995c9a599a595960821b6044820152606401610532565b6001600160a01b0382166000818152600160209081526040808320338085529252808320600501805461ff001916610100179055519092917f33c6b9962c16a3768d4f15c8f694b088fd57a39499a9b9f7e59243c371a2207a91a35050565b600082815260026020526040902060050154829060ff1661296b5760405162461bcd60e51b815260040161053290614b89565b600081815260026020819052604090912001546001600160a01b031633146129a55760405162461bcd60e51b815260040161053290614bb7565b3360009081526001602090815260408083206001600160a01b038616845290915290206005015462010000900460ff16612a1a5760405162461bcd60e51b815260206004820152601660248201527510dbdb9d1858dd08191bd95cc81b9bdd08195e1a5cdd60521b6044820152606401610532565b612a248383613cc2565b15612a715760405162461bcd60e51b815260206004820152601a60248201527f436f6e7461637420616c726561647920617574686f72697a65640000000000006044820152606401610532565b600083815260026020908152604080832060069081018054600180820183559186528486200180546001600160a01b0319166001600160a01b038916908117909155338652818552838620818752855283862090920180549182018155855292842090920186905551909185917f072024bc1a3beff7df2fe575c8097c660ee4a4e15f263e037ed38560728681f19190a3505050565b60008181526002602090815260409182902060070180548351818402810184019094528084526060939283018282801561178757602002820191906000526020600020908154815260200190600101908083116117735750505050509050919050565b6001600160a01b0381166000908152600160209081526040808320338452909152902060050154819062010000900460ff16612bb85760405162461bcd60e51b815260040161053290614c4b565b6001600160a01b0381166000908152600160209081526040808320338452909152902060050154610100900460ff16612c2a5760405162461bcd60e51b815260206004820152601460248201527310dbdb9d1858dd081b9bdd081d995c9a599a595960621b6044820152606401610532565b6001600160a01b038116600090815260016020908152604080832033845290915290206005015460ff16612c935760405162461bcd60e51b815260206004820152601060248201526f4e6f20766f74696e672072696768747360801b6044820152606401610532565b6001600160a01b038216600090815260208190526040902060070154610100900460ff16612cd35760405162461bcd60e51b815260040161053290614b45565b6001600160a01b03821660009081526020819052604090206007015460ff1615612d385760405162461bcd60e51b815260206004820152601660248201527513dddb995c88185b1c9958591e48191958d9585cd95960521b6044820152606401610532565b6001600160a01b03821660009081526004602052604090206005015460ff1615612da45760405162461bcd60e51b815260206004820181905260248201527f4465617468206465636c61726174696f6e20616c7265616479206163746976656044820152606401610532565b6000805b6001600160a01b038416600090815260208190526040902060080154811015612e92576001600160a01b0384166000908152602081905260408120600801805483908110612df857612df8614b73565b60009182526020808320909101546001600160a01b0388811684526001835260408085209190921680855292529091206005015490915060ff610100909104168015612e6c57506001600160a01b0380861660009081526001602090815260408083209385168352929052206005015460ff165b15612e7f5782612e7b81614bf6565b9350505b5080612e8a81614bf6565b915050612da8565b5060008111612ee35760405162461bcd60e51b815260206004820152601c60248201527f4e6f20766f74696e6720636f6e746163747320617661696c61626c65000000006044820152606401610532565b6001600160a01b038316600081815260046020818152604080842080546001600160a01b031916339081178255426001808401829055600284018190556003840188905595830189905560058301805461ffff191687179055818752600683018552838720805460ff199081168817909155600784018652968490208054909716909517909555905192835293917fd1ffe6c6eec884ae3341f8304738b02340905dfd25b73df1802e7f95c9b9fbec910160405180910390a36040516001815233906001600160a01b038616907fcc194f214df029fe546c9959ee15d79d8633742aab6c02a862e337f8ace3d5509060200161248f565b6000818152600260208190526040822080549181015460058201546001830180546060958795869588958695869586958a959490936001600160a01b0382169260ff600160a01b9093048316926003880192600489019260078a019260068b019216908890613048906149a3565b80601f0160208091040260200160405190810160405280929190818152602001828054613074906149a3565b80156130c15780601f10613096576101008083540402835291602001916130c1565b820191906000526020600020905b8154815290600101906020018083116130a457829003601f168201915b505050505097508480546130d4906149a3565b80601f0160208091040260200160405190810160405280929190818152602001828054613100906149a3565b801561314d5780601f106131225761010080835404028352916020019161314d565b820191906000526020600020905b81548152906001019060200180831161313057829003601f168201915b50505050509450838054613160906149a3565b80601f016020809104026020016040519081016040528092919081815260200182805461318c906149a3565b80156131d95780601f106131ae576101008083540402835291602001916131d9565b820191906000526020600020905b8154815290600101906020018083116131bc57829003601f168201915b505050505093508280548060200260200160405190810160405280929190818152602001828054801561322b57602002820191906000526020600020905b815481526020019060010190808311613217575b505050505092508180548060200260200160405190810160405280929190818152602001828054801561328757602002820191906000526020600020905b81546001600160a01b03168152600190910190602001808311613269575b50505050509150995099509950995099509950995099509950509193959799909294969850565b600081815260026020526040902060050154819060ff166132e15760405162461bcd60e51b815260040161053290614b89565b600081815260026020819052604090912001546001600160a01b031633148061330f575061330f8133613cc2565b61334c5760405162461bcd60e51b815260206004820152600e60248201526d139bdd08185d5d1a1bdc9a5e995960921b6044820152606401610532565b60008281526002602081905260409091200154600160a01b900460ff16156133af5760405162461bcd60e51b815260206004820152601660248201527515985d5b1d08185b1c9958591e481c995b19585cd95960521b6044820152606401610532565b6000828152600260208181526040808420909201546001600160a01b0316835282905290206007015460ff1661341c5760405162461bcd60e51b815260206004820152601260248201527113dddb995c881b9bdd08191958d9585cd95960721b6044820152606401610532565b6000828152600260208190526040808320909101805460ff60a01b198116600160a01b1790915590516001600160a01b039091169184917fa18f1ac3d4c6b800447518126c2fc0d98210a7078080b093679e972d1f8500b99190a35050565b6001600160a01b03811660009081526020818152604091829020600801805483518184028101840190945280845260609392830182828015611787576020028201919060005260206000209081546001600160a01b031681526001909101906020018083116121ad5750505050509050919050565b6001600160a01b03811660009081526020819052604081206005810154600682015460078301546001840180546060968796909586958695869593946002860193929160ff808216926101009092041690869061354c906149a3565b80601f0160208091040260200160405190810160405280929190818152602001828054613578906149a3565b80156135c55780601f1061359a576101008083540402835291602001916135c5565b820191906000526020600020905b8154815290600101906020018083116135a857829003601f168201915b505050505095508480546135d8906149a3565b80601f0160208091040260200160405190810160405280929190818152602001828054613604906149a3565b80156136515780601f1061362657610100808354040283529160200191613651565b820191906000526020600020905b81548152906001019060200180831161363457829003601f168201915b505050505094509650965096509650965096505091939550919395565b606080606080606080606060008060008a6001600160a01b03166001600160a01b031681526020019081526020016000206008018054806020026020016040519081016040528092919081815260200182805480156136f657602002820191906000526020600020905b81546001600160a01b031681526001909101906020018083116136d8575b5050835193945083925050506001600160401b038111156137195761371961498d565b604051908082528060200260200182016040528015613742578160200160208202803683370190505b509850806001600160401b0381111561375d5761375d61498d565b60405190808252806020026020018201604052801561379057816020015b606081526020019060019003908161377b5790505b509750806001600160401b038111156137ab576137ab61498d565b6040519080825280602002602001820160405280156137de57816020015b60608152602001906001900390816137c95790505b509650806001600160401b038111156137f9576137f961498d565b60405190808252806020026020018201604052801561382c57816020015b60608152602001906001900390816138175790505b509550806001600160401b038111156138475761384761498d565b60405190808252806020026020018201604052801561387a57816020015b60608152602001906001900390816138655790505b509450806001600160401b038111156138955761389561498d565b6040519080825280602002602001820160405280156138be578160200160208202803683370190505b509350806001600160401b038111156138d9576138d961498d565b604051908082528060200260200182016040528015613902578160200160208202803683370190505b50925060005b81811015613cb457600083828151811061392457613924614b73565b6020908102919091018101516001600160a01b03808f16600090815260018452604080822083851683529094529290922080548e51929450909216908d908590811061397257613972614b73565b60200260200101906001600160a01b031690816001600160a01b0316815250508060010180546139a1906149a3565b80601f01602080910402602001604051908101604052809291908181526020018280546139cd906149a3565b8015613a1a5780601f106139ef57610100808354040283529160200191613a1a565b820191906000526020600020905b8154815290600101906020018083116139fd57829003601f168201915b50505050508b8481518110613a3157613a31614b73565b6020026020010181905250806002018054613a4b906149a3565b80601f0160208091040260200160405190810160405280929190818152602001828054613a77906149a3565b8015613ac45780601f10613a9957610100808354040283529160200191613ac4565b820191906000526020600020905b815481529060010190602001808311613aa757829003601f168201915b50505050508a8481518110613adb57613adb614b73565b6020026020010181905250806003018054613af5906149a3565b80601f0160208091040260200160405190810160405280929190818152602001828054613b21906149a3565b8015613b6e5780601f10613b4357610100808354040283529160200191613b6e565b820191906000526020600020905b815481529060010190602001808311613b5157829003601f168201915b5050505050898481518110613b8557613b85614b73565b6020026020010181905250806004018054613b9f906149a3565b80601f0160208091040260200160405190810160405280929190818152602001828054613bcb906149a3565b8015613c185780601f10613bed57610100808354040283529160200191613c18565b820191906000526020600020905b815481529060010190602001808311613bfb57829003601f168201915b5050505050888481518110613c2f57613c2f614b73565b60209081029190910101526005810154875160ff90911690889085908110613c5957613c59614b73565b6020026020010190151590811515815250508060050160019054906101000a900460ff16868481518110613c8f57613c8f614b73565b9115156020928302919091019091015250819050613cac81614bf6565b915050613908565b505050919395979092949650565b6000828152600260205260408120815b6006820154811015613d3457836001600160a01b0316826006018281548110613cfd57613cfd614b73565b6000918252602090912001546001600160a01b031603613d2257600192505050610926565b80613d2c81614bf6565b915050613cd2565b506000949350505050565b6001600160a01b0381166000908152600460208190526040822090810154909190606490613d6e906032614d81565b613d789190614d98565b613d83906001614dba565b905080826002015410613e13576001600160a01b03831660008181526020819052604090819020600701805460ff1916600190811790915560058501805461ffff191661010017905590517fac892f9ea2bac4d143f762134b209de57efb94b00c56302aaed590951368eaac91613e069142909115158252602082015260400190565b60405180910390a2505050565b80826003015410613e745760058201805461ffff191661010017905560408051600081524260208201526001600160a01b038516917fac892f9ea2bac4d143f762134b209de57efb94b00c56302aaed590951368eaac910160405180910390a25b505050565b828054828255906000526020600020908101928215613ece579160200282015b82811115613ece57825182546001600160a01b0319166001600160a01b03909116178255602090920191600190910190613e99565b50613eda929150613f19565b5090565b828054828255906000526020600020908101928215613ece579160200282015b82811115613ece578251825591602001919060010190613efe565b5b80821115613eda5760008155600101613f1a565b60008083601f840112613f4057600080fd5b5081356001600160401b03811115613f5757600080fd5b602083019150836020828501011115613f6f57600080fd5b9250929050565b600080600080600080600080600060a08a8c031215613f9457600080fd5b89356001600160401b0380821115613fab57600080fd5b613fb78d838e01613f2e565b909b50995060208c0135915080821115613fd057600080fd5b613fdc8d838e01613f2e565b909950975060408c0135915080821115613ff557600080fd5b6140018d838e01613f2e565b909750955060608c013591508082111561401a57600080fd5b506140278c828d01613f2e565b9a9d999c50979a9699959894979660800135949350505050565b80356001600160a01b038116811461405857600080fd5b919050565b6000806040838503121561407057600080fd5b61407983614041565b915061408760208401614041565b90509250929050565b600081518084526020808501945080840160005b838110156140c0578151875295820195908201906001016140a4565b509495945050505050565b6020815260006124b26020830184614090565b8035801515811461405857600080fd5b60008083601f84011261410057600080fd5b5081356001600160401b0381111561411757600080fd5b6020830191508360208260051b8501011115613f6f57600080fd5b60008060008060008060008060008060008060e08d8f03121561415457600080fd5b61415d8d614041565b9b506001600160401b0360208e0135111561417757600080fd5b6141878e60208f01358f01613f2e565b909b5099506001600160401b0360408e013511156141a457600080fd5b6141b48e60408f01358f01613f2e565b90995097506001600160401b0360608e013511156141d157600080fd5b6141e18e60608f01358f01613f2e565b90975095506001600160401b0360808e013511156141fe57600080fd5b61420e8e60808f01358f01613f2e565b909550935061421f60a08e016140de565b92506001600160401b0360c08e0135111561423957600080fd5b6142498e60c08f01358f016140ee565b81935080925050509295989b509295989b509295989b565b60006020828403121561427357600080fd5b6124b282614041565b6000815180845260005b818110156142a257602081850181015186830182015201614286565b506000602082860101526020601f19601f83011685010191505092915050565b600082825180855260208086019550808260051b84010181860160005b8481101561430d57601f198684030189526142fb83835161427c565b988401989250908301906001016142df565b5090979650505050505050565b600081518084526020808501945080840160005b838110156140c05781516001600160a01b03168752958201959082019060010161432e565b600081518084526020808501945080840160005b838110156140c0578151151587529582019590820190600101614367565b6000815180845260208085019450848260051b860182860160005b8581101561430d5783830389526143b883835161431a565b988501989250908401906001016143a0565b60006101008083526143de8184018c614090565b90506020838203818501526143f3828c6142c2565b91508382036040850152614407828b61431a565b9150838203606085015261441b828a614353565b9150838203608085015261442f82896142c2565b915083820360a085015261444382886142c2565b915083820360c08501528186518084528284019150828160051b8501018389016000805b848110156144ba57878403601f19018652825180518086529088019088860190845b818110156144a55783518352928a0192918a0191600101614489565b50509688019694505091860191600101614467565b50505086810360e08801526144cf8189614385565b9f9e505050505050505050505050505050565b600080600080600080600080600060a08a8c03121561450057600080fd5b6145098a614041565b985060208a01356001600160401b038082111561452557600080fd5b6145318d838e01613f2e565b909a50985060408c013591508082111561454a57600080fd5b6145568d838e01613f2e565b909850965060608c013591508082111561456f57600080fd5b61457b8d838e01613f2e565b909650945060808c013591508082111561459457600080fd5b506145a18c828d01613f2e565b915080935050809150509295985092959850929598565b600080600080600080600080600060a08a8c0312156145d657600080fd5b8935985060208a01356001600160401b038082111561452557600080fd5b6000806000806000806060878903121561460d57600080fd5b86356001600160401b038082111561462457600080fd5b6146308a838b01613f2e565b9098509650602089013591508082111561464957600080fd5b6146558a838b01613f2e565b9096509450604089013591508082111561466e57600080fd5b5061467b89828a01613f2e565b979a9699509497509295939492505050565b600080604083850312156146a057600080fd5b50508035926020909101359150565b60a0815260006146c260a083018861427c565b82810360208401526146d4818861427c565b905082810360408401526146e8818761427c565b905082810360608401526146fc818661427c565b91505082151560808301529695505050505050565b60006020828403121561472357600080fd5b5035919050565b6020815260006124b2602083018461431a565b6000806040838503121561475057600080fd5b61475983614041565b9150614087602084016140de565b6000806040838503121561477a57600080fd5b8235915061408760208401614041565b6001600160a01b0389168152610100602082018190526000906147af8382018b61427c565b905082810360408401526147c3818a61427c565b905082810360608401526147d7818961427c565b905082810360808401526147eb818861427c565b95151560a0840152505091151560c0830152151560e09091015295945050505050565b60006101208b83528060208401526148288184018c61427c565b6001600160a01b038b166040850152891515606085015283810360808501529050614853818961427c565b905082810360a0840152614867818861427c565b905082810360c084015261487b8187614090565b905082810360e084015261488f818661431a565b9150508215156101008301529a9950505050505050505050565b60c0815260006148bc60c083018961427c565b82810360208401526148ce818961427c565b6040840197909752505060608101939093529015156080830152151560a09091015292915050565b60e08152600061490960e083018a61431a565b828103602084015261491b818a6142c2565b9050828103604084015261492f81896142c2565b9050828103606084015261494381886142c2565b9050828103608084015261495781876142c2565b905082810360a084015261496b8186614353565b905082810360c084015261497f8185614353565b9a9950505050505050505050565b634e487b7160e01b600052604160045260246000fd5b600181811c908216806149b757607f821691505b6020821081036149d757634e487b7160e01b600052602260045260246000fd5b50919050565b601f821115613e7457600081815260208120601f850160051c81016020861015614a045750805b601f850160051c820191505b81811015614a2357828155600101614a10565b505050505050565b81516001600160401b03811115614a4457614a4461498d565b614a5881614a5284546149a3565b846149dd565b602080601f831160018114614a8d5760008415614a755750858301515b600019600386901b1c1916600185901b178555614a23565b600085815260208120601f198616915b82811015614abc57888601518255948401946001909101908401614a9d565b5085821015614ada5787850151600019600388901b60f8161c191681555b5050505050600190811b01905550565b81835281816020850137506000828201602090810191909152601f909101601f19169091010190565b604081526000614b27604083018688614aea565b8281036020840152614b3a818587614aea565b979650505050505050565b60208082526014908201527313dddb995c881b9bdd081c9959da5cdd195c995960621b604082015260600190565b634e487b7160e01b600052603260045260246000fd5b60208082526014908201527315985d5b1d08191bd95cc81b9bdd08195e1a5cdd60621b604082015260600190565b6020808252600f908201526e2737ba103b30bab63a1037bbb732b960891b604082015260600190565b634e487b7160e01b600052601160045260246000fd5b600060018201614c0857614c08614be0565b5060010190565b606081526000614c23606083018789614aea565b8281036020840152614c36818688614aea565b91505082151560408301529695505050505050565b6020808252601b908201527f4e6f74206120636f6e74616374206f662074686973206f776e65720000000000604082015260600190565b6001600160401b03831115614c9957614c9961498d565b614cad83614ca783546149a3565b836149dd565b6000601f841160018114614ce15760008515614cc95750838201355b600019600387901b1c1916600186901b178355614d3b565b600083815260209020601f19861690835b82811015614d125786850135825560209485019460019092019101614cf2565b5086821015614d2f5760001960f88860031b161c19848701351681555b505060018560011b0183555b5050505050565b838152604060208201526000614d5c604083018486614aea565b95945050505050565b602081526000614d79602083018486614aea565b949350505050565b808202811582820484141761092657610926614be0565b600082614db557634e487b7160e01b600052601260045260246000fd5b500490565b8082018082111561092657610926614be056fea26469706673582212204a078cbfd0f9a34a0d8d01f6eeaed6035fb8ed7a59290594efc81fdc165f806b64736f6c63430008130033",
  "linkReferences": {},
  "deployedLinkReferences": {}
}