{
  "_format": "hh-sol-artifact-1",
  "contractName": "LifeSignalRegistry",
  "sourceName": "contracts/LifeSignalRegistry.sol",
  "abi": [
    {
      "anonymous": false,
      "inputs": [
        {
          "indexed": true,
          "internalType": "address",
          "name": "owner",
          "type": "address"
        },
        {
          "indexed": false,
          "internalType": "bool",
          "name": "isDeceased",
          "type": "bool"
        },
        {
          "indexed": false,
          "internalType": "uint256",
          "name": "timestamp",
          "type": "uint256"
        }
      ],
      "name": "ConsensusReached",
      "type": "event"
    },
    {
      "anonymous": false,
      "inputs": [
        {
          "indexed": true,
          "internalType": "address",
          "name": "owner",
          "type": "address"
        },
        {
          "indexed": true,
          "internalType": "address",
          "name": "contact",
          "type": "address"
        },
        {
          "indexed": false,
          "internalType": "bool",
          "name": "hasVotingRight",
          "type": "bool"
        }
      ],
      "name": "ContactAdded",
      "type": "event"
    },
    {
      "anonymous": false,
      "inputs": [
        {
          "indexed": true,
          "internalType": "address",
          "name": "owner",
          "type": "address"
        },
        {
          "indexed": true,
          "internalType": "address",
          "name": "contact",
          "type": "address"
        }
      ],
      "name": "ContactVerified",
      "type": "event"
    },
    {
      "anonymous": false,
      "inputs": [
        {
          "indexed": true,
          "internalType": "address",
          "name": "owner",
          "type": "address"
        },
        {
          "indexed": true,
          "internalType": "address",
          "name": "declaredBy",
          "type": "address"
        },
        {
          "indexed": false,
          "internalType": "uint256",
          "name": "timestamp",
          "type": "uint256"
        }
      ],
      "name": "DeathDeclared",
      "type": "event"
    },
    {
      "anonymous": false,
      "inputs": [
        {
          "indexed": true,
          "internalType": "address",
          "name": "owner",
          "type": "address"
        },
        {
          "indexed": false,
          "internalType": "uint256",
          "name": "timestamp",
          "type": "uint256"
        }
      ],
      "name": "HeartbeatSent",
      "type": "event"
    },
    {
      "anonymous": false,
      "inputs": [
        {
          "indexed": true,
          "internalType": "address",
          "name": "owner",
          "type": "address"
        },
        {
          "indexed": false,
          "internalType": "string",
          "name": "firstName",
          "type": "string"
        },
        {
          "indexed": false,
          "internalType": "string",
          "name": "lastName",
          "type": "string"
        }
      ],
      "name": "OwnerRegistered",
      "type": "event"
    },
    {
      "anonymous": false,
      "inputs": [
        {
          "indexed": true,
          "internalType": "address",
          "name": "owner",
          "type": "address"
        },
        {
          "indexed": true,
          "internalType": "address",
          "name": "voter",
          "type": "address"
        },
        {
          "indexed": false,
          "internalType": "bool",
          "name": "vote",
          "type": "bool"
        }
      ],
      "name": "VoteCast",
      "type": "event"
    },
    {
      "inputs": [
        {
          "internalType": "address",
          "name": "_contact",
          "type": "address"
        },
        {
          "internalType": "bool",
          "name": "_hasVotingRight",
          "type": "bool"
        }
      ],
      "name": "addContact",
      "outputs": [],
      "stateMutability": "nonpayable",
      "type": "function"
    },
    {
      "inputs": [
        {
          "internalType": "address",
          "name": "_owner",
          "type": "address"
        }
      ],
      "name": "declareDeceased",
      "outputs": [],
      "stateMutability": "nonpayable",
      "type": "function"
    },
    {
      "inputs": [
        {
          "internalType": "address",
          "name": "_owner",
          "type": "address"
        },
        {
          "internalType": "address",
          "name": "_contact",
          "type": "address"
        }
      ],
      "name": "getContactInfo",
      "outputs": [
        {
          "internalType": "bool",
          "name": "hasVotingRight",
          "type": "bool"
        },
        {
          "internalType": "bool",
          "name": "isVerified",
          "type": "bool"
        },
        {
          "internalType": "bool",
          "name": "exists",
          "type": "bool"
        }
      ],
      "stateMutability": "view",
      "type": "function"
    },
    {
      "inputs": [
        {
          "internalType": "address",
          "name": "_owner",
          "type": "address"
        }
      ],
      "name": "getContactList",
      "outputs": [
        {
          "internalType": "address[]",
          "name": "",
          "type": "address[]"
        }
      ],
      "stateMutability": "view",
      "type": "function"
    },
    {
      "inputs": [
        {
          "internalType": "address",
          "name": "_owner",
          "type": "address"
        }
      ],
      "name": "getDeathDeclarationStatus",
      "outputs": [
        {
          "internalType": "bool",
          "name": "isActive",
          "type": "bool"
        },
        {
          "internalType": "uint256",
          "name": "startTime",
          "type": "uint256"
        },
        {
          "internalType": "uint256",
          "name": "votesFor",
          "type": "uint256"
        },
        {
          "internalType": "uint256",
          "name": "votesAgainst",
          "type": "uint256"
        },
        {
          "internalType": "uint256",
          "name": "totalVotingContacts",
          "type": "uint256"
        },
        {
          "internalType": "bool",
          "name": "consensusReached",
          "type": "bool"
        }
      ],
      "stateMutability": "view",
      "type": "function"
    },
    {
      "inputs": [
        {
          "internalType": "address",
          "name": "_owner",
          "type": "address"
        }
      ],
      "name": "getOwnerInfo",
      "outputs": [
        {
          "internalType": "string",
          "name": "firstName",
          "type": "string"
        },
        {
          "internalType": "string",
          "name": "lastName",
          "type": "string"
        },
        {
          "internalType": "uint256",
          "name": "lastHeartbeat",
          "type": "uint256"
        },
        {
          "internalType": "uint256",
          "name": "graceInterval",
          "type": "uint256"
        },
        {
          "internalType": "bool",
          "name": "isDeceased",
          "type": "bool"
        },
        {
          "internalType": "bool",
          "name": "exists",
          "type": "bool"
        }
      ],
      "stateMutability": "view",
      "type": "function"
    },
    {
      "inputs": [
        {
          "internalType": "address",
          "name": "_owner",
          "type": "address"
        },
        {
          "internalType": "address",
          "name": "_voter",
          "type": "address"
        }
      ],
      "name": "getVote",
      "outputs": [
        {
          "internalType": "bool",
          "name": "",
          "type": "bool"
        }
      ],
      "stateMutability": "view",
      "type": "function"
    },
    {
      "inputs": [
        {
          "internalType": "address",
          "name": "_owner",
          "type": "address"
        },
        {
          "internalType": "address",
          "name": "_voter",
          "type": "address"
        }
      ],
      "name": "hasVoted",
      "outputs": [
        {
          "internalType": "bool",
          "name": "",
          "type": "bool"
        }
      ],
      "stateMutability": "view",
      "type": "function"
    },
    {
      "inputs": [
        {
          "internalType": "string",
          "name": "_firstName",
          "type": "string"
        },
        {
          "internalType": "string",
          "name": "_lastName",
          "type": "string"
        },
        {
          "internalType": "string",
          "name": "_email",
          "type": "string"
        },
        {
          "internalType": "string",
          "name": "_phone",
          "type": "string"
        },
        {
          "internalType": "uint256",
          "name": "_graceInterval",
          "type": "uint256"
        }
      ],
      "name": "registerOwner",
      "outputs": [],
      "stateMutability": "nonpayable",
      "type": "function"
    },
    {
      "inputs": [],
      "name": "sendHeartbeat",
      "outputs": [],
      "stateMutability": "nonpayable",
      "type": "function"
    },
    {
      "inputs": [
        {
          "internalType": "address",
          "name": "_owner",
          "type": "address"
        }
      ],
      "name": "verifyContact",
      "outputs": [],
      "stateMutability": "nonpayable",
      "type": "function"
    },
    {
      "inputs": [
        {
          "internalType": "address",
          "name": "_owner",
          "type": "address"
        },
        {
          "internalType": "bool",
          "name": "_vote",
          "type": "bool"
        }
      ],
      "name": "voteOnDeathDeclaration",
      "outputs": [],
      "stateMutability": "nonpayable",
      "type": "function"
    }
  ],
  "bytecode": "0x608060405234801561001057600080fd5b50611ba1806100206000396000f3fe608060405234801561001057600080fd5b50600436106100b45760003560e01c806360f490f71161007157806360f490f7146101375780636880f137146101a6578063996e6ca1146101b9578063abc22bbe14610240578063b385faa814610253578063d385de821461027357600080fd5b80630accc75d146100b95780632815f211146100ce57806334f167a9146100e15780634d4d2b1c146100e95780634e8e32b5146101115780635ab4f16214610124575b600080fd5b6100cc6100c7366004611663565b610298565b005b6100cc6100dc36600461174b565b610628565b6100cc610808565b6100fc6100f7366004611787565b61095f565b60405190151581526020015b60405180910390f35b6100cc61011f36600461174b565b610993565b6100fc610132366004611787565b610c5a565b610187610145366004611787565b6001600160a01b03918216600090815260016020908152604080832093909416825291909152205460ff80821692610100830482169262010000900490911690565b6040805193151584529115156020840152151590820152606001610108565b6100cc6101b43660046117ba565b610cfe565b61020f6101c73660046117ba565b6001600160a01b031660009081526002602081905260409091206005810154600182015492820154600383015460049093015460ff8084169692949391926101009092041690565b60408051961515875260208701959095529385019290925260608401526080830152151560a082015260c001610108565b6100cc61024e3660046117ba565b610e11565b6102666102613660046117ba565b611272565b60405161010891906117dc565b6102866102813660046117ba565b6112e9565b6040516101089695949392919061186f565b33600090815260208190526040902060070154610100900460ff16156103055760405162461bcd60e51b815260206004820152601860248201527f4f776e657220616c72656164792072656769737465726564000000000000000060448201526064015b60405180910390fd5b620151808110156103585760405162461bcd60e51b815260206004820152601860248201527f477261636520696e74657276616c20746f6f2073686f7274000000000000000060448201526064016102fc565b6301e133808111156103ac5760405162461bcd60e51b815260206004820152601760248201527f477261636520696e74657276616c20746f6f206c6f6e6700000000000000000060448201526064016102fc565b604051806101400160405280336001600160a01b031681526020018a8a8080601f016020809104026020016040519081016040528093929190818152602001838380828437600092019190915250505090825250604080516020601f8b0181900481028201810190925289815291810191908a908a9081908401838280828437600092019190915250505090825250604080516020601f890181900481028201810190925287815291810191908890889081908401838280828437600092019190915250505090825250604080516020601f870181900481028201810190925285815291810191908690869081908401838280828437600092018290525093855250504260208401525060408201849052606082018190526001608083015260a0909101906040519080825280602002602001820160405280156104fa578160200160208202803683370190505b50905233600090815260208181526040909120825181546001600160a01b0319166001600160a01b0390911617815590820151600182019061053c908261195a565b5060408201516002820190610551908261195a565b5060608201516003820190610566908261195a565b506080820151600482019061057b908261195a565b5060a0820151600582015560c0820151600682015560e08201516007820180546101008086015115150261ff00199315159390931661ffff199091161791909117905561012082015180516105da9160088401916020909101906115a0565b50506040513391507f90fdcd9183750bdfb11be5d6379c04e744e8f650aac530ea853c19226ea7eb2b90610615908c908c908c908c90611a43565b60405180910390a2505050505050505050565b33600090815260208190526040902060070154610100900460ff1661065f5760405162461bcd60e51b81526004016102fc90611a75565b336001600160a01b038316036106b75760405162461bcd60e51b815260206004820152601e60248201527f43616e6e6f742061646420796f757273656c6620617320636f6e74616374000060448201526064016102fc565b3360009081526001602090815260408083206001600160a01b038616845290915290205462010000900460ff161561072a5760405162461bcd60e51b8152602060048201526016602482015275436f6e7461637420616c72656164792065786973747360501b60448201526064016102fc565b60408051606081018252821515808252600060208084018281526001858701818152338086528285528886206001600160a01b038c1680885290865289872098518954955193511515620100000262ff0000199415156101000261ff00199215159290921661ffff19909716969096171792909216939093179096558184528383528684206008018054918201815584529282902090920180546001600160a01b03191685179055935191825291927fc329a4824b9cddbf4efb396983db7496360fe08a32ebbd5f6021d4835e275cf4910160405180910390a35050565b33600090815260208190526040902060070154610100900460ff1661083f5760405162461bcd60e51b81526004016102fc90611a75565b3360009081526020819052604090206007015460ff16156108a25760405162461bcd60e51b815260206004820152601960248201527f4f776e657220697320616c72656164792064656365617365640000000000000060448201526064016102fc565b33600090815260208181526040808320426005918201556002909252909120015460ff16156109285733600081815260026020526040808220600501805460ff19169055517fac892f9ea2bac4d143f762134b209de57efb94b00c56302aaed590951368eaac9161091f9142909115158252602082015260400190565b60405180910390a25b60405142815233907f878229cab17522b0aa9fe67ef166ba37857b7fdb46cd8748179a9d9a7373727f9060200160405180910390a2565b6001600160a01b038083166000908152600260209081526040808320938516835260069093019052205460ff165b92915050565b6001600160a01b0382166000908152600160209081526040808320338452909152902054829062010000900460ff166109de5760405162461bcd60e51b81526004016102fc90611aa3565b6001600160a01b0381166000908152600160209081526040808320338452909152902054610100900460ff16610a4d5760405162461bcd60e51b815260206004820152601460248201527310dbdb9d1858dd081b9bdd081d995c9a599a595960621b60448201526064016102fc565b6001600160a01b038116600090815260016020908152604080832033845290915290205460ff16610ab35760405162461bcd60e51b815260206004820152601060248201526f4e6f20766f74696e672072696768747360801b60448201526064016102fc565b6001600160a01b03831660009081526002602052604090206005015460ff16610b1e5760405162461bcd60e51b815260206004820152601b60248201527f4e6f20616374697665206465617468206465636c61726174696f6e000000000060448201526064016102fc565b6001600160a01b038316600090815260026020908152604080832033845260060190915290205460ff1615610b855760405162461bcd60e51b815260206004820152600d60248201526c105b1c9958591e481d9bdd1959609a1b60448201526064016102fc565b6001600160a01b0383166000908152600260209081526040808320338452600681018352818420805460ff1990811660011790915560078201909352922080548515801591909316179055610bf057600281018054906000610be683611af0565b9190505550610c08565b600381018054906000610c0283611af0565b91905055505b604051831515815233906001600160a01b038616907fcc194f214df029fe546c9959ee15d79d8633742aab6c02a862e337f8ace3d550906020015b60405180910390a3610c5484611467565b50505050565b6001600160a01b0380831660009081526002602090815260408083209385168352600690930190529081205460ff16610ccb5760405162461bcd60e51b8152602060048201526013602482015272159bdd195c881a185cc81b9bdd081d9bdd1959606a1b60448201526064016102fc565b506001600160a01b0391821660009081526002602090815260408083209390941682526007909201909152205460ff1690565b6001600160a01b0381166000908152600160209081526040808320338452909152902054819062010000900460ff16610d495760405162461bcd60e51b81526004016102fc90611aa3565b6001600160a01b0382166000908152600160209081526040808320338452909152902054610100900460ff1615610db55760405162461bcd60e51b815260206004820152601060248201526f105b1c9958591e481d995c9a599a595960821b60448201526064016102fc565b6001600160a01b0382166000818152600160209081526040808320338085529252808320805461ff001916610100179055519092917f33c6b9962c16a3768d4f15c8f694b088fd57a39499a9b9f7e59243c371a2207a91a35050565b6001600160a01b0381166000908152600160209081526040808320338452909152902054819062010000900460ff16610e5c5760405162461bcd60e51b81526004016102fc90611aa3565b6001600160a01b0381166000908152600160209081526040808320338452909152902054610100900460ff16610ecb5760405162461bcd60e51b815260206004820152601460248201527310dbdb9d1858dd081b9bdd081d995c9a599a595960621b60448201526064016102fc565b6001600160a01b038116600090815260016020908152604080832033845290915290205460ff16610f315760405162461bcd60e51b815260206004820152601060248201526f4e6f20766f74696e672072696768747360801b60448201526064016102fc565b6001600160a01b038216600090815260208190526040902060070154610100900460ff16610f715760405162461bcd60e51b81526004016102fc90611a75565b6001600160a01b03821660009081526020819052604090206007015460ff1615610fd65760405162461bcd60e51b815260206004820152601660248201527513dddb995c88185b1c9958591e48191958d9585cd95960521b60448201526064016102fc565b6001600160a01b03821660009081526002602052604090206005015460ff16156110425760405162461bcd60e51b815260206004820181905260248201527f4465617468206465636c61726174696f6e20616c72656164792061637469766560448201526064016102fc565b6000805b6001600160a01b03841660009081526020819052604090206008015481101561112a576001600160a01b038416600090815260208190526040812060080180548390811061109657611096611b09565b60009182526020808320909101546001600160a01b0388811684526001835260408085209190921680855292529091205490915060ff61010090910416801561110457506001600160a01b0380861660009081526001602090815260408083209385168352929052205460ff165b15611117578261111381611af0565b9350505b508061112281611af0565b915050611046565b506000811161117b5760405162461bcd60e51b815260206004820152601c60248201527f4e6f20766f74696e6720636f6e746163747320617661696c61626c650000000060448201526064016102fc565b6001600160a01b038316600081815260026020818152604080842080546001600160a01b031916339081178255426001808401829055958301869055600383018790556004830189905560058301805461ffff191687179055818752600683018552838720805460ff199081168817909155600784018652968490208054909716909517909555905192835293917fd1ffe6c6eec884ae3341f8304738b02340905dfd25b73df1802e7f95c9b9fbec910160405180910390a36040516001815233906001600160a01b038616907fcc194f214df029fe546c9959ee15d79d8633742aab6c02a862e337f8ace3d55090602001610c43565b6001600160a01b038116600090815260208181526040918290206008018054835181840281018401909452808452606093928301828280156112dd57602002820191906000526020600020905b81546001600160a01b031681526001909101906020018083116112bf575b50505050509050919050565b6001600160a01b03811660009081526020819052604081206005810154600682015460078301546001840180546060968796909586958695869593946002860193929160ff8082169261010090920416908690611345906118d2565b80601f0160208091040260200160405190810160405280929190818152602001828054611371906118d2565b80156113be5780601f10611393576101008083540402835291602001916113be565b820191906000526020600020905b8154815290600101906020018083116113a157829003601f168201915b505050505095508480546113d1906118d2565b80601f01602080910402602001604051908101604052809291908181526020018280546113fd906118d2565b801561144a5780601f1061141f5761010080835404028352916020019161144a565b820191906000526020600020905b81548152906001019060200180831161142d57829003601f168201915b505050505094509650965096509650965096505091939550919395565b6001600160a01b03811660009081526002602052604081206004810154909190606490611495906032611b1f565b61149f9190611b36565b6114aa906001611b58565b90508082600201541061153a576001600160a01b03831660008181526020819052604090819020600701805460ff1916600190811790915560058501805461ffff191661010017905590517fac892f9ea2bac4d143f762134b209de57efb94b00c56302aaed590951368eaac9161152d9142909115158252602082015260400190565b60405180910390a2505050565b8082600301541061159b5760058201805461ffff191661010017905560408051600081524260208201526001600160a01b038516917fac892f9ea2bac4d143f762134b209de57efb94b00c56302aaed590951368eaac910160405180910390a25b505050565b8280548282559060005260206000209081019282156115f5579160200282015b828111156115f557825182546001600160a01b0319166001600160a01b039091161782556020909201916001909101906115c0565b50611601929150611605565b5090565b5b808211156116015760008155600101611606565b60008083601f84011261162c57600080fd5b50813567ffffffffffffffff81111561164457600080fd5b60208301915083602082850101111561165c57600080fd5b9250929050565b600080600080600080600080600060a08a8c03121561168157600080fd5b893567ffffffffffffffff8082111561169957600080fd5b6116a58d838e0161161a565b909b50995060208c01359150808211156116be57600080fd5b6116ca8d838e0161161a565b909950975060408c01359150808211156116e357600080fd5b6116ef8d838e0161161a565b909750955060608c013591508082111561170857600080fd5b506117158c828d0161161a565b9a9d999c50979a9699959894979660800135949350505050565b80356001600160a01b038116811461174657600080fd5b919050565b6000806040838503121561175e57600080fd5b6117678361172f565b91506020830135801515811461177c57600080fd5b809150509250929050565b6000806040838503121561179a57600080fd5b6117a38361172f565b91506117b16020840161172f565b90509250929050565b6000602082840312156117cc57600080fd5b6117d58261172f565b9392505050565b6020808252825182820181905260009190848201906040850190845b8181101561181d5783516001600160a01b0316835292840192918401916001016117f8565b50909695505050505050565b6000815180845260005b8181101561184f57602081850181015186830182015201611833565b506000602082860101526020601f19601f83011685010191505092915050565b60c08152600061188260c0830189611829565b82810360208401526118948189611829565b6040840197909752505060608101939093529015156080830152151560a09091015292915050565b634e487b7160e01b600052604160045260246000fd5b600181811c908216806118e657607f821691505b60208210810361190657634e487b7160e01b600052602260045260246000fd5b50919050565b601f82111561159b57600081815260208120601f850160051c810160208610156119335750805b601f850160051c820191505b818110156119525782815560010161193f565b505050505050565b815167ffffffffffffffff811115611974576119746118bc565b6119888161198284546118d2565b8461190c565b602080601f8311600181146119bd57600084156119a55750858301515b600019600386901b1c1916600185901b178555611952565b600085815260208120601f198616915b828110156119ec578886015182559484019460019091019084016119cd565b5085821015611a0a5787850151600019600388901b60f8161c191681555b5050505050600190811b01905550565b81835281816020850137506000828201602090810191909152601f909101601f19169091010190565b604081526000611a57604083018688611a1a565b8281036020840152611a6a818587611a1a565b979650505050505050565b60208082526014908201527313dddb995c881b9bdd081c9959da5cdd195c995960621b604082015260600190565b6020808252601b908201527f4e6f74206120636f6e74616374206f662074686973206f776e65720000000000604082015260600190565b634e487b7160e01b600052601160045260246000fd5b600060018201611b0257611b02611ada565b5060010190565b634e487b7160e01b600052603260045260246000fd5b808202811582820484141761098d5761098d611ada565b600082611b5357634e487b7160e01b600052601260045260246000fd5b500490565b8082018082111561098d5761098d611ada56fea2646970667358221220f43123373b88818a1537d1a062ea08114329b4a8282eccf42a9870e41e767a7364736f6c63430008130033",
  "linkReferences": {},
  "deployedLinkReferences": {}
}