{
  "_format": "hh-sol-artifact-1",
  "contractName": "User",
  "sourceName": "contracts/User.sol",
  "abi": [
    {
      "inputs": [
        {
          "internalType": "string",
          "name": "_firstname",
          "type": "string"
        },
        {
          "internalType": "string",
          "name": "_lastname",
          "type": "string"
        },
        {
          "internalType": "string",
          "name": "_email",
          "type": "string"
        }
      ],
      "stateMutability": "payable",
      "type": "constructor"
    },
    {
      "inputs": [],
      "name": "ContactNotFound",
      "type": "error"
    },
    {
      "inputs": [],
      "name": "DeathDeclarationNotFound",
      "type": "error"
    },
    {
      "inputs": [],
      "name": "DuplicateContact",
      "type": "error"
    },
    {
      "inputs": [],
      "name": "DuplicateVault",
      "type": "error"
    },
    {
      "inputs": [],
      "name": "InvalidAddress",
      "type": "error"
    },
    {
      "inputs": [],
      "name": "InvalidStatus",
      "type": "error"
    },
    {
      "inputs": [],
      "name": "Unauthorized",
      "type": "error"
    },
    {
      "inputs": [],
      "name": "UserNotActive",
      "type": "error"
    },
    {
      "inputs": [],
      "name": "VaultNotFound",
      "type": "error"
    },
    {
      "inputs": [],
      "name": "VoteAlreadyExists",
      "type": "error"
    },
    {
      "inputs": [],
      "name": "VoteNotFound",
      "type": "error"
    },
    {
      "anonymous": false,
      "inputs": [
        {
          "indexed": false,
          "internalType": "uint64",
          "name": "consensusReachedAt",
          "type": "uint64"
        }
      ],
      "name": "ConsensusReached",
      "type": "event"
    },
    {
      "anonymous": false,
      "inputs": [
        {
          "indexed": true,
          "internalType": "address",
          "name": "contact",
          "type": "address"
        }
      ],
      "name": "ContactAdded",
      "type": "event"
    },
    {
      "anonymous": false,
      "inputs": [
        {
          "indexed": true,
          "internalType": "address",
          "name": "contact",
          "type": "address"
        }
      ],
      "name": "ContactRemoved",
      "type": "event"
    },
    {
      "anonymous": false,
      "inputs": [
        {
          "indexed": true,
          "internalType": "address",
          "name": "declaredBy",
          "type": "address"
        },
        {
          "indexed": false,
          "internalType": "uint64",
          "name": "declaredAt",
          "type": "uint64"
        }
      ],
      "name": "DeathDeclarationCreated",
      "type": "event"
    },
    {
      "anonymous": false,
      "inputs": [
        {
          "indexed": false,
          "internalType": "bool",
          "name": "isIdVerified",
          "type": "bool"
        }
      ],
      "name": "IdVerificationUpdated",
      "type": "event"
    },
    {
      "anonymous": false,
      "inputs": [
        {
          "indexed": true,
          "internalType": "address",
          "name": "oldOwner",
          "type": "address"
        },
        {
          "indexed": true,
          "internalType": "address",
          "name": "newOwner",
          "type": "address"
        }
      ],
      "name": "OwnerChanged",
      "type": "event"
    },
    {
      "anonymous": false,
      "inputs": [
        {
          "indexed": false,
          "internalType": "string",
          "name": "firstname",
          "type": "string"
        },
        {
          "indexed": false,
          "internalType": "string",
          "name": "lastname",
          "type": "string"
        },
        {
          "indexed": false,
          "internalType": "string",
          "name": "email",
          "type": "string"
        },
        {
          "indexed": false,
          "internalType": "string",
          "name": "birthDate",
          "type": "string"
        }
      ],
      "name": "UserProfileUpdated",
      "type": "event"
    },
    {
      "anonymous": false,
      "inputs": [
        {
          "indexed": false,
          "internalType": "enum User.UserStatus",
          "name": "status",
          "type": "uint8"
        }
      ],
      "name": "UserStatusChanged",
      "type": "event"
    },
    {
      "anonymous": false,
      "inputs": [
        {
          "indexed": true,
          "internalType": "address",
          "name": "vault",
          "type": "address"
        }
      ],
      "name": "VaultAdded",
      "type": "event"
    },
    {
      "anonymous": false,
      "inputs": [
        {
          "indexed": true,
          "internalType": "address",
          "name": "vault",
          "type": "address"
        }
      ],
      "name": "VaultRemoved",
      "type": "event"
    },
    {
      "anonymous": false,
      "inputs": [
        {
          "indexed": true,
          "internalType": "address",
          "name": "voter",
          "type": "address"
        },
        {
          "indexed": false,
          "internalType": "bool",
          "name": "voted",
          "type": "bool"
        },
        {
          "indexed": false,
          "internalType": "uint64",
          "name": "votedAt",
          "type": "uint64"
        }
      ],
      "name": "VoteCast",
      "type": "event"
    },
    {
      "anonymous": false,
      "inputs": [
        {
          "indexed": false,
          "internalType": "bool",
          "name": "hasVotingRight",
          "type": "bool"
        }
      ],
      "name": "VotingRightsUpdated",
      "type": "event"
    },
    {
      "inputs": [
        {
          "internalType": "address",
          "name": "_contact",
          "type": "address"
        }
      ],
      "name": "addContact",
      "outputs": [],
      "stateMutability": "nonpayable",
      "type": "function"
    },
    {
      "inputs": [
        {
          "internalType": "address",
          "name": "_vault",
          "type": "address"
        }
      ],
      "name": "addVault",
      "outputs": [],
      "stateMutability": "nonpayable",
      "type": "function"
    },
    {
      "inputs": [
        {
          "internalType": "uint256",
          "name": "",
          "type": "uint256"
        }
      ],
      "name": "contacts",
      "outputs": [
        {
          "internalType": "address",
          "name": "",
          "type": "address"
        }
      ],
      "stateMutability": "view",
      "type": "function"
    },
    {
      "inputs": [],
      "name": "createDeathDeclaration",
      "outputs": [],
      "stateMutability": "nonpayable",
      "type": "function"
    },
    {
      "inputs": [],
      "name": "deathDeclaration",
      "outputs": [
        {
          "internalType": "address",
          "name": "declaredBy",
          "type": "address"
        },
        {
          "internalType": "uint64",
          "name": "declaredAt",
          "type": "uint64"
        },
        {
          "internalType": "bool",
          "name": "consensusReached",
          "type": "bool"
        },
        {
          "internalType": "uint64",
          "name": "consensusReachedAt",
          "type": "uint64"
        }
      ],
      "stateMutability": "view",
      "type": "function"
    },
    {
      "inputs": [],
      "name": "finalizeDeathDeclaration",
      "outputs": [],
      "stateMutability": "nonpayable",
      "type": "function"
    },
    {
      "inputs": [],
      "name": "getBasicUserData",
      "outputs": [
        {
          "internalType": "address",
          "name": "owner",
          "type": "address"
        },
        {
          "internalType": "string",
          "name": "firstname",
          "type": "string"
        },
        {
          "internalType": "string",
          "name": "lastname",
          "type": "string"
        },
        {
          "internalType": "string",
          "name": "email",
          "type": "string"
        },
        {
          "internalType": "string",
          "name": "birthDate",
          "type": "string"
        },
        {
          "internalType": "enum User.UserStatus",
          "name": "status",
          "type": "uint8"
        },
        {
          "internalType": "uint64",
          "name": "graceInterval",
          "type": "uint64"
        },
        {
          "internalType": "uint64",
          "name": "createdAt",
          "type": "uint64"
        },
        {
          "internalType": "uint64",
          "name": "lastUpdated",
          "type": "uint64"
        },
        {
          "internalType": "bool",
          "name": "hasVotingRight",
          "type": "bool"
        },
        {
          "internalType": "bool",
          "name": "isIdVerified",
          "type": "bool"
        }
      ],
      "stateMutability": "view",
      "type": "function"
    },
    {
      "inputs": [],
      "name": "getBirthDate",
      "outputs": [
        {
          "internalType": "string",
          "name": "",
          "type": "string"
        }
      ],
      "stateMutability": "view",
      "type": "function"
    },
    {
      "inputs": [
        {
          "internalType": "uint256",
          "name": "index",
          "type": "uint256"
        }
      ],
      "name": "getContactAtIndex",
      "outputs": [
        {
          "internalType": "address",
          "name": "",
          "type": "address"
        }
      ],
      "stateMutability": "view",
      "type": "function"
    },
    {
      "inputs": [],
      "name": "getContactCount",
      "outputs": [
        {
          "internalType": "uint256",
          "name": "",
          "type": "uint256"
        }
      ],
      "stateMutability": "view",
      "type": "function"
    },
    {
      "inputs": [],
      "name": "getContacts",
      "outputs": [
        {
          "internalType": "address[]",
          "name": "",
          "type": "address[]"
        }
      ],
      "stateMutability": "view",
      "type": "function"
    },
    {
      "inputs": [],
      "name": "getCreatedAt",
      "outputs": [
        {
          "internalType": "uint64",
          "name": "",
          "type": "uint64"
        }
      ],
      "stateMutability": "view",
      "type": "function"
    },
    {
      "inputs": [],
      "name": "getDeathDeclaration",
      "outputs": [
        {
          "internalType": "address",
          "name": "declaredBy",
          "type": "address"
        },
        {
          "internalType": "uint64",
          "name": "declaredAt",
          "type": "uint64"
        },
        {
          "internalType": "address[]",
          "name": "voters",
          "type": "address[]"
        },
        {
          "internalType": "bool",
          "name": "consensusReached",
          "type": "bool"
        },
        {
          "internalType": "uint64",
          "name": "consensusReachedAt",
          "type": "uint64"
        }
      ],
      "stateMutability": "view",
      "type": "function"
    },
    {
      "inputs": [],
      "name": "getDeathDeclarationStatus",
      "outputs": [
        {
          "internalType": "bool",
          "name": "hasDeathDecl",
          "type": "bool"
        }
      ],
      "stateMutability": "view",
      "type": "function"
    },
    {
      "inputs": [],
      "name": "getEmail",
      "outputs": [
        {
          "internalType": "string",
          "name": "",
          "type": "string"
        }
      ],
      "stateMutability": "view",
      "type": "function"
    },
    {
      "inputs": [],
      "name": "getFirstname",
      "outputs": [
        {
          "internalType": "string",
          "name": "",
          "type": "string"
        }
      ],
      "stateMutability": "view",
      "type": "function"
    },
    {
      "inputs": [],
      "name": "getGraceInterval",
      "outputs": [
        {
          "internalType": "uint64",
          "name": "",
          "type": "uint64"
        }
      ],
      "stateMutability": "view",
      "type": "function"
    },
    {
      "inputs": [],
      "name": "getHasVotingRight",
      "outputs": [
        {
          "internalType": "bool",
          "name": "",
          "type": "bool"
        }
      ],
      "stateMutability": "view",
      "type": "function"
    },
    {
      "inputs": [],
      "name": "getIsIdVerified",
      "outputs": [
        {
          "internalType": "bool",
          "name": "",
          "type": "bool"
        }
      ],
      "stateMutability": "view",
      "type": "function"
    },
    {
      "inputs": [],
      "name": "getLastUpdated",
      "outputs": [
        {
          "internalType": "uint64",
          "name": "",
          "type": "uint64"
        }
      ],
      "stateMutability": "view",
      "type": "function"
    },
    {
      "inputs": [],
      "name": "getLastname",
      "outputs": [
        {
          "internalType": "string",
          "name": "",
          "type": "string"
        }
      ],
      "stateMutability": "view",
      "type": "function"
    },
    {
      "inputs": [],
      "name": "getOwner",
      "outputs": [
        {
          "internalType": "address",
          "name": "",
          "type": "address"
        }
      ],
      "stateMutability": "view",
      "type": "function"
    },
    {
      "inputs": [],
      "name": "getStatus",
      "outputs": [
        {
          "internalType": "enum User.UserStatus",
          "name": "",
          "type": "uint8"
        }
      ],
      "stateMutability": "view",
      "type": "function"
    },
    {
      "inputs": [],
      "name": "getUserData",
      "outputs": [
        {
          "internalType": "address",
          "name": "owner",
          "type": "address"
        },
        {
          "internalType": "string",
          "name": "firstname",
          "type": "string"
        },
        {
          "internalType": "string",
          "name": "lastname",
          "type": "string"
        },
        {
          "internalType": "string",
          "name": "email",
          "type": "string"
        },
        {
          "internalType": "string",
          "name": "birthDate",
          "type": "string"
        },
        {
          "internalType": "enum User.UserStatus",
          "name": "status",
          "type": "uint8"
        },
        {
          "internalType": "uint64",
          "name": "graceInterval",
          "type": "uint64"
        },
        {
          "internalType": "uint64",
          "name": "createdAt",
          "type": "uint64"
        },
        {
          "internalType": "uint64",
          "name": "lastUpdated",
          "type": "uint64"
        },
        {
          "internalType": "bool",
          "name": "hasVotingRight",
          "type": "bool"
        },
        {
          "internalType": "bool",
          "name": "isIdVerified",
          "type": "bool"
        },
        {
          "internalType": "address[]",
          "name": "userVaults",
          "type": "address[]"
        },
        {
          "internalType": "address[]",
          "name": "userContacts",
          "type": "address[]"
        },
        {
          "internalType": "bool",
          "name": "hasDeathDecl",
          "type": "bool"
        }
      ],
      "stateMutability": "view",
      "type": "function"
    },
    {
      "inputs": [
        {
          "internalType": "uint256",
          "name": "index",
          "type": "uint256"
        }
      ],
      "name": "getVaultAtIndex",
      "outputs": [
        {
          "internalType": "address",
          "name": "",
          "type": "address"
        }
      ],
      "stateMutability": "view",
      "type": "function"
    },
    {
      "inputs": [],
      "name": "getVaultCount",
      "outputs": [
        {
          "internalType": "uint256",
          "name": "",
          "type": "uint256"
        }
      ],
      "stateMutability": "view",
      "type": "function"
    },
    {
      "inputs": [],
      "name": "getVaults",
      "outputs": [
        {
          "internalType": "address[]",
          "name": "",
          "type": "address[]"
        }
      ],
      "stateMutability": "view",
      "type": "function"
    },
    {
      "inputs": [],
      "name": "getVaultsAndContacts",
      "outputs": [
        {
          "internalType": "address[]",
          "name": "userVaults",
          "type": "address[]"
        },
        {
          "internalType": "address[]",
          "name": "userContacts",
          "type": "address[]"
        }
      ],
      "stateMutability": "view",
      "type": "function"
    },
    {
      "inputs": [],
      "name": "hasDeathDeclaration",
      "outputs": [
        {
          "internalType": "bool",
          "name": "",
          "type": "bool"
        }
      ],
      "stateMutability": "view",
      "type": "function"
    },
    {
      "inputs": [
        {
          "internalType": "address",
          "name": "voter",
          "type": "address"
        }
      ],
      "name": "hasVoted",
      "outputs": [
        {
          "internalType": "bool",
          "name": "",
          "type": "bool"
        }
      ],
      "stateMutability": "view",
      "type": "function"
    },
    {
      "inputs": [
        {
          "internalType": "address",
          "name": "_contact",
          "type": "address"
        }
      ],
      "name": "isContact",
      "outputs": [
        {
          "internalType": "bool",
          "name": "",
          "type": "bool"
        }
      ],
      "stateMutability": "view",
      "type": "function"
    },
    {
      "inputs": [
        {
          "internalType": "address",
          "name": "_vault",
          "type": "address"
        }
      ],
      "name": "isVault",
      "outputs": [
        {
          "internalType": "bool",
          "name": "",
          "type": "bool"
        }
      ],
      "stateMutability": "view",
      "type": "function"
    },
    {
      "inputs": [
        {
          "internalType": "address",
          "name": "_contact",
          "type": "address"
        }
      ],
      "name": "removeContact",
      "outputs": [],
      "stateMutability": "nonpayable",
      "type": "function"
    },
    {
      "inputs": [
        {
          "internalType": "address",
          "name": "_vault",
          "type": "address"
        }
      ],
      "name": "removeVault",
      "outputs": [],
      "stateMutability": "nonpayable",
      "type": "function"
    },
    {
      "inputs": [
        {
          "internalType": "string",
          "name": "_birthDate",
          "type": "string"
        }
      ],
      "name": "setBirthDate",
      "outputs": [],
      "stateMutability": "nonpayable",
      "type": "function"
    },
    {
      "inputs": [
        {
          "internalType": "string",
          "name": "_email",
          "type": "string"
        }
      ],
      "name": "setEmail",
      "outputs": [],
      "stateMutability": "nonpayable",
      "type": "function"
    },
    {
      "inputs": [
        {
          "internalType": "string",
          "name": "_firstname",
          "type": "string"
        }
      ],
      "name": "setFirstname",
      "outputs": [],
      "stateMutability": "nonpayable",
      "type": "function"
    },
    {
      "inputs": [
        {
          "internalType": "uint64",
          "name": "_graceInterval",
          "type": "uint64"
        }
      ],
      "name": "setGraceInterval",
      "outputs": [],
      "stateMutability": "nonpayable",
      "type": "function"
    },
    {
      "inputs": [
        {
          "internalType": "bool",
          "name": "_hasVotingRight",
          "type": "bool"
        }
      ],
      "name": "setHasVotingRight",
      "outputs": [],
      "stateMutability": "nonpayable",
      "type": "function"
    },
    {
      "inputs": [
        {
          "internalType": "bool",
          "name": "_isIdVerified",
          "type": "bool"
        }
      ],
      "name": "setIsIdVerified",
      "outputs": [],
      "stateMutability": "nonpayable",
      "type": "function"
    },
    {
      "inputs": [
        {
          "internalType": "string",
          "name": "_lastname",
          "type": "string"
        }
      ],
      "name": "setLastname",
      "outputs": [],
      "stateMutability": "nonpayable",
      "type": "function"
    },
    {
      "inputs": [
        {
          "internalType": "address",
          "name": "_newOwner",
          "type": "address"
        }
      ],
      "name": "setOwner",
      "outputs": [],
      "stateMutability": "nonpayable",
      "type": "function"
    },
    {
      "inputs": [
        {
          "internalType": "enum User.UserStatus",
          "name": "_status",
          "type": "uint8"
        }
      ],
      "name": "setStatus",
      "outputs": [],
      "stateMutability": "nonpayable",
      "type": "function"
    },
    {
      "inputs": [],
      "name": "userData",
      "outputs": [
        {
          "internalType": "address",
          "name": "owner",
          "type": "address"
        },
        {
          "internalType": "string",
          "name": "firstname",
          "type": "string"
        },
        {
          "internalType": "string",
          "name": "lastname",
          "type": "string"
        },
        {
          "internalType": "string",
          "name": "email",
          "type": "string"
        },
        {
          "internalType": "string",
          "name": "birthDate",
          "type": "string"
        },
        {
          "internalType": "enum User.UserStatus",
          "name": "status",
          "type": "uint8"
        },
        {
          "internalType": "uint64",
          "name": "graceInterval",
          "type": "uint64"
        },
        {
          "internalType": "uint64",
          "name": "createdAt",
          "type": "uint64"
        },
        {
          "internalType": "uint64",
          "name": "lastUpdated",
          "type": "uint64"
        },
        {
          "internalType": "bool",
          "name": "hasVotingRight",
          "type": "bool"
        },
        {
          "internalType": "bool",
          "name": "isIdVerified",
          "type": "bool"
        }
      ],
      "stateMutability": "view",
      "type": "function"
    },
    {
      "inputs": [
        {
          "internalType": "uint256",
          "name": "",
          "type": "uint256"
        }
      ],
      "name": "vaults",
      "outputs": [
        {
          "internalType": "address",
          "name": "",
          "type": "address"
        }
      ],
      "stateMutability": "view",
      "type": "function"
    },
    {
      "inputs": [
        {
          "internalType": "bool",
          "name": "_voted",
          "type": "bool"
        }
      ],
      "name": "voteOnDeathDeclaration",
      "outputs": [],
      "stateMutability": "nonpayable",
      "type": "function"
    }
  ],
  "bytecode": "0x6080604052612bab80380380610014816104dc565b92833981016060828203126104d75781516001600160401b0381116104d7578161003f918401610501565b60208301519092906001600160401b0381116104d75782610061918301610501565b60408201519092906001600160401b0381116104d7576100819201610501565b600080546001600160a01b0319163317905582516001600160401b038111610341576100ae60015461056c565b601f8111610488575b506020601f82116001146104215781929394600092610416575b50508160011b916000199060031b1c1916176001555b81516001600160401b0381116103415761010260025461056c565b601f81116103c7575b50602092601f82116001146103625792819293600092610357575b50508160011b916000199060031b1c1916176002555b80516001600160401b0381116103415761015760035461056c565b601f81116102e7575b50602091601f821160011461028357918192600092610278575b50508160011b916000199060031b1c1916176003555b61019b60045461056c565b601f8111610239575b6000600455600580547901000000000000000000000000000000000000000000278d00006001600160881b031982164260481b70ffffffffffffffff0000000000000000001690811763278d000017604090811b600160881b600160c81b03166001600160d01b0319909416909117929092171760ff60d01b1916909155600c805460ff19169055516125ed90816105be8239f35b600460005261027290601f0160051c7f8a35acfbc15ff81a39ae7d344fd709f28e8600b4aa8c65c6b64bfe7fe36bd19b908101906105a6565b386101a4565b01519050388061017a565b601f198216926003600052806000209160005b8581106102cf575083600195106102b6575b505050811b01600355610190565b015160001960f88460031b161c191690553880806102a8565b91926020600181928685015181550194019201610296565b6003600052610331907fc2575a0e9e593c00f959f8c92f12db2869c3395a3b0502d05e2516446f71f85b601f840160051c81019160208510610337575b601f0160051c01906105a6565b38610160565b9091508190610324565b634e487b7160e01b600052604160045260246000fd5b015190503880610126565b601f198216936002600052806000209160005b8681106103af5750836001959610610396575b505050811b0160025561013c565b015160001960f88460031b161c19169055388080610388565b91926020600181928685015181550194019201610375565b6002600052610410907f405787fa12a823e0f2b7631cc41b3ba8828b3321ca811111fa75cd3aa3bb5ace601f840160051c8101916020851061033757601f0160051c01906105a6565b3861010b565b0151905038806100d1565b601f198216906001600052806000209160005b81811061047057509583600195969710610457575b505050811b016001556100e7565b015160001960f88460031b161c19169055388080610449565b9192602060018192868b015181550194019201610434565b60016000526104d1907fb10e2d527612073b26eecdfd717e6a320cf44b4afac2b0732d9fcbe2b7fa0cf6601f840160051c8101916020851061033757601f0160051c01906105a6565b386100b7565b600080fd5b6040519190601f01601f191682016001600160401b0381118382101761034157604052565b81601f820112156104d7578051906001600160401b03821161034157610530601f8301601f19166020016104dc565b92828452602083830101116104d75760005b82811061055757505060206000918301015290565b80602080928401015182828701015201610542565b90600182811c9216801561059c575b602083101461058657565b634e487b7160e01b600052602260045260246000fd5b91607f169161057b565b8181106105b1575050565b600081556001016105a656fe608080604052600436101561001357600080fd5b60003560e01c9081630331553b14611f845750806308cfbde514611ef45780630989befb14611ece57806309eef43e14611e805780630ca5c1a114611dde5780630ce44e3a14611db5578063110342ad14611cfb57806313af403514611c49578063142ae1bd14611c235780631de514a914611bd357806322e8c87d14611a4c57806323cb0f8314611a23578063256b5a0214611918578063282b065a146117325780632c3e45531461170e5780632e49d78b1461167b57806336d52ed71461165d5780633856fcdf1461153457806342c838621461150557806344d00f82146114e9578063451e6c78146114485780634e69d5601461142057806362f8e6c7146113f6578063652b9b41146113bd5780636e8e0956146112f657806374d4e491146112d857806378121dd4146112ae5780637e05f5a8146112845780637e79e8ba1461126057806380b48fc9146111d2578063893d20e8146111a95780638c64ea4a146111805780639346cd2b14610f9d578063a414b37914610e92578063a6a6607214610d47578063ba681d0d14610b4a578063bea6998f14610a8c578063c16a836b14610a68578063ceb68c23146108bd578063d32ac6701461087e578063d92be7f614610655578063db920b7714610621578063e0f478cb146105df578063e169f438146104c6578063fce8baf7146104a35763feac17f21461021957600080fd5b3461049e57602036600319011261049e5760043580151580910361049e57600080600754905b818110610469575b5050156104595760ff600c5416156104485733600052600960205260ff6040600020541661043757336000526009602052604060002060ff1981541660ff8316179055600a54600160401b811015610421576102ae8160016102cc9301600a55600a6121a5565b81546001600160a01b0360039290921b91821b19163390911b179055565b6001600160401b034216906040519081528160208201527f822d6ee5c173da0ec92da61257ae046a02c578b17f7b63e7bfeced180c271e6b60403392a2600a5460009080825b82811061038557505060011c1061032557005b60207f63bed6c5a05567805b3b0682aac4a3b8058590de810204cb3055b063dd8333ad916001600b5468ffffffffffffffff004260081b169068ffffffffffffffffff19161717600b55600260ff196005541617600555604051908152a1005b60008282101561040d57600a90527fc65a7bb8d6351c1cf70c95a316cc6a92839c986682d98bc35f958f4883f9d2a88101546001600160a01b031660009081526009602052604081205460ff166103e0575b50600101610312565b90939060001982146103f95750600180910193906103d7565b634e487b7160e01b81526011600452602490fd5b634e487b7160e01b81526032600452602490fd5b634e487b7160e01b600052604160045260246000fd5b636ea01c3d60e01b60005260046000fd5b631e2c79f560e21b60005260046000fd5b6282b42960e81b60005260046000fd5b6104728161218a565b905460039190911b1c6001600160a01b031633146104925760010161023f565b50505060013880610247565b600080fd5b3461049e57600036600319011261049e57602060ff600c54166040519015158152f35b3461049e57600036600319011261049e57600080600754905b8181106105aa575b5050156104595760ff600c54161561044857600b5460ff811615610448576001600160401b038060055460081c169160081c16016001600160401b038111610594576001600160401b03164210610448576005805460ff67ffffffffffffffff60881b0119164260881b600160881b600160c81b03161760039081179091556040519081527f04e00e6a81ccbf2771640ba8cc5b7dc33da28cfda3647ef3b84f30e9b8c8edea90602090a1005b634e487b7160e01b600052601160045260246000fd5b6105b38161218a565b905460039190911b1c6001600160a01b031633146105d3576001016104df565b505050600181806104e7565b3461049e57602036600319011261049e5760043560075481101561049e5761060860209161218a565b905460405160039290921b1c6001600160a01b03168152f35b3461049e57600036600319011261049e5761065161063d6123df565b604051918291602083526020830190611fa4565b0390f35b3461049e57610663366120e2565b6000546001600160a01b031633036104595760ff600554166004811015610868576108575780516001600160401b038111610421576106a36004546121bd565b601f81116107ea575b506020601f8211600114610766579181610756926000805160206125988339815191529460009161075b575b508160011b916000199060031b1c1916176004555b6005546001600160401b0360881b4260881b16906001600160401b0360881b1916176005556040519182916080835261074861073b61072e608086016121f7565b8581036020870152612286565b84810360408601526122f9565b908382036060850152611fe1565b0390a1005b9050820151856106d8565b601f1982169060046000526000805160206125788339815191529160005b8181106107d257509260008051602061259883398151915294926001928261075696106107b9575b5050811b016004556106ed565b84015160001960f88460031b161c1916905585806107ac565b91926020600181928689015181550194019201610784565b6004600052601f820160051c600080516020612578833981519152019060208310610841575b601f0160051c60008051602061257883398151915201905b81811061083557506106ac565b60008155600101610828565b6000805160206125788339815191529150610810565b633613fe9560e01b60005260046000fd5b634e487b7160e01b600052602160045260246000fd5b3461049e57600036600319011261049e576106516040516108a9816108a2816121f7565b03826120c1565b604051918291602083526020830190611fe1565b3461049e57602036600319011261049e576004356001600160a01b0381169081900361049e576000546001600160a01b031633036104595760ff60055416600481101561086857610857578015610a575760065460001960005b828110610a26575b506000198114610a155760001982019182116105945761095c61094461098093612159565b905460039190911b1c6001600160a01b031691612159565b81546001600160a01b0393841660039290921b91821b9390911b1916919091179055565b60065480156109ff57600019016109b061099b8260066121a5565b81549060018060a01b039060031b1b19169055565b6006556005805467ffffffffffffffff60881b19164260881b600160881b600160c81b03161790557fe71f3a50e5ad81964f352c411f1d45e35438ecd1acecef59ac81d9fbbf6cbc0a600080a2005b634e487b7160e01b600052603160045260246000fd5b63dee790fb60e01b60005260046000fd5b83610a3082612159565b905460039190911b1c6001600160a01b031614610a4f57600101610917565b90508361091f565b63e6c4247b60e01b60005260046000fd5b3461049e57600036600319011261049e576106516040516108a9816108a28161236c565b3461049e57600036600319011261049e57600054604051906001600160a01b0316610ac182610aba816121f7565b03836120c1565b610651604051610ad4816108a281612286565b604051610ae4816108a2816122f9565b60405191610afc83610af58161236c565b03846120c1565b6005549560405196879660ff8260d01c169560ff8360c81c16956001600160401b038460881c16956001600160401b038560481c169560ff6001600160401b038760081c169616948c61202f565b3461049e57610b58366120e2565b6000546001600160a01b031633036104595760ff600554166004811015610868576108575780516001600160401b03811161042157610b986001546121bd565b601f8111610cda575b506020601f8211600114610c56579181610c249260008051602061259883398151915294600091610c4b575b508160011b916000199060031b1c1916176001555b6005546001600160401b0360881b4260881b16906001600160401b0360881b191617600555610756610c3e610c31604051948594608086526080860190611fe1565b8481036020860152612286565b83810360408501526122f9565b828103606084015261236c565b905082015185610bcd565b601f1982169060016000526000805160206125588339815191529160005b818110610cc2575092600080516020612598833981519152949260019282610c249610610ca9575b5050811b01600155610be2565b84015160001960f88460031b161c191690558580610c9c565b91926020600181928689015181550194019201610c74565b6001600052601f820160051c600080516020612558833981519152019060208310610d31575b601f0160051c60008051602061255883398151915201905b818110610d255750610ba1565b60008155600101610d18565b6000805160206125588339815191529150610d00565b3461049e57602036600319011261049e576004356001600160a01b0381169081900361049e576000546001600160a01b031633036104595760ff60055416600481101561086857610857578015610a575760075460001960005b828110610e61575b506000198114610e505760001982019182116105945761095c610dce610de69361218a565b905460039190911b1c6001600160a01b03169161218a565b60075480156109ff5760001901610e0161099b8260076121a5565b6007556005805467ffffffffffffffff60881b19164260881b600160881b600160c81b03161790557f860a08ee18aa4e64441f09047deffa5068bdd37321e8bcb96e0914ccfcf730e6600080a2005b634b4972a160e11b60005260046000fd5b83610e6b8261218a565b905460039190911b1c6001600160a01b031614610e8a57600101610da1565b905083610da9565b3461049e57602036600319011261049e576004356001600160a01b0381169081810361049e576000546001600160a01b031633036104595760ff60055416600481101561086857610857578115610a575760075460005b818110610f6357505060075490600160401b8210156104215761095c826001610f17940160075560076121a5565b6005805467ffffffffffffffff60881b19164260881b600160881b600160c81b03161790557fe55ed47e48e3970fda3b83dd3773a251448b798293dd077be58344aad032ec69600080a2005b83610f6d8261218a565b905460039190911b1c6001600160a01b031614610f8c57600101610ee9565b6328e4c7ab60e11b60005260046000fd5b3461049e57610fab366120e2565b6000546001600160a01b031633036104595760ff600554166004811015610868576108575780516001600160401b03811161042157610feb6002546121bd565b601f8111611113575b506020601f821160011461108f579181610c319260008051602061259883398151915294600091611084575b508160011b916000199060031b1c1916176002555b6005546001600160401b0360881b4260881b16906001600160401b0360881b191617600555610756610c3e60405193849360808552611076608086016121f7565b908582036020870152611fe1565b905082015185611020565b601f1982169060026000526000805160206125188339815191529160005b8181106110fb575092600080516020612598833981519152949260019282610c3196106110e2575b5050811b01600255611035565b84015160001960f88460031b161c1916905585806110d5565b919260206001819286890151815501940192016110ad565b6002600052601f820160051c60008051602061251883398151915201906020831061116a575b601f0160051c60008051602061251883398151915201905b81811061115e5750610ff4565b60008155600101611151565b6000805160206125188339815191529150611139565b3461049e57602036600319011261049e5760043560065481101561049e57610608602091612159565b3461049e57600036600319011261049e576000546040516001600160a01b039091168152602090f35b3461049e57602036600319011261049e576004356001600160401b038116810361049e576000546001600160a01b031633036104595760055460ff81166004811015610868576108575778ffffffffffffffff0000000000000000ffffffffffffffff00191660089190911b68ffffffffffffffff0016174260881b600160881b600160c81b031617600555005b3461049e57600036600319011261049e576106516040516108a9816108a2816122f9565b3461049e57600036600319011261049e5760206001600160401b0360055460481c16604051908152f35b3461049e57600036600319011261049e5760206001600160401b0360055460881c16604051908152f35b3461049e57600036600319011261049e576020600654604051908152f35b3461049e57600036600319011261049e5760ff600c54161561044857600854600b549060405191600a548084526020840190600a60005260206000209060005b81811061139e57505050611385846113596001600160401b0396879403826120c1565b604080516001600160a01b038716815260a096871c909716602088015286018590528594850190611fa4565b9160ff81161515606085015260081c1660808301520390f35b82546001600160a01b0316845260209093019260019283019201611336565b3461049e57602036600319011261049e576004356001600160a01b038116810361049e576113ec6020916124d4565b6040519015158152f35b3461049e57600036600319011261049e5760206001600160401b0360055460081c16604051908152f35b3461049e57600036600319011261049e57602060ff600554166114466040518092612022565bf35b3461049e57602036600319011261049e5760043580151580910361049e576000546001600160a01b031633036104595760055460ff81166004811015610868576108575768ffffffffffffffffff60881b191660c882901b60ff60c81b16174260881b600160881b600160c81b0316176005556040519081527f36d6322c229a6f6a424ae1322690455060aafc44103785af66de5d98a8302efd90602090a1005b3461049e57600036600319011261049e5761065161063d612435565b3461049e57602036600319011261049e576004356001600160a01b038116810361049e576113ec602091612489565b3461049e57600036600319011261049e57600080600754905b818110611628575b50501561045957600c5460ff811661044857600880546001600160e01b0319163367ffffffffffffffff60a01b198116919091174260a081901b67ffffffffffffffff60a01b1691909117909255600b805468ffffffffffffffffff1916905560ff199092166001908117600c556005805460ff67ffffffffffffffff60881b011916608884901b600160881b600160c81b03161790911790556040516001600160401b039190911681527f9757e4914f88f7367885e34484d735f48036c637fc3260df39e72b5db00e300790602090a2005b6116318161218a565b905460039190911b1c6001600160a01b031633146116515760010161154d565b50505060018180611555565b3461049e57600036600319011261049e576020600754604051908152f35b3461049e57602036600319011261049e57600435600481101561049e576000546001600160a01b03163303610459576005805460ff67ffffffffffffffff60881b01191660ff8316174260881b600160881b600160c81b03161790556040517f04e00e6a81ccbf2771640ba8cc5b7dc33da28cfda3647ef3b84f30e9b8c8edea916020919061170b908290612022565ba1005b3461049e57600036600319011261049e576106516040516108a9816108a281612286565b3461049e57611740366120e2565b6000546001600160a01b031633036104595760ff600554166004811015610868576108575780516001600160401b038111610421576117806003546121bd565b601f81116118ab575b506020601f8211600114611827579181610c3e926000805160206125988339815191529460009161181c575b508160011b916000199060031b1c1916176003555b6005805467ffffffffffffffff60881b19164260881b600160881b600160c81b03161790556040516080808252909283926107569261180e9061072e9086016121f7565b908482036040860152611fe1565b9050820151856117b5565b601f1982169060036000526000805160206125388339815191529160005b818110611893575092600080516020612598833981519152949260019282610c3e961061187a575b5050811b016003556117ca565b84015160001960f88460031b161c19169055858061186d565b91926020600181928689015181550194019201611845565b6003600052601f820160051c600080516020612538833981519152019060208310611902575b601f0160051c60008051602061253883398151915201905b8181106118f65750611789565b600081556001016118e9565b60008051602061253883398151915291506118d1565b3461049e57602036600319011261049e576004356001600160a01b0381169081810361049e576000546001600160a01b031633036104595760ff60055416600481101561086857610857578115610a575760065460005b8181106119e957505060065490600160401b8210156104215761095c82600161199d940160065560066121a5565b6005805467ffffffffffffffff60881b19164260881b600160881b600160c81b03161790557f7b7ef7a864d96a85497a1ed846adb39940dd6ccef678ff6ac8d55505e09b8cc4600080a2005b836119f382612159565b905460039190911b1c6001600160a01b031614611a125760010161196f565b6392c7e28d60e01b60005260046000fd5b3461049e57602036600319011261049e57600435600754811015610e505761060860209161218a565b3461049e57600036600319011261049e57600054600554600c54604051926001600160a01b03169160ff9091169083611a84816121f7565b03611a8f90856120c1565b6040519081611a9d81612286565b03611aa890836120c1565b6040519081611ab6816122f9565b03611ac190836120c1565b60405180611ace8161236c565b03611ad990826120c1565b611ae1612435565b92611aea6123df565b946040519889988952602089016101c090526101c08901611b0a91611fe1565b88810360408a0152611b1b91611fe1565b8781036060890152611b2c91611fe1565b8681036080880152611b3d91611fe1565b90611b4e60a0870160ff8316612022565b8060081c6001600160401b031660c08701528060481c6001600160401b031660e08701528060881c6001600160401b03166101008701528060c81c60ff16151561012087015260d01c60ff161515610140860152848103610160860152611bb491611fa4565b838103610180850152611bc691611fa4565b9015156101a08301520390f35b3461049e57600036600319011261049e5760806008546001600160401b03600b54816040519360018060a01b038116855260a01c16602084015260ff81161515604084015260081c166060820152f35b3461049e57600036600319011261049e57602060ff60055460c81c166040519015158152f35b3461049e57602036600319011261049e576004356001600160a01b0381169081900361049e576000546001600160a01b0381169033829003610459576005549060ff8216600481101561086857610857578315610a57576001600160a01b0319168317600090815567ffffffffffffffff60881b199091164260881b600160881b600160c81b0316176005557fb532073b38c83145e3e5135377a08bf9aab55bc0fd7c1179cd4fb995d2a5159c9080a3005b3461049e57600036600319011261049e5760005460055460405190916001600160a01b03169061065190611d32816108a2816121f7565b604051611d42816108a281612286565b60405190611d5382610aba816122f9565b60405192611d6b84611d648161236c565b03856120c1565b60405196879660ff8260d01c169560ff8360c81c16956001600160401b038460881c16956001600160401b038560481c169560ff6001600160401b038760081c169616948c61202f565b3461049e57602036600319011261049e57600435600654811015610a1557610608602091612159565b3461049e57602036600319011261049e5760043580151580910361049e576000546001600160a01b031633036104595760055460ff81166004811015610868576108575769ff00ffffffffffffffff60881b191660d082901b60ff60d01b16174260881b600160881b600160c81b0316176005556040519081527ffce1dc6f5ec56f2cacdcbd5c15446ac038b73349dc13a6dff0beb5b3a639bf1090602090a1005b3461049e57602036600319011261049e576004356001600160a01b0381169081900361049e5760ff600c541615610448576000526009602052602060ff604060002054166040519015158152f35b3461049e57600036600319011261049e57602060ff60055460d01c166040519015158152f35b3461049e57600036600319011261049e576040516006548082526020820190600660005260206000209060005b818110611f6557611f5785611f38818703826120c1565b610651611f436123df565b604051938493604085526040850190611fa4565b908382036020850152611fa4565b82546001600160a01b0316845260209093019260019283019201611f21565b3461049e57600036600319011261049e5760209060ff600c541615158152f35b906020808351928381520192019060005b818110611fc25750505090565b82516001600160a01b0316845260209384019390920191600101611fb5565b919082519283825260005b84811061200d575050826000602080949584010152601f8019910116010190565b80602080928401015182828601015201611fec565b9060048210156108685752565b9996906120946101409a966120866001600160401b03999f9e9b968a988f916120789061180e8c9a61209f9960018060a01b031686526101606020870152610160860190611fe1565b916060818403910152611fe1565b8d810360808f015290611fe1565b9c60a08c0190612022565b1660c08901521660e08701521661010085015215156101208401521515910152565b90601f801991011681019081106001600160401b0382111761042157604052565b602060031982011261049e576004356001600160401b03811161049e578160238201121561049e578060040135906001600160401b0382116104215760405192612136601f8401601f1916602001856120c1565b8284526024838301011161049e5781600092602460209301838601378301015290565b60065481101561217457600660005260206000200190600090565b634e487b7160e01b600052603260045260246000fd5b60075481101561217457600760005260206000200190600090565b80548210156121745760005260206000200190600090565b90600182811c921680156121ed575b60208310146121d757565b634e487b7160e01b600052602260045260246000fd5b91607f16916121cc565b60015460009291612207826121bd565b808252916001811690811561226a5750600114612222575050565b600160009081529293509091906000805160206125588339815191525b838310612250575060209250010190565b60018160209294939454838587010152019101919061223f565b9050602093945060ff929192191683830152151560051b010190565b60025460009291612296826121bd565b808252916001811690811561226a57506001146122b1575050565b600260009081529293509091906000805160206125188339815191525b8383106122df575060209250010190565b6001816020929493945483858701015201910191906122ce565b60035460009291612309826121bd565b808252916001811690811561226a5750600114612324575050565b600360009081529293509091906000805160206125388339815191525b838310612352575060209250010190565b600181602092949394548385870101520191019190612341565b6004546000929161237c826121bd565b808252916001811690811561226a5750600114612397575050565b600460009081529293509091906000805160206125788339815191525b8383106123c5575060209250010190565b6001816020929493945483858701015201910191906123b4565b604051906007548083528260208101600760005260206000209260005b818110612413575050612411925003836120c1565b565b84546001600160a01b03168352600194850194879450602090930192016123fc565b604051906006548083528260208101600660005260206000209260005b818110612467575050612411925003836120c1565b84546001600160a01b0316835260019485019487945060209093019201612452565b6007549060005b82811061249f57505050600090565b6124a88161218a565b905460039190911b1c6001600160a01b03908116908316146124cc57600101612490565b505050600190565b6006549060005b8281106124ea57505050600090565b6124f381612159565b905460039190911b1c6001600160a01b03908116908316146124cc576001016124db56fe405787fa12a823e0f2b7631cc41b3ba8828b3321ca811111fa75cd3aa3bb5acec2575a0e9e593c00f959f8c92f12db2869c3395a3b0502d05e2516446f71f85bb10e2d527612073b26eecdfd717e6a320cf44b4afac2b0732d9fcbe2b7fa0cf68a35acfbc15ff81a39ae7d344fd709f28e8600b4aa8c65c6b64bfe7fe36bd19b9775f25ad625945e9068004f3a218174c780fcba3e63d8f7bdb318f7222ab3b8a2646970667358221220f868c328618bb479e1c9b587d817a3b066ec7e2a228ee1d3c83af79f3356560b64736f6c634300081c0033",
  "linkReferences": {},
  "deployedLinkReferences": {}
}