{
  "contracts/LifeSignalRegistry.sol": {
    "LifeSignalRegistry": {
      "abi": [
        {
          "anonymous": false,
          "inputs": [
            {
              "indexed": true,
              "internalType": "address",
              "name": "owner",
              "type": "address"
            },
            {
              "indexed": false,
              "internalType": "bool",
              "name": "isDeceased",
              "type": "bool"
            },
            {
              "indexed": false,
              "internalType": "uint256",
              "name": "timestamp",
              "type": "uint256"
            }
          ],
          "name": "ConsensusReached",
          "type": "event"
        },
        {
          "anonymous": false,
          "inputs": [
            {
              "indexed": true,
              "internalType": "address",
              "name": "owner",
              "type": "address"
            },
            {
              "indexed": true,
              "internalType": "address",
              "name": "contact",
              "type": "address"
            },
            {
              "indexed": false,
              "internalType": "string",
              "name": "firstName",
              "type": "string"
            },
            {
              "indexed": false,
              "internalType": "string",
              "name": "lastName",
              "type": "string"
            },
            {
              "indexed": false,
              "internalType": "bool",
              "name": "hasVotingRight",
              "type": "bool"
            }
          ],
          "name": "ContactAdded",
          "type": "event"
        },
        {
          "anonymous": false,
          "inputs": [
            {
              "indexed": true,
              "internalType": "address",
              "name": "owner",
              "type": "address"
            },
            {
              "indexed": true,
              "internalType": "address",
              "name": "contact",
              "type": "address"
            }
          ],
          "name": "ContactVerified",
          "type": "event"
        },
        {
          "anonymous": false,
          "inputs": [
            {
              "indexed": true,
              "internalType": "address",
              "name": "owner",
              "type": "address"
            },
            {
              "indexed": true,
              "internalType": "address",
              "name": "declaredBy",
              "type": "address"
            },
            {
              "indexed": false,
              "internalType": "uint256",
              "name": "timestamp",
              "type": "uint256"
            }
          ],
          "name": "DeathDeclared",
          "type": "event"
        },
        {
          "anonymous": false,
          "inputs": [
            {
              "indexed": true,
              "internalType": "address",
              "name": "owner",
              "type": "address"
            },
            {
              "indexed": false,
              "internalType": "uint256",
              "name": "timestamp",
              "type": "uint256"
            }
          ],
          "name": "HeartbeatSent",
          "type": "event"
        },
        {
          "anonymous": false,
          "inputs": [
            {
              "indexed": true,
              "internalType": "address",
              "name": "owner",
              "type": "address"
            },
            {
              "indexed": false,
              "internalType": "string",
              "name": "firstName",
              "type": "string"
            },
            {
              "indexed": false,
              "internalType": "string",
              "name": "lastName",
              "type": "string"
            }
          ],
          "name": "OwnerRegistered",
          "type": "event"
        },
        {
          "anonymous": false,
          "inputs": [
            {
              "indexed": true,
              "internalType": "uint256",
              "name": "vaultId",
              "type": "uint256"
            },
            {
              "indexed": true,
              "internalType": "address",
              "name": "contact",
              "type": "address"
            }
          ],
          "name": "VaultContactAuthorized",
          "type": "event"
        },
        {
          "anonymous": false,
          "inputs": [
            {
              "indexed": true,
              "internalType": "uint256",
              "name": "vaultId",
              "type": "uint256"
            },
            {
              "indexed": true,
              "internalType": "address",
              "name": "owner",
              "type": "address"
            },
            {
              "indexed": false,
              "internalType": "string",
              "name": "name",
              "type": "string"
            }
          ],
          "name": "VaultCreated",
          "type": "event"
        },
        {
          "anonymous": false,
          "inputs": [
            {
              "indexed": true,
              "internalType": "uint256",
              "name": "vaultId",
              "type": "uint256"
            },
            {
              "indexed": false,
              "internalType": "uint256",
              "name": "fileId",
              "type": "uint256"
            },
            {
              "indexed": false,
              "internalType": "string",
              "name": "originalName",
              "type": "string"
            }
          ],
          "name": "VaultFileAdded",
          "type": "event"
        },
        {
          "anonymous": false,
          "inputs": [
            {
              "indexed": true,
              "internalType": "uint256",
              "name": "vaultId",
              "type": "uint256"
            },
            {
              "indexed": true,
              "internalType": "address",
              "name": "owner",
              "type": "address"
            }
          ],
          "name": "VaultReleased",
          "type": "event"
        },
        {
          "anonymous": false,
          "inputs": [
            {
              "indexed": true,
              "internalType": "address",
              "name": "owner",
              "type": "address"
            },
            {
              "indexed": true,
              "internalType": "address",
              "name": "voter",
              "type": "address"
            },
            {
              "indexed": false,
              "internalType": "bool",
              "name": "vote",
              "type": "bool"
            }
          ],
          "name": "VoteCast",
          "type": "event"
        },
        {
          "inputs": [
            {
              "internalType": "address",
              "name": "_contact",
              "type": "address"
            },
            {
              "internalType": "string",
              "name": "_firstName",
              "type": "string"
            },
            {
              "internalType": "string",
              "name": "_lastName",
              "type": "string"
            },
            {
              "internalType": "string",
              "name": "_email",
              "type": "string"
            },
            {
              "internalType": "string",
              "name": "_phone",
              "type": "string"
            },
            {
              "internalType": "bool",
              "name": "_hasVotingRight",
              "type": "bool"
            },
            {
              "internalType": "uint256[]",
              "name": "_authorizedVaults",
              "type": "uint256[]"
            }
          ],
          "name": "addContact",
          "outputs": [],
          "stateMutability": "nonpayable",
          "type": "function"
        },
        {
          "inputs": [
            {
              "internalType": "uint256",
              "name": "_vaultId",
              "type": "uint256"
            },
            {
              "internalType": "string",
              "name": "_originalName",
              "type": "string"
            },
            {
              "internalType": "string",
              "name": "_mimeType",
              "type": "string"
            },
            {
              "internalType": "string",
              "name": "_cid",
              "type": "string"
            },
            {
              "internalType": "string",
              "name": "_uploadDate",
              "type": "string"
            }
          ],
          "name": "addVaultFile",
          "outputs": [
            {
              "internalType": "uint256",
              "name": "",
              "type": "uint256"
            }
          ],
          "stateMutability": "nonpayable",
          "type": "function"
        },
        {
          "inputs": [
            {
              "internalType": "uint256",
              "name": "_vaultId",
              "type": "uint256"
            },
            {
              "internalType": "address",
              "name": "_contact",
              "type": "address"
            }
          ],
          "name": "authorizeVaultContact",
          "outputs": [],
          "stateMutability": "nonpayable",
          "type": "function"
        },
        {
          "inputs": [
            {
              "internalType": "string",
              "name": "_name",
              "type": "string"
            },
            {
              "internalType": "string",
              "name": "_cypherIv",
              "type": "string"
            },
            {
              "internalType": "string",
              "name": "_encryptionKey",
              "type": "string"
            }
          ],
          "name": "createVault",
          "outputs": [
            {
              "internalType": "uint256",
              "name": "",
              "type": "uint256"
            }
          ],
          "stateMutability": "nonpayable",
          "type": "function"
        },
        {
          "inputs": [
            {
              "internalType": "address",
              "name": "_owner",
              "type": "address"
            }
          ],
          "name": "declareDeceased",
          "outputs": [],
          "stateMutability": "nonpayable",
          "type": "function"
        },
        {
          "inputs": [
            {
              "internalType": "address",
              "name": "_owner",
              "type": "address"
            },
            {
              "internalType": "address",
              "name": "_contact",
              "type": "address"
            }
          ],
          "name": "getContactAuthorizedVaults",
          "outputs": [
            {
              "internalType": "uint256[]",
              "name": "",
              "type": "uint256[]"
            }
          ],
          "stateMutability": "view",
          "type": "function"
        },
        {
          "inputs": [
            {
              "internalType": "address",
              "name": "_owner",
              "type": "address"
            },
            {
              "internalType": "address",
              "name": "_contact",
              "type": "address"
            }
          ],
          "name": "getContactInfo",
          "outputs": [
            {
              "internalType": "address",
              "name": "addr",
              "type": "address"
            },
            {
              "internalType": "string",
              "name": "firstName",
              "type": "string"
            },
            {
              "internalType": "string",
              "name": "lastName",
              "type": "string"
            },
            {
              "internalType": "string",
              "name": "email",
              "type": "string"
            },
            {
              "internalType": "string",
              "name": "phone",
              "type": "string"
            },
            {
              "internalType": "bool",
              "name": "hasVotingRight",
              "type": "bool"
            },
            {
              "internalType": "bool",
              "name": "isVerified",
              "type": "bool"
            },
            {
              "internalType": "bool",
              "name": "exists",
              "type": "bool"
            }
          ],
          "stateMutability": "view",
          "type": "function"
        },
        {
          "inputs": [
            {
              "internalType": "address",
              "name": "_owner",
              "type": "address"
            }
          ],
          "name": "getContactList",
          "outputs": [
            {
              "internalType": "address[]",
              "name": "",
              "type": "address[]"
            }
          ],
          "stateMutability": "view",
          "type": "function"
        },
        {
          "inputs": [
            {
              "internalType": "address",
              "name": "_owner",
              "type": "address"
            }
          ],
          "name": "getDeathDeclarationStatus",
          "outputs": [
            {
              "internalType": "bool",
              "name": "isActive",
              "type": "bool"
            },
            {
              "internalType": "uint256",
              "name": "startTime",
              "type": "uint256"
            },
            {
              "internalType": "uint256",
              "name": "votesFor",
              "type": "uint256"
            },
            {
              "internalType": "uint256",
              "name": "votesAgainst",
              "type": "uint256"
            },
            {
              "internalType": "uint256",
              "name": "totalVotingContacts",
              "type": "uint256"
            },
            {
              "internalType": "bool",
              "name": "consensusReached",
              "type": "bool"
            }
          ],
          "stateMutability": "view",
          "type": "function"
        },
        {
          "inputs": [
            {
              "internalType": "address",
              "name": "_owner",
              "type": "address"
            }
          ],
          "name": "getOwnerInfo",
          "outputs": [
            {
              "internalType": "string",
              "name": "firstName",
              "type": "string"
            },
            {
              "internalType": "string",
              "name": "lastName",
              "type": "string"
            },
            {
              "internalType": "uint256",
              "name": "lastHeartbeat",
              "type": "uint256"
            },
            {
              "internalType": "uint256",
              "name": "graceInterval",
              "type": "uint256"
            },
            {
              "internalType": "bool",
              "name": "isDeceased",
              "type": "bool"
            },
            {
              "internalType": "bool",
              "name": "exists",
              "type": "bool"
            }
          ],
          "stateMutability": "view",
          "type": "function"
        },
        {
          "inputs": [
            {
              "internalType": "address",
              "name": "_owner",
              "type": "address"
            }
          ],
          "name": "getOwnerVaultList",
          "outputs": [
            {
              "internalType": "uint256[]",
              "name": "",
              "type": "uint256[]"
            }
          ],
          "stateMutability": "view",
          "type": "function"
        },
        {
          "inputs": [
            {
              "internalType": "uint256",
              "name": "_vaultId",
              "type": "uint256"
            }
          ],
          "name": "getVaultAuthorizedContacts",
          "outputs": [
            {
              "internalType": "address[]",
              "name": "",
              "type": "address[]"
            }
          ],
          "stateMutability": "view",
          "type": "function"
        },
        {
          "inputs": [
            {
              "internalType": "uint256",
              "name": "_vaultId",
              "type": "uint256"
            },
            {
              "internalType": "uint256",
              "name": "_fileId",
              "type": "uint256"
            }
          ],
          "name": "getVaultFileInfo",
          "outputs": [
            {
              "internalType": "string",
              "name": "originalName",
              "type": "string"
            },
            {
              "internalType": "string",
              "name": "mimeType",
              "type": "string"
            },
            {
              "internalType": "string",
              "name": "cid",
              "type": "string"
            },
            {
              "internalType": "string",
              "name": "uploadDate",
              "type": "string"
            },
            {
              "internalType": "bool",
              "name": "exists",
              "type": "bool"
            }
          ],
          "stateMutability": "view",
          "type": "function"
        },
        {
          "inputs": [
            {
              "internalType": "uint256",
              "name": "_vaultId",
              "type": "uint256"
            }
          ],
          "name": "getVaultFileList",
          "outputs": [
            {
              "internalType": "uint256[]",
              "name": "",
              "type": "uint256[]"
            }
          ],
          "stateMutability": "view",
          "type": "function"
        },
        {
          "inputs": [
            {
              "internalType": "uint256",
              "name": "_vaultId",
              "type": "uint256"
            }
          ],
          "name": "getVaultInfo",
          "outputs": [
            {
              "internalType": "uint256",
              "name": "id",
              "type": "uint256"
            },
            {
              "internalType": "string",
              "name": "name",
              "type": "string"
            },
            {
              "internalType": "address",
              "name": "owner",
              "type": "address"
            },
            {
              "internalType": "bool",
              "name": "isReleased",
              "type": "bool"
            },
            {
              "internalType": "string",
              "name": "cypherIv",
              "type": "string"
            },
            {
              "internalType": "string",
              "name": "encryptionKey",
              "type": "string"
            },
            {
              "internalType": "uint256[]",
              "name": "fileIds",
              "type": "uint256[]"
            },
            {
              "internalType": "address[]",
              "name": "authorizedContacts",
              "type": "address[]"
            },
            {
              "internalType": "bool",
              "name": "exists",
              "type": "bool"
            }
          ],
          "stateMutability": "view",
          "type": "function"
        },
        {
          "inputs": [
            {
              "internalType": "address",
              "name": "_owner",
              "type": "address"
            },
            {
              "internalType": "address",
              "name": "_voter",
              "type": "address"
            }
          ],
          "name": "getVote",
          "outputs": [
            {
              "internalType": "bool",
              "name": "",
              "type": "bool"
            }
          ],
          "stateMutability": "view",
          "type": "function"
        },
        {
          "inputs": [
            {
              "internalType": "address",
              "name": "_owner",
              "type": "address"
            },
            {
              "internalType": "address",
              "name": "_voter",
              "type": "address"
            }
          ],
          "name": "hasVoted",
          "outputs": [
            {
              "internalType": "bool",
              "name": "",
              "type": "bool"
            }
          ],
          "stateMutability": "view",
          "type": "function"
        },
        {
          "inputs": [
            {
              "internalType": "uint256",
              "name": "_vaultId",
              "type": "uint256"
            },
            {
              "internalType": "address",
              "name": "_address",
              "type": "address"
            }
          ],
          "name": "isVaultAuthorized",
          "outputs": [
            {
              "internalType": "bool",
              "name": "",
              "type": "bool"
            }
          ],
          "stateMutability": "view",
          "type": "function"
        },
        {
          "inputs": [
            {
              "internalType": "string",
              "name": "_firstName",
              "type": "string"
            },
            {
              "internalType": "string",
              "name": "_lastName",
              "type": "string"
            },
            {
              "internalType": "string",
              "name": "_email",
              "type": "string"
            },
            {
              "internalType": "string",
              "name": "_phone",
              "type": "string"
            },
            {
              "internalType": "uint256",
              "name": "_graceInterval",
              "type": "uint256"
            }
          ],
          "name": "registerOwner",
          "outputs": [],
          "stateMutability": "nonpayable",
          "type": "function"
        },
        {
          "inputs": [
            {
              "internalType": "uint256",
              "name": "_vaultId",
              "type": "uint256"
            }
          ],
          "name": "releaseVault",
          "outputs": [],
          "stateMutability": "nonpayable",
          "type": "function"
        },
        {
          "inputs": [],
          "name": "sendHeartbeat",
          "outputs": [],
          "stateMutability": "nonpayable",
          "type": "function"
        },
        {
          "inputs": [
            {
              "internalType": "address",
              "name": "_owner",
              "type": "address"
            },
            {
              "internalType": "string",
              "name": "_firstName",
              "type": "string"
            },
            {
              "internalType": "string",
              "name": "_lastName",
              "type": "string"
            },
            {
              "internalType": "string",
              "name": "_email",
              "type": "string"
            },
            {
              "internalType": "string",
              "name": "_phone",
              "type": "string"
            }
          ],
          "name": "updateContactInfo",
          "outputs": [],
          "stateMutability": "nonpayable",
          "type": "function"
        },
        {
          "inputs": [
            {
              "internalType": "address",
              "name": "_owner",
              "type": "address"
            }
          ],
          "name": "verifyContact",
          "outputs": [],
          "stateMutability": "nonpayable",
          "type": "function"
        },
        {
          "inputs": [
            {
              "internalType": "address",
              "name": "_owner",
              "type": "address"
            },
            {
              "internalType": "bool",
              "name": "_vote",
              "type": "bool"
            }
          ],
          "name": "voteOnDeathDeclaration",
          "outputs": [],
          "stateMutability": "nonpayable",
          "type": "function"
        }
      ],
      "evm": {
        "bytecode": {
          "linkReferences": {},
          "object": "60806040526000600555600060065534801561001a57600080fd5b50613deb8061002a6000396000f3fe608060405234801561001057600080fd5b50600436106101585760003560e01c806352e20c4f116100c3578063996e6ca11161007c578063996e6ca11461033d578063abc22bbe146103c5578063b1ba9620146103d8578063b2b2baed14610400578063b385faa814610413578063d385de821461042657600080fd5b806352e20c4f146102b75780635ab4f162146102ca57806360f490f7146102dd5780636880f137146103045780637366252c14610317578063758436181461032a57600080fd5b806333587dc41161011557806333587dc4146101f557806334f167a9146102085780633bfb14f514610210578063490f0eba146102345780634d4d2b1c146102545780634e8e32b5146102a457600080fd5b80630accc75d1461015d5780631d2f4368146101725780631fe7fe7e1461019b5780632c8bc50b146101ae5780632fda53e7146101c1578063329a5ac0146101d4575b600080fd5b61017061016b3660046131dc565b61044b565b005b6101856101803660046132c3565b610829565b6040516101929190613331565b60405180910390f35b6101706101a9366004613398565b6108a9565b6101706101bc3660046134c7565b610f22565b6101856101cf36600461359d565b610fe0565b6101e76101e23660046135b8565b61104d565b604051908152602001610192565b6101e76102033660046135f4565b611354565b610170611643565b61022361021e36600461368d565b61179a565b6040516101929594939291906136f5565b610247610242366004613757565b611a22565b60405161019291906137a9565b6102946102623660046132c3565b6001600160a01b0391821660009081526004602090815260408083209390941682526006909201909152205460ff1690565b6040519015158152602001610192565b6101706102b23660046137bc565b611a90565b6102946102c53660046137e6565b611d60565b6102946102d83660046132c3565b611d73565b6102f06102eb3660046132c3565b611e17565b604051610192989796959493929190613809565b61017061031236600461359d565b6120d6565b6101706103253660046137e6565b6121f2565b610185610338366004613757565b6123c1565b61039461034b36600461359d565b6001600160a01b031660009081526004602081905260409091206005810154600182015460028301546003840154939094015460ff808416969295949391926101009092041690565b60408051961515875260208701959095529385019290925260608401526080830152151560a082015260c001610192565b6101706103d336600461359d565b612424565b6103eb6103e6366004613757565b612894565b6040516101929998979695949392919061388d565b61017061040e366004613757565b612b68565b61024761042136600461359d565b612d35565b61043961043436600461359d565b612daa565b60405161019296959493929190613928565b33600090815260208190526040902060070154610100900460ff16156104b85760405162461bcd60e51b815260206004820152601860248201527f4f776e657220616c72656164792072656769737465726564000000000000000060448201526064015b60405180910390fd5b6201518081101561050b5760405162461bcd60e51b815260206004820152601860248201527f477261636520696e74657276616c20746f6f2073686f7274000000000000000060448201526064016104af565b6301e1338081111561055f5760405162461bcd60e51b815260206004820152601760248201527f477261636520696e74657276616c20746f6f206c6f6e6700000000000000000060448201526064016104af565b604051806101600160405280336001600160a01b031681526020018a8a8080601f016020809104026020016040519081016040528093929190818152602001838380828437600092019190915250505090825250604080516020601f8b0181900481028201810190925289815291810191908a908a9081908401838280828437600092019190915250505090825250604080516020601f890181900481028201810190925287815291810191908890889081908401838280828437600092019190915250505090825250604080516020601f870181900481028201810190925285815291810191908690869081908401838280828437600092018290525093855250504260208401525060408201849052606082018190526001608083015260a0909101906040519080825280602002602001820160405280156106ad578160200160208202803683370190505b50815260200160006040519080825280602002602001820160405280156106de578160200160208202803683370190505b50905233600090815260208181526040909120825181546001600160a01b0319166001600160a01b039091161781559082015160018201906107209082613a13565b50604082015160028201906107359082613a13565b506060820151600382019061074a9082613a13565b506080820151600482019061075f9082613a13565b5060a0820151600582015560c0820151600682015560e08201516007820180546101008086015115150261ff00199315159390931661ffff199091161791909117905561012082015180516107be9160088401916020909101906130df565b5061014082015180516107db916009840191602090910190613144565b50506040513391507f90fdcd9183750bdfb11be5d6379c04e744e8f650aac530ea853c19226ea7eb2b90610816908c908c908c908c90613afb565b60405180910390a2505050505050505050565b6001600160a01b038083166000908152600160209081526040808320938516835292815290829020600681018054845181850281018501909552808552606094929383018282801561089a57602002820191906000526020600020905b815481526020019060010190808311610886575b50505050509150505b92915050565b33600090815260208190526040902060070154610100900460ff166108e05760405162461bcd60e51b81526004016104af90613b2d565b336001600160a01b038d16036109385760405162461bcd60e51b815260206004820152601e60248201527f43616e6e6f742061646420796f757273656c6620617320636f6e74616374000060448201526064016104af565b60016000336001600160a01b03166001600160a01b0316815260200190815260200160002060008d6001600160a01b03166001600160a01b0316815260200190815260200160002060050160029054906101000a900460ff16156109d75760405162461bcd60e51b8152602060048201526016602482015275436f6e7461637420616c72656164792065786973747360501b60448201526064016104af565b6040518061012001604052808d6001600160a01b031681526020018c8c8080601f016020809104026020016040519081016040528093929190818152602001838380828437600092019190915250505090825250604080516020601f8d018190048102820181019092528b815291810191908c908c9081908401838280828437600092019190915250505090825250604080516020601f8b0181900481028201810190925289815291810191908a908a9081908401838280828437600092019190915250505090825250604080516020601f890181900481028201810190925287815291810191908890889081908401838280828437600092018290525093855250505085151560208084019190915260408084018390526001606085015280518381529182019052608090920191905081525060016000336001600160a01b03166001600160a01b0316815260200190815260200160002060008e6001600160a01b03166001600160a01b0316815260200190815260200160002060008201518160000160006101000a8154816001600160a01b0302191690836001600160a01b031602179055506020820151816001019081610b959190613a13565b5060408201516002820190610baa9082613a13565b5060608201516003820190610bbf9082613a13565b5060808201516004820190610bd49082613a13565b5060a082015160058201805460c085015160e086015161ffff1990921693151561ff0019169390931761010093151584021762ff0000191662010000911515919091021790558201518051610c33916006840191602090910190613144565b50905050600080336001600160a01b03166001600160a01b031681526020019081526020016000206008018c9080600181540180825580915050600190039060005260206000200160009091909190916101000a8154816001600160a01b0302191690836001600160a01b0316021790555060005b81811015610ec0576000838383818110610cc457610cc4613b5b565b60209081029290920135600081815260029093526040909220600501549192505060ff16610d045760405162461bcd60e51b81526004016104af90613b71565b600081815260026020819052604090912001546001600160a01b03163314610d3e5760405162461bcd60e51b81526004016104af90613b9f565b610d48818f612f28565b15610da75760405162461bcd60e51b815260206004820152602960248201527f436f6e7461637420616c726561647920617574686f72697a656420666f7220746044820152681a1a5cc81d985d5b1d60ba1b60648201526084016104af565b600260008281526020019081526020016000206006018e9080600181540180825580915050600190039060005260206000200160009091909190916101000a8154816001600160a01b0302191690836001600160a01b0316021790555060016000336001600160a01b03166001600160a01b0316815260200190815260200160002060008f6001600160a01b03166001600160a01b031681526020019081526020016000206006018190806001815401808255809150506001900390600052602060002001600090919091909150558d6001600160a01b0316817f072024bc1a3beff7df2fe575c8097c660ee4a4e15f263e037ed38560728681f160405160405180910390a35080610eb881613bde565b915050610ca8565b508b6001600160a01b0316336001600160a01b03167fd39b94c4e0a6dc7134a60e93b1e6d3076988e71a9558afb69b3ecb6488db04dd8d8d8d8d89604051610f0c959493929190613bf7565b60405180910390a3505050505050505050505050565b6001600160a01b0389166000908152600160209081526040808320338452909152902060050154899062010000900460ff16610f705760405162461bcd60e51b81526004016104af90613c33565b6001600160a01b038a166000908152600160208181526040808420338552909152909120908101610fa28a8c83613c6a565b5060028101610fb2888a83613c6a565b5060038101610fc2868883613c6a565b5060048101610fd2848683613c6a565b505050505050505050505050565b6001600160a01b0381166000908152602081815260409182902060090180548351818402810184019094528084526060939283018282801561104157602002820191906000526020600020905b81548152602001906001019080831161102d575b50505050509050919050565b6000898152600260205260408120600501548a9060ff166110805760405162461bcd60e51b81526004016104af90613b71565b600081815260026020819052604090912001546001600160a01b031633146110ba5760405162461bcd60e51b81526004016104af90613b9f565b60065460008c815260036020908152604080832084845290915290206005015460ff16156111205760405162461bcd60e51b815260206004820152601360248201527246696c6520616c72656164792065786973747360681b60448201526064016104af565b6040518060c001604052808281526020018c8c8080601f016020809104026020016040519081016040528093929190818152602001838380828437600092019190915250505090825250604080516020601f8d018190048102820181019092528b815291810191908c908c9081908401838280828437600092019190915250505090825250604080516020601f8b0181900481028201810190925289815291810191908a908a9081908401838280828437600092019190915250505090825250604080516020601f890181900481028201810190925287815291810191908890889081908401838280828437600081840152601f19601f82011690508083019250505050505050815260200160011515815250600360008e815260200190815260200160002060008381526020019081526020016000206000820151816000015560208201518160010190816112769190613a13565b506040820151600282019061128b9082613a13565b50606082015160038201906112a09082613a13565b50608082015160048201906112b59082613a13565b5060a091909101516005909101805460ff191691151591909117905560008c81526002602090815260408220600701805460018101825590835290822001829055600680549161130483613bde565b91905055508b7f1d3c6a3c34addeca1898ed9e2152304ea92cf5b2dfabe5461461392a62f6d8de828d8d60405161133d93929190613d2a565b60405180910390a29b9a5050505050505050505050565b33600090815260208190526040812060070154610100900460ff1661138b5760405162461bcd60e51b81526004016104af90613b2d565b6005805460008181526002602052604090209091015460ff16156113e85760405162461bcd60e51b81526020600482015260146024820152735661756c7420616c72656164792065786973747360601b60448201526064016104af565b60405180610120016040528082815260200189898080601f01602080910402602001604051908101604052809392919081815260200183838082843760009201829052509385525050336020808501919091526040808501939093528251601f8b018290048202810182019093528983526060909301928a9150899081908401838280828437600092019190915250505090825250604080516020601f880181900481028201810190925286815291810191908790879081908401838280828437600092018290525093855250506001602080850182905260408051858152808301825281870152805185815280830182526060909601959095528684526002815293909220845181559284015191830191611505915082613a13565b50604082015160028201805460608501511515600160a01b026001600160a81b03199091166001600160a01b0390931692909217919091179055608082015160038201906115539082613a13565b5060a082015160048201906115689082613a13565b5060c082015160058201805460ff191691151591909117905560e0820151805161159c9160068401916020909101906130df565b5061010082015180516115b9916007840191602090910190613144565b5050336000908152602081815260408220600901805460018101825590835290822001839055600580549250906115ef83613bde565b9190505550336001600160a01b0316817f6cda1fe49e022cf08f0f3e367bd8c6abb3c3a01a260273f23c8e432a4166a0488a8a604051611630929190613d4d565b60405180910390a3979650505050505050565b33600090815260208190526040902060070154610100900460ff1661167a5760405162461bcd60e51b81526004016104af90613b2d565b3360009081526020819052604090206007015460ff16156116dd5760405162461bcd60e51b815260206004820152601960248201527f4f776e657220697320616c72656164792064656365617365640000000000000060448201526064016104af565b33600090815260208181526040808320426005918201556004909252909120015460ff16156117635733600081815260046020526040808220600501805460ff19169055517fac892f9ea2bac4d143f762134b209de57efb94b00c56302aaed590951368eaac9161175a9142909115158252602082015260400190565b60405180910390a25b60405142815233907f878229cab17522b0aa9fe67ef166ba37857b7fdb46cd8748179a9d9a7373727f9060200160405180910390a2565b6000828152600360208181526040808420858552909152822060058101546001820180546060958695869586959294909390926002850192850191600486019160ff169085906117e99061398b565b80601f01602080910402602001604051908101604052809291908181526020018280546118159061398b565b80156118625780601f1061183757610100808354040283529160200191611862565b820191906000526020600020905b81548152906001019060200180831161184557829003601f168201915b505050505094508380546118759061398b565b80601f01602080910402602001604051908101604052809291908181526020018280546118a19061398b565b80156118ee5780601f106118c3576101008083540402835291602001916118ee565b820191906000526020600020905b8154815290600101906020018083116118d157829003601f168201915b505050505093508280546119019061398b565b80601f016020809104026020016040519081016040528092919081815260200182805461192d9061398b565b801561197a5780601f1061194f5761010080835404028352916020019161197a565b820191906000526020600020905b81548152906001019060200180831161195d57829003601f168201915b5050505050925081805461198d9061398b565b80601f01602080910402602001604051908101604052809291908181526020018280546119b99061398b565b8015611a065780601f106119db57610100808354040283529160200191611a06565b820191906000526020600020905b8154815290600101906020018083116119e957829003601f168201915b5050505050915095509550955095509550509295509295909350565b60008181526002602090815260409182902060060180548351818402810184019094528084526060939283018282801561104157602002820191906000526020600020905b81546001600160a01b03168152600190910190602001808311611a675750505050509050919050565b6001600160a01b0382166000908152600160209081526040808320338452909152902060050154829062010000900460ff16611ade5760405162461bcd60e51b81526004016104af90613c33565b6001600160a01b0381166000908152600160209081526040808320338452909152902060050154610100900460ff16611b505760405162461bcd60e51b815260206004820152601460248201527310dbdb9d1858dd081b9bdd081d995c9a599a595960621b60448201526064016104af565b6001600160a01b038116600090815260016020908152604080832033845290915290206005015460ff16611bb95760405162461bcd60e51b815260206004820152601060248201526f4e6f20766f74696e672072696768747360801b60448201526064016104af565b6001600160a01b03831660009081526004602052604090206005015460ff16611c245760405162461bcd60e51b815260206004820152601b60248201527f4e6f20616374697665206465617468206465636c61726174696f6e000000000060448201526064016104af565b6001600160a01b038316600090815260046020908152604080832033845260060190915290205460ff1615611c8b5760405162461bcd60e51b815260206004820152600d60248201526c105b1c9958591e481d9bdd1959609a1b60448201526064016104af565b6001600160a01b0383166000908152600460209081526040808320338452600681018352818420805460ff1990811660011790915560078201909352922080548515801591909316179055611cf657600281018054906000611cec83613bde565b9190505550611d0e565b600381018054906000611d0883613bde565b91905055505b604051831515815233906001600160a01b038616907fcc194f214df029fe546c9959ee15d79d8633742aab6c02a862e337f8ace3d550906020015b60405180910390a3611d5a84612fa5565b50505050565b6000611d6c8383612f28565b9392505050565b6001600160a01b0380831660009081526004602090815260408083209385168352600690930190529081205460ff16611de45760405162461bcd60e51b8152602060048201526013602482015272159bdd195c881a185cc81b9bdd081d9bdd1959606a1b60448201526064016104af565b506001600160a01b0391821660009081526004602090815260408083209390941682526007909201909152205460ff1690565b6001600160a01b0380831660009081526001602081815260408084208686168552909152822080546005820154928201805494956060958695869586958a95869586959394921692909160028501916003860191600487019160ff80831692610100810482169262010000909104909116908790611e949061398b565b80601f0160208091040260200160405190810160405280929190818152602001828054611ec09061398b565b8015611f0d5780601f10611ee257610100808354040283529160200191611f0d565b820191906000526020600020905b815481529060010190602001808311611ef057829003601f168201915b50505050509650858054611f209061398b565b80601f0160208091040260200160405190810160405280929190818152602001828054611f4c9061398b565b8015611f995780601f10611f6e57610100808354040283529160200191611f99565b820191906000526020600020905b815481529060010190602001808311611f7c57829003601f168201915b50505050509550848054611fac9061398b565b80601f0160208091040260200160405190810160405280929190818152602001828054611fd89061398b565b80156120255780601f10611ffa57610100808354040283529160200191612025565b820191906000526020600020905b81548152906001019060200180831161200857829003601f168201915b505050505094508380546120389061398b565b80601f01602080910402602001604051908101604052809291908181526020018280546120649061398b565b80156120b15780601f10612086576101008083540402835291602001916120b1565b820191906000526020600020905b81548152906001019060200180831161209457829003601f168201915b5050505050935098509850985098509850985098509850509295985092959890939650565b6001600160a01b0381166000908152600160209081526040808320338452909152902060050154819062010000900460ff166121245760405162461bcd60e51b81526004016104af90613c33565b6001600160a01b0382166000908152600160209081526040808320338452909152902060050154610100900460ff16156121935760405162461bcd60e51b815260206004820152601060248201526f105b1c9958591e481d995c9a599a595960821b60448201526064016104af565b6001600160a01b0382166000818152600160209081526040808320338085529252808320600501805461ff001916610100179055519092917f33c6b9962c16a3768d4f15c8f694b088fd57a39499a9b9f7e59243c371a2207a91a35050565b600082815260026020526040902060050154829060ff166122255760405162461bcd60e51b81526004016104af90613b71565b600081815260026020819052604090912001546001600160a01b0316331461225f5760405162461bcd60e51b81526004016104af90613b9f565b3360009081526001602090815260408083206001600160a01b038616845290915290206005015462010000900460ff166122d45760405162461bcd60e51b815260206004820152601660248201527510dbdb9d1858dd08191bd95cc81b9bdd08195e1a5cdd60521b60448201526064016104af565b6122de8383612f28565b1561232b5760405162461bcd60e51b815260206004820152601a60248201527f436f6e7461637420616c726561647920617574686f72697a656400000000000060448201526064016104af565b600083815260026020908152604080832060069081018054600180820183559186528486200180546001600160a01b0319166001600160a01b038916908117909155338652818552838620818752855283862090920180549182018155855292842090920186905551909185917f072024bc1a3beff7df2fe575c8097c660ee4a4e15f263e037ed38560728681f19190a3505050565b600081815260026020908152604091829020600701805483518184028101840190945280845260609392830182828015611041576020028201919060005260206000209081548152602001906001019080831161102d5750505050509050919050565b6001600160a01b0381166000908152600160209081526040808320338452909152902060050154819062010000900460ff166124725760405162461bcd60e51b81526004016104af90613c33565b6001600160a01b0381166000908152600160209081526040808320338452909152902060050154610100900460ff166124e45760405162461bcd60e51b815260206004820152601460248201527310dbdb9d1858dd081b9bdd081d995c9a599a595960621b60448201526064016104af565b6001600160a01b038116600090815260016020908152604080832033845290915290206005015460ff1661254d5760405162461bcd60e51b815260206004820152601060248201526f4e6f20766f74696e672072696768747360801b60448201526064016104af565b6001600160a01b038216600090815260208190526040902060070154610100900460ff1661258d5760405162461bcd60e51b81526004016104af90613b2d565b6001600160a01b03821660009081526020819052604090206007015460ff16156125f25760405162461bcd60e51b815260206004820152601660248201527513dddb995c88185b1c9958591e48191958d9585cd95960521b60448201526064016104af565b6001600160a01b03821660009081526004602052604090206005015460ff161561265e5760405162461bcd60e51b815260206004820181905260248201527f4465617468206465636c61726174696f6e20616c72656164792061637469766560448201526064016104af565b6000805b6001600160a01b03841660009081526020819052604090206008015481101561274c576001600160a01b03841660009081526020819052604081206008018054839081106126b2576126b2613b5b565b60009182526020808320909101546001600160a01b0388811684526001835260408085209190921680855292529091206005015490915060ff61010090910416801561272657506001600160a01b0380861660009081526001602090815260408083209385168352929052206005015460ff165b15612739578261273581613bde565b9350505b508061274481613bde565b915050612662565b506000811161279d5760405162461bcd60e51b815260206004820152601c60248201527f4e6f20766f74696e6720636f6e746163747320617661696c61626c650000000060448201526064016104af565b6001600160a01b038316600081815260046020818152604080842080546001600160a01b031916339081178255426001808401829055600284018190556003840188905595830189905560058301805461ffff191687179055818752600683018552838720805460ff199081168817909155600784018652968490208054909716909517909555905192835293917fd1ffe6c6eec884ae3341f8304738b02340905dfd25b73df1802e7f95c9b9fbec910160405180910390a36040516001815233906001600160a01b038616907fcc194f214df029fe546c9959ee15d79d8633742aab6c02a862e337f8ace3d55090602001611d49565b6000818152600260208190526040822080549181015460058201546001830180546060958795869588958695869586958a959490936001600160a01b0382169260ff600160a01b9093048316926003880192600489019260078a019260068b0192169088906129029061398b565b80601f016020809104026020016040519081016040528092919081815260200182805461292e9061398b565b801561297b5780601f106129505761010080835404028352916020019161297b565b820191906000526020600020905b81548152906001019060200180831161295e57829003601f168201915b5050505050975084805461298e9061398b565b80601f01602080910402602001604051908101604052809291908181526020018280546129ba9061398b565b8015612a075780601f106129dc57610100808354040283529160200191612a07565b820191906000526020600020905b8154815290600101906020018083116129ea57829003601f168201915b50505050509450838054612a1a9061398b565b80601f0160208091040260200160405190810160405280929190818152602001828054612a469061398b565b8015612a935780601f10612a6857610100808354040283529160200191612a93565b820191906000526020600020905b815481529060010190602001808311612a7657829003601f168201915b5050505050935082805480602002602001604051908101604052809291908181526020018280548015612ae557602002820191906000526020600020905b815481526020019060010190808311612ad1575b5050505050925081805480602002602001604051908101604052809291908181526020018280548015612b4157602002820191906000526020600020905b81546001600160a01b03168152600190910190602001808311612b23575b50505050509150995099509950995099509950995099509950509193959799909294969850565b600081815260026020526040902060050154819060ff16612b9b5760405162461bcd60e51b81526004016104af90613b71565b600081815260026020819052604090912001546001600160a01b0316331480612bc95750612bc98133612f28565b612c065760405162461bcd60e51b815260206004820152600e60248201526d139bdd08185d5d1a1bdc9a5e995960921b60448201526064016104af565b60008281526002602081905260409091200154600160a01b900460ff1615612c695760405162461bcd60e51b815260206004820152601660248201527515985d5b1d08185b1c9958591e481c995b19585cd95960521b60448201526064016104af565b6000828152600260208181526040808420909201546001600160a01b0316835282905290206007015460ff16612cd65760405162461bcd60e51b815260206004820152601260248201527113dddb995c881b9bdd08191958d9585cd95960721b60448201526064016104af565b6000828152600260208190526040808320909101805460ff60a01b198116600160a01b1790915590516001600160a01b039091169184917fa18f1ac3d4c6b800447518126c2fc0d98210a7078080b093679e972d1f8500b99190a35050565b6001600160a01b03811660009081526020818152604091829020600801805483518184028101840190945280845260609392830182828015611041576020028201919060005260206000209081546001600160a01b03168152600190910190602001808311611a675750505050509050919050565b6001600160a01b03811660009081526020819052604081206005810154600682015460078301546001840180546060968796909586958695869593946002860193929160ff8082169261010090920416908690612e069061398b565b80601f0160208091040260200160405190810160405280929190818152602001828054612e329061398b565b8015612e7f5780601f10612e5457610100808354040283529160200191612e7f565b820191906000526020600020905b815481529060010190602001808311612e6257829003601f168201915b50505050509550848054612e929061398b565b80601f0160208091040260200160405190810160405280929190818152602001828054612ebe9061398b565b8015612f0b5780601f10612ee057610100808354040283529160200191612f0b565b820191906000526020600020905b815481529060010190602001808311612eee57829003601f168201915b505050505094509650965096509650965096505091939550919395565b6000828152600260205260408120815b6006820154811015612f9a57836001600160a01b0316826006018281548110612f6357612f63613b5b565b6000918252602090912001546001600160a01b031603612f88576001925050506108a3565b80612f9281613bde565b915050612f38565b506000949350505050565b6001600160a01b0381166000908152600460208190526040822090810154909190606490612fd4906032613d69565b612fde9190613d80565b612fe9906001613da2565b905080826002015410613079576001600160a01b03831660008181526020819052604090819020600701805460ff1916600190811790915560058501805461ffff191661010017905590517fac892f9ea2bac4d143f762134b209de57efb94b00c56302aaed590951368eaac9161306c9142909115158252602082015260400190565b60405180910390a2505050565b808260030154106130da5760058201805461ffff191661010017905560408051600081524260208201526001600160a01b038516917fac892f9ea2bac4d143f762134b209de57efb94b00c56302aaed590951368eaac910160405180910390a25b505050565b828054828255906000526020600020908101928215613134579160200282015b8281111561313457825182546001600160a01b0319166001600160a01b039091161782556020909201916001909101906130ff565b5061314092915061317f565b5090565b828054828255906000526020600020908101928215613134579160200282015b82811115613134578251825591602001919060010190613164565b5b808211156131405760008155600101613180565b60008083601f8401126131a657600080fd5b5081356001600160401b038111156131bd57600080fd5b6020830191508360208285010111156131d557600080fd5b9250929050565b600080600080600080600080600060a08a8c0312156131fa57600080fd5b89356001600160401b038082111561321157600080fd5b61321d8d838e01613194565b909b50995060208c013591508082111561323657600080fd5b6132428d838e01613194565b909950975060408c013591508082111561325b57600080fd5b6132678d838e01613194565b909750955060608c013591508082111561328057600080fd5b5061328d8c828d01613194565b9a9d999c50979a9699959894979660800135949350505050565b80356001600160a01b03811681146132be57600080fd5b919050565b600080604083850312156132d657600080fd5b6132df836132a7565b91506132ed602084016132a7565b90509250929050565b600081518084526020808501945080840160005b838110156133265781518752958201959082019060010161330a565b509495945050505050565b602081526000611d6c60208301846132f6565b803580151581146132be57600080fd5b60008083601f84011261336657600080fd5b5081356001600160401b0381111561337d57600080fd5b6020830191508360208260051b85010111156131d557600080fd5b60008060008060008060008060008060008060e08d8f0312156133ba57600080fd5b6133c38d6132a7565b9b506001600160401b0360208e013511156133dd57600080fd5b6133ed8e60208f01358f01613194565b909b5099506001600160401b0360408e0135111561340a57600080fd5b61341a8e60408f01358f01613194565b90995097506001600160401b0360608e0135111561343757600080fd5b6134478e60608f01358f01613194565b90975095506001600160401b0360808e0135111561346457600080fd5b6134748e60808f01358f01613194565b909550935061348560a08e01613344565b92506001600160401b0360c08e0135111561349f57600080fd5b6134af8e60c08f01358f01613354565b81935080925050509295989b509295989b509295989b565b600080600080600080600080600060a08a8c0312156134e557600080fd5b6134ee8a6132a7565b985060208a01356001600160401b038082111561350a57600080fd5b6135168d838e01613194565b909a50985060408c013591508082111561352f57600080fd5b61353b8d838e01613194565b909850965060608c013591508082111561355457600080fd5b6135608d838e01613194565b909650945060808c013591508082111561357957600080fd5b506135868c828d01613194565b915080935050809150509295985092959850929598565b6000602082840312156135af57600080fd5b611d6c826132a7565b600080600080600080600080600060a08a8c0312156135d657600080fd5b8935985060208a01356001600160401b038082111561350a57600080fd5b6000806000806000806060878903121561360d57600080fd5b86356001600160401b038082111561362457600080fd5b6136308a838b01613194565b9098509650602089013591508082111561364957600080fd5b6136558a838b01613194565b9096509450604089013591508082111561366e57600080fd5b5061367b89828a01613194565b979a9699509497509295939492505050565b600080604083850312156136a057600080fd5b50508035926020909101359150565b6000815180845260005b818110156136d5576020818501810151868301820152016136b9565b506000602082860101526020601f19601f83011685010191505092915050565b60a08152600061370860a08301886136af565b828103602084015261371a81886136af565b9050828103604084015261372e81876136af565b9050828103606084015261374281866136af565b91505082151560808301529695505050505050565b60006020828403121561376957600080fd5b5035919050565b600081518084526020808501945080840160005b838110156133265781516001600160a01b031687529582019590820190600101613784565b602081526000611d6c6020830184613770565b600080604083850312156137cf57600080fd5b6137d8836132a7565b91506132ed60208401613344565b600080604083850312156137f957600080fd5b823591506132ed602084016132a7565b6001600160a01b03891681526101006020820181905260009061382e8382018b6136af565b90508281036040840152613842818a6136af565b9050828103606084015261385681896136af565b9050828103608084015261386a81886136af565b95151560a0840152505091151560c0830152151560e09091015295945050505050565b60006101208b83528060208401526138a78184018c6136af565b6001600160a01b038b1660408501528915156060850152838103608085015290506138d281896136af565b905082810360a08401526138e681886136af565b905082810360c08401526138fa81876132f6565b905082810360e084015261390e8186613770565b9150508215156101008301529a9950505050505050505050565b60c08152600061393b60c08301896136af565b828103602084015261394d81896136af565b6040840197909752505060608101939093529015156080830152151560a09091015292915050565b634e487b7160e01b600052604160045260246000fd5b600181811c9082168061399f57607f821691505b6020821081036139bf57634e487b7160e01b600052602260045260246000fd5b50919050565b601f8211156130da57600081815260208120601f850160051c810160208610156139ec5750805b601f850160051c820191505b81811015613a0b578281556001016139f8565b505050505050565b81516001600160401b03811115613a2c57613a2c613975565b613a4081613a3a845461398b565b846139c5565b602080601f831160018114613a755760008415613a5d5750858301515b600019600386901b1c1916600185901b178555613a0b565b600085815260208120601f198616915b82811015613aa457888601518255948401946001909101908401613a85565b5085821015613ac25787850151600019600388901b60f8161c191681555b5050505050600190811b01905550565b81835281816020850137506000828201602090810191909152601f909101601f19169091010190565b604081526000613b0f604083018688613ad2565b8281036020840152613b22818587613ad2565b979650505050505050565b60208082526014908201527313dddb995c881b9bdd081c9959da5cdd195c995960621b604082015260600190565b634e487b7160e01b600052603260045260246000fd5b60208082526014908201527315985d5b1d08191bd95cc81b9bdd08195e1a5cdd60621b604082015260600190565b6020808252600f908201526e2737ba103b30bab63a1037bbb732b960891b604082015260600190565b634e487b7160e01b600052601160045260246000fd5b600060018201613bf057613bf0613bc8565b5060010190565b606081526000613c0b606083018789613ad2565b8281036020840152613c1e818688613ad2565b91505082151560408301529695505050505050565b6020808252601b908201527f4e6f74206120636f6e74616374206f662074686973206f776e65720000000000604082015260600190565b6001600160401b03831115613c8157613c81613975565b613c9583613c8f835461398b565b836139c5565b6000601f841160018114613cc95760008515613cb15750838201355b600019600387901b1c1916600186901b178355613d23565b600083815260209020601f19861690835b82811015613cfa5786850135825560209485019460019092019101613cda565b5086821015613d175760001960f88860031b161c19848701351681555b505060018560011b0183555b5050505050565b838152604060208201526000613d44604083018486613ad2565b95945050505050565b602081526000613d61602083018486613ad2565b949350505050565b80820281158282048414176108a3576108a3613bc8565b600082613d9d57634e487b7160e01b600052601260045260246000fd5b500490565b808201808211156108a3576108a3613bc856fea264697066735822122076578b168c52ea7c4cbe35b3cf1f77402cffd856075798c83a6ce30ee63dc41f64736f6c63430008130033",
          "opcodes": "PUSH1 0x80 PUSH1 0x40 MSTORE PUSH1 0x0 PUSH1 0x5 SSTORE PUSH1 0x0 PUSH1 0x6 SSTORE CALLVALUE DUP1 ISZERO PUSH2 0x1A JUMPI PUSH1 0x0 DUP1 REVERT JUMPDEST POP PUSH2 0x3DEB DUP1 PUSH2 0x2A PUSH1 0x0 CODECOPY PUSH1 0x0 RETURN INVALID PUSH1 0x80 PUSH1 0x40 MSTORE CALLVALUE DUP1 ISZERO PUSH2 0x10 JUMPI PUSH1 0x0 DUP1 REVERT JUMPDEST POP PUSH1 0x4 CALLDATASIZE LT PUSH2 0x158 JUMPI PUSH1 0x0 CALLDATALOAD PUSH1 0xE0 SHR DUP1 PUSH4 0x52E20C4F GT PUSH2 0xC3 JUMPI DUP1 PUSH4 0x996E6CA1 GT PUSH2 0x7C JUMPI DUP1 PUSH4 0x996E6CA1 EQ PUSH2 0x33D JUMPI DUP1 PUSH4 0xABC22BBE EQ PUSH2 0x3C5 JUMPI DUP1 PUSH4 0xB1BA9620 EQ PUSH2 0x3D8 JUMPI DUP1 PUSH4 0xB2B2BAED EQ PUSH2 0x400 JUMPI DUP1 PUSH4 0xB385FAA8 EQ PUSH2 0x413 JUMPI DUP1 PUSH4 0xD385DE82 EQ PUSH2 0x426 JUMPI PUSH1 0x0 DUP1 REVERT JUMPDEST DUP1 PUSH4 0x52E20C4F EQ PUSH2 0x2B7 JUMPI DUP1 PUSH4 0x5AB4F162 EQ PUSH2 0x2CA JUMPI DUP1 PUSH4 0x60F490F7 EQ PUSH2 0x2DD JUMPI DUP1 PUSH4 0x6880F137 EQ PUSH2 0x304 JUMPI DUP1 PUSH4 0x7366252C EQ PUSH2 0x317 JUMPI DUP1 PUSH4 0x75843618 EQ PUSH2 0x32A JUMPI PUSH1 0x0 DUP1 REVERT JUMPDEST DUP1 PUSH4 0x33587DC4 GT PUSH2 0x115 JUMPI DUP1 PUSH4 0x33587DC4 EQ PUSH2 0x1F5 JUMPI DUP1 PUSH4 0x34F167A9 EQ PUSH2 0x208 JUMPI DUP1 PUSH4 0x3BFB14F5 EQ PUSH2 0x210 JUMPI DUP1 PUSH4 0x490F0EBA EQ PUSH2 0x234 JUMPI DUP1 PUSH4 0x4D4D2B1C EQ PUSH2 0x254 JUMPI DUP1 PUSH4 0x4E8E32B5 EQ PUSH2 0x2A4 JUMPI PUSH1 0x0 DUP1 REVERT JUMPDEST DUP1 PUSH4 0xACCC75D EQ PUSH2 0x15D JUMPI DUP1 PUSH4 0x1D2F4368 EQ PUSH2 0x172 JUMPI DUP1 PUSH4 0x1FE7FE7E EQ PUSH2 0x19B JUMPI DUP1 PUSH4 0x2C8BC50B EQ PUSH2 0x1AE JUMPI DUP1 PUSH4 0x2FDA53E7 EQ PUSH2 0x1C1 JUMPI DUP1 PUSH4 0x329A5AC0 EQ PUSH2 0x1D4 JUMPI JUMPDEST PUSH1 0x0 DUP1 REVERT JUMPDEST PUSH2 0x170 PUSH2 0x16B CALLDATASIZE PUSH1 0x4 PUSH2 0x31DC JUMP JUMPDEST PUSH2 0x44B JUMP JUMPDEST STOP JUMPDEST PUSH2 0x185 PUSH2 0x180 CALLDATASIZE PUSH1 0x4 PUSH2 0x32C3 JUMP JUMPDEST PUSH2 0x829 JUMP JUMPDEST PUSH1 0x40 MLOAD PUSH2 0x192 SWAP2 SWAP1 PUSH2 0x3331 JUMP JUMPDEST PUSH1 0x40 MLOAD DUP1 SWAP2 SUB SWAP1 RETURN JUMPDEST PUSH2 0x170 PUSH2 0x1A9 CALLDATASIZE PUSH1 0x4 PUSH2 0x3398 JUMP JUMPDEST PUSH2 0x8A9 JUMP JUMPDEST PUSH2 0x170 PUSH2 0x1BC CALLDATASIZE PUSH1 0x4 PUSH2 0x34C7 JUMP JUMPDEST PUSH2 0xF22 JUMP JUMPDEST PUSH2 0x185 PUSH2 0x1CF CALLDATASIZE PUSH1 0x4 PUSH2 0x359D JUMP JUMPDEST PUSH2 0xFE0 JUMP JUMPDEST PUSH2 0x1E7 PUSH2 0x1E2 CALLDATASIZE PUSH1 0x4 PUSH2 0x35B8 JUMP JUMPDEST PUSH2 0x104D JUMP JUMPDEST PUSH1 0x40 MLOAD SWAP1 DUP2 MSTORE PUSH1 0x20 ADD PUSH2 0x192 JUMP JUMPDEST PUSH2 0x1E7 PUSH2 0x203 CALLDATASIZE PUSH1 0x4 PUSH2 0x35F4 JUMP JUMPDEST PUSH2 0x1354 JUMP JUMPDEST PUSH2 0x170 PUSH2 0x1643 JUMP JUMPDEST PUSH2 0x223 PUSH2 0x21E CALLDATASIZE PUSH1 0x4 PUSH2 0x368D JUMP JUMPDEST PUSH2 0x179A JUMP JUMPDEST PUSH1 0x40 MLOAD PUSH2 0x192 SWAP6 SWAP5 SWAP4 SWAP3 SWAP2 SWAP1 PUSH2 0x36F5 JUMP JUMPDEST PUSH2 0x247 PUSH2 0x242 CALLDATASIZE PUSH1 0x4 PUSH2 0x3757 JUMP JUMPDEST PUSH2 0x1A22 JUMP JUMPDEST PUSH1 0x40 MLOAD PUSH2 0x192 SWAP2 SWAP1 PUSH2 0x37A9 JUMP JUMPDEST PUSH2 0x294 PUSH2 0x262 CALLDATASIZE PUSH1 0x4 PUSH2 0x32C3 JUMP JUMPDEST PUSH1 0x1 PUSH1 0x1 PUSH1 0xA0 SHL SUB SWAP2 DUP3 AND PUSH1 0x0 SWAP1 DUP2 MSTORE PUSH1 0x4 PUSH1 0x20 SWAP1 DUP2 MSTORE PUSH1 0x40 DUP1 DUP4 KECCAK256 SWAP4 SWAP1 SWAP5 AND DUP3 MSTORE PUSH1 0x6 SWAP1 SWAP3 ADD SWAP1 SWAP2 MSTORE KECCAK256 SLOAD PUSH1 0xFF AND SWAP1 JUMP JUMPDEST PUSH1 0x40 MLOAD SWAP1 ISZERO ISZERO DUP2 MSTORE PUSH1 0x20 ADD PUSH2 0x192 JUMP JUMPDEST PUSH2 0x170 PUSH2 0x2B2 CALLDATASIZE PUSH1 0x4 PUSH2 0x37BC JUMP JUMPDEST PUSH2 0x1A90 JUMP JUMPDEST PUSH2 0x294 PUSH2 0x2C5 CALLDATASIZE PUSH1 0x4 PUSH2 0x37E6 JUMP JUMPDEST PUSH2 0x1D60 JUMP JUMPDEST PUSH2 0x294 PUSH2 0x2D8 CALLDATASIZE PUSH1 0x4 PUSH2 0x32C3 JUMP JUMPDEST PUSH2 0x1D73 JUMP JUMPDEST PUSH2 0x2F0 PUSH2 0x2EB CALLDATASIZE PUSH1 0x4 PUSH2 0x32C3 JUMP JUMPDEST PUSH2 0x1E17 JUMP JUMPDEST PUSH1 0x40 MLOAD PUSH2 0x192 SWAP9 SWAP8 SWAP7 SWAP6 SWAP5 SWAP4 SWAP3 SWAP2 SWAP1 PUSH2 0x3809 JUMP JUMPDEST PUSH2 0x170 PUSH2 0x312 CALLDATASIZE PUSH1 0x4 PUSH2 0x359D JUMP JUMPDEST PUSH2 0x20D6 JUMP JUMPDEST PUSH2 0x170 PUSH2 0x325 CALLDATASIZE PUSH1 0x4 PUSH2 0x37E6 JUMP JUMPDEST PUSH2 0x21F2 JUMP JUMPDEST PUSH2 0x185 PUSH2 0x338 CALLDATASIZE PUSH1 0x4 PUSH2 0x3757 JUMP JUMPDEST PUSH2 0x23C1 JUMP JUMPDEST PUSH2 0x394 PUSH2 0x34B CALLDATASIZE PUSH1 0x4 PUSH2 0x359D JUMP JUMPDEST PUSH1 0x1 PUSH1 0x1 PUSH1 0xA0 SHL SUB AND PUSH1 0x0 SWAP1 DUP2 MSTORE PUSH1 0x4 PUSH1 0x20 DUP2 SWAP1 MSTORE PUSH1 0x40 SWAP1 SWAP2 KECCAK256 PUSH1 0x5 DUP2 ADD SLOAD PUSH1 0x1 DUP3 ADD SLOAD PUSH1 0x2 DUP4 ADD SLOAD PUSH1 0x3 DUP5 ADD SLOAD SWAP4 SWAP1 SWAP5 ADD SLOAD PUSH1 0xFF DUP1 DUP5 AND SWAP7 SWAP3 SWAP6 SWAP5 SWAP4 SWAP2 SWAP3 PUSH2 0x100 SWAP1 SWAP3 DIV AND SWAP1 JUMP JUMPDEST PUSH1 0x40 DUP1 MLOAD SWAP7 ISZERO ISZERO DUP8 MSTORE PUSH1 0x20 DUP8 ADD SWAP6 SWAP1 SWAP6 MSTORE SWAP4 DUP6 ADD SWAP3 SWAP1 SWAP3 MSTORE PUSH1 0x60 DUP5 ADD MSTORE PUSH1 0x80 DUP4 ADD MSTORE ISZERO ISZERO PUSH1 0xA0 DUP3 ADD MSTORE PUSH1 0xC0 ADD PUSH2 0x192 JUMP JUMPDEST PUSH2 0x170 PUSH2 0x3D3 CALLDATASIZE PUSH1 0x4 PUSH2 0x359D JUMP JUMPDEST PUSH2 0x2424 JUMP JUMPDEST PUSH2 0x3EB PUSH2 0x3E6 CALLDATASIZE PUSH1 0x4 PUSH2 0x3757 JUMP JUMPDEST PUSH2 0x2894 JUMP JUMPDEST PUSH1 0x40 MLOAD PUSH2 0x192 SWAP10 SWAP9 SWAP8 SWAP7 SWAP6 SWAP5 SWAP4 SWAP3 SWAP2 SWAP1 PUSH2 0x388D JUMP JUMPDEST PUSH2 0x170 PUSH2 0x40E CALLDATASIZE PUSH1 0x4 PUSH2 0x3757 JUMP JUMPDEST PUSH2 0x2B68 JUMP JUMPDEST PUSH2 0x247 PUSH2 0x421 CALLDATASIZE PUSH1 0x4 PUSH2 0x359D JUMP JUMPDEST PUSH2 0x2D35 JUMP JUMPDEST PUSH2 0x439 PUSH2 0x434 CALLDATASIZE PUSH1 0x4 PUSH2 0x359D JUMP JUMPDEST PUSH2 0x2DAA JUMP JUMPDEST PUSH1 0x40 MLOAD PUSH2 0x192 SWAP7 SWAP6 SWAP5 SWAP4 SWAP3 SWAP2 SWAP1 PUSH2 0x3928 JUMP JUMPDEST CALLER PUSH1 0x0 SWAP1 DUP2 MSTORE PUSH1 0x20 DUP2 SWAP1 MSTORE PUSH1 0x40 SWAP1 KECCAK256 PUSH1 0x7 ADD SLOAD PUSH2 0x100 SWAP1 DIV PUSH1 0xFF AND ISZERO PUSH2 0x4B8 JUMPI PUSH1 0x40 MLOAD PUSH3 0x461BCD PUSH1 0xE5 SHL DUP2 MSTORE PUSH1 0x20 PUSH1 0x4 DUP3 ADD MSTORE PUSH1 0x18 PUSH1 0x24 DUP3 ADD MSTORE PUSH32 0x4F776E657220616C726561647920726567697374657265640000000000000000 PUSH1 0x44 DUP3 ADD MSTORE PUSH1 0x64 ADD JUMPDEST PUSH1 0x40 MLOAD DUP1 SWAP2 SUB SWAP1 REVERT JUMPDEST PUSH3 0x15180 DUP2 LT ISZERO PUSH2 0x50B JUMPI PUSH1 0x40 MLOAD PUSH3 0x461BCD PUSH1 0xE5 SHL DUP2 MSTORE PUSH1 0x20 PUSH1 0x4 DUP3 ADD MSTORE PUSH1 0x18 PUSH1 0x24 DUP3 ADD MSTORE PUSH32 0x477261636520696E74657276616C20746F6F2073686F72740000000000000000 PUSH1 0x44 DUP3 ADD MSTORE PUSH1 0x64 ADD PUSH2 0x4AF JUMP JUMPDEST PUSH4 0x1E13380 DUP2 GT ISZERO PUSH2 0x55F JUMPI PUSH1 0x40 MLOAD PUSH3 0x461BCD PUSH1 0xE5 SHL DUP2 MSTORE PUSH1 0x20 PUSH1 0x4 DUP3 ADD MSTORE PUSH1 0x17 PUSH1 0x24 DUP3 ADD MSTORE PUSH32 0x477261636520696E74657276616C20746F6F206C6F6E67000000000000000000 PUSH1 0x44 DUP3 ADD MSTORE PUSH1 0x64 ADD PUSH2 0x4AF JUMP JUMPDEST PUSH1 0x40 MLOAD DUP1 PUSH2 0x160 ADD PUSH1 0x40 MSTORE DUP1 CALLER PUSH1 0x1 PUSH1 0x1 PUSH1 0xA0 SHL SUB AND DUP2 MSTORE PUSH1 0x20 ADD DUP11 DUP11 DUP1 DUP1 PUSH1 0x1F ADD PUSH1 0x20 DUP1 SWAP2 DIV MUL PUSH1 0x20 ADD PUSH1 0x40 MLOAD SWAP1 DUP2 ADD PUSH1 0x40 MSTORE DUP1 SWAP4 SWAP3 SWAP2 SWAP1 DUP2 DUP2 MSTORE PUSH1 0x20 ADD DUP4 DUP4 DUP1 DUP3 DUP5 CALLDATACOPY PUSH1 0x0 SWAP3 ADD SWAP2 SWAP1 SWAP2 MSTORE POP POP POP SWAP1 DUP3 MSTORE POP PUSH1 0x40 DUP1 MLOAD PUSH1 0x20 PUSH1 0x1F DUP12 ADD DUP2 SWAP1 DIV DUP2 MUL DUP3 ADD DUP2 ADD SWAP1 SWAP3 MSTORE DUP10 DUP2 MSTORE SWAP2 DUP2 ADD SWAP2 SWAP1 DUP11 SWAP1 DUP11 SWAP1 DUP2 SWAP1 DUP5 ADD DUP4 DUP3 DUP1 DUP3 DUP5 CALLDATACOPY PUSH1 0x0 SWAP3 ADD SWAP2 SWAP1 SWAP2 MSTORE POP POP POP SWAP1 DUP3 MSTORE POP PUSH1 0x40 DUP1 MLOAD PUSH1 0x20 PUSH1 0x1F DUP10 ADD DUP2 SWAP1 DIV DUP2 MUL DUP3 ADD DUP2 ADD SWAP1 SWAP3 MSTORE DUP8 DUP2 MSTORE SWAP2 DUP2 ADD SWAP2 SWAP1 DUP9 SWAP1 DUP9 SWAP1 DUP2 SWAP1 DUP5 ADD DUP4 DUP3 DUP1 DUP3 DUP5 CALLDATACOPY PUSH1 0x0 SWAP3 ADD SWAP2 SWAP1 SWAP2 MSTORE POP POP POP SWAP1 DUP3 MSTORE POP PUSH1 0x40 DUP1 MLOAD PUSH1 0x20 PUSH1 0x1F DUP8 ADD DUP2 SWAP1 DIV DUP2 MUL DUP3 ADD DUP2 ADD SWAP1 SWAP3 MSTORE DUP6 DUP2 MSTORE SWAP2 DUP2 ADD SWAP2 SWAP1 DUP7 SWAP1 DUP7 SWAP1 DUP2 SWAP1 DUP5 ADD DUP4 DUP3 DUP1 DUP3 DUP5 CALLDATACOPY PUSH1 0x0 SWAP3 ADD DUP3 SWAP1 MSTORE POP SWAP4 DUP6 MSTORE POP POP TIMESTAMP PUSH1 0x20 DUP5 ADD MSTORE POP PUSH1 0x40 DUP3 ADD DUP5 SWAP1 MSTORE PUSH1 0x60 DUP3 ADD DUP2 SWAP1 MSTORE PUSH1 0x1 PUSH1 0x80 DUP4 ADD MSTORE PUSH1 0xA0 SWAP1 SWAP2 ADD SWAP1 PUSH1 0x40 MLOAD SWAP1 DUP1 DUP3 MSTORE DUP1 PUSH1 0x20 MUL PUSH1 0x20 ADD DUP3 ADD PUSH1 0x40 MSTORE DUP1 ISZERO PUSH2 0x6AD JUMPI DUP2 PUSH1 0x20 ADD PUSH1 0x20 DUP3 MUL DUP1 CALLDATASIZE DUP4 CALLDATACOPY ADD SWAP1 POP JUMPDEST POP DUP2 MSTORE PUSH1 0x20 ADD PUSH1 0x0 PUSH1 0x40 MLOAD SWAP1 DUP1 DUP3 MSTORE DUP1 PUSH1 0x20 MUL PUSH1 0x20 ADD DUP3 ADD PUSH1 0x40 MSTORE DUP1 ISZERO PUSH2 0x6DE JUMPI DUP2 PUSH1 0x20 ADD PUSH1 0x20 DUP3 MUL DUP1 CALLDATASIZE DUP4 CALLDATACOPY ADD SWAP1 POP JUMPDEST POP SWAP1 MSTORE CALLER PUSH1 0x0 SWAP1 DUP2 MSTORE PUSH1 0x20 DUP2 DUP2 MSTORE PUSH1 0x40 SWAP1 SWAP2 KECCAK256 DUP3 MLOAD DUP2 SLOAD PUSH1 0x1 PUSH1 0x1 PUSH1 0xA0 SHL SUB NOT AND PUSH1 0x1 PUSH1 0x1 PUSH1 0xA0 SHL SUB SWAP1 SWAP2 AND OR DUP2 SSTORE SWAP1 DUP3 ADD MLOAD PUSH1 0x1 DUP3 ADD SWAP1 PUSH2 0x720 SWAP1 DUP3 PUSH2 0x3A13 JUMP JUMPDEST POP PUSH1 0x40 DUP3 ADD MLOAD PUSH1 0x2 DUP3 ADD SWAP1 PUSH2 0x735 SWAP1 DUP3 PUSH2 0x3A13 JUMP JUMPDEST POP PUSH1 0x60 DUP3 ADD MLOAD PUSH1 0x3 DUP3 ADD SWAP1 PUSH2 0x74A SWAP1 DUP3 PUSH2 0x3A13 JUMP JUMPDEST POP PUSH1 0x80 DUP3 ADD MLOAD PUSH1 0x4 DUP3 ADD SWAP1 PUSH2 0x75F SWAP1 DUP3 PUSH2 0x3A13 JUMP JUMPDEST POP PUSH1 0xA0 DUP3 ADD MLOAD PUSH1 0x5 DUP3 ADD SSTORE PUSH1 0xC0 DUP3 ADD MLOAD PUSH1 0x6 DUP3 ADD SSTORE PUSH1 0xE0 DUP3 ADD MLOAD PUSH1 0x7 DUP3 ADD DUP1 SLOAD PUSH2 0x100 DUP1 DUP7 ADD MLOAD ISZERO ISZERO MUL PUSH2 0xFF00 NOT SWAP4 ISZERO ISZERO SWAP4 SWAP1 SWAP4 AND PUSH2 0xFFFF NOT SWAP1 SWAP2 AND OR SWAP2 SWAP1 SWAP2 OR SWAP1 SSTORE PUSH2 0x120 DUP3 ADD MLOAD DUP1 MLOAD PUSH2 0x7BE SWAP2 PUSH1 0x8 DUP5 ADD SWAP2 PUSH1 0x20 SWAP1 SWAP2 ADD SWAP1 PUSH2 0x30DF JUMP JUMPDEST POP PUSH2 0x140 DUP3 ADD MLOAD DUP1 MLOAD PUSH2 0x7DB SWAP2 PUSH1 0x9 DUP5 ADD SWAP2 PUSH1 0x20 SWAP1 SWAP2 ADD SWAP1 PUSH2 0x3144 JUMP JUMPDEST POP POP PUSH1 0x40 MLOAD CALLER SWAP2 POP PUSH32 0x90FDCD9183750BDFB11BE5D6379C04E744E8F650AAC530EA853C19226EA7EB2B SWAP1 PUSH2 0x816 SWAP1 DUP13 SWAP1 DUP13 SWAP1 DUP13 SWAP1 DUP13 SWAP1 PUSH2 0x3AFB JUMP JUMPDEST PUSH1 0x40 MLOAD DUP1 SWAP2 SUB SWAP1 LOG2 POP POP POP POP POP POP POP POP POP JUMP JUMPDEST PUSH1 0x1 PUSH1 0x1 PUSH1 0xA0 SHL SUB DUP1 DUP4 AND PUSH1 0x0 SWAP1 DUP2 MSTORE PUSH1 0x1 PUSH1 0x20 SWAP1 DUP2 MSTORE PUSH1 0x40 DUP1 DUP4 KECCAK256 SWAP4 DUP6 AND DUP4 MSTORE SWAP3 DUP2 MSTORE SWAP1 DUP3 SWAP1 KECCAK256 PUSH1 0x6 DUP2 ADD DUP1 SLOAD DUP5 MLOAD DUP2 DUP6 MUL DUP2 ADD DUP6 ADD SWAP1 SWAP6 MSTORE DUP1 DUP6 MSTORE PUSH1 0x60 SWAP5 SWAP3 SWAP4 DUP4 ADD DUP3 DUP3 DUP1 ISZERO PUSH2 0x89A JUMPI PUSH1 0x20 MUL DUP3 ADD SWAP2 SWAP1 PUSH1 0x0 MSTORE PUSH1 0x20 PUSH1 0x0 KECCAK256 SWAP1 JUMPDEST DUP2 SLOAD DUP2 MSTORE PUSH1 0x20 ADD SWAP1 PUSH1 0x1 ADD SWAP1 DUP1 DUP4 GT PUSH2 0x886 JUMPI JUMPDEST POP POP POP POP POP SWAP2 POP POP JUMPDEST SWAP3 SWAP2 POP POP JUMP JUMPDEST CALLER PUSH1 0x0 SWAP1 DUP2 MSTORE PUSH1 0x20 DUP2 SWAP1 MSTORE PUSH1 0x40 SWAP1 KECCAK256 PUSH1 0x7 ADD SLOAD PUSH2 0x100 SWAP1 DIV PUSH1 0xFF AND PUSH2 0x8E0 JUMPI PUSH1 0x40 MLOAD PUSH3 0x461BCD PUSH1 0xE5 SHL DUP2 MSTORE PUSH1 0x4 ADD PUSH2 0x4AF SWAP1 PUSH2 0x3B2D JUMP JUMPDEST CALLER PUSH1 0x1 PUSH1 0x1 PUSH1 0xA0 SHL SUB DUP14 AND SUB PUSH2 0x938 JUMPI PUSH1 0x40 MLOAD PUSH3 0x461BCD PUSH1 0xE5 SHL DUP2 MSTORE PUSH1 0x20 PUSH1 0x4 DUP3 ADD MSTORE PUSH1 0x1E PUSH1 0x24 DUP3 ADD MSTORE PUSH32 0x43616E6E6F742061646420796F757273656C6620617320636F6E746163740000 PUSH1 0x44 DUP3 ADD MSTORE PUSH1 0x64 ADD PUSH2 0x4AF JUMP JUMPDEST PUSH1 0x1 PUSH1 0x0 CALLER PUSH1 0x1 PUSH1 0x1 PUSH1 0xA0 SHL SUB AND PUSH1 0x1 PUSH1 0x1 PUSH1 0xA0 SHL SUB AND DUP2 MSTORE PUSH1 0x20 ADD SWAP1 DUP2 MSTORE PUSH1 0x20 ADD PUSH1 0x0 KECCAK256 PUSH1 0x0 DUP14 PUSH1 0x1 PUSH1 0x1 PUSH1 0xA0 SHL SUB AND PUSH1 0x1 PUSH1 0x1 PUSH1 0xA0 SHL SUB AND DUP2 MSTORE PUSH1 0x20 ADD SWAP1 DUP2 MSTORE PUSH1 0x20 ADD PUSH1 0x0 KECCAK256 PUSH1 0x5 ADD PUSH1 0x2 SWAP1 SLOAD SWAP1 PUSH2 0x100 EXP SWAP1 DIV PUSH1 0xFF AND ISZERO PUSH2 0x9D7 JUMPI PUSH1 0x40 MLOAD PUSH3 0x461BCD PUSH1 0xE5 SHL DUP2 MSTORE PUSH1 0x20 PUSH1 0x4 DUP3 ADD MSTORE PUSH1 0x16 PUSH1 0x24 DUP3 ADD MSTORE PUSH22 0x436F6E7461637420616C726561647920657869737473 PUSH1 0x50 SHL PUSH1 0x44 DUP3 ADD MSTORE PUSH1 0x64 ADD PUSH2 0x4AF JUMP JUMPDEST PUSH1 0x40 MLOAD DUP1 PUSH2 0x120 ADD PUSH1 0x40 MSTORE DUP1 DUP14 PUSH1 0x1 PUSH1 0x1 PUSH1 0xA0 SHL SUB AND DUP2 MSTORE PUSH1 0x20 ADD DUP13 DUP13 DUP1 DUP1 PUSH1 0x1F ADD PUSH1 0x20 DUP1 SWAP2 DIV MUL PUSH1 0x20 ADD PUSH1 0x40 MLOAD SWAP1 DUP2 ADD PUSH1 0x40 MSTORE DUP1 SWAP4 SWAP3 SWAP2 SWAP1 DUP2 DUP2 MSTORE PUSH1 0x20 ADD DUP4 DUP4 DUP1 DUP3 DUP5 CALLDATACOPY PUSH1 0x0 SWAP3 ADD SWAP2 SWAP1 SWAP2 MSTORE POP POP POP SWAP1 DUP3 MSTORE POP PUSH1 0x40 DUP1 MLOAD PUSH1 0x20 PUSH1 0x1F DUP14 ADD DUP2 SWAP1 DIV DUP2 MUL DUP3 ADD DUP2 ADD SWAP1 SWAP3 MSTORE DUP12 DUP2 MSTORE SWAP2 DUP2 ADD SWAP2 SWAP1 DUP13 SWAP1 DUP13 SWAP1 DUP2 SWAP1 DUP5 ADD DUP4 DUP3 DUP1 DUP3 DUP5 CALLDATACOPY PUSH1 0x0 SWAP3 ADD SWAP2 SWAP1 SWAP2 MSTORE POP POP POP SWAP1 DUP3 MSTORE POP PUSH1 0x40 DUP1 MLOAD PUSH1 0x20 PUSH1 0x1F DUP12 ADD DUP2 SWAP1 DIV DUP2 MUL DUP3 ADD DUP2 ADD SWAP1 SWAP3 MSTORE DUP10 DUP2 MSTORE SWAP2 DUP2 ADD SWAP2 SWAP1 DUP11 SWAP1 DUP11 SWAP1 DUP2 SWAP1 DUP5 ADD DUP4 DUP3 DUP1 DUP3 DUP5 CALLDATACOPY PUSH1 0x0 SWAP3 ADD SWAP2 SWAP1 SWAP2 MSTORE POP POP POP SWAP1 DUP3 MSTORE POP PUSH1 0x40 DUP1 MLOAD PUSH1 0x20 PUSH1 0x1F DUP10 ADD DUP2 SWAP1 DIV DUP2 MUL DUP3 ADD DUP2 ADD SWAP1 SWAP3 MSTORE DUP8 DUP2 MSTORE SWAP2 DUP2 ADD SWAP2 SWAP1 DUP9 SWAP1 DUP9 SWAP1 DUP2 SWAP1 DUP5 ADD DUP4 DUP3 DUP1 DUP3 DUP5 CALLDATACOPY PUSH1 0x0 SWAP3 ADD DUP3 SWAP1 MSTORE POP SWAP4 DUP6 MSTORE POP POP POP DUP6 ISZERO ISZERO PUSH1 0x20 DUP1 DUP5 ADD SWAP2 SWAP1 SWAP2 MSTORE PUSH1 0x40 DUP1 DUP5 ADD DUP4 SWAP1 MSTORE PUSH1 0x1 PUSH1 0x60 DUP6 ADD MSTORE DUP1 MLOAD DUP4 DUP2 MSTORE SWAP2 DUP3 ADD SWAP1 MSTORE PUSH1 0x80 SWAP1 SWAP3 ADD SWAP2 SWAP1 POP DUP2 MSTORE POP PUSH1 0x1 PUSH1 0x0 CALLER PUSH1 0x1 PUSH1 0x1 PUSH1 0xA0 SHL SUB AND PUSH1 0x1 PUSH1 0x1 PUSH1 0xA0 SHL SUB AND DUP2 MSTORE PUSH1 0x20 ADD SWAP1 DUP2 MSTORE PUSH1 0x20 ADD PUSH1 0x0 KECCAK256 PUSH1 0x0 DUP15 PUSH1 0x1 PUSH1 0x1 PUSH1 0xA0 SHL SUB AND PUSH1 0x1 PUSH1 0x1 PUSH1 0xA0 SHL SUB AND DUP2 MSTORE PUSH1 0x20 ADD SWAP1 DUP2 MSTORE PUSH1 0x20 ADD PUSH1 0x0 KECCAK256 PUSH1 0x0 DUP3 ADD MLOAD DUP2 PUSH1 0x0 ADD PUSH1 0x0 PUSH2 0x100 EXP DUP2 SLOAD DUP2 PUSH1 0x1 PUSH1 0x1 PUSH1 0xA0 SHL SUB MUL NOT AND SWAP1 DUP4 PUSH1 0x1 PUSH1 0x1 PUSH1 0xA0 SHL SUB AND MUL OR SWAP1 SSTORE POP PUSH1 0x20 DUP3 ADD MLOAD DUP2 PUSH1 0x1 ADD SWAP1 DUP2 PUSH2 0xB95 SWAP2 SWAP1 PUSH2 0x3A13 JUMP JUMPDEST POP PUSH1 0x40 DUP3 ADD MLOAD PUSH1 0x2 DUP3 ADD SWAP1 PUSH2 0xBAA SWAP1 DUP3 PUSH2 0x3A13 JUMP JUMPDEST POP PUSH1 0x60 DUP3 ADD MLOAD PUSH1 0x3 DUP3 ADD SWAP1 PUSH2 0xBBF SWAP1 DUP3 PUSH2 0x3A13 JUMP JUMPDEST POP PUSH1 0x80 DUP3 ADD MLOAD PUSH1 0x4 DUP3 ADD SWAP1 PUSH2 0xBD4 SWAP1 DUP3 PUSH2 0x3A13 JUMP JUMPDEST POP PUSH1 0xA0 DUP3 ADD MLOAD PUSH1 0x5 DUP3 ADD DUP1 SLOAD PUSH1 0xC0 DUP6 ADD MLOAD PUSH1 0xE0 DUP7 ADD MLOAD PUSH2 0xFFFF NOT SWAP1 SWAP3 AND SWAP4 ISZERO ISZERO PUSH2 0xFF00 NOT AND SWAP4 SWAP1 SWAP4 OR PUSH2 0x100 SWAP4 ISZERO ISZERO DUP5 MUL OR PUSH3 0xFF0000 NOT AND PUSH3 0x10000 SWAP2 ISZERO ISZERO SWAP2 SWAP1 SWAP2 MUL OR SWAP1 SSTORE DUP3 ADD MLOAD DUP1 MLOAD PUSH2 0xC33 SWAP2 PUSH1 0x6 DUP5 ADD SWAP2 PUSH1 0x20 SWAP1 SWAP2 ADD SWAP1 PUSH2 0x3144 JUMP JUMPDEST POP SWAP1 POP POP PUSH1 0x0 DUP1 CALLER PUSH1 0x1 PUSH1 0x1 PUSH1 0xA0 SHL SUB AND PUSH1 0x1 PUSH1 0x1 PUSH1 0xA0 SHL SUB AND DUP2 MSTORE PUSH1 0x20 ADD SWAP1 DUP2 MSTORE PUSH1 0x20 ADD PUSH1 0x0 KECCAK256 PUSH1 0x8 ADD DUP13 SWAP1 DUP1 PUSH1 0x1 DUP2 SLOAD ADD DUP1 DUP3 SSTORE DUP1 SWAP2 POP POP PUSH1 0x1 SWAP1 SUB SWAP1 PUSH1 0x0 MSTORE PUSH1 0x20 PUSH1 0x0 KECCAK256 ADD PUSH1 0x0 SWAP1 SWAP2 SWAP1 SWAP2 SWAP1 SWAP2 PUSH2 0x100 EXP DUP2 SLOAD DUP2 PUSH1 0x1 PUSH1 0x1 PUSH1 0xA0 SHL SUB MUL NOT AND SWAP1 DUP4 PUSH1 0x1 PUSH1 0x1 PUSH1 0xA0 SHL SUB AND MUL OR SWAP1 SSTORE POP PUSH1 0x0 JUMPDEST DUP2 DUP2 LT ISZERO PUSH2 0xEC0 JUMPI PUSH1 0x0 DUP4 DUP4 DUP4 DUP2 DUP2 LT PUSH2 0xCC4 JUMPI PUSH2 0xCC4 PUSH2 0x3B5B JUMP JUMPDEST PUSH1 0x20 SWAP1 DUP2 MUL SWAP3 SWAP1 SWAP3 ADD CALLDATALOAD PUSH1 0x0 DUP2 DUP2 MSTORE PUSH1 0x2 SWAP1 SWAP4 MSTORE PUSH1 0x40 SWAP1 SWAP3 KECCAK256 PUSH1 0x5 ADD SLOAD SWAP2 SWAP3 POP POP PUSH1 0xFF AND PUSH2 0xD04 JUMPI PUSH1 0x40 MLOAD PUSH3 0x461BCD PUSH1 0xE5 SHL DUP2 MSTORE PUSH1 0x4 ADD PUSH2 0x4AF SWAP1 PUSH2 0x3B71 JUMP JUMPDEST PUSH1 0x0 DUP2 DUP2 MSTORE PUSH1 0x2 PUSH1 0x20 DUP2 SWAP1 MSTORE PUSH1 0x40 SWAP1 SWAP2 KECCAK256 ADD SLOAD PUSH1 0x1 PUSH1 0x1 PUSH1 0xA0 SHL SUB AND CALLER EQ PUSH2 0xD3E JUMPI PUSH1 0x40 MLOAD PUSH3 0x461BCD PUSH1 0xE5 SHL DUP2 MSTORE PUSH1 0x4 ADD PUSH2 0x4AF SWAP1 PUSH2 0x3B9F JUMP JUMPDEST PUSH2 0xD48 DUP2 DUP16 PUSH2 0x2F28 JUMP JUMPDEST ISZERO PUSH2 0xDA7 JUMPI PUSH1 0x40 MLOAD PUSH3 0x461BCD PUSH1 0xE5 SHL DUP2 MSTORE PUSH1 0x20 PUSH1 0x4 DUP3 ADD MSTORE PUSH1 0x29 PUSH1 0x24 DUP3 ADD MSTORE PUSH32 0x436F6E7461637420616C726561647920617574686F72697A656420666F722074 PUSH1 0x44 DUP3 ADD MSTORE PUSH9 0x1A1A5CC81D985D5B1D PUSH1 0xBA SHL PUSH1 0x64 DUP3 ADD MSTORE PUSH1 0x84 ADD PUSH2 0x4AF JUMP JUMPDEST PUSH1 0x2 PUSH1 0x0 DUP3 DUP2 MSTORE PUSH1 0x20 ADD SWAP1 DUP2 MSTORE PUSH1 0x20 ADD PUSH1 0x0 KECCAK256 PUSH1 0x6 ADD DUP15 SWAP1 DUP1 PUSH1 0x1 DUP2 SLOAD ADD DUP1 DUP3 SSTORE DUP1 SWAP2 POP POP PUSH1 0x1 SWAP1 SUB SWAP1 PUSH1 0x0 MSTORE PUSH1 0x20 PUSH1 0x0 KECCAK256 ADD PUSH1 0x0 SWAP1 SWAP2 SWAP1 SWAP2 SWAP1 SWAP2 PUSH2 0x100 EXP DUP2 SLOAD DUP2 PUSH1 0x1 PUSH1 0x1 PUSH1 0xA0 SHL SUB MUL NOT AND SWAP1 DUP4 PUSH1 0x1 PUSH1 0x1 PUSH1 0xA0 SHL SUB AND MUL OR SWAP1 SSTORE POP PUSH1 0x1 PUSH1 0x0 CALLER PUSH1 0x1 PUSH1 0x1 PUSH1 0xA0 SHL SUB AND PUSH1 0x1 PUSH1 0x1 PUSH1 0xA0 SHL SUB AND DUP2 MSTORE PUSH1 0x20 ADD SWAP1 DUP2 MSTORE PUSH1 0x20 ADD PUSH1 0x0 KECCAK256 PUSH1 0x0 DUP16 PUSH1 0x1 PUSH1 0x1 PUSH1 0xA0 SHL SUB AND PUSH1 0x1 PUSH1 0x1 PUSH1 0xA0 SHL SUB AND DUP2 MSTORE PUSH1 0x20 ADD SWAP1 DUP2 MSTORE PUSH1 0x20 ADD PUSH1 0x0 KECCAK256 PUSH1 0x6 ADD DUP2 SWAP1 DUP1 PUSH1 0x1 DUP2 SLOAD ADD DUP1 DUP3 SSTORE DUP1 SWAP2 POP POP PUSH1 0x1 SWAP1 SUB SWAP1 PUSH1 0x0 MSTORE PUSH1 0x20 PUSH1 0x0 KECCAK256 ADD PUSH1 0x0 SWAP1 SWAP2 SWAP1 SWAP2 SWAP1 SWAP2 POP SSTORE DUP14 PUSH1 0x1 PUSH1 0x1 PUSH1 0xA0 SHL SUB AND DUP2 PUSH32 0x72024BC1A3BEFF7DF2FE575C8097C660EE4A4E15F263E037ED38560728681F1 PUSH1 0x40 MLOAD PUSH1 0x40 MLOAD DUP1 SWAP2 SUB SWAP1 LOG3 POP DUP1 PUSH2 0xEB8 DUP2 PUSH2 0x3BDE JUMP JUMPDEST SWAP2 POP POP PUSH2 0xCA8 JUMP JUMPDEST POP DUP12 PUSH1 0x1 PUSH1 0x1 PUSH1 0xA0 SHL SUB AND CALLER PUSH1 0x1 PUSH1 0x1 PUSH1 0xA0 SHL SUB AND PUSH32 0xD39B94C4E0A6DC7134A60E93B1E6D3076988E71A9558AFB69B3ECB6488DB04DD DUP14 DUP14 DUP14 DUP14 DUP10 PUSH1 0x40 MLOAD PUSH2 0xF0C SWAP6 SWAP5 SWAP4 SWAP3 SWAP2 SWAP1 PUSH2 0x3BF7 JUMP JUMPDEST PUSH1 0x40 MLOAD DUP1 SWAP2 SUB SWAP1 LOG3 POP POP POP POP POP POP POP POP POP POP POP POP JUMP JUMPDEST PUSH1 0x1 PUSH1 0x1 PUSH1 0xA0 SHL SUB DUP10 AND PUSH1 0x0 SWAP1 DUP2 MSTORE PUSH1 0x1 PUSH1 0x20 SWAP1 DUP2 MSTORE PUSH1 0x40 DUP1 DUP4 KECCAK256 CALLER DUP5 MSTORE SWAP1 SWAP2 MSTORE SWAP1 KECCAK256 PUSH1 0x5 ADD SLOAD DUP10 SWAP1 PUSH3 0x10000 SWAP1 DIV PUSH1 0xFF AND PUSH2 0xF70 JUMPI PUSH1 0x40 MLOAD PUSH3 0x461BCD PUSH1 0xE5 SHL DUP2 MSTORE PUSH1 0x4 ADD PUSH2 0x4AF SWAP1 PUSH2 0x3C33 JUMP JUMPDEST PUSH1 0x1 PUSH1 0x1 PUSH1 0xA0 SHL SUB DUP11 AND PUSH1 0x0 SWAP1 DUP2 MSTORE PUSH1 0x1 PUSH1 0x20 DUP2 DUP2 MSTORE PUSH1 0x40 DUP1 DUP5 KECCAK256 CALLER DUP6 MSTORE SWAP1 SWAP2 MSTORE SWAP1 SWAP2 KECCAK256 SWAP1 DUP2 ADD PUSH2 0xFA2 DUP11 DUP13 DUP4 PUSH2 0x3C6A JUMP JUMPDEST POP PUSH1 0x2 DUP2 ADD PUSH2 0xFB2 DUP9 DUP11 DUP4 PUSH2 0x3C6A JUMP JUMPDEST POP PUSH1 0x3 DUP2 ADD PUSH2 0xFC2 DUP7 DUP9 DUP4 PUSH2 0x3C6A JUMP JUMPDEST POP PUSH1 0x4 DUP2 ADD PUSH2 0xFD2 DUP5 DUP7 DUP4 PUSH2 0x3C6A JUMP JUMPDEST POP POP POP POP POP POP POP POP POP POP POP POP JUMP JUMPDEST PUSH1 0x1 PUSH1 0x1 PUSH1 0xA0 SHL SUB DUP2 AND PUSH1 0x0 SWAP1 DUP2 MSTORE PUSH1 0x20 DUP2 DUP2 MSTORE PUSH1 0x40 SWAP2 DUP3 SWAP1 KECCAK256 PUSH1 0x9 ADD DUP1 SLOAD DUP4 MLOAD DUP2 DUP5 MUL DUP2 ADD DUP5 ADD SWAP1 SWAP5 MSTORE DUP1 DUP5 MSTORE PUSH1 0x60 SWAP4 SWAP3 DUP4 ADD DUP3 DUP3 DUP1 ISZERO PUSH2 0x1041 JUMPI PUSH1 0x20 MUL DUP3 ADD SWAP2 SWAP1 PUSH1 0x0 MSTORE PUSH1 0x20 PUSH1 0x0 KECCAK256 SWAP1 JUMPDEST DUP2 SLOAD DUP2 MSTORE PUSH1 0x20 ADD SWAP1 PUSH1 0x1 ADD SWAP1 DUP1 DUP4 GT PUSH2 0x102D JUMPI JUMPDEST POP POP POP POP POP SWAP1 POP SWAP2 SWAP1 POP JUMP JUMPDEST PUSH1 0x0 DUP10 DUP2 MSTORE PUSH1 0x2 PUSH1 0x20 MSTORE PUSH1 0x40 DUP2 KECCAK256 PUSH1 0x5 ADD SLOAD DUP11 SWAP1 PUSH1 0xFF AND PUSH2 0x1080 JUMPI PUSH1 0x40 MLOAD PUSH3 0x461BCD PUSH1 0xE5 SHL DUP2 MSTORE PUSH1 0x4 ADD PUSH2 0x4AF SWAP1 PUSH2 0x3B71 JUMP JUMPDEST PUSH1 0x0 DUP2 DUP2 MSTORE PUSH1 0x2 PUSH1 0x20 DUP2 SWAP1 MSTORE PUSH1 0x40 SWAP1 SWAP2 KECCAK256 ADD SLOAD PUSH1 0x1 PUSH1 0x1 PUSH1 0xA0 SHL SUB AND CALLER EQ PUSH2 0x10BA JUMPI PUSH1 0x40 MLOAD PUSH3 0x461BCD PUSH1 0xE5 SHL DUP2 MSTORE PUSH1 0x4 ADD PUSH2 0x4AF SWAP1 PUSH2 0x3B9F JUMP JUMPDEST PUSH1 0x6 SLOAD PUSH1 0x0 DUP13 DUP2 MSTORE PUSH1 0x3 PUSH1 0x20 SWAP1 DUP2 MSTORE PUSH1 0x40 DUP1 DUP4 KECCAK256 DUP5 DUP5 MSTORE SWAP1 SWAP2 MSTORE SWAP1 KECCAK256 PUSH1 0x5 ADD SLOAD PUSH1 0xFF AND ISZERO PUSH2 0x1120 JUMPI PUSH1 0x40 MLOAD PUSH3 0x461BCD PUSH1 0xE5 SHL DUP2 MSTORE PUSH1 0x20 PUSH1 0x4 DUP3 ADD MSTORE PUSH1 0x13 PUSH1 0x24 DUP3 ADD MSTORE PUSH19 0x46696C6520616C726561647920657869737473 PUSH1 0x68 SHL PUSH1 0x44 DUP3 ADD MSTORE PUSH1 0x64 ADD PUSH2 0x4AF JUMP JUMPDEST PUSH1 0x40 MLOAD DUP1 PUSH1 0xC0 ADD PUSH1 0x40 MSTORE DUP1 DUP3 DUP2 MSTORE PUSH1 0x20 ADD DUP13 DUP13 DUP1 DUP1 PUSH1 0x1F ADD PUSH1 0x20 DUP1 SWAP2 DIV MUL PUSH1 0x20 ADD PUSH1 0x40 MLOAD SWAP1 DUP2 ADD PUSH1 0x40 MSTORE DUP1 SWAP4 SWAP3 SWAP2 SWAP1 DUP2 DUP2 MSTORE PUSH1 0x20 ADD DUP4 DUP4 DUP1 DUP3 DUP5 CALLDATACOPY PUSH1 0x0 SWAP3 ADD SWAP2 SWAP1 SWAP2 MSTORE POP POP POP SWAP1 DUP3 MSTORE POP PUSH1 0x40 DUP1 MLOAD PUSH1 0x20 PUSH1 0x1F DUP14 ADD DUP2 SWAP1 DIV DUP2 MUL DUP3 ADD DUP2 ADD SWAP1 SWAP3 MSTORE DUP12 DUP2 MSTORE SWAP2 DUP2 ADD SWAP2 SWAP1 DUP13 SWAP1 DUP13 SWAP1 DUP2 SWAP1 DUP5 ADD DUP4 DUP3 DUP1 DUP3 DUP5 CALLDATACOPY PUSH1 0x0 SWAP3 ADD SWAP2 SWAP1 SWAP2 MSTORE POP POP POP SWAP1 DUP3 MSTORE POP PUSH1 0x40 DUP1 MLOAD PUSH1 0x20 PUSH1 0x1F DUP12 ADD DUP2 SWAP1 DIV DUP2 MUL DUP3 ADD DUP2 ADD SWAP1 SWAP3 MSTORE DUP10 DUP2 MSTORE SWAP2 DUP2 ADD SWAP2 SWAP1 DUP11 SWAP1 DUP11 SWAP1 DUP2 SWAP1 DUP5 ADD DUP4 DUP3 DUP1 DUP3 DUP5 CALLDATACOPY PUSH1 0x0 SWAP3 ADD SWAP2 SWAP1 SWAP2 MSTORE POP POP POP SWAP1 DUP3 MSTORE POP PUSH1 0x40 DUP1 MLOAD PUSH1 0x20 PUSH1 0x1F DUP10 ADD DUP2 SWAP1 DIV DUP2 MUL DUP3 ADD DUP2 ADD SWAP1 SWAP3 MSTORE DUP8 DUP2 MSTORE SWAP2 DUP2 ADD SWAP2 SWAP1 DUP9 SWAP1 DUP9 SWAP1 DUP2 SWAP1 DUP5 ADD DUP4 DUP3 DUP1 DUP3 DUP5 CALLDATACOPY PUSH1 0x0 DUP2 DUP5 ADD MSTORE PUSH1 0x1F NOT PUSH1 0x1F DUP3 ADD AND SWAP1 POP DUP1 DUP4 ADD SWAP3 POP POP POP POP POP POP POP DUP2 MSTORE PUSH1 0x20 ADD PUSH1 0x1 ISZERO ISZERO DUP2 MSTORE POP PUSH1 0x3 PUSH1 0x0 DUP15 DUP2 MSTORE PUSH1 0x20 ADD SWAP1 DUP2 MSTORE PUSH1 0x20 ADD PUSH1 0x0 KECCAK256 PUSH1 0x0 DUP4 DUP2 MSTORE PUSH1 0x20 ADD SWAP1 DUP2 MSTORE PUSH1 0x20 ADD PUSH1 0x0 KECCAK256 PUSH1 0x0 DUP3 ADD MLOAD DUP2 PUSH1 0x0 ADD SSTORE PUSH1 0x20 DUP3 ADD MLOAD DUP2 PUSH1 0x1 ADD SWAP1 DUP2 PUSH2 0x1276 SWAP2 SWAP1 PUSH2 0x3A13 JUMP JUMPDEST POP PUSH1 0x40 DUP3 ADD MLOAD PUSH1 0x2 DUP3 ADD SWAP1 PUSH2 0x128B SWAP1 DUP3 PUSH2 0x3A13 JUMP JUMPDEST POP PUSH1 0x60 DUP3 ADD MLOAD PUSH1 0x3 DUP3 ADD SWAP1 PUSH2 0x12A0 SWAP1 DUP3 PUSH2 0x3A13 JUMP JUMPDEST POP PUSH1 0x80 DUP3 ADD MLOAD PUSH1 0x4 DUP3 ADD SWAP1 PUSH2 0x12B5 SWAP1 DUP3 PUSH2 0x3A13 JUMP JUMPDEST POP PUSH1 0xA0 SWAP2 SWAP1 SWAP2 ADD MLOAD PUSH1 0x5 SWAP1 SWAP2 ADD DUP1 SLOAD PUSH1 0xFF NOT AND SWAP2 ISZERO ISZERO SWAP2 SWAP1 SWAP2 OR SWAP1 SSTORE PUSH1 0x0 DUP13 DUP2 MSTORE PUSH1 0x2 PUSH1 0x20 SWAP1 DUP2 MSTORE PUSH1 0x40 DUP3 KECCAK256 PUSH1 0x7 ADD DUP1 SLOAD PUSH1 0x1 DUP2 ADD DUP3 SSTORE SWAP1 DUP4 MSTORE SWAP1 DUP3 KECCAK256 ADD DUP3 SWAP1 SSTORE PUSH1 0x6 DUP1 SLOAD SWAP2 PUSH2 0x1304 DUP4 PUSH2 0x3BDE JUMP JUMPDEST SWAP2 SWAP1 POP SSTORE POP DUP12 PUSH32 0x1D3C6A3C34ADDECA1898ED9E2152304EA92CF5B2DFABE5461461392A62F6D8DE DUP3 DUP14 DUP14 PUSH1 0x40 MLOAD PUSH2 0x133D SWAP4 SWAP3 SWAP2 SWAP1 PUSH2 0x3D2A JUMP JUMPDEST PUSH1 0x40 MLOAD DUP1 SWAP2 SUB SWAP1 LOG2 SWAP12 SWAP11 POP POP POP POP POP POP POP POP POP POP POP JUMP JUMPDEST CALLER PUSH1 0x0 SWAP1 DUP2 MSTORE PUSH1 0x20 DUP2 SWAP1 MSTORE PUSH1 0x40 DUP2 KECCAK256 PUSH1 0x7 ADD SLOAD PUSH2 0x100 SWAP1 DIV PUSH1 0xFF AND PUSH2 0x138B JUMPI PUSH1 0x40 MLOAD PUSH3 0x461BCD PUSH1 0xE5 SHL DUP2 MSTORE PUSH1 0x4 ADD PUSH2 0x4AF SWAP1 PUSH2 0x3B2D JUMP JUMPDEST PUSH1 0x5 DUP1 SLOAD PUSH1 0x0 DUP2 DUP2 MSTORE PUSH1 0x2 PUSH1 0x20 MSTORE PUSH1 0x40 SWAP1 KECCAK256 SWAP1 SWAP2 ADD SLOAD PUSH1 0xFF AND ISZERO PUSH2 0x13E8 JUMPI PUSH1 0x40 MLOAD PUSH3 0x461BCD PUSH1 0xE5 SHL DUP2 MSTORE PUSH1 0x20 PUSH1 0x4 DUP3 ADD MSTORE PUSH1 0x14 PUSH1 0x24 DUP3 ADD MSTORE PUSH20 0x5661756C7420616C726561647920657869737473 PUSH1 0x60 SHL PUSH1 0x44 DUP3 ADD MSTORE PUSH1 0x64 ADD PUSH2 0x4AF JUMP JUMPDEST PUSH1 0x40 MLOAD DUP1 PUSH2 0x120 ADD PUSH1 0x40 MSTORE DUP1 DUP3 DUP2 MSTORE PUSH1 0x20 ADD DUP10 DUP10 DUP1 DUP1 PUSH1 0x1F ADD PUSH1 0x20 DUP1 SWAP2 DIV MUL PUSH1 0x20 ADD PUSH1 0x40 MLOAD SWAP1 DUP2 ADD PUSH1 0x40 MSTORE DUP1 SWAP4 SWAP3 SWAP2 SWAP1 DUP2 DUP2 MSTORE PUSH1 0x20 ADD DUP4 DUP4 DUP1 DUP3 DUP5 CALLDATACOPY PUSH1 0x0 SWAP3 ADD DUP3 SWAP1 MSTORE POP SWAP4 DUP6 MSTORE POP POP CALLER PUSH1 0x20 DUP1 DUP6 ADD SWAP2 SWAP1 SWAP2 MSTORE PUSH1 0x40 DUP1 DUP6 ADD SWAP4 SWAP1 SWAP4 MSTORE DUP3 MLOAD PUSH1 0x1F DUP12 ADD DUP3 SWAP1 DIV DUP3 MUL DUP2 ADD DUP3 ADD SWAP1 SWAP4 MSTORE DUP10 DUP4 MSTORE PUSH1 0x60 SWAP1 SWAP4 ADD SWAP3 DUP11 SWAP2 POP DUP10 SWAP1 DUP2 SWAP1 DUP5 ADD DUP4 DUP3 DUP1 DUP3 DUP5 CALLDATACOPY PUSH1 0x0 SWAP3 ADD SWAP2 SWAP1 SWAP2 MSTORE POP POP POP SWAP1 DUP3 MSTORE POP PUSH1 0x40 DUP1 MLOAD PUSH1 0x20 PUSH1 0x1F DUP9 ADD DUP2 SWAP1 DIV DUP2 MUL DUP3 ADD DUP2 ADD SWAP1 SWAP3 MSTORE DUP7 DUP2 MSTORE SWAP2 DUP2 ADD SWAP2 SWAP1 DUP8 SWAP1 DUP8 SWAP1 DUP2 SWAP1 DUP5 ADD DUP4 DUP3 DUP1 DUP3 DUP5 CALLDATACOPY PUSH1 0x0 SWAP3 ADD DUP3 SWAP1 MSTORE POP SWAP4 DUP6 MSTORE POP POP PUSH1 0x1 PUSH1 0x20 DUP1 DUP6 ADD DUP3 SWAP1 MSTORE PUSH1 0x40 DUP1 MLOAD DUP6 DUP2 MSTORE DUP1 DUP4 ADD DUP3 MSTORE DUP2 DUP8 ADD MSTORE DUP1 MLOAD DUP6 DUP2 MSTORE DUP1 DUP4 ADD DUP3 MSTORE PUSH1 0x60 SWAP1 SWAP7 ADD SWAP6 SWAP1 SWAP6 MSTORE DUP7 DUP5 MSTORE PUSH1 0x2 DUP2 MSTORE SWAP4 SWAP1 SWAP3 KECCAK256 DUP5 MLOAD DUP2 SSTORE SWAP3 DUP5 ADD MLOAD SWAP2 DUP4 ADD SWAP2 PUSH2 0x1505 SWAP2 POP DUP3 PUSH2 0x3A13 JUMP JUMPDEST POP PUSH1 0x40 DUP3 ADD MLOAD PUSH1 0x2 DUP3 ADD DUP1 SLOAD PUSH1 0x60 DUP6 ADD MLOAD ISZERO ISZERO PUSH1 0x1 PUSH1 0xA0 SHL MUL PUSH1 0x1 PUSH1 0x1 PUSH1 0xA8 SHL SUB NOT SWAP1 SWAP2 AND PUSH1 0x1 PUSH1 0x1 PUSH1 0xA0 SHL SUB SWAP1 SWAP4 AND SWAP3 SWAP1 SWAP3 OR SWAP2 SWAP1 SWAP2 OR SWAP1 SSTORE PUSH1 0x80 DUP3 ADD MLOAD PUSH1 0x3 DUP3 ADD SWAP1 PUSH2 0x1553 SWAP1 DUP3 PUSH2 0x3A13 JUMP JUMPDEST POP PUSH1 0xA0 DUP3 ADD MLOAD PUSH1 0x4 DUP3 ADD SWAP1 PUSH2 0x1568 SWAP1 DUP3 PUSH2 0x3A13 JUMP JUMPDEST POP PUSH1 0xC0 DUP3 ADD MLOAD PUSH1 0x5 DUP3 ADD DUP1 SLOAD PUSH1 0xFF NOT AND SWAP2 ISZERO ISZERO SWAP2 SWAP1 SWAP2 OR SWAP1 SSTORE PUSH1 0xE0 DUP3 ADD MLOAD DUP1 MLOAD PUSH2 0x159C SWAP2 PUSH1 0x6 DUP5 ADD SWAP2 PUSH1 0x20 SWAP1 SWAP2 ADD SWAP1 PUSH2 0x30DF JUMP JUMPDEST POP PUSH2 0x100 DUP3 ADD MLOAD DUP1 MLOAD PUSH2 0x15B9 SWAP2 PUSH1 0x7 DUP5 ADD SWAP2 PUSH1 0x20 SWAP1 SWAP2 ADD SWAP1 PUSH2 0x3144 JUMP JUMPDEST POP POP CALLER PUSH1 0x0 SWAP1 DUP2 MSTORE PUSH1 0x20 DUP2 DUP2 MSTORE PUSH1 0x40 DUP3 KECCAK256 PUSH1 0x9 ADD DUP1 SLOAD PUSH1 0x1 DUP2 ADD DUP3 SSTORE SWAP1 DUP4 MSTORE SWAP1 DUP3 KECCAK256 ADD DUP4 SWAP1 SSTORE PUSH1 0x5 DUP1 SLOAD SWAP3 POP SWAP1 PUSH2 0x15EF DUP4 PUSH2 0x3BDE JUMP JUMPDEST SWAP2 SWAP1 POP SSTORE POP CALLER PUSH1 0x1 PUSH1 0x1 PUSH1 0xA0 SHL SUB AND DUP2 PUSH32 0x6CDA1FE49E022CF08F0F3E367BD8C6ABB3C3A01A260273F23C8E432A4166A048 DUP11 DUP11 PUSH1 0x40 MLOAD PUSH2 0x1630 SWAP3 SWAP2 SWAP1 PUSH2 0x3D4D JUMP JUMPDEST PUSH1 0x40 MLOAD DUP1 SWAP2 SUB SWAP1 LOG3 SWAP8 SWAP7 POP POP POP POP POP POP POP JUMP JUMPDEST CALLER PUSH1 0x0 SWAP1 DUP2 MSTORE PUSH1 0x20 DUP2 SWAP1 MSTORE PUSH1 0x40 SWAP1 KECCAK256 PUSH1 0x7 ADD SLOAD PUSH2 0x100 SWAP1 DIV PUSH1 0xFF AND PUSH2 0x167A JUMPI PUSH1 0x40 MLOAD PUSH3 0x461BCD PUSH1 0xE5 SHL DUP2 MSTORE PUSH1 0x4 ADD PUSH2 0x4AF SWAP1 PUSH2 0x3B2D JUMP JUMPDEST CALLER PUSH1 0x0 SWAP1 DUP2 MSTORE PUSH1 0x20 DUP2 SWAP1 MSTORE PUSH1 0x40 SWAP1 KECCAK256 PUSH1 0x7 ADD SLOAD PUSH1 0xFF AND ISZERO PUSH2 0x16DD JUMPI PUSH1 0x40 MLOAD PUSH3 0x461BCD PUSH1 0xE5 SHL DUP2 MSTORE PUSH1 0x20 PUSH1 0x4 DUP3 ADD MSTORE PUSH1 0x19 PUSH1 0x24 DUP3 ADD MSTORE PUSH32 0x4F776E657220697320616C726561647920646563656173656400000000000000 PUSH1 0x44 DUP3 ADD MSTORE PUSH1 0x64 ADD PUSH2 0x4AF JUMP JUMPDEST CALLER PUSH1 0x0 SWAP1 DUP2 MSTORE PUSH1 0x20 DUP2 DUP2 MSTORE PUSH1 0x40 DUP1 DUP4 KECCAK256 TIMESTAMP PUSH1 0x5 SWAP2 DUP3 ADD SSTORE PUSH1 0x4 SWAP1 SWAP3 MSTORE SWAP1 SWAP2 KECCAK256 ADD SLOAD PUSH1 0xFF AND ISZERO PUSH2 0x1763 JUMPI CALLER PUSH1 0x0 DUP2 DUP2 MSTORE PUSH1 0x4 PUSH1 0x20 MSTORE PUSH1 0x40 DUP1 DUP3 KECCAK256 PUSH1 0x5 ADD DUP1 SLOAD PUSH1 0xFF NOT AND SWAP1 SSTORE MLOAD PUSH32 0xAC892F9EA2BAC4D143F762134B209DE57EFB94B00C56302AAED590951368EAAC SWAP2 PUSH2 0x175A SWAP2 TIMESTAMP SWAP1 SWAP2 ISZERO ISZERO DUP3 MSTORE PUSH1 0x20 DUP3 ADD MSTORE PUSH1 0x40 ADD SWAP1 JUMP JUMPDEST PUSH1 0x40 MLOAD DUP1 SWAP2 SUB SWAP1 LOG2 JUMPDEST PUSH1 0x40 MLOAD TIMESTAMP DUP2 MSTORE CALLER SWAP1 PUSH32 0x878229CAB17522B0AA9FE67EF166BA37857B7FDB46CD8748179A9D9A7373727F SWAP1 PUSH1 0x20 ADD PUSH1 0x40 MLOAD DUP1 SWAP2 SUB SWAP1 LOG2 JUMP JUMPDEST PUSH1 0x0 DUP3 DUP2 MSTORE PUSH1 0x3 PUSH1 0x20 DUP2 DUP2 MSTORE PUSH1 0x40 DUP1 DUP5 KECCAK256 DUP6 DUP6 MSTORE SWAP1 SWAP2 MSTORE DUP3 KECCAK256 PUSH1 0x5 DUP2 ADD SLOAD PUSH1 0x1 DUP3 ADD DUP1 SLOAD PUSH1 0x60 SWAP6 DUP7 SWAP6 DUP7 SWAP6 DUP7 SWAP6 SWAP3 SWAP5 SWAP1 SWAP4 SWAP1 SWAP3 PUSH1 0x2 DUP6 ADD SWAP3 DUP6 ADD SWAP2 PUSH1 0x4 DUP7 ADD SWAP2 PUSH1 0xFF AND SWAP1 DUP6 SWAP1 PUSH2 0x17E9 SWAP1 PUSH2 0x398B JUMP JUMPDEST DUP1 PUSH1 0x1F ADD PUSH1 0x20 DUP1 SWAP2 DIV MUL PUSH1 0x20 ADD PUSH1 0x40 MLOAD SWAP1 DUP2 ADD PUSH1 0x40 MSTORE DUP1 SWAP3 SWAP2 SWAP1 DUP2 DUP2 MSTORE PUSH1 0x20 ADD DUP3 DUP1 SLOAD PUSH2 0x1815 SWAP1 PUSH2 0x398B JUMP JUMPDEST DUP1 ISZERO PUSH2 0x1862 JUMPI DUP1 PUSH1 0x1F LT PUSH2 0x1837 JUMPI PUSH2 0x100 DUP1 DUP4 SLOAD DIV MUL DUP4 MSTORE SWAP2 PUSH1 0x20 ADD SWAP2 PUSH2 0x1862 JUMP JUMPDEST DUP3 ADD SWAP2 SWAP1 PUSH1 0x0 MSTORE PUSH1 0x20 PUSH1 0x0 KECCAK256 SWAP1 JUMPDEST DUP2 SLOAD DUP2 MSTORE SWAP1 PUSH1 0x1 ADD SWAP1 PUSH1 0x20 ADD DUP1 DUP4 GT PUSH2 0x1845 JUMPI DUP3 SWAP1 SUB PUSH1 0x1F AND DUP3 ADD SWAP2 JUMPDEST POP POP POP POP POP SWAP5 POP DUP4 DUP1 SLOAD PUSH2 0x1875 SWAP1 PUSH2 0x398B JUMP JUMPDEST DUP1 PUSH1 0x1F ADD PUSH1 0x20 DUP1 SWAP2 DIV MUL PUSH1 0x20 ADD PUSH1 0x40 MLOAD SWAP1 DUP2 ADD PUSH1 0x40 MSTORE DUP1 SWAP3 SWAP2 SWAP1 DUP2 DUP2 MSTORE PUSH1 0x20 ADD DUP3 DUP1 SLOAD PUSH2 0x18A1 SWAP1 PUSH2 0x398B JUMP JUMPDEST DUP1 ISZERO PUSH2 0x18EE JUMPI DUP1 PUSH1 0x1F LT PUSH2 0x18C3 JUMPI PUSH2 0x100 DUP1 DUP4 SLOAD DIV MUL DUP4 MSTORE SWAP2 PUSH1 0x20 ADD SWAP2 PUSH2 0x18EE JUMP JUMPDEST DUP3 ADD SWAP2 SWAP1 PUSH1 0x0 MSTORE PUSH1 0x20 PUSH1 0x0 KECCAK256 SWAP1 JUMPDEST DUP2 SLOAD DUP2 MSTORE SWAP1 PUSH1 0x1 ADD SWAP1 PUSH1 0x20 ADD DUP1 DUP4 GT PUSH2 0x18D1 JUMPI DUP3 SWAP1 SUB PUSH1 0x1F AND DUP3 ADD SWAP2 JUMPDEST POP POP POP POP POP SWAP4 POP DUP3 DUP1 SLOAD PUSH2 0x1901 SWAP1 PUSH2 0x398B JUMP JUMPDEST DUP1 PUSH1 0x1F ADD PUSH1 0x20 DUP1 SWAP2 DIV MUL PUSH1 0x20 ADD PUSH1 0x40 MLOAD SWAP1 DUP2 ADD PUSH1 0x40 MSTORE DUP1 SWAP3 SWAP2 SWAP1 DUP2 DUP2 MSTORE PUSH1 0x20 ADD DUP3 DUP1 SLOAD PUSH2 0x192D SWAP1 PUSH2 0x398B JUMP JUMPDEST DUP1 ISZERO PUSH2 0x197A JUMPI DUP1 PUSH1 0x1F LT PUSH2 0x194F JUMPI PUSH2 0x100 DUP1 DUP4 SLOAD DIV MUL DUP4 MSTORE SWAP2 PUSH1 0x20 ADD SWAP2 PUSH2 0x197A JUMP JUMPDEST DUP3 ADD SWAP2 SWAP1 PUSH1 0x0 MSTORE PUSH1 0x20 PUSH1 0x0 KECCAK256 SWAP1 JUMPDEST DUP2 SLOAD DUP2 MSTORE SWAP1 PUSH1 0x1 ADD SWAP1 PUSH1 0x20 ADD DUP1 DUP4 GT PUSH2 0x195D JUMPI DUP3 SWAP1 SUB PUSH1 0x1F AND DUP3 ADD SWAP2 JUMPDEST POP POP POP POP POP SWAP3 POP DUP2 DUP1 SLOAD PUSH2 0x198D SWAP1 PUSH2 0x398B JUMP JUMPDEST DUP1 PUSH1 0x1F ADD PUSH1 0x20 DUP1 SWAP2 DIV MUL PUSH1 0x20 ADD PUSH1 0x40 MLOAD SWAP1 DUP2 ADD PUSH1 0x40 MSTORE DUP1 SWAP3 SWAP2 SWAP1 DUP2 DUP2 MSTORE PUSH1 0x20 ADD DUP3 DUP1 SLOAD PUSH2 0x19B9 SWAP1 PUSH2 0x398B JUMP JUMPDEST DUP1 ISZERO PUSH2 0x1A06 JUMPI DUP1 PUSH1 0x1F LT PUSH2 0x19DB JUMPI PUSH2 0x100 DUP1 DUP4 SLOAD DIV MUL DUP4 MSTORE SWAP2 PUSH1 0x20 ADD SWAP2 PUSH2 0x1A06 JUMP JUMPDEST DUP3 ADD SWAP2 SWAP1 PUSH1 0x0 MSTORE PUSH1 0x20 PUSH1 0x0 KECCAK256 SWAP1 JUMPDEST DUP2 SLOAD DUP2 MSTORE SWAP1 PUSH1 0x1 ADD SWAP1 PUSH1 0x20 ADD DUP1 DUP4 GT PUSH2 0x19E9 JUMPI DUP3 SWAP1 SUB PUSH1 0x1F AND DUP3 ADD SWAP2 JUMPDEST POP POP POP POP POP SWAP2 POP SWAP6 POP SWAP6 POP SWAP6 POP SWAP6 POP SWAP6 POP POP SWAP3 SWAP6 POP SWAP3 SWAP6 SWAP1 SWAP4 POP JUMP JUMPDEST PUSH1 0x0 DUP2 DUP2 MSTORE PUSH1 0x2 PUSH1 0x20 SWAP1 DUP2 MSTORE PUSH1 0x40 SWAP2 DUP3 SWAP1 KECCAK256 PUSH1 0x6 ADD DUP1 SLOAD DUP4 MLOAD DUP2 DUP5 MUL DUP2 ADD DUP5 ADD SWAP1 SWAP5 MSTORE DUP1 DUP5 MSTORE PUSH1 0x60 SWAP4 SWAP3 DUP4 ADD DUP3 DUP3 DUP1 ISZERO PUSH2 0x1041 JUMPI PUSH1 0x20 MUL DUP3 ADD SWAP2 SWAP1 PUSH1 0x0 MSTORE PUSH1 0x20 PUSH1 0x0 KECCAK256 SWAP1 JUMPDEST DUP2 SLOAD PUSH1 0x1 PUSH1 0x1 PUSH1 0xA0 SHL SUB AND DUP2 MSTORE PUSH1 0x1 SWAP1 SWAP2 ADD SWAP1 PUSH1 0x20 ADD DUP1 DUP4 GT PUSH2 0x1A67 JUMPI POP POP POP POP POP SWAP1 POP SWAP2 SWAP1 POP JUMP JUMPDEST PUSH1 0x1 PUSH1 0x1 PUSH1 0xA0 SHL SUB DUP3 AND PUSH1 0x0 SWAP1 DUP2 MSTORE PUSH1 0x1 PUSH1 0x20 SWAP1 DUP2 MSTORE PUSH1 0x40 DUP1 DUP4 KECCAK256 CALLER DUP5 MSTORE SWAP1 SWAP2 MSTORE SWAP1 KECCAK256 PUSH1 0x5 ADD SLOAD DUP3 SWAP1 PUSH3 0x10000 SWAP1 DIV PUSH1 0xFF AND PUSH2 0x1ADE JUMPI PUSH1 0x40 MLOAD PUSH3 0x461BCD PUSH1 0xE5 SHL DUP2 MSTORE PUSH1 0x4 ADD PUSH2 0x4AF SWAP1 PUSH2 0x3C33 JUMP JUMPDEST PUSH1 0x1 PUSH1 0x1 PUSH1 0xA0 SHL SUB DUP2 AND PUSH1 0x0 SWAP1 DUP2 MSTORE PUSH1 0x1 PUSH1 0x20 SWAP1 DUP2 MSTORE PUSH1 0x40 DUP1 DUP4 KECCAK256 CALLER DUP5 MSTORE SWAP1 SWAP2 MSTORE SWAP1 KECCAK256 PUSH1 0x5 ADD SLOAD PUSH2 0x100 SWAP1 DIV PUSH1 0xFF AND PUSH2 0x1B50 JUMPI PUSH1 0x40 MLOAD PUSH3 0x461BCD PUSH1 0xE5 SHL DUP2 MSTORE PUSH1 0x20 PUSH1 0x4 DUP3 ADD MSTORE PUSH1 0x14 PUSH1 0x24 DUP3 ADD MSTORE PUSH20 0x10DBDB9D1858DD081B9BDD081D995C9A599A5959 PUSH1 0x62 SHL PUSH1 0x44 DUP3 ADD MSTORE PUSH1 0x64 ADD PUSH2 0x4AF JUMP JUMPDEST PUSH1 0x1 PUSH1 0x1 PUSH1 0xA0 SHL SUB DUP2 AND PUSH1 0x0 SWAP1 DUP2 MSTORE PUSH1 0x1 PUSH1 0x20 SWAP1 DUP2 MSTORE PUSH1 0x40 DUP1 DUP4 KECCAK256 CALLER DUP5 MSTORE SWAP1 SWAP2 MSTORE SWAP1 KECCAK256 PUSH1 0x5 ADD SLOAD PUSH1 0xFF AND PUSH2 0x1BB9 JUMPI PUSH1 0x40 MLOAD PUSH3 0x461BCD PUSH1 0xE5 SHL DUP2 MSTORE PUSH1 0x20 PUSH1 0x4 DUP3 ADD MSTORE PUSH1 0x10 PUSH1 0x24 DUP3 ADD MSTORE PUSH16 0x4E6F20766F74696E6720726967687473 PUSH1 0x80 SHL PUSH1 0x44 DUP3 ADD MSTORE PUSH1 0x64 ADD PUSH2 0x4AF JUMP JUMPDEST PUSH1 0x1 PUSH1 0x1 PUSH1 0xA0 SHL SUB DUP4 AND PUSH1 0x0 SWAP1 DUP2 MSTORE PUSH1 0x4 PUSH1 0x20 MSTORE PUSH1 0x40 SWAP1 KECCAK256 PUSH1 0x5 ADD SLOAD PUSH1 0xFF AND PUSH2 0x1C24 JUMPI PUSH1 0x40 MLOAD PUSH3 0x461BCD PUSH1 0xE5 SHL DUP2 MSTORE PUSH1 0x20 PUSH1 0x4 DUP3 ADD MSTORE PUSH1 0x1B PUSH1 0x24 DUP3 ADD MSTORE PUSH32 0x4E6F20616374697665206465617468206465636C61726174696F6E0000000000 PUSH1 0x44 DUP3 ADD MSTORE PUSH1 0x64 ADD PUSH2 0x4AF JUMP JUMPDEST PUSH1 0x1 PUSH1 0x1 PUSH1 0xA0 SHL SUB DUP4 AND PUSH1 0x0 SWAP1 DUP2 MSTORE PUSH1 0x4 PUSH1 0x20 SWAP1 DUP2 MSTORE PUSH1 0x40 DUP1 DUP4 KECCAK256 CALLER DUP5 MSTORE PUSH1 0x6 ADD SWAP1 SWAP2 MSTORE SWAP1 KECCAK256 SLOAD PUSH1 0xFF AND ISZERO PUSH2 0x1C8B JUMPI PUSH1 0x40 MLOAD PUSH3 0x461BCD PUSH1 0xE5 SHL DUP2 MSTORE PUSH1 0x20 PUSH1 0x4 DUP3 ADD MSTORE PUSH1 0xD PUSH1 0x24 DUP3 ADD MSTORE PUSH13 0x105B1C9958591E481D9BDD1959 PUSH1 0x9A SHL PUSH1 0x44 DUP3 ADD MSTORE PUSH1 0x64 ADD PUSH2 0x4AF JUMP JUMPDEST PUSH1 0x1 PUSH1 0x1 PUSH1 0xA0 SHL SUB DUP4 AND PUSH1 0x0 SWAP1 DUP2 MSTORE PUSH1 0x4 PUSH1 0x20 SWAP1 DUP2 MSTORE PUSH1 0x40 DUP1 DUP4 KECCAK256 CALLER DUP5 MSTORE PUSH1 0x6 DUP2 ADD DUP4 MSTORE DUP2 DUP5 KECCAK256 DUP1 SLOAD PUSH1 0xFF NOT SWAP1 DUP2 AND PUSH1 0x1 OR SWAP1 SWAP2 SSTORE PUSH1 0x7 DUP3 ADD SWAP1 SWAP4 MSTORE SWAP3 KECCAK256 DUP1 SLOAD DUP6 ISZERO DUP1 ISZERO SWAP2 SWAP1 SWAP4 AND OR SWAP1 SSTORE PUSH2 0x1CF6 JUMPI PUSH1 0x2 DUP2 ADD DUP1 SLOAD SWAP1 PUSH1 0x0 PUSH2 0x1CEC DUP4 PUSH2 0x3BDE JUMP JUMPDEST SWAP2 SWAP1 POP SSTORE POP PUSH2 0x1D0E JUMP JUMPDEST PUSH1 0x3 DUP2 ADD DUP1 SLOAD SWAP1 PUSH1 0x0 PUSH2 0x1D08 DUP4 PUSH2 0x3BDE JUMP JUMPDEST SWAP2 SWAP1 POP SSTORE POP JUMPDEST PUSH1 0x40 MLOAD DUP4 ISZERO ISZERO DUP2 MSTORE CALLER SWAP1 PUSH1 0x1 PUSH1 0x1 PUSH1 0xA0 SHL SUB DUP7 AND SWAP1 PUSH32 0xCC194F214DF029FE546C9959EE15D79D8633742AAB6C02A862E337F8ACE3D550 SWAP1 PUSH1 0x20 ADD JUMPDEST PUSH1 0x40 MLOAD DUP1 SWAP2 SUB SWAP1 LOG3 PUSH2 0x1D5A DUP5 PUSH2 0x2FA5 JUMP JUMPDEST POP POP POP POP JUMP JUMPDEST PUSH1 0x0 PUSH2 0x1D6C DUP4 DUP4 PUSH2 0x2F28 JUMP JUMPDEST SWAP4 SWAP3 POP POP POP JUMP JUMPDEST PUSH1 0x1 PUSH1 0x1 PUSH1 0xA0 SHL SUB DUP1 DUP4 AND PUSH1 0x0 SWAP1 DUP2 MSTORE PUSH1 0x4 PUSH1 0x20 SWAP1 DUP2 MSTORE PUSH1 0x40 DUP1 DUP4 KECCAK256 SWAP4 DUP6 AND DUP4 MSTORE PUSH1 0x6 SWAP1 SWAP4 ADD SWAP1 MSTORE SWAP1 DUP2 KECCAK256 SLOAD PUSH1 0xFF AND PUSH2 0x1DE4 JUMPI PUSH1 0x40 MLOAD PUSH3 0x461BCD PUSH1 0xE5 SHL DUP2 MSTORE PUSH1 0x20 PUSH1 0x4 DUP3 ADD MSTORE PUSH1 0x13 PUSH1 0x24 DUP3 ADD MSTORE PUSH19 0x159BDD195C881A185CC81B9BDD081D9BDD1959 PUSH1 0x6A SHL PUSH1 0x44 DUP3 ADD MSTORE PUSH1 0x64 ADD PUSH2 0x4AF JUMP JUMPDEST POP PUSH1 0x1 PUSH1 0x1 PUSH1 0xA0 SHL SUB SWAP2 DUP3 AND PUSH1 0x0 SWAP1 DUP2 MSTORE PUSH1 0x4 PUSH1 0x20 SWAP1 DUP2 MSTORE PUSH1 0x40 DUP1 DUP4 KECCAK256 SWAP4 SWAP1 SWAP5 AND DUP3 MSTORE PUSH1 0x7 SWAP1 SWAP3 ADD SWAP1 SWAP2 MSTORE KECCAK256 SLOAD PUSH1 0xFF AND SWAP1 JUMP JUMPDEST PUSH1 0x1 PUSH1 0x1 PUSH1 0xA0 SHL SUB DUP1 DUP4 AND PUSH1 0x0 SWAP1 DUP2 MSTORE PUSH1 0x1 PUSH1 0x20 DUP2 DUP2 MSTORE PUSH1 0x40 DUP1 DUP5 KECCAK256 DUP7 DUP7 AND DUP6 MSTORE SWAP1 SWAP2 MSTORE DUP3 KECCAK256 DUP1 SLOAD PUSH1 0x5 DUP3 ADD SLOAD SWAP3 DUP3 ADD DUP1 SLOAD SWAP5 SWAP6 PUSH1 0x60 SWAP6 DUP7 SWAP6 DUP7 SWAP6 DUP7 SWAP6 DUP11 SWAP6 DUP7 SWAP6 DUP7 SWAP6 SWAP4 SWAP5 SWAP3 AND SWAP3 SWAP1 SWAP2 PUSH1 0x2 DUP6 ADD SWAP2 PUSH1 0x3 DUP7 ADD SWAP2 PUSH1 0x4 DUP8 ADD SWAP2 PUSH1 0xFF DUP1 DUP4 AND SWAP3 PUSH2 0x100 DUP2 DIV DUP3 AND SWAP3 PUSH3 0x10000 SWAP1 SWAP2 DIV SWAP1 SWAP2 AND SWAP1 DUP8 SWAP1 PUSH2 0x1E94 SWAP1 PUSH2 0x398B JUMP JUMPDEST DUP1 PUSH1 0x1F ADD PUSH1 0x20 DUP1 SWAP2 DIV MUL PUSH1 0x20 ADD PUSH1 0x40 MLOAD SWAP1 DUP2 ADD PUSH1 0x40 MSTORE DUP1 SWAP3 SWAP2 SWAP1 DUP2 DUP2 MSTORE PUSH1 0x20 ADD DUP3 DUP1 SLOAD PUSH2 0x1EC0 SWAP1 PUSH2 0x398B JUMP JUMPDEST DUP1 ISZERO PUSH2 0x1F0D JUMPI DUP1 PUSH1 0x1F LT PUSH2 0x1EE2 JUMPI PUSH2 0x100 DUP1 DUP4 SLOAD DIV MUL DUP4 MSTORE SWAP2 PUSH1 0x20 ADD SWAP2 PUSH2 0x1F0D JUMP JUMPDEST DUP3 ADD SWAP2 SWAP1 PUSH1 0x0 MSTORE PUSH1 0x20 PUSH1 0x0 KECCAK256 SWAP1 JUMPDEST DUP2 SLOAD DUP2 MSTORE SWAP1 PUSH1 0x1 ADD SWAP1 PUSH1 0x20 ADD DUP1 DUP4 GT PUSH2 0x1EF0 JUMPI DUP3 SWAP1 SUB PUSH1 0x1F AND DUP3 ADD SWAP2 JUMPDEST POP POP POP POP POP SWAP7 POP DUP6 DUP1 SLOAD PUSH2 0x1F20 SWAP1 PUSH2 0x398B JUMP JUMPDEST DUP1 PUSH1 0x1F ADD PUSH1 0x20 DUP1 SWAP2 DIV MUL PUSH1 0x20 ADD PUSH1 0x40 MLOAD SWAP1 DUP2 ADD PUSH1 0x40 MSTORE DUP1 SWAP3 SWAP2 SWAP1 DUP2 DUP2 MSTORE PUSH1 0x20 ADD DUP3 DUP1 SLOAD PUSH2 0x1F4C SWAP1 PUSH2 0x398B JUMP JUMPDEST DUP1 ISZERO PUSH2 0x1F99 JUMPI DUP1 PUSH1 0x1F LT PUSH2 0x1F6E JUMPI PUSH2 0x100 DUP1 DUP4 SLOAD DIV MUL DUP4 MSTORE SWAP2 PUSH1 0x20 ADD SWAP2 PUSH2 0x1F99 JUMP JUMPDEST DUP3 ADD SWAP2 SWAP1 PUSH1 0x0 MSTORE PUSH1 0x20 PUSH1 0x0 KECCAK256 SWAP1 JUMPDEST DUP2 SLOAD DUP2 MSTORE SWAP1 PUSH1 0x1 ADD SWAP1 PUSH1 0x20 ADD DUP1 DUP4 GT PUSH2 0x1F7C JUMPI DUP3 SWAP1 SUB PUSH1 0x1F AND DUP3 ADD SWAP2 JUMPDEST POP POP POP POP POP SWAP6 POP DUP5 DUP1 SLOAD PUSH2 0x1FAC SWAP1 PUSH2 0x398B JUMP JUMPDEST DUP1 PUSH1 0x1F ADD PUSH1 0x20 DUP1 SWAP2 DIV MUL PUSH1 0x20 ADD PUSH1 0x40 MLOAD SWAP1 DUP2 ADD PUSH1 0x40 MSTORE DUP1 SWAP3 SWAP2 SWAP1 DUP2 DUP2 MSTORE PUSH1 0x20 ADD DUP3 DUP1 SLOAD PUSH2 0x1FD8 SWAP1 PUSH2 0x398B JUMP JUMPDEST DUP1 ISZERO PUSH2 0x2025 JUMPI DUP1 PUSH1 0x1F LT PUSH2 0x1FFA JUMPI PUSH2 0x100 DUP1 DUP4 SLOAD DIV MUL DUP4 MSTORE SWAP2 PUSH1 0x20 ADD SWAP2 PUSH2 0x2025 JUMP JUMPDEST DUP3 ADD SWAP2 SWAP1 PUSH1 0x0 MSTORE PUSH1 0x20 PUSH1 0x0 KECCAK256 SWAP1 JUMPDEST DUP2 SLOAD DUP2 MSTORE SWAP1 PUSH1 0x1 ADD SWAP1 PUSH1 0x20 ADD DUP1 DUP4 GT PUSH2 0x2008 JUMPI DUP3 SWAP1 SUB PUSH1 0x1F AND DUP3 ADD SWAP2 JUMPDEST POP POP POP POP POP SWAP5 POP DUP4 DUP1 SLOAD PUSH2 0x2038 SWAP1 PUSH2 0x398B JUMP JUMPDEST DUP1 PUSH1 0x1F ADD PUSH1 0x20 DUP1 SWAP2 DIV MUL PUSH1 0x20 ADD PUSH1 0x40 MLOAD SWAP1 DUP2 ADD PUSH1 0x40 MSTORE DUP1 SWAP3 SWAP2 SWAP1 DUP2 DUP2 MSTORE PUSH1 0x20 ADD DUP3 DUP1 SLOAD PUSH2 0x2064 SWAP1 PUSH2 0x398B JUMP JUMPDEST DUP1 ISZERO PUSH2 0x20B1 JUMPI DUP1 PUSH1 0x1F LT PUSH2 0x2086 JUMPI PUSH2 0x100 DUP1 DUP4 SLOAD DIV MUL DUP4 MSTORE SWAP2 PUSH1 0x20 ADD SWAP2 PUSH2 0x20B1 JUMP JUMPDEST DUP3 ADD SWAP2 SWAP1 PUSH1 0x0 MSTORE PUSH1 0x20 PUSH1 0x0 KECCAK256 SWAP1 JUMPDEST DUP2 SLOAD DUP2 MSTORE SWAP1 PUSH1 0x1 ADD SWAP1 PUSH1 0x20 ADD DUP1 DUP4 GT PUSH2 0x2094 JUMPI DUP3 SWAP1 SUB PUSH1 0x1F AND DUP3 ADD SWAP2 JUMPDEST POP POP POP POP POP SWAP4 POP SWAP9 POP SWAP9 POP SWAP9 POP SWAP9 POP SWAP9 POP SWAP9 POP SWAP9 POP SWAP9 POP POP SWAP3 SWAP6 SWAP9 POP SWAP3 SWAP6 SWAP9 SWAP1 SWAP4 SWAP7 POP JUMP JUMPDEST PUSH1 0x1 PUSH1 0x1 PUSH1 0xA0 SHL SUB DUP2 AND PUSH1 0x0 SWAP1 DUP2 MSTORE PUSH1 0x1 PUSH1 0x20 SWAP1 DUP2 MSTORE PUSH1 0x40 DUP1 DUP4 KECCAK256 CALLER DUP5 MSTORE SWAP1 SWAP2 MSTORE SWAP1 KECCAK256 PUSH1 0x5 ADD SLOAD DUP2 SWAP1 PUSH3 0x10000 SWAP1 DIV PUSH1 0xFF AND PUSH2 0x2124 JUMPI PUSH1 0x40 MLOAD PUSH3 0x461BCD PUSH1 0xE5 SHL DUP2 MSTORE PUSH1 0x4 ADD PUSH2 0x4AF SWAP1 PUSH2 0x3C33 JUMP JUMPDEST PUSH1 0x1 PUSH1 0x1 PUSH1 0xA0 SHL SUB DUP3 AND PUSH1 0x0 SWAP1 DUP2 MSTORE PUSH1 0x1 PUSH1 0x20 SWAP1 DUP2 MSTORE PUSH1 0x40 DUP1 DUP4 KECCAK256 CALLER DUP5 MSTORE SWAP1 SWAP2 MSTORE SWAP1 KECCAK256 PUSH1 0x5 ADD SLOAD PUSH2 0x100 SWAP1 DIV PUSH1 0xFF AND ISZERO PUSH2 0x2193 JUMPI PUSH1 0x40 MLOAD PUSH3 0x461BCD PUSH1 0xE5 SHL DUP2 MSTORE PUSH1 0x20 PUSH1 0x4 DUP3 ADD MSTORE PUSH1 0x10 PUSH1 0x24 DUP3 ADD MSTORE PUSH16 0x105B1C9958591E481D995C9A599A5959 PUSH1 0x82 SHL PUSH1 0x44 DUP3 ADD MSTORE PUSH1 0x64 ADD PUSH2 0x4AF JUMP JUMPDEST PUSH1 0x1 PUSH1 0x1 PUSH1 0xA0 SHL SUB DUP3 AND PUSH1 0x0 DUP2 DUP2 MSTORE PUSH1 0x1 PUSH1 0x20 SWAP1 DUP2 MSTORE PUSH1 0x40 DUP1 DUP4 KECCAK256 CALLER DUP1 DUP6 MSTORE SWAP3 MSTORE DUP1 DUP4 KECCAK256 PUSH1 0x5 ADD DUP1 SLOAD PUSH2 0xFF00 NOT AND PUSH2 0x100 OR SWAP1 SSTORE MLOAD SWAP1 SWAP3 SWAP2 PUSH32 0x33C6B9962C16A3768D4F15C8F694B088FD57A39499A9B9F7E59243C371A2207A SWAP2 LOG3 POP POP JUMP JUMPDEST PUSH1 0x0 DUP3 DUP2 MSTORE PUSH1 0x2 PUSH1 0x20 MSTORE PUSH1 0x40 SWAP1 KECCAK256 PUSH1 0x5 ADD SLOAD DUP3 SWAP1 PUSH1 0xFF AND PUSH2 0x2225 JUMPI PUSH1 0x40 MLOAD PUSH3 0x461BCD PUSH1 0xE5 SHL DUP2 MSTORE PUSH1 0x4 ADD PUSH2 0x4AF SWAP1 PUSH2 0x3B71 JUMP JUMPDEST PUSH1 0x0 DUP2 DUP2 MSTORE PUSH1 0x2 PUSH1 0x20 DUP2 SWAP1 MSTORE PUSH1 0x40 SWAP1 SWAP2 KECCAK256 ADD SLOAD PUSH1 0x1 PUSH1 0x1 PUSH1 0xA0 SHL SUB AND CALLER EQ PUSH2 0x225F JUMPI PUSH1 0x40 MLOAD PUSH3 0x461BCD PUSH1 0xE5 SHL DUP2 MSTORE PUSH1 0x4 ADD PUSH2 0x4AF SWAP1 PUSH2 0x3B9F JUMP JUMPDEST CALLER PUSH1 0x0 SWAP1 DUP2 MSTORE PUSH1 0x1 PUSH1 0x20 SWAP1 DUP2 MSTORE PUSH1 0x40 DUP1 DUP4 KECCAK256 PUSH1 0x1 PUSH1 0x1 PUSH1 0xA0 SHL SUB DUP7 AND DUP5 MSTORE SWAP1 SWAP2 MSTORE SWAP1 KECCAK256 PUSH1 0x5 ADD SLOAD PUSH3 0x10000 SWAP1 DIV PUSH1 0xFF AND PUSH2 0x22D4 JUMPI PUSH1 0x40 MLOAD PUSH3 0x461BCD PUSH1 0xE5 SHL DUP2 MSTORE PUSH1 0x20 PUSH1 0x4 DUP3 ADD MSTORE PUSH1 0x16 PUSH1 0x24 DUP3 ADD MSTORE PUSH22 0x10DBDB9D1858DD08191BD95CC81B9BDD08195E1A5CDD PUSH1 0x52 SHL PUSH1 0x44 DUP3 ADD MSTORE PUSH1 0x64 ADD PUSH2 0x4AF JUMP JUMPDEST PUSH2 0x22DE DUP4 DUP4 PUSH2 0x2F28 JUMP JUMPDEST ISZERO PUSH2 0x232B JUMPI PUSH1 0x40 MLOAD PUSH3 0x461BCD PUSH1 0xE5 SHL DUP2 MSTORE PUSH1 0x20 PUSH1 0x4 DUP3 ADD MSTORE PUSH1 0x1A PUSH1 0x24 DUP3 ADD MSTORE PUSH32 0x436F6E7461637420616C726561647920617574686F72697A6564000000000000 PUSH1 0x44 DUP3 ADD MSTORE PUSH1 0x64 ADD PUSH2 0x4AF JUMP JUMPDEST PUSH1 0x0 DUP4 DUP2 MSTORE PUSH1 0x2 PUSH1 0x20 SWAP1 DUP2 MSTORE PUSH1 0x40 DUP1 DUP4 KECCAK256 PUSH1 0x6 SWAP1 DUP2 ADD DUP1 SLOAD PUSH1 0x1 DUP1 DUP3 ADD DUP4 SSTORE SWAP2 DUP7 MSTORE DUP5 DUP7 KECCAK256 ADD DUP1 SLOAD PUSH1 0x1 PUSH1 0x1 PUSH1 0xA0 SHL SUB NOT AND PUSH1 0x1 PUSH1 0x1 PUSH1 0xA0 SHL SUB DUP10 AND SWAP1 DUP2 OR SWAP1 SWAP2 SSTORE CALLER DUP7 MSTORE DUP2 DUP6 MSTORE DUP4 DUP7 KECCAK256 DUP2 DUP8 MSTORE DUP6 MSTORE DUP4 DUP7 KECCAK256 SWAP1 SWAP3 ADD DUP1 SLOAD SWAP2 DUP3 ADD DUP2 SSTORE DUP6 MSTORE SWAP3 DUP5 KECCAK256 SWAP1 SWAP3 ADD DUP7 SWAP1 SSTORE MLOAD SWAP1 SWAP2 DUP6 SWAP2 PUSH32 0x72024BC1A3BEFF7DF2FE575C8097C660EE4A4E15F263E037ED38560728681F1 SWAP2 SWAP1 LOG3 POP POP POP JUMP JUMPDEST PUSH1 0x0 DUP2 DUP2 MSTORE PUSH1 0x2 PUSH1 0x20 SWAP1 DUP2 MSTORE PUSH1 0x40 SWAP2 DUP3 SWAP1 KECCAK256 PUSH1 0x7 ADD DUP1 SLOAD DUP4 MLOAD DUP2 DUP5 MUL DUP2 ADD DUP5 ADD SWAP1 SWAP5 MSTORE DUP1 DUP5 MSTORE PUSH1 0x60 SWAP4 SWAP3 DUP4 ADD DUP3 DUP3 DUP1 ISZERO PUSH2 0x1041 JUMPI PUSH1 0x20 MUL DUP3 ADD SWAP2 SWAP1 PUSH1 0x0 MSTORE PUSH1 0x20 PUSH1 0x0 KECCAK256 SWAP1 DUP2 SLOAD DUP2 MSTORE PUSH1 0x20 ADD SWAP1 PUSH1 0x1 ADD SWAP1 DUP1 DUP4 GT PUSH2 0x102D JUMPI POP POP POP POP POP SWAP1 POP SWAP2 SWAP1 POP JUMP JUMPDEST PUSH1 0x1 PUSH1 0x1 PUSH1 0xA0 SHL SUB DUP2 AND PUSH1 0x0 SWAP1 DUP2 MSTORE PUSH1 0x1 PUSH1 0x20 SWAP1 DUP2 MSTORE PUSH1 0x40 DUP1 DUP4 KECCAK256 CALLER DUP5 MSTORE SWAP1 SWAP2 MSTORE SWAP1 KECCAK256 PUSH1 0x5 ADD SLOAD DUP2 SWAP1 PUSH3 0x10000 SWAP1 DIV PUSH1 0xFF AND PUSH2 0x2472 JUMPI PUSH1 0x40 MLOAD PUSH3 0x461BCD PUSH1 0xE5 SHL DUP2 MSTORE PUSH1 0x4 ADD PUSH2 0x4AF SWAP1 PUSH2 0x3C33 JUMP JUMPDEST PUSH1 0x1 PUSH1 0x1 PUSH1 0xA0 SHL SUB DUP2 AND PUSH1 0x0 SWAP1 DUP2 MSTORE PUSH1 0x1 PUSH1 0x20 SWAP1 DUP2 MSTORE PUSH1 0x40 DUP1 DUP4 KECCAK256 CALLER DUP5 MSTORE SWAP1 SWAP2 MSTORE SWAP1 KECCAK256 PUSH1 0x5 ADD SLOAD PUSH2 0x100 SWAP1 DIV PUSH1 0xFF AND PUSH2 0x24E4 JUMPI PUSH1 0x40 MLOAD PUSH3 0x461BCD PUSH1 0xE5 SHL DUP2 MSTORE PUSH1 0x20 PUSH1 0x4 DUP3 ADD MSTORE PUSH1 0x14 PUSH1 0x24 DUP3 ADD MSTORE PUSH20 0x10DBDB9D1858DD081B9BDD081D995C9A599A5959 PUSH1 0x62 SHL PUSH1 0x44 DUP3 ADD MSTORE PUSH1 0x64 ADD PUSH2 0x4AF JUMP JUMPDEST PUSH1 0x1 PUSH1 0x1 PUSH1 0xA0 SHL SUB DUP2 AND PUSH1 0x0 SWAP1 DUP2 MSTORE PUSH1 0x1 PUSH1 0x20 SWAP1 DUP2 MSTORE PUSH1 0x40 DUP1 DUP4 KECCAK256 CALLER DUP5 MSTORE SWAP1 SWAP2 MSTORE SWAP1 KECCAK256 PUSH1 0x5 ADD SLOAD PUSH1 0xFF AND PUSH2 0x254D JUMPI PUSH1 0x40 MLOAD PUSH3 0x461BCD PUSH1 0xE5 SHL DUP2 MSTORE PUSH1 0x20 PUSH1 0x4 DUP3 ADD MSTORE PUSH1 0x10 PUSH1 0x24 DUP3 ADD MSTORE PUSH16 0x4E6F20766F74696E6720726967687473 PUSH1 0x80 SHL PUSH1 0x44 DUP3 ADD MSTORE PUSH1 0x64 ADD PUSH2 0x4AF JUMP JUMPDEST PUSH1 0x1 PUSH1 0x1 PUSH1 0xA0 SHL SUB DUP3 AND PUSH1 0x0 SWAP1 DUP2 MSTORE PUSH1 0x20 DUP2 SWAP1 MSTORE PUSH1 0x40 SWAP1 KECCAK256 PUSH1 0x7 ADD SLOAD PUSH2 0x100 SWAP1 DIV PUSH1 0xFF AND PUSH2 0x258D JUMPI PUSH1 0x40 MLOAD PUSH3 0x461BCD PUSH1 0xE5 SHL DUP2 MSTORE PUSH1 0x4 ADD PUSH2 0x4AF SWAP1 PUSH2 0x3B2D JUMP JUMPDEST PUSH1 0x1 PUSH1 0x1 PUSH1 0xA0 SHL SUB DUP3 AND PUSH1 0x0 SWAP1 DUP2 MSTORE PUSH1 0x20 DUP2 SWAP1 MSTORE PUSH1 0x40 SWAP1 KECCAK256 PUSH1 0x7 ADD SLOAD PUSH1 0xFF AND ISZERO PUSH2 0x25F2 JUMPI PUSH1 0x40 MLOAD PUSH3 0x461BCD PUSH1 0xE5 SHL DUP2 MSTORE PUSH1 0x20 PUSH1 0x4 DUP3 ADD MSTORE PUSH1 0x16 PUSH1 0x24 DUP3 ADD MSTORE PUSH22 0x13DDDB995C88185B1C9958591E48191958D9585CD959 PUSH1 0x52 SHL PUSH1 0x44 DUP3 ADD MSTORE PUSH1 0x64 ADD PUSH2 0x4AF JUMP JUMPDEST PUSH1 0x1 PUSH1 0x1 PUSH1 0xA0 SHL SUB DUP3 AND PUSH1 0x0 SWAP1 DUP2 MSTORE PUSH1 0x4 PUSH1 0x20 MSTORE PUSH1 0x40 SWAP1 KECCAK256 PUSH1 0x5 ADD SLOAD PUSH1 0xFF AND ISZERO PUSH2 0x265E JUMPI PUSH1 0x40 MLOAD PUSH3 0x461BCD PUSH1 0xE5 SHL DUP2 MSTORE PUSH1 0x20 PUSH1 0x4 DUP3 ADD DUP2 SWAP1 MSTORE PUSH1 0x24 DUP3 ADD MSTORE PUSH32 0x4465617468206465636C61726174696F6E20616C726561647920616374697665 PUSH1 0x44 DUP3 ADD MSTORE PUSH1 0x64 ADD PUSH2 0x4AF JUMP JUMPDEST PUSH1 0x0 DUP1 JUMPDEST PUSH1 0x1 PUSH1 0x1 PUSH1 0xA0 SHL SUB DUP5 AND PUSH1 0x0 SWAP1 DUP2 MSTORE PUSH1 0x20 DUP2 SWAP1 MSTORE PUSH1 0x40 SWAP1 KECCAK256 PUSH1 0x8 ADD SLOAD DUP2 LT ISZERO PUSH2 0x274C JUMPI PUSH1 0x1 PUSH1 0x1 PUSH1 0xA0 SHL SUB DUP5 AND PUSH1 0x0 SWAP1 DUP2 MSTORE PUSH1 0x20 DUP2 SWAP1 MSTORE PUSH1 0x40 DUP2 KECCAK256 PUSH1 0x8 ADD DUP1 SLOAD DUP4 SWAP1 DUP2 LT PUSH2 0x26B2 JUMPI PUSH2 0x26B2 PUSH2 0x3B5B JUMP JUMPDEST PUSH1 0x0 SWAP2 DUP3 MSTORE PUSH1 0x20 DUP1 DUP4 KECCAK256 SWAP1 SWAP2 ADD SLOAD PUSH1 0x1 PUSH1 0x1 PUSH1 0xA0 SHL SUB DUP9 DUP2 AND DUP5 MSTORE PUSH1 0x1 DUP4 MSTORE PUSH1 0x40 DUP1 DUP6 KECCAK256 SWAP2 SWAP1 SWAP3 AND DUP1 DUP6 MSTORE SWAP3 MSTORE SWAP1 SWAP2 KECCAK256 PUSH1 0x5 ADD SLOAD SWAP1 SWAP2 POP PUSH1 0xFF PUSH2 0x100 SWAP1 SWAP2 DIV AND DUP1 ISZERO PUSH2 0x2726 JUMPI POP PUSH1 0x1 PUSH1 0x1 PUSH1 0xA0 SHL SUB DUP1 DUP7 AND PUSH1 0x0 SWAP1 DUP2 MSTORE PUSH1 0x1 PUSH1 0x20 SWAP1 DUP2 MSTORE PUSH1 0x40 DUP1 DUP4 KECCAK256 SWAP4 DUP6 AND DUP4 MSTORE SWAP3 SWAP1 MSTORE KECCAK256 PUSH1 0x5 ADD SLOAD PUSH1 0xFF AND JUMPDEST ISZERO PUSH2 0x2739 JUMPI DUP3 PUSH2 0x2735 DUP2 PUSH2 0x3BDE JUMP JUMPDEST SWAP4 POP POP JUMPDEST POP DUP1 PUSH2 0x2744 DUP2 PUSH2 0x3BDE JUMP JUMPDEST SWAP2 POP POP PUSH2 0x2662 JUMP JUMPDEST POP PUSH1 0x0 DUP2 GT PUSH2 0x279D JUMPI PUSH1 0x40 MLOAD PUSH3 0x461BCD PUSH1 0xE5 SHL DUP2 MSTORE PUSH1 0x20 PUSH1 0x4 DUP3 ADD MSTORE PUSH1 0x1C PUSH1 0x24 DUP3 ADD MSTORE PUSH32 0x4E6F20766F74696E6720636F6E746163747320617661696C61626C6500000000 PUSH1 0x44 DUP3 ADD MSTORE PUSH1 0x64 ADD PUSH2 0x4AF JUMP JUMPDEST PUSH1 0x1 PUSH1 0x1 PUSH1 0xA0 SHL SUB DUP4 AND PUSH1 0x0 DUP2 DUP2 MSTORE PUSH1 0x4 PUSH1 0x20 DUP2 DUP2 MSTORE PUSH1 0x40 DUP1 DUP5 KECCAK256 DUP1 SLOAD PUSH1 0x1 PUSH1 0x1 PUSH1 0xA0 SHL SUB NOT AND CALLER SWAP1 DUP2 OR DUP3 SSTORE TIMESTAMP PUSH1 0x1 DUP1 DUP5 ADD DUP3 SWAP1 SSTORE PUSH1 0x2 DUP5 ADD DUP2 SWAP1 SSTORE PUSH1 0x3 DUP5 ADD DUP9 SWAP1 SSTORE SWAP6 DUP4 ADD DUP10 SWAP1 SSTORE PUSH1 0x5 DUP4 ADD DUP1 SLOAD PUSH2 0xFFFF NOT AND DUP8 OR SWAP1 SSTORE DUP2 DUP8 MSTORE PUSH1 0x6 DUP4 ADD DUP6 MSTORE DUP4 DUP8 KECCAK256 DUP1 SLOAD PUSH1 0xFF NOT SWAP1 DUP2 AND DUP9 OR SWAP1 SWAP2 SSTORE PUSH1 0x7 DUP5 ADD DUP7 MSTORE SWAP7 DUP5 SWAP1 KECCAK256 DUP1 SLOAD SWAP1 SWAP8 AND SWAP1 SWAP6 OR SWAP1 SWAP6 SSTORE SWAP1 MLOAD SWAP3 DUP4 MSTORE SWAP4 SWAP2 PUSH32 0xD1FFE6C6EEC884AE3341F8304738B02340905DFD25B73DF1802E7F95C9B9FBEC SWAP2 ADD PUSH1 0x40 MLOAD DUP1 SWAP2 SUB SWAP1 LOG3 PUSH1 0x40 MLOAD PUSH1 0x1 DUP2 MSTORE CALLER SWAP1 PUSH1 0x1 PUSH1 0x1 PUSH1 0xA0 SHL SUB DUP7 AND SWAP1 PUSH32 0xCC194F214DF029FE546C9959EE15D79D8633742AAB6C02A862E337F8ACE3D550 SWAP1 PUSH1 0x20 ADD PUSH2 0x1D49 JUMP JUMPDEST PUSH1 0x0 DUP2 DUP2 MSTORE PUSH1 0x2 PUSH1 0x20 DUP2 SWAP1 MSTORE PUSH1 0x40 DUP3 KECCAK256 DUP1 SLOAD SWAP2 DUP2 ADD SLOAD PUSH1 0x5 DUP3 ADD SLOAD PUSH1 0x1 DUP4 ADD DUP1 SLOAD PUSH1 0x60 SWAP6 DUP8 SWAP6 DUP7 SWAP6 DUP9 SWAP6 DUP7 SWAP6 DUP7 SWAP6 DUP7 SWAP6 DUP11 SWAP6 SWAP5 SWAP1 SWAP4 PUSH1 0x1 PUSH1 0x1 PUSH1 0xA0 SHL SUB DUP3 AND SWAP3 PUSH1 0xFF PUSH1 0x1 PUSH1 0xA0 SHL SWAP1 SWAP4 DIV DUP4 AND SWAP3 PUSH1 0x3 DUP9 ADD SWAP3 PUSH1 0x4 DUP10 ADD SWAP3 PUSH1 0x7 DUP11 ADD SWAP3 PUSH1 0x6 DUP12 ADD SWAP3 AND SWAP1 DUP9 SWAP1 PUSH2 0x2902 SWAP1 PUSH2 0x398B JUMP JUMPDEST DUP1 PUSH1 0x1F ADD PUSH1 0x20 DUP1 SWAP2 DIV MUL PUSH1 0x20 ADD PUSH1 0x40 MLOAD SWAP1 DUP2 ADD PUSH1 0x40 MSTORE DUP1 SWAP3 SWAP2 SWAP1 DUP2 DUP2 MSTORE PUSH1 0x20 ADD DUP3 DUP1 SLOAD PUSH2 0x292E SWAP1 PUSH2 0x398B JUMP JUMPDEST DUP1 ISZERO PUSH2 0x297B JUMPI DUP1 PUSH1 0x1F LT PUSH2 0x2950 JUMPI PUSH2 0x100 DUP1 DUP4 SLOAD DIV MUL DUP4 MSTORE SWAP2 PUSH1 0x20 ADD SWAP2 PUSH2 0x297B JUMP JUMPDEST DUP3 ADD SWAP2 SWAP1 PUSH1 0x0 MSTORE PUSH1 0x20 PUSH1 0x0 KECCAK256 SWAP1 JUMPDEST DUP2 SLOAD DUP2 MSTORE SWAP1 PUSH1 0x1 ADD SWAP1 PUSH1 0x20 ADD DUP1 DUP4 GT PUSH2 0x295E JUMPI DUP3 SWAP1 SUB PUSH1 0x1F AND DUP3 ADD SWAP2 JUMPDEST POP POP POP POP POP SWAP8 POP DUP5 DUP1 SLOAD PUSH2 0x298E SWAP1 PUSH2 0x398B JUMP JUMPDEST DUP1 PUSH1 0x1F ADD PUSH1 0x20 DUP1 SWAP2 DIV MUL PUSH1 0x20 ADD PUSH1 0x40 MLOAD SWAP1 DUP2 ADD PUSH1 0x40 MSTORE DUP1 SWAP3 SWAP2 SWAP1 DUP2 DUP2 MSTORE PUSH1 0x20 ADD DUP3 DUP1 SLOAD PUSH2 0x29BA SWAP1 PUSH2 0x398B JUMP JUMPDEST DUP1 ISZERO PUSH2 0x2A07 JUMPI DUP1 PUSH1 0x1F LT PUSH2 0x29DC JUMPI PUSH2 0x100 DUP1 DUP4 SLOAD DIV MUL DUP4 MSTORE SWAP2 PUSH1 0x20 ADD SWAP2 PUSH2 0x2A07 JUMP JUMPDEST DUP3 ADD SWAP2 SWAP1 PUSH1 0x0 MSTORE PUSH1 0x20 PUSH1 0x0 KECCAK256 SWAP1 JUMPDEST DUP2 SLOAD DUP2 MSTORE SWAP1 PUSH1 0x1 ADD SWAP1 PUSH1 0x20 ADD DUP1 DUP4 GT PUSH2 0x29EA JUMPI DUP3 SWAP1 SUB PUSH1 0x1F AND DUP3 ADD SWAP2 JUMPDEST POP POP POP POP POP SWAP5 POP DUP4 DUP1 SLOAD PUSH2 0x2A1A SWAP1 PUSH2 0x398B JUMP JUMPDEST DUP1 PUSH1 0x1F ADD PUSH1 0x20 DUP1 SWAP2 DIV MUL PUSH1 0x20 ADD PUSH1 0x40 MLOAD SWAP1 DUP2 ADD PUSH1 0x40 MSTORE DUP1 SWAP3 SWAP2 SWAP1 DUP2 DUP2 MSTORE PUSH1 0x20 ADD DUP3 DUP1 SLOAD PUSH2 0x2A46 SWAP1 PUSH2 0x398B JUMP JUMPDEST DUP1 ISZERO PUSH2 0x2A93 JUMPI DUP1 PUSH1 0x1F LT PUSH2 0x2A68 JUMPI PUSH2 0x100 DUP1 DUP4 SLOAD DIV MUL DUP4 MSTORE SWAP2 PUSH1 0x20 ADD SWAP2 PUSH2 0x2A93 JUMP JUMPDEST DUP3 ADD SWAP2 SWAP1 PUSH1 0x0 MSTORE PUSH1 0x20 PUSH1 0x0 KECCAK256 SWAP1 JUMPDEST DUP2 SLOAD DUP2 MSTORE SWAP1 PUSH1 0x1 ADD SWAP1 PUSH1 0x20 ADD DUP1 DUP4 GT PUSH2 0x2A76 JUMPI DUP3 SWAP1 SUB PUSH1 0x1F AND DUP3 ADD SWAP2 JUMPDEST POP POP POP POP POP SWAP4 POP DUP3 DUP1 SLOAD DUP1 PUSH1 0x20 MUL PUSH1 0x20 ADD PUSH1 0x40 MLOAD SWAP1 DUP2 ADD PUSH1 0x40 MSTORE DUP1 SWAP3 SWAP2 SWAP1 DUP2 DUP2 MSTORE PUSH1 0x20 ADD DUP3 DUP1 SLOAD DUP1 ISZERO PUSH2 0x2AE5 JUMPI PUSH1 0x20 MUL DUP3 ADD SWAP2 SWAP1 PUSH1 0x0 MSTORE PUSH1 0x20 PUSH1 0x0 KECCAK256 SWAP1 JUMPDEST DUP2 SLOAD DUP2 MSTORE PUSH1 0x20 ADD SWAP1 PUSH1 0x1 ADD SWAP1 DUP1 DUP4 GT PUSH2 0x2AD1 JUMPI JUMPDEST POP POP POP POP POP SWAP3 POP DUP2 DUP1 SLOAD DUP1 PUSH1 0x20 MUL PUSH1 0x20 ADD PUSH1 0x40 MLOAD SWAP1 DUP2 ADD PUSH1 0x40 MSTORE DUP1 SWAP3 SWAP2 SWAP1 DUP2 DUP2 MSTORE PUSH1 0x20 ADD DUP3 DUP1 SLOAD DUP1 ISZERO PUSH2 0x2B41 JUMPI PUSH1 0x20 MUL DUP3 ADD SWAP2 SWAP1 PUSH1 0x0 MSTORE PUSH1 0x20 PUSH1 0x0 KECCAK256 SWAP1 JUMPDEST DUP2 SLOAD PUSH1 0x1 PUSH1 0x1 PUSH1 0xA0 SHL SUB AND DUP2 MSTORE PUSH1 0x1 SWAP1 SWAP2 ADD SWAP1 PUSH1 0x20 ADD DUP1 DUP4 GT PUSH2 0x2B23 JUMPI JUMPDEST POP POP POP POP POP SWAP2 POP SWAP10 POP SWAP10 POP SWAP10 POP SWAP10 POP SWAP10 POP SWAP10 POP SWAP10 POP SWAP10 POP SWAP10 POP POP SWAP2 SWAP4 SWAP6 SWAP8 SWAP10 SWAP1 SWAP3 SWAP5 SWAP7 SWAP9 POP JUMP JUMPDEST PUSH1 0x0 DUP2 DUP2 MSTORE PUSH1 0x2 PUSH1 0x20 MSTORE PUSH1 0x40 SWAP1 KECCAK256 PUSH1 0x5 ADD SLOAD DUP2 SWAP1 PUSH1 0xFF AND PUSH2 0x2B9B JUMPI PUSH1 0x40 MLOAD PUSH3 0x461BCD PUSH1 0xE5 SHL DUP2 MSTORE PUSH1 0x4 ADD PUSH2 0x4AF SWAP1 PUSH2 0x3B71 JUMP JUMPDEST PUSH1 0x0 DUP2 DUP2 MSTORE PUSH1 0x2 PUSH1 0x20 DUP2 SWAP1 MSTORE PUSH1 0x40 SWAP1 SWAP2 KECCAK256 ADD SLOAD PUSH1 0x1 PUSH1 0x1 PUSH1 0xA0 SHL SUB AND CALLER EQ DUP1 PUSH2 0x2BC9 JUMPI POP PUSH2 0x2BC9 DUP2 CALLER PUSH2 0x2F28 JUMP JUMPDEST PUSH2 0x2C06 JUMPI PUSH1 0x40 MLOAD PUSH3 0x461BCD PUSH1 0xE5 SHL DUP2 MSTORE PUSH1 0x20 PUSH1 0x4 DUP3 ADD MSTORE PUSH1 0xE PUSH1 0x24 DUP3 ADD MSTORE PUSH14 0x139BDD08185D5D1A1BDC9A5E9959 PUSH1 0x92 SHL PUSH1 0x44 DUP3 ADD MSTORE PUSH1 0x64 ADD PUSH2 0x4AF JUMP JUMPDEST PUSH1 0x0 DUP3 DUP2 MSTORE PUSH1 0x2 PUSH1 0x20 DUP2 SWAP1 MSTORE PUSH1 0x40 SWAP1 SWAP2 KECCAK256 ADD SLOAD PUSH1 0x1 PUSH1 0xA0 SHL SWAP1 DIV PUSH1 0xFF AND ISZERO PUSH2 0x2C69 JUMPI PUSH1 0x40 MLOAD PUSH3 0x461BCD PUSH1 0xE5 SHL DUP2 MSTORE PUSH1 0x20 PUSH1 0x4 DUP3 ADD MSTORE PUSH1 0x16 PUSH1 0x24 DUP3 ADD MSTORE PUSH22 0x15985D5B1D08185B1C9958591E481C995B19585CD959 PUSH1 0x52 SHL PUSH1 0x44 DUP3 ADD MSTORE PUSH1 0x64 ADD PUSH2 0x4AF JUMP JUMPDEST PUSH1 0x0 DUP3 DUP2 MSTORE PUSH1 0x2 PUSH1 0x20 DUP2 DUP2 MSTORE PUSH1 0x40 DUP1 DUP5 KECCAK256 SWAP1 SWAP3 ADD SLOAD PUSH1 0x1 PUSH1 0x1 PUSH1 0xA0 SHL SUB AND DUP4 MSTORE DUP3 SWAP1 MSTORE SWAP1 KECCAK256 PUSH1 0x7 ADD SLOAD PUSH1 0xFF AND PUSH2 0x2CD6 JUMPI PUSH1 0x40 MLOAD PUSH3 0x461BCD PUSH1 0xE5 SHL DUP2 MSTORE PUSH1 0x20 PUSH1 0x4 DUP3 ADD MSTORE PUSH1 0x12 PUSH1 0x24 DUP3 ADD MSTORE PUSH18 0x13DDDB995C881B9BDD08191958D9585CD959 PUSH1 0x72 SHL PUSH1 0x44 DUP3 ADD MSTORE PUSH1 0x64 ADD PUSH2 0x4AF JUMP JUMPDEST PUSH1 0x0 DUP3 DUP2 MSTORE PUSH1 0x2 PUSH1 0x20 DUP2 SWAP1 MSTORE PUSH1 0x40 DUP1 DUP4 KECCAK256 SWAP1 SWAP2 ADD DUP1 SLOAD PUSH1 0xFF PUSH1 0xA0 SHL NOT DUP2 AND PUSH1 0x1 PUSH1 0xA0 SHL OR SWAP1 SWAP2 SSTORE SWAP1 MLOAD PUSH1 0x1 PUSH1 0x1 PUSH1 0xA0 SHL SUB SWAP1 SWAP2 AND SWAP2 DUP5 SWAP2 PUSH32 0xA18F1AC3D4C6B800447518126C2FC0D98210A7078080B093679E972D1F8500B9 SWAP2 SWAP1 LOG3 POP POP JUMP JUMPDEST PUSH1 0x1 PUSH1 0x1 PUSH1 0xA0 SHL SUB DUP2 AND PUSH1 0x0 SWAP1 DUP2 MSTORE PUSH1 0x20 DUP2 DUP2 MSTORE PUSH1 0x40 SWAP2 DUP3 SWAP1 KECCAK256 PUSH1 0x8 ADD DUP1 SLOAD DUP4 MLOAD DUP2 DUP5 MUL DUP2 ADD DUP5 ADD SWAP1 SWAP5 MSTORE DUP1 DUP5 MSTORE PUSH1 0x60 SWAP4 SWAP3 DUP4 ADD DUP3 DUP3 DUP1 ISZERO PUSH2 0x1041 JUMPI PUSH1 0x20 MUL DUP3 ADD SWAP2 SWAP1 PUSH1 0x0 MSTORE PUSH1 0x20 PUSH1 0x0 KECCAK256 SWAP1 DUP2 SLOAD PUSH1 0x1 PUSH1 0x1 PUSH1 0xA0 SHL SUB AND DUP2 MSTORE PUSH1 0x1 SWAP1 SWAP2 ADD SWAP1 PUSH1 0x20 ADD DUP1 DUP4 GT PUSH2 0x1A67 JUMPI POP POP POP POP POP SWAP1 POP SWAP2 SWAP1 POP JUMP JUMPDEST PUSH1 0x1 PUSH1 0x1 PUSH1 0xA0 SHL SUB DUP2 AND PUSH1 0x0 SWAP1 DUP2 MSTORE PUSH1 0x20 DUP2 SWAP1 MSTORE PUSH1 0x40 DUP2 KECCAK256 PUSH1 0x5 DUP2 ADD SLOAD PUSH1 0x6 DUP3 ADD SLOAD PUSH1 0x7 DUP4 ADD SLOAD PUSH1 0x1 DUP5 ADD DUP1 SLOAD PUSH1 0x60 SWAP7 DUP8 SWAP7 SWAP1 SWAP6 DUP7 SWAP6 DUP7 SWAP6 DUP7 SWAP6 SWAP4 SWAP5 PUSH1 0x2 DUP7 ADD SWAP4 SWAP3 SWAP2 PUSH1 0xFF DUP1 DUP3 AND SWAP3 PUSH2 0x100 SWAP1 SWAP3 DIV AND SWAP1 DUP7 SWAP1 PUSH2 0x2E06 SWAP1 PUSH2 0x398B JUMP JUMPDEST DUP1 PUSH1 0x1F ADD PUSH1 0x20 DUP1 SWAP2 DIV MUL PUSH1 0x20 ADD PUSH1 0x40 MLOAD SWAP1 DUP2 ADD PUSH1 0x40 MSTORE DUP1 SWAP3 SWAP2 SWAP1 DUP2 DUP2 MSTORE PUSH1 0x20 ADD DUP3 DUP1 SLOAD PUSH2 0x2E32 SWAP1 PUSH2 0x398B JUMP JUMPDEST DUP1 ISZERO PUSH2 0x2E7F JUMPI DUP1 PUSH1 0x1F LT PUSH2 0x2E54 JUMPI PUSH2 0x100 DUP1 DUP4 SLOAD DIV MUL DUP4 MSTORE SWAP2 PUSH1 0x20 ADD SWAP2 PUSH2 0x2E7F JUMP JUMPDEST DUP3 ADD SWAP2 SWAP1 PUSH1 0x0 MSTORE PUSH1 0x20 PUSH1 0x0 KECCAK256 SWAP1 JUMPDEST DUP2 SLOAD DUP2 MSTORE SWAP1 PUSH1 0x1 ADD SWAP1 PUSH1 0x20 ADD DUP1 DUP4 GT PUSH2 0x2E62 JUMPI DUP3 SWAP1 SUB PUSH1 0x1F AND DUP3 ADD SWAP2 JUMPDEST POP POP POP POP POP SWAP6 POP DUP5 DUP1 SLOAD PUSH2 0x2E92 SWAP1 PUSH2 0x398B JUMP JUMPDEST DUP1 PUSH1 0x1F ADD PUSH1 0x20 DUP1 SWAP2 DIV MUL PUSH1 0x20 ADD PUSH1 0x40 MLOAD SWAP1 DUP2 ADD PUSH1 0x40 MSTORE DUP1 SWAP3 SWAP2 SWAP1 DUP2 DUP2 MSTORE PUSH1 0x20 ADD DUP3 DUP1 SLOAD PUSH2 0x2EBE SWAP1 PUSH2 0x398B JUMP JUMPDEST DUP1 ISZERO PUSH2 0x2F0B JUMPI DUP1 PUSH1 0x1F LT PUSH2 0x2EE0 JUMPI PUSH2 0x100 DUP1 DUP4 SLOAD DIV MUL DUP4 MSTORE SWAP2 PUSH1 0x20 ADD SWAP2 PUSH2 0x2F0B JUMP JUMPDEST DUP3 ADD SWAP2 SWAP1 PUSH1 0x0 MSTORE PUSH1 0x20 PUSH1 0x0 KECCAK256 SWAP1 JUMPDEST DUP2 SLOAD DUP2 MSTORE SWAP1 PUSH1 0x1 ADD SWAP1 PUSH1 0x20 ADD DUP1 DUP4 GT PUSH2 0x2EEE JUMPI DUP3 SWAP1 SUB PUSH1 0x1F AND DUP3 ADD SWAP2 JUMPDEST POP POP POP POP POP SWAP5 POP SWAP7 POP SWAP7 POP SWAP7 POP SWAP7 POP SWAP7 POP SWAP7 POP POP SWAP2 SWAP4 SWAP6 POP SWAP2 SWAP4 SWAP6 JUMP JUMPDEST PUSH1 0x0 DUP3 DUP2 MSTORE PUSH1 0x2 PUSH1 0x20 MSTORE PUSH1 0x40 DUP2 KECCAK256 DUP2 JUMPDEST PUSH1 0x6 DUP3 ADD SLOAD DUP2 LT ISZERO PUSH2 0x2F9A JUMPI DUP4 PUSH1 0x1 PUSH1 0x1 PUSH1 0xA0 SHL SUB AND DUP3 PUSH1 0x6 ADD DUP3 DUP2 SLOAD DUP2 LT PUSH2 0x2F63 JUMPI PUSH2 0x2F63 PUSH2 0x3B5B JUMP JUMPDEST PUSH1 0x0 SWAP2 DUP3 MSTORE PUSH1 0x20 SWAP1 SWAP2 KECCAK256 ADD SLOAD PUSH1 0x1 PUSH1 0x1 PUSH1 0xA0 SHL SUB AND SUB PUSH2 0x2F88 JUMPI PUSH1 0x1 SWAP3 POP POP POP PUSH2 0x8A3 JUMP JUMPDEST DUP1 PUSH2 0x2F92 DUP2 PUSH2 0x3BDE JUMP JUMPDEST SWAP2 POP POP PUSH2 0x2F38 JUMP JUMPDEST POP PUSH1 0x0 SWAP5 SWAP4 POP POP POP POP JUMP JUMPDEST PUSH1 0x1 PUSH1 0x1 PUSH1 0xA0 SHL SUB DUP2 AND PUSH1 0x0 SWAP1 DUP2 MSTORE PUSH1 0x4 PUSH1 0x20 DUP2 SWAP1 MSTORE PUSH1 0x40 DUP3 KECCAK256 SWAP1 DUP2 ADD SLOAD SWAP1 SWAP2 SWAP1 PUSH1 0x64 SWAP1 PUSH2 0x2FD4 SWAP1 PUSH1 0x32 PUSH2 0x3D69 JUMP JUMPDEST PUSH2 0x2FDE SWAP2 SWAP1 PUSH2 0x3D80 JUMP JUMPDEST PUSH2 0x2FE9 SWAP1 PUSH1 0x1 PUSH2 0x3DA2 JUMP JUMPDEST SWAP1 POP DUP1 DUP3 PUSH1 0x2 ADD SLOAD LT PUSH2 0x3079 JUMPI PUSH1 0x1 PUSH1 0x1 PUSH1 0xA0 SHL SUB DUP4 AND PUSH1 0x0 DUP2 DUP2 MSTORE PUSH1 0x20 DUP2 SWAP1 MSTORE PUSH1 0x40 SWAP1 DUP2 SWAP1 KECCAK256 PUSH1 0x7 ADD DUP1 SLOAD PUSH1 0xFF NOT AND PUSH1 0x1 SWAP1 DUP2 OR SWAP1 SWAP2 SSTORE PUSH1 0x5 DUP6 ADD DUP1 SLOAD PUSH2 0xFFFF NOT AND PUSH2 0x100 OR SWAP1 SSTORE SWAP1 MLOAD PUSH32 0xAC892F9EA2BAC4D143F762134B209DE57EFB94B00C56302AAED590951368EAAC SWAP2 PUSH2 0x306C SWAP2 TIMESTAMP SWAP1 SWAP2 ISZERO ISZERO DUP3 MSTORE PUSH1 0x20 DUP3 ADD MSTORE PUSH1 0x40 ADD SWAP1 JUMP JUMPDEST PUSH1 0x40 MLOAD DUP1 SWAP2 SUB SWAP1 LOG2 POP POP POP JUMP JUMPDEST DUP1 DUP3 PUSH1 0x3 ADD SLOAD LT PUSH2 0x30DA JUMPI PUSH1 0x5 DUP3 ADD DUP1 SLOAD PUSH2 0xFFFF NOT AND PUSH2 0x100 OR SWAP1 SSTORE PUSH1 0x40 DUP1 MLOAD PUSH1 0x0 DUP2 MSTORE TIMESTAMP PUSH1 0x20 DUP3 ADD MSTORE PUSH1 0x1 PUSH1 0x1 PUSH1 0xA0 SHL SUB DUP6 AND SWAP2 PUSH32 0xAC892F9EA2BAC4D143F762134B209DE57EFB94B00C56302AAED590951368EAAC SWAP2 ADD PUSH1 0x40 MLOAD DUP1 SWAP2 SUB SWAP1 LOG2 JUMPDEST POP POP POP JUMP JUMPDEST DUP3 DUP1 SLOAD DUP3 DUP3 SSTORE SWAP1 PUSH1 0x0 MSTORE PUSH1 0x20 PUSH1 0x0 KECCAK256 SWAP1 DUP2 ADD SWAP3 DUP3 ISZERO PUSH2 0x3134 JUMPI SWAP2 PUSH1 0x20 MUL DUP3 ADD JUMPDEST DUP3 DUP2 GT ISZERO PUSH2 0x3134 JUMPI DUP3 MLOAD DUP3 SLOAD PUSH1 0x1 PUSH1 0x1 PUSH1 0xA0 SHL SUB NOT AND PUSH1 0x1 PUSH1 0x1 PUSH1 0xA0 SHL SUB SWAP1 SWAP2 AND OR DUP3 SSTORE PUSH1 0x20 SWAP1 SWAP3 ADD SWAP2 PUSH1 0x1 SWAP1 SWAP2 ADD SWAP1 PUSH2 0x30FF JUMP JUMPDEST POP PUSH2 0x3140 SWAP3 SWAP2 POP PUSH2 0x317F JUMP JUMPDEST POP SWAP1 JUMP JUMPDEST DUP3 DUP1 SLOAD DUP3 DUP3 SSTORE SWAP1 PUSH1 0x0 MSTORE PUSH1 0x20 PUSH1 0x0 KECCAK256 SWAP1 DUP2 ADD SWAP3 DUP3 ISZERO PUSH2 0x3134 JUMPI SWAP2 PUSH1 0x20 MUL DUP3 ADD JUMPDEST DUP3 DUP2 GT ISZERO PUSH2 0x3134 JUMPI DUP3 MLOAD DUP3 SSTORE SWAP2 PUSH1 0x20 ADD SWAP2 SWAP1 PUSH1 0x1 ADD SWAP1 PUSH2 0x3164 JUMP JUMPDEST JUMPDEST DUP1 DUP3 GT ISZERO PUSH2 0x3140 JUMPI PUSH1 0x0 DUP2 SSTORE PUSH1 0x1 ADD PUSH2 0x3180 JUMP JUMPDEST PUSH1 0x0 DUP1 DUP4 PUSH1 0x1F DUP5 ADD SLT PUSH2 0x31A6 JUMPI PUSH1 0x0 DUP1 REVERT JUMPDEST POP DUP2 CALLDATALOAD PUSH1 0x1 PUSH1 0x1 PUSH1 0x40 SHL SUB DUP2 GT ISZERO PUSH2 0x31BD JUMPI PUSH1 0x0 DUP1 REVERT JUMPDEST PUSH1 0x20 DUP4 ADD SWAP2 POP DUP4 PUSH1 0x20 DUP3 DUP6 ADD ADD GT ISZERO PUSH2 0x31D5 JUMPI PUSH1 0x0 DUP1 REVERT JUMPDEST SWAP3 POP SWAP3 SWAP1 POP JUMP JUMPDEST PUSH1 0x0 DUP1 PUSH1 0x0 DUP1 PUSH1 0x0 DUP1 PUSH1 0x0 DUP1 PUSH1 0x0 PUSH1 0xA0 DUP11 DUP13 SUB SLT ISZERO PUSH2 0x31FA JUMPI PUSH1 0x0 DUP1 REVERT JUMPDEST DUP10 CALLDATALOAD PUSH1 0x1 PUSH1 0x1 PUSH1 0x40 SHL SUB DUP1 DUP3 GT ISZERO PUSH2 0x3211 JUMPI PUSH1 0x0 DUP1 REVERT JUMPDEST PUSH2 0x321D DUP14 DUP4 DUP15 ADD PUSH2 0x3194 JUMP JUMPDEST SWAP1 SWAP12 POP SWAP10 POP PUSH1 0x20 DUP13 ADD CALLDATALOAD SWAP2 POP DUP1 DUP3 GT ISZERO PUSH2 0x3236 JUMPI PUSH1 0x0 DUP1 REVERT JUMPDEST PUSH2 0x3242 DUP14 DUP4 DUP15 ADD PUSH2 0x3194 JUMP JUMPDEST SWAP1 SWAP10 POP SWAP8 POP PUSH1 0x40 DUP13 ADD CALLDATALOAD SWAP2 POP DUP1 DUP3 GT ISZERO PUSH2 0x325B JUMPI PUSH1 0x0 DUP1 REVERT JUMPDEST PUSH2 0x3267 DUP14 DUP4 DUP15 ADD PUSH2 0x3194 JUMP JUMPDEST SWAP1 SWAP8 POP SWAP6 POP PUSH1 0x60 DUP13 ADD CALLDATALOAD SWAP2 POP DUP1 DUP3 GT ISZERO PUSH2 0x3280 JUMPI PUSH1 0x0 DUP1 REVERT JUMPDEST POP PUSH2 0x328D DUP13 DUP3 DUP14 ADD PUSH2 0x3194 JUMP JUMPDEST SWAP11 SWAP14 SWAP10 SWAP13 POP SWAP8 SWAP11 SWAP7 SWAP10 SWAP6 SWAP9 SWAP5 SWAP8 SWAP7 PUSH1 0x80 ADD CALLDATALOAD SWAP5 SWAP4 POP POP POP POP JUMP JUMPDEST DUP1 CALLDATALOAD PUSH1 0x1 PUSH1 0x1 PUSH1 0xA0 SHL SUB DUP2 AND DUP2 EQ PUSH2 0x32BE JUMPI PUSH1 0x0 DUP1 REVERT JUMPDEST SWAP2 SWAP1 POP JUMP JUMPDEST PUSH1 0x0 DUP1 PUSH1 0x40 DUP4 DUP6 SUB SLT ISZERO PUSH2 0x32D6 JUMPI PUSH1 0x0 DUP1 REVERT JUMPDEST PUSH2 0x32DF DUP4 PUSH2 0x32A7 JUMP JUMPDEST SWAP2 POP PUSH2 0x32ED PUSH1 0x20 DUP5 ADD PUSH2 0x32A7 JUMP JUMPDEST SWAP1 POP SWAP3 POP SWAP3 SWAP1 POP JUMP JUMPDEST PUSH1 0x0 DUP2 MLOAD DUP1 DUP5 MSTORE PUSH1 0x20 DUP1 DUP6 ADD SWAP5 POP DUP1 DUP5 ADD PUSH1 0x0 JUMPDEST DUP4 DUP2 LT ISZERO PUSH2 0x3326 JUMPI DUP2 MLOAD DUP8 MSTORE SWAP6 DUP3 ADD SWAP6 SWAP1 DUP3 ADD SWAP1 PUSH1 0x1 ADD PUSH2 0x330A JUMP JUMPDEST POP SWAP5 SWAP6 SWAP5 POP POP POP POP POP JUMP JUMPDEST PUSH1 0x20 DUP2 MSTORE PUSH1 0x0 PUSH2 0x1D6C PUSH1 0x20 DUP4 ADD DUP5 PUSH2 0x32F6 JUMP JUMPDEST DUP1 CALLDATALOAD DUP1 ISZERO ISZERO DUP2 EQ PUSH2 0x32BE JUMPI PUSH1 0x0 DUP1 REVERT JUMPDEST PUSH1 0x0 DUP1 DUP4 PUSH1 0x1F DUP5 ADD SLT PUSH2 0x3366 JUMPI PUSH1 0x0 DUP1 REVERT JUMPDEST POP DUP2 CALLDATALOAD PUSH1 0x1 PUSH1 0x1 PUSH1 0x40 SHL SUB DUP2 GT ISZERO PUSH2 0x337D JUMPI PUSH1 0x0 DUP1 REVERT JUMPDEST PUSH1 0x20 DUP4 ADD SWAP2 POP DUP4 PUSH1 0x20 DUP3 PUSH1 0x5 SHL DUP6 ADD ADD GT ISZERO PUSH2 0x31D5 JUMPI PUSH1 0x0 DUP1 REVERT JUMPDEST PUSH1 0x0 DUP1 PUSH1 0x0 DUP1 PUSH1 0x0 DUP1 PUSH1 0x0 DUP1 PUSH1 0x0 DUP1 PUSH1 0x0 DUP1 PUSH1 0xE0 DUP14 DUP16 SUB SLT ISZERO PUSH2 0x33BA JUMPI PUSH1 0x0 DUP1 REVERT JUMPDEST PUSH2 0x33C3 DUP14 PUSH2 0x32A7 JUMP JUMPDEST SWAP12 POP PUSH1 0x1 PUSH1 0x1 PUSH1 0x40 SHL SUB PUSH1 0x20 DUP15 ADD CALLDATALOAD GT ISZERO PUSH2 0x33DD JUMPI PUSH1 0x0 DUP1 REVERT JUMPDEST PUSH2 0x33ED DUP15 PUSH1 0x20 DUP16 ADD CALLDATALOAD DUP16 ADD PUSH2 0x3194 JUMP JUMPDEST SWAP1 SWAP12 POP SWAP10 POP PUSH1 0x1 PUSH1 0x1 PUSH1 0x40 SHL SUB PUSH1 0x40 DUP15 ADD CALLDATALOAD GT ISZERO PUSH2 0x340A JUMPI PUSH1 0x0 DUP1 REVERT JUMPDEST PUSH2 0x341A DUP15 PUSH1 0x40 DUP16 ADD CALLDATALOAD DUP16 ADD PUSH2 0x3194 JUMP JUMPDEST SWAP1 SWAP10 POP SWAP8 POP PUSH1 0x1 PUSH1 0x1 PUSH1 0x40 SHL SUB PUSH1 0x60 DUP15 ADD CALLDATALOAD GT ISZERO PUSH2 0x3437 JUMPI PUSH1 0x0 DUP1 REVERT JUMPDEST PUSH2 0x3447 DUP15 PUSH1 0x60 DUP16 ADD CALLDATALOAD DUP16 ADD PUSH2 0x3194 JUMP JUMPDEST SWAP1 SWAP8 POP SWAP6 POP PUSH1 0x1 PUSH1 0x1 PUSH1 0x40 SHL SUB PUSH1 0x80 DUP15 ADD CALLDATALOAD GT ISZERO PUSH2 0x3464 JUMPI PUSH1 0x0 DUP1 REVERT JUMPDEST PUSH2 0x3474 DUP15 PUSH1 0x80 DUP16 ADD CALLDATALOAD DUP16 ADD PUSH2 0x3194 JUMP JUMPDEST SWAP1 SWAP6 POP SWAP4 POP PUSH2 0x3485 PUSH1 0xA0 DUP15 ADD PUSH2 0x3344 JUMP JUMPDEST SWAP3 POP PUSH1 0x1 PUSH1 0x1 PUSH1 0x40 SHL SUB PUSH1 0xC0 DUP15 ADD CALLDATALOAD GT ISZERO PUSH2 0x349F JUMPI PUSH1 0x0 DUP1 REVERT JUMPDEST PUSH2 0x34AF DUP15 PUSH1 0xC0 DUP16 ADD CALLDATALOAD DUP16 ADD PUSH2 0x3354 JUMP JUMPDEST DUP2 SWAP4 POP DUP1 SWAP3 POP POP POP SWAP3 SWAP6 SWAP9 SWAP12 POP SWAP3 SWAP6 SWAP9 SWAP12 POP SWAP3 SWAP6 SWAP9 SWAP12 JUMP JUMPDEST PUSH1 0x0 DUP1 PUSH1 0x0 DUP1 PUSH1 0x0 DUP1 PUSH1 0x0 DUP1 PUSH1 0x0 PUSH1 0xA0 DUP11 DUP13 SUB SLT ISZERO PUSH2 0x34E5 JUMPI PUSH1 0x0 DUP1 REVERT JUMPDEST PUSH2 0x34EE DUP11 PUSH2 0x32A7 JUMP JUMPDEST SWAP9 POP PUSH1 0x20 DUP11 ADD CALLDATALOAD PUSH1 0x1 PUSH1 0x1 PUSH1 0x40 SHL SUB DUP1 DUP3 GT ISZERO PUSH2 0x350A JUMPI PUSH1 0x0 DUP1 REVERT JUMPDEST PUSH2 0x3516 DUP14 DUP4 DUP15 ADD PUSH2 0x3194 JUMP JUMPDEST SWAP1 SWAP11 POP SWAP9 POP PUSH1 0x40 DUP13 ADD CALLDATALOAD SWAP2 POP DUP1 DUP3 GT ISZERO PUSH2 0x352F JUMPI PUSH1 0x0 DUP1 REVERT JUMPDEST PUSH2 0x353B DUP14 DUP4 DUP15 ADD PUSH2 0x3194 JUMP JUMPDEST SWAP1 SWAP9 POP SWAP7 POP PUSH1 0x60 DUP13 ADD CALLDATALOAD SWAP2 POP DUP1 DUP3 GT ISZERO PUSH2 0x3554 JUMPI PUSH1 0x0 DUP1 REVERT JUMPDEST PUSH2 0x3560 DUP14 DUP4 DUP15 ADD PUSH2 0x3194 JUMP JUMPDEST SWAP1 SWAP7 POP SWAP5 POP PUSH1 0x80 DUP13 ADD CALLDATALOAD SWAP2 POP DUP1 DUP3 GT ISZERO PUSH2 0x3579 JUMPI PUSH1 0x0 DUP1 REVERT JUMPDEST POP PUSH2 0x3586 DUP13 DUP3 DUP14 ADD PUSH2 0x3194 JUMP JUMPDEST SWAP2 POP DUP1 SWAP4 POP POP DUP1 SWAP2 POP POP SWAP3 SWAP6 SWAP9 POP SWAP3 SWAP6 SWAP9 POP SWAP3 SWAP6 SWAP9 JUMP JUMPDEST PUSH1 0x0 PUSH1 0x20 DUP3 DUP5 SUB SLT ISZERO PUSH2 0x35AF JUMPI PUSH1 0x0 DUP1 REVERT JUMPDEST PUSH2 0x1D6C DUP3 PUSH2 0x32A7 JUMP JUMPDEST PUSH1 0x0 DUP1 PUSH1 0x0 DUP1 PUSH1 0x0 DUP1 PUSH1 0x0 DUP1 PUSH1 0x0 PUSH1 0xA0 DUP11 DUP13 SUB SLT ISZERO PUSH2 0x35D6 JUMPI PUSH1 0x0 DUP1 REVERT JUMPDEST DUP10 CALLDATALOAD SWAP9 POP PUSH1 0x20 DUP11 ADD CALLDATALOAD PUSH1 0x1 PUSH1 0x1 PUSH1 0x40 SHL SUB DUP1 DUP3 GT ISZERO PUSH2 0x350A JUMPI PUSH1 0x0 DUP1 REVERT JUMPDEST PUSH1 0x0 DUP1 PUSH1 0x0 DUP1 PUSH1 0x0 DUP1 PUSH1 0x60 DUP8 DUP10 SUB SLT ISZERO PUSH2 0x360D JUMPI PUSH1 0x0 DUP1 REVERT JUMPDEST DUP7 CALLDATALOAD PUSH1 0x1 PUSH1 0x1 PUSH1 0x40 SHL SUB DUP1 DUP3 GT ISZERO PUSH2 0x3624 JUMPI PUSH1 0x0 DUP1 REVERT JUMPDEST PUSH2 0x3630 DUP11 DUP4 DUP12 ADD PUSH2 0x3194 JUMP JUMPDEST SWAP1 SWAP9 POP SWAP7 POP PUSH1 0x20 DUP10 ADD CALLDATALOAD SWAP2 POP DUP1 DUP3 GT ISZERO PUSH2 0x3649 JUMPI PUSH1 0x0 DUP1 REVERT JUMPDEST PUSH2 0x3655 DUP11 DUP4 DUP12 ADD PUSH2 0x3194 JUMP JUMPDEST SWAP1 SWAP7 POP SWAP5 POP PUSH1 0x40 DUP10 ADD CALLDATALOAD SWAP2 POP DUP1 DUP3 GT ISZERO PUSH2 0x366E JUMPI PUSH1 0x0 DUP1 REVERT JUMPDEST POP PUSH2 0x367B DUP10 DUP3 DUP11 ADD PUSH2 0x3194 JUMP JUMPDEST SWAP8 SWAP11 SWAP7 SWAP10 POP SWAP5 SWAP8 POP SWAP3 SWAP6 SWAP4 SWAP5 SWAP3 POP POP POP JUMP JUMPDEST PUSH1 0x0 DUP1 PUSH1 0x40 DUP4 DUP6 SUB SLT ISZERO PUSH2 0x36A0 JUMPI PUSH1 0x0 DUP1 REVERT JUMPDEST POP POP DUP1 CALLDATALOAD SWAP3 PUSH1 0x20 SWAP1 SWAP2 ADD CALLDATALOAD SWAP2 POP JUMP JUMPDEST PUSH1 0x0 DUP2 MLOAD DUP1 DUP5 MSTORE PUSH1 0x0 JUMPDEST DUP2 DUP2 LT ISZERO PUSH2 0x36D5 JUMPI PUSH1 0x20 DUP2 DUP6 ADD DUP2 ADD MLOAD DUP7 DUP4 ADD DUP3 ADD MSTORE ADD PUSH2 0x36B9 JUMP JUMPDEST POP PUSH1 0x0 PUSH1 0x20 DUP3 DUP7 ADD ADD MSTORE PUSH1 0x20 PUSH1 0x1F NOT PUSH1 0x1F DUP4 ADD AND DUP6 ADD ADD SWAP2 POP POP SWAP3 SWAP2 POP POP JUMP JUMPDEST PUSH1 0xA0 DUP2 MSTORE PUSH1 0x0 PUSH2 0x3708 PUSH1 0xA0 DUP4 ADD DUP9 PUSH2 0x36AF JUMP JUMPDEST DUP3 DUP2 SUB PUSH1 0x20 DUP5 ADD MSTORE PUSH2 0x371A DUP2 DUP9 PUSH2 0x36AF JUMP JUMPDEST SWAP1 POP DUP3 DUP2 SUB PUSH1 0x40 DUP5 ADD MSTORE PUSH2 0x372E DUP2 DUP8 PUSH2 0x36AF JUMP JUMPDEST SWAP1 POP DUP3 DUP2 SUB PUSH1 0x60 DUP5 ADD MSTORE PUSH2 0x3742 DUP2 DUP7 PUSH2 0x36AF JUMP JUMPDEST SWAP2 POP POP DUP3 ISZERO ISZERO PUSH1 0x80 DUP4 ADD MSTORE SWAP7 SWAP6 POP POP POP POP POP POP JUMP JUMPDEST PUSH1 0x0 PUSH1 0x20 DUP3 DUP5 SUB SLT ISZERO PUSH2 0x3769 JUMPI PUSH1 0x0 DUP1 REVERT JUMPDEST POP CALLDATALOAD SWAP2 SWAP1 POP JUMP JUMPDEST PUSH1 0x0 DUP2 MLOAD DUP1 DUP5 MSTORE PUSH1 0x20 DUP1 DUP6 ADD SWAP5 POP DUP1 DUP5 ADD PUSH1 0x0 JUMPDEST DUP4 DUP2 LT ISZERO PUSH2 0x3326 JUMPI DUP2 MLOAD PUSH1 0x1 PUSH1 0x1 PUSH1 0xA0 SHL SUB AND DUP8 MSTORE SWAP6 DUP3 ADD SWAP6 SWAP1 DUP3 ADD SWAP1 PUSH1 0x1 ADD PUSH2 0x3784 JUMP JUMPDEST PUSH1 0x20 DUP2 MSTORE PUSH1 0x0 PUSH2 0x1D6C PUSH1 0x20 DUP4 ADD DUP5 PUSH2 0x3770 JUMP JUMPDEST PUSH1 0x0 DUP1 PUSH1 0x40 DUP4 DUP6 SUB SLT ISZERO PUSH2 0x37CF JUMPI PUSH1 0x0 DUP1 REVERT JUMPDEST PUSH2 0x37D8 DUP4 PUSH2 0x32A7 JUMP JUMPDEST SWAP2 POP PUSH2 0x32ED PUSH1 0x20 DUP5 ADD PUSH2 0x3344 JUMP JUMPDEST PUSH1 0x0 DUP1 PUSH1 0x40 DUP4 DUP6 SUB SLT ISZERO PUSH2 0x37F9 JUMPI PUSH1 0x0 DUP1 REVERT JUMPDEST DUP3 CALLDATALOAD SWAP2 POP PUSH2 0x32ED PUSH1 0x20 DUP5 ADD PUSH2 0x32A7 JUMP JUMPDEST PUSH1 0x1 PUSH1 0x1 PUSH1 0xA0 SHL SUB DUP10 AND DUP2 MSTORE PUSH2 0x100 PUSH1 0x20 DUP3 ADD DUP2 SWAP1 MSTORE PUSH1 0x0 SWAP1 PUSH2 0x382E DUP4 DUP3 ADD DUP12 PUSH2 0x36AF JUMP JUMPDEST SWAP1 POP DUP3 DUP2 SUB PUSH1 0x40 DUP5 ADD MSTORE PUSH2 0x3842 DUP2 DUP11 PUSH2 0x36AF JUMP JUMPDEST SWAP1 POP DUP3 DUP2 SUB PUSH1 0x60 DUP5 ADD MSTORE PUSH2 0x3856 DUP2 DUP10 PUSH2 0x36AF JUMP JUMPDEST SWAP1 POP DUP3 DUP2 SUB PUSH1 0x80 DUP5 ADD MSTORE PUSH2 0x386A DUP2 DUP9 PUSH2 0x36AF JUMP JUMPDEST SWAP6 ISZERO ISZERO PUSH1 0xA0 DUP5 ADD MSTORE POP POP SWAP2 ISZERO ISZERO PUSH1 0xC0 DUP4 ADD MSTORE ISZERO ISZERO PUSH1 0xE0 SWAP1 SWAP2 ADD MSTORE SWAP6 SWAP5 POP POP POP POP POP JUMP JUMPDEST PUSH1 0x0 PUSH2 0x120 DUP12 DUP4 MSTORE DUP1 PUSH1 0x20 DUP5 ADD MSTORE PUSH2 0x38A7 DUP2 DUP5 ADD DUP13 PUSH2 0x36AF JUMP JUMPDEST PUSH1 0x1 PUSH1 0x1 PUSH1 0xA0 SHL SUB DUP12 AND PUSH1 0x40 DUP6 ADD MSTORE DUP10 ISZERO ISZERO PUSH1 0x60 DUP6 ADD MSTORE DUP4 DUP2 SUB PUSH1 0x80 DUP6 ADD MSTORE SWAP1 POP PUSH2 0x38D2 DUP2 DUP10 PUSH2 0x36AF JUMP JUMPDEST SWAP1 POP DUP3 DUP2 SUB PUSH1 0xA0 DUP5 ADD MSTORE PUSH2 0x38E6 DUP2 DUP9 PUSH2 0x36AF JUMP JUMPDEST SWAP1 POP DUP3 DUP2 SUB PUSH1 0xC0 DUP5 ADD MSTORE PUSH2 0x38FA DUP2 DUP8 PUSH2 0x32F6 JUMP JUMPDEST SWAP1 POP DUP3 DUP2 SUB PUSH1 0xE0 DUP5 ADD MSTORE PUSH2 0x390E DUP2 DUP7 PUSH2 0x3770 JUMP JUMPDEST SWAP2 POP POP DUP3 ISZERO ISZERO PUSH2 0x100 DUP4 ADD MSTORE SWAP11 SWAP10 POP POP POP POP POP POP POP POP POP POP JUMP JUMPDEST PUSH1 0xC0 DUP2 MSTORE PUSH1 0x0 PUSH2 0x393B PUSH1 0xC0 DUP4 ADD DUP10 PUSH2 0x36AF JUMP JUMPDEST DUP3 DUP2 SUB PUSH1 0x20 DUP5 ADD MSTORE PUSH2 0x394D DUP2 DUP10 PUSH2 0x36AF JUMP JUMPDEST PUSH1 0x40 DUP5 ADD SWAP8 SWAP1 SWAP8 MSTORE POP POP PUSH1 0x60 DUP2 ADD SWAP4 SWAP1 SWAP4 MSTORE SWAP1 ISZERO ISZERO PUSH1 0x80 DUP4 ADD MSTORE ISZERO ISZERO PUSH1 0xA0 SWAP1 SWAP2 ADD MSTORE SWAP3 SWAP2 POP POP JUMP JUMPDEST PUSH4 0x4E487B71 PUSH1 0xE0 SHL PUSH1 0x0 MSTORE PUSH1 0x41 PUSH1 0x4 MSTORE PUSH1 0x24 PUSH1 0x0 REVERT JUMPDEST PUSH1 0x1 DUP2 DUP2 SHR SWAP1 DUP3 AND DUP1 PUSH2 0x399F JUMPI PUSH1 0x7F DUP3 AND SWAP2 POP JUMPDEST PUSH1 0x20 DUP3 LT DUP2 SUB PUSH2 0x39BF JUMPI PUSH4 0x4E487B71 PUSH1 0xE0 SHL PUSH1 0x0 MSTORE PUSH1 0x22 PUSH1 0x4 MSTORE PUSH1 0x24 PUSH1 0x0 REVERT JUMPDEST POP SWAP2 SWAP1 POP JUMP JUMPDEST PUSH1 0x1F DUP3 GT ISZERO PUSH2 0x30DA JUMPI PUSH1 0x0 DUP2 DUP2 MSTORE PUSH1 0x20 DUP2 KECCAK256 PUSH1 0x1F DUP6 ADD PUSH1 0x5 SHR DUP2 ADD PUSH1 0x20 DUP7 LT ISZERO PUSH2 0x39EC JUMPI POP DUP1 JUMPDEST PUSH1 0x1F DUP6 ADD PUSH1 0x5 SHR DUP3 ADD SWAP2 POP JUMPDEST DUP2 DUP2 LT ISZERO PUSH2 0x3A0B JUMPI DUP3 DUP2 SSTORE PUSH1 0x1 ADD PUSH2 0x39F8 JUMP JUMPDEST POP POP POP POP POP POP JUMP JUMPDEST DUP2 MLOAD PUSH1 0x1 PUSH1 0x1 PUSH1 0x40 SHL SUB DUP2 GT ISZERO PUSH2 0x3A2C JUMPI PUSH2 0x3A2C PUSH2 0x3975 JUMP JUMPDEST PUSH2 0x3A40 DUP2 PUSH2 0x3A3A DUP5 SLOAD PUSH2 0x398B JUMP JUMPDEST DUP5 PUSH2 0x39C5 JUMP JUMPDEST PUSH1 0x20 DUP1 PUSH1 0x1F DUP4 GT PUSH1 0x1 DUP2 EQ PUSH2 0x3A75 JUMPI PUSH1 0x0 DUP5 ISZERO PUSH2 0x3A5D JUMPI POP DUP6 DUP4 ADD MLOAD JUMPDEST PUSH1 0x0 NOT PUSH1 0x3 DUP7 SWAP1 SHL SHR NOT AND PUSH1 0x1 DUP6 SWAP1 SHL OR DUP6 SSTORE PUSH2 0x3A0B JUMP JUMPDEST PUSH1 0x0 DUP6 DUP2 MSTORE PUSH1 0x20 DUP2 KECCAK256 PUSH1 0x1F NOT DUP7 AND SWAP2 JUMPDEST DUP3 DUP2 LT ISZERO PUSH2 0x3AA4 JUMPI DUP9 DUP7 ADD MLOAD DUP3 SSTORE SWAP5 DUP5 ADD SWAP5 PUSH1 0x1 SWAP1 SWAP2 ADD SWAP1 DUP5 ADD PUSH2 0x3A85 JUMP JUMPDEST POP DUP6 DUP3 LT ISZERO PUSH2 0x3AC2 JUMPI DUP8 DUP6 ADD MLOAD PUSH1 0x0 NOT PUSH1 0x3 DUP9 SWAP1 SHL PUSH1 0xF8 AND SHR NOT AND DUP2 SSTORE JUMPDEST POP POP POP POP POP PUSH1 0x1 SWAP1 DUP2 SHL ADD SWAP1 SSTORE POP JUMP JUMPDEST DUP2 DUP4 MSTORE DUP2 DUP2 PUSH1 0x20 DUP6 ADD CALLDATACOPY POP PUSH1 0x0 DUP3 DUP3 ADD PUSH1 0x20 SWAP1 DUP2 ADD SWAP2 SWAP1 SWAP2 MSTORE PUSH1 0x1F SWAP1 SWAP2 ADD PUSH1 0x1F NOT AND SWAP1 SWAP2 ADD ADD SWAP1 JUMP JUMPDEST PUSH1 0x40 DUP2 MSTORE PUSH1 0x0 PUSH2 0x3B0F PUSH1 0x40 DUP4 ADD DUP7 DUP9 PUSH2 0x3AD2 JUMP JUMPDEST DUP3 DUP2 SUB PUSH1 0x20 DUP5 ADD MSTORE PUSH2 0x3B22 DUP2 DUP6 DUP8 PUSH2 0x3AD2 JUMP JUMPDEST SWAP8 SWAP7 POP POP POP POP POP POP POP JUMP JUMPDEST PUSH1 0x20 DUP1 DUP3 MSTORE PUSH1 0x14 SWAP1 DUP3 ADD MSTORE PUSH20 0x13DDDB995C881B9BDD081C9959DA5CDD195C9959 PUSH1 0x62 SHL PUSH1 0x40 DUP3 ADD MSTORE PUSH1 0x60 ADD SWAP1 JUMP JUMPDEST PUSH4 0x4E487B71 PUSH1 0xE0 SHL PUSH1 0x0 MSTORE PUSH1 0x32 PUSH1 0x4 MSTORE PUSH1 0x24 PUSH1 0x0 REVERT JUMPDEST PUSH1 0x20 DUP1 DUP3 MSTORE PUSH1 0x14 SWAP1 DUP3 ADD MSTORE PUSH20 0x15985D5B1D08191BD95CC81B9BDD08195E1A5CDD PUSH1 0x62 SHL PUSH1 0x40 DUP3 ADD MSTORE PUSH1 0x60 ADD SWAP1 JUMP JUMPDEST PUSH1 0x20 DUP1 DUP3 MSTORE PUSH1 0xF SWAP1 DUP3 ADD MSTORE PUSH15 0x2737BA103B30BAB63A1037BBB732B9 PUSH1 0x89 SHL PUSH1 0x40 DUP3 ADD MSTORE PUSH1 0x60 ADD SWAP1 JUMP JUMPDEST PUSH4 0x4E487B71 PUSH1 0xE0 SHL PUSH1 0x0 MSTORE PUSH1 0x11 PUSH1 0x4 MSTORE PUSH1 0x24 PUSH1 0x0 REVERT JUMPDEST PUSH1 0x0 PUSH1 0x1 DUP3 ADD PUSH2 0x3BF0 JUMPI PUSH2 0x3BF0 PUSH2 0x3BC8 JUMP JUMPDEST POP PUSH1 0x1 ADD SWAP1 JUMP JUMPDEST PUSH1 0x60 DUP2 MSTORE PUSH1 0x0 PUSH2 0x3C0B PUSH1 0x60 DUP4 ADD DUP8 DUP10 PUSH2 0x3AD2 JUMP JUMPDEST DUP3 DUP2 SUB PUSH1 0x20 DUP5 ADD MSTORE PUSH2 0x3C1E DUP2 DUP7 DUP9 PUSH2 0x3AD2 JUMP JUMPDEST SWAP2 POP POP DUP3 ISZERO ISZERO PUSH1 0x40 DUP4 ADD MSTORE SWAP7 SWAP6 POP POP POP POP POP POP JUMP JUMPDEST PUSH1 0x20 DUP1 DUP3 MSTORE PUSH1 0x1B SWAP1 DUP3 ADD MSTORE PUSH32 0x4E6F74206120636F6E74616374206F662074686973206F776E65720000000000 PUSH1 0x40 DUP3 ADD MSTORE PUSH1 0x60 ADD SWAP1 JUMP JUMPDEST PUSH1 0x1 PUSH1 0x1 PUSH1 0x40 SHL SUB DUP4 GT ISZERO PUSH2 0x3C81 JUMPI PUSH2 0x3C81 PUSH2 0x3975 JUMP JUMPDEST PUSH2 0x3C95 DUP4 PUSH2 0x3C8F DUP4 SLOAD PUSH2 0x398B JUMP JUMPDEST DUP4 PUSH2 0x39C5 JUMP JUMPDEST PUSH1 0x0 PUSH1 0x1F DUP5 GT PUSH1 0x1 DUP2 EQ PUSH2 0x3CC9 JUMPI PUSH1 0x0 DUP6 ISZERO PUSH2 0x3CB1 JUMPI POP DUP4 DUP3 ADD CALLDATALOAD JUMPDEST PUSH1 0x0 NOT PUSH1 0x3 DUP8 SWAP1 SHL SHR NOT AND PUSH1 0x1 DUP7 SWAP1 SHL OR DUP4 SSTORE PUSH2 0x3D23 JUMP JUMPDEST PUSH1 0x0 DUP4 DUP2 MSTORE PUSH1 0x20 SWAP1 KECCAK256 PUSH1 0x1F NOT DUP7 AND SWAP1 DUP4 JUMPDEST DUP3 DUP2 LT ISZERO PUSH2 0x3CFA JUMPI DUP7 DUP6 ADD CALLDATALOAD DUP3 SSTORE PUSH1 0x20 SWAP5 DUP6 ADD SWAP5 PUSH1 0x1 SWAP1 SWAP3 ADD SWAP2 ADD PUSH2 0x3CDA JUMP JUMPDEST POP DUP7 DUP3 LT ISZERO PUSH2 0x3D17 JUMPI PUSH1 0x0 NOT PUSH1 0xF8 DUP9 PUSH1 0x3 SHL AND SHR NOT DUP5 DUP8 ADD CALLDATALOAD AND DUP2 SSTORE JUMPDEST POP POP PUSH1 0x1 DUP6 PUSH1 0x1 SHL ADD DUP4 SSTORE JUMPDEST POP POP POP POP POP JUMP JUMPDEST DUP4 DUP2 MSTORE PUSH1 0x40 PUSH1 0x20 DUP3 ADD MSTORE PUSH1 0x0 PUSH2 0x3D44 PUSH1 0x40 DUP4 ADD DUP5 DUP7 PUSH2 0x3AD2 JUMP JUMPDEST SWAP6 SWAP5 POP POP POP POP POP JUMP JUMPDEST PUSH1 0x20 DUP2 MSTORE PUSH1 0x0 PUSH2 0x3D61 PUSH1 0x20 DUP4 ADD DUP5 DUP7 PUSH2 0x3AD2 JUMP JUMPDEST SWAP5 SWAP4 POP POP POP POP JUMP JUMPDEST DUP1 DUP3 MUL DUP2 ISZERO DUP3 DUP3 DIV DUP5 EQ OR PUSH2 0x8A3 JUMPI PUSH2 0x8A3 PUSH2 0x3BC8 JUMP JUMPDEST PUSH1 0x0 DUP3 PUSH2 0x3D9D JUMPI PUSH4 0x4E487B71 PUSH1 0xE0 SHL PUSH1 0x0 MSTORE PUSH1 0x12 PUSH1 0x4 MSTORE PUSH1 0x24 PUSH1 0x0 REVERT JUMPDEST POP DIV SWAP1 JUMP JUMPDEST DUP1 DUP3 ADD DUP1 DUP3 GT ISZERO PUSH2 0x8A3 JUMPI PUSH2 0x8A3 PUSH2 0x3BC8 JUMP INVALID LOG2 PUSH5 0x6970667358 0x22 SLT KECCAK256 PUSH23 0x578B168C52EA7C4CBE35B3CF1F77402CFFD856075798C8 GASPRICE PUSH13 0xE30EE63DC41F64736F6C634300 ADDMOD SGT STOP CALLER "
        },
        "methodIdentifiers": {
          "addContact(address,string,string,string,string,bool,uint256[])": "1fe7fe7e",
          "addVaultFile(uint256,string,string,string,string)": "329a5ac0",
          "authorizeVaultContact(uint256,address)": "7366252c",
          "createVault(string,string,string)": "33587dc4",
          "declareDeceased(address)": "abc22bbe",
          "getContactAuthorizedVaults(address,address)": "1d2f4368",
          "getContactInfo(address,address)": "60f490f7",
          "getContactList(address)": "b385faa8",
          "getDeathDeclarationStatus(address)": "996e6ca1",
          "getOwnerInfo(address)": "d385de82",
          "getOwnerVaultList(address)": "2fda53e7",
          "getVaultAuthorizedContacts(uint256)": "490f0eba",
          "getVaultFileInfo(uint256,uint256)": "3bfb14f5",
          "getVaultFileList(uint256)": "75843618",
          "getVaultInfo(uint256)": "b1ba9620",
          "getVote(address,address)": "5ab4f162",
          "hasVoted(address,address)": "4d4d2b1c",
          "isVaultAuthorized(uint256,address)": "52e20c4f",
          "registerOwner(string,string,string,string,uint256)": "0accc75d",
          "releaseVault(uint256)": "b2b2baed",
          "sendHeartbeat()": "34f167a9",
          "updateContactInfo(address,string,string,string,string)": "2c8bc50b",
          "verifyContact(address)": "6880f137",
          "voteOnDeathDeclaration(address,bool)": "4e8e32b5"
        }
      }
    }
  }
}