{
  "contracts/automations/GracePeriodAutomation.sol": {
    "GracePeriodAutomation": {
      "abi": [
        {
          "inputs": [
            {
              "internalType": "address",
              "name": "_relayAddress",
              "type": "address"
            }
          ],
          "stateMutability": "nonpayable",
          "type": "constructor"
        },
        {
          "anonymous": false,
          "inputs": [
            {
              "indexed": true,
              "internalType": "address",
              "name": "ownerAddress",
              "type": "address"
            },
            {
              "indexed": false,
              "internalType": "bool",
              "name": "isDead",
              "type": "bool"
            },
            {
              "indexed": false,
              "internalType": "uint256",
              "name": "processTime",
              "type": "uint256"
            }
          ],
          "name": "GracePeriodProcessed",
          "type": "event"
        },
        {
          "anonymous": false,
          "inputs": [
            {
              "indexed": true,
              "internalType": "address",
              "name": "ownerAddress",
              "type": "address"
            },
            {
              "indexed": false,
              "internalType": "uint256",
              "name": "startTime",
              "type": "uint256"
            },
            {
              "indexed": false,
              "internalType": "uint256",
              "name": "graceInterval",
              "type": "uint256"
            }
          ],
          "name": "GracePeriodStarted",
          "type": "event"
        },
        {
          "anonymous": false,
          "inputs": [
            {
              "indexed": true,
              "internalType": "address",
              "name": "ownerAddress",
              "type": "address"
            },
            {
              "indexed": false,
              "internalType": "uint256",
              "name": "graceInterval",
              "type": "uint256"
            },
            {
              "indexed": false,
              "internalType": "bool",
              "name": "isDeceased",
              "type": "bool"
            }
          ],
          "name": "OwnerDataUpdated",
          "type": "event"
        },
        {
          "anonymous": false,
          "inputs": [
            {
              "indexed": true,
              "internalType": "address",
              "name": "ownerAddress",
              "type": "address"
            },
            {
              "indexed": false,
              "internalType": "uint256",
              "name": "pingTime",
              "type": "uint256"
            }
          ],
          "name": "OwnerPinged",
          "type": "event"
        },
        {
          "anonymous": false,
          "inputs": [
            {
              "indexed": true,
              "internalType": "address",
              "name": "oldRelay",
              "type": "address"
            },
            {
              "indexed": true,
              "internalType": "address",
              "name": "newRelay",
              "type": "address"
            }
          ],
          "name": "RelayAddressUpdated",
          "type": "event"
        },
        {
          "inputs": [
            {
              "internalType": "address",
              "name": "ownerAddress",
              "type": "address"
            }
          ],
          "name": "checkGracePeriodEnd",
          "outputs": [
            {
              "internalType": "bool",
              "name": "hasEnded",
              "type": "bool"
            },
            {
              "internalType": "uint256",
              "name": "endTime",
              "type": "uint256"
            }
          ],
          "stateMutability": "view",
          "type": "function"
        },
        {
          "inputs": [
            {
              "internalType": "bytes",
              "name": "checkData",
              "type": "bytes"
            }
          ],
          "name": "checkUpkeep",
          "outputs": [
            {
              "internalType": "bool",
              "name": "upkeepNeeded",
              "type": "bool"
            },
            {
              "internalType": "bytes",
              "name": "performData",
              "type": "bytes"
            }
          ],
          "stateMutability": "view",
          "type": "function"
        },
        {
          "inputs": [
            {
              "internalType": "address",
              "name": "ownerAddress",
              "type": "address"
            }
          ],
          "name": "getOwnerData",
          "outputs": [
            {
              "internalType": "uint256",
              "name": "graceInterval",
              "type": "uint256"
            },
            {
              "internalType": "bool",
              "name": "isDeceased",
              "type": "bool"
            },
            {
              "internalType": "bool",
              "name": "exists",
              "type": "bool"
            },
            {
              "internalType": "uint256",
              "name": "lastUpdate",
              "type": "uint256"
            }
          ],
          "stateMutability": "view",
          "type": "function"
        },
        {
          "inputs": [
            {
              "internalType": "address",
              "name": "",
              "type": "address"
            }
          ],
          "name": "gracePeriodStart",
          "outputs": [
            {
              "internalType": "uint256",
              "name": "",
              "type": "uint256"
            }
          ],
          "stateMutability": "view",
          "type": "function"
        },
        {
          "inputs": [
            {
              "internalType": "address",
              "name": "",
              "type": "address"
            }
          ],
          "name": "hasPinged",
          "outputs": [
            {
              "internalType": "bool",
              "name": "",
              "type": "bool"
            }
          ],
          "stateMutability": "view",
          "type": "function"
        },
        {
          "inputs": [
            {
              "internalType": "address",
              "name": "",
              "type": "address"
            }
          ],
          "name": "ownerDataCache",
          "outputs": [
            {
              "internalType": "uint256",
              "name": "graceInterval",
              "type": "uint256"
            },
            {
              "internalType": "bool",
              "name": "isDeceased",
              "type": "bool"
            },
            {
              "internalType": "bool",
              "name": "exists",
              "type": "bool"
            },
            {
              "internalType": "uint256",
              "name": "lastUpdate",
              "type": "uint256"
            }
          ],
          "stateMutability": "view",
          "type": "function"
        },
        {
          "inputs": [
            {
              "internalType": "bytes",
              "name": "performData",
              "type": "bytes"
            }
          ],
          "name": "performUpkeep",
          "outputs": [],
          "stateMutability": "nonpayable",
          "type": "function"
        },
        {
          "inputs": [
            {
              "internalType": "address",
              "name": "",
              "type": "address"
            }
          ],
          "name": "processedGracePeriod",
          "outputs": [
            {
              "internalType": "bool",
              "name": "",
              "type": "bool"
            }
          ],
          "stateMutability": "view",
          "type": "function"
        },
        {
          "inputs": [
            {
              "internalType": "address",
              "name": "ownerAddress",
              "type": "address"
            }
          ],
          "name": "recordPing",
          "outputs": [],
          "stateMutability": "nonpayable",
          "type": "function"
        },
        {
          "inputs": [],
          "name": "relayAddress",
          "outputs": [
            {
              "internalType": "address",
              "name": "",
              "type": "address"
            }
          ],
          "stateMutability": "view",
          "type": "function"
        },
        {
          "inputs": [
            {
              "internalType": "address",
              "name": "ownerAddress",
              "type": "address"
            }
          ],
          "name": "startGracePeriod",
          "outputs": [],
          "stateMutability": "nonpayable",
          "type": "function"
        },
        {
          "inputs": [
            {
              "internalType": "address",
              "name": "ownerAddress",
              "type": "address"
            },
            {
              "internalType": "uint256",
              "name": "graceInterval",
              "type": "uint256"
            },
            {
              "internalType": "bool",
              "name": "isDeceased",
              "type": "bool"
            },
            {
              "internalType": "bool",
              "name": "exists",
              "type": "bool"
            }
          ],
          "name": "updateOwnerData",
          "outputs": [],
          "stateMutability": "nonpayable",
          "type": "function"
        },
        {
          "inputs": [
            {
              "internalType": "address",
              "name": "_newRelayAddress",
              "type": "address"
            }
          ],
          "name": "updateRelayAddress",
          "outputs": [],
          "stateMutability": "nonpayable",
          "type": "function"
        }
      ],
      "evm": {
        "bytecode": {
          "linkReferences": {},
          "object": "608060405234801561001057600080fd5b50604051610f87380380610f8783398101604081905261002f91610054565b600080546001600160a01b0319166001600160a01b0392909216919091179055610084565b60006020828403121561006657600080fd5b81516001600160a01b038116811461007d57600080fd5b9392505050565b610ef4806100936000396000f3fe608060405234801561001057600080fd5b50600436106100cf5760003560e01c80638a6481841161008c578063be45f04111610066578063be45f041146101fe578063d7c8377414610211578063e6b962a914610234578063f2d56925146102c657600080fd5b80638a648184146101965780639e733e62146101c1578063a3fc970c146101eb57600080fd5b80630557605c146100d457806312f2bf181461010c57806336a76238146101215780634585e33b1461014f5780634ee1b6d8146101625780636e04ff0d14610175575b600080fd5b6100f76100e2366004610c9f565b60036020526000908152604090205460ff1681565b60405190151581526020015b60405180910390f35b61011f61011a366004610c9f565b610302565b005b61014161012f366004610c9f565b60016020526000908152604090205481565b604051908152602001610103565b61011f61015d366004610cc3565b6104da565b61011f610170366004610c9f565b610736565b610188610183366004610cc3565b6107b0565b604051610103929190610d35565b6000546101a9906001600160a01b031681565b6040516001600160a01b039091168152602001610103565b6101d46101cf366004610c9f565b61097d565b604080519215158352602083019190915201610103565b61011f6101f9366004610c9f565b610a1c565b61011f61020c366004610da2565b610ba7565b6100f761021f366004610c9f565b60026020526000908152604090205460ff1681565b6102a0610242366004610c9f565b6001600160a01b031660009081526004602090815260409182902082516080810184528154808252600183015460ff808216151595840186905261010090910416151594820185905260029092015460609091018190529093919291565b604080519485529215156020850152901515918301919091526060820152608001610103565b6102a06102d4366004610c9f565b600460205260009081526040902080546001820154600290920154909160ff80821692610100909204169084565b6000546001600160a01b031633146103355760405162461bcd60e51b815260040161032c90610df1565b60405180910390fd5b6001600160a01b038116600090815260046020526040902060010154610100900460ff166103755760405162461bcd60e51b815260040161032c90610e32565b6001600160a01b03811660009081526004602052604090206001015460ff16156103b15760405162461bcd60e51b815260040161032c90610e60565b6001600160a01b0381166000908152600160205260409020546104115760405162461bcd60e51b815260206004820152601860248201527711dc9858d9481c195c9a5bd9081b9bdd081cdd185c9d195960421b604482015260640161032c565b6001600160a01b03811660009081526003602052604090205460ff161561047a5760405162461bcd60e51b815260206004820152601e60248201527f477261636520706572696f6420616c72656164792070726f6365737365640000604482015260640161032c565b6001600160a01b03811660008181526002602052604090819020805460ff19166001179055517f1c33176e53a5ea7e802680f4a7a824697927a65c4c046e6939d569f07c8446ee906104cf9042815260200190565b60405180910390a250565b60006104e882840184610c9f565b6001600160a01b038116600090815260046020908152604091829020825160808101845281548152600182015460ff8082161515948301949094526101009004909216151592820183905260020154606082015291925061055b5760405162461bcd60e51b815260040161032c90610e32565b80602001511561057d5760405162461bcd60e51b815260040161032c90610e60565b6001600160a01b0382166000908152600160205260409020546105dd5760405162461bcd60e51b815260206004820152601860248201527711dc9858d9481c195c9a5bd9081b9bdd081cdd185c9d195960421b604482015260640161032c565b6001600160a01b03821660009081526003602052604090205460ff16156106465760405162461bcd60e51b815260206004820152601e60248201527f477261636520706572696f6420616c72656164792070726f6365737365640000604482015260640161032c565b80516001600160a01b038316600090815260016020526040812054909161066c91610e97565b9050804210156106be5760405162461bcd60e51b815260206004820152601960248201527f477261636520706572696f64206e6f7420796574206f76657200000000000000604482015260640161032c565b6001600160a01b0383166000818152600360209081526040808320805460ff19166001179055600282529182902054825160ff9091161580825242928201929092529092917f073b02415c6b09933e21630f00df65beeec8f81533ef3533c4f1c76befbd2d1c910160405180910390a2505050505050565b6000546001600160a01b031633146107605760405162461bcd60e51b815260040161032c90610df1565b600080546001600160a01b038381166001600160a01b0319831681178455604051919092169283917f795a939fe2a728b07190f9bfb4773c10babe8459cc80e2482596dad3077a2d329190a35050565b600060608282036107d35750506040805160208101909152600080825290610976565b60006107e184860186610c9f565b6001600160a01b038116600090815260046020908152604091829020825160808101845281548152600182015460ff80821615159483019490945261010090049092161580159383019390935260020154606082015291925080610846575080602001515b1561086857600060405180602001604052806000815250935093505050610976565b6001600160a01b03821660009081526001602052604081205490036108a457600060405180602001604052806000815250935093505050610976565b6001600160a01b03821660009081526003602052604090205460ff16156108e257600060405180602001604052806000815250935093505050610976565b80516001600160a01b038316600090815260016020526040812054909161090891610e97565b905080421061095c576001878781818080601f016020809104026020016040519081016040528093929190818152602001838380828437600092019190915250959a50919850610976975050505050505050565b600060405180602001604052806000815250945094505050505b9250929050565b6001600160a01b038116600090815260016020526040812054819081036109a957506000928392509050565b6001600160a01b03831660008181526004602090815260408083208151608081018352815480825260018084015460ff80821615158589015261010090910416151583860152600290930154606083015295855292528220549092610a0d91610e97565b42811115969095509350505050565b6000546001600160a01b03163314610a465760405162461bcd60e51b815260040161032c90610df1565b6001600160a01b038116600090815260046020526040902060010154610100900460ff16610a865760405162461bcd60e51b815260040161032c90610e32565b6001600160a01b03811660009081526004602052604090206001015460ff1615610ac25760405162461bcd60e51b815260040161032c90610e60565b6001600160a01b03811660009081526001602052604090205415610b285760405162461bcd60e51b815260206004820152601c60248201527f477261636520706572696f6420616c7265616479207374617274656400000000604482015260640161032c565b6001600160a01b0381166000818152600160209081526040808320429081905560028352818420805460ff1990811690915560038452828520805490911690556004909252918290205491517f674b29eac3f8db4186c76e9429fa4d70125d68fed7b9a0d862732a7d2fcf4e36926104cf928252602082015260400190565b6000546001600160a01b03163314610bd15760405162461bcd60e51b815260040161032c90610df1565b60408051608081018252848152831515602080830182815285151584860190815242606086019081526001600160a01b038b16600081815260048652889020965187559251600187018054935115156101000261ff00199215159290921661ffff1990941693909317179091555160029094019390935583518781529081019190915290917f66e28817e51b6c4e9afa9adf864bc03e8bef5ccd353f844abb70fc603e361d68910160405180910390a250505050565b6001600160a01b0381168114610c9c57600080fd5b50565b600060208284031215610cb157600080fd5b8135610cbc81610c87565b9392505050565b60008060208385031215610cd657600080fd5b823567ffffffffffffffff80821115610cee57600080fd5b818501915085601f830112610d0257600080fd5b813581811115610d1157600080fd5b866020828501011115610d2357600080fd5b60209290920196919550909350505050565b821515815260006020604081840152835180604085015260005b81811015610d6b57858101830151858201606001528201610d4f565b506000606082860101526060601f19601f830116850101925050509392505050565b80358015158114610d9d57600080fd5b919050565b60008060008060808587031215610db857600080fd5b8435610dc381610c87565b935060208501359250610dd860408601610d8d565b9150610de660608601610d8d565b905092959194509250565b60208082526021908201527f4f6e6c792072656c61792063616e2063616c6c20746869732066756e6374696f6040820152603760f91b606082015260800190565b60208082526014908201527313dddb995c88191bd95cc81b9bdd08195e1a5cdd60621b604082015260600190565b60208082526019908201527f4f776e657220697320616c726561647920646563656173656400000000000000604082015260600190565b80820180821115610eb857634e487b7160e01b600052601160045260246000fd5b9291505056fea2646970667358221220263091d05355561b6f0b536836ace66806002d8ab420b60d86137951c4207bfd64736f6c63430008130033",
          "opcodes": "PUSH1 0x80 PUSH1 0x40 MSTORE CALLVALUE DUP1 ISZERO PUSH2 0x10 JUMPI PUSH1 0x0 DUP1 REVERT JUMPDEST POP PUSH1 0x40 MLOAD PUSH2 0xF87 CODESIZE SUB DUP1 PUSH2 0xF87 DUP4 CODECOPY DUP2 ADD PUSH1 0x40 DUP2 SWAP1 MSTORE PUSH2 0x2F SWAP2 PUSH2 0x54 JUMP JUMPDEST PUSH1 0x0 DUP1 SLOAD PUSH1 0x1 PUSH1 0x1 PUSH1 0xA0 SHL SUB NOT AND PUSH1 0x1 PUSH1 0x1 PUSH1 0xA0 SHL SUB SWAP3 SWAP1 SWAP3 AND SWAP2 SWAP1 SWAP2 OR SWAP1 SSTORE PUSH2 0x84 JUMP JUMPDEST PUSH1 0x0 PUSH1 0x20 DUP3 DUP5 SUB SLT ISZERO PUSH2 0x66 JUMPI PUSH1 0x0 DUP1 REVERT JUMPDEST DUP2 MLOAD PUSH1 0x1 PUSH1 0x1 PUSH1 0xA0 SHL SUB DUP2 AND DUP2 EQ PUSH2 0x7D JUMPI PUSH1 0x0 DUP1 REVERT JUMPDEST SWAP4 SWAP3 POP POP POP JUMP JUMPDEST PUSH2 0xEF4 DUP1 PUSH2 0x93 PUSH1 0x0 CODECOPY PUSH1 0x0 RETURN INVALID PUSH1 0x80 PUSH1 0x40 MSTORE CALLVALUE DUP1 ISZERO PUSH2 0x10 JUMPI PUSH1 0x0 DUP1 REVERT JUMPDEST POP PUSH1 0x4 CALLDATASIZE LT PUSH2 0xCF JUMPI PUSH1 0x0 CALLDATALOAD PUSH1 0xE0 SHR DUP1 PUSH4 0x8A648184 GT PUSH2 0x8C JUMPI DUP1 PUSH4 0xBE45F041 GT PUSH2 0x66 JUMPI DUP1 PUSH4 0xBE45F041 EQ PUSH2 0x1FE JUMPI DUP1 PUSH4 0xD7C83774 EQ PUSH2 0x211 JUMPI DUP1 PUSH4 0xE6B962A9 EQ PUSH2 0x234 JUMPI DUP1 PUSH4 0xF2D56925 EQ PUSH2 0x2C6 JUMPI PUSH1 0x0 DUP1 REVERT JUMPDEST DUP1 PUSH4 0x8A648184 EQ PUSH2 0x196 JUMPI DUP1 PUSH4 0x9E733E62 EQ PUSH2 0x1C1 JUMPI DUP1 PUSH4 0xA3FC970C EQ PUSH2 0x1EB JUMPI PUSH1 0x0 DUP1 REVERT JUMPDEST DUP1 PUSH4 0x557605C EQ PUSH2 0xD4 JUMPI DUP1 PUSH4 0x12F2BF18 EQ PUSH2 0x10C JUMPI DUP1 PUSH4 0x36A76238 EQ PUSH2 0x121 JUMPI DUP1 PUSH4 0x4585E33B EQ PUSH2 0x14F JUMPI DUP1 PUSH4 0x4EE1B6D8 EQ PUSH2 0x162 JUMPI DUP1 PUSH4 0x6E04FF0D EQ PUSH2 0x175 JUMPI JUMPDEST PUSH1 0x0 DUP1 REVERT JUMPDEST PUSH2 0xF7 PUSH2 0xE2 CALLDATASIZE PUSH1 0x4 PUSH2 0xC9F JUMP JUMPDEST PUSH1 0x3 PUSH1 0x20 MSTORE PUSH1 0x0 SWAP1 DUP2 MSTORE PUSH1 0x40 SWAP1 KECCAK256 SLOAD PUSH1 0xFF AND DUP2 JUMP JUMPDEST PUSH1 0x40 MLOAD SWAP1 ISZERO ISZERO DUP2 MSTORE PUSH1 0x20 ADD JUMPDEST PUSH1 0x40 MLOAD DUP1 SWAP2 SUB SWAP1 RETURN JUMPDEST PUSH2 0x11F PUSH2 0x11A CALLDATASIZE PUSH1 0x4 PUSH2 0xC9F JUMP JUMPDEST PUSH2 0x302 JUMP JUMPDEST STOP JUMPDEST PUSH2 0x141 PUSH2 0x12F CALLDATASIZE PUSH1 0x4 PUSH2 0xC9F JUMP JUMPDEST PUSH1 0x1 PUSH1 0x20 MSTORE PUSH1 0x0 SWAP1 DUP2 MSTORE PUSH1 0x40 SWAP1 KECCAK256 SLOAD DUP2 JUMP JUMPDEST PUSH1 0x40 MLOAD SWAP1 DUP2 MSTORE PUSH1 0x20 ADD PUSH2 0x103 JUMP JUMPDEST PUSH2 0x11F PUSH2 0x15D CALLDATASIZE PUSH1 0x4 PUSH2 0xCC3 JUMP JUMPDEST PUSH2 0x4DA JUMP JUMPDEST PUSH2 0x11F PUSH2 0x170 CALLDATASIZE PUSH1 0x4 PUSH2 0xC9F JUMP JUMPDEST PUSH2 0x736 JUMP JUMPDEST PUSH2 0x188 PUSH2 0x183 CALLDATASIZE PUSH1 0x4 PUSH2 0xCC3 JUMP JUMPDEST PUSH2 0x7B0 JUMP JUMPDEST PUSH1 0x40 MLOAD PUSH2 0x103 SWAP3 SWAP2 SWAP1 PUSH2 0xD35 JUMP JUMPDEST PUSH1 0x0 SLOAD PUSH2 0x1A9 SWAP1 PUSH1 0x1 PUSH1 0x1 PUSH1 0xA0 SHL SUB AND DUP2 JUMP JUMPDEST PUSH1 0x40 MLOAD PUSH1 0x1 PUSH1 0x1 PUSH1 0xA0 SHL SUB SWAP1 SWAP2 AND DUP2 MSTORE PUSH1 0x20 ADD PUSH2 0x103 JUMP JUMPDEST PUSH2 0x1D4 PUSH2 0x1CF CALLDATASIZE PUSH1 0x4 PUSH2 0xC9F JUMP JUMPDEST PUSH2 0x97D JUMP JUMPDEST PUSH1 0x40 DUP1 MLOAD SWAP3 ISZERO ISZERO DUP4 MSTORE PUSH1 0x20 DUP4 ADD SWAP2 SWAP1 SWAP2 MSTORE ADD PUSH2 0x103 JUMP JUMPDEST PUSH2 0x11F PUSH2 0x1F9 CALLDATASIZE PUSH1 0x4 PUSH2 0xC9F JUMP JUMPDEST PUSH2 0xA1C JUMP JUMPDEST PUSH2 0x11F PUSH2 0x20C CALLDATASIZE PUSH1 0x4 PUSH2 0xDA2 JUMP JUMPDEST PUSH2 0xBA7 JUMP JUMPDEST PUSH2 0xF7 PUSH2 0x21F CALLDATASIZE PUSH1 0x4 PUSH2 0xC9F JUMP JUMPDEST PUSH1 0x2 PUSH1 0x20 MSTORE PUSH1 0x0 SWAP1 DUP2 MSTORE PUSH1 0x40 SWAP1 KECCAK256 SLOAD PUSH1 0xFF AND DUP2 JUMP JUMPDEST PUSH2 0x2A0 PUSH2 0x242 CALLDATASIZE PUSH1 0x4 PUSH2 0xC9F JUMP JUMPDEST PUSH1 0x1 PUSH1 0x1 PUSH1 0xA0 SHL SUB AND PUSH1 0x0 SWAP1 DUP2 MSTORE PUSH1 0x4 PUSH1 0x20 SWAP1 DUP2 MSTORE PUSH1 0x40 SWAP2 DUP3 SWAP1 KECCAK256 DUP3 MLOAD PUSH1 0x80 DUP2 ADD DUP5 MSTORE DUP2 SLOAD DUP1 DUP3 MSTORE PUSH1 0x1 DUP4 ADD SLOAD PUSH1 0xFF DUP1 DUP3 AND ISZERO ISZERO SWAP6 DUP5 ADD DUP7 SWAP1 MSTORE PUSH2 0x100 SWAP1 SWAP2 DIV AND ISZERO ISZERO SWAP5 DUP3 ADD DUP6 SWAP1 MSTORE PUSH1 0x2 SWAP1 SWAP3 ADD SLOAD PUSH1 0x60 SWAP1 SWAP2 ADD DUP2 SWAP1 MSTORE SWAP1 SWAP4 SWAP2 SWAP3 SWAP2 JUMP JUMPDEST PUSH1 0x40 DUP1 MLOAD SWAP5 DUP6 MSTORE SWAP3 ISZERO ISZERO PUSH1 0x20 DUP6 ADD MSTORE SWAP1 ISZERO ISZERO SWAP2 DUP4 ADD SWAP2 SWAP1 SWAP2 MSTORE PUSH1 0x60 DUP3 ADD MSTORE PUSH1 0x80 ADD PUSH2 0x103 JUMP JUMPDEST PUSH2 0x2A0 PUSH2 0x2D4 CALLDATASIZE PUSH1 0x4 PUSH2 0xC9F JUMP JUMPDEST PUSH1 0x4 PUSH1 0x20 MSTORE PUSH1 0x0 SWAP1 DUP2 MSTORE PUSH1 0x40 SWAP1 KECCAK256 DUP1 SLOAD PUSH1 0x1 DUP3 ADD SLOAD PUSH1 0x2 SWAP1 SWAP3 ADD SLOAD SWAP1 SWAP2 PUSH1 0xFF DUP1 DUP3 AND SWAP3 PUSH2 0x100 SWAP1 SWAP3 DIV AND SWAP1 DUP5 JUMP JUMPDEST PUSH1 0x0 SLOAD PUSH1 0x1 PUSH1 0x1 PUSH1 0xA0 SHL SUB AND CALLER EQ PUSH2 0x335 JUMPI PUSH1 0x40 MLOAD PUSH3 0x461BCD PUSH1 0xE5 SHL DUP2 MSTORE PUSH1 0x4 ADD PUSH2 0x32C SWAP1 PUSH2 0xDF1 JUMP JUMPDEST PUSH1 0x40 MLOAD DUP1 SWAP2 SUB SWAP1 REVERT JUMPDEST PUSH1 0x1 PUSH1 0x1 PUSH1 0xA0 SHL SUB DUP2 AND PUSH1 0x0 SWAP1 DUP2 MSTORE PUSH1 0x4 PUSH1 0x20 MSTORE PUSH1 0x40 SWAP1 KECCAK256 PUSH1 0x1 ADD SLOAD PUSH2 0x100 SWAP1 DIV PUSH1 0xFF AND PUSH2 0x375 JUMPI PUSH1 0x40 MLOAD PUSH3 0x461BCD PUSH1 0xE5 SHL DUP2 MSTORE PUSH1 0x4 ADD PUSH2 0x32C SWAP1 PUSH2 0xE32 JUMP JUMPDEST PUSH1 0x1 PUSH1 0x1 PUSH1 0xA0 SHL SUB DUP2 AND PUSH1 0x0 SWAP1 DUP2 MSTORE PUSH1 0x4 PUSH1 0x20 MSTORE PUSH1 0x40 SWAP1 KECCAK256 PUSH1 0x1 ADD SLOAD PUSH1 0xFF AND ISZERO PUSH2 0x3B1 JUMPI PUSH1 0x40 MLOAD PUSH3 0x461BCD PUSH1 0xE5 SHL DUP2 MSTORE PUSH1 0x4 ADD PUSH2 0x32C SWAP1 PUSH2 0xE60 JUMP JUMPDEST PUSH1 0x1 PUSH1 0x1 PUSH1 0xA0 SHL SUB DUP2 AND PUSH1 0x0 SWAP1 DUP2 MSTORE PUSH1 0x1 PUSH1 0x20 MSTORE PUSH1 0x40 SWAP1 KECCAK256 SLOAD PUSH2 0x411 JUMPI PUSH1 0x40 MLOAD PUSH3 0x461BCD PUSH1 0xE5 SHL DUP2 MSTORE PUSH1 0x20 PUSH1 0x4 DUP3 ADD MSTORE PUSH1 0x18 PUSH1 0x24 DUP3 ADD MSTORE PUSH24 0x11DC9858D9481C195C9A5BD9081B9BDD081CDD185C9D1959 PUSH1 0x42 SHL PUSH1 0x44 DUP3 ADD MSTORE PUSH1 0x64 ADD PUSH2 0x32C JUMP JUMPDEST PUSH1 0x1 PUSH1 0x1 PUSH1 0xA0 SHL SUB DUP2 AND PUSH1 0x0 SWAP1 DUP2 MSTORE PUSH1 0x3 PUSH1 0x20 MSTORE PUSH1 0x40 SWAP1 KECCAK256 SLOAD PUSH1 0xFF AND ISZERO PUSH2 0x47A JUMPI PUSH1 0x40 MLOAD PUSH3 0x461BCD PUSH1 0xE5 SHL DUP2 MSTORE PUSH1 0x20 PUSH1 0x4 DUP3 ADD MSTORE PUSH1 0x1E PUSH1 0x24 DUP3 ADD MSTORE PUSH32 0x477261636520706572696F6420616C72656164792070726F6365737365640000 PUSH1 0x44 DUP3 ADD MSTORE PUSH1 0x64 ADD PUSH2 0x32C JUMP JUMPDEST PUSH1 0x1 PUSH1 0x1 PUSH1 0xA0 SHL SUB DUP2 AND PUSH1 0x0 DUP2 DUP2 MSTORE PUSH1 0x2 PUSH1 0x20 MSTORE PUSH1 0x40 SWAP1 DUP2 SWAP1 KECCAK256 DUP1 SLOAD PUSH1 0xFF NOT AND PUSH1 0x1 OR SWAP1 SSTORE MLOAD PUSH32 0x1C33176E53A5EA7E802680F4A7A824697927A65C4C046E6939D569F07C8446EE SWAP1 PUSH2 0x4CF SWAP1 TIMESTAMP DUP2 MSTORE PUSH1 0x20 ADD SWAP1 JUMP JUMPDEST PUSH1 0x40 MLOAD DUP1 SWAP2 SUB SWAP1 LOG2 POP JUMP JUMPDEST PUSH1 0x0 PUSH2 0x4E8 DUP3 DUP5 ADD DUP5 PUSH2 0xC9F JUMP JUMPDEST PUSH1 0x1 PUSH1 0x1 PUSH1 0xA0 SHL SUB DUP2 AND PUSH1 0x0 SWAP1 DUP2 MSTORE PUSH1 0x4 PUSH1 0x20 SWAP1 DUP2 MSTORE PUSH1 0x40 SWAP2 DUP3 SWAP1 KECCAK256 DUP3 MLOAD PUSH1 0x80 DUP2 ADD DUP5 MSTORE DUP2 SLOAD DUP2 MSTORE PUSH1 0x1 DUP3 ADD SLOAD PUSH1 0xFF DUP1 DUP3 AND ISZERO ISZERO SWAP5 DUP4 ADD SWAP5 SWAP1 SWAP5 MSTORE PUSH2 0x100 SWAP1 DIV SWAP1 SWAP3 AND ISZERO ISZERO SWAP3 DUP3 ADD DUP4 SWAP1 MSTORE PUSH1 0x2 ADD SLOAD PUSH1 0x60 DUP3 ADD MSTORE SWAP2 SWAP3 POP PUSH2 0x55B JUMPI PUSH1 0x40 MLOAD PUSH3 0x461BCD PUSH1 0xE5 SHL DUP2 MSTORE PUSH1 0x4 ADD PUSH2 0x32C SWAP1 PUSH2 0xE32 JUMP JUMPDEST DUP1 PUSH1 0x20 ADD MLOAD ISZERO PUSH2 0x57D JUMPI PUSH1 0x40 MLOAD PUSH3 0x461BCD PUSH1 0xE5 SHL DUP2 MSTORE PUSH1 0x4 ADD PUSH2 0x32C SWAP1 PUSH2 0xE60 JUMP JUMPDEST PUSH1 0x1 PUSH1 0x1 PUSH1 0xA0 SHL SUB DUP3 AND PUSH1 0x0 SWAP1 DUP2 MSTORE PUSH1 0x1 PUSH1 0x20 MSTORE PUSH1 0x40 SWAP1 KECCAK256 SLOAD PUSH2 0x5DD JUMPI PUSH1 0x40 MLOAD PUSH3 0x461BCD PUSH1 0xE5 SHL DUP2 MSTORE PUSH1 0x20 PUSH1 0x4 DUP3 ADD MSTORE PUSH1 0x18 PUSH1 0x24 DUP3 ADD MSTORE PUSH24 0x11DC9858D9481C195C9A5BD9081B9BDD081CDD185C9D1959 PUSH1 0x42 SHL PUSH1 0x44 DUP3 ADD MSTORE PUSH1 0x64 ADD PUSH2 0x32C JUMP JUMPDEST PUSH1 0x1 PUSH1 0x1 PUSH1 0xA0 SHL SUB DUP3 AND PUSH1 0x0 SWAP1 DUP2 MSTORE PUSH1 0x3 PUSH1 0x20 MSTORE PUSH1 0x40 SWAP1 KECCAK256 SLOAD PUSH1 0xFF AND ISZERO PUSH2 0x646 JUMPI PUSH1 0x40 MLOAD PUSH3 0x461BCD PUSH1 0xE5 SHL DUP2 MSTORE PUSH1 0x20 PUSH1 0x4 DUP3 ADD MSTORE PUSH1 0x1E PUSH1 0x24 DUP3 ADD MSTORE PUSH32 0x477261636520706572696F6420616C72656164792070726F6365737365640000 PUSH1 0x44 DUP3 ADD MSTORE PUSH1 0x64 ADD PUSH2 0x32C JUMP JUMPDEST DUP1 MLOAD PUSH1 0x1 PUSH1 0x1 PUSH1 0xA0 SHL SUB DUP4 AND PUSH1 0x0 SWAP1 DUP2 MSTORE PUSH1 0x1 PUSH1 0x20 MSTORE PUSH1 0x40 DUP2 KECCAK256 SLOAD SWAP1 SWAP2 PUSH2 0x66C SWAP2 PUSH2 0xE97 JUMP JUMPDEST SWAP1 POP DUP1 TIMESTAMP LT ISZERO PUSH2 0x6BE JUMPI PUSH1 0x40 MLOAD PUSH3 0x461BCD PUSH1 0xE5 SHL DUP2 MSTORE PUSH1 0x20 PUSH1 0x4 DUP3 ADD MSTORE PUSH1 0x19 PUSH1 0x24 DUP3 ADD MSTORE PUSH32 0x477261636520706572696F64206E6F7420796574206F76657200000000000000 PUSH1 0x44 DUP3 ADD MSTORE PUSH1 0x64 ADD PUSH2 0x32C JUMP JUMPDEST PUSH1 0x1 PUSH1 0x1 PUSH1 0xA0 SHL SUB DUP4 AND PUSH1 0x0 DUP2 DUP2 MSTORE PUSH1 0x3 PUSH1 0x20 SWAP1 DUP2 MSTORE PUSH1 0x40 DUP1 DUP4 KECCAK256 DUP1 SLOAD PUSH1 0xFF NOT AND PUSH1 0x1 OR SWAP1 SSTORE PUSH1 0x2 DUP3 MSTORE SWAP2 DUP3 SWAP1 KECCAK256 SLOAD DUP3 MLOAD PUSH1 0xFF SWAP1 SWAP2 AND ISZERO DUP1 DUP3 MSTORE TIMESTAMP SWAP3 DUP3 ADD SWAP3 SWAP1 SWAP3 MSTORE SWAP1 SWAP3 SWAP2 PUSH32 0x73B02415C6B09933E21630F00DF65BEEEC8F81533EF3533C4F1C76BEFBD2D1C SWAP2 ADD PUSH1 0x40 MLOAD DUP1 SWAP2 SUB SWAP1 LOG2 POP POP POP POP POP POP JUMP JUMPDEST PUSH1 0x0 SLOAD PUSH1 0x1 PUSH1 0x1 PUSH1 0xA0 SHL SUB AND CALLER EQ PUSH2 0x760 JUMPI PUSH1 0x40 MLOAD PUSH3 0x461BCD PUSH1 0xE5 SHL DUP2 MSTORE PUSH1 0x4 ADD PUSH2 0x32C SWAP1 PUSH2 0xDF1 JUMP JUMPDEST PUSH1 0x0 DUP1 SLOAD PUSH1 0x1 PUSH1 0x1 PUSH1 0xA0 SHL SUB DUP4 DUP2 AND PUSH1 0x1 PUSH1 0x1 PUSH1 0xA0 SHL SUB NOT DUP4 AND DUP2 OR DUP5 SSTORE PUSH1 0x40 MLOAD SWAP2 SWAP1 SWAP3 AND SWAP3 DUP4 SWAP2 PUSH32 0x795A939FE2A728B07190F9BFB4773C10BABE8459CC80E2482596DAD3077A2D32 SWAP2 SWAP1 LOG3 POP POP JUMP JUMPDEST PUSH1 0x0 PUSH1 0x60 DUP3 DUP3 SUB PUSH2 0x7D3 JUMPI POP POP PUSH1 0x40 DUP1 MLOAD PUSH1 0x20 DUP2 ADD SWAP1 SWAP2 MSTORE PUSH1 0x0 DUP1 DUP3 MSTORE SWAP1 PUSH2 0x976 JUMP JUMPDEST PUSH1 0x0 PUSH2 0x7E1 DUP5 DUP7 ADD DUP7 PUSH2 0xC9F JUMP JUMPDEST PUSH1 0x1 PUSH1 0x1 PUSH1 0xA0 SHL SUB DUP2 AND PUSH1 0x0 SWAP1 DUP2 MSTORE PUSH1 0x4 PUSH1 0x20 SWAP1 DUP2 MSTORE PUSH1 0x40 SWAP2 DUP3 SWAP1 KECCAK256 DUP3 MLOAD PUSH1 0x80 DUP2 ADD DUP5 MSTORE DUP2 SLOAD DUP2 MSTORE PUSH1 0x1 DUP3 ADD SLOAD PUSH1 0xFF DUP1 DUP3 AND ISZERO ISZERO SWAP5 DUP4 ADD SWAP5 SWAP1 SWAP5 MSTORE PUSH2 0x100 SWAP1 DIV SWAP1 SWAP3 AND ISZERO DUP1 ISZERO SWAP4 DUP4 ADD SWAP4 SWAP1 SWAP4 MSTORE PUSH1 0x2 ADD SLOAD PUSH1 0x60 DUP3 ADD MSTORE SWAP2 SWAP3 POP DUP1 PUSH2 0x846 JUMPI POP DUP1 PUSH1 0x20 ADD MLOAD JUMPDEST ISZERO PUSH2 0x868 JUMPI PUSH1 0x0 PUSH1 0x40 MLOAD DUP1 PUSH1 0x20 ADD PUSH1 0x40 MSTORE DUP1 PUSH1 0x0 DUP2 MSTORE POP SWAP4 POP SWAP4 POP POP POP PUSH2 0x976 JUMP JUMPDEST PUSH1 0x1 PUSH1 0x1 PUSH1 0xA0 SHL SUB DUP3 AND PUSH1 0x0 SWAP1 DUP2 MSTORE PUSH1 0x1 PUSH1 0x20 MSTORE PUSH1 0x40 DUP2 KECCAK256 SLOAD SWAP1 SUB PUSH2 0x8A4 JUMPI PUSH1 0x0 PUSH1 0x40 MLOAD DUP1 PUSH1 0x20 ADD PUSH1 0x40 MSTORE DUP1 PUSH1 0x0 DUP2 MSTORE POP SWAP4 POP SWAP4 POP POP POP PUSH2 0x976 JUMP JUMPDEST PUSH1 0x1 PUSH1 0x1 PUSH1 0xA0 SHL SUB DUP3 AND PUSH1 0x0 SWAP1 DUP2 MSTORE PUSH1 0x3 PUSH1 0x20 MSTORE PUSH1 0x40 SWAP1 KECCAK256 SLOAD PUSH1 0xFF AND ISZERO PUSH2 0x8E2 JUMPI PUSH1 0x0 PUSH1 0x40 MLOAD DUP1 PUSH1 0x20 ADD PUSH1 0x40 MSTORE DUP1 PUSH1 0x0 DUP2 MSTORE POP SWAP4 POP SWAP4 POP POP POP PUSH2 0x976 JUMP JUMPDEST DUP1 MLOAD PUSH1 0x1 PUSH1 0x1 PUSH1 0xA0 SHL SUB DUP4 AND PUSH1 0x0 SWAP1 DUP2 MSTORE PUSH1 0x1 PUSH1 0x20 MSTORE PUSH1 0x40 DUP2 KECCAK256 SLOAD SWAP1 SWAP2 PUSH2 0x908 SWAP2 PUSH2 0xE97 JUMP JUMPDEST SWAP1 POP DUP1 TIMESTAMP LT PUSH2 0x95C JUMPI PUSH1 0x1 DUP8 DUP8 DUP2 DUP2 DUP1 DUP1 PUSH1 0x1F ADD PUSH1 0x20 DUP1 SWAP2 DIV MUL PUSH1 0x20 ADD PUSH1 0x40 MLOAD SWAP1 DUP2 ADD PUSH1 0x40 MSTORE DUP1 SWAP4 SWAP3 SWAP2 SWAP1 DUP2 DUP2 MSTORE PUSH1 0x20 ADD DUP4 DUP4 DUP1 DUP3 DUP5 CALLDATACOPY PUSH1 0x0 SWAP3 ADD SWAP2 SWAP1 SWAP2 MSTORE POP SWAP6 SWAP11 POP SWAP2 SWAP9 POP PUSH2 0x976 SWAP8 POP POP POP POP POP POP POP POP JUMP JUMPDEST PUSH1 0x0 PUSH1 0x40 MLOAD DUP1 PUSH1 0x20 ADD PUSH1 0x40 MSTORE DUP1 PUSH1 0x0 DUP2 MSTORE POP SWAP5 POP SWAP5 POP POP POP POP JUMPDEST SWAP3 POP SWAP3 SWAP1 POP JUMP JUMPDEST PUSH1 0x1 PUSH1 0x1 PUSH1 0xA0 SHL SUB DUP2 AND PUSH1 0x0 SWAP1 DUP2 MSTORE PUSH1 0x1 PUSH1 0x20 MSTORE PUSH1 0x40 DUP2 KECCAK256 SLOAD DUP2 SWAP1 DUP2 SUB PUSH2 0x9A9 JUMPI POP PUSH1 0x0 SWAP3 DUP4 SWAP3 POP SWAP1 POP JUMP JUMPDEST PUSH1 0x1 PUSH1 0x1 PUSH1 0xA0 SHL SUB DUP4 AND PUSH1 0x0 DUP2 DUP2 MSTORE PUSH1 0x4 PUSH1 0x20 SWAP1 DUP2 MSTORE PUSH1 0x40 DUP1 DUP4 KECCAK256 DUP2 MLOAD PUSH1 0x80 DUP2 ADD DUP4 MSTORE DUP2 SLOAD DUP1 DUP3 MSTORE PUSH1 0x1 DUP1 DUP5 ADD SLOAD PUSH1 0xFF DUP1 DUP3 AND ISZERO ISZERO DUP6 DUP10 ADD MSTORE PUSH2 0x100 SWAP1 SWAP2 DIV AND ISZERO ISZERO DUP4 DUP7 ADD MSTORE PUSH1 0x2 SWAP1 SWAP4 ADD SLOAD PUSH1 0x60 DUP4 ADD MSTORE SWAP6 DUP6 MSTORE SWAP3 MSTORE DUP3 KECCAK256 SLOAD SWAP1 SWAP3 PUSH2 0xA0D SWAP2 PUSH2 0xE97 JUMP JUMPDEST TIMESTAMP DUP2 GT ISZERO SWAP7 SWAP1 SWAP6 POP SWAP4 POP POP POP POP JUMP JUMPDEST PUSH1 0x0 SLOAD PUSH1 0x1 PUSH1 0x1 PUSH1 0xA0 SHL SUB AND CALLER EQ PUSH2 0xA46 JUMPI PUSH1 0x40 MLOAD PUSH3 0x461BCD PUSH1 0xE5 SHL DUP2 MSTORE PUSH1 0x4 ADD PUSH2 0x32C SWAP1 PUSH2 0xDF1 JUMP JUMPDEST PUSH1 0x1 PUSH1 0x1 PUSH1 0xA0 SHL SUB DUP2 AND PUSH1 0x0 SWAP1 DUP2 MSTORE PUSH1 0x4 PUSH1 0x20 MSTORE PUSH1 0x40 SWAP1 KECCAK256 PUSH1 0x1 ADD SLOAD PUSH2 0x100 SWAP1 DIV PUSH1 0xFF AND PUSH2 0xA86 JUMPI PUSH1 0x40 MLOAD PUSH3 0x461BCD PUSH1 0xE5 SHL DUP2 MSTORE PUSH1 0x4 ADD PUSH2 0x32C SWAP1 PUSH2 0xE32 JUMP JUMPDEST PUSH1 0x1 PUSH1 0x1 PUSH1 0xA0 SHL SUB DUP2 AND PUSH1 0x0 SWAP1 DUP2 MSTORE PUSH1 0x4 PUSH1 0x20 MSTORE PUSH1 0x40 SWAP1 KECCAK256 PUSH1 0x1 ADD SLOAD PUSH1 0xFF AND ISZERO PUSH2 0xAC2 JUMPI PUSH1 0x40 MLOAD PUSH3 0x461BCD PUSH1 0xE5 SHL DUP2 MSTORE PUSH1 0x4 ADD PUSH2 0x32C SWAP1 PUSH2 0xE60 JUMP JUMPDEST PUSH1 0x1 PUSH1 0x1 PUSH1 0xA0 SHL SUB DUP2 AND PUSH1 0x0 SWAP1 DUP2 MSTORE PUSH1 0x1 PUSH1 0x20 MSTORE PUSH1 0x40 SWAP1 KECCAK256 SLOAD ISZERO PUSH2 0xB28 JUMPI PUSH1 0x40 MLOAD PUSH3 0x461BCD PUSH1 0xE5 SHL DUP2 MSTORE PUSH1 0x20 PUSH1 0x4 DUP3 ADD MSTORE PUSH1 0x1C PUSH1 0x24 DUP3 ADD MSTORE PUSH32 0x477261636520706572696F6420616C7265616479207374617274656400000000 PUSH1 0x44 DUP3 ADD MSTORE PUSH1 0x64 ADD PUSH2 0x32C JUMP JUMPDEST PUSH1 0x1 PUSH1 0x1 PUSH1 0xA0 SHL SUB DUP2 AND PUSH1 0x0 DUP2 DUP2 MSTORE PUSH1 0x1 PUSH1 0x20 SWAP1 DUP2 MSTORE PUSH1 0x40 DUP1 DUP4 KECCAK256 TIMESTAMP SWAP1 DUP2 SWAP1 SSTORE PUSH1 0x2 DUP4 MSTORE DUP2 DUP5 KECCAK256 DUP1 SLOAD PUSH1 0xFF NOT SWAP1 DUP2 AND SWAP1 SWAP2 SSTORE PUSH1 0x3 DUP5 MSTORE DUP3 DUP6 KECCAK256 DUP1 SLOAD SWAP1 SWAP2 AND SWAP1 SSTORE PUSH1 0x4 SWAP1 SWAP3 MSTORE SWAP2 DUP3 SWAP1 KECCAK256 SLOAD SWAP2 MLOAD PUSH32 0x674B29EAC3F8DB4186C76E9429FA4D70125D68FED7B9A0D862732A7D2FCF4E36 SWAP3 PUSH2 0x4CF SWAP3 DUP3 MSTORE PUSH1 0x20 DUP3 ADD MSTORE PUSH1 0x40 ADD SWAP1 JUMP JUMPDEST PUSH1 0x0 SLOAD PUSH1 0x1 PUSH1 0x1 PUSH1 0xA0 SHL SUB AND CALLER EQ PUSH2 0xBD1 JUMPI PUSH1 0x40 MLOAD PUSH3 0x461BCD PUSH1 0xE5 SHL DUP2 MSTORE PUSH1 0x4 ADD PUSH2 0x32C SWAP1 PUSH2 0xDF1 JUMP JUMPDEST PUSH1 0x40 DUP1 MLOAD PUSH1 0x80 DUP2 ADD DUP3 MSTORE DUP5 DUP2 MSTORE DUP4 ISZERO ISZERO PUSH1 0x20 DUP1 DUP4 ADD DUP3 DUP2 MSTORE DUP6 ISZERO ISZERO DUP5 DUP7 ADD SWAP1 DUP2 MSTORE TIMESTAMP PUSH1 0x60 DUP7 ADD SWAP1 DUP2 MSTORE PUSH1 0x1 PUSH1 0x1 PUSH1 0xA0 SHL SUB DUP12 AND PUSH1 0x0 DUP2 DUP2 MSTORE PUSH1 0x4 DUP7 MSTORE DUP9 SWAP1 KECCAK256 SWAP7 MLOAD DUP8 SSTORE SWAP3 MLOAD PUSH1 0x1 DUP8 ADD DUP1 SLOAD SWAP4 MLOAD ISZERO ISZERO PUSH2 0x100 MUL PUSH2 0xFF00 NOT SWAP3 ISZERO ISZERO SWAP3 SWAP1 SWAP3 AND PUSH2 0xFFFF NOT SWAP1 SWAP5 AND SWAP4 SWAP1 SWAP4 OR OR SWAP1 SWAP2 SSTORE MLOAD PUSH1 0x2 SWAP1 SWAP5 ADD SWAP4 SWAP1 SWAP4 SSTORE DUP4 MLOAD DUP8 DUP2 MSTORE SWAP1 DUP2 ADD SWAP2 SWAP1 SWAP2 MSTORE SWAP1 SWAP2 PUSH32 0x66E28817E51B6C4E9AFA9ADF864BC03E8BEF5CCD353F844ABB70FC603E361D68 SWAP2 ADD PUSH1 0x40 MLOAD DUP1 SWAP2 SUB SWAP1 LOG2 POP POP POP POP JUMP JUMPDEST PUSH1 0x1 PUSH1 0x1 PUSH1 0xA0 SHL SUB DUP2 AND DUP2 EQ PUSH2 0xC9C JUMPI PUSH1 0x0 DUP1 REVERT JUMPDEST POP JUMP JUMPDEST PUSH1 0x0 PUSH1 0x20 DUP3 DUP5 SUB SLT ISZERO PUSH2 0xCB1 JUMPI PUSH1 0x0 DUP1 REVERT JUMPDEST DUP2 CALLDATALOAD PUSH2 0xCBC DUP2 PUSH2 0xC87 JUMP JUMPDEST SWAP4 SWAP3 POP POP POP JUMP JUMPDEST PUSH1 0x0 DUP1 PUSH1 0x20 DUP4 DUP6 SUB SLT ISZERO PUSH2 0xCD6 JUMPI PUSH1 0x0 DUP1 REVERT JUMPDEST DUP3 CALLDATALOAD PUSH8 0xFFFFFFFFFFFFFFFF DUP1 DUP3 GT ISZERO PUSH2 0xCEE JUMPI PUSH1 0x0 DUP1 REVERT JUMPDEST DUP2 DUP6 ADD SWAP2 POP DUP6 PUSH1 0x1F DUP4 ADD SLT PUSH2 0xD02 JUMPI PUSH1 0x0 DUP1 REVERT JUMPDEST DUP2 CALLDATALOAD DUP2 DUP2 GT ISZERO PUSH2 0xD11 JUMPI PUSH1 0x0 DUP1 REVERT JUMPDEST DUP7 PUSH1 0x20 DUP3 DUP6 ADD ADD GT ISZERO PUSH2 0xD23 JUMPI PUSH1 0x0 DUP1 REVERT JUMPDEST PUSH1 0x20 SWAP3 SWAP1 SWAP3 ADD SWAP7 SWAP2 SWAP6 POP SWAP1 SWAP4 POP POP POP POP JUMP JUMPDEST DUP3 ISZERO ISZERO DUP2 MSTORE PUSH1 0x0 PUSH1 0x20 PUSH1 0x40 DUP2 DUP5 ADD MSTORE DUP4 MLOAD DUP1 PUSH1 0x40 DUP6 ADD MSTORE PUSH1 0x0 JUMPDEST DUP2 DUP2 LT ISZERO PUSH2 0xD6B JUMPI DUP6 DUP2 ADD DUP4 ADD MLOAD DUP6 DUP3 ADD PUSH1 0x60 ADD MSTORE DUP3 ADD PUSH2 0xD4F JUMP JUMPDEST POP PUSH1 0x0 PUSH1 0x60 DUP3 DUP7 ADD ADD MSTORE PUSH1 0x60 PUSH1 0x1F NOT PUSH1 0x1F DUP4 ADD AND DUP6 ADD ADD SWAP3 POP POP POP SWAP4 SWAP3 POP POP POP JUMP JUMPDEST DUP1 CALLDATALOAD DUP1 ISZERO ISZERO DUP2 EQ PUSH2 0xD9D JUMPI PUSH1 0x0 DUP1 REVERT JUMPDEST SWAP2 SWAP1 POP JUMP JUMPDEST PUSH1 0x0 DUP1 PUSH1 0x0 DUP1 PUSH1 0x80 DUP6 DUP8 SUB SLT ISZERO PUSH2 0xDB8 JUMPI PUSH1 0x0 DUP1 REVERT JUMPDEST DUP5 CALLDATALOAD PUSH2 0xDC3 DUP2 PUSH2 0xC87 JUMP JUMPDEST SWAP4 POP PUSH1 0x20 DUP6 ADD CALLDATALOAD SWAP3 POP PUSH2 0xDD8 PUSH1 0x40 DUP7 ADD PUSH2 0xD8D JUMP JUMPDEST SWAP2 POP PUSH2 0xDE6 PUSH1 0x60 DUP7 ADD PUSH2 0xD8D JUMP JUMPDEST SWAP1 POP SWAP3 SWAP6 SWAP2 SWAP5 POP SWAP3 POP JUMP JUMPDEST PUSH1 0x20 DUP1 DUP3 MSTORE PUSH1 0x21 SWAP1 DUP3 ADD MSTORE PUSH32 0x4F6E6C792072656C61792063616E2063616C6C20746869732066756E6374696F PUSH1 0x40 DUP3 ADD MSTORE PUSH1 0x37 PUSH1 0xF9 SHL PUSH1 0x60 DUP3 ADD MSTORE PUSH1 0x80 ADD SWAP1 JUMP JUMPDEST PUSH1 0x20 DUP1 DUP3 MSTORE PUSH1 0x14 SWAP1 DUP3 ADD MSTORE PUSH20 0x13DDDB995C88191BD95CC81B9BDD08195E1A5CDD PUSH1 0x62 SHL PUSH1 0x40 DUP3 ADD MSTORE PUSH1 0x60 ADD SWAP1 JUMP JUMPDEST PUSH1 0x20 DUP1 DUP3 MSTORE PUSH1 0x19 SWAP1 DUP3 ADD MSTORE PUSH32 0x4F776E657220697320616C726561647920646563656173656400000000000000 PUSH1 0x40 DUP3 ADD MSTORE PUSH1 0x60 ADD SWAP1 JUMP JUMPDEST DUP1 DUP3 ADD DUP1 DUP3 GT ISZERO PUSH2 0xEB8 JUMPI PUSH4 0x4E487B71 PUSH1 0xE0 SHL PUSH1 0x0 MSTORE PUSH1 0x11 PUSH1 0x4 MSTORE PUSH1 0x24 PUSH1 0x0 REVERT JUMPDEST SWAP3 SWAP2 POP POP JUMP INVALID LOG2 PUSH5 0x6970667358 0x22 SLT KECCAK256 0x26 ADDRESS SWAP2 0xD0 MSTORE8 SSTORE JUMP SHL PUSH16 0xB536836ACE66806002D8AB420B60D86 SGT PUSH26 0x51C4207BFD64736F6C6343000813003300000000000000000000 "
        },
        "methodIdentifiers": {
          "checkGracePeriodEnd(address)": "9e733e62",
          "checkUpkeep(bytes)": "6e04ff0d",
          "getOwnerData(address)": "e6b962a9",
          "gracePeriodStart(address)": "36a76238",
          "hasPinged(address)": "d7c83774",
          "ownerDataCache(address)": "f2d56925",
          "performUpkeep(bytes)": "4585e33b",
          "processedGracePeriod(address)": "0557605c",
          "recordPing(address)": "12f2bf18",
          "relayAddress()": "8a648184",
          "startGracePeriod(address)": "a3fc970c",
          "updateOwnerData(address,uint256,bool,bool)": "be45f041",
          "updateRelayAddress(address)": "4ee1b6d8"
        }
      }
    }
  }
}